{
  "_format": "hh-sol-artifact-1",
  "contractName": "StaterDiscounts",
  "sourceName": "contracts/workers/StaterDiscounts.sol",
  "abi": [
    {
      "anonymous": false,
      "inputs": [
        {
          "indexed": true,
          "internalType": "address",
          "name": "previousOwner",
          "type": "address"
        },
        {
          "indexed": true,
          "internalType": "address",
          "name": "newOwner",
          "type": "address"
        }
      ],
      "name": "OwnershipTransferred",
      "type": "event"
    },
    {
      "inputs": [
        {
          "internalType": "uint8",
          "name": "_tokenType",
          "type": "uint8"
        },
        {
          "internalType": "address",
          "name": "_tokenContract",
          "type": "address"
        },
        {
          "internalType": "uint8",
          "name": "_discount",
          "type": "uint8"
        },
        {
          "internalType": "uint256[]",
          "name": "_tokenIds",
          "type": "uint256[]"
        }
      ],
      "name": "addDiscount",
      "outputs": [],
      "stateMutability": "nonpayable",
      "type": "function"
    },
    {
      "inputs": [
        {
          "internalType": "address",
          "name": "requester",
          "type": "address"
        }
      ],
      "name": "calculateDiscount",
      "outputs": [
        {
          "internalType": "uint256",
          "name": "",
          "type": "uint256"
        }
      ],
      "stateMutability": "view",
      "type": "function"
    },
    {
      "inputs": [],
      "name": "discountId",
      "outputs": [
        {
          "internalType": "uint256",
          "name": "",
          "type": "uint256"
        }
      ],
      "stateMutability": "view",
      "type": "function"
    },
    {
      "inputs": [
        {
          "internalType": "uint256",
          "name": "",
          "type": "uint256"
        }
      ],
      "name": "discounts",
      "outputs": [
        {
          "internalType": "uint8",
          "name": "tokenType",
          "type": "uint8"
        },
        {
          "internalType": "address",
          "name": "tokenContract",
          "type": "address"
        },
        {
          "internalType": "uint8",
          "name": "discount",
          "type": "uint8"
        }
      ],
      "stateMutability": "view",
      "type": "function"
    },
    {
      "inputs": [
        {
          "internalType": "uint256",
          "name": "_discountId",
          "type": "uint256"
        },
        {
          "internalType": "address",
          "name": "_tokenContract",
          "type": "address"
        },
        {
          "internalType": "uint8",
          "name": "_discount",
          "type": "uint8"
        },
        {
          "internalType": "uint256[]",
          "name": "_tokenIds",
          "type": "uint256[]"
        },
        {
          "internalType": "uint8",
          "name": "_tokenType",
          "type": "uint8"
        }
      ],
      "name": "editDiscount",
      "outputs": [],
      "stateMutability": "nonpayable",
      "type": "function"
    },
    {
      "inputs": [
        {
          "internalType": "uint256",
          "name": "_discountId",
          "type": "uint256"
        },
        {
          "internalType": "uint256",
          "name": "tokenIdIndex",
          "type": "uint256"
        }
      ],
      "name": "getDiscountTokenId",
      "outputs": [
        {
          "internalType": "uint256",
          "name": "",
          "type": "uint256"
        }
      ],
      "stateMutability": "view",
      "type": "function"
    },
    {
      "inputs": [],
      "name": "owner",
      "outputs": [
        {
          "internalType": "address",
          "name": "",
          "type": "address"
        }
      ],
      "stateMutability": "view",
      "type": "function"
    },
    {
      "inputs": [],
      "name": "renounceOwnership",
      "outputs": [],
      "stateMutability": "nonpayable",
      "type": "function"
    },
    {
      "inputs": [
        {
          "internalType": "address",
          "name": "newOwner",
          "type": "address"
        }
      ],
      "name": "transferOwnership",
      "outputs": [],
      "stateMutability": "nonpayable",
      "type": "function"
    }
  ],
  "bytecode": "0x608060405234801561001057600080fd5b5060006100216100c460201b60201c565b9050806000806101000a81548173ffffffffffffffffffffffffffffffffffffffff021916908373ffffffffffffffffffffffffffffffffffffffff1602179055508073ffffffffffffffffffffffffffffffffffffffff16600073ffffffffffffffffffffffffffffffffffffffff167f8be0079c531659141344cd1fd0a4f28419497f9722a3daafe3b4186f6b6457e060405160405180910390a3506100cc565b600033905090565b611353806100db6000396000f3fe608060405234801561001057600080fd5b50600436106100935760003560e01c8063ad6a874511610066578063ad6a8745146101df578063bae6a69014610237578063d1a55e37146102a3578063f2fde38b146102c1578063ff1a48f71461030557610093565b806319cb235014610098578063715018a6146100e45780638aa51ec8146100ee5780638da5cb5b146101ab575b600080fd5b6100ce600480360360408110156100ae57600080fd5b8101908080359060200190929190803590602001909291905050506103f7565b6040518082815260200191505060405180910390f35b6100ec61042d565b005b6101a9600480360360a081101561010457600080fd5b8101908080359060200190929190803573ffffffffffffffffffffffffffffffffffffffff169060200190929190803560ff1690602001909291908035906020019064010000000081111561015857600080fd5b82018360208201111561016a57600080fd5b8035906020019184602083028401116401000000008311171561018c57600080fd5b9091929391929390803560ff1690602001909291905050506105b3565b005b6101b3610837565b604051808273ffffffffffffffffffffffffffffffffffffffff16815260200191505060405180910390f35b610221600480360360208110156101f557600080fd5b81019080803573ffffffffffffffffffffffffffffffffffffffff169060200190929190505050610860565b6040518082815260200191505060405180910390f35b6102636004803603602081101561024d57600080fd5b8101908080359060200190929190505050610e4c565b604051808460ff1681526020018373ffffffffffffffffffffffffffffffffffffffff1681526020018260ff168152602001935050505060405180910390f35b6102ab610eb0565b6040518082815260200191505060405180910390f35b610303600480360360208110156102d757600080fd5b81019080803573ffffffffffffffffffffffffffffffffffffffff169060200190929190505050610eb6565b005b6103f56004803603608081101561031b57600080fd5b81019080803560ff169060200190929190803573ffffffffffffffffffffffffffffffffffffffff169060200190929190803560ff1690602001909291908035906020019064010000000081111561037257600080fd5b82018360208201111561038457600080fd5b803590602001918460208302840111640100000000831117156103a657600080fd5b919080806020026020016040519081016040528093929190818152602001838360200280828437600081840152601f19601f8201169050808301925050505050505091929192905050506110c1565b005b600060026000848152602001908152602001600020600101828154811061041a57fe5b9060005260206000200154905092915050565b610435611285565b73ffffffffffffffffffffffffffffffffffffffff1660008054906101000a900473ffffffffffffffffffffffffffffffffffffffff1673ffffffffffffffffffffffffffffffffffffffff16146104f5576040517f08c379a00000000000000000000000000000000000000000000000000000000081526004018080602001828103825260208152602001807f4f776e61626c653a2063616c6c6572206973206e6f7420746865206f776e657281525060200191505060405180910390fd5b600073ffffffffffffffffffffffffffffffffffffffff1660008054906101000a900473ffffffffffffffffffffffffffffffffffffffff1673ffffffffffffffffffffffffffffffffffffffff167f8be0079c531659141344cd1fd0a4f28419497f9722a3daafe3b4186f6b6457e060405160405180910390a360008060006101000a81548173ffffffffffffffffffffffffffffffffffffffff021916908373ffffffffffffffffffffffffffffffffffffffff160217905550565b6105bb611285565b73ffffffffffffffffffffffffffffffffffffffff1660008054906101000a900473ffffffffffffffffffffffffffffffffffffffff1673ffffffffffffffffffffffffffffffffffffffff161461067b576040517f08c379a00000000000000000000000000000000000000000000000000000000081526004018080602001828103825260208152602001807f4f776e61626c653a2063616c6c6572206973206e6f7420746865206f776e657281525060200191505060405180910390fd5b846002600088815260200190815260200160002060000160016101000a81548173ffffffffffffffffffffffffffffffffffffffff021916908373ffffffffffffffffffffffffffffffffffffffff160217905550836002600088815260200190815260200160002060000160156101000a81548160ff021916908360ff16021790555080600260008360ff16815260200190815260200160002060000160006101000a81548160ff021916908360ff16021790555060006002600088815260200190815260200160002060010180549050905060005b848490508110801561076357508181105b156107b55784848281811061077457fe5b90506020020135600260008a8152602001908152602001600020600101828154811061079c57fe5b9060005260206000200181905550806001019050610752565b508084849050111561082e5760008190505b8484905081101561082c57600260008981526020019081526020016000206001018585838181106107f457fe5b9050602002013590806001815401808255809150506001900390600052602060002001600090919091909150558060010190506107c7565b505b50505050505050565b60008060009054906101000a900473ffffffffffffffffffffffffffffffffffffffff16905090565b6000806001905060005b600154811015610e425760016002600083815260200190815260200160002060000160009054906101000a900460ff1660ff161415610a7c5760005b6002600083815260200190815260200160002060010180549050811015610a7a576002600083815260200190815260200160002060000160159054906101000a900460ff1660ff168311806108fb5750600183145b801561092d575060016002600084815260200190815260200160002060000160159054906101000a900460ff1660ff16115b15610a6f5760006002600084815260200190815260200160002060000160019054906101000a900473ffffffffffffffffffffffffffffffffffffffff1673ffffffffffffffffffffffffffffffffffffffff1662fdd58e876002600087815260200190815260200160002060010185815481106109a757fe5b90600052602060002001546040518363ffffffff1660e01b8152600401808373ffffffffffffffffffffffffffffffffffffffff1681526020018281526020019250505060206040518083038186803b158015610a0357600080fd5b505afa158015610a17573d6000803e3d6000fd5b505050506040513d6020811015610a2d57600080fd5b81019080805190602001909291905050501115610a6e576002600083815260200190815260200160002060000160159054906101000a900460ff1660ff1692505b5b8060010190506108a6565b505b600280600083815260200190815260200160002060000160009054906101000a900460ff1660ff161415610c21576002600082815260200190815260200160002060000160159054906101000a900460ff1660ff16821180610ade5750600182145b8015610b10575060016002600083815260200190815260200160002060000160159054906101000a900460ff1660ff16115b15610c205760006002600083815260200190815260200160002060000160019054906101000a900473ffffffffffffffffffffffffffffffffffffffff1673ffffffffffffffffffffffffffffffffffffffff16634b341aed866040518263ffffffff1660e01b8152600401808273ffffffffffffffffffffffffffffffffffffffff16815260200191505060206040518083038186803b158015610bb457600080fd5b505afa158015610bc8573d6000803e3d6000fd5b505050506040513d6020811015610bde57600080fd5b81019080805190602001909291905050501115610c1f576002600082815260200190815260200160002060000160159054906101000a900460ff1660ff1691505b5b5b60006002600083815260200190815260200160002060000160009054906101000a900460ff1660ff161415610e375760005b6002600083815260200190815260200160002060010180549050811015610e35576002600083815260200190815260200160002060000160159054906101000a900460ff1660ff16831180610ca85750600183145b8015610cda575060016002600084815260200190815260200160002060000160159054906101000a900460ff1660ff16115b15610e2a578473ffffffffffffffffffffffffffffffffffffffff166002600084815260200190815260200160002060000160019054906101000a900473ffffffffffffffffffffffffffffffffffffffff1673ffffffffffffffffffffffffffffffffffffffff16636352211e600260008681526020019081526020016000206001018481548110610d6957fe5b90600052602060002001546040518263ffffffff1660e01b81526004018082815260200191505060206040518083038186803b158015610da857600080fd5b505afa158015610dbc573d6000803e3d6000fd5b505050506040513d6020811015610dd257600080fd5b810190808051906020019092919050505073ffffffffffffffffffffffffffffffffffffffff161415610e29576002600083815260200190815260200160002060000160159054906101000a900460ff1660ff1692505b5b806001019050610c53565b505b80600101905061086a565b5080915050919050565b60026020528060005260406000206000915090508060000160009054906101000a900460ff16908060000160019054906101000a900473ffffffffffffffffffffffffffffffffffffffff16908060000160159054906101000a900460ff16905083565b60015481565b610ebe611285565b73ffffffffffffffffffffffffffffffffffffffff1660008054906101000a900473ffffffffffffffffffffffffffffffffffffffff1673ffffffffffffffffffffffffffffffffffffffff1614610f7e576040517f08c379a00000000000000000000000000000000000000000000000000000000081526004018080602001828103825260208152602001807f4f776e61626c653a2063616c6c6572206973206e6f7420746865206f776e657281525060200191505060405180910390fd5b600073ffffffffffffffffffffffffffffffffffffffff168173ffffffffffffffffffffffffffffffffffffffff161415611004576040517f08c379a00000000000000000000000000000000000000000000000000000000081526004018080602001828103825260268152602001806112f86026913960400191505060405180910390fd5b8073ffffffffffffffffffffffffffffffffffffffff1660008054906101000a900473ffffffffffffffffffffffffffffffffffffffff1673ffffffffffffffffffffffffffffffffffffffff167f8be0079c531659141344cd1fd0a4f28419497f9722a3daafe3b4186f6b6457e060405160405180910390a3806000806101000a81548173ffffffffffffffffffffffffffffffffffffffff021916908373ffffffffffffffffffffffffffffffffffffffff16021790555050565b6110c9611285565b73ffffffffffffffffffffffffffffffffffffffff1660008054906101000a900473ffffffffffffffffffffffffffffffffffffffff1673ffffffffffffffffffffffffffffffffffffffff1614611189576040517f08c379a00000000000000000000000000000000000000000000000000000000081526004018080602001828103825260208152602001807f4f776e61626c653a2063616c6c6572206973206e6f7420746865206f776e657281525060200191505060405180910390fd5b8360026000600154815260200190815260200160002060000160006101000a81548160ff021916908360ff1602179055508260026000600154815260200190815260200160002060000160016101000a81548173ffffffffffffffffffffffffffffffffffffffff021916908373ffffffffffffffffffffffffffffffffffffffff1602179055508160026000600154815260200190815260200160002060000160156101000a81548160ff021916908360ff16021790555080600260006001548152602001908152602001600020600101908051906020019061126e92919061128d565b506001600081546001019190508190555050505050565b600033905090565b8280548282559060005260206000209081019282156112c9579160200282015b828111156112c85782518255916020019190600101906112ad565b5b5090506112d691906112da565b5090565b5b808211156112f35760008160009055506001016112db565b509056fe4f776e61626c653a206e6577206f776e657220697320746865207a65726f2061646472657373a2646970667358221220233a34622123dbd6876f2b5dfda53cafbc0b61ccc1495d981241bb968503939764736f6c63430007060033",
  "linkReferences": {},
  "deployedLinkReferences": {}
}