{
  "_format": "hh-sol-artifact-1",
  "contractName": "ERC1155MintBurnMock",
  "sourceName": "contracts/libs/multi-token-standard/contracts/mocks/ERC1155MintBurnMock.sol",
  "abi": [
    {
      "anonymous": false,
      "inputs": [
        {
          "indexed": true,
          "internalType": "address",
          "name": "_owner",
          "type": "address"
        },
        {
          "indexed": true,
          "internalType": "address",
          "name": "_operator",
          "type": "address"
        },
        {
          "indexed": false,
          "internalType": "bool",
          "name": "_approved",
          "type": "bool"
        }
      ],
      "name": "ApprovalForAll",
      "type": "event"
    },
    {
      "anonymous": false,
      "inputs": [
        {
          "indexed": true,
          "internalType": "address",
          "name": "_operator",
          "type": "address"
        },
        {
          "indexed": true,
          "internalType": "address",
          "name": "_from",
          "type": "address"
        },
        {
          "indexed": true,
          "internalType": "address",
          "name": "_to",
          "type": "address"
        },
        {
          "indexed": false,
          "internalType": "uint256[]",
          "name": "_ids",
          "type": "uint256[]"
        },
        {
          "indexed": false,
          "internalType": "uint256[]",
          "name": "_amounts",
          "type": "uint256[]"
        }
      ],
      "name": "TransferBatch",
      "type": "event"
    },
    {
      "anonymous": false,
      "inputs": [
        {
          "indexed": true,
          "internalType": "address",
          "name": "_operator",
          "type": "address"
        },
        {
          "indexed": true,
          "internalType": "address",
          "name": "_from",
          "type": "address"
        },
        {
          "indexed": true,
          "internalType": "address",
          "name": "_to",
          "type": "address"
        },
        {
          "indexed": false,
          "internalType": "uint256",
          "name": "_id",
          "type": "uint256"
        },
        {
          "indexed": false,
          "internalType": "uint256",
          "name": "_amount",
          "type": "uint256"
        }
      ],
      "name": "TransferSingle",
      "type": "event"
    },
    {
      "anonymous": false,
      "inputs": [
        {
          "indexed": false,
          "internalType": "string",
          "name": "_uri",
          "type": "string"
        },
        {
          "indexed": true,
          "internalType": "uint256",
          "name": "_id",
          "type": "uint256"
        }
      ],
      "name": "URI",
      "type": "event"
    },
    {
      "stateMutability": "nonpayable",
      "type": "fallback"
    },
    {
      "inputs": [
        {
          "internalType": "address",
          "name": "_owner",
          "type": "address"
        },
        {
          "internalType": "uint256",
          "name": "_id",
          "type": "uint256"
        }
      ],
      "name": "balanceOf",
      "outputs": [
        {
          "internalType": "uint256",
          "name": "",
          "type": "uint256"
        }
      ],
      "stateMutability": "view",
      "type": "function"
    },
    {
      "inputs": [
        {
          "internalType": "address[]",
          "name": "_owners",
          "type": "address[]"
        },
        {
          "internalType": "uint256[]",
          "name": "_ids",
          "type": "uint256[]"
        }
      ],
      "name": "balanceOfBatch",
      "outputs": [
        {
          "internalType": "uint256[]",
          "name": "",
          "type": "uint256[]"
        }
      ],
      "stateMutability": "view",
      "type": "function"
    },
    {
      "inputs": [
        {
          "internalType": "address",
          "name": "_from",
          "type": "address"
        },
        {
          "internalType": "uint256[]",
          "name": "_ids",
          "type": "uint256[]"
        },
        {
          "internalType": "uint256[]",
          "name": "_values",
          "type": "uint256[]"
        }
      ],
      "name": "batchBurnMock",
      "outputs": [],
      "stateMutability": "nonpayable",
      "type": "function"
    },
    {
      "inputs": [
        {
          "internalType": "address",
          "name": "_to",
          "type": "address"
        },
        {
          "internalType": "uint256[]",
          "name": "_ids",
          "type": "uint256[]"
        },
        {
          "internalType": "uint256[]",
          "name": "_values",
          "type": "uint256[]"
        },
        {
          "internalType": "bytes",
          "name": "_data",
          "type": "bytes"
        }
      ],
      "name": "batchMintMock",
      "outputs": [],
      "stateMutability": "nonpayable",
      "type": "function"
    },
    {
      "inputs": [
        {
          "internalType": "address",
          "name": "_from",
          "type": "address"
        },
        {
          "internalType": "uint256",
          "name": "_id",
          "type": "uint256"
        },
        {
          "internalType": "uint256",
          "name": "_value",
          "type": "uint256"
        }
      ],
      "name": "burnMock",
      "outputs": [],
      "stateMutability": "nonpayable",
      "type": "function"
    },
    {
      "inputs": [
        {
          "internalType": "address",
          "name": "_owner",
          "type": "address"
        },
        {
          "internalType": "address",
          "name": "_operator",
          "type": "address"
        }
      ],
      "name": "isApprovedForAll",
      "outputs": [
        {
          "internalType": "bool",
          "name": "isOperator",
          "type": "bool"
        }
      ],
      "stateMutability": "view",
      "type": "function"
    },
    {
      "inputs": [
        {
          "internalType": "address",
          "name": "_to",
          "type": "address"
        },
        {
          "internalType": "uint256",
          "name": "_id",
          "type": "uint256"
        },
        {
          "internalType": "uint256",
          "name": "_value",
          "type": "uint256"
        },
        {
          "internalType": "bytes",
          "name": "_data",
          "type": "bytes"
        }
      ],
      "name": "mintMock",
      "outputs": [],
      "stateMutability": "nonpayable",
      "type": "function"
    },
    {
      "inputs": [
        {
          "internalType": "address",
          "name": "_from",
          "type": "address"
        },
        {
          "internalType": "address",
          "name": "_to",
          "type": "address"
        },
        {
          "internalType": "uint256[]",
          "name": "_ids",
          "type": "uint256[]"
        },
        {
          "internalType": "uint256[]",
          "name": "_amounts",
          "type": "uint256[]"
        },
        {
          "internalType": "bytes",
          "name": "_data",
          "type": "bytes"
        }
      ],
      "name": "safeBatchTransferFrom",
      "outputs": [],
      "stateMutability": "nonpayable",
      "type": "function"
    },
    {
      "inputs": [
        {
          "internalType": "address",
          "name": "_from",
          "type": "address"
        },
        {
          "internalType": "address",
          "name": "_to",
          "type": "address"
        },
        {
          "internalType": "uint256",
          "name": "_id",
          "type": "uint256"
        },
        {
          "internalType": "uint256",
          "name": "_amount",
          "type": "uint256"
        },
        {
          "internalType": "bytes",
          "name": "_data",
          "type": "bytes"
        }
      ],
      "name": "safeTransferFrom",
      "outputs": [],
      "stateMutability": "nonpayable",
      "type": "function"
    },
    {
      "inputs": [
        {
          "internalType": "address",
          "name": "_operator",
          "type": "address"
        },
        {
          "internalType": "bool",
          "name": "_approved",
          "type": "bool"
        }
      ],
      "name": "setApprovalForAll",
      "outputs": [],
      "stateMutability": "nonpayable",
      "type": "function"
    },
    {
      "inputs": [
        {
          "internalType": "bytes4",
          "name": "_interfaceID",
          "type": "bytes4"
        }
      ],
      "name": "supportsInterface",
      "outputs": [
        {
          "internalType": "bool",
          "name": "",
          "type": "bool"
        }
      ],
      "stateMutability": "pure",
      "type": "function"
    },
    {
      "inputs": [
        {
          "internalType": "uint256",
          "name": "_id",
          "type": "uint256"
        }
      ],
      "name": "uri",
      "outputs": [
        {
          "internalType": "string",
          "name": "",
          "type": "string"
        }
      ],
      "stateMutability": "view",
      "type": "function"
    }
  ],
  "bytecode": "0x608060405234801561001057600080fd5b50612bfd806100206000396000f3fe608060405234801561001057600080fd5b50600436106100b75760003560e01c8063a22cb46511610071578063a22cb465146101eb578063a3f091f514610207578063bd7a6c4114610223578063d7a0ad901461023f578063e985e9c51461025b578063f242432a1461028b576100b8565b8062fdd58e146100f357806301ffc9a7146101235780630e89341c146101535780632eb2c2d614610183578063437ecbe91461019f5780634e1273f4146101bb576100b8565b5b6040517f08c379a00000000000000000000000000000000000000000000000000000000081526004016100ea9061276b565b60405180910390fd5b61010d60048036038101906101089190612406565b6102a7565b60405161011a919061278b565b60405180910390f35b61013d60048036038101906101389190612578565b610301565b60405161014a919061272e565b60405180910390f35b61016d600480360381019061016891906125a1565b610313565b60405161017a9190612749565b60405180910390f35b61019d60048036038101906101989190612152565b610413565b005b6101b960048036038101906101b49190612442565b61054f565b005b6101d560048036038101906101d0919061250c565b61055f565b6040516101e2919061270c565b60405180910390f35b610205600480360381019061020091906123ca565b6106b9565b005b610221600480360381019061021c9190612491565b6107b8565b005b61023d600480360381019061023891906122a0565b6107ca565b005b6102596004803603810190610254919061231f565b6107da565b005b61027560048036038101906102709190612116565b6107ec565b604051610282919061272e565b60405180910390f35b6102a560048036038101906102a09190612211565b610880565b005b60008060008473ffffffffffffffffffffffffffffffffffffffff1673ffffffffffffffffffffffffffffffffffffffff168152602001908152602001600020600083815260200190815260200160002054905092915050565b600061030c826109bc565b9050919050565b6060600261032083610a3e565b604051602001808380546001816001161561010002031660029004801561037e5780601f1061035c57610100808354040283529182019161037e565b820191906000526020600020905b81548152906001019060200180831161036a575b505082805190602001908083835b602083106103af578051825260208201915060208101905060208303925061038c565b6001836020036101000a038019825116818451168082178552505050505050905001807f2e6a736f6e000000000000000000000000000000000000000000000000000000815250600501925050506040516020818303038152906040529050919050565b8473ffffffffffffffffffffffffffffffffffffffff163373ffffffffffffffffffffffffffffffffffffffff161480610453575061045285336107ec565b5b6104a8576040517f08c379a000000000000000000000000000000000000000000000000000000000815260040180806020018281038252602f815260200180612af0602f913960400191505060405180910390fd5b600073ffffffffffffffffffffffffffffffffffffffff168473ffffffffffffffffffffffffffffffffffffffff16141561052e576040517f08c379a0000000000000000000000000000000000000000000000000000000008152600401808060200182810382526030815260200180612a646030913960400191505060405180910390fd5b61053a85858585610b88565b610548858585855a86610eea565b5050505050565b61055a83838361117c565b505050565b606081518351146105bb576040517f08c379a000000000000000000000000000000000000000000000000000000000815260040180806020018281038252602c815260200180612ac4602c913960400191505060405180910390fd5b6000835167ffffffffffffffff811180156105d557600080fd5b506040519080825280602002602001820160405280156106045781602001602082028036833780820191505090505b50905060005b84518110156106ae5760008086838151811061062257fe5b602002602001015173ffffffffffffffffffffffffffffffffffffffff1673ffffffffffffffffffffffffffffffffffffffff168152602001908152602001600020600085838151811061067257fe5b602002602001015181526020019081526020016000205482828151811061069557fe5b602002602001018181525050808060010191505061060a565b508091505092915050565b80600160003373ffffffffffffffffffffffffffffffffffffffff1673ffffffffffffffffffffffffffffffffffffffff16815260200190815260200160002060008473ffffffffffffffffffffffffffffffffffffffff1673ffffffffffffffffffffffffffffffffffffffff16815260200190815260200160002060006101000a81548160ff0219169083151502179055508173ffffffffffffffffffffffffffffffffffffffff163373ffffffffffffffffffffffffffffffffffffffff167f17307eab39ab6107e8899845ad3d59bd9653f200f220920489ca2b5937696c318360405180821515815260200191505060405180910390a35050565b6107c4848484846112bb565b50505050565b6107d583838361140a565b505050565b6107e68484848461167d565b50505050565b6000600160008473ffffffffffffffffffffffffffffffffffffffff1673ffffffffffffffffffffffffffffffffffffffff16815260200190815260200160002060008373ffffffffffffffffffffffffffffffffffffffff1673ffffffffffffffffffffffffffffffffffffffff16815260200190815260200160002060009054906101000a900460ff16905092915050565b8473ffffffffffffffffffffffffffffffffffffffff163373ffffffffffffffffffffffffffffffffffffffff1614806108c057506108bf85336107ec565b5b610915576040517f08c379a000000000000000000000000000000000000000000000000000000000815260040180806020018281038252602a815260200180612a05602a913960400191505060405180910390fd5b600073ffffffffffffffffffffffffffffffffffffffff168473ffffffffffffffffffffffffffffffffffffffff16141561099b576040517f08c379a000000000000000000000000000000000000000000000000000000000815260040180806020018281038252602b8152602001806129da602b913960400191505060405180910390fd5b6109a785858585611901565b6109b5858585855a86611af5565b5050505050565b60007f0e89341c000000000000000000000000000000000000000000000000000000007bffffffffffffffffffffffffffffffffffffffffffffffffffffffff1916827bffffffffffffffffffffffffffffffffffffffffffffffffffffffff19161415610a2d5760019050610a39565b610a3682611d05565b90505b919050565b60606000821415610a86576040518060400160405280600181526020017f30000000000000000000000000000000000000000000000000000000000000008152509050610b83565b6000829050600083905060005b60008314610ab5578080600101915050600a8381610aad57fe5b049250610a93565b60008167ffffffffffffffff81118015610ace57600080fd5b506040519080825280601f01601f191660200182016040528015610b015781602001600182028036833780820191505090505b50905060006001830390505b60008414610b7a57600a8481610b1f57fe5b0660300160f81b82828060019003935081518110610b3957fe5b60200101907effffffffffffffffffffffffffffffffffffffffffffffffffffffffffffff1916908160001a905350600a8481610b7257fe5b049350610b0d565b81955050505050505b919050565b8051825114610be2576040517f08c379a0000000000000000000000000000000000000000000000000000000008152600401808060200182810382526035815260200180612a2f6035913960400191505060405180910390fd5b60008251905060005b81811015610ddc57610c7b838281518110610c0257fe5b60200260200101516000808973ffffffffffffffffffffffffffffffffffffffff1673ffffffffffffffffffffffffffffffffffffffff1681526020019081526020016000206000878581518110610c5657fe5b6020026020010151815260200190815260200160002054611d8790919063ffffffff16565b6000808873ffffffffffffffffffffffffffffffffffffffff1673ffffffffffffffffffffffffffffffffffffffff1681526020019081526020016000206000868481518110610cc757fe5b6020026020010151815260200190815260200160002081905550610d69838281518110610cf057fe5b60200260200101516000808873ffffffffffffffffffffffffffffffffffffffff1673ffffffffffffffffffffffffffffffffffffffff1681526020019081526020016000206000878581518110610d4457fe5b6020026020010151815260200190815260200160002054611e1090919063ffffffff16565b6000808773ffffffffffffffffffffffffffffffffffffffff1673ffffffffffffffffffffffffffffffffffffffff1681526020019081526020016000206000868481518110610db557fe5b60200260200101518152602001908152602001600020819055508080600101915050610beb565b508373ffffffffffffffffffffffffffffffffffffffff168573ffffffffffffffffffffffffffffffffffffffff163373ffffffffffffffffffffffffffffffffffffffff167f4a39dc06d4c0dbc64b70af90fd698a233a518aa5d07e595d983b8c0526c8f7fb8686604051808060200180602001838103835285818151815260200191508051906020019060200280838360005b83811015610e8c578082015181840152602081019050610e71565b50505050905001838103825284818151815260200191508051906020019060200280838360005b83811015610ece578082015181840152602081019050610eb3565b5050505090500194505050505060405180910390a45050505050565b610f098573ffffffffffffffffffffffffffffffffffffffff16611e98565b156111745760008573ffffffffffffffffffffffffffffffffffffffff1663bc197c8184338a8989886040518763ffffffff1660e01b8152600401808673ffffffffffffffffffffffffffffffffffffffff1681526020018573ffffffffffffffffffffffffffffffffffffffff168152602001806020018060200180602001848103845287818151815260200191508051906020019060200280838360005b83811015610fc4578082015181840152602081019050610fa9565b50505050905001848103835286818151815260200191508051906020019060200280838360005b83811015611006578082015181840152602081019050610feb565b50505050905001848103825285818151815260200191508051906020019080838360005b8381101561104557808201518184015260208101905061102a565b50505050905090810190601f1680156110725780820380516001836020036101000a031916815260200191505b5098505050505050505050602060405180830381600088803b15801561109757600080fd5b5087f11580156110ab573d6000803e3d6000fd5b50505050506040513d60208110156110c257600080fd5b8101908080519060200190929190505050905063bc197c8160e01b7bffffffffffffffffffffffffffffffffffffffffffffffffffffffff1916817bffffffffffffffffffffffffffffffffffffffffffffffffffffffff191614611172576040517f08c379a000000000000000000000000000000000000000000000000000000000815260040180806020018281038252603f815260200180612b4f603f913960400191505060405180910390fd5b505b505050505050565b6111de816000808673ffffffffffffffffffffffffffffffffffffffff1673ffffffffffffffffffffffffffffffffffffffff168152602001908152602001600020600085815260200190815260200160002054611d8790919063ffffffff16565b6000808573ffffffffffffffffffffffffffffffffffffffff1673ffffffffffffffffffffffffffffffffffffffff168152602001908152602001600020600084815260200190815260200160002081905550600073ffffffffffffffffffffffffffffffffffffffff168373ffffffffffffffffffffffffffffffffffffffff163373ffffffffffffffffffffffffffffffffffffffff167fc3d58168c5ae7397731d063d5bbf3d657854427343f4c083240f7aacaa2d0f628585604051808381526020018281526020019250505060405180910390a4505050565b61131d826000808773ffffffffffffffffffffffffffffffffffffffff1673ffffffffffffffffffffffffffffffffffffffff168152602001908152602001600020600086815260200190815260200160002054611e1090919063ffffffff16565b6000808673ffffffffffffffffffffffffffffffffffffffff1673ffffffffffffffffffffffffffffffffffffffff1681526020019081526020016000206000858152602001908152602001600020819055508373ffffffffffffffffffffffffffffffffffffffff16600073ffffffffffffffffffffffffffffffffffffffff163373ffffffffffffffffffffffffffffffffffffffff167fc3d58168c5ae7397731d063d5bbf3d657854427343f4c083240f7aacaa2d0f628686604051808381526020018281526020019250505060405180910390a461140460008585855a86611af5565b50505050565b60008251905081518114611469576040517f08c379a0000000000000000000000000000000000000000000000000000000008152600401808060200182810382526030815260200180612a946030913960400191505060405180910390fd5b60005b8181101561156f576114fc83828151811061148357fe5b60200260200101516000808873ffffffffffffffffffffffffffffffffffffffff1673ffffffffffffffffffffffffffffffffffffffff16815260200190815260200160002060008785815181106114d757fe5b6020026020010151815260200190815260200160002054611d8790919063ffffffff16565b6000808773ffffffffffffffffffffffffffffffffffffffff1673ffffffffffffffffffffffffffffffffffffffff168152602001908152602001600020600086848151811061154857fe5b6020026020010151815260200190815260200160002081905550808060010191505061146c565b50600073ffffffffffffffffffffffffffffffffffffffff168473ffffffffffffffffffffffffffffffffffffffff163373ffffffffffffffffffffffffffffffffffffffff167f4a39dc06d4c0dbc64b70af90fd698a233a518aa5d07e595d983b8c0526c8f7fb8686604051808060200180602001838103835285818151815260200191508051906020019060200280838360005b83811015611620578082015181840152602081019050611605565b50505050905001838103825284818151815260200191508051906020019060200280838360005b83811015611662578082015181840152602081019050611647565b5050505090500194505050505060405180910390a450505050565b81518351146116d7576040517f08c379a0000000000000000000000000000000000000000000000000000000008152600401808060200182810382526030815260200180612b1f6030913960400191505060405180910390fd5b60008351905060005b818110156117e3576117708482815181106116f757fe5b60200260200101516000808973ffffffffffffffffffffffffffffffffffffffff1673ffffffffffffffffffffffffffffffffffffffff168152602001908152602001600020600088858151811061174b57fe5b6020026020010151815260200190815260200160002054611e1090919063ffffffff16565b6000808873ffffffffffffffffffffffffffffffffffffffff1673ffffffffffffffffffffffffffffffffffffffff16815260200190815260200160002060008784815181106117bc57fe5b602002602001015181526020019081526020016000208190555080806001019150506116e0565b508473ffffffffffffffffffffffffffffffffffffffff16600073ffffffffffffffffffffffffffffffffffffffff163373ffffffffffffffffffffffffffffffffffffffff167f4a39dc06d4c0dbc64b70af90fd698a233a518aa5d07e595d983b8c0526c8f7fb8787604051808060200180602001838103835285818151815260200191508051906020019060200280838360005b83811015611894578082015181840152602081019050611879565b50505050905001838103825284818151815260200191508051906020019060200280838360005b838110156118d65780820151818401526020810190506118bb565b5050505090500194505050505060405180910390a46118fa60008686865a87610eea565b5050505050565b611963816000808773ffffffffffffffffffffffffffffffffffffffff1673ffffffffffffffffffffffffffffffffffffffff168152602001908152602001600020600085815260200190815260200160002054611d8790919063ffffffff16565b6000808673ffffffffffffffffffffffffffffffffffffffff1673ffffffffffffffffffffffffffffffffffffffff168152602001908152602001600020600084815260200190815260200160002081905550611a18816000808673ffffffffffffffffffffffffffffffffffffffff1673ffffffffffffffffffffffffffffffffffffffff168152602001908152602001600020600085815260200190815260200160002054611e1090919063ffffffff16565b6000808573ffffffffffffffffffffffffffffffffffffffff1673ffffffffffffffffffffffffffffffffffffffff1681526020019081526020016000206000848152602001908152602001600020819055508273ffffffffffffffffffffffffffffffffffffffff168473ffffffffffffffffffffffffffffffffffffffff163373ffffffffffffffffffffffffffffffffffffffff167fc3d58168c5ae7397731d063d5bbf3d657854427343f4c083240f7aacaa2d0f628585604051808381526020018281526020019250505060405180910390a450505050565b611b148573ffffffffffffffffffffffffffffffffffffffff16611e98565b15611cfd5760008573ffffffffffffffffffffffffffffffffffffffff1663f23a6e6184338a8989886040518763ffffffff1660e01b8152600401808673ffffffffffffffffffffffffffffffffffffffff1681526020018573ffffffffffffffffffffffffffffffffffffffff16815260200184815260200183815260200180602001828103825283818151815260200191508051906020019080838360005b83811015611bd0578082015181840152602081019050611bb5565b50505050905090810190601f168015611bfd5780820380516001836020036101000a031916815260200191505b509650505050505050602060405180830381600088803b158015611c2057600080fd5b5087f1158015611c34573d6000803e3d6000fd5b50505050506040513d6020811015611c4b57600080fd5b8101908080519060200190929190505050905063f23a6e6160e01b7bffffffffffffffffffffffffffffffffffffffffffffffffffffffff1916817bffffffffffffffffffffffffffffffffffffffffffffffffffffffff191614611cfb576040517f08c379a000000000000000000000000000000000000000000000000000000000815260040180806020018281038252603a815260200180612b8e603a913960400191505060405180910390fd5b505b505050505050565b60007fd9b67a26000000000000000000000000000000000000000000000000000000007bffffffffffffffffffffffffffffffffffffffffffffffffffffffff1916827bffffffffffffffffffffffffffffffffffffffffffffffffffffffff19161415611d765760019050611d82565b611d7f82611edd565b90505b919050565b600082821115611dff576040517f08c379a00000000000000000000000000000000000000000000000000000000081526004018080602001828103825260178152602001807f536166654d617468237375623a20554e444552464c4f5700000000000000000081525060200191505060405180910390fd5b600082840390508091505092915050565b600080828401905083811015611e8e576040517f08c379a00000000000000000000000000000000000000000000000000000000081526004018080602001828103825260168152602001807f536166654d617468236164643a204f564552464c4f570000000000000000000081525060200191505060405180910390fd5b8091505092915050565b600080823f90506000801b8114158015611ed557507fc5d2460186f7233c927e7db2dcc703c0e500b653ca82273b7bfad8045d85a47060001b8114155b915050919050565b60006301ffc9a760e01b7bffffffffffffffffffffffffffffffffffffffffffffffffffffffff1916827bffffffffffffffffffffffffffffffffffffffffffffffffffffffff1916149050919050565b6000611f41611f3c846127d7565b6127a6565b90508083825260208201905082856020860282011115611f6057600080fd5b60005b85811015611f905781611f768882612044565b845260208401935060208301925050600181019050611f63565b5050509392505050565b6000611fad611fa884612803565b6127a6565b90508083825260208201905082856020860282011115611fcc57600080fd5b60005b85811015611ffc5781611fe28882612101565b845260208401935060208301925050600181019050611fcf565b5050509392505050565b60006120196120148461282f565b6127a6565b90508281526020810184848401111561203157600080fd5b61203c848285612928565b509392505050565b6000813590506120538161297d565b92915050565b600082601f83011261206a57600080fd5b813561207a848260208601611f2e565b91505092915050565b600082601f83011261209457600080fd5b81356120a4848260208601611f9a565b91505092915050565b6000813590506120bc81612994565b92915050565b6000813590506120d1816129ab565b92915050565b600082601f8301126120e857600080fd5b81356120f8848260208601612006565b91505092915050565b600081359050612110816129c2565b92915050565b6000806040838503121561212957600080fd5b600061213785828601612044565b925050602061214885828601612044565b9150509250929050565b600080600080600060a0868803121561216a57600080fd5b600061217888828901612044565b955050602061218988828901612044565b945050604086013567ffffffffffffffff8111156121a657600080fd5b6121b288828901612083565b935050606086013567ffffffffffffffff8111156121cf57600080fd5b6121db88828901612083565b925050608086013567ffffffffffffffff8111156121f857600080fd5b612204888289016120d7565b9150509295509295909350565b600080600080600060a0868803121561222957600080fd5b600061223788828901612044565b955050602061224888828901612044565b945050604061225988828901612101565b935050606061226a88828901612101565b925050608086013567ffffffffffffffff81111561228757600080fd5b612293888289016120d7565b9150509295509295909350565b6000806000606084860312156122b557600080fd5b60006122c386828701612044565b935050602084013567ffffffffffffffff8111156122e057600080fd5b6122ec86828701612083565b925050604084013567ffffffffffffffff81111561230957600080fd5b61231586828701612083565b9150509250925092565b6000806000806080858703121561233557600080fd5b600061234387828801612044565b945050602085013567ffffffffffffffff81111561236057600080fd5b61236c87828801612083565b935050604085013567ffffffffffffffff81111561238957600080fd5b61239587828801612083565b925050606085013567ffffffffffffffff8111156123b257600080fd5b6123be878288016120d7565b91505092959194509250565b600080604083850312156123dd57600080fd5b60006123eb85828601612044565b92505060206123fc858286016120ad565b9150509250929050565b6000806040838503121561241957600080fd5b600061242785828601612044565b925050602061243885828601612101565b9150509250929050565b60008060006060848603121561245757600080fd5b600061246586828701612044565b935050602061247686828701612101565b925050604061248786828701612101565b9150509250925092565b600080600080608085870312156124a757600080fd5b60006124b587828801612044565b94505060206124c687828801612101565b93505060406124d787828801612101565b925050606085013567ffffffffffffffff8111156124f457600080fd5b612500878288016120d7565b91505092959194509250565b6000806040838503121561251f57600080fd5b600083013567ffffffffffffffff81111561253957600080fd5b61254585828601612059565b925050602083013567ffffffffffffffff81111561256257600080fd5b61256e85828601612083565b9150509250929050565b60006020828403121561258a57600080fd5b6000612598848285016120c2565b91505092915050565b6000602082840312156125b357600080fd5b60006125c184828501612101565b91505092915050565b60006125d683836126ee565b60208301905092915050565b60006125ed8261286f565b6125f78185612892565b93506126028361285f565b8060005b8381101561263357815161261a88826125ca565b975061262583612885565b925050600181019050612606565b5085935050505092915050565b612649816128c6565b82525050565b600061265a8261287a565b61266481856128a3565b9350612674818560208601612937565b61267d8161296c565b840191505092915050565b60006126956027836128a3565b91507f455243313135354d6574614d696e744275726e4d6f636b3a20494e56414c494460008301527f5f4d4554484f44000000000000000000000000000000000000000000000000006020830152604082019050919050565b6126f78161291e565b82525050565b6127068161291e565b82525050565b6000602082019050818103600083015261272681846125e2565b905092915050565b60006020820190506127436000830184612640565b92915050565b60006020820190508181036000830152612763818461264f565b905092915050565b6000602082019050818103600083015261278481612688565b9050919050565b60006020820190506127a060008301846126fd565b92915050565b6000604051905081810181811067ffffffffffffffff821117156127cd576127cc61296a565b5b8060405250919050565b600067ffffffffffffffff8211156127f2576127f161296a565b5b602082029050602081019050919050565b600067ffffffffffffffff82111561281e5761281d61296a565b5b602082029050602081019050919050565b600067ffffffffffffffff82111561284a5761284961296a565b5b601f19601f8301169050602081019050919050565b6000819050602082019050919050565b600081519050919050565b600081519050919050565b6000602082019050919050565b600082825260208201905092915050565b600082825260208201905092915050565b60006128bf826128fe565b9050919050565b60008115159050919050565b60007fffffffff0000000000000000000000000000000000000000000000000000000082169050919050565b600073ffffffffffffffffffffffffffffffffffffffff82169050919050565b6000819050919050565b82818337600083830152505050565b60005b8381101561295557808201518184015260208101905061293a565b83811115612964576000848401525b50505050565bfe5b6000601f19601f8301169050919050565b612986816128b4565b811461299157600080fd5b50565b61299d816128c6565b81146129a857600080fd5b50565b6129b4816128d2565b81146129bf57600080fd5b50565b6129cb8161291e565b81146129d657600080fd5b5056fe4552433131353523736166655472616e7366657246726f6d3a20494e56414c49445f524543495049454e544552433131353523736166655472616e7366657246726f6d3a20494e56414c49445f4f50455241544f5245524331313535235f7361666542617463685472616e7366657246726f6d3a20494e56414c49445f4152524159535f4c454e47544845524331313535237361666542617463685472616e7366657246726f6d3a20494e56414c49445f524543495049454e54455243313135354d696e744275726e2362617463684275726e3a20494e56414c49445f4152524159535f4c454e475448455243313135352362616c616e63654f6642617463683a20494e56414c49445f41525241595f4c454e47544845524331313535237361666542617463685472616e7366657246726f6d3a20494e56414c49445f4f50455241544f52455243313135354d696e744275726e2362617463684d696e743a20494e56414c49445f4152524159535f4c454e47544845524331313535235f63616c6c6f6e45524331313535426174636852656365697665643a20494e56414c49445f4f4e5f524543454956455f4d45535341474545524331313535235f63616c6c6f6e4552433131353552656365697665643a20494e56414c49445f4f4e5f524543454956455f4d455353414745a2646970667358221220fb3519baea00e808abc614fafee630e33c62f77caef9f70b69e9fe2c5ffcd53864736f6c63430007060033",
  "linkReferences": {},
  "deployedLinkReferences": {}
}