{
  "_format": "hh-sol-artifact-1",
  "contractName": "GameItems721",
  "sourceName": "contracts/auxiliary/ERC721.sol",
  "abi": [
    {
      "inputs": [],
      "stateMutability": "nonpayable",
      "type": "constructor"
    },
    {
      "anonymous": false,
      "inputs": [
        {
          "indexed": true,
          "internalType": "address",
          "name": "owner",
          "type": "address"
        },
        {
          "indexed": true,
          "internalType": "address",
          "name": "approved",
          "type": "address"
        },
        {
          "indexed": true,
          "internalType": "uint256",
          "name": "tokenId",
          "type": "uint256"
        }
      ],
      "name": "Approval",
      "type": "event"
    },
    {
      "anonymous": false,
      "inputs": [
        {
          "indexed": true,
          "internalType": "address",
          "name": "owner",
          "type": "address"
        },
        {
          "indexed": true,
          "internalType": "address",
          "name": "operator",
          "type": "address"
        },
        {
          "indexed": false,
          "internalType": "bool",
          "name": "approved",
          "type": "bool"
        }
      ],
      "name": "ApprovalForAll",
      "type": "event"
    },
    {
      "anonymous": false,
      "inputs": [
        {
          "indexed": true,
          "internalType": "uint256",
          "name": "itemId",
          "type": "uint256"
        },
        {
          "indexed": true,
          "internalType": "address",
          "name": "owner",
          "type": "address"
        },
        {
          "indexed": false,
          "internalType": "string",
          "name": "name",
          "type": "string"
        },
        {
          "indexed": false,
          "internalType": "string",
          "name": "description",
          "type": "string"
        },
        {
          "indexed": false,
          "internalType": "string",
          "name": "image_url",
          "type": "string"
        }
      ],
      "name": "ItemCreation",
      "type": "event"
    },
    {
      "anonymous": false,
      "inputs": [
        {
          "indexed": true,
          "internalType": "address",
          "name": "previousOwner",
          "type": "address"
        },
        {
          "indexed": true,
          "internalType": "address",
          "name": "newOwner",
          "type": "address"
        }
      ],
      "name": "OwnershipTransferred",
      "type": "event"
    },
    {
      "anonymous": false,
      "inputs": [
        {
          "indexed": true,
          "internalType": "address",
          "name": "from",
          "type": "address"
        },
        {
          "indexed": true,
          "internalType": "address",
          "name": "to",
          "type": "address"
        },
        {
          "indexed": true,
          "internalType": "uint256",
          "name": "tokenId",
          "type": "uint256"
        }
      ],
      "name": "Transfer",
      "type": "event"
    },
    {
      "inputs": [
        {
          "internalType": "address",
          "name": "to",
          "type": "address"
        },
        {
          "internalType": "uint256",
          "name": "tokenId",
          "type": "uint256"
        }
      ],
      "name": "approve",
      "outputs": [],
      "stateMutability": "nonpayable",
      "type": "function"
    },
    {
      "inputs": [
        {
          "internalType": "address",
          "name": "owner",
          "type": "address"
        }
      ],
      "name": "balanceOf",
      "outputs": [
        {
          "internalType": "uint256",
          "name": "",
          "type": "uint256"
        }
      ],
      "stateMutability": "view",
      "type": "function"
    },
    {
      "inputs": [
        {
          "internalType": "string",
          "name": "name",
          "type": "string"
        },
        {
          "internalType": "string",
          "name": "description",
          "type": "string"
        },
        {
          "internalType": "string",
          "name": "image_url",
          "type": "string"
        }
      ],
      "name": "createItem",
      "outputs": [],
      "stateMutability": "nonpayable",
      "type": "function"
    },
    {
      "inputs": [
        {
          "internalType": "uint256",
          "name": "tokenId",
          "type": "uint256"
        }
      ],
      "name": "getApproved",
      "outputs": [
        {
          "internalType": "address",
          "name": "",
          "type": "address"
        }
      ],
      "stateMutability": "view",
      "type": "function"
    },
    {
      "inputs": [
        {
          "internalType": "uint256",
          "name": "itemId",
          "type": "uint256"
        }
      ],
      "name": "getItemDescription",
      "outputs": [
        {
          "internalType": "string",
          "name": "",
          "type": "string"
        }
      ],
      "stateMutability": "view",
      "type": "function"
    },
    {
      "inputs": [
        {
          "internalType": "uint256",
          "name": "itemId",
          "type": "uint256"
        }
      ],
      "name": "getItemName",
      "outputs": [
        {
          "internalType": "string",
          "name": "",
          "type": "string"
        }
      ],
      "stateMutability": "view",
      "type": "function"
    },
    {
      "inputs": [
        {
          "internalType": "uint256",
          "name": "itemId",
          "type": "uint256"
        }
      ],
      "name": "getItemOwner",
      "outputs": [
        {
          "internalType": "address",
          "name": "",
          "type": "address"
        }
      ],
      "stateMutability": "view",
      "type": "function"
    },
    {
      "inputs": [
        {
          "internalType": "uint256",
          "name": "itemId",
          "type": "uint256"
        }
      ],
      "name": "getItemUrl",
      "outputs": [
        {
          "internalType": "string",
          "name": "",
          "type": "string"
        }
      ],
      "stateMutability": "view",
      "type": "function"
    },
    {
      "inputs": [
        {
          "internalType": "address",
          "name": "owner",
          "type": "address"
        },
        {
          "internalType": "address",
          "name": "operator",
          "type": "address"
        }
      ],
      "name": "isApprovedForAll",
      "outputs": [
        {
          "internalType": "bool",
          "name": "",
          "type": "bool"
        }
      ],
      "stateMutability": "view",
      "type": "function"
    },
    {
      "inputs": [
        {
          "internalType": "uint256",
          "name": "",
          "type": "uint256"
        }
      ],
      "name": "items",
      "outputs": [
        {
          "internalType": "address",
          "name": "owner",
          "type": "address"
        },
        {
          "internalType": "string",
          "name": "name",
          "type": "string"
        },
        {
          "internalType": "string",
          "name": "description",
          "type": "string"
        },
        {
          "internalType": "string",
          "name": "image_url",
          "type": "string"
        }
      ],
      "stateMutability": "view",
      "type": "function"
    },
    {
      "inputs": [],
      "name": "name",
      "outputs": [
        {
          "internalType": "string",
          "name": "",
          "type": "string"
        }
      ],
      "stateMutability": "view",
      "type": "function"
    },
    {
      "inputs": [
        {
          "internalType": "address",
          "name": "",
          "type": "address"
        },
        {
          "internalType": "address",
          "name": "",
          "type": "address"
        },
        {
          "internalType": "uint256",
          "name": "",
          "type": "uint256"
        },
        {
          "internalType": "bytes",
          "name": "",
          "type": "bytes"
        }
      ],
      "name": "onERC721Received",
      "outputs": [
        {
          "internalType": "bytes4",
          "name": "",
          "type": "bytes4"
        }
      ],
      "stateMutability": "nonpayable",
      "type": "function"
    },
    {
      "inputs": [],
      "name": "owner",
      "outputs": [
        {
          "internalType": "address",
          "name": "",
          "type": "address"
        }
      ],
      "stateMutability": "view",
      "type": "function"
    },
    {
      "inputs": [
        {
          "internalType": "uint256",
          "name": "tokenId",
          "type": "uint256"
        }
      ],
      "name": "ownerOf",
      "outputs": [
        {
          "internalType": "address",
          "name": "",
          "type": "address"
        }
      ],
      "stateMutability": "view",
      "type": "function"
    },
    {
      "inputs": [],
      "name": "renounceOwnership",
      "outputs": [],
      "stateMutability": "nonpayable",
      "type": "function"
    },
    {
      "inputs": [
        {
          "internalType": "address",
          "name": "from",
          "type": "address"
        },
        {
          "internalType": "address",
          "name": "to",
          "type": "address"
        },
        {
          "internalType": "uint256",
          "name": "tokenId",
          "type": "uint256"
        }
      ],
      "name": "safeTransferFrom",
      "outputs": [],
      "stateMutability": "nonpayable",
      "type": "function"
    },
    {
      "inputs": [
        {
          "internalType": "address",
          "name": "from",
          "type": "address"
        },
        {
          "internalType": "address",
          "name": "to",
          "type": "address"
        },
        {
          "internalType": "uint256",
          "name": "tokenId",
          "type": "uint256"
        },
        {
          "internalType": "bytes",
          "name": "_data",
          "type": "bytes"
        }
      ],
      "name": "safeTransferFrom",
      "outputs": [],
      "stateMutability": "nonpayable",
      "type": "function"
    },
    {
      "inputs": [
        {
          "internalType": "address",
          "name": "operator",
          "type": "address"
        },
        {
          "internalType": "bool",
          "name": "approved",
          "type": "bool"
        }
      ],
      "name": "setApprovalForAll",
      "outputs": [],
      "stateMutability": "nonpayable",
      "type": "function"
    },
    {
      "inputs": [
        {
          "internalType": "bytes4",
          "name": "interfaceId",
          "type": "bytes4"
        }
      ],
      "name": "supportsInterface",
      "outputs": [
        {
          "internalType": "bool",
          "name": "",
          "type": "bool"
        }
      ],
      "stateMutability": "view",
      "type": "function"
    },
    {
      "inputs": [],
      "name": "symbol",
      "outputs": [
        {
          "internalType": "string",
          "name": "",
          "type": "string"
        }
      ],
      "stateMutability": "view",
      "type": "function"
    },
    {
      "inputs": [
        {
          "internalType": "uint256",
          "name": "tokenId",
          "type": "uint256"
        }
      ],
      "name": "tokenURI",
      "outputs": [
        {
          "internalType": "string",
          "name": "",
          "type": "string"
        }
      ],
      "stateMutability": "view",
      "type": "function"
    },
    {
      "inputs": [
        {
          "internalType": "address",
          "name": "from",
          "type": "address"
        },
        {
          "internalType": "address",
          "name": "to",
          "type": "address"
        },
        {
          "internalType": "uint256",
          "name": "tokenId",
          "type": "uint256"
        }
      ],
      "name": "transferFrom",
      "outputs": [],
      "stateMutability": "nonpayable",
      "type": "function"
    },
    {
      "inputs": [
        {
          "internalType": "address",
          "name": "newOwner",
          "type": "address"
        }
      ],
      "name": "transferOwnership",
      "outputs": [],
      "stateMutability": "nonpayable",
      "type": "function"
    },
    {
      "inputs": [
        {
          "internalType": "uint256",
          "name": "itemId",
          "type": "uint256"
        },
        {
          "internalType": "string",
          "name": "image_url",
          "type": "string"
        }
      ],
      "name": "updateUrl",
      "outputs": [],
      "stateMutability": "nonpayable",
      "type": "function"
    }
  ],
  "bytecode": "0x60806040523480156200001157600080fd5b50604080518082018252600b81526a546573742045524337323160a81b6020808301918252835180850190945260078452665445524337323160c81b9084015281519192916200006491600091620000f3565b5080516200007a906001906020840190620000f3565b50505062000097620000916200009d60201b60201c565b620000a1565b620001d5565b3390565b600680546001600160a01b038381166001600160a01b0319831681179093556040519116919082907f8be0079c531659141344cd1fd0a4f28419497f9722a3daafe3b4186f6b6457e090600090a35050565b828054620001019062000199565b90600052602060002090601f01602090048101928262000125576000855562000170565b82601f106200014057805160ff191683800117855562000170565b8280016001018555821562000170579182015b828111156200017057825182559160200191906001019062000153565b506200017e92915062000182565b5090565b5b808211156200017e576000815560010162000183565b600181811c90821680620001ae57607f821691505b602082108103620001cf57634e487b7160e01b600052602260045260246000fd5b50919050565b611ed180620001e56000396000f3fe608060405234801561001057600080fd5b50600436106101285760003560e01c806301ffc9a71461012d57806306fdde0314610155578063081812fc1461016a578063095ea7b3146101955780630aecb734146101aa578063150b7a02146101bd5780631d1440fd146101e957806323b872dd146101fc57806342842e0e1461020f5780636352211e1461022257806370a0823114610235578063715018a614610256578063876ab02b1461025e5780638da5cb5b1461027157806395d89b41146102795780639ef651a114610281578063a22cb46514610294578063b88d4fde146102a7578063bfb231d2146102ba578063c02619c4146102dd578063c87b56dd146102f0578063d9561a9114610303578063e985e9c514610316578063f2fde38b14610329575b600080fd5b61014061013b36600461179d565b61033c565b60405190151581526020015b60405180910390f35b61015d61038e565b60405161014c9190611812565b61017d610178366004611825565b610420565b6040516001600160a01b03909116815260200161014c565b6101a86101a336600461185a565b6104ad565b005b6101a86101b83660046118cc565b6105bd565b6101d06101cb36600461192d565b610686565b6040516001600160e01b0319909116815260200161014c565b61017d6101f7366004611825565b610697565b6101a861020a366004611a08565b6106cc565b6101a861021d366004611a08565b6106fd565b61017d610230366004611825565b610718565b610248610243366004611a44565b61078f565b60405190815260200161014c565b6101a8610816565b6101a861026c366004611a5f565b610851565b61017d610a34565b61015d610a43565b61015d61028f366004611825565b610a52565b6101a86102a2366004611af8565b610b08565b6101a86102b536600461192d565b610b17565b6102cd6102c8366004611825565b610b49565b60405161014c9493929190611b34565b61015d6102eb366004611825565b610d27565b61015d6102fe366004611825565b610d58565b61015d610311366004611825565b610e30565b610140610324366004611b89565b610e61565b6101a8610337366004611a44565b610e8f565b60006001600160e01b031982166380ac58cd60e01b148061036d57506001600160e01b03198216635b5e139f60e01b145b8061038857506301ffc9a760e01b6001600160e01b03198316145b92915050565b60606000805461039d90611bbc565b80601f01602080910402602001604051908101604052809291908181526020018280546103c990611bbc565b80156104165780601f106103eb57610100808354040283529160200191610416565b820191906000526020600020905b8154815290600101906020018083116103f957829003601f168201915b5050505050905090565b600061042b82610f2f565b6104915760405162461bcd60e51b815260206004820152602c60248201527f4552433732313a20617070726f76656420717565727920666f72206e6f6e657860448201526b34b9ba32b73a103a37b5b2b760a11b60648201526084015b60405180910390fd5b506000908152600460205260409020546001600160a01b031690565b60006104b882610718565b9050806001600160a01b0316836001600160a01b0316036105255760405162461bcd60e51b815260206004820152602160248201527f4552433732313a20617070726f76616c20746f2063757272656e74206f776e656044820152603960f91b6064820152608401610488565b336001600160a01b038216148061054157506105418133610e61565b6105ae5760405162461bcd60e51b815260206004820152603860248201527f4552433732313a20617070726f76652063616c6c6572206973206e6f74206f776044820152771b995c881b9bdc88185c1c1c9bdd995908199bdc88185b1b60421b6064820152608401610488565b6105b88383610f4c565b505050565b600783815481106105d0576105d0611bf6565b60009182526020909120600490910201546001600160a01b0316331461064d5760405162461bcd60e51b815260206004820152602c60248201527f47616d654974656d733a20596f75277265206e6f7420746865206f776e65722060448201526b6f662074686973206974656d60a01b6064820152608401610488565b81816007858154811061066257610662611bf6565b9060005260206000209060040201600301919061068092919061167a565b50505050565b630a85bd0160e11b5b949350505050565b6000600782815481106106ac576106ac611bf6565b60009182526020909120600490910201546001600160a01b031692915050565b6106d63382610fba565b6106f25760405162461bcd60e51b815260040161048890611c0c565b6105b8838383611083565b6105b883838360405180602001604052806000815250610b17565b6000818152600260205260408120546001600160a01b0316806103885760405162461bcd60e51b815260206004820152602960248201527f4552433732313a206f776e657220717565727920666f72206e6f6e657869737460448201526832b73a103a37b5b2b760b91b6064820152608401610488565b60006001600160a01b0382166107fa5760405162461bcd60e51b815260206004820152602a60248201527f4552433732313a2062616c616e636520717565727920666f7220746865207a65604482015269726f206164647265737360b01b6064820152608401610488565b506001600160a01b031660009081526003602052604090205490565b3361081f610a34565b6001600160a01b0316146108455760405162461bcd60e51b815260040161048890611c5d565b61084f600061120d565b565b3361085a610a34565b6001600160a01b0316146108805760405162461bcd60e51b815260040161048890611c5d565b6007546040513391907f82f1ad4a0564a9b7891669a4604e01bc0e5de35decf9be06457c6aefc3025a72906108c0908a908a908a908a908a908a90611cbb565b60405180910390a36007546108d690339061125f565b60076040518060800160405280336001600160a01b0316815260200188888080601f016020809104026020016040519081016040528093929190818152602001838380828437600092019190915250505090825250604080516020601f890181900481028201810190925287815291810191908890889081908401838280828437600092019190915250505090825250604080516020601f8701819004810282018101909252858152918101919086908690819084018382808284376000920182905250939094525050835460018082018655948252602091829020845160049092020180546001600160a01b0319166001600160a01b03909216919091178155838201518051949591946109f194509185019201906116fe565b5060408201518051610a0d9160028401916020909101906116fe565b5060608201518051610a299160038401916020909101906116fe565b505050505050505050565b6006546001600160a01b031690565b60606001805461039d90611bbc565b606060078281548110610a6757610a67611bf6565b90600052602060002090600402016003018054610a8390611bbc565b80601f0160208091040260200160405190810160405280929190818152602001828054610aaf90611bbc565b8015610afc5780601f10610ad157610100808354040283529160200191610afc565b820191906000526020600020905b815481529060010190602001808311610adf57829003601f168201915b50505050509050919050565b610b1333838361137f565b5050565b610b213383610fba565b610b3d5760405162461bcd60e51b815260040161048890611c0c565b61068084848484611449565b60078181548110610b5957600080fd5b6000918252602090912060049091020180546001820180546001600160a01b03909216935090610b8890611bbc565b80601f0160208091040260200160405190810160405280929190818152602001828054610bb490611bbc565b8015610c015780601f10610bd657610100808354040283529160200191610c01565b820191906000526020600020905b815481529060010190602001808311610be457829003601f168201915b505050505090806002018054610c1690611bbc565b80601f0160208091040260200160405190810160405280929190818152602001828054610c4290611bbc565b8015610c8f5780601f10610c6457610100808354040283529160200191610c8f565b820191906000526020600020905b815481529060010190602001808311610c7257829003601f168201915b505050505090806003018054610ca490611bbc565b80601f0160208091040260200160405190810160405280929190818152602001828054610cd090611bbc565b8015610d1d5780601f10610cf257610100808354040283529160200191610d1d565b820191906000526020600020905b815481529060010190602001808311610d0057829003601f168201915b5050505050905084565b606060078281548110610d3c57610d3c611bf6565b90600052602060002090600402016002018054610a8390611bbc565b6060610d6382610f2f565b610dc75760405162461bcd60e51b815260206004820152602f60248201527f4552433732314d657461646174613a2055524920717565727920666f72206e6f60448201526e3732bc34b9ba32b73a103a37b5b2b760891b6064820152608401610488565b6000610dde60408051602081019091526000815290565b90506000815111610dfe5760405180602001604052806000815250610e29565b80610e088461147c565b604051602001610e19929190611d04565b6040516020818303038152906040525b9392505050565b606060078281548110610e4557610e45611bf6565b90600052602060002090600402016001018054610a8390611bbc565b6001600160a01b03918216600090815260056020908152604080832093909416825291909152205460ff1690565b33610e98610a34565b6001600160a01b031614610ebe5760405162461bcd60e51b815260040161048890611c5d565b6001600160a01b038116610f235760405162461bcd60e51b815260206004820152602660248201527f4f776e61626c653a206e6577206f776e657220697320746865207a65726f206160448201526564647265737360d01b6064820152608401610488565b610f2c8161120d565b50565b6000908152600260205260409020546001600160a01b0316151590565b600081815260046020526040902080546001600160a01b0319166001600160a01b0384169081179091558190610f8182610718565b6001600160a01b03167f8c5be1e5ebec7d5bd14f71427d1e84f3dd0314c0f7b2291e5b200ac8c7c3b92560405160405180910390a45050565b6000610fc582610f2f565b6110265760405162461bcd60e51b815260206004820152602c60248201527f4552433732313a206f70657261746f7220717565727920666f72206e6f6e657860448201526b34b9ba32b73a103a37b5b2b760a11b6064820152608401610488565b600061103183610718565b9050806001600160a01b0316846001600160a01b0316148061105857506110588185610e61565b8061068f5750836001600160a01b031661107184610420565b6001600160a01b031614949350505050565b826001600160a01b031661109682610718565b6001600160a01b0316146110fa5760405162461bcd60e51b815260206004820152602560248201527f4552433732313a207472616e736665722066726f6d20696e636f72726563742060448201526437bbb732b960d91b6064820152608401610488565b6001600160a01b03821661115c5760405162461bcd60e51b8152602060048201526024808201527f4552433732313a207472616e7366657220746f20746865207a65726f206164646044820152637265737360e01b6064820152608401610488565b611167600082610f4c565b6001600160a01b0383166000908152600360205260408120805460019290611190908490611d49565b90915550506001600160a01b03821660009081526003602052604081208054600192906111be908490611d60565b909155505060008181526002602052604080822080546001600160a01b0319166001600160a01b038681169182179092559151849391871691600080516020611e7c83398151915291a4505050565b600680546001600160a01b038381166001600160a01b0319831681179093556040519116919082907f8be0079c531659141344cd1fd0a4f28419497f9722a3daafe3b4186f6b6457e090600090a35050565b6001600160a01b0382166112b55760405162461bcd60e51b815260206004820181905260248201527f4552433732313a206d696e7420746f20746865207a65726f20616464726573736044820152606401610488565b6112be81610f2f565b1561130a5760405162461bcd60e51b815260206004820152601c60248201527b115490cdcc8c4e881d1bdad95b88185b1c9958591e481b5a5b9d195960221b6044820152606401610488565b6001600160a01b0382166000908152600360205260408120805460019290611333908490611d60565b909155505060008181526002602052604080822080546001600160a01b0319166001600160a01b0386169081179091559051839290600080516020611e7c833981519152908290a45050565b816001600160a01b0316836001600160a01b0316036113dc5760405162461bcd60e51b815260206004820152601960248201527822a9219b99189d1030b8383937bb32903a379031b0b63632b960391b6044820152606401610488565b6001600160a01b03838116600081815260056020908152604080832094871680845294825291829020805460ff191686151590811790915591519182527f17307eab39ab6107e8899845ad3d59bd9653f200f220920489ca2b5937696c31910160405180910390a3505050565b611454848484611083565b6114608484848461157c565b6106805760405162461bcd60e51b815260040161048890611d78565b6060816000036114a35750506040805180820190915260018152600360fc1b602082015290565b8160005b81156114cd57806114b781611dca565b91506114c69050600a83611df9565b91506114a7565b6000816001600160401b038111156114e7576114e7611917565b6040519080825280601f01601f191660200182016040528015611511576020820181803683370190505b5090505b841561068f57611526600183611d49565b9150611533600a86611e0d565b61153e906030611d60565b60f81b81838151811061155357611553611bf6565b60200101906001600160f81b031916908160001a905350611575600a86611df9565b9450611515565b60006001600160a01b0384163b1561167257604051630a85bd0160e11b81526001600160a01b0385169063150b7a02906115c0903390899088908890600401611e21565b6020604051808303816000875af19250505080156115fb575060408051601f3d908101601f191682019092526115f891810190611e5e565b60015b611658573d808015611629576040519150601f19603f3d011682016040523d82523d6000602084013e61162e565b606091505b5080516000036116505760405162461bcd60e51b815260040161048890611d78565b805181602001fd5b6001600160e01b031916630a85bd0160e11b14905061068f565b50600161068f565b82805461168690611bbc565b90600052602060002090601f0160209004810192826116a857600085556116ee565b82601f106116c15782800160ff198235161785556116ee565b828001600101855582156116ee579182015b828111156116ee5782358255916020019190600101906116d3565b506116fa929150611772565b5090565b82805461170a90611bbc565b90600052602060002090601f01602090048101928261172c57600085556116ee565b82601f1061174557805160ff19168380011785556116ee565b828001600101855582156116ee579182015b828111156116ee578251825591602001919060010190611757565b5b808211156116fa5760008155600101611773565b6001600160e01b031981168114610f2c57600080fd5b6000602082840312156117af57600080fd5b8135610e2981611787565b60005b838110156117d55781810151838201526020016117bd565b838111156106805750506000910152565b600081518084526117fe8160208601602086016117ba565b601f01601f19169290920160200192915050565b602081526000610e2960208301846117e6565b60006020828403121561183757600080fd5b5035919050565b80356001600160a01b038116811461185557600080fd5b919050565b6000806040838503121561186d57600080fd5b6118768361183e565b946020939093013593505050565b60008083601f84011261189657600080fd5b5081356001600160401b038111156118ad57600080fd5b6020830191508360208285010111156118c557600080fd5b9250929050565b6000806000604084860312156118e157600080fd5b8335925060208401356001600160401b038111156118fe57600080fd5b61190a86828701611884565b9497909650939450505050565b634e487b7160e01b600052604160045260246000fd5b6000806000806080858703121561194357600080fd5b61194c8561183e565b935061195a6020860161183e565b92506040850135915060608501356001600160401b038082111561197d57600080fd5b818701915087601f83011261199157600080fd5b8135818111156119a3576119a3611917565b604051601f8201601f19908116603f011681019083821181831017156119cb576119cb611917565b816040528281528a60208487010111156119e457600080fd5b82602086016020830137600060208483010152809550505050505092959194509250565b600080600060608486031215611a1d57600080fd5b611a268461183e565b9250611a346020850161183e565b9150604084013590509250925092565b600060208284031215611a5657600080fd5b610e298261183e565b60008060008060008060608789031215611a7857600080fd5b86356001600160401b0380821115611a8f57600080fd5b611a9b8a838b01611884565b90985096506020890135915080821115611ab457600080fd5b611ac08a838b01611884565b90965094506040890135915080821115611ad957600080fd5b50611ae689828a01611884565b979a9699509497509295939492505050565b60008060408385031215611b0b57600080fd5b611b148361183e565b915060208301358015158114611b2957600080fd5b809150509250929050565b6001600160a01b0385168152608060208201819052600090611b58908301866117e6565b8281036040840152611b6a81866117e6565b90508281036060840152611b7e81856117e6565b979650505050505050565b60008060408385031215611b9c57600080fd5b611ba58361183e565b9150611bb36020840161183e565b90509250929050565b600181811c90821680611bd057607f821691505b602082108103611bf057634e487b7160e01b600052602260045260246000fd5b50919050565b634e487b7160e01b600052603260045260246000fd5b60208082526031908201527f4552433732313a207472616e736665722063616c6c6572206973206e6f74206f6040820152701ddb995c881b9bdc88185c1c1c9bdd9959607a1b606082015260800190565b6020808252818101527f4f776e61626c653a2063616c6c6572206973206e6f7420746865206f776e6572604082015260600190565b81835281816020850137506000828201602090810191909152601f909101601f19169091010190565b606081526000611ccf60608301888a611c92565b8281036020840152611ce2818789611c92565b90508281036040840152611cf7818587611c92565b9998505050505050505050565b60008351611d168184602088016117ba565b835190830190611d2a8183602088016117ba565b01949350505050565b634e487b7160e01b600052601160045260246000fd5b600082821015611d5b57611d5b611d33565b500390565b60008219821115611d7357611d73611d33565b500190565b60208082526032908201527f4552433732313a207472616e7366657220746f206e6f6e20455243373231526560408201527131b2b4bb32b91034b6b83632b6b2b73a32b960711b606082015260800190565b600060018201611ddc57611ddc611d33565b5060010190565b634e487b7160e01b600052601260045260246000fd5b600082611e0857611e08611de3565b500490565b600082611e1c57611e1c611de3565b500690565b6001600160a01b0385811682528416602082015260408101839052608060608201819052600090611e54908301846117e6565b9695505050505050565b600060208284031215611e7057600080fd5b8151610e298161178756feddf252ad1be2c89b69c2b068fc378daa952ba7f163c4a11628f55a4df523b3efa2646970667358221220258c3995c01bc9424109b7e6b20c1bcb0527f788a35165c5ffa3344904578d3164736f6c634300080e0033",
  "linkReferences": {},
  "deployedLinkReferences": {}
}