{
  "_format": "hh-sol-artifact-1",
  "contractName": "GameItems721",
  "sourceName": "contracts/auxiliary/ERC721.sol",
  "abi": [
    {
      "inputs": [],
      "stateMutability": "nonpayable",
      "type": "constructor"
    },
    {
      "anonymous": false,
      "inputs": [
        {
          "indexed": true,
          "internalType": "address",
          "name": "owner",
          "type": "address"
        },
        {
          "indexed": true,
          "internalType": "address",
          "name": "approved",
          "type": "address"
        },
        {
          "indexed": true,
          "internalType": "uint256",
          "name": "tokenId",
          "type": "uint256"
        }
      ],
      "name": "Approval",
      "type": "event"
    },
    {
      "anonymous": false,
      "inputs": [
        {
          "indexed": true,
          "internalType": "address",
          "name": "owner",
          "type": "address"
        },
        {
          "indexed": true,
          "internalType": "address",
          "name": "operator",
          "type": "address"
        },
        {
          "indexed": false,
          "internalType": "bool",
          "name": "approved",
          "type": "bool"
        }
      ],
      "name": "ApprovalForAll",
      "type": "event"
    },
    {
      "anonymous": false,
      "inputs": [
        {
          "indexed": true,
          "internalType": "uint256",
          "name": "itemId",
          "type": "uint256"
        },
        {
          "indexed": true,
          "internalType": "address",
          "name": "owner",
          "type": "address"
        },
        {
          "indexed": false,
          "internalType": "string",
          "name": "name",
          "type": "string"
        },
        {
          "indexed": false,
          "internalType": "string",
          "name": "description",
          "type": "string"
        },
        {
          "indexed": false,
          "internalType": "string",
          "name": "image_url",
          "type": "string"
        }
      ],
      "name": "ItemCreation",
      "type": "event"
    },
    {
      "anonymous": false,
      "inputs": [
        {
          "indexed": true,
          "internalType": "address",
          "name": "previousOwner",
          "type": "address"
        },
        {
          "indexed": true,
          "internalType": "address",
          "name": "newOwner",
          "type": "address"
        }
      ],
      "name": "OwnershipTransferred",
      "type": "event"
    },
    {
      "anonymous": false,
      "inputs": [
        {
          "indexed": true,
          "internalType": "address",
          "name": "from",
          "type": "address"
        },
        {
          "indexed": true,
          "internalType": "address",
          "name": "to",
          "type": "address"
        },
        {
          "indexed": true,
          "internalType": "uint256",
          "name": "tokenId",
          "type": "uint256"
        }
      ],
      "name": "Transfer",
      "type": "event"
    },
    {
      "inputs": [
        {
          "internalType": "address",
          "name": "to",
          "type": "address"
        },
        {
          "internalType": "uint256",
          "name": "tokenId",
          "type": "uint256"
        }
      ],
      "name": "approve",
      "outputs": [],
      "stateMutability": "nonpayable",
      "type": "function"
    },
    {
      "inputs": [
        {
          "internalType": "address",
          "name": "owner",
          "type": "address"
        }
      ],
      "name": "balanceOf",
      "outputs": [
        {
          "internalType": "uint256",
          "name": "",
          "type": "uint256"
        }
      ],
      "stateMutability": "view",
      "type": "function"
    },
    {
      "inputs": [
        {
          "internalType": "string",
          "name": "name",
          "type": "string"
        },
        {
          "internalType": "string",
          "name": "description",
          "type": "string"
        },
        {
          "internalType": "string",
          "name": "image_url",
          "type": "string"
        }
      ],
      "name": "createItem",
      "outputs": [],
      "stateMutability": "nonpayable",
      "type": "function"
    },
    {
      "inputs": [
        {
          "internalType": "uint256",
          "name": "tokenId",
          "type": "uint256"
        }
      ],
      "name": "getApproved",
      "outputs": [
        {
          "internalType": "address",
          "name": "",
          "type": "address"
        }
      ],
      "stateMutability": "view",
      "type": "function"
    },
    {
      "inputs": [
        {
          "internalType": "uint256",
          "name": "itemId",
          "type": "uint256"
        }
      ],
      "name": "getItemDescription",
      "outputs": [
        {
          "internalType": "string",
          "name": "",
          "type": "string"
        }
      ],
      "stateMutability": "view",
      "type": "function"
    },
    {
      "inputs": [
        {
          "internalType": "uint256",
          "name": "itemId",
          "type": "uint256"
        }
      ],
      "name": "getItemName",
      "outputs": [
        {
          "internalType": "string",
          "name": "",
          "type": "string"
        }
      ],
      "stateMutability": "view",
      "type": "function"
    },
    {
      "inputs": [
        {
          "internalType": "uint256",
          "name": "itemId",
          "type": "uint256"
        }
      ],
      "name": "getItemOwner",
      "outputs": [
        {
          "internalType": "address",
          "name": "",
          "type": "address"
        }
      ],
      "stateMutability": "view",
      "type": "function"
    },
    {
      "inputs": [
        {
          "internalType": "uint256",
          "name": "itemId",
          "type": "uint256"
        }
      ],
      "name": "getItemUrl",
      "outputs": [
        {
          "internalType": "string",
          "name": "",
          "type": "string"
        }
      ],
      "stateMutability": "view",
      "type": "function"
    },
    {
      "inputs": [
        {
          "internalType": "address",
          "name": "owner",
          "type": "address"
        },
        {
          "internalType": "address",
          "name": "operator",
          "type": "address"
        }
      ],
      "name": "isApprovedForAll",
      "outputs": [
        {
          "internalType": "bool",
          "name": "",
          "type": "bool"
        }
      ],
      "stateMutability": "view",
      "type": "function"
    },
    {
      "inputs": [
        {
          "internalType": "uint256",
          "name": "",
          "type": "uint256"
        }
      ],
      "name": "items",
      "outputs": [
        {
          "internalType": "address",
          "name": "owner",
          "type": "address"
        },
        {
          "internalType": "string",
          "name": "name",
          "type": "string"
        },
        {
          "internalType": "string",
          "name": "description",
          "type": "string"
        },
        {
          "internalType": "string",
          "name": "image_url",
          "type": "string"
        }
      ],
      "stateMutability": "view",
      "type": "function"
    },
    {
      "inputs": [],
      "name": "name",
      "outputs": [
        {
          "internalType": "string",
          "name": "",
          "type": "string"
        }
      ],
      "stateMutability": "view",
      "type": "function"
    },
    {
      "inputs": [
        {
          "internalType": "address",
          "name": "",
          "type": "address"
        },
        {
          "internalType": "address",
          "name": "",
          "type": "address"
        },
        {
          "internalType": "uint256",
          "name": "",
          "type": "uint256"
        },
        {
          "internalType": "bytes",
          "name": "",
          "type": "bytes"
        }
      ],
      "name": "onERC721Received",
      "outputs": [
        {
          "internalType": "bytes4",
          "name": "",
          "type": "bytes4"
        }
      ],
      "stateMutability": "nonpayable",
      "type": "function"
    },
    {
      "inputs": [],
      "name": "owner",
      "outputs": [
        {
          "internalType": "address",
          "name": "",
          "type": "address"
        }
      ],
      "stateMutability": "view",
      "type": "function"
    },
    {
      "inputs": [
        {
          "internalType": "uint256",
          "name": "tokenId",
          "type": "uint256"
        }
      ],
      "name": "ownerOf",
      "outputs": [
        {
          "internalType": "address",
          "name": "",
          "type": "address"
        }
      ],
      "stateMutability": "view",
      "type": "function"
    },
    {
      "inputs": [],
      "name": "renounceOwnership",
      "outputs": [],
      "stateMutability": "nonpayable",
      "type": "function"
    },
    {
      "inputs": [
        {
          "internalType": "address",
          "name": "from",
          "type": "address"
        },
        {
          "internalType": "address",
          "name": "to",
          "type": "address"
        },
        {
          "internalType": "uint256",
          "name": "tokenId",
          "type": "uint256"
        }
      ],
      "name": "safeTransferFrom",
      "outputs": [],
      "stateMutability": "nonpayable",
      "type": "function"
    },
    {
      "inputs": [
        {
          "internalType": "address",
          "name": "from",
          "type": "address"
        },
        {
          "internalType": "address",
          "name": "to",
          "type": "address"
        },
        {
          "internalType": "uint256",
          "name": "tokenId",
          "type": "uint256"
        },
        {
          "internalType": "bytes",
          "name": "_data",
          "type": "bytes"
        }
      ],
      "name": "safeTransferFrom",
      "outputs": [],
      "stateMutability": "nonpayable",
      "type": "function"
    },
    {
      "inputs": [
        {
          "internalType": "address",
          "name": "operator",
          "type": "address"
        },
        {
          "internalType": "bool",
          "name": "approved",
          "type": "bool"
        }
      ],
      "name": "setApprovalForAll",
      "outputs": [],
      "stateMutability": "nonpayable",
      "type": "function"
    },
    {
      "inputs": [
        {
          "internalType": "bytes4",
          "name": "interfaceId",
          "type": "bytes4"
        }
      ],
      "name": "supportsInterface",
      "outputs": [
        {
          "internalType": "bool",
          "name": "",
          "type": "bool"
        }
      ],
      "stateMutability": "view",
      "type": "function"
    },
    {
      "inputs": [],
      "name": "symbol",
      "outputs": [
        {
          "internalType": "string",
          "name": "",
          "type": "string"
        }
      ],
      "stateMutability": "view",
      "type": "function"
    },
    {
      "inputs": [
        {
          "internalType": "uint256",
          "name": "tokenId",
          "type": "uint256"
        }
      ],
      "name": "tokenURI",
      "outputs": [
        {
          "internalType": "string",
          "name": "",
          "type": "string"
        }
      ],
      "stateMutability": "view",
      "type": "function"
    },
    {
      "inputs": [],
      "name": "totalCreated",
      "outputs": [
        {
          "internalType": "uint256",
          "name": "",
          "type": "uint256"
        }
      ],
      "stateMutability": "view",
      "type": "function"
    },
    {
      "inputs": [
        {
          "internalType": "address",
          "name": "from",
          "type": "address"
        },
        {
          "internalType": "address",
          "name": "to",
          "type": "address"
        },
        {
          "internalType": "uint256",
          "name": "tokenId",
          "type": "uint256"
        }
      ],
      "name": "transferFrom",
      "outputs": [],
      "stateMutability": "nonpayable",
      "type": "function"
    },
    {
      "inputs": [
        {
          "internalType": "address",
          "name": "newOwner",
          "type": "address"
        }
      ],
      "name": "transferOwnership",
      "outputs": [],
      "stateMutability": "nonpayable",
      "type": "function"
    },
    {
      "inputs": [
        {
          "internalType": "uint256",
          "name": "itemId",
          "type": "uint256"
        },
        {
          "internalType": "string",
          "name": "image_url",
          "type": "string"
        }
      ],
      "name": "updateUrl",
      "outputs": [],
      "stateMutability": "nonpayable",
      "type": "function"
    }
  ],
  "bytecode": "0x60806040523480156200001157600080fd5b50604080518082018252600b81526a546573742045524337323160a81b6020808301918252835180850190945260078452665445524337323160c81b9084015281519192916200006491600091620000f3565b5080516200007a906001906020840190620000f3565b50505062000097620000916200009d60201b60201c565b620000a1565b620001d5565b3390565b600680546001600160a01b038381166001600160a01b0319831681179093556040519116919082907f8be0079c531659141344cd1fd0a4f28419497f9722a3daafe3b4186f6b6457e090600090a35050565b828054620001019062000199565b90600052602060002090601f01602090048101928262000125576000855562000170565b82601f106200014057805160ff191683800117855562000170565b8280016001018555821562000170579182015b828111156200017057825182559160200191906001019062000153565b506200017e92915062000182565b5090565b5b808211156200017e576000815560010162000183565b600181811c90821680620001ae57607f821691505b602082108103620001cf57634e487b7160e01b600052602260045260246000fd5b50919050565b611ef880620001e56000396000f3fe608060405234801561001057600080fd5b50600436106101335760003560e01c806301ffc9a71461013857806306fdde0314610160578063081812fc14610175578063095ea7b3146101a05780630aecb734146101b5578063150b7a02146101c85780631d1440fd146101f457806323b872dd1461020757806342842e0e1461021a5780636352211e1461022d57806370a0823114610240578063715018a614610261578063844e0acd14610269578063876ab02b146102725780638da5cb5b1461028557806395d89b411461028d5780639ef651a114610295578063a22cb465146102a8578063b88d4fde146102bb578063bfb231d2146102ce578063c02619c4146102f1578063c87b56dd14610304578063d9561a9114610317578063e985e9c51461032a578063f2fde38b1461033d575b600080fd5b61014b6101463660046117c4565b610350565b60405190151581526020015b60405180910390f35b6101686103a2565b6040516101579190611839565b61018861018336600461184c565b610434565b6040516001600160a01b039091168152602001610157565b6101b36101ae366004611881565b6104c1565b005b6101b36101c33660046118f3565b6105d1565b6101db6101d6366004611954565b61069a565b6040516001600160e01b03199091168152602001610157565b61018861020236600461184c565b6106ab565b6101b3610215366004611a2f565b6106e0565b6101b3610228366004611a2f565b610711565b61018861023b36600461184c565b61072c565b61025361024e366004611a6b565b6107a3565b604051908152602001610157565b6101b361082a565b61025360085481565b6101b3610280366004611a86565b610865565b610188610a5b565b610168610a6a565b6101686102a336600461184c565b610a79565b6101b36102b6366004611b1f565b610b2f565b6101b36102c9366004611954565b610b3e565b6102e16102dc36600461184c565b610b70565b6040516101579493929190611b5b565b6101686102ff36600461184c565b610d4e565b61016861031236600461184c565b610d7f565b61016861032536600461184c565b610e57565b61014b610338366004611bb0565b610e88565b6101b361034b366004611a6b565b610eb6565b60006001600160e01b031982166380ac58cd60e01b148061038157506001600160e01b03198216635b5e139f60e01b145b8061039c57506301ffc9a760e01b6001600160e01b03198316145b92915050565b6060600080546103b190611be3565b80601f01602080910402602001604051908101604052809291908181526020018280546103dd90611be3565b801561042a5780601f106103ff5761010080835404028352916020019161042a565b820191906000526020600020905b81548152906001019060200180831161040d57829003601f168201915b5050505050905090565b600061043f82610f56565b6104a55760405162461bcd60e51b815260206004820152602c60248201527f4552433732313a20617070726f76656420717565727920666f72206e6f6e657860448201526b34b9ba32b73a103a37b5b2b760a11b60648201526084015b60405180910390fd5b506000908152600460205260409020546001600160a01b031690565b60006104cc8261072c565b9050806001600160a01b0316836001600160a01b0316036105395760405162461bcd60e51b815260206004820152602160248201527f4552433732313a20617070726f76616c20746f2063757272656e74206f776e656044820152603960f91b606482015260840161049c565b336001600160a01b038216148061055557506105558133610e88565b6105c25760405162461bcd60e51b815260206004820152603860248201527f4552433732313a20617070726f76652063616c6c6572206973206e6f74206f776044820152771b995c881b9bdc88185c1c1c9bdd995908199bdc88185b1b60421b606482015260840161049c565b6105cc8383610f73565b505050565b600783815481106105e4576105e4611c1d565b60009182526020909120600490910201546001600160a01b031633146106615760405162461bcd60e51b815260206004820152602c60248201527f47616d654974656d733a20596f75277265206e6f7420746865206f776e65722060448201526b6f662074686973206974656d60a01b606482015260840161049c565b81816007858154811061067657610676611c1d565b906000526020600020906004020160030191906106949291906116a1565b50505050565b630a85bd0160e11b5b949350505050565b6000600782815481106106c0576106c0611c1d565b60009182526020909120600490910201546001600160a01b031692915050565b6106ea3382610fe1565b6107065760405162461bcd60e51b815260040161049c90611c33565b6105cc8383836110aa565b6105cc83838360405180602001604052806000815250610b3e565b6000818152600260205260408120546001600160a01b03168061039c5760405162461bcd60e51b815260206004820152602960248201527f4552433732313a206f776e657220717565727920666f72206e6f6e657869737460448201526832b73a103a37b5b2b760b91b606482015260840161049c565b60006001600160a01b03821661080e5760405162461bcd60e51b815260206004820152602a60248201527f4552433732313a2062616c616e636520717565727920666f7220746865207a65604482015269726f206164647265737360b01b606482015260840161049c565b506001600160a01b031660009081526003602052604090205490565b33610833610a5b565b6001600160a01b0316146108595760405162461bcd60e51b815260040161049c90611c84565b6108636000611234565b565b3361086e610a5b565b6001600160a01b0316146108945760405162461bcd60e51b815260040161049c90611c84565b6007546040513391907f82f1ad4a0564a9b7891669a4604e01bc0e5de35decf9be06457c6aefc3025a72906108d4908a908a908a908a908a908a90611ce2565b60405180910390a36007546108ea903390611286565b60076040518060800160405280336001600160a01b0316815260200188888080601f016020809104026020016040519081016040528093929190818152602001838380828437600092019190915250505090825250604080516020601f890181900481028201810190925287815291810191908890889081908401838280828437600092019190915250505090825250604080516020601f8701819004810282018101909252858152918101919086908690819084018382808284376000920182905250939094525050835460018082018655948252602091829020845160049092020180546001600160a01b0319166001600160a01b0390921691909117815583820151805194959194610a059450918501920190611725565b5060408201518051610a21916002840191602090910190611725565b5060608201518051610a3d916003840191602090910190611725565b505050600860008154610a4f90611d41565b90915550505050505050565b6006546001600160a01b031690565b6060600180546103b190611be3565b606060078281548110610a8e57610a8e611c1d565b90600052602060002090600402016003018054610aaa90611be3565b80601f0160208091040260200160405190810160405280929190818152602001828054610ad690611be3565b8015610b235780601f10610af857610100808354040283529160200191610b23565b820191906000526020600020905b815481529060010190602001808311610b0657829003601f168201915b50505050509050919050565b610b3a3383836113a6565b5050565b610b483383610fe1565b610b645760405162461bcd60e51b815260040161049c90611c33565b61069484848484611470565b60078181548110610b8057600080fd5b6000918252602090912060049091020180546001820180546001600160a01b03909216935090610baf90611be3565b80601f0160208091040260200160405190810160405280929190818152602001828054610bdb90611be3565b8015610c285780601f10610bfd57610100808354040283529160200191610c28565b820191906000526020600020905b815481529060010190602001808311610c0b57829003601f168201915b505050505090806002018054610c3d90611be3565b80601f0160208091040260200160405190810160405280929190818152602001828054610c6990611be3565b8015610cb65780601f10610c8b57610100808354040283529160200191610cb6565b820191906000526020600020905b815481529060010190602001808311610c9957829003601f168201915b505050505090806003018054610ccb90611be3565b80601f0160208091040260200160405190810160405280929190818152602001828054610cf790611be3565b8015610d445780601f10610d1957610100808354040283529160200191610d44565b820191906000526020600020905b815481529060010190602001808311610d2757829003601f168201915b5050505050905084565b606060078281548110610d6357610d63611c1d565b90600052602060002090600402016002018054610aaa90611be3565b6060610d8a82610f56565b610dee5760405162461bcd60e51b815260206004820152602f60248201527f4552433732314d657461646174613a2055524920717565727920666f72206e6f60448201526e3732bc34b9ba32b73a103a37b5b2b760891b606482015260840161049c565b6000610e0560408051602081019091526000815290565b90506000815111610e255760405180602001604052806000815250610e50565b80610e2f846114a3565b604051602001610e40929190611d5a565b6040516020818303038152906040525b9392505050565b606060078281548110610e6c57610e6c611c1d565b90600052602060002090600402016001018054610aaa90611be3565b6001600160a01b03918216600090815260056020908152604080832093909416825291909152205460ff1690565b33610ebf610a5b565b6001600160a01b031614610ee55760405162461bcd60e51b815260040161049c90611c84565b6001600160a01b038116610f4a5760405162461bcd60e51b815260206004820152602660248201527f4f776e61626c653a206e6577206f776e657220697320746865207a65726f206160448201526564647265737360d01b606482015260840161049c565b610f5381611234565b50565b6000908152600260205260409020546001600160a01b0316151590565b600081815260046020526040902080546001600160a01b0319166001600160a01b0384169081179091558190610fa88261072c565b6001600160a01b03167f8c5be1e5ebec7d5bd14f71427d1e84f3dd0314c0f7b2291e5b200ac8c7c3b92560405160405180910390a45050565b6000610fec82610f56565b61104d5760405162461bcd60e51b815260206004820152602c60248201527f4552433732313a206f70657261746f7220717565727920666f72206e6f6e657860448201526b34b9ba32b73a103a37b5b2b760a11b606482015260840161049c565b60006110588361072c565b9050806001600160a01b0316846001600160a01b0316148061107f575061107f8185610e88565b806106a35750836001600160a01b031661109884610434565b6001600160a01b031614949350505050565b826001600160a01b03166110bd8261072c565b6001600160a01b0316146111215760405162461bcd60e51b815260206004820152602560248201527f4552433732313a207472616e736665722066726f6d20696e636f72726563742060448201526437bbb732b960d91b606482015260840161049c565b6001600160a01b0382166111835760405162461bcd60e51b8152602060048201526024808201527f4552433732313a207472616e7366657220746f20746865207a65726f206164646044820152637265737360e01b606482015260840161049c565b61118e600082610f73565b6001600160a01b03831660009081526003602052604081208054600192906111b7908490611d89565b90915550506001600160a01b03821660009081526003602052604081208054600192906111e5908490611da0565b909155505060008181526002602052604080822080546001600160a01b0319166001600160a01b038681169182179092559151849391871691600080516020611ea383398151915291a4505050565b600680546001600160a01b038381166001600160a01b0319831681179093556040519116919082907f8be0079c531659141344cd1fd0a4f28419497f9722a3daafe3b4186f6b6457e090600090a35050565b6001600160a01b0382166112dc5760405162461bcd60e51b815260206004820181905260248201527f4552433732313a206d696e7420746f20746865207a65726f2061646472657373604482015260640161049c565b6112e581610f56565b156113315760405162461bcd60e51b815260206004820152601c60248201527b115490cdcc8c4e881d1bdad95b88185b1c9958591e481b5a5b9d195960221b604482015260640161049c565b6001600160a01b038216600090815260036020526040812080546001929061135a908490611da0565b909155505060008181526002602052604080822080546001600160a01b0319166001600160a01b0386169081179091559051839290600080516020611ea3833981519152908290a45050565b816001600160a01b0316836001600160a01b0316036114035760405162461bcd60e51b815260206004820152601960248201527822a9219b99189d1030b8383937bb32903a379031b0b63632b960391b604482015260640161049c565b6001600160a01b03838116600081815260056020908152604080832094871680845294825291829020805460ff191686151590811790915591519182527f17307eab39ab6107e8899845ad3d59bd9653f200f220920489ca2b5937696c31910160405180910390a3505050565b61147b8484846110aa565b611487848484846115a3565b6106945760405162461bcd60e51b815260040161049c90611db8565b6060816000036114ca5750506040805180820190915260018152600360fc1b602082015290565b8160005b81156114f457806114de81611d41565b91506114ed9050600a83611e20565b91506114ce565b6000816001600160401b0381111561150e5761150e61193e565b6040519080825280601f01601f191660200182016040528015611538576020820181803683370190505b5090505b84156106a35761154d600183611d89565b915061155a600a86611e34565b611565906030611da0565b60f81b81838151811061157a5761157a611c1d565b60200101906001600160f81b031916908160001a90535061159c600a86611e20565b945061153c565b60006001600160a01b0384163b1561169957604051630a85bd0160e11b81526001600160a01b0385169063150b7a02906115e7903390899088908890600401611e48565b6020604051808303816000875af1925050508015611622575060408051601f3d908101601f1916820190925261161f91810190611e85565b60015b61167f573d808015611650576040519150601f19603f3d011682016040523d82523d6000602084013e611655565b606091505b5080516000036116775760405162461bcd60e51b815260040161049c90611db8565b805181602001fd5b6001600160e01b031916630a85bd0160e11b1490506106a3565b5060016106a3565b8280546116ad90611be3565b90600052602060002090601f0160209004810192826116cf5760008555611715565b82601f106116e85782800160ff19823516178555611715565b82800160010185558215611715579182015b828111156117155782358255916020019190600101906116fa565b50611721929150611799565b5090565b82805461173190611be3565b90600052602060002090601f0160209004810192826117535760008555611715565b82601f1061176c57805160ff1916838001178555611715565b82800160010185558215611715579182015b8281111561171557825182559160200191906001019061177e565b5b80821115611721576000815560010161179a565b6001600160e01b031981168114610f5357600080fd5b6000602082840312156117d657600080fd5b8135610e50816117ae565b60005b838110156117fc5781810151838201526020016117e4565b838111156106945750506000910152565b600081518084526118258160208601602086016117e1565b601f01601f19169290920160200192915050565b602081526000610e50602083018461180d565b60006020828403121561185e57600080fd5b5035919050565b80356001600160a01b038116811461187c57600080fd5b919050565b6000806040838503121561189457600080fd5b61189d83611865565b946020939093013593505050565b60008083601f8401126118bd57600080fd5b5081356001600160401b038111156118d457600080fd5b6020830191508360208285010111156118ec57600080fd5b9250929050565b60008060006040848603121561190857600080fd5b8335925060208401356001600160401b0381111561192557600080fd5b611931868287016118ab565b9497909650939450505050565b634e487b7160e01b600052604160045260246000fd5b6000806000806080858703121561196a57600080fd5b61197385611865565b935061198160208601611865565b92506040850135915060608501356001600160401b03808211156119a457600080fd5b818701915087601f8301126119b857600080fd5b8135818111156119ca576119ca61193e565b604051601f8201601f19908116603f011681019083821181831017156119f2576119f261193e565b816040528281528a6020848701011115611a0b57600080fd5b82602086016020830137600060208483010152809550505050505092959194509250565b600080600060608486031215611a4457600080fd5b611a4d84611865565b9250611a5b60208501611865565b9150604084013590509250925092565b600060208284031215611a7d57600080fd5b610e5082611865565b60008060008060008060608789031215611a9f57600080fd5b86356001600160401b0380821115611ab657600080fd5b611ac28a838b016118ab565b90985096506020890135915080821115611adb57600080fd5b611ae78a838b016118ab565b90965094506040890135915080821115611b0057600080fd5b50611b0d89828a016118ab565b979a9699509497509295939492505050565b60008060408385031215611b3257600080fd5b611b3b83611865565b915060208301358015158114611b5057600080fd5b809150509250929050565b6001600160a01b0385168152608060208201819052600090611b7f9083018661180d565b8281036040840152611b91818661180d565b90508281036060840152611ba5818561180d565b979650505050505050565b60008060408385031215611bc357600080fd5b611bcc83611865565b9150611bda60208401611865565b90509250929050565b600181811c90821680611bf757607f821691505b602082108103611c1757634e487b7160e01b600052602260045260246000fd5b50919050565b634e487b7160e01b600052603260045260246000fd5b60208082526031908201527f4552433732313a207472616e736665722063616c6c6572206973206e6f74206f6040820152701ddb995c881b9bdc88185c1c1c9bdd9959607a1b606082015260800190565b6020808252818101527f4f776e61626c653a2063616c6c6572206973206e6f7420746865206f776e6572604082015260600190565b81835281816020850137506000828201602090810191909152601f909101601f19169091010190565b606081526000611cf660608301888a611cb9565b8281036020840152611d09818789611cb9565b90508281036040840152611d1e818587611cb9565b9998505050505050505050565b634e487b7160e01b600052601160045260246000fd5b600060018201611d5357611d53611d2b565b5060010190565b60008351611d6c8184602088016117e1565b835190830190611d808183602088016117e1565b01949350505050565b600082821015611d9b57611d9b611d2b565b500390565b60008219821115611db357611db3611d2b565b500190565b60208082526032908201527f4552433732313a207472616e7366657220746f206e6f6e20455243373231526560408201527131b2b4bb32b91034b6b83632b6b2b73a32b960711b606082015260800190565b634e487b7160e01b600052601260045260246000fd5b600082611e2f57611e2f611e0a565b500490565b600082611e4357611e43611e0a565b500690565b6001600160a01b0385811682528416602082015260408101839052608060608201819052600090611e7b9083018461180d565b9695505050505050565b600060208284031215611e9757600080fd5b8151610e50816117ae56feddf252ad1be2c89b69c2b068fc378daa952ba7f163c4a11628f55a4df523b3efa264697066735822122021dcd026b8544eb36d17611432303434d864a349429277823d1d257d684251aa64736f6c634300080e0033",
  "linkReferences": {},
  "deployedLinkReferences": {}
}