{
  "_format": "hh-sol-artifact-1",
  "contractName": "LendingTemplate",
  "sourceName": "contracts/lending/LendingTemplate.sol",
  "abi": [
    {
      "inputs": [
        {
          "internalType": "string",
          "name": "name",
          "type": "string"
        },
        {
          "internalType": "string",
          "name": "symbol",
          "type": "string"
        }
      ],
      "stateMutability": "nonpayable",
      "type": "constructor"
    },
    {
      "anonymous": false,
      "inputs": [
        {
          "indexed": true,
          "internalType": "address",
          "name": "owner",
          "type": "address"
        },
        {
          "indexed": true,
          "internalType": "address",
          "name": "approved",
          "type": "address"
        },
        {
          "indexed": true,
          "internalType": "uint256",
          "name": "tokenId",
          "type": "uint256"
        }
      ],
      "name": "Approval",
      "type": "event"
    },
    {
      "anonymous": false,
      "inputs": [
        {
          "indexed": true,
          "internalType": "address",
          "name": "owner",
          "type": "address"
        },
        {
          "indexed": true,
          "internalType": "address",
          "name": "operator",
          "type": "address"
        },
        {
          "indexed": false,
          "internalType": "bool",
          "name": "approved",
          "type": "bool"
        }
      ],
      "name": "ApprovalForAll",
      "type": "event"
    },
    {
      "anonymous": false,
      "inputs": [
        {
          "indexed": true,
          "internalType": "uint256",
          "name": "loanId",
          "type": "uint256"
        },
        {
          "indexed": true,
          "internalType": "address",
          "name": "offerer",
          "type": "address"
        },
        {
          "indexed": true,
          "internalType": "uint256",
          "name": "position",
          "type": "uint256"
        }
      ],
      "name": "CloseLoanOffer",
      "type": "event"
    },
    {
      "anonymous": false,
      "inputs": [
        {
          "indexed": true,
          "internalType": "address",
          "name": "currency",
          "type": "address"
        },
        {
          "indexed": true,
          "internalType": "uint256",
          "name": "loanId",
          "type": "uint256"
        },
        {
          "indexed": false,
          "internalType": "uint256",
          "name": "loanAmount",
          "type": "uint256"
        },
        {
          "indexed": false,
          "internalType": "uint256",
          "name": "amountDue",
          "type": "uint256"
        },
        {
          "indexed": false,
          "internalType": "uint256",
          "name": "installmentAmount",
          "type": "uint256"
        },
        {
          "indexed": false,
          "internalType": "uint256",
          "name": "assetsValue",
          "type": "uint256"
        },
        {
          "indexed": false,
          "internalType": "uint256",
          "name": "frequencyTime",
          "type": "uint256"
        },
        {
          "indexed": false,
          "internalType": "uint256",
          "name": "frequencyTimeUnit",
          "type": "uint256"
        }
      ],
      "name": "EditLoan",
      "type": "event"
    },
    {
      "anonymous": false,
      "inputs": [
        {
          "indexed": true,
          "internalType": "address",
          "name": "requester",
          "type": "address"
        },
        {
          "indexed": true,
          "internalType": "uint256",
          "name": "loanId",
          "type": "uint256"
        },
        {
          "indexed": false,
          "internalType": "enum LendingCore.Status",
          "name": "status",
          "type": "uint8"
        }
      ],
      "name": "ItemsWithdrawn",
      "type": "event"
    },
    {
      "anonymous": false,
      "inputs": [
        {
          "indexed": true,
          "internalType": "address",
          "name": "lender",
          "type": "address"
        },
        {
          "indexed": true,
          "internalType": "uint256",
          "name": "loanId",
          "type": "uint256"
        },
        {
          "indexed": false,
          "internalType": "uint256",
          "name": "loanPaymentEnd",
          "type": "uint256"
        }
      ],
      "name": "LoanApproved",
      "type": "event"
    },
    {
      "anonymous": false,
      "inputs": [
        {
          "indexed": true,
          "internalType": "uint256",
          "name": "loanId",
          "type": "uint256"
        }
      ],
      "name": "LoanCancelled",
      "type": "event"
    },
    {
      "anonymous": false,
      "inputs": [
        {
          "indexed": true,
          "internalType": "uint256",
          "name": "loanId",
          "type": "uint256"
        },
        {
          "indexed": true,
          "internalType": "address",
          "name": "offerer",
          "type": "address"
        },
        {
          "indexed": false,
          "internalType": "uint256",
          "name": "offerId",
          "type": "uint256"
        },
        {
          "indexed": true,
          "internalType": "uint256",
          "name": "position",
          "type": "uint256"
        }
      ],
      "name": "LoanOffer",
      "type": "event"
    },
    {
      "anonymous": false,
      "inputs": [
        {
          "indexed": true,
          "internalType": "address",
          "name": "lender",
          "type": "address"
        },
        {
          "indexed": true,
          "internalType": "uint256",
          "name": "loanId",
          "type": "uint256"
        },
        {
          "indexed": true,
          "internalType": "uint256",
          "name": "offerId",
          "type": "uint256"
        },
        {
          "indexed": false,
          "internalType": "uint256",
          "name": "offerAmount",
          "type": "uint256"
        },
        {
          "indexed": false,
          "internalType": "uint256",
          "name": "loanPaymentEnd",
          "type": "uint256"
        }
      ],
      "name": "LoanOfferApproved",
      "type": "event"
    },
    {
      "anonymous": false,
      "inputs": [
        {
          "indexed": true,
          "internalType": "uint256",
          "name": "loanId",
          "type": "uint256"
        },
        {
          "indexed": false,
          "internalType": "uint256",
          "name": "installmentAmount",
          "type": "uint256"
        },
        {
          "indexed": false,
          "internalType": "uint256",
          "name": "amountPaidAsInstallmentToLender",
          "type": "uint256"
        },
        {
          "indexed": false,
          "internalType": "uint256",
          "name": "interestPerInstallement",
          "type": "uint256"
        },
        {
          "indexed": false,
          "internalType": "uint256",
          "name": "interestToStaterPerInstallement",
          "type": "uint256"
        },
        {
          "indexed": false,
          "internalType": "enum LendingCore.Status",
          "name": "status",
          "type": "uint8"
        }
      ],
      "name": "LoanPayment",
      "type": "event"
    },
    {
      "anonymous": false,
      "inputs": [
        {
          "indexed": true,
          "internalType": "address",
          "name": "owner",
          "type": "address"
        },
        {
          "indexed": true,
          "internalType": "address",
          "name": "currency",
          "type": "address"
        },
        {
          "indexed": true,
          "internalType": "uint256",
          "name": "loanId",
          "type": "uint256"
        },
        {
          "indexed": false,
          "internalType": "address[]",
          "name": "nftAddressArray",
          "type": "address[]"
        },
        {
          "indexed": false,
          "internalType": "uint256[]",
          "name": "nftTokenIdArray",
          "type": "uint256[]"
        },
        {
          "indexed": false,
          "internalType": "uint8[]",
          "name": "nftTokenTypeArray",
          "type": "uint8[]"
        }
      ],
      "name": "NewLoan",
      "type": "event"
    },
    {
      "anonymous": false,
      "inputs": [
        {
          "indexed": true,
          "internalType": "address",
          "name": "previousOwner",
          "type": "address"
        },
        {
          "indexed": true,
          "internalType": "address",
          "name": "newOwner",
          "type": "address"
        }
      ],
      "name": "OwnershipTransferred",
      "type": "event"
    },
    {
      "anonymous": false,
      "inputs": [
        {
          "indexed": true,
          "internalType": "address",
          "name": "from",
          "type": "address"
        },
        {
          "indexed": true,
          "internalType": "address",
          "name": "to",
          "type": "address"
        },
        {
          "indexed": true,
          "internalType": "uint256",
          "name": "tokenId",
          "type": "uint256"
        }
      ],
      "name": "Transfer",
      "type": "event"
    },
    {
      "inputs": [
        {
          "internalType": "address",
          "name": "to",
          "type": "address"
        },
        {
          "internalType": "uint256",
          "name": "tokenId",
          "type": "uint256"
        }
      ],
      "name": "approve",
      "outputs": [],
      "stateMutability": "nonpayable",
      "type": "function"
    },
    {
      "inputs": [
        {
          "internalType": "uint256",
          "name": "loanId",
          "type": "uint256"
        }
      ],
      "name": "approveLoan",
      "outputs": [],
      "stateMutability": "payable",
      "type": "function"
    },
    {
      "inputs": [
        {
          "internalType": "address",
          "name": "owner",
          "type": "address"
        }
      ],
      "name": "balanceOf",
      "outputs": [
        {
          "internalType": "uint256",
          "name": "",
          "type": "uint256"
        }
      ],
      "stateMutability": "view",
      "type": "function"
    },
    {
      "inputs": [
        {
          "internalType": "uint256",
          "name": "loanId",
          "type": "uint256"
        }
      ],
      "name": "canBeTerminated",
      "outputs": [
        {
          "internalType": "bool",
          "name": "",
          "type": "bool"
        }
      ],
      "stateMutability": "view",
      "type": "function"
    },
    {
      "inputs": [
        {
          "internalType": "uint256",
          "name": "loanId",
          "type": "uint256"
        }
      ],
      "name": "cancelLoan",
      "outputs": [],
      "stateMutability": "nonpayable",
      "type": "function"
    },
    {
      "inputs": [
        {
          "internalType": "uint256",
          "name": "loanValue",
          "type": "uint256"
        },
        {
          "internalType": "uint256",
          "name": "assetsValue",
          "type": "uint256"
        }
      ],
      "name": "checkLtv",
      "outputs": [],
      "stateMutability": "view",
      "type": "function"
    },
    {
      "inputs": [
        {
          "internalType": "address",
          "name": "from",
          "type": "address"
        },
        {
          "internalType": "address",
          "name": "currency",
          "type": "address"
        }
      ],
      "name": "checkTokensApproval",
      "outputs": [
        {
          "internalType": "uint256",
          "name": "",
          "type": "uint256"
        }
      ],
      "stateMutability": "view",
      "type": "function"
    },
    {
      "inputs": [
        {
          "components": [
            {
              "internalType": "uint256",
              "name": "loanAmount",
              "type": "uint256"
            },
            {
              "internalType": "uint16",
              "name": "nrOfInstallments",
              "type": "uint16"
            },
            {
              "internalType": "address",
              "name": "currency",
              "type": "address"
            },
            {
              "internalType": "uint256",
              "name": "assetsValue",
              "type": "uint256"
            },
            {
              "internalType": "address[]",
              "name": "nftAddressArray",
              "type": "address[]"
            },
            {
              "internalType": "uint256[]",
              "name": "nftTokenIdArray",
              "type": "uint256[]"
            },
            {
              "internalType": "uint8[]",
              "name": "nftTokenTypeArray",
              "type": "uint8[]"
            }
          ],
          "internalType": "struct CreateLoanParams.Struct",
          "name": "input",
          "type": "tuple"
        }
      ],
      "name": "createLoan",
      "outputs": [],
      "stateMutability": "nonpayable",
      "type": "function"
    },
    {
      "inputs": [],
      "name": "discounts",
      "outputs": [
        {
          "internalType": "contract IStaterDiscounts",
          "name": "",
          "type": "address"
        }
      ],
      "stateMutability": "view",
      "type": "function"
    },
    {
      "inputs": [
        {
          "components": [
            {
              "internalType": "uint256",
              "name": "loanId",
              "type": "uint256"
            },
            {
              "internalType": "uint256",
              "name": "loanAmount",
              "type": "uint256"
            },
            {
              "internalType": "uint16",
              "name": "nrOfInstallments",
              "type": "uint16"
            },
            {
              "internalType": "address",
              "name": "currency",
              "type": "address"
            },
            {
              "internalType": "uint256",
              "name": "assetsValue",
              "type": "uint256"
            },
            {
              "internalType": "uint256",
              "name": "installmentTime",
              "type": "uint256"
            }
          ],
          "internalType": "struct EditLoanParams.Struct",
          "name": "input",
          "type": "tuple"
        }
      ],
      "name": "editLoan",
      "outputs": [],
      "stateMutability": "nonpayable",
      "type": "function"
    },
    {
      "inputs": [
        {
          "internalType": "uint256",
          "name": "tokenId",
          "type": "uint256"
        }
      ],
      "name": "getApproved",
      "outputs": [
        {
          "internalType": "address",
          "name": "",
          "type": "address"
        }
      ],
      "stateMutability": "view",
      "type": "function"
    },
    {
      "inputs": [
        {
          "internalType": "uint256",
          "name": "loanId",
          "type": "uint256"
        }
      ],
      "name": "getLoanApprovalCost",
      "outputs": [
        {
          "internalType": "uint256",
          "name": "",
          "type": "uint256"
        },
        {
          "internalType": "uint256",
          "name": "",
          "type": "uint256"
        },
        {
          "internalType": "uint256",
          "name": "",
          "type": "uint256"
        },
        {
          "internalType": "uint256",
          "name": "",
          "type": "uint256"
        },
        {
          "internalType": "address",
          "name": "",
          "type": "address"
        }
      ],
      "stateMutability": "view",
      "type": "function"
    },
    {
      "inputs": [
        {
          "internalType": "uint256",
          "name": "loanId",
          "type": "uint256"
        },
        {
          "internalType": "uint256",
          "name": "nrOfInstallments",
          "type": "uint256"
        }
      ],
      "name": "getLoanInstallmentCost",
      "outputs": [
        {
          "internalType": "uint256",
          "name": "overallInstallmentAmount",
          "type": "uint256"
        },
        {
          "internalType": "uint256",
          "name": "interestPerInstallement",
          "type": "uint256"
        },
        {
          "internalType": "uint256",
          "name": "interestDiscounted",
          "type": "uint256"
        },
        {
          "internalType": "uint256",
          "name": "interestToStaterPerInstallement",
          "type": "uint256"
        },
        {
          "internalType": "uint256",
          "name": "amountPaidAsInstallmentToLender",
          "type": "uint256"
        }
      ],
      "stateMutability": "view",
      "type": "function"
    },
    {
      "inputs": [
        {
          "internalType": "uint256",
          "name": "loanId",
          "type": "uint256"
        }
      ],
      "name": "getLoanRemainToPay",
      "outputs": [
        {
          "internalType": "uint256",
          "name": "",
          "type": "uint256"
        }
      ],
      "stateMutability": "view",
      "type": "function"
    },
    {
      "inputs": [
        {
          "internalType": "uint256",
          "name": "loanId",
          "type": "uint256"
        }
      ],
      "name": "getLoanStartEnd",
      "outputs": [
        {
          "internalType": "uint256[2]",
          "name": "",
          "type": "uint256[2]"
        }
      ],
      "stateMutability": "view",
      "type": "function"
    },
    {
      "inputs": [],
      "name": "id",
      "outputs": [
        {
          "internalType": "uint256",
          "name": "",
          "type": "uint256"
        }
      ],
      "stateMutability": "view",
      "type": "function"
    },
    {
      "inputs": [],
      "name": "interestRate",
      "outputs": [
        {
          "internalType": "uint256",
          "name": "",
          "type": "uint256"
        }
      ],
      "stateMutability": "view",
      "type": "function"
    },
    {
      "inputs": [],
      "name": "interestRateToStater",
      "outputs": [
        {
          "internalType": "uint256",
          "name": "",
          "type": "uint256"
        }
      ],
      "stateMutability": "view",
      "type": "function"
    },
    {
      "inputs": [
        {
          "internalType": "address",
          "name": "owner",
          "type": "address"
        },
        {
          "internalType": "address",
          "name": "operator",
          "type": "address"
        }
      ],
      "name": "isApprovedForAll",
      "outputs": [
        {
          "internalType": "bool",
          "name": "",
          "type": "bool"
        }
      ],
      "stateMutability": "view",
      "type": "function"
    },
    {
      "inputs": [],
      "name": "lenderFee",
      "outputs": [
        {
          "internalType": "uint32",
          "name": "",
          "type": "uint32"
        }
      ],
      "stateMutability": "view",
      "type": "function"
    },
    {
      "inputs": [],
      "name": "lendingMethodsAddress",
      "outputs": [
        {
          "internalType": "address",
          "name": "",
          "type": "address"
        }
      ],
      "stateMutability": "view",
      "type": "function"
    },
    {
      "inputs": [
        {
          "internalType": "uint256",
          "name": "",
          "type": "uint256"
        }
      ],
      "name": "loans",
      "outputs": [
        {
          "internalType": "address payable",
          "name": "borrower",
          "type": "address"
        },
        {
          "internalType": "address payable",
          "name": "lender",
          "type": "address"
        },
        {
          "internalType": "address",
          "name": "currency",
          "type": "address"
        },
        {
          "internalType": "enum LendingCore.Status",
          "name": "status",
          "type": "uint8"
        },
        {
          "internalType": "uint256",
          "name": "installmentTime",
          "type": "uint256"
        },
        {
          "internalType": "uint256",
          "name": "nrOfPayments",
          "type": "uint256"
        },
        {
          "internalType": "uint256",
          "name": "loanAmount",
          "type": "uint256"
        },
        {
          "internalType": "uint256",
          "name": "assetsValue",
          "type": "uint256"
        },
        {
          "internalType": "uint256",
          "name": "installmentAmount",
          "type": "uint256"
        },
        {
          "internalType": "uint256",
          "name": "amountDue",
          "type": "uint256"
        },
        {
          "internalType": "uint256",
          "name": "paidAmount",
          "type": "uint256"
        },
        {
          "internalType": "uint16",
          "name": "nrOfInstallments",
          "type": "uint16"
        },
        {
          "internalType": "uint8",
          "name": "defaultingLimit",
          "type": "uint8"
        }
      ],
      "stateMutability": "view",
      "type": "function"
    },
    {
      "inputs": [],
      "name": "ltv",
      "outputs": [
        {
          "internalType": "uint256",
          "name": "",
          "type": "uint256"
        }
      ],
      "stateMutability": "view",
      "type": "function"
    },
    {
      "inputs": [],
      "name": "name",
      "outputs": [
        {
          "internalType": "string",
          "name": "",
          "type": "string"
        }
      ],
      "stateMutability": "view",
      "type": "function"
    },
    {
      "inputs": [
        {
          "internalType": "address",
          "name": "",
          "type": "address"
        },
        {
          "internalType": "address",
          "name": "",
          "type": "address"
        },
        {
          "internalType": "uint256",
          "name": "",
          "type": "uint256"
        },
        {
          "internalType": "bytes",
          "name": "",
          "type": "bytes"
        }
      ],
      "name": "onERC721Received",
      "outputs": [
        {
          "internalType": "bytes4",
          "name": "",
          "type": "bytes4"
        }
      ],
      "stateMutability": "nonpayable",
      "type": "function"
    },
    {
      "inputs": [],
      "name": "owner",
      "outputs": [
        {
          "internalType": "address",
          "name": "",
          "type": "address"
        }
      ],
      "stateMutability": "view",
      "type": "function"
    },
    {
      "inputs": [
        {
          "internalType": "uint256",
          "name": "tokenId",
          "type": "uint256"
        }
      ],
      "name": "ownerOf",
      "outputs": [
        {
          "internalType": "address",
          "name": "",
          "type": "address"
        }
      ],
      "stateMutability": "view",
      "type": "function"
    },
    {
      "inputs": [
        {
          "internalType": "uint256",
          "name": "loanId",
          "type": "uint256"
        },
        {
          "internalType": "uint256",
          "name": "amount",
          "type": "uint256"
        }
      ],
      "name": "payLoan",
      "outputs": [],
      "stateMutability": "payable",
      "type": "function"
    },
    {
      "inputs": [],
      "name": "renounceOwnership",
      "outputs": [],
      "stateMutability": "nonpayable",
      "type": "function"
    },
    {
      "inputs": [
        {
          "internalType": "address",
          "name": "from",
          "type": "address"
        },
        {
          "internalType": "address",
          "name": "to",
          "type": "address"
        },
        {
          "internalType": "uint256",
          "name": "tokenId",
          "type": "uint256"
        }
      ],
      "name": "safeTransferFrom",
      "outputs": [],
      "stateMutability": "nonpayable",
      "type": "function"
    },
    {
      "inputs": [
        {
          "internalType": "address",
          "name": "from",
          "type": "address"
        },
        {
          "internalType": "address",
          "name": "to",
          "type": "address"
        },
        {
          "internalType": "uint256",
          "name": "tokenId",
          "type": "uint256"
        },
        {
          "internalType": "bytes",
          "name": "_data",
          "type": "bytes"
        }
      ],
      "name": "safeTransferFrom",
      "outputs": [],
      "stateMutability": "nonpayable",
      "type": "function"
    },
    {
      "inputs": [
        {
          "internalType": "address",
          "name": "operator",
          "type": "address"
        },
        {
          "internalType": "bool",
          "name": "approved",
          "type": "bool"
        }
      ],
      "name": "setApprovalForAll",
      "outputs": [],
      "stateMutability": "nonpayable",
      "type": "function"
    },
    {
      "inputs": [
        {
          "internalType": "address",
          "name": "lending",
          "type": "address"
        },
        {
          "internalType": "address",
          "name": "discountsAddress",
          "type": "address"
        }
      ],
      "name": "setGlobalParameters",
      "outputs": [],
      "stateMutability": "nonpayable",
      "type": "function"
    },
    {
      "inputs": [
        {
          "internalType": "uint256",
          "name": "_ltv",
          "type": "uint256"
        },
        {
          "internalType": "uint256",
          "name": "_interestRate",
          "type": "uint256"
        },
        {
          "internalType": "uint256",
          "name": "_interestRateToStater",
          "type": "uint256"
        },
        {
          "internalType": "uint32",
          "name": "_lenderFee",
          "type": "uint32"
        },
        {
          "internalType": "address",
          "name": "_lendingMethodsAddress",
          "type": "address"
        },
        {
          "internalType": "address",
          "name": "_lendingDiscountsAddress",
          "type": "address"
        }
      ],
      "name": "setGlobalVariables",
      "outputs": [],
      "stateMutability": "nonpayable",
      "type": "function"
    },
    {
      "inputs": [
        {
          "internalType": "bytes4",
          "name": "interfaceId",
          "type": "bytes4"
        }
      ],
      "name": "supportsInterface",
      "outputs": [
        {
          "internalType": "bool",
          "name": "",
          "type": "bool"
        }
      ],
      "stateMutability": "view",
      "type": "function"
    },
    {
      "inputs": [],
      "name": "symbol",
      "outputs": [
        {
          "internalType": "string",
          "name": "",
          "type": "string"
        }
      ],
      "stateMutability": "view",
      "type": "function"
    },
    {
      "inputs": [
        {
          "internalType": "uint256",
          "name": "loanId",
          "type": "uint256"
        }
      ],
      "name": "terminateLoan",
      "outputs": [],
      "stateMutability": "nonpayable",
      "type": "function"
    },
    {
      "inputs": [
        {
          "internalType": "uint256",
          "name": "tokenId",
          "type": "uint256"
        }
      ],
      "name": "tokenURI",
      "outputs": [
        {
          "internalType": "string",
          "name": "",
          "type": "string"
        }
      ],
      "stateMutability": "view",
      "type": "function"
    },
    {
      "inputs": [
        {
          "internalType": "address",
          "name": "from",
          "type": "address"
        },
        {
          "internalType": "address",
          "name": "to",
          "type": "address"
        },
        {
          "internalType": "uint256",
          "name": "tokenId",
          "type": "uint256"
        }
      ],
      "name": "transferFrom",
      "outputs": [],
      "stateMutability": "nonpayable",
      "type": "function"
    },
    {
      "inputs": [
        {
          "internalType": "address",
          "name": "from",
          "type": "address"
        },
        {
          "internalType": "address",
          "name": "to",
          "type": "address"
        },
        {
          "internalType": "address[]",
          "name": "nftAddressArray",
          "type": "address[]"
        },
        {
          "internalType": "uint256[]",
          "name": "nftTokenIdArray",
          "type": "uint256[]"
        },
        {
          "internalType": "uint8[]",
          "name": "nftTokenTypeArray",
          "type": "uint8[]"
        }
      ],
      "name": "transferItems",
      "outputs": [],
      "stateMutability": "nonpayable",
      "type": "function"
    },
    {
      "inputs": [
        {
          "internalType": "address",
          "name": "newOwner",
          "type": "address"
        }
      ],
      "name": "transferOwnership",
      "outputs": [],
      "stateMutability": "nonpayable",
      "type": "function"
    },
    {
      "inputs": [
        {
          "internalType": "address",
          "name": "from",
          "type": "address"
        },
        {
          "internalType": "address payable",
          "name": "to",
          "type": "address"
        },
        {
          "internalType": "address",
          "name": "currency",
          "type": "address"
        },
        {
          "internalType": "uint256",
          "name": "qty1",
          "type": "uint256"
        },
        {
          "internalType": "uint256",
          "name": "qty2",
          "type": "uint256"
        }
      ],
      "name": "transferTokens",
      "outputs": [],
      "stateMutability": "nonpayable",
      "type": "function"
    }
  ],
  "bytecode": "0x60806040526001600955603c600a556014600b556028600c55600d805463ffffffff191660641790553480156200003557600080fd5b50604051620034a7380380620034a7833981016040819052620000589162000262565b8181818162000067336200009f565b81516200007c906001906020850190620000ef565b50805162000092906002906020840190620000ef565b5050505050505062000308565b600080546001600160a01b038381166001600160a01b0319831681178455604051919092169283917f8be0079c531659141344cd1fd0a4f28419497f9722a3daafe3b4186f6b6457e09190a35050565b828054620000fd90620002cc565b90600052602060002090601f0160209004810192826200012157600085556200016c565b82601f106200013c57805160ff19168380011785556200016c565b828001600101855582156200016c579182015b828111156200016c5782518255916020019190600101906200014f565b506200017a9291506200017e565b5090565b5b808211156200017a57600081556001016200017f565b634e487b7160e01b600052604160045260246000fd5b600082601f830112620001bd57600080fd5b81516001600160401b0380821115620001da57620001da62000195565b604051601f8301601f19908116603f0116810190828211818310171562000205576200020562000195565b816040528381526020925086838588010111156200022257600080fd5b600091505b8382101562000246578582018301518183018401529082019062000227565b83821115620002585760008385830101525b9695505050505050565b600080604083850312156200027657600080fd5b82516001600160401b03808211156200028e57600080fd5b6200029c86838701620001ab565b93506020850151915080821115620002b357600080fd5b50620002c285828601620001ab565b9150509250929050565b600181811c90821680620002e157607f821691505b6020821081036200030257634e487b7160e01b600052602260045260246000fd5b50919050565b61318f80620003186000396000f3fe6080604052600436106101e15760003560e01c806301ffc9a7146101e657806306fdde031461021b578063081812fc1461023d578063095ea7b31461026a5780630e847ff01461028c578063150b7a02146102dd57806323b872dd146103165780632cccad92146103365780632e3f4a5d1461035657806333812d211461037657806338daa78914610396578063407299d7146103b657806342842e0e146103d65780635e66af3c146103f65780636352211e146104165780636fb49d731461043657806370a082311461045a578063715018a61461047a57806375af65d11461048f5780637c3a00fd146104af5780637fb9fe3d146104c557806387715588146104e557806389306e61146105055780638ca83f07146105185780638da5cb5b1461054a5780638f8292751461055f5780639173ac581461057557806395d89b41146105955780639e1d7a1e146105aa5780639eb0b5f5146105d7578063a22cb465146105f7578063aadc1ac114610617578063af640d0f1461062a578063b88d4fde14610640578063bdbfa3de14610660578063bdd3dc8e14610680578063c87b56dd146106a0578063e1ec3c68146106c0578063e70c744614610779578063e985e9c514610799578063f2fde38b146107b9578063fc1c83d2146107d9575b600080fd5b3480156101f257600080fd5b50610206610201366004612609565b610821565b60405190151581526020015b60405180910390f35b34801561022757600080fd5b50610230610873565b604051610212919061267e565b34801561024957600080fd5b5061025d610258366004612691565b610905565b60405161021291906126aa565b34801561027657600080fd5b5061028a6102853660046126e3565b610992565b005b34801561029857600080fd5b506102ac6102a7366004612691565b610aa2565b6040805195865260208601949094529284019190915260608301526001600160a01b0316608082015260a001610212565b3480156102e957600080fd5b506102fd6102f836600461277d565b610c11565b6040516001600160e01b03199091168152602001610212565b34801561032257600080fd5b5061028a610331366004612840565b610c22565b34801561034257600080fd5b5061028a610351366004612881565b610c53565b34801561036257600080fd5b5061028a6103713660046128ba565b610cb0565b34801561038257600080fd5b5061028a610391366004612927565b610f61565b3480156103a257600080fd5b5060075461025d906001600160a01b031681565b3480156103c257600080fd5b5061028a6103d1366004612b0c565b61108d565b3480156103e257600080fd5b5061028a6103f1366004612840565b6112a4565b34801561040257600080fd5b5061028a610411366004612bac565b6112bf565b34801561042257600080fd5b5061025d610431366004612691565b61137e565b34801561044257600080fd5b5061044c600a5481565b604051908152602001610212565b34801561046657600080fd5b5061044c610475366004612c96565b6113f5565b34801561048657600080fd5b5061028a61147c565b34801561049b57600080fd5b5060085461025d906001600160a01b031681565b3480156104bb57600080fd5b5061044c600b5481565b3480156104d157600080fd5b5061028a6104e0366004612691565b6114b7565b3480156104f157600080fd5b5061028a610500366004612cb3565b6115ab565b61028a610513366004612cb3565b611601565b34801561052457600080fd5b50600d546105359063ffffffff1681565b60405163ffffffff9091168152602001610212565b34801561055657600080fd5b5061025d6116f6565b34801561056b57600080fd5b5061044c600c5481565b34801561058157600080fd5b5061028a610590366004612cd5565b611705565b3480156105a157600080fd5b50610230611850565b3480156105b657600080fd5b506105ca6105c5366004612691565b61185f565b6040516102129190612d45565b3480156105e357600080fd5b5061044c6105f2366004612691565b6118ad565b34801561060357600080fd5b5061028a610612366004612d84565b6118cf565b61028a610625366004612691565b6118da565b34801561063657600080fd5b5061044c60095481565b34801561064c57600080fd5b5061028a61065b36600461277d565b6119cc565b34801561066c57600080fd5b5061028a61067b366004612691565b611a04565b34801561068c57600080fd5b5061044c61069b366004612881565b611a56565b3480156106ac57600080fd5b506102306106bb366004612691565b611ad1565b3480156106cc57600080fd5b506107606106db366004612691565b600e602081905260009182526040909120600281015460038201546004830154600784015460088501546009860154600a870154600d88015498880154600f8901546010909901546001600160a01b039889169a978916999887169860ff600160a01b909804881698969795969495939493909161ffff81169162010000909104168d565b6040516102129d9c9b9a99989796959493929190612dc8565b34801561078557600080fd5b50610206610794366004612691565b611ba8565b3480156107a557600080fd5b506102066107b4366004612881565b611cf4565b3480156107c557600080fd5b5061028a6107d4366004612c96565b611d22565b3480156107e557600080fd5b506107f96107f4366004612cb3565b611dc2565b604080519586526020860194909452928401919091526060830152608082015260a001610212565b60006001600160e01b031982166380ac58cd60e01b148061085257506001600160e01b03198216635b5e139f60e01b145b8061086d57506301ffc9a760e01b6001600160e01b03198316145b92915050565b60606001805461088290612e67565b80601f01602080910402602001604051908101604052809291908181526020018280546108ae90612e67565b80156108fb5780601f106108d0576101008083540402835291602001916108fb565b820191906000526020600020905b8154815290600101906020018083116108de57829003601f168201915b5050505050905090565b600061091082611f84565b6109765760405162461bcd60e51b815260206004820152602c60248201527f4552433732313a20617070726f76656420717565727920666f72206e6f6e657860448201526b34b9ba32b73a103a37b5b2b760a11b60648201526084015b60405180910390fd5b506000908152600560205260409020546001600160a01b031690565b600061099d8261137e565b9050806001600160a01b0316836001600160a01b031603610a0a5760405162461bcd60e51b815260206004820152602160248201527f4552433732313a20617070726f76616c20746f2063757272656e74206f776e656044820152603960f91b606482015260840161096d565b336001600160a01b0382161480610a265750610a268133611cf4565b610a935760405162461bcd60e51b815260206004820152603860248201527f4552433732313a20617070726f76652063616c6c6572206973206e6f74206f776044820152771b995c881b9bdc88185c1c1c9bdd995908199bdc88185b1b60421b606482015260840161096d565b610a9d8383611fa1565b505050565b60085460405163ad6a874560e01b815260009182918291829182916001600160a01b03169063ad6a874590610adb9033906004016126aa565b602060405180830381865afa158015610af8573d6000803e3d6000fd5b505050506040513d601f19601f82011682018060405250810190610b1c9190612ea1565b600d546000888152600e6020526040902060090154610b419163ffffffff1690612ee6565b610b4b9190612ee6565b6000878152600e6020526040902060090154610b679190612efa565b6000878152600e60205260409081902060090154600d54600854925163ad6a874560e01b8152919263ffffffff909116916001600160a01b039091169063ad6a874590610bb89033906004016126aa565b602060405180830381865afa158015610bd5573d6000803e3d6000fd5b505050506040513d601f19601f82011682018060405250810190610bf99190612ea1565b929991985063ffffffff169650909450339350915050565b630a85bd0160e11b5b949350505050565b610c2c338261200f565b610c485760405162461bcd60e51b815260040161096d90612f12565b610a9d8383836120d8565b33610c5c6116f6565b6001600160a01b031614610c825760405162461bcd60e51b815260040161096d90612f63565b600780546001600160a01b039384166001600160a01b03199182161790915560088054929093169116179055565b6001600160a01b03831615610e63576040516323b872dd60e01b81526001600160a01b038416906323b872dd90610cef90889088908790600401612f98565b6020604051808303816000875af1158015610d0e573d6000803e3d6000fd5b505050506040513d601f19601f82011682018060405250810190610d329190612fbc565b610d8c5760405162461bcd60e51b815260206004820152602560248201527f5472616e73666572206f6620746f6b656e7320746f2072656365697665722066604482015264185a5b195960da1b606482015260840161096d565b826001600160a01b03166323b872dd86610da46116f6565b846040518463ffffffff1660e01b8152600401610dc393929190612f98565b6020604051808303816000875af1158015610de2573d6000803e3d6000fd5b505050506040513d601f19601f82011682018060405250810190610e069190612fbc565b610e5e5760405162461bcd60e51b815260206004820152602360248201527f5472616e73666572206f6620746f6b656e7320746f20537461746572206661696044820152621b195960ea1b606482015260840161096d565b610f5a565b6040516001600160a01b0385169083156108fc029084906000818181858888f19350505050610edf5760405162461bcd60e51b815260206004820152602260248201527f5472616e73666572206f662045544820746f207265636569766572206661696c604482015261195960f21b606482015260840161096d565b610ee76116f6565b6001600160a01b03166108fc829081150290604051600060405180830381858888f19350505050610f5a5760405162461bcd60e51b815260206004820181905260248201527f5472616e73666572206f662045544820746f20537461746572206661696c6564604482015260640161096d565b5050505050565b6007546040805183516024820152602084015160448201529083015161ffff16606482015260608301516001600160a01b039081166084830152608084015160a483015260a084015160c4830152600092169060e40160408051601f198184030181529181526020820180516001600160e01b03166333812d2160e01b17905251610fec9190612fd9565b600060405180830381855af49150503d8060008114611027576040519150601f19603f3d011682016040523d82523d6000602084013e61102c565b606091505b50509050806110895760405162461bcd60e51b815260206004820152602360248201527f4661696c656420746f20656469744c6f616e207669612064656c656761746563604482015262185b1b60ea1b606482015260840161096d565b5050565b825182518114801561109f5750808251145b6110eb5760405162461bcd60e51b815260206004820181905260248201527f546f6b656e20696e666f732070726f76696465642061726520696e76616c6964604482015260640161096d565b60005b8181101561129b5782818151811061110857611108612ff5565b602002602001015160ff166000036111b35784818151811061112c5761112c612ff5565b60200260200101516001600160a01b03166342842e0e888887858151811061115657611156612ff5565b60200260200101516040518463ffffffff1660e01b815260040161117c93929190612f98565b600060405180830381600087803b15801561119657600080fd5b505af11580156111aa573d6000803e3d6000fd5b5050505061128b565b8481815181106111c5576111c5612ff5565b60200260200101516001600160a01b031663f242432a88888785815181106111ef576111ef612ff5565b602002602001015160016040518563ffffffff1660e01b815260040161125894939291906001600160a01b0394851681529290931660208301526040820152606081019190915260a060808201819052600490820152630307830360e41b60c082015260e00190565b600060405180830381600087803b15801561127257600080fd5b505af1158015611286573d6000803e3d6000fd5b505050505b6112948161300b565b90506110ee565b50505050505050565b610a9d838383604051806020016040528060008152506119cc565b6007546040516000916001600160a01b0316906112df9083903690613024565b600060405180830381855af49150503d806000811461131a576040519150601f19603f3d011682016040523d82523d6000602084013e61131f565b606091505b50509050806110895760405162461bcd60e51b815260206004820152602560248201527f4661696c656420746f206372656174654c6f616e207669612064656c656761746044820152641958d85b1b60da1b606482015260840161096d565b6000818152600360205260408120546001600160a01b03168061086d5760405162461bcd60e51b815260206004820152602960248201527f4552433732313a206f776e657220717565727920666f72206e6f6e657869737460448201526832b73a103a37b5b2b760b91b606482015260840161096d565b60006001600160a01b0382166114605760405162461bcd60e51b815260206004820152602a60248201527f4552433732313a2062616c616e636520717565727920666f7220746865207a65604482015269726f206164647265737360b01b606482015260840161096d565b506001600160a01b031660009081526004602052604090205490565b336114856116f6565b6001600160a01b0316146114ab5760405162461bcd60e51b815260040161096d90612f63565b6114b56000612274565b565b600754604051602481018390526000916001600160a01b03169060440160408051601f198184030181529181526020820180516001600160e01b0316637fb9fe3d60e01b179052516115099190612fd9565b600060405180830381855af49150503d8060008114611544576040519150601f19603f3d011682016040523d82523d6000602084013e611549565b606091505b50509050806110895760405162461bcd60e51b815260206004820152602860248201527f4661696c656420746f207465726d696e6174654c6f616e207669612064656c6560448201526719d85d1958d85b1b60c21b606482015260840161096d565b600a546115b9606483612ee6565b6115c39190613034565b8211156110895760405162461bcd60e51b815260206004820152600c60248201526b098a8ac40e8dede40d0d2ced60a31b604482015260640161096d565b60075460405160248101849052604481018390526000916001600160a01b03169060640160408051601f198184030181529181526020820180516001600160e01b03166389306e6160e01b1790525161165a9190612fd9565b600060405180830381855af49150503d8060008114611695576040519150601f19603f3d011682016040523d82523d6000602084013e61169a565b606091505b5050905080610a9d5760405162461bcd60e51b815260206004820152602260248201527f4661696c656420746f207061794c6f616e207669612064656c656761746563616044820152611b1b60f21b606482015260840161096d565b6000546001600160a01b031690565b3361170e6116f6565b6001600160a01b0316146117345760405162461bcd60e51b815260040161096d90612f63565b6001600160a01b0382166117945760405162461bcd60e51b815260206004820152602160248201527f4c656e64696e67204d6574686f64732061646472657373206e6f742076616c696044820152601960fa1b606482015260840161096d565b6001600160a01b0381166117f65760405162461bcd60e51b815260206004820152602360248201527f4c656e64696e6720446973636f756e74732061646472657373206e6f742076616044820152621b1a5960ea1b606482015260840161096d565b600a95909555600b93909355600c91909155600d805463ffffffff191663ffffffff909216919091179055600780546001600160a01b03199081166001600160a01b03938416179091556008805490911691909216179055565b60606002805461088290612e67565b6118676125d5565b6000828152600e6020526040908190208151808301909252600b0160028282826020028201915b81548152602001906001019080831161188e5750505050509050919050565b6000818152600e602081905260408220600f81015491015461086d9190613053565b6110893383836122c4565b600754604051602481018390526000916001600160a01b03169060440160408051601f198184030181529181526020820180516001600160e01b031663aadc1ac160e01b1790525161192c9190612fd9565b600060405180830381855af49150503d8060008114611967576040519150601f19603f3d011682016040523d82523d6000602084013e61196c565b606091505b50509050806110895760405162461bcd60e51b815260206004820152602660248201527f4661696c656420746f20617070726f76654c6f616e207669612064656c6567616044820152651d1958d85b1b60d21b606482015260840161096d565b6119d6338361200f565b6119f25760405162461bcd60e51b815260040161096d90612f12565b6119fe8484848461238e565b50505050565b600754604051602481018390526000916001600160a01b03169060440160408051601f198184030181529181526020820180516001600160e01b0316635edfd1ef60e11b1790525161192c9190612fd9565b604051636eb1769f60e11b81526001600160a01b0383811660048301523060248301526000919083169063dd62ed3e90604401602060405180830381865afa158015611aa6573d6000803e3d6000fd5b505050506040513d601f19601f82011682018060405250810190611aca9190612ea1565b9392505050565b6060611adc82611f84565b611b405760405162461bcd60e51b815260206004820152602f60248201527f4552433732314d657461646174613a2055524920717565727920666f72206e6f60448201526e3732bc34b9ba32b73a103a37b5b2b760891b606482015260840161096d565b6000611b5760408051602081019091526000815290565b90506000815111611b775760405180602001604052806000815250611aca565b80611b81846123c1565b604051602001611b9292919061306a565b6040516020818303038152906040529392505050565b600060016000838152600e60205260409020600490810154600160a01b900460ff1690811115611bda57611bda612db2565b1480611c13575060026000838152600e60205260409020600490810154600160a01b900460ff1690811115611c1157611c11612db2565b145b611c5a5760405162461bcd60e51b8152602060048201526018602482015277131bd85b881a5cc81b9bdd081e595d08185c1c1c9bdd995960421b604482015260640161096d565b6000828152600e60205260409020600c0154611c779042906124c1565b6000838152600e602052604090206007810154601090910154611ca3919062010000900460ff16613034565b6000848152600e602052604090206007810154600890910154611cc69190613034565b6000858152600e60205260409020600b0154611ce29190612efa565b611cec9190612efa565b111592915050565b6001600160a01b03918216600090815260066020908152604080832093909416825291909152205460ff1690565b33611d2b6116f6565b6001600160a01b031614611d515760405162461bcd60e51b815260040161096d90612f63565b6001600160a01b038116611db65760405162461bcd60e51b815260206004820152602660248201527f4f776e61626c653a206e6577206f776e657220697320746865207a65726f206160448201526564647265737360d01b606482015260840161096d565b611dbf81612274565b50565b6000828152600e6020526040812060100154819081908190819061ffff16861115611e2f5760405162461bcd60e51b815260206004820152601f60248201527f4e756d626572206f6620696e7374616c6c6d656e747320746f6f206869676800604482015260640161096d565b60085460405163ad6a874560e01b81526000916001600160a01b03169063ad6a874590611e609033906004016126aa565b602060405180830381865afa158015611e7d573d6000803e3d6000fd5b505050506040513d601f19601f82011682018060405250810190611ea19190612ea1565b6000898152600e60205260408120600d0154909550909150611ec4908890613034565b6000898152600e6020526040902060100154600b5491975061ffff1690606490611eee9089613034565b611ef89190612ee6565b611f029190612ee6565b9450806064600c5487611f159190613034565b611f1f9190612ee6565b611f299190612ee6565b9350836064600c5487611f3c9190613034565b611f469190612ee6565b611f509190613053565b92506064600c546064611f639190613053565b611f6d9087613034565b611f779190612ee6565b9150509295509295909350565b6000908152600360205260409020546001600160a01b0316151590565b600081815260056020526040902080546001600160a01b0319166001600160a01b0384169081179091558190611fd68261137e565b6001600160a01b03167f8c5be1e5ebec7d5bd14f71427d1e84f3dd0314c0f7b2291e5b200ac8c7c3b92560405160405180910390a45050565b600061201a82611f84565b61207b5760405162461bcd60e51b815260206004820152602c60248201527f4552433732313a206f70657261746f7220717565727920666f72206e6f6e657860448201526b34b9ba32b73a103a37b5b2b760a11b606482015260840161096d565b60006120868361137e565b9050806001600160a01b0316846001600160a01b031614806120ad57506120ad8185611cf4565b80610c1a5750836001600160a01b03166120c684610905565b6001600160a01b031614949350505050565b826001600160a01b03166120eb8261137e565b6001600160a01b03161461214f5760405162461bcd60e51b815260206004820152602560248201527f4552433732313a207472616e736665722066726f6d20696e636f72726563742060448201526437bbb732b960d91b606482015260840161096d565b6001600160a01b0382166121b15760405162461bcd60e51b8152602060048201526024808201527f4552433732313a207472616e7366657220746f20746865207a65726f206164646044820152637265737360e01b606482015260840161096d565b6121bc600082611fa1565b6001600160a01b03831660009081526004602052604081208054600192906121e5908490613053565b90915550506001600160a01b0382166000908152600460205260408120805460019290612213908490612efa565b909155505060008181526003602052604080822080546001600160a01b0319166001600160a01b0386811691821790925591518493918716917fddf252ad1be2c89b69c2b068fc378daa952ba7f163c4a11628f55a4df523b3ef91a4505050565b600080546001600160a01b038381166001600160a01b0319831681178455604051919092169283917f8be0079c531659141344cd1fd0a4f28419497f9722a3daafe3b4186f6b6457e09190a35050565b816001600160a01b0316836001600160a01b0316036123215760405162461bcd60e51b815260206004820152601960248201527822a9219b99189d1030b8383937bb32903a379031b0b63632b960391b604482015260640161096d565b6001600160a01b03838116600081815260066020908152604080832094871680845294825291829020805460ff191686151590811790915591519182527f17307eab39ab6107e8899845ad3d59bd9653f200f220920489ca2b5937696c31910160405180910390a3505050565b6123998484846120d8565b6123a5848484846124d7565b6119fe5760405162461bcd60e51b815260040161096d90613099565b6060816000036123e85750506040805180820190915260018152600360fc1b602082015290565b8160005b811561241257806123fc8161300b565b915061240b9050600a83612ee6565b91506123ec565b6000816001600160401b0381111561242c5761242c61270f565b6040519080825280601f01601f191660200182016040528015612456576020820181803683370190505b5090505b8415610c1a5761246b600183613053565b9150612478600a866130eb565b612483906030612efa565b60f81b81838151811061249857612498612ff5565b60200101906001600160f81b031916908160001a9053506124ba600a86612ee6565b945061245a565b60008183106124d05781611aca565b5090919050565b60006001600160a01b0384163b156125cd57604051630a85bd0160e11b81526001600160a01b0385169063150b7a029061251b9033908990889088906004016130ff565b6020604051808303816000875af1925050508015612556575060408051601f3d908101601f191682019092526125539181019061313c565b60015b6125b3573d808015612584576040519150601f19603f3d011682016040523d82523d6000602084013e612589565b606091505b5080516000036125ab5760405162461bcd60e51b815260040161096d90613099565b805181602001fd5b6001600160e01b031916630a85bd0160e11b149050610c1a565b506001610c1a565b60405180604001604052806002906020820280368337509192915050565b6001600160e01b031981168114611dbf57600080fd5b60006020828403121561261b57600080fd5b8135611aca816125f3565b60005b83811015612641578181015183820152602001612629565b838111156119fe5750506000910152565b6000815180845261266a816020860160208601612626565b601f01601f19169290920160200192915050565b602081526000611aca6020830184612652565b6000602082840312156126a357600080fd5b5035919050565b6001600160a01b0391909116815260200190565b6001600160a01b0381168114611dbf57600080fd5b80356126de816126be565b919050565b600080604083850312156126f657600080fd5b8235612701816126be565b946020939093013593505050565b634e487b7160e01b600052604160045260246000fd5b60405160e081016001600160401b03811182821017156127475761274761270f565b60405290565b604051601f8201601f191681016001600160401b03811182821017156127755761277561270f565b604052919050565b6000806000806080858703121561279357600080fd5b843561279e816126be565b93506020858101356127af816126be565b93506040860135925060608601356001600160401b03808211156127d257600080fd5b818801915088601f8301126127e657600080fd5b8135818111156127f8576127f861270f565b61280a601f8201601f1916850161274d565b9150808252898482850101111561282057600080fd5b808484018584013760008482840101525080935050505092959194509250565b60008060006060848603121561285557600080fd5b8335612860816126be565b92506020840135612870816126be565b929592945050506040919091013590565b6000806040838503121561289457600080fd5b823561289f816126be565b915060208301356128af816126be565b809150509250929050565b600080600080600060a086880312156128d257600080fd5b85356128dd816126be565b945060208601356128ed816126be565b935060408601356128fd816126be565b94979396509394606081013594506080013592915050565b803561ffff811681146126de57600080fd5b600060c0828403121561293957600080fd5b60405160c081016001600160401b038111828210171561295b5761295b61270f565b8060405250823581526020830135602082015261297a60408401612915565b6040820152606083013561298d816126be565b60608201526080838101359082015260a0928301359281019290925250919050565b60006001600160401b038211156129c8576129c861270f565b5060051b60200190565b600082601f8301126129e357600080fd5b813560206129f86129f3836129af565b61274d565b82815260059290921b84018101918181019086841115612a1757600080fd5b8286015b84811015612a3b578035612a2e816126be565b8352918301918301612a1b565b509695505050505050565b600082601f830112612a5757600080fd5b81356020612a676129f3836129af565b82815260059290921b84018101918181019086841115612a8657600080fd5b8286015b84811015612a3b5780358352918301918301612a8a565b600082601f830112612ab257600080fd5b81356020612ac26129f3836129af565b82815260059290921b84018101918181019086841115612ae157600080fd5b8286015b84811015612a3b57803560ff81168114612aff5760008081fd5b8352918301918301612ae5565b600080600080600060a08688031215612b2457600080fd5b8535612b2f816126be565b94506020860135612b3f816126be565b935060408601356001600160401b0380821115612b5b57600080fd5b612b6789838a016129d2565b94506060880135915080821115612b7d57600080fd5b612b8989838a01612a46565b93506080880135915080821115612b9f57600080fd5b50611f7788828901612aa1565b600060208284031215612bbe57600080fd5b81356001600160401b0380821115612bd557600080fd5b9083019060e08286031215612be957600080fd5b612bf1612725565b82358152612c0160208401612915565b6020820152612c12604084016126d3565b604082015260608301356060820152608083013582811115612c3357600080fd5b612c3f878286016129d2565b60808301525060a083013582811115612c5757600080fd5b612c6387828601612a46565b60a08301525060c083013582811115612c7b57600080fd5b612c8787828601612aa1565b60c08301525095945050505050565b600060208284031215612ca857600080fd5b8135611aca816126be565b60008060408385031215612cc657600080fd5b50508035926020909101359150565b60008060008060008060c08789031215612cee57600080fd5b863595506020870135945060408701359350606087013563ffffffff81168114612d1757600080fd5b92506080870135612d27816126be565b915060a0870135612d37816126be565b809150509295509295509295565b60408101818360005b6002811015612d6d578151835260209283019290910190600101612d4e565b50505092915050565b8015158114611dbf57600080fd5b60008060408385031215612d9757600080fd5b8235612da2816126be565b915060208301356128af81612d76565b634e487b7160e01b600052602160045260246000fd5b6001600160a01b038e811682528d811660208301528c1660408201526101a0810160058c10612e0757634e487b7160e01b600052602160045260246000fd5b8b60608301528a60808301528960a08301528860c08301528760e0830152866101008301528561012083015284610140830152612e4b61016083018561ffff169052565b60ff83166101808301529e9d5050505050505050505050505050565b600181811c90821680612e7b57607f821691505b602082108103612e9b57634e487b7160e01b600052602260045260246000fd5b50919050565b600060208284031215612eb357600080fd5b5051919050565b634e487b7160e01b600052601260045260246000fd5b634e487b7160e01b600052601160045260246000fd5b600082612ef557612ef5612eba565b500490565b60008219821115612f0d57612f0d612ed0565b500190565b60208082526031908201527f4552433732313a207472616e736665722063616c6c6572206973206e6f74206f6040820152701ddb995c881b9bdc88185c1c1c9bdd9959607a1b606082015260800190565b6020808252818101527f4f776e61626c653a2063616c6c6572206973206e6f7420746865206f776e6572604082015260600190565b6001600160a01b039384168152919092166020820152604081019190915260600190565b600060208284031215612fce57600080fd5b8151611aca81612d76565b60008251612feb818460208701612626565b9190910192915050565b634e487b7160e01b600052603260045260246000fd5b60006001820161301d5761301d612ed0565b5060010190565b8183823760009101908152919050565b600081600019048311821515161561304e5761304e612ed0565b500290565b60008282101561306557613065612ed0565b500390565b6000835161307c818460208801612626565b835190830190613090818360208801612626565b01949350505050565b60208082526032908201527f4552433732313a207472616e7366657220746f206e6f6e20455243373231526560408201527131b2b4bb32b91034b6b83632b6b2b73a32b960711b606082015260800190565b6000826130fa576130fa612eba565b500690565b6001600160a01b038581168252841660208201526040810183905260806060820181905260009061313290830184612652565b9695505050505050565b60006020828403121561314e57600080fd5b8151611aca816125f356fea2646970667358221220de73c7dc27d80ef212a27ecffbcf1a77d898e20f298fbf384d20fa6e0c36161f64736f6c634300080e0033",
  "linkReferences": {},
  "deployedLinkReferences": {}
}