{
    "contractName": "StaterHealthFactor",
    "abi": [
        {
            "inputs": [
                {
                    "internalType": "address",
                    "name": "_uniswapV3NftAddress",
                    "type": "address"
                },
                {
                    "internalType": "address",
                    "name": "_priceOracleGetter",
                    "type": "address"
                },
                {
                    "internalType": "address",
                    "name": "_lendingPool",
                    "type": "address"
                },
                {
                    "internalType": "address[]",
                    "name": "_whitelistedCurrencies",
                    "type": "address[]"
                }
            ],
            "stateMutability": "nonpayable",
            "type": "constructor"
        },
        {
            "anonymous": false,
            "inputs": [
                {
                    "indexed": true,
                    "internalType": "address",
                    "name": "currency",
                    "type": "address"
                },
                {
                    "indexed": true,
                    "internalType": "uint256",
                    "name": "loanId",
                    "type": "uint256"
                },
                {
                    "indexed": false,
                    "internalType": "uint256",
                    "name": "loanAmount",
                    "type": "uint256"
                },
                {
                    "indexed": false,
                    "internalType": "uint256",
                    "name": "amountDue",
                    "type": "uint256"
                },
                {
                    "indexed": false,
                    "internalType": "uint256",
                    "name": "installmentAmount",
                    "type": "uint256"
                },
                {
                    "indexed": false,
                    "internalType": "uint256",
                    "name": "assetsValue",
                    "type": "uint256"
                },
                {
                    "indexed": false,
                    "internalType": "uint256",
                    "name": "frequencyTime",
                    "type": "uint256"
                },
                {
                    "indexed": false,
                    "internalType": "uint256",
                    "name": "frequencyTimeUnit",
                    "type": "uint256"
                }
            ],
            "name": "EditLoan",
            "type": "event"
        },
        {
            "anonymous": false,
            "inputs": [
                {
                    "indexed": true,
                    "internalType": "address",
                    "name": "requester",
                    "type": "address"
                },
                {
                    "indexed": true,
                    "internalType": "uint256",
                    "name": "loanId",
                    "type": "uint256"
                },
                {
                    "indexed": false,
                    "internalType": "enum LendingCore.Status",
                    "name": "status",
                    "type": "uint8"
                }
            ],
            "name": "ItemsWithdrawn",
            "type": "event"
        },
        {
            "anonymous": false,
            "inputs": [
                {
                    "indexed": true,
                    "internalType": "address",
                    "name": "lender",
                    "type": "address"
                },
                {
                    "indexed": true,
                    "internalType": "uint256",
                    "name": "loanId",
                    "type": "uint256"
                },
                {
                    "indexed": false,
                    "internalType": "uint256",
                    "name": "loanPaymentEnd",
                    "type": "uint256"
                }
            ],
            "name": "LoanApproved",
            "type": "event"
        },
        {
            "anonymous": false,
            "inputs": [
                {
                    "indexed": true,
                    "internalType": "uint256",
                    "name": "loanId",
                    "type": "uint256"
                }
            ],
            "name": "LoanCancelled",
            "type": "event"
        },
        {
            "anonymous": false,
            "inputs": [
                {
                    "indexed": true,
                    "internalType": "uint256",
                    "name": "loanId",
                    "type": "uint256"
                },
                {
                    "indexed": false,
                    "internalType": "uint256",
                    "name": "installmentAmount",
                    "type": "uint256"
                },
                {
                    "indexed": false,
                    "internalType": "uint256",
                    "name": "amountPaidAsInstallmentToLender",
                    "type": "uint256"
                },
                {
                    "indexed": false,
                    "internalType": "uint256",
                    "name": "interestPerInstallement",
                    "type": "uint256"
                },
                {
                    "indexed": false,
                    "internalType": "uint256",
                    "name": "interestToStaterPerInstallement",
                    "type": "uint256"
                },
                {
                    "indexed": false,
                    "internalType": "enum LendingCore.Status",
                    "name": "status",
                    "type": "uint8"
                }
            ],
            "name": "LoanPayment",
            "type": "event"
        },
        {
            "anonymous": false,
            "inputs": [
                {
                    "indexed": true,
                    "internalType": "address",
                    "name": "owner",
                    "type": "address"
                },
                {
                    "indexed": true,
                    "internalType": "address",
                    "name": "currency",
                    "type": "address"
                },
                {
                    "indexed": true,
                    "internalType": "uint256",
                    "name": "loanId",
                    "type": "uint256"
                },
                {
                    "indexed": false,
                    "internalType": "address[]",
                    "name": "nftAddressArray",
                    "type": "address[]"
                },
                {
                    "indexed": false,
                    "internalType": "uint256[]",
                    "name": "nftTokenIdArray",
                    "type": "uint256[]"
                },
                {
                    "indexed": false,
                    "internalType": "uint8[]",
                    "name": "nftTokenTypeArray",
                    "type": "uint8[]"
                }
            ],
            "name": "NewLoan",
            "type": "event"
        },
        {
            "anonymous": false,
            "inputs": [
                {
                    "indexed": true,
                    "internalType": "address",
                    "name": "previousOwner",
                    "type": "address"
                },
                {
                    "indexed": true,
                    "internalType": "address",
                    "name": "newOwner",
                    "type": "address"
                }
            ],
            "name": "OwnershipTransferred",
            "type": "event"
        },
        {
            "inputs": [],
            "name": "MAX_SQRT_RATIO",
            "outputs": [
                {
                    "internalType": "uint160",
                    "name": "",
                    "type": "uint160"
                }
            ],
            "stateMutability": "pure",
            "type": "function"
        },
        {
            "inputs": [],
            "name": "MIN_SQRT_RATIO",
            "outputs": [
                {
                    "internalType": "uint160",
                    "name": "",
                    "type": "uint160"
                }
            ],
            "stateMutability": "pure",
            "type": "function"
        },
        {
            "inputs": [
                {
                    "internalType": "uint256",
                    "name": "loanId",
                    "type": "uint256"
                }
            ],
            "name": "approveLoan",
            "outputs": [],
            "stateMutability": "payable",
            "type": "function"
        },
        {
            "inputs": [
                {
                    "internalType": "uint256",
                    "name": "loanId",
                    "type": "uint256"
                },
                {
                    "internalType": "uint256",
                    "name": "poolId",
                    "type": "uint256"
                }
            ],
            "name": "approveLoanWithPool",
            "outputs": [],
            "stateMutability": "payable",
            "type": "function"
        },
        {
            "inputs": [
                {
                    "internalType": "uint256",
                    "name": "loanId",
                    "type": "uint256"
                }
            ],
            "name": "cancelLoan",
            "outputs": [],
            "stateMutability": "nonpayable",
            "type": "function"
        },
        {
            "inputs": [
                {
                    "components": [
                        {
                            "internalType": "address",
                            "name": "currency",
                            "type": "address"
                        },
                        {
                            "internalType": "uint256",
                            "name": "installmentTime",
                            "type": "uint256"
                        },
                        {
                            "internalType": "uint256[]",
                            "name": "nftTokenIdArray",
                            "type": "uint256[]"
                        },
                        {
                            "internalType": "uint256",
                            "name": "loanAmount",
                            "type": "uint256"
                        },
                        {
                            "internalType": "uint16",
                            "name": "nrOfInstallments",
                            "type": "uint16"
                        }
                    ],
                    "internalType": "struct HealthFactorCreateLoanMethod.HealthFactorCreateLoanMethodParams",
                    "name": "loan",
                    "type": "tuple"
                }
            ],
            "name": "createLoan",
            "outputs": [],
            "stateMutability": "nonpayable",
            "type": "function"
        },
        {
            "inputs": [],
            "name": "discountsHandler",
            "outputs": [
                {
                    "internalType": "address",
                    "name": "",
                    "type": "address"
                }
            ],
            "stateMutability": "view",
            "type": "function"
        },
        {
            "inputs": [
                {
                    "internalType": "uint256",
                    "name": "loanId",
                    "type": "uint256"
                },
                {
                    "internalType": "uint16",
                    "name": "nrOfInstallments",
                    "type": "uint16"
                },
                {
                    "internalType": "uint256",
                    "name": "installmentTime",
                    "type": "uint256"
                }
            ],
            "name": "editLoan",
            "outputs": [],
            "stateMutability": "nonpayable",
            "type": "function"
        },
        {
            "inputs": [
                {
                    "internalType": "int24",
                    "name": "tick",
                    "type": "int24"
                }
            ],
            "name": "getGasCostOfGetSqrtRatioAtTick",
            "outputs": [
                {
                    "internalType": "uint256",
                    "name": "",
                    "type": "uint256"
                }
            ],
            "stateMutability": "view",
            "type": "function"
        },
        {
            "inputs": [
                {
                    "internalType": "uint160",
                    "name": "sqrtPriceX96",
                    "type": "uint160"
                }
            ],
            "name": "getGasCostOfGetTickAtSqrtRatio",
            "outputs": [
                {
                    "internalType": "uint256",
                    "name": "",
                    "type": "uint256"
                }
            ],
            "stateMutability": "view",
            "type": "function"
        },
        {
            "inputs": [
                {
                    "components": [
                        {
                            "internalType": "address",
                            "name": "currency",
                            "type": "address"
                        },
                        {
                            "internalType": "uint256",
                            "name": "installmentTime",
                            "type": "uint256"
                        },
                        {
                            "internalType": "uint256[]",
                            "name": "nftTokenIdArray",
                            "type": "uint256[]"
                        },
                        {
                            "internalType": "uint256",
                            "name": "loanAmount",
                            "type": "uint256"
                        },
                        {
                            "internalType": "uint16",
                            "name": "nrOfInstallments",
                            "type": "uint16"
                        }
                    ],
                    "internalType": "struct HealthFactorCreateLoanMethod.HealthFactorCreateLoanMethodParams",
                    "name": "loan",
                    "type": "tuple"
                }
            ],
            "name": "getLoanAssetsValue",
            "outputs": [
                {
                    "internalType": "uint256",
                    "name": "",
                    "type": "uint256"
                }
            ],
            "stateMutability": "view",
            "type": "function"
        },
        {
            "inputs": [
                {
                    "internalType": "uint160",
                    "name": "sqrtPriceX96",
                    "type": "uint160"
                }
            ],
            "name": "getTickAtSqrtRatio",
            "outputs": [
                {
                    "internalType": "int24",
                    "name": "",
                    "type": "int24"
                }
            ],
            "stateMutability": "pure",
            "type": "function"
        },
        {
            "inputs": [],
            "name": "id",
            "outputs": [
                {
                    "internalType": "uint256",
                    "name": "",
                    "type": "uint256"
                }
            ],
            "stateMutability": "view",
            "type": "function"
        },
        {
            "inputs": [],
            "name": "iltv",
            "outputs": [
                {
                    "internalType": "uint256",
                    "name": "",
                    "type": "uint256"
                }
            ],
            "stateMutability": "view",
            "type": "function"
        },
        {
            "inputs": [],
            "name": "interestRate",
            "outputs": [
                {
                    "internalType": "uint256",
                    "name": "",
                    "type": "uint256"
                }
            ],
            "stateMutability": "view",
            "type": "function"
        },
        {
            "inputs": [],
            "name": "interestRateToStater",
            "outputs": [
                {
                    "internalType": "uint256",
                    "name": "",
                    "type": "uint256"
                }
            ],
            "stateMutability": "view",
            "type": "function"
        },
        {
            "inputs": [
                {
                    "internalType": "uint256",
                    "name": "loanId",
                    "type": "uint256"
                }
            ],
            "name": "lackOfPayment",
            "outputs": [
                {
                    "internalType": "uint256",
                    "name": "",
                    "type": "uint256"
                }
            ],
            "stateMutability": "view",
            "type": "function"
        },
        {
            "inputs": [],
            "name": "lenderFee",
            "outputs": [
                {
                    "internalType": "uint32",
                    "name": "",
                    "type": "uint32"
                }
            ],
            "stateMutability": "view",
            "type": "function"
        },
        {
            "inputs": [],
            "name": "lendingPool",
            "outputs": [
                {
                    "internalType": "contract ILendingPool",
                    "name": "",
                    "type": "address"
                }
            ],
            "stateMutability": "view",
            "type": "function"
        },
        {
            "inputs": [],
            "name": "liquidationTreshold",
            "outputs": [
                {
                    "internalType": "uint256",
                    "name": "",
                    "type": "uint256"
                }
            ],
            "stateMutability": "view",
            "type": "function"
        },
        {
            "inputs": [
                {
                    "internalType": "uint256",
                    "name": "",
                    "type": "uint256"
                }
            ],
            "name": "loanControlPanels",
            "outputs": [
                {
                    "internalType": "enum LendingCore.Status",
                    "name": "status",
                    "type": "uint8"
                },
                {
                    "internalType": "uint256",
                    "name": "poolId",
                    "type": "uint256"
                },
                {
                    "internalType": "uint8",
                    "name": "defaultingLimit",
                    "type": "uint8"
                },
                {
                    "internalType": "uint256",
                    "name": "installmentAmount",
                    "type": "uint256"
                },
                {
                    "internalType": "uint256",
                    "name": "amountDue",
                    "type": "uint256"
                },
                {
                    "internalType": "uint256",
                    "name": "paidAmount",
                    "type": "uint256"
                },
                {
                    "internalType": "address",
                    "name": "loanHandler",
                    "type": "address"
                },
                {
                    "internalType": "address",
                    "name": "promissoryHandler",
                    "type": "address"
                },
                {
                    "internalType": "address",
                    "name": "discountsHandler",
                    "type": "address"
                },
                {
                    "internalType": "address",
                    "name": "poolHandler",
                    "type": "address"
                }
            ],
            "stateMutability": "view",
            "type": "function"
        },
        {
            "inputs": [
                {
                    "internalType": "uint256",
                    "name": "",
                    "type": "uint256"
                }
            ],
            "name": "loanFeesHandler",
            "outputs": [
                {
                    "internalType": "uint256",
                    "name": "ltv",
                    "type": "uint256"
                },
                {
                    "internalType": "uint256",
                    "name": "interestRate",
                    "type": "uint256"
                },
                {
                    "internalType": "uint256",
                    "name": "interestRateToStater",
                    "type": "uint256"
                },
                {
                    "internalType": "uint32",
                    "name": "lenderFee",
                    "type": "uint32"
                }
            ],
            "stateMutability": "view",
            "type": "function"
        },
        {
            "inputs": [],
            "name": "loanHandler",
            "outputs": [
                {
                    "internalType": "address",
                    "name": "",
                    "type": "address"
                }
            ],
            "stateMutability": "view",
            "type": "function"
        },
        {
            "inputs": [
                {
                    "internalType": "uint256",
                    "name": "",
                    "type": "uint256"
                }
            ],
            "name": "loans",
            "outputs": [
                {
                    "internalType": "address payable",
                    "name": "borrower",
                    "type": "address"
                },
                {
                    "internalType": "address payable",
                    "name": "lender",
                    "type": "address"
                },
                {
                    "internalType": "address",
                    "name": "currency",
                    "type": "address"
                },
                {
                    "internalType": "uint256",
                    "name": "installmentTime",
                    "type": "uint256"
                },
                {
                    "internalType": "uint256",
                    "name": "nrOfPayments",
                    "type": "uint256"
                },
                {
                    "internalType": "uint256",
                    "name": "loanAmount",
                    "type": "uint256"
                },
                {
                    "internalType": "uint256",
                    "name": "assetsValue",
                    "type": "uint256"
                },
                {
                    "internalType": "uint16",
                    "name": "nrOfInstallments",
                    "type": "uint16"
                }
            ],
            "stateMutability": "view",
            "type": "function"
        },
        {
            "inputs": [],
            "name": "ltv",
            "outputs": [
                {
                    "internalType": "uint256",
                    "name": "",
                    "type": "uint256"
                }
            ],
            "stateMutability": "view",
            "type": "function"
        },
        {
            "inputs": [
                {
                    "internalType": "address",
                    "name": "",
                    "type": "address"
                },
                {
                    "internalType": "address",
                    "name": "",
                    "type": "address"
                },
                {
                    "internalType": "uint256[]",
                    "name": "",
                    "type": "uint256[]"
                },
                {
                    "internalType": "uint256[]",
                    "name": "",
                    "type": "uint256[]"
                },
                {
                    "internalType": "bytes",
                    "name": "",
                    "type": "bytes"
                }
            ],
            "name": "onERC1155BatchReceived",
            "outputs": [
                {
                    "internalType": "bytes4",
                    "name": "",
                    "type": "bytes4"
                }
            ],
            "stateMutability": "nonpayable",
            "type": "function"
        },
        {
            "inputs": [
                {
                    "internalType": "address",
                    "name": "",
                    "type": "address"
                },
                {
                    "internalType": "address",
                    "name": "",
                    "type": "address"
                },
                {
                    "internalType": "uint256",
                    "name": "",
                    "type": "uint256"
                },
                {
                    "internalType": "uint256",
                    "name": "",
                    "type": "uint256"
                },
                {
                    "internalType": "bytes",
                    "name": "",
                    "type": "bytes"
                }
            ],
            "name": "onERC1155Received",
            "outputs": [
                {
                    "internalType": "bytes4",
                    "name": "",
                    "type": "bytes4"
                }
            ],
            "stateMutability": "nonpayable",
            "type": "function"
        },
        {
            "inputs": [
                {
                    "internalType": "address",
                    "name": "",
                    "type": "address"
                },
                {
                    "internalType": "address",
                    "name": "",
                    "type": "address"
                },
                {
                    "internalType": "uint256",
                    "name": "",
                    "type": "uint256"
                },
                {
                    "internalType": "bytes",
                    "name": "",
                    "type": "bytes"
                }
            ],
            "name": "onERC721Received",
            "outputs": [
                {
                    "internalType": "bytes4",
                    "name": "",
                    "type": "bytes4"
                }
            ],
            "stateMutability": "nonpayable",
            "type": "function"
        },
        {
            "inputs": [],
            "name": "owner",
            "outputs": [
                {
                    "internalType": "address",
                    "name": "",
                    "type": "address"
                }
            ],
            "stateMutability": "view",
            "type": "function"
        },
        {
            "inputs": [
                {
                    "internalType": "uint256",
                    "name": "loanId",
                    "type": "uint256"
                },
                {
                    "internalType": "uint256",
                    "name": "amount",
                    "type": "uint256"
                }
            ],
            "name": "payLoan",
            "outputs": [],
            "stateMutability": "payable",
            "type": "function"
        },
        {
            "inputs": [],
            "name": "renounceOwnership",
            "outputs": [],
            "stateMutability": "nonpayable",
            "type": "function"
        },
        {
            "inputs": [
                {
                    "internalType": "address[]",
                    "name": "_whitelistedCurrencies",
                    "type": "address[]"
                },
                {
                    "internalType": "bool[]",
                    "name": "_status",
                    "type": "bool[]"
                }
            ],
            "name": "setGlobalRouteVariables",
            "outputs": [],
            "stateMutability": "nonpayable",
            "type": "function"
        },
        {
            "inputs": [
                {
                    "internalType": "bytes4",
                    "name": "interfaceId",
                    "type": "bytes4"
                }
            ],
            "name": "supportsInterface",
            "outputs": [
                {
                    "internalType": "bool",
                    "name": "",
                    "type": "bool"
                }
            ],
            "stateMutability": "view",
            "type": "function"
        },
        {
            "inputs": [
                {
                    "internalType": "uint256",
                    "name": "loanId",
                    "type": "uint256"
                }
            ],
            "name": "terminateLoan",
            "outputs": [],
            "stateMutability": "nonpayable",
            "type": "function"
        },
        {
            "inputs": [
                {
                    "internalType": "address",
                    "name": "from",
                    "type": "address"
                },
                {
                    "internalType": "address",
                    "name": "to",
                    "type": "address"
                },
                {
                    "internalType": "address[]",
                    "name": "nftAddressArray",
                    "type": "address[]"
                },
                {
                    "internalType": "uint256[]",
                    "name": "nftTokenIdArray",
                    "type": "uint256[]"
                },
                {
                    "internalType": "uint8[]",
                    "name": "nftTokenTypeArray",
                    "type": "uint8[]"
                }
            ],
            "name": "transferItems",
            "outputs": [],
            "stateMutability": "nonpayable",
            "type": "function"
        },
        {
            "inputs": [
                {
                    "internalType": "address",
                    "name": "newOwner",
                    "type": "address"
                }
            ],
            "name": "transferOwnership",
            "outputs": [],
            "stateMutability": "nonpayable",
            "type": "function"
        },
        {
            "inputs": [
                {
                    "internalType": "address",
                    "name": "from",
                    "type": "address"
                },
                {
                    "internalType": "address payable",
                    "name": "to",
                    "type": "address"
                },
                {
                    "internalType": "address",
                    "name": "currency",
                    "type": "address"
                },
                {
                    "internalType": "uint256",
                    "name": "qty1",
                    "type": "uint256"
                },
                {
                    "internalType": "uint256",
                    "name": "qty2",
                    "type": "uint256"
                }
            ],
            "name": "transferTokens",
            "outputs": [],
            "stateMutability": "nonpayable",
            "type": "function"
        },
        {
            "inputs": [],
            "name": "uniswapV3NftAddress",
            "outputs": [
                {
                    "internalType": "address",
                    "name": "",
                    "type": "address"
                }
            ],
            "stateMutability": "view",
            "type": "function"
        },
        {
            "inputs": [
                {
                    "internalType": "address",
                    "name": "",
                    "type": "address"
                }
            ],
            "name": "whitelistedCurrencies",
            "outputs": [
                {
                    "internalType": "bool",
                    "name": "",
                    "type": "bool"
                }
            ],
            "stateMutability": "view",
            "type": "function"
        }
    ],
    "bytecode": "608060405260018055603c600755603260085560146009556028600a55600b805463ffffffff19166064179055670429d069189e0000600c553480156200004557600080fd5b50604051620050ac380380620050ac8339810160408190526200006891620002cc565b62000073336200025f565b6001600160a01b038416620000de5760405162461bcd60e51b815260206004820152602660248201527f412076616c696420756e697377617020763320616464726573732069732072656044820152651c5d5a5c995960d21b60648201526084015b60405180910390fd5b6001600160a01b0383166200014e5760405162461bcd60e51b815260206004820152602f60248201527f412076616c6964207072696365206f7261636c6520676574746572206164647260448201526e195cdcc81a5cc81c995c5d5a5c9959608a1b6064820152608401620000d5565b6001600160a01b038216620001b75760405162461bcd60e51b815260206004820152602860248201527f412076616c6964206c656e64696e6720706f6f6c2061646472657373206973206044820152671c995c5d5a5c995960c21b6064820152608401620000d5565b600d80546001600160a01b038087166001600160a01b031992831617909255600f80549285169290911691909117905560005b815181101562000254576001600e60008484815181106200020f576200020f62000408565b6020908102919091018101516001600160a01b03168252810191909152604001600020805460ff19169115159190911790556200024c81620003de565b9050620001ea565b505050505062000434565b600080546001600160a01b038381166001600160a01b0319831681178455604051919092169283917f8be0079c531659141344cd1fd0a4f28419497f9722a3daafe3b4186f6b6457e09190a35050565b80516001600160a01b0381168114620002c757600080fd5b919050565b60008060008060808587031215620002e357600080fd5b620002ee85620002af565b93506020620002ff818701620002af565b93506200030f60408701620002af565b60608701519093506001600160401b03808211156200032d57600080fd5b818801915088601f8301126200034257600080fd5b8151818111156200035757620003576200041e565b8060051b604051601f19603f830116810181811085821117156200037f576200037f6200041e565b604052828152858101935084860182860187018d10156200039f57600080fd5b600095505b83861015620003cd57620003b881620002af565b855260019590950194938601938601620003a4565b50989b979a50959850505050505050565b60006000198214156200040157634e487b7160e01b600052601160045260246000fd5b5060010190565b634e487b7160e01b600052603260045260246000fd5b634e487b7160e01b600052604160045260246000fd5b614c6880620004446000396000f3fe6080604052600436106102305760003560e01c80638395f0831161012e578063b2b71a00116100ab578063eb94d6f91161006f578063eb94d6f914610816578063ee8847ff14610836578063f23a6e611461084e578063f2fde38b1461087a578063fba9f06a1461089a57600080fd5b8063b2b71a00146106c5578063bc197c81146106e5578063bdbfa3de14610711578063d442ce0914610731578063e1ec3c681461075157600080fd5b8063a59a9973116100f2578063a59a99731461063c578063a7398eb41461065c578063aadc1ac11461067c578063af640d0f1461068f578063b0622f67146106a557600080fd5b80638395f0831461055557806389306e61146105c35780638ca83f07146105d65780638da5cb5b146106085780638f8292751461062657600080fd5b806344ff78c7116101bc5780636d2cc304116101805780636d2cc304146104b95780636fb49d73146104f4578063715018a61461050a5780637c3a00fd1461051f5780637fb9fe3d1461053557600080fd5b806344ff78c71461041d5780634f2336611461043d5780634f76c0581461045d578063537d2a2b1461049057806367a00c55146104a657600080fd5b80632d990756116102035780632d990756146102fe5780632e3f4a5d14610397578063407299d7146103b7578063436cc138146103d75780634455aa7d1461040757600080fd5b806301ffc9a714610235578063150b7a021461026a5780631cdee2f3146102ae57806327927299146102dc575b600080fd5b34801561024157600080fd5b50610255610250366004613f24565b6108ba565b60405190151581526020015b60405180910390f35b34801561027657600080fd5b50610295610285366004613d67565b630a85bd0160e11b949350505050565b6040516001600160e01b03199091168152602001610261565b3480156102ba57600080fd5b506102ce6102c9366004613f6b565b6108f1565b604051908152602001610261565b3480156102e857600080fd5b506102fc6102f7366004614042565b610a9f565b005b34801561030a57600080fd5b50610381610319366004614010565b600360205260009081526040902080546001820154600283015460058401546006850154600786015460088701546009880154600a890154600b9099015460ff988916999798909616969495939492936001600160a01b03928316939183169291821691168a565b6040516102619a99989796959493929190614862565b3480156103a357600080fd5b506102fc6103b2366004613b45565b610c50565b3480156103c357600080fd5b506102fc6103d2366004613ba0565b610f40565b3480156103e357600080fd5b506102556103f2366004613b28565b600e6020526000908152604090205460ff1681565b34801561041357600080fd5b506102ce60085481565b34801561042957600080fd5b506102ce610438366004614010565b611172565b34801561044957600080fd5b506102fc610458366004613f6b565b6114bd565b34801561046957600080fd5b5061047d610478366004613b28565b611da0565b60405160029190910b8152602001610261565b34801561049c57600080fd5b506102ce600c5481565b6102fc6104b4366004614077565b611dab565b3480156104c557600080fd5b5073fffd8963efd1fc6a506488495d951d5263988d265b6040516001600160a01b039091168152602001610261565b34801561050057600080fd5b506102ce60075481565b34801561051657600080fd5b506102fc611e96565b34801561052b57600080fd5b506102ce60095481565b34801561054157600080fd5b506102fc610550366004614010565b611ecc565b34801561056157600080fd5b5061059d610570366004614010565b60046020526000908152604090208054600182015460028301546003909301549192909163ffffffff1684565b6040805194855260208501939093529183015263ffffffff166060820152608001610261565b6102fc6105d1366004614077565b612476565b3480156105e257600080fd5b50600b546105f39063ffffffff1681565b60405163ffffffff9091168152602001610261565b34801561061457600080fd5b506000546001600160a01b03166104dc565b34801561063257600080fd5b506102ce600a5481565b34801561064857600080fd5b50600f546104dc906001600160a01b031681565b34801561066857600080fd5b506102ce610677366004613f4e565b6127a3565b6102fc61068a366004614010565b6127c5565b34801561069b57600080fd5b506102ce60015481565b3480156106b157600080fd5b506102ce6106c0366004613b28565b6128c8565b3480156106d157600080fd5b506005546104dc906001600160a01b031681565b3480156106f157600080fd5b50610295610700366004613cb9565b63bc197c8160e01b95945050505050565b34801561071d57600080fd5b506102fc61072c366004614010565b6128d7565b34801561073d57600080fd5b506006546104dc906001600160a01b031681565b34801561075d57600080fd5b506107c761076c366004614010565b6002602081905260009182526040909120600181015491810154600382015460058301546006840154600785015460088601546009909601546001600160a01b039788169795861696959094169492939192909161ffff1688565b604080516001600160a01b03998a168152978916602089015295909716948601949094526060850192909252608084015260a083015260c082015261ffff90911660e082015261010001610261565b34801561082257600080fd5b50600d546104dc906001600160a01b031681565b34801561084257600080fd5b506401000276a36104dc565b34801561085a57600080fd5b50610295610869366004613dd3565b63f23a6e6160e01b95945050505050565b34801561088657600080fd5b506102fc610895366004613b28565b612ace565b3480156108a657600080fd5b506102fc6108b5366004613e3c565b612b66565b60006001600160e01b03198216630271189760e51b14806108eb57506301ffc9a760e01b6001600160e01b03198316145b92915050565b60008060005b836040015151811015610a9857600d546040850151805160009283926001600160a01b03909116916399fbab8891908690811061093657610936614bd4565b60200260200101516040518263ffffffff1660e01b815260040161095c91815260200190565b6101806040518083038186803b15801561097557600080fd5b505afa158015610989573d6000803e3d6000fd5b505050506040513d601f19601f820116820180604052508101906109ad9190614099565b5050506001600160a01b0387166000908152600e6020526040902054969a509498505060ff90941695505084159350610a029250505057506001600160a01b0381166000908152600e602052604090205460ff165b610a535760405162461bcd60e51b815260206004820152601b60248201527f50616972206f6620746f6b656e73206e6f74206163636570746564000000000060448201526064015b60405180910390fd5b610a7986604001518481518110610a6c57610a6c614bd4565b6020026020010151612c50565b610a8390856149f2565b9350505080610a9190614b40565b90506108f7565b5092915050565b60008261ffff1611610ab057600080fd5b6000838152600260205260409020600101546001600160a01b03163314610ad657600080fd5b600160008481526003602052604090205460ff166004811115610afb57610afb614bbe565b10610b0557600080fd5b600083815260026020526040902060058101829055600901805461ffff191661ffff8416908117909155600310610b57576000838152600360205260409020600201805460ff19166001179055610bb2565b60058261ffff1611610b865760008381526003602052604090206002908101805460ff19169091179055610bb2565b60068261ffff1610610bb2576000838152600360208190526040909120600201805460ff191690911790555b600083815260026020818152604080842060038082015460078301549185529583902060068101546005909101549585526008909201548351918252938101919091529081019290925260608201526080810183905261ffff841660a082015284916001600160a01b0316907f8e1902f1b79a83752dd0c0b34c25d3d3b241fba59defc28b8fb8e182360136d19060c00160405180910390a3505050565b6001600160a01b03831615610e49576040516323b872dd60e01b81526001600160a01b0386811660048301528581166024830152604482018490528416906323b872dd90606401602060405180830381600087803b158015610cb157600080fd5b505af1158015610cc5573d6000803e3d6000fd5b505050506040513d601f19601f82011682018060405250810190610ce99190613f07565b610d435760405162461bcd60e51b815260206004820152602560248201527f5472616e73666572206f6620746f6b656e7320746f2072656365697665722066604482015264185a5b195960da1b6064820152608401610a4a565b826001600160a01b03166323b872dd86610d656000546001600160a01b031690565b6040516001600160e01b031960e085901b1681526001600160a01b0392831660048201529116602482015260448101849052606401602060405180830381600087803b158015610db457600080fd5b505af1158015610dc8573d6000803e3d6000fd5b505050506040513d601f19601f82011682018060405250810190610dec9190613f07565b610e445760405162461bcd60e51b815260206004820152602360248201527f5472616e73666572206f6620746f6b656e7320746f20537461746572206661696044820152621b195960ea1b6064820152608401610a4a565b610f39565b6040516001600160a01b0385169083156108fc029084906000818181858888f19350505050610ec55760405162461bcd60e51b815260206004820152602260248201527f5472616e73666572206f662045544820746f207265636569766572206661696c604482015261195960f21b6064820152608401610a4a565b600080546040516001600160a01b039091169183156108fc02918491818181858888f19350505050610f395760405162461bcd60e51b815260206004820181905260248201527f5472616e73666572206f662045544820746f20537461746572206661696c65646044820152606401610a4a565b5050505050565b8251825181148015610f525750808251145b610f9e5760405162461bcd60e51b815260206004820181905260248201527f546f6b656e20696e666f732070726f76696465642061726520696e76616c69646044820152606401610a4a565b60005b8181101561116957828181518110610fbb57610fbb614bd4565b602002602001015160ff166000141561108157848181518110610fe057610fe0614bd4565b60200260200101516001600160a01b03166342842e0e888887858151811061100a5761100a614bd4565b60209081029190910101516040516001600160e01b031960e086901b1681526001600160a01b0393841660048201529290911660248301526044820152606401600060405180830381600087803b15801561106457600080fd5b505af1158015611078573d6000803e3d6000fd5b50505050611159565b84818151811061109357611093614bd4565b60200260200101516001600160a01b031663f242432a88888785815181106110bd576110bd614bd4565b602002602001015160016040518563ffffffff1660e01b815260040161112694939291906001600160a01b0394851681529290931660208301526040820152606081019190915260a060808201819052600490820152630307830360e41b60c082015260e00190565b600060405180830381600087803b15801561114057600080fd5b505af1158015611154573d6000803e3d6000fd5b505050505b61116281614b40565b9050610fa1565b50505050505050565b60008181526003602052604080822081516101608101909252805483929190829060ff1660048111156111a7576111a7614bbe565b60048111156111b8576111b8614bbe565b81526001820154602082015260028083015460ff1660408084019190915280518082019182905260609093019291600385019182845b8154815260200190600101908083116111ee575050509183525050600582015460208083019190915260068301546040808401919091526007840154606084015260088401546001600160a01b0390811660808501526009850154811660a0850152600a850154811660c0850152600b9094015490931660e0909201919091526000868152600282528281208351815461018094810282018501909552610160810185815295965091949193909284929184918401828280156112da57602002820191906000526020600020905b81546001600160a01b031681526001909101906020018083116112bc575b505050918352505060018201546001600160a01b039081166020808401919091526002840154821660408085019190915260038501549092166060840152600484018054835181840281018401909452808452608090940193909183018282801561136457602002820191906000526020600020905b815481526020019060010190808311611350575b50505050508152602001600582015481526020016006820154815260200160078201548152602001600882015481526020016009820160009054906101000a900461ffff1661ffff1661ffff168152602001600a820180548060200260200160405190810160405280929190818152602001828054801561142257602002820191906000526020600020906000905b825461010083900a900460ff168152602060019283018181049485019490930390920291018084116113f35790505b50505050508152505090508160a001518260c001511061144157600080fd5b6000805b8260800151518110156114a3578360a00151600c5461147385608001518481518110610a6c57610a6c614bd4565b61147d9190614aa3565b6114879190614a0a565b61149190836149f2565b915061149c81614b40565b9050611445565b506080820151516114b49082614a0a565b95945050505050565b6000816080015161ffff16116115235760405162461bcd60e51b815260206004820152602560248201527f4c6f616e206d7573742068617665206174206c65617374203120696e7374616c6044820152641b1b595b9d60da1b6064820152608401610a4a565b6000816040015151116115785760405162461bcd60e51b815260206004820152601d60248201527f4c6f616e206d7573742068617665206174206c656173742031204e46540000006044820152606401610a4a565b60005b8160400151518110156117e257600d546040830151805160009283926001600160a01b03909116916399fbab889190869081106115ba576115ba614bd4565b60200260200101516040518263ffffffff1660e01b81526004016115e091815260200190565b6101806040518083038186803b1580156115f957600080fd5b505afa15801561160d573d6000803e3d6000fd5b505050506040513d601f19601f820116820180604052508101906116319190614099565b5050506001600160a01b0387166000908152600e6020526040902054969a509498505060ff909416955050841593506116869250505057506001600160a01b0381166000908152600e602052604090205460ff165b6116d25760405162461bcd60e51b815260206004820152601b60248201527f50616972206f6620746f6b656e73206e6f7420616363657074656400000000006044820152606401610a4a565b6116eb84604001518481518110610a6c57610a6c614bd4565b6001546000908152600260205260408120600801805490919061170f9084906149f2565b9091555050600180546000908152600260209081526040808320600d548154808701835591855283852090910180546001600160a01b039092166001600160a01b031990921691909117905583548352808320600a01805480860182559084528284209281049092018054601f9093166101000a60ff021990921690915591548152819020908501518051600490920191859081106117b0576117b0614bd4565b60209081029190910181015182546001810184556000938452919092200155506117db905081614b40565b905061157b565b5060075460015460009081526002602052604090206008015461180790606490614a0a565b6118119190614aa3565b816060015111156118645760405162461bcd60e51b815260206004820152601960248201527f546865204c5456206d75737420626520756e64657220363025000000000000006044820152606401610a4a565b6003816080015161ffff161161189957600180546000908152600360205260409020600201805460ff19169091179055611902565b6005816080015161ffff16116118cf5760015460009081526003602052604090206002908101805460ff19169091179055611902565b6006816080015161ffff1610611902576001546000908152600360208190526040909120600201805460ff191690911790555b80604001516002600060015481526020019081526020016000206004019080519060200190611932929190613926565b50606081015160018054600090815260026020908152604080832060070194909455825482526004905291909120015460649061196f90826149f2565b60015460009081526002602052604090206007015461198e9190614aa3565b6119989190614a0a565b6001805460009081526003602081815260408084206006908101969096556080870180518654865260028452828620600901805461ffff191661ffff9283161790559051955485529290915282209093015490926119f7921690614b5b565b11611a29576080810151600154600090815260036020526040902060060154611a249161ffff1690614a0a565b611a5c565b6080810151600154600090815260036020526040902060060154611a519161ffff1690614a0a565b611a5c9060016149f2565b60018054600090815260036020908152604080832060059081019590955583548352808320805460ff1916905584548454845281842060080180546001600160a01b039283166001600160a01b03199182161790915560065486548652838620600a0180549190931690821617909155845484526002835281842085018054339216821790558454845281842062093a8096019590955592548252908290208054835181840281018401909452808452611c469493309390929190830182828015611b5057602002820191906000526020600020905b81546001600160a01b03168152600190910190602001808311611b32575b5050505050600260006001548152602001908152602001600020600401805480602002602001604051908101604052809291908181526020018280548015611bb757602002820191906000526020600020905b815481526020019060010190808311611ba3575b5050505050600260006001548152602001908152602001600020600a01805480602002602001604051908101604052809291908181526020018280548015611c3c57602002820191906000526020600020906000905b825461010083900a900460ff16815260206001928301818104948501949093039092029101808411611c0d5790505b5050505050610f40565b600154600d546000828152600260205260409081902090516001600160a01b039092169133917f06b4fa68493c57d0a3bcfe8fd7db7297b3f4ed7c3f730fd563791eaafa27439d91611ca291906004820190600a8301906147be565b60405180910390a4600160008154611cb990614b40565b9091555060088054600154600090815260026020526040902090910154611ce290606490614a0a565b611cec9190614aa3565b60015460009081526002602052604090206007015411611d9d57600f5460015460009081526002602081905260408083206003810154600790910154915163220f144160e11b81526001600160a01b0391821660048201526024810192909252604482019290925260648101929092523360848301529091169063441e28829060a401600060405180830381600087803b158015611d8957600080fd5b505af1158015610f39573d6000803e3d6000fd5b50565b60006108eb82612c5d565b611db482612f97565b6000828152600260205260409020600301546001600160a01b0316611e2c57600082815260046020908152604080832060030154600290925290912060070154611e049163ffffffff1690614a0a565b600083815260026020526040902060070154611e2091906149f2565b341015611e2c57600080fd5b600082815260036020818152604080842060019081018690556002808452828620918201548286015460079093015460048652939096209094015493909252611e929333936001600160a01b039182169390911691906103b29063ffffffff1682614a0a565b5050565b6000546001600160a01b03163314611ec05760405162461bcd60e51b8152600401610a4a906148ca565b611eca60006130c9565b565b6000818152600260205260409020600101546001600160a01b0316331480611f0e5750600081815260026020819052604090912001546001600160a01b031633145b611f1757600080fd5b60008181526003602052604090206004015442101580611f4e57506000818152600360205260409020600681015460079091015410155b8015611f6257506003611f6082611172565b115b611f6b57600080fd5b600260008281526003602052604090205460ff166004811115611f9057611f90614bbe565b1480611fbe5750600160008281526003602052604090205460ff166004811115611fbc57611fbc614bbe565b145b611fc757600080fd5b6003611fd282611172565b1015612132576000818152600360209081526040808320805460ff1916600490811782554291015560028083529281902092830154835482518185028101850190935280835261212d9430946001600160a01b03909316939290919083018282801561206757602002820191906000526020600020905b81546001600160a01b03168152600190910190602001808311612049575b505050600087815260026020908152604091829020600401805483518184028101840190945280845292945092508301828280156120c457602002820191906000526020600020905b8154815260200190600101908083116120b0575b505050600088815260026020908152604091829020600a0180548351818402810184019094528084529294509250830182828015611c3c576000918252602091829020805460ff168452908202830192909160019101808411611c0d5790505050505050610f40565b612423565b6000818152600360205260409020600401544210801590612169575060008181526003602052604090206006810154600790910154105b156122b9576000818152600360209081526040808320805460ff1916600417905560028083529281902092830154835482518185028101850190935280835261212d9430946001600160a01b039093169392909190830182828015612067576020028201919060005260206000209081546001600160a01b0316815260019091019060200180831161204957505050600087815260026020908152604091829020600401805483518184028101840190945280845292945092508301828280156120c457602002820191906000526020600020908154815260200190600101908083116120b057505050600088815260026020908152604091829020600a0180548351818402810184019094528084529294509250830182828015611c3c576000918252602091829020805460ff168452908202830192909160019101808411611c0d5790505050505050610f40565b6000818152600360205260409020600681015460079091015410612423576000818152600360209081526040808320805460ff191660041790556002825291829020600181015481548451818502810185019095528085526124239430946001600160a01b03909316939092909190830182828015612067576020028201919060005260206000209081546001600160a01b0316815260019091019060200180831161204957505050600087815260026020908152604091829020600401805483518184028101840190945280845292945092508301828280156120c457602002820191906000526020600020908154815260200190600101908083116120b057505050600088815260026020908152604091829020600a0180548351818402810184019094528084529294509250830182828015611c3c576000918252602091829020805460ff168452908202830192909160019101808411611c0d5790505050505050610f40565b60008181526003602052604090819020549051829133917f174efca9557ce00d5a6f26355f73e3873fed7d6f8248757750569e4699146c679161246b9160ff90911690614854565b60405180910390a350565b6000828152600260205260409020600101546001600160a01b0316331461249c57600080fd5b600160008381526003602052604090205460ff1660048111156124c1576124c1614bbe565b146124cb57600080fd5b6000828152600360205260409020600401544211156124e957600080fd5b60003411801561251157506000828152600260205260409020600301546001600160a01b0316155b801561251c57508034145b8061255557506000828152600260205260409020600301546001600160a01b031615801590612549575034155b80156125555750600081115b61255e57600080fd5b600080341161256d578161256f565b345b60008481526004602052604081206001015491925082916064906125939084614aa3565b61259d9190614a0a565b905060006125ab8633613119565b600087815260046020526040812060020154919250906064906125ce9085614aa3565b6125d89190614a0a565b90508160011461265d576000878152600260205260409020600301546001600160a01b031661264657336108fc61260f8484614a0a565b6040518115909202916000818181858888f1935050505061262f57600080fd5b6126398282614a0a565b6126439085614b29565b93505b6126508282614a0a565b61265a9082614b29565b90505b6126678185614b29565b6000888152600360205260409020600701549094506126879086906149f2565b60008881526003602052604090206007810191909155600501546126ab9086614a0a565b6000888152600260205260409020600601546126c791906149f2565b6000888152600260209081526040808320600690810194909455600390915290209081015460079091015410612711576000878152600360205260409020805460ff191660021790555b6000878152600260208190526040909120908101546003909101546127469133916001600160a01b0391821691168785610c50565b6000878152600360205260409081902054905188917fb5c84f6603b8d7669dbbe31fd93a237657c42054c0b237b7d4215fa463523b5b9161279291349189918991889160ff16906148ff565b60405180910390a250505050505050565b6000805a90506127b2836131a5565b505a6127be9082614b29565b9392505050565b6127ce81612f97565b60006127da8233613119565b6000838152600260205260409020600301549091506001600160a01b03166128635760008281526004602090815260408083206003015460029092529091206007015482916128319163ffffffff90911690614a0a565b61283b9190614a0a565b60008381526002602052604090206007015461285791906149f2565b34101561286357600080fd5b6000828152600260208181526040808420600181015460038083015460079093015460048652939096209095015493909252611e929333936001600160a01b0391821693909116919086906128be9063ffffffff1683614a0a565b6103b29190614a0a565b6000805a90506127b283612c5d565b600081815260026020819052604090912001546001600160a01b0316156128fd57600080fd5b6000818152600260205260409020600101546001600160a01b0316331461292357600080fd5b60008181526003602052604081205460ff16600481111561294657612946614bbe565b1461295057600080fd5b6000818152600360208181526040808420426004820155805460ff1916909317909255600281529181902060018101548154835181860281018601909452808452612aa09430946001600160a01b03909316939190830182828015612067576020028201919060005260206000209081546001600160a01b0316815260019091019060200180831161204957505050600087815260026020908152604091829020600401805483518184028101840190945280845292945092508301828280156120c457602002820191906000526020600020908154815260200190600101908083116120b057505050600088815260026020908152604091829020600a0180548351818402810184019094528084529294509250830182828015611c3c576000918252602091829020805460ff168452908202830192909160019101808411611c0d5790505050505050610f40565b60405181907fb71becc91961a6b43bcc5b3b630f3dce02c7fd444cf3738c4f188062b1caf5bc90600090a250565b6000546001600160a01b03163314612af85760405162461bcd60e51b8152600401610a4a906148ca565b6001600160a01b038116612b5d5760405162461bcd60e51b815260206004820152602660248201527f4f776e61626c653a206e6577206f776e657220697320746865207a65726f206160448201526564647265737360d01b6064820152608401610a4a565b611d9d816130c9565b6000546001600160a01b03163314612b905760405162461bcd60e51b8152600401610a4a906148ca565b8151815114612bcd5760405162461bcd60e51b8152602060048201526009602482015268109859081a5b9c1d5d60ba1b6044820152606401610a4a565b60005b8251811015612c4b57818181518110612beb57612beb614bd4565b6020026020010151600e6000858481518110612c0957612c09614bd4565b6020908102919091018101516001600160a01b03168252810191909152604001600020805460ff1916911515919091179055612c4481614b40565b9050612bd0565b505050565b60006108eb8260006135fc565b60006401000276a36001600160a01b03831610801590612c99575073fffd8963efd1fc6a506488495d951d5263988d266001600160a01b038316105b612cc95760405162461bcd60e51b81526020600482015260016024820152602960f91b6044820152606401610a4a565b640100000000600160c01b03602083901b166001600160801b03811160071b81811c67ffffffffffffffff811160061b90811c63ffffffff811160051b90811c61ffff811160041b90811c60ff8111600390811b91821c600f811160021b90811c918211600190811b92831c97908811961790941790921717909117171760808110612d6457612d5a607f82614b29565b83901c9150612d75565b612d6f81607f614b29565b83901b91505b60006040612d84608084614ac2565b901b9050828302607f1c92508260801c80603f1b8217915083811c935050828302607f1c92508260801c80603e1b8217915083811c935050828302607f1c92508260801c80603d1b8217915083811c935050828302607f1c92508260801c80603c1b8217915083811c935050828302607f1c92508260801c80603b1b8217915083811c935050828302607f1c92508260801c80603a1b8217915083811c935050828302607f1c92508260801c8060391b8217915083811c935050828302607f1c92508260801c8060381b8217915083811c935050828302607f1c92508260801c8060371b8217915083811c935050828302607f1c92508260801c8060361b8217915083811c935050828302607f1c92508260801c8060351b8217915083811c935050828302607f1c92508260801c8060341b8217915083811c935050828302607f1c92508260801c8060331b8217915083811c935050828302607f1c92508260801c8060321b8217915050600081693627a301d71055774c85612f079190614a1e565b905060006080612f276f028f6481ab7f045a5af012a19d003aaa84614ac2565b901d905060006080612f49846fdb2df09e81959a81455e260799a0632f6149b1565b901d90508060020b8260020b14612f8857886001600160a01b0316612f6d826131a5565b6001600160a01b03161115612f825781612f8a565b80612f8a565b815b9998505050505050505050565b600081815260026020819052604090912001546001600160a01b031615612fbd57600080fd5b60008181526003602052604090206007015415612fd957600080fd5b60008181526003602052604081205460ff166004811115612ffc57612ffc614bbe565b1461300657600080fd5b600081815260026020819052604090912090810180546001600160a01b0319163317905560098101546005909101546130439161ffff1690614a0a565b600082815260026020526040902060090154613063919061ffff16614aa3565b61306d90426149f2565b60008281526003602081815260409283902060048101859055805460ff19166001178155429201919091559051918252829133917f1a8ecea83cbcff0f4c46b7e42f55227161863220eb7d439fde442dfdc0ddbc4e910161246b565b600080546001600160a01b038381166001600160a01b0319831681178455604051919092169283917f8be0079c531659141344cd1fd0a4f28419497f9722a3daafe3b4186f6b6457e09190a35050565b600082815260036020526040808220600a0154905163ad6a874560e01b81526001600160a01b0384811660048301529091169063ad6a87459060240160206040518083038186803b15801561316d57600080fd5b505afa158015613181573d6000803e3d6000fd5b505050506040513d601f19601f820116820180604052508101906127be9190614029565b60008060008360020b126131b957826131c2565b6131c283614b6f565b90506131d1620d89e719614b6f565b60020b8160020b131561320a5760405162461bcd60e51b81526020600482015260016024820152601560fa1b6044820152606401610a4a565b60006001821660020b61322157600160801b613233565b6ffffcb933bd6fad37aa2d162d1a5940015b70ffffffffffffffffffffffffffffffffff1690508160021660020b600014613277576080613272826ffff97272373d413259a46990580e213a614aa3565b901c90505b6004821660020b156132a457608061329f826ffff2e50f5f656932ef12357cf3c7fdcc614aa3565b901c90505b6008821660020b156132d15760806132cc826fffe5caca7e10e4e61c3624eaa0941cd0614aa3565b901c90505b6010821660020b156132fe5760806132f9826fffcb9843d60f6159c9db58835c926644614aa3565b901c90505b6020821660020b1561332b576080613326826fff973b41fa98c081472e6896dfb254c0614aa3565b901c90505b6040821660020b15613358576080613353826fff2ea16466c96a3843ec78b326b52861614aa3565b901c90505b6080821660020b15613385576080613380826ffe5dee046a99a2a811c461f1969c3053614aa3565b901c90505b610100821660020b156133b35760806133ae826ffcbe86c7900a88aedcffc83b479aa3a4614aa3565b901c90505b610200821660020b156133e15760806133dc826ff987a7253ac413176f2b074cf7815e54614aa3565b901c90505b610400821660020b1561340f57608061340a826ff3392b0822b70005940c7a398e4b70f3614aa3565b901c90505b610800821660020b1561343d576080613438826fe7159475a2c29b7443b29c7fa6e889d9614aa3565b901c90505b611000821660020b1561346b576080613466826fd097f3bdfd2022b8845ad8f792aa5825614aa3565b901c90505b612000821660020b15613499576080613494826fa9f746462d870fdf8a65dc1f90e061e5614aa3565b901c90505b614000821660020b156134c75760806134c2826f70d869a156d2a1b890bb3df62baf32f7614aa3565b901c90505b618000821660020b156134f55760806134f0826f31be135f97d08fd981231505542fcfa6614aa3565b901c90505b62010000821660020b1561352457608061351f826f09aa508b5b7a84e1c677de54f3e99bc9614aa3565b901c90505b62020000821660020b1561355257608061354d826e5d6af8dedb81196699c329225ee604614aa3565b901c90505b62040000821660020b1561357f57608061357a826d2216e584f5fa1ea926041bedfe98614aa3565b901c90505b62080000821660020b156135aa5760806135a5826b048a170391f7dc42444e8fa2614aa3565b901c90505b60008460020b13156135c5576135c281600019614a0a565b90505b6135d464010000000082614b5b565b156135e05760016135e3565b60005b6135f49060ff16602083901c6149f2565b949350505050565b600d5460405163133f757160e31b8152600481018490526000918291829182916001600160a01b03909116906399fbab88906024016101806040518083038186803b15801561364a57600080fd5b505afa15801561365e573d6000803e3d6000fd5b505050506040513d601f19601f820116820180604052508101906136829190614099565b505050509750975097505050505050600061369c846136e9565b905060006136a9846136e9565b9050866136c9576136c46001600160a01b03831682856136f4565b6136dd565b6136dd6001600160a01b0382168385613767565b98975050505050505050565b60006108eb826131a5565b6000826001600160a01b0316846001600160a01b03161115613714579192915b6001600160a01b03841661375d6fffffffffffffffffffffffffffffffff60601b606085901b166137458787614b01565b6001600160a01b0316866001600160a01b03166137ad565b6135f49190614a0a565b6000826001600160a01b0316846001600160a01b03161115613787579192915b6135f46001600160801b03831661379e8686614b01565b6001600160a01b0316600160601b5b6000808060001985870985870292508281108382030391505080600014156137e757600084116137dc57600080fd5b5082900490506127be565b8084116137f357600080fd5b6000848688098084039381119092039190506000858061381660001960016149f2565b6138209190614b29565b169586900495938490049360008190030460010190506138408184614aa3565b909317926000613851876003614aa3565b60021890506138608188614aa3565b61386b906002614b29565b6138759082614aa3565b90506138818188614aa3565b61388c906002614b29565b6138969082614aa3565b90506138a28188614aa3565b6138ad906002614b29565b6138b79082614aa3565b90506138c38188614aa3565b6138ce906002614b29565b6138d89082614aa3565b90506138e48188614aa3565b6138ef906002614b29565b6138f99082614aa3565b90506139058188614aa3565b613910906002614b29565b61391a9082614aa3565b9050612f8a8186614aa3565b828054828255906000526020600020908101928215613961579160200282015b82811115613961578251825591602001919060010190613946565b5061396d929150613971565b5090565b5b8082111561396d5760008155600101613972565b805161399181614c00565b919050565b600082601f8301126139a757600080fd5b813560206139bc6139b78361498d565b61495c565b80838252828201915082860187848660051b89010111156139dc57600080fd5b60005b85811015613a045781356139f281614c00565b845292840192908401906001016139df565b5090979650505050505050565b600082601f830112613a2257600080fd5b81356020613a326139b78361498d565b80838252828201915082860187848660051b8901011115613a5257600080fd5b60005b85811015613a0457813584529284019290840190600101613a55565b600082601f830112613a8257600080fd5b813567ffffffffffffffff811115613a9c57613a9c614bea565b613aaf601f8201601f191660200161495c565b818152846020838601011115613ac457600080fd5b816020850160208301376000918101602001919091529392505050565b805161399181614c23565b80516001600160801b038116811461399157600080fd5b803561ffff8116811461399157600080fd5b805162ffffff8116811461399157600080fd5b600060208284031215613b3a57600080fd5b81356127be81614c00565b600080600080600060a08688031215613b5d57600080fd5b8535613b6881614c00565b94506020860135613b7881614c00565b93506040860135613b8881614c00565b94979396509394606081013594506080013592915050565b600080600080600060a08688031215613bb857600080fd5b8535613bc381614c00565b9450602086810135613bd481614c00565b9450604087013567ffffffffffffffff80821115613bf157600080fd5b613bfd8a838b01613996565b95506060890135915080821115613c1357600080fd5b613c1f8a838b01613a11565b94506080890135915080821115613c3557600080fd5b508701601f81018913613c4757600080fd5b8035613c556139b78261498d565b8082825284820191508484018c868560051b8701011115613c7557600080fd5b60009450845b84811015613ca557813560ff81168114613c93578687fd5b84529286019290860190600101613c7b565b505080955050505050509295509295909350565b600080600080600060a08688031215613cd157600080fd5b8535613cdc81614c00565b94506020860135613cec81614c00565b9350604086013567ffffffffffffffff80821115613d0957600080fd5b613d1589838a01613a11565b94506060880135915080821115613d2b57600080fd5b613d3789838a01613a11565b93506080880135915080821115613d4d57600080fd5b50613d5a88828901613a71565b9150509295509295909350565b60008060008060808587031215613d7d57600080fd5b8435613d8881614c00565b93506020850135613d9881614c00565b925060408501359150606085013567ffffffffffffffff811115613dbb57600080fd5b613dc787828801613a71565b91505092959194509250565b600080600080600060a08688031215613deb57600080fd5b8535613df681614c00565b94506020860135613e0681614c00565b93506040860135925060608601359150608086013567ffffffffffffffff811115613e3057600080fd5b613d5a88828901613a71565b60008060408385031215613e4f57600080fd5b823567ffffffffffffffff80821115613e6757600080fd5b613e7386838701613996565b9350602091508185013581811115613e8a57600080fd5b85019050601f81018613613e9d57600080fd5b8035613eab6139b78261498d565b80828252848201915084840189868560051b8701011115613ecb57600080fd5b600094505b83851015613ef7578035613ee381614c15565b835260019490940193918501918501613ed0565b5080955050505050509250929050565b600060208284031215613f1957600080fd5b81516127be81614c15565b600060208284031215613f3657600080fd5b81356001600160e01b0319811681146127be57600080fd5b600060208284031215613f6057600080fd5b81356127be81614c23565b600060208284031215613f7d57600080fd5b813567ffffffffffffffff80821115613f9557600080fd5b9083019060a08286031215613fa957600080fd5b613fb1614933565b8235613fbc81614c00565b815260208381013590820152604083013582811115613fda57600080fd5b613fe687828601613a11565b6040830152506060830135606082015261400260808401613b03565b608082015295945050505050565b60006020828403121561402257600080fd5b5035919050565b60006020828403121561403b57600080fd5b5051919050565b60008060006060848603121561405757600080fd5b8335925061406760208501613b03565b9150604084013590509250925092565b6000806040838503121561408a57600080fd5b50508035926020909101359150565b6000806000806000806000806000806000806101808d8f0312156140bc57600080fd5b8c516bffffffffffffffffffffffff811681146140d857600080fd5b9b506140e660208e01613986565b9a506140f460408e01613986565b995061410260608e01613986565b985061411060808e01613b15565b975061411e60a08e01613ae1565b965061412c60c08e01613ae1565b955061413a60e08e01613aec565b94506101008d015193506101208d015192506141596101408e01613aec565b91506141686101608e01613aec565b90509295989b509295989b509295989b565b805480835260008281526020808220940193909190825b82601f8201101561441857815460ff808216885260206141ba818a01838560081c1660ff169052565b60406141cf818b01848660101c1660ff169052565b60606141e4818c01858760181c1660ff169052565b60806141f8818d018688871c1660ff169052565b60a0935061420f848d01868860281c1660ff169052565b60c0614224818e01878960301c1660ff169052565b60e0614239818f01888a60381c1660ff169052565b60ff88861c8816166101008f015261425c6101208f01888a60481c1660ff169052565b6142716101408f01888a60501c1660ff169052565b6142866101608f01888a60581c1660ff169052565b60ff88851c8816166101808f01526142a96101a08f01888a60681c1660ff169052565b6142be6101c08f01888a60701c1660ff169052565b6142d36101e08f01888a60781c1660ff169052565b60ff88841c8816166102008f01526142f66102208f01888a60881c1660ff169052565b61430b6102408f01888a60901c1660ff169052565b6143206102608f01888a60981c1660ff169052565b60ff88871c8816166102808f01526143436102a08f01888a60a81c1660ff169052565b6143586102c08f01888a60b01c1660ff169052565b61436d6102e08f01888a60b81c1660ff169052565b60ff88831c8816166103008f01526143906103208f01888a60c81c1660ff169052565b6143a56103408f01888a60d01c1660ff169052565b6143ba6103608f01888a60d81c1660ff169052565b60ff88821c8816166103808f01525050505050506143e36103a08901828460e81c1660ff169052565b6143f86103c08901828460f01c1660ff169052565b5060f81c6103e08701526104009095019460019190910190602001614191565b905490828110156144335760ff821686526020909501946001015b8281101561444f5760ff600883901c1686526020909501946001015b8281101561446b5760ff601083901c1686526020909501946001015b828110156144875760ff601883901c1686526020909501946001015b828110156144a457602082901c60ff168652602095909501946001015b828110156144c05760ff602883901c1686526020909501946001015b828110156144dc5760ff603083901c1686526020909501946001015b828110156144f85760ff603883901c1686526020909501946001015b828110156145145760ff604083901c1686526020909501946001015b828110156145305760ff604883901c1686526020909501946001015b8281101561454c5760ff605083901c1686526020909501946001015b828110156145685760ff605883901c1686526020909501946001015b828110156145845760ff606083901c1686526020909501946001015b828110156145a05760ff606883901c1686526020909501946001015b828110156145bc5760ff607083901c1686526020909501946001015b828110156145d85760ff607883901c1686526020909501946001015b828110156145f45760ff608083901c1686526020909501946001015b828110156146105760ff608883901c1686526020909501946001015b8281101561462c5760ff609083901c1686526020909501946001015b828110156146485760ff609883901c1686526020909501946001015b828110156146645760ff60a083901c1686526020909501946001015b828110156146805760ff60a883901c1686526020909501946001015b8281101561469c5760ff60b083901c1686526020909501946001015b828110156146b85760ff60b883901c1686526020909501946001015b828110156146d45760ff60c083901c1686526020909501946001015b828110156146f05760ff60c883901c1686526020909501946001015b8281101561470c5760ff60d083901c1686526020909501946001015b828110156147285760ff60d883901c1686526020909501946001015b828110156147445760ff60e083901c1686526020909501946001015b828110156147605760ff60e883901c1686526020909501946001015b8281101561477c5760ff60f083901c1686526020909501946001015b828110156147925760f882901c86526020860195505b5093949350505050565b600581106147ba57634e487b7160e01b600052602160045260246000fd5b9052565b60006060820160608352808654808352608085019150600092508783526020808420845b838110156148075781546001600160a01b0316855293820193600191820191016147e2565b505085830381870152875480845288855281852093820192505b8085101561484057835483526001948501949093019291810191614821565b505084810360408601526136dd818761417a565b602081016108eb828461479c565b6101408101614871828d61479c565b602082019a909a5260ff9890981660408901526060880196909652608087019490945260a08601929092526001600160a01b0390811660c086015290811660e08501529081166101008401521661012090910152919050565b6020808252818101527f4f776e61626c653a2063616c6c6572206973206e6f7420746865206f776e6572604082015260600190565b600060a082019050868252856020830152846040830152836060830152614929608083018461479c565b9695505050505050565b60405160a0810167ffffffffffffffff8111828210171561495657614956614bea565b60405290565b604051601f8201601f1916810167ffffffffffffffff8111828210171561498557614985614bea565b604052919050565b600067ffffffffffffffff8211156149a7576149a7614bea565b5060051b60200190565b600080821280156001600160ff1b03849003851316156149d3576149d3614b92565b600160ff1b83900384128116156149ec576149ec614b92565b50500190565b60008219821115614a0557614a05614b92565b500190565b600082614a1957614a19614ba8565b500490565b60006001600160ff1b0381841382841380821686840486111615614a4457614a44614b92565b600160ff1b6000871282811687830589121615614a6357614a63614b92565b60008712925087820587128484161615614a7f57614a7f614b92565b87850587128184161615614a9557614a95614b92565b505050929093029392505050565b6000816000190483118215151615614abd57614abd614b92565b500290565b60008083128015600160ff1b850184121615614ae057614ae0614b92565b6001600160ff1b0384018313811615614afb57614afb614b92565b50500390565b60006001600160a01b0383811690831681811015614b2157614b21614b92565b039392505050565b600082821015614b3b57614b3b614b92565b500390565b6000600019821415614b5457614b54614b92565b5060010190565b600082614b6a57614b6a614ba8565b500690565b60008160020b627fffff19811415614b8957614b89614b92565b60000392915050565b634e487b7160e01b600052601160045260246000fd5b634e487b7160e01b600052601260045260246000fd5b634e487b7160e01b600052602160045260246000fd5b634e487b7160e01b600052603260045260246000fd5b634e487b7160e01b600052604160045260246000fd5b6001600160a01b0381168114611d9d57600080fd5b8015158114611d9d57600080fd5b8060020b8114611d9d57600080fdfea264697066735822122036608094a491bb45e90b5d735c33efc43df26edc2246926dad48de6ef7669be664736f6c63430008070033",
    "sourcePath": "/home/gheoneaemil5/nft-lending-contracts/contracts/lending/routes/StaterHealthFactor/0.8.7/StaterHealthFactor.sol",
    "compiler": {
        "name": "solc",
        "version": "0.8.7+commit.e28d00a7"
    },
    "functionHashes": {
        "MAX_SQRT_RATIO()": "6d2cc304",
        "MIN_SQRT_RATIO()": "ee8847ff",
        "approveLoan(uint256)": "aadc1ac1",
        "approveLoanWithPool(uint256,uint256)": "67a00c55",
        "cancelLoan(uint256)": "bdbfa3de",
        "createLoan((address,uint256,uint256[],uint256,uint16))": "4f233661",
        "discountsHandler()": "d442ce09",
        "editLoan(uint256,uint16,uint256)": "27927299",
        "getGasCostOfGetSqrtRatioAtTick(int24)": "a7398eb4",
        "getGasCostOfGetTickAtSqrtRatio(uint160)": "b0622f67",
        "getLoanAssetsValue((address,uint256,uint256[],uint256,uint16))": "1cdee2f3",
        "getTickAtSqrtRatio(uint160)": "4f76c058",
        "id()": "af640d0f",
        "iltv()": "4455aa7d",
        "interestRate()": "7c3a00fd",
        "interestRateToStater()": "8f829275",
        "lackOfPayment(uint256)": "44ff78c7",
        "lenderFee()": "8ca83f07",
        "lendingPool()": "a59a9973",
        "liquidationTreshold()": "537d2a2b",
        "loanControlPanels(uint256)": "2d990756",
        "loanFeesHandler(uint256)": "8395f083",
        "loanHandler()": "b2b71a00",
        "loans(uint256)": "e1ec3c68",
        "ltv()": "6fb49d73",
        "onERC1155BatchReceived(address,address,uint256[],uint256[],bytes)": "bc197c81",
        "onERC1155Received(address,address,uint256,uint256,bytes)": "f23a6e61",
        "onERC721Received(address,address,uint256,bytes)": "150b7a02",
        "owner()": "8da5cb5b",
        "payLoan(uint256,uint256)": "89306e61",
        "renounceOwnership()": "715018a6",
        "setGlobalRouteVariables(address[],bool[])": "fba9f06a",
        "supportsInterface(bytes4)": "01ffc9a7",
        "terminateLoan(uint256)": "7fb9fe3d",
        "transferItems(address,address,address[],uint256[],uint8[])": "407299d7",
        "transferOwnership(address)": "f2fde38b",
        "transferTokens(address,address,address,uint256,uint256)": "2e3f4a5d",
        "uniswapV3NftAddress()": "eb94d6f9",
        "whitelistedCurrencies(address)": "436cc138"
    },
    "gasEstimates": {
        "creation": {
            "codeDepositCost": "3912000",
            "executionCost": "infinite",
            "totalCost": "infinite"
        },
        "external": {
            "MAX_SQRT_RATIO()": "247",
            "MIN_SQRT_RATIO()": "279",
            "approveLoan(uint256)": "infinite",
            "approveLoanWithPool(uint256,uint256)": "infinite",
            "cancelLoan(uint256)": "infinite",
            "createLoan((address,uint256,uint256[],uint256,uint16))": "infinite",
            "discountsHandler()": "2448",
            "editLoan(uint256,uint16,uint256)": "89652",
            "getGasCostOfGetSqrtRatioAtTick(int24)": "infinite",
            "getGasCostOfGetTickAtSqrtRatio(uint160)": "infinite",
            "getLoanAssetsValue((address,uint256,uint256[],uint256,uint16))": "infinite",
            "getTickAtSqrtRatio(uint160)": "infinite",
            "id()": "2406",
            "iltv()": "2429",
            "interestRate()": "2406",
            "interestRateToStater()": "2429",
            "lackOfPayment(uint256)": "infinite",
            "lenderFee()": "2403",
            "lendingPool()": "2382",
            "liquidationTreshold()": "2407",
            "loanControlPanels(uint256)": "21916",
            "loanFeesHandler(uint256)": "8898",
            "loanHandler()": "2382",
            "loans(uint256)": "17613",
            "ltv()": "2362",
            "onERC1155BatchReceived(address,address,uint256[],uint256[],bytes)": "infinite",
            "onERC1155Received(address,address,uint256,uint256,bytes)": "infinite",
            "onERC721Received(address,address,uint256,bytes)": "infinite",
            "owner()": "2443",
            "payLoan(uint256,uint256)": "infinite",
            "renounceOwnership()": "28203",
            "setGlobalRouteVariables(address[],bool[])": "infinite",
            "supportsInterface(bytes4)": "473",
            "terminateLoan(uint256)": "infinite",
            "transferItems(address,address,address[],uint256[],uint8[])": "infinite",
            "transferOwnership(address)": "infinite",
            "transferTokens(address,address,address,uint256,uint256)": "infinite",
            "uniswapV3NftAddress()": "2381",
            "whitelistedCurrencies(address)": "2626"
        },
        "internal": {
            "_positionBalance(uint256)": "infinite",
            "_positionBalance(uint256,bool)": "infinite",
            "approveLoanCoreMechanism(uint256)": "infinite"
        }
    }
}