{
  "_format": "hh-sol-artifact-1",
  "contractName": "ERC1155MetaPackedBalance",
  "sourceName": "contracts/libs/multi-token-standard/contracts/tokens/ERC1155PackedBalance/ERC1155MetaPackedBalance.sol",
  "abi": [
    {
      "anonymous": false,
      "inputs": [
        {
          "indexed": true,
          "internalType": "address",
          "name": "_owner",
          "type": "address"
        },
        {
          "indexed": true,
          "internalType": "address",
          "name": "_operator",
          "type": "address"
        },
        {
          "indexed": false,
          "internalType": "bool",
          "name": "_approved",
          "type": "bool"
        }
      ],
      "name": "ApprovalForAll",
      "type": "event"
    },
    {
      "anonymous": false,
      "inputs": [
        {
          "indexed": true,
          "internalType": "address",
          "name": "signer",
          "type": "address"
        },
        {
          "indexed": false,
          "internalType": "uint256",
          "name": "newNonce",
          "type": "uint256"
        }
      ],
      "name": "NonceChange",
      "type": "event"
    },
    {
      "anonymous": false,
      "inputs": [
        {
          "indexed": true,
          "internalType": "address",
          "name": "_operator",
          "type": "address"
        },
        {
          "indexed": true,
          "internalType": "address",
          "name": "_from",
          "type": "address"
        },
        {
          "indexed": true,
          "internalType": "address",
          "name": "_to",
          "type": "address"
        },
        {
          "indexed": false,
          "internalType": "uint256[]",
          "name": "_ids",
          "type": "uint256[]"
        },
        {
          "indexed": false,
          "internalType": "uint256[]",
          "name": "_amounts",
          "type": "uint256[]"
        }
      ],
      "name": "TransferBatch",
      "type": "event"
    },
    {
      "anonymous": false,
      "inputs": [
        {
          "indexed": true,
          "internalType": "address",
          "name": "_operator",
          "type": "address"
        },
        {
          "indexed": true,
          "internalType": "address",
          "name": "_from",
          "type": "address"
        },
        {
          "indexed": true,
          "internalType": "address",
          "name": "_to",
          "type": "address"
        },
        {
          "indexed": false,
          "internalType": "uint256",
          "name": "_id",
          "type": "uint256"
        },
        {
          "indexed": false,
          "internalType": "uint256",
          "name": "_amount",
          "type": "uint256"
        }
      ],
      "name": "TransferSingle",
      "type": "event"
    },
    {
      "inputs": [
        {
          "internalType": "address",
          "name": "_owner",
          "type": "address"
        },
        {
          "internalType": "uint256",
          "name": "_id",
          "type": "uint256"
        }
      ],
      "name": "balanceOf",
      "outputs": [
        {
          "internalType": "uint256",
          "name": "",
          "type": "uint256"
        }
      ],
      "stateMutability": "view",
      "type": "function"
    },
    {
      "inputs": [
        {
          "internalType": "address[]",
          "name": "_owners",
          "type": "address[]"
        },
        {
          "internalType": "uint256[]",
          "name": "_ids",
          "type": "uint256[]"
        }
      ],
      "name": "balanceOfBatch",
      "outputs": [
        {
          "internalType": "uint256[]",
          "name": "",
          "type": "uint256[]"
        }
      ],
      "stateMutability": "view",
      "type": "function"
    },
    {
      "inputs": [
        {
          "internalType": "uint256",
          "name": "_id",
          "type": "uint256"
        }
      ],
      "name": "getIDBinIndex",
      "outputs": [
        {
          "internalType": "uint256",
          "name": "bin",
          "type": "uint256"
        },
        {
          "internalType": "uint256",
          "name": "index",
          "type": "uint256"
        }
      ],
      "stateMutability": "pure",
      "type": "function"
    },
    {
      "inputs": [
        {
          "internalType": "address",
          "name": "_signer",
          "type": "address"
        }
      ],
      "name": "getNonce",
      "outputs": [
        {
          "internalType": "uint256",
          "name": "nonce",
          "type": "uint256"
        }
      ],
      "stateMutability": "view",
      "type": "function"
    },
    {
      "inputs": [
        {
          "internalType": "uint256",
          "name": "_binValues",
          "type": "uint256"
        },
        {
          "internalType": "uint256",
          "name": "_index",
          "type": "uint256"
        }
      ],
      "name": "getValueInBin",
      "outputs": [
        {
          "internalType": "uint256",
          "name": "",
          "type": "uint256"
        }
      ],
      "stateMutability": "pure",
      "type": "function"
    },
    {
      "inputs": [
        {
          "internalType": "address",
          "name": "_owner",
          "type": "address"
        },
        {
          "internalType": "address",
          "name": "_operator",
          "type": "address"
        }
      ],
      "name": "isApprovedForAll",
      "outputs": [
        {
          "internalType": "bool",
          "name": "isOperator",
          "type": "bool"
        }
      ],
      "stateMutability": "view",
      "type": "function"
    },
    {
      "inputs": [
        {
          "internalType": "address",
          "name": "_signerAddress",
          "type": "address"
        },
        {
          "internalType": "bytes32",
          "name": "_hash",
          "type": "bytes32"
        },
        {
          "internalType": "bytes",
          "name": "_data",
          "type": "bytes"
        },
        {
          "internalType": "bytes",
          "name": "_sig",
          "type": "bytes"
        }
      ],
      "name": "isValidSignature",
      "outputs": [
        {
          "internalType": "bool",
          "name": "isValid",
          "type": "bool"
        }
      ],
      "stateMutability": "view",
      "type": "function"
    },
    {
      "inputs": [
        {
          "internalType": "address",
          "name": "_from",
          "type": "address"
        },
        {
          "internalType": "address",
          "name": "_to",
          "type": "address"
        },
        {
          "internalType": "uint256[]",
          "name": "_ids",
          "type": "uint256[]"
        },
        {
          "internalType": "uint256[]",
          "name": "_amounts",
          "type": "uint256[]"
        },
        {
          "internalType": "bool",
          "name": "_isGasFee",
          "type": "bool"
        },
        {
          "internalType": "bytes",
          "name": "_data",
          "type": "bytes"
        }
      ],
      "name": "metaSafeBatchTransferFrom",
      "outputs": [],
      "stateMutability": "nonpayable",
      "type": "function"
    },
    {
      "inputs": [
        {
          "internalType": "address",
          "name": "_from",
          "type": "address"
        },
        {
          "internalType": "address",
          "name": "_to",
          "type": "address"
        },
        {
          "internalType": "uint256",
          "name": "_id",
          "type": "uint256"
        },
        {
          "internalType": "uint256",
          "name": "_amount",
          "type": "uint256"
        },
        {
          "internalType": "bool",
          "name": "_isGasFee",
          "type": "bool"
        },
        {
          "internalType": "bytes",
          "name": "_data",
          "type": "bytes"
        }
      ],
      "name": "metaSafeTransferFrom",
      "outputs": [],
      "stateMutability": "nonpayable",
      "type": "function"
    },
    {
      "inputs": [
        {
          "internalType": "address",
          "name": "_owner",
          "type": "address"
        },
        {
          "internalType": "address",
          "name": "_operator",
          "type": "address"
        },
        {
          "internalType": "bool",
          "name": "_approved",
          "type": "bool"
        },
        {
          "internalType": "bool",
          "name": "_isGasFee",
          "type": "bool"
        },
        {
          "internalType": "bytes",
          "name": "_data",
          "type": "bytes"
        }
      ],
      "name": "metaSetApprovalForAll",
      "outputs": [],
      "stateMutability": "nonpayable",
      "type": "function"
    },
    {
      "inputs": [
        {
          "internalType": "address",
          "name": "_from",
          "type": "address"
        },
        {
          "internalType": "address",
          "name": "_to",
          "type": "address"
        },
        {
          "internalType": "uint256[]",
          "name": "_ids",
          "type": "uint256[]"
        },
        {
          "internalType": "uint256[]",
          "name": "_amounts",
          "type": "uint256[]"
        },
        {
          "internalType": "bytes",
          "name": "_data",
          "type": "bytes"
        }
      ],
      "name": "safeBatchTransferFrom",
      "outputs": [],
      "stateMutability": "nonpayable",
      "type": "function"
    },
    {
      "inputs": [
        {
          "internalType": "address",
          "name": "_from",
          "type": "address"
        },
        {
          "internalType": "address",
          "name": "_to",
          "type": "address"
        },
        {
          "internalType": "uint256",
          "name": "_id",
          "type": "uint256"
        },
        {
          "internalType": "uint256",
          "name": "_amount",
          "type": "uint256"
        },
        {
          "internalType": "bytes",
          "name": "_data",
          "type": "bytes"
        }
      ],
      "name": "safeTransferFrom",
      "outputs": [],
      "stateMutability": "nonpayable",
      "type": "function"
    },
    {
      "inputs": [
        {
          "internalType": "address",
          "name": "_operator",
          "type": "address"
        },
        {
          "internalType": "bool",
          "name": "_approved",
          "type": "bool"
        }
      ],
      "name": "setApprovalForAll",
      "outputs": [],
      "stateMutability": "nonpayable",
      "type": "function"
    },
    {
      "inputs": [
        {
          "internalType": "bytes4",
          "name": "_interfaceID",
          "type": "bytes4"
        }
      ],
      "name": "supportsInterface",
      "outputs": [
        {
          "internalType": "bool",
          "name": "",
          "type": "bool"
        }
      ],
      "stateMutability": "pure",
      "type": "function"
    }
  ],
  "bytecode": "0x608060405234801561001057600080fd5b5061483e806100206000396000f3fe608060405234801561001057600080fd5b50600436106100e95760003560e01c8063ce0b514b1161008c578063eaec5f8111610066578063eaec5f811461027f578063f242432a146102af578063f5d4c820146102cb578063fa4e12d7146102e7576100e9565b8063ce0b514b14610202578063db90e83c1461021e578063e985e9c51461024f576100e9565b80632eb2c2d6116100c85780632eb2c2d61461017e5780634e1273f41461019a578063a22cb465146101ca578063a3d4926e146101e6576100e9565b8062fdd58e146100ee57806301ffc9a71461011e5780632d0335ab1461014e575b600080fd5b610108600480360381019061010391906136d0565b610317565b60405161011591906140b7565b60405180910390f35b610138600480360381019061013391906137a1565b610390565b6040516101459190613ec7565b60405180910390f35b610168600480360381019061016391906131e8565b610412565b60405161017591906140b7565b60405180910390f35b61019860048036038101906101939190613383565b61045b565b005b6101b460048036038101906101af919061370c565b610597565b6040516101c19190613ea5565b60405180910390f35b6101e460048036038101906101df9190613601565b61083b565b005b61020060048036038101906101fb91906132b2565b61093a565b005b61021c600480360381019061021791906134d1565b610ad2565b005b610238600480360381019061023391906138e3565b610c1e565b6040516102469291906140d2565b60405180910390f35b61026960048036038101906102649190613276565b610c56565b6040516102769190613ec7565b60405180910390f35b6102996004803603810190610294919061390c565b610cea565b6040516102a691906140b7565b60405180910390f35b6102c960048036038101906102c49190613572565b610d10565b005b6102e560048036038101906102e09190613442565b610e4c565b005b61030160048036038101906102fc919061363d565b610fec565b60405161030e9190613ec7565b60405180910390f35b600080600061032584610c1e565b80925081935050506103866000808773ffffffffffffffffffffffffffffffffffffffff1673ffffffffffffffffffffffffffffffffffffffff16815260200190815260200160002060008481526020019081526020016000205482610cea565b9250505092915050565b60007fd9b67a26000000000000000000000000000000000000000000000000000000007bffffffffffffffffffffffffffffffffffffffffffffffffffffffff1916827bffffffffffffffffffffffffffffffffffffffffffffffffffffffff19161415610401576001905061040d565b61040a8261187b565b90505b919050565b6000600260008373ffffffffffffffffffffffffffffffffffffffff1673ffffffffffffffffffffffffffffffffffffffff168152602001908152602001600020549050919050565b8473ffffffffffffffffffffffffffffffffffffffff163373ffffffffffffffffffffffffffffffffffffffff16148061049b575061049a8533610c56565b5b6104f0576040517f08c379a000000000000000000000000000000000000000000000000000000000815260040180806020018281038252603c8152602001806145ef603c913960400191505060405180910390fd5b600073ffffffffffffffffffffffffffffffffffffffff168473ffffffffffffffffffffffffffffffffffffffff161415610576576040517f08c379a000000000000000000000000000000000000000000000000000000000815260040180806020018281038252603d8152602001806143dc603d913960400191505060405180910390fd5b610582858585856118cc565b610590858585855a86611eba565b5050505050565b6060600083519050825181146105f8576040517f08c379a00000000000000000000000000000000000000000000000000000000081526004018080602001828103825260398152602001806143a36039913960400191505060405180910390fd5b6000806106188560008151811061060b57fe5b6020026020010151610c1e565b9150915060008060008860008151811061062e57fe5b602002602001015173ffffffffffffffffffffffffffffffffffffffff1673ffffffffffffffffffffffffffffffffffffffff1681526020019081526020016000206000848152602001908152602001600020549050600083905060008567ffffffffffffffff811180156106a257600080fd5b506040519080825280602002602001820160405280156106d15781602001602082028036833780820191505090505b5090506106de8385610cea565b816000815181106106eb57fe5b6020026020010181815250506000600190505b8681101561082b5761072289828151811061071557fe5b6020026020010151610c1e565b8096508197505050828614158061078e575089818151811061074057fe5b602002602001015173ffffffffffffffffffffffffffffffffffffffff168a600183038151811061076d57fe5b602002602001015173ffffffffffffffffffffffffffffffffffffffff1614155b156107fc576000808b83815181106107a257fe5b602002602001015173ffffffffffffffffffffffffffffffffffffffff1673ffffffffffffffffffffffffffffffffffffffff16815260200190815260200160002060008781526020019081526020016000205493508592505b6108068486610cea565b82828151811061081257fe5b60200260200101818152505080806001019150506106fe565b5080965050505050505092915050565b80600160003373ffffffffffffffffffffffffffffffffffffffff1673ffffffffffffffffffffffffffffffffffffffff16815260200190815260200160002060008473ffffffffffffffffffffffffffffffffffffffff1673ffffffffffffffffffffffffffffffffffffffff16815260200190815260200160002060006101000a81548160ff0219169083151502179055508173ffffffffffffffffffffffffffffffffffffffff163373ffffffffffffffffffffffffffffffffffffffff167f17307eab39ab6107e8899845ad3d59bd9653f200f220920489ca2b5937696c318360405180821515815260200191505060405180910390a35050565b600073ffffffffffffffffffffffffffffffffffffffff168573ffffffffffffffffffffffffffffffffffffffff1614156109aa576040517f08c379a00000000000000000000000000000000000000000000000000000000081526004016109a190614077565b60405180910390fd5b60606109b4612e65565b6000610a6789857fa3d4926e8cf8fe8e020cd29f514c256bc2eec62aa2337e415f1a33a4828af5a060001b8c8c8c6040516020016109f29190613d91565b604051602081830303815290604052805190602001208c604051602001610a199190613d91565b604051602081830303815290604052805190602001208c610a3b576000610a3e565b60015b604051602001610a5396959493929190613ee2565b60405160208183030381529060405261214c565b9050610a75898989896118cc565b8415610ab85780806020019051810190610a8f9190613877565b8094508193505050610aa989898989866020015188611eba565b610ab38983612370565b610ac7565b610ac6898989895a86611eba565b5b505050505050505050565b600073ffffffffffffffffffffffffffffffffffffffff168573ffffffffffffffffffffffffffffffffffffffff161415610b42576040517f08c379a0000000000000000000000000000000000000000000000000000000008152600401610b3990614057565b60405180910390fd5b6060610b4c612e65565b6000610bb389857fce0b514b3931bdbe4d5d44e4f035afe7113767b7db71949271f6a62d9c60f55860001b8c8c8c8c8c610b87576000610b8a565b60015b604051602001610b9f96959493929190613f96565b60405160208183030381529060405261214c565b9050610bc189898989612648565b8415610c045780806020019051810190610bdb9190613877565b8094508193505050610bf5898989898660200151886126ec565b610bff8983612370565b610c13565b610c12898989895a866126ec565b5b505050505050505050565b600080602061010081610c2d57fe5b048381610c3657fe5b049150602061010081610c4557fe5b048381610c4e57fe5b069050915091565b6000600160008473ffffffffffffffffffffffffffffffffffffffff1673ffffffffffffffffffffffffffffffffffffffff16815260200190815260200160002060008373ffffffffffffffffffffffffffffffffffffffff1673ffffffffffffffffffffffffffffffffffffffff16815260200190815260200160002060009054906101000a900460ff16905092915050565b600080600160206001901b0390506000836020029050818186901c169250505092915050565b8473ffffffffffffffffffffffffffffffffffffffff163373ffffffffffffffffffffffffffffffffffffffff161480610d505750610d4f8533610c56565b5b610da5576040517f08c379a00000000000000000000000000000000000000000000000000000000081526004018080602001828103825260378152602001806144bd6037913960400191505060405180910390fd5b600073ffffffffffffffffffffffffffffffffffffffff168473ffffffffffffffffffffffffffffffffffffffff161415610e2b576040517f08c379a000000000000000000000000000000000000000000000000000000000815260040180806020018281038252603881526020018061471e6038913960400191505060405180910390fd5b610e3785858585612648565b610e45858585855a866126ec565b5050505050565b6000610ebf86837ff5d4c820494c8595de274c7ff619bead38aac4fbc3d143b5bf956aa4b84fa52460001b898989610e85576000610e88565b60015b89610e94576000610e97565b60015b604051602001610eab959493929190613f43565b60405160208183030381529060405261214c565b905083600160008873ffffffffffffffffffffffffffffffffffffffff1673ffffffffffffffffffffffffffffffffffffffff16815260200190815260200160002060008773ffffffffffffffffffffffffffffffffffffffff1673ffffffffffffffffffffffffffffffffffffffff16815260200190815260200160002060006101000a81548160ff0219169083151502179055508473ffffffffffffffffffffffffffffffffffffffff168673ffffffffffffffffffffffffffffffffffffffff167f17307eab39ab6107e8899845ad3d59bd9653f200f220920489ca2b5937696c3186604051610fb29190613ec7565b60405180910390a38215610fe457600081806020019051810190610fd69190613836565b9050610fe28782612370565b505b505050505050565b600080825111611047576040517f08c379a00000000000000000000000000000000000000000000000000000000081526004018080602001828103825260438152602001806146db6043913960600191505060405180910390fd5b600073ffffffffffffffffffffffffffffffffffffffff168573ffffffffffffffffffffffffffffffffffffffff1614156110cd576040517f08c379a00000000000000000000000000000000000000000000000000000000081526004018080602001828103825260338152602001806146616033913960400191505060405180910390fd5b60006110d8836128fc565b60f81c90506005808111156110e957fe5b60ff168160ff1610611146576040517f08c379a000000000000000000000000000000000000000000000000000000000815260040180806020018281038252603a815260200180614483603a913960400191505060405180910390fd5b60008160ff16600581111561115757fe5b90506000806000806000600581111561116c57fe5b85600581111561117857fe5b14156111cf576040517f08c379a00000000000000000000000000000000000000000000000000000000081526004018080602001828103825260368152602001806144f46036913960400191505060405180910390fd5b600160058111156111dc57fe5b8560058111156111e857fe5b1415611333576061885114611248576040517f08c379a00000000000000000000000000000000000000000000000000000000081526004018080602001828103825260378152602001806145b86037913960400191505060405180910390fd5b61125c60008961298290919063ffffffff16565b925061127260208961298290919063ffffffff16565b91508760408151811061128157fe5b602001015160f81c60f81b60f81c935060018a85858560405160008152602001604052604051808581526020018460ff1681526020018381526020018281526020019450505050506020604051602081039080840390855afa1580156112eb573d6000803e3d6000fd5b5050506020604051035190508073ffffffffffffffffffffffffffffffffffffffff168b73ffffffffffffffffffffffffffffffffffffffff16149650505050505050611873565b6002600581111561134057fe5b85600581111561134c57fe5b14156114e55760618851146113ac576040517f08c379a00000000000000000000000000000000000000000000000000000000081526004018080602001828103825260378152602001806145b86037913960400191505060405180910390fd5b6113c060008961298290919063ffffffff16565b92506113d660208961298290919063ffffffff16565b9150876040815181106113e557fe5b602001015160f81c60f81b60f81c935060018a60405160200180807f19457468657265756d205369676e6564204d6573736167653a0a333200000000815250601c018281526020019150506040516020818303038152906040528051906020012085858560405160008152602001604052604051808581526020018460ff1681526020018381526020018281526020019450505050506020604051602081039080840390855afa15801561149d573d6000803e3d6000fd5b5050506020604051035190508073ffffffffffffffffffffffffffffffffffffffff168b73ffffffffffffffffffffffffffffffffffffffff16149650505050505050611873565b600360058111156114f257fe5b8560058111156114fe57fe5b14156116b6578a73ffffffffffffffffffffffffffffffffffffffff166320c13b0b8a8a6040518363ffffffff1660e01b8152600401808060200180602001838103835285818151815260200191508051906020019080838360005b8381101561157557808201518184015260208101905061155a565b50505050905090810190601f1680156115a25780820380516001836020036101000a031916815260200191505b50838103825284818151815260200191508051906020019080838360005b838110156115db5780820151818401526020810190506115c0565b50505050905090810190601f1680156116085780820380516001836020036101000a031916815260200191505b5094505050505060206040518083038186803b15801561162757600080fd5b505afa15801561163b573d6000803e3d6000fd5b505050506040513d602081101561165157600080fd5b81019080805190602001909291905050507bffffffffffffffffffffffffffffffffffffffffffffffffffffffff19166320c13b0b60e01b7bffffffffffffffffffffffffffffffffffffffffffffffffffffffff1916149650505050505050611873565b600460058111156116c357fe5b8560058111156116cf57fe5b1415611822578a73ffffffffffffffffffffffffffffffffffffffff16631626ba7e8b8a6040518363ffffffff1660e01b81526004018083815260200180602001828103825283818151815260200191508051906020019080838360005b8381101561174857808201518184015260208101905061172d565b50505050905090810190601f1680156117755780820380516001836020036101000a031916815260200191505b50935050505060206040518083038186803b15801561179357600080fd5b505afa1580156117a7573d6000803e3d6000fd5b505050506040513d60208110156117bd57600080fd5b81019080805190602001909291905050507bffffffffffffffffffffffffffffffffffffffffffffffffffffffff1916631626ba7e60e01b7bffffffffffffffffffffffffffffffffffffffffffffffffffffffff1916149650505050505050611873565b6040517f08c379a000000000000000000000000000000000000000000000000000000000815260040180806020018281038252603a815260200180614483603a913960400191505060405180910390fd5b949350505050565b60006301ffc9a760e01b7bffffffffffffffffffffffffffffffffffffffffffffffffffffffff1916827bffffffffffffffffffffffffffffffffffffffffffffffffffffffff1916149050919050565b6000825190508151811461192b576040517f08c379a000000000000000000000000000000000000000000000000000000000815260040180806020018281038252604281526020018061452a6042913960600191505060405180910390fd5b8373ffffffffffffffffffffffffffffffffffffffff168573ffffffffffffffffffffffffffffffffffffffff16141580156119675750600081115b15611d0b5760008061198c8560008151811061197f57fe5b6020026020010151610c1e565b915091506000611a026000808a73ffffffffffffffffffffffffffffffffffffffff1673ffffffffffffffffffffffffffffffffffffffff16815260200190815260200160002060008581526020019081526020016000205483876000815181106119f357fe5b602002602001015160016129f3565b90506000611a766000808a73ffffffffffffffffffffffffffffffffffffffff1673ffffffffffffffffffffffffffffffffffffffff1681526020019081526020016000206000868152602001908152602001600020548488600081518110611a6757fe5b602002602001015160006129f3565b905060008490506000600190505b86811015611c5857611aa8898281518110611a9b57fe5b6020026020010151610c1e565b8096508197505050818614611c0757836000808d73ffffffffffffffffffffffffffffffffffffffff1673ffffffffffffffffffffffffffffffffffffffff168152602001908152602001600020600084815260200190815260200160002081905550826000808c73ffffffffffffffffffffffffffffffffffffffff1673ffffffffffffffffffffffffffffffffffffffff1681526020019081526020016000206000848152602001908152602001600020819055506000808c73ffffffffffffffffffffffffffffffffffffffff1673ffffffffffffffffffffffffffffffffffffffff16815260200190815260200160002060008781526020019081526020016000205493506000808b73ffffffffffffffffffffffffffffffffffffffff1673ffffffffffffffffffffffffffffffffffffffff16815260200190815260200160002060008781526020019081526020016000205492508591505b611c2784868a8481518110611c1857fe5b602002602001015160016129f3565b9350611c4983868a8481518110611c3a57fe5b602002602001015160006129f3565b92508080600101915050611a84565b50826000808c73ffffffffffffffffffffffffffffffffffffffff1673ffffffffffffffffffffffffffffffffffffffff168152602001908152602001600020600087815260200190815260200160002081905550816000808b73ffffffffffffffffffffffffffffffffffffffff1673ffffffffffffffffffffffffffffffffffffffff1681526020019081526020016000206000878152602001908152602001600020819055505050505050611dad565b60005b81811015611dab57828181518110611d2257fe5b6020026020010151611d4787868481518110611d3a57fe5b6020026020010151610317565b1015611d9e576040517f08c379a000000000000000000000000000000000000000000000000000000000815260040180806020018281038252603681526020018061462b6036913960400191505060405180910390fd5b8080600101915050611d0e565b505b8373ffffffffffffffffffffffffffffffffffffffff168573ffffffffffffffffffffffffffffffffffffffff163373ffffffffffffffffffffffffffffffffffffffff167f4a39dc06d4c0dbc64b70af90fd698a233a518aa5d07e595d983b8c0526c8f7fb8686604051808060200180602001838103835285818151815260200191508051906020019060200280838360005b83811015611e5c578082015181840152602081019050611e41565b50505050905001838103825284818151815260200191508051906020019060200280838360005b83811015611e9e578082015181840152602081019050611e83565b5050505090500194505050505060405180910390a45050505050565b611ed98573ffffffffffffffffffffffffffffffffffffffff16612c2f565b156121445760008573ffffffffffffffffffffffffffffffffffffffff1663bc197c8184338a8989886040518763ffffffff1660e01b8152600401808673ffffffffffffffffffffffffffffffffffffffff1681526020018573ffffffffffffffffffffffffffffffffffffffff168152602001806020018060200180602001848103845287818151815260200191508051906020019060200280838360005b83811015611f94578082015181840152602081019050611f79565b50505050905001848103835286818151815260200191508051906020019060200280838360005b83811015611fd6578082015181840152602081019050611fbb565b50505050905001848103825285818151815260200191508051906020019080838360005b83811015612015578082015181840152602081019050611ffa565b50505050905090810190601f1680156120425780820380516001836020036101000a031916815260200191505b5098505050505050505050602060405180830381600088803b15801561206757600080fd5b5087f115801561207b573d6000803e3d6000fd5b50505050506040513d602081101561209257600080fd5b8101908080519060200190929190505050905063bc197c8160e01b7bffffffffffffffffffffffffffffffffffffffffffffffffffffffff1916817bffffffffffffffffffffffffffffffffffffffffffffffffffffffff191614612142576040517f08c379a000000000000000000000000000000000000000000000000000000000815260040180806020018281038252604c81526020018061456c604c913960600191505060405180910390fd5b505b505050505050565b6060808380602001905181019061216391906137ca565b80935081925050506000600260008773ffffffffffffffffffffffffffffffffffffffff1673ffffffffffffffffffffffffffffffffffffffff16815260200190815260200160002054905060006121c560418461298290919063ffffffff16565b60001c90508181101580156121dc57506064820181105b61221b576040517f08c379a000000000000000000000000000000000000000000000000000000000815260040161221290614017565b60405180910390fd5b60006122578683878051906020012060405160200161223c93929190613da8565b60405160208183030381529060405280519060200120612c74565b9050600086838760405160200161227093929190613de1565b604051602081830303815290604052905060018301600260008b73ffffffffffffffffffffffffffffffffffffffff1673ffffffffffffffffffffffffffffffffffffffff168152602001908152602001600020819055508873ffffffffffffffffffffffffffffffffffffffff167fb861b7bdbe611a846ab271b8d2810391bc8b5a968f390c322438ecab66bccf596001850160405161231191906140b7565b60405180910390a261232589838388610fec565b612364576040517f08c379a000000000000000000000000000000000000000000000000000000000815260040161235b90614037565b60405180910390fd5b50505050509392505050565b600061237f82606001516128fc565b60f81c905060028081111561239057fe5b60ff168160ff16106123d7576040517f08c379a00000000000000000000000000000000000000000000000000000000081526004016123ce90614097565b60405180910390fd5b60008160ff1660028111156123e857fe5b905060008060008086600001519050600073ffffffffffffffffffffffffffffffffffffffff16876040015173ffffffffffffffffffffffffffffffffffffffff161461243957866040015161243b565b335b92506000600281111561244a57fe5b85600281111561245657fe5b1415612555578660600151806020019051810190612474919061323a565b80935081955050503073ffffffffffffffffffffffffffffffffffffffff168473ffffffffffffffffffffffffffffffffffffffff1614156124de576124bc88848484612648565b6124d98884845a85604051806020016040528060008152506126ec565b612550565b8373ffffffffffffffffffffffffffffffffffffffff1663f242432a898585856040518563ffffffff1660e01b815260040161251d9493929190613e4d565b600060405180830381600087803b15801561253757600080fd5b505af115801561254b573d6000803e3d6000fd5b505050505b61263e565b866060015180602001905181019061256d9190613211565b93508373ffffffffffffffffffffffffffffffffffffffff166323b872dd8985846040518463ffffffff1660e01b81526004016125ac93929190613e16565b602060405180830381600087803b1580156125c657600080fd5b505af11580156125da573d6000803e3d6000fd5b505050506040513d601f19601f820116820180604052508101906125fe9190613778565b61263d576040517f08c379a000000000000000000000000000000000000000000000000000000000815260040161263490613ff7565b60405180910390fd5b5b5050505050505050565b6126558483836001612d9b565b6126628383836000612d9b565b8273ffffffffffffffffffffffffffffffffffffffff168473ffffffffffffffffffffffffffffffffffffffff163373ffffffffffffffffffffffffffffffffffffffff167fc3d58168c5ae7397731d063d5bbf3d657854427343f4c083240f7aacaa2d0f628585604051808381526020018281526020019250505060405180910390a450505050565b61270b8573ffffffffffffffffffffffffffffffffffffffff16612c2f565b156128f45760008573ffffffffffffffffffffffffffffffffffffffff1663f23a6e6184338a8989886040518763ffffffff1660e01b8152600401808673ffffffffffffffffffffffffffffffffffffffff1681526020018573ffffffffffffffffffffffffffffffffffffffff16815260200184815260200183815260200180602001828103825283818151815260200191508051906020019080838360005b838110156127c75780820151818401526020810190506127ac565b50505050905090810190601f1680156127f45780820380516001836020036101000a031916815260200191505b509650505050505050602060405180830381600088803b15801561281757600080fd5b5087f115801561282b573d6000803e3d6000fd5b50505050506040513d602081101561284257600080fd5b8101908080519060200190929190505050905063f23a6e6160e01b7bffffffffffffffffffffffffffffffffffffffffffffffffffffffff1916817bffffffffffffffffffffffffffffffffffffffffffffffffffffffff1916146128f2576040517f08c379a00000000000000000000000000000000000000000000000000000000081526004018080602001828103825260478152602001806146946047913960600191505060405180910390fd5b505b505050505050565b600080825111612957576040517f08c379a00000000000000000000000000000000000000000000000000000000081526004018080602001828103825260378152602001806144196037913960400191505060405180910390fd5b8160018351038151811061296757fe5b602001015160f81c60f81b9050600182510380835250919050565b600060208201835110156129e1576040517f08c379a000000000000000000000000000000000000000000000000000000000815260040180806020018281038252603c815260200180614756603c913960400191505060405180910390fd5b60208201915081830151905092915050565b6000808460200290506000600160206001901b03905060006001811115612a1657fe5b846001811115612a2257fe5b1415612af1578185901b8701925086831015612a89576040517f08c379a00000000000000000000000000000000000000000000000000000000081526004018080602001828103825260328152602001806147d76032913960400191505060405180910390fd5b602060020a8582848a901c160110612aec576040517f08c379a00000000000000000000000000000000000000000000000000000000081526004018080602001828103825260328152602001806147d76032913960400191505060405180910390fd5b612c25565b600180811115612afd57fe5b846001811115612b0957fe5b1415612bd3578185901b8703925086831115612b70576040517f08c379a00000000000000000000000000000000000000000000000000000000081526004018080602001828103825260338152602001806144506033913960400191505060405180910390fd5b84818389901c161015612bce576040517f08c379a00000000000000000000000000000000000000000000000000000000081526004018080602001828103825260338152602001806144506033913960400191505060405180910390fd5b612c24565b6040517f08c379a00000000000000000000000000000000000000000000000000000000081526004018080602001828103825260458152602001806147926045913960600191505060405180910390fd5b5b5050949350505050565b600080823f90506000801b8114158015612c6c57507fc5d2460186f7233c927e7db2dcc703c0e500b653ca82273b7bfad8045d85a47060001b8114155b915050919050565b60006040518060400160405280600281526020017f19010000000000000000000000000000000000000000000000000000000000008152507f035aff83d86937d35b32e04f0ddc6ff469290eef2f1b692d8a815c89404d474960001b30604051602001808381526020018273ffffffffffffffffffffffffffffffffffffffff1681526020019250505060405160208183030381529060405280519060200120836040516020018084805190602001908083835b60208310612d4b5780518252602082019150602081019050602083039250612d28565b6001836020036101000a0380198251168184511680821785525050505050509050018381526020018281526020019350505050604051602081830303815290604052805190602001209050919050565b600080612da785610c1e565b8092508193505050612e0a6000808873ffffffffffffffffffffffffffffffffffffffff1673ffffffffffffffffffffffffffffffffffffffff1681526020019081526020016000206000848152602001908152602001600020548286866129f3565b6000808873ffffffffffffffffffffffffffffffffffffffff1673ffffffffffffffffffffffffffffffffffffffff168152602001908152602001600020600084815260200190815260200160002081905550505050505050565b60405180608001604052806000815260200160008152602001600073ffffffffffffffffffffffffffffffffffffffff168152602001606081525090565b6000612eb6612eb18461412c565b6140fb565b90508083825260208201905082856020860282011115612ed557600080fd5b60005b85811015612f055781612eeb8882612ff7565b845260208401935060208301925050600181019050612ed8565b5050509392505050565b6000612f22612f1d84614158565b6140fb565b90508083825260208201905082856020860282011115612f4157600080fd5b60005b85811015612f715781612f5788826131be565b845260208401935060208301925050600181019050612f44565b5050509392505050565b6000612f8e612f8984614184565b6140fb565b905082815260208101848484011115612fa657600080fd5b612fb18482856142c0565b509392505050565b6000612fcc612fc784614184565b6140fb565b905082815260208101848484011115612fe457600080fd5b612fef8482856142cf565b509392505050565b60008135905061300681614318565b92915050565b60008151905061301b81614318565b92915050565b6000815190506130308161432f565b92915050565b600082601f83011261304757600080fd5b8135613057848260208601612ea3565b91505092915050565b600082601f83011261307157600080fd5b8135613081848260208601612f0f565b91505092915050565b60008135905061309981614346565b92915050565b6000815190506130ae81614346565b92915050565b6000813590506130c38161435d565b92915050565b6000813590506130d881614374565b92915050565b600082601f8301126130ef57600080fd5b81356130ff848260208601612f7b565b91505092915050565b600082601f83011261311957600080fd5b8151613129848260208601612fb9565b91505092915050565b60006080828403121561314457600080fd5b61314e60806140fb565b9050600061315e848285016131d3565b6000830152506020613172848285016131d3565b60208301525060406131868482850161300c565b604083015250606082015167ffffffffffffffff8111156131a657600080fd5b6131b284828501613108565b60608301525092915050565b6000813590506131cd8161438b565b92915050565b6000815190506131e28161438b565b92915050565b6000602082840312156131fa57600080fd5b600061320884828501612ff7565b91505092915050565b60006020828403121561322357600080fd5b600061323184828501613021565b91505092915050565b6000806040838503121561324d57600080fd5b600061325b85828601613021565b925050602061326c858286016131d3565b9150509250929050565b6000806040838503121561328957600080fd5b600061329785828601612ff7565b92505060206132a885828601612ff7565b9150509250929050565b60008060008060008060c087890312156132cb57600080fd5b60006132d989828a01612ff7565b96505060206132ea89828a01612ff7565b955050604087013567ffffffffffffffff81111561330757600080fd5b61331389828a01613060565b945050606087013567ffffffffffffffff81111561333057600080fd5b61333c89828a01613060565b935050608061334d89828a0161308a565b92505060a087013567ffffffffffffffff81111561336a57600080fd5b61337689828a016130de565b9150509295509295509295565b600080600080600060a0868803121561339b57600080fd5b60006133a988828901612ff7565b95505060206133ba88828901612ff7565b945050604086013567ffffffffffffffff8111156133d757600080fd5b6133e388828901613060565b935050606086013567ffffffffffffffff81111561340057600080fd5b61340c88828901613060565b925050608086013567ffffffffffffffff81111561342957600080fd5b613435888289016130de565b9150509295509295909350565b600080600080600060a0868803121561345a57600080fd5b600061346888828901612ff7565b955050602061347988828901612ff7565b945050604061348a8882890161308a565b935050606061349b8882890161308a565b925050608086013567ffffffffffffffff8111156134b857600080fd5b6134c4888289016130de565b9150509295509295909350565b60008060008060008060c087890312156134ea57600080fd5b60006134f889828a01612ff7565b965050602061350989828a01612ff7565b955050604061351a89828a016131be565b945050606061352b89828a016131be565b935050608061353c89828a0161308a565b92505060a087013567ffffffffffffffff81111561355957600080fd5b61356589828a016130de565b9150509295509295509295565b600080600080600060a0868803121561358a57600080fd5b600061359888828901612ff7565b95505060206135a988828901612ff7565b94505060406135ba888289016131be565b93505060606135cb888289016131be565b925050608086013567ffffffffffffffff8111156135e857600080fd5b6135f4888289016130de565b9150509295509295909350565b6000806040838503121561361457600080fd5b600061362285828601612ff7565b92505060206136338582860161308a565b9150509250929050565b6000806000806080858703121561365357600080fd5b600061366187828801612ff7565b9450506020613672878288016130b4565b935050604085013567ffffffffffffffff81111561368f57600080fd5b61369b878288016130de565b925050606085013567ffffffffffffffff8111156136b857600080fd5b6136c4878288016130de565b91505092959194509250565b600080604083850312156136e357600080fd5b60006136f185828601612ff7565b9250506020613702858286016131be565b9150509250929050565b6000806040838503121561371f57600080fd5b600083013567ffffffffffffffff81111561373957600080fd5b61374585828601613036565b925050602083013567ffffffffffffffff81111561376257600080fd5b61376e85828601613060565b9150509250929050565b60006020828403121561378a57600080fd5b60006137988482850161309f565b91505092915050565b6000602082840312156137b357600080fd5b60006137c1848285016130c9565b91505092915050565b600080604083850312156137dd57600080fd5b600083015167ffffffffffffffff8111156137f757600080fd5b61380385828601613108565b925050602083015167ffffffffffffffff81111561382057600080fd5b61382c85828601613108565b9150509250929050565b60006020828403121561384857600080fd5b600082015167ffffffffffffffff81111561386257600080fd5b61386e84828501613132565b91505092915050565b6000806040838503121561388a57600080fd5b600083015167ffffffffffffffff8111156138a457600080fd5b6138b085828601613132565b925050602083015167ffffffffffffffff8111156138cd57600080fd5b6138d985828601613108565b9150509250929050565b6000602082840312156138f557600080fd5b6000613903848285016131be565b91505092915050565b6000806040838503121561391f57600080fd5b600061392d858286016131be565b925050602061393e858286016131be565b9150509250929050565b60006139548383613d4d565b60208301905092915050565b600061396c8383613d6b565b60208301905092915050565b61398181614230565b82525050565b6000613992826141c4565b61399c81856141e7565b93506139a7836141b4565b8060005b838110156139d85781516139bf8882613948565b97506139ca836141da565b9250506001810190506139ab565b5085935050505092915050565b60006139f0826141c4565b6139fa81856141f8565b9350613a05836141b4565b8060005b83811015613a36578151613a1d8882613960565b9750613a28836141da565b925050600181019050613a09565b5085935050505092915050565b613a4c81614254565b82525050565b613a5b81614260565b82525050565b613a72613a6d82614260565b614302565b82525050565b6000613a83826141cf565b613a8d8185614214565b9350613a9d8185602086016142cf565b80840191505092915050565b6000613ab6603f8361421f565b91507f455243313135354d6574615061636b656442616c616e6365235f7472616e736660008301527f65724761734665653a2045524332305f5452414e534645525f4641494c4544006020830152604082019050919050565b6000613b1c603c8361421f565b91507f455243313135354d6574615061636b656442616c616e6365235f7369676e617460008301527f75726556616c69646174696f6e3a20494e56414c49445f4e4f4e4345000000006020830152604082019050919050565b6000613b8260408361421f565b91507f455243313135354d6574615061636b656442616c616e6365235f7369676e617460008301527f75726556616c69646174696f6e3a20494e56414c49445f5349474e41545552456020830152604082019050919050565b6000613be860408361421f565b91507f455243313135354d6574615061636b656442616c616e6365236d65746153616660008301527f655472616e7366657246726f6d3a20494e56414c49445f524543495049454e546020830152604082019050919050565b6000613c4e60458361421f565b91507f455243313135354d6574615061636b656442616c616e6365236d65746153616660008301527f6542617463685472616e7366657246726f6d3a20494e56414c49445f5245434960208301527f5049454e540000000000000000000000000000000000000000000000000000006040830152606082019050919050565b6000613cda600083614203565b9150600082019050919050565b6000613cf4603b8361421f565b91507f455243313135354d6574615061636b656442616c616e6365235f7472616e736660008301527f65724761734665653a20554e535550504f525445445f544f4b454e00000000006020830152604082019050919050565b613d56816142b6565b82525050565b613d65816142b6565b82525050565b613d74816142b6565b82525050565b613d8b613d86826142b6565b61430c565b82525050565b6000613d9d82846139e5565b915081905092915050565b6000613db48286613a78565b9150613dc08285613d7a565b602082019150613dd08284613a61565b602082019150819050949350505050565b6000613ded8286613a78565b9150613df98285613d7a565b602082019150613e098284613a78565b9150819050949350505050565b6000606082019050613e2b6000830186613978565b613e386020830185613978565b613e456040830184613d5c565b949350505050565b600060a082019050613e626000830187613978565b613e6f6020830186613978565b613e7c6040830185613d5c565b613e896060830184613d5c565b8181036080830152613e9a81613ccd565b905095945050505050565b60006020820190508181036000830152613ebf8184613987565b905092915050565b6000602082019050613edc6000830184613a43565b92915050565b600060c082019050613ef76000830189613a52565b613f046020830188613978565b613f116040830187613978565b613f1e6060830186613a52565b613f2b6080830185613a52565b613f3860a0830184613d5c565b979650505050505050565b600060a082019050613f586000830188613a52565b613f656020830187613978565b613f726040830186613978565b613f7f6060830185613d5c565b613f8c6080830184613d5c565b9695505050505050565b600060c082019050613fab6000830189613a52565b613fb86020830188613978565b613fc56040830187613978565b613fd26060830186613d5c565b613fdf6080830185613d5c565b613fec60a0830184613d5c565b979650505050505050565b6000602082019050818103600083015261401081613aa9565b9050919050565b6000602082019050818103600083015261403081613b0f565b9050919050565b6000602082019050818103600083015261405081613b75565b9050919050565b6000602082019050818103600083015261407081613bdb565b9050919050565b6000602082019050818103600083015261409081613c41565b9050919050565b600060208201905081810360008301526140b081613ce7565b9050919050565b60006020820190506140cc6000830184613d5c565b92915050565b60006040820190506140e76000830185613d5c565b6140f46020830184613d5c565b9392505050565b6000604051905081810181811067ffffffffffffffff8211171561412257614121614316565b5b8060405250919050565b600067ffffffffffffffff82111561414757614146614316565b5b602082029050602081019050919050565b600067ffffffffffffffff82111561417357614172614316565b5b602082029050602081019050919050565b600067ffffffffffffffff82111561419f5761419e614316565b5b601f19601f8301169050602081019050919050565b6000819050602082019050919050565b600081519050919050565b600081519050919050565b6000602082019050919050565b600082825260208201905092915050565b600081905092915050565b600082825260208201905092915050565b600081905092915050565b600082825260208201905092915050565b600061423b82614296565b9050919050565b600061424d82614296565b9050919050565b60008115159050919050565b6000819050919050565b60007fffffffff0000000000000000000000000000000000000000000000000000000082169050919050565b600073ffffffffffffffffffffffffffffffffffffffff82169050919050565b6000819050919050565b82818337600083830152505050565b60005b838110156142ed5780820151818401526020810190506142d2565b838111156142fc576000848401525b50505050565b6000819050919050565b6000819050919050565bfe5b61432181614230565b811461432c57600080fd5b50565b61433881614242565b811461434357600080fd5b50565b61434f81614254565b811461435a57600080fd5b50565b61436681614260565b811461437157600080fd5b50565b61437d8161426a565b811461438857600080fd5b50565b614394816142b6565b811461439f57600080fd5b5056fe455243313135355061636b656442616c616e63652362616c616e63654f6642617463683a20494e56414c49445f41525241595f4c454e475448455243313135355061636b656442616c616e6365237361666542617463685472616e7366657246726f6d3a20494e56414c49445f524543495049454e544c6962427974657323706f704c617374427974653a20475245415445525f5448414e5f5a45524f5f4c454e4754485f5245515549524544455243313135355061636b656442616c616e6365235f7669657755706461746542696e56616c75653a20554e444552464c4f575369676e617475726556616c696461746f7223697356616c69645369676e61747572653a20554e535550504f525445445f5349474e4154555245455243313135355061636b656442616c616e636523736166655472616e7366657246726f6d3a20494e56414c49445f4f50455241544f525369676e617475726556616c696461746f7223697356616c69645369676e61747572653a20494c4c4547414c5f5349474e4154555245455243313135355061636b656442616c616e6365235f7361666542617463685472616e7366657246726f6d3a20494e56414c49445f4152524159535f4c454e475448455243313135355061636b656442616c616e6365235f63616c6c6f6e45524331313535426174636852656365697665643a20494e56414c49445f4f4e5f524543454956455f4d4553534147455369676e617475726556616c696461746f7223697356616c69645369676e61747572653a204c454e4754485f39375f5245515549524544455243313135355061636b656442616c616e6365237361666542617463685472616e7366657246726f6d3a20494e56414c49445f4f50455241544f52455243313135355061636b656442616c616e6365235f7361666542617463685472616e7366657246726f6d3a20554e444552464c4f575369676e617475726556616c696461746f7223697356616c69645369676e61747572653a20494e56414c49445f5349474e4552455243313135355061636b656442616c616e6365235f63616c6c6f6e4552433131353552656365697665643a20494e56414c49445f4f4e5f524543454956455f4d4553534147455369676e617475726556616c696461746f7223697356616c69645369676e61747572653a204c454e4754485f475245415445525f5448414e5f305f5245515549524544455243313135355061636b656442616c616e636523736166655472616e7366657246726f6d3a20494e56414c49445f524543495049454e544c696242797465732372656164427974657333323a20475245415445525f4f525f455155414c5f544f5f33325f4c454e4754485f5245515549524544455243313135355061636b656442616c616e6365235f7669657755706461746542696e56616c75653a20494e56414c49445f42494e5f57524954455f4f5045524154494f4e455243313135355061636b656442616c616e6365235f7669657755706461746542696e56616c75653a204f564552464c4f57a2646970667358221220a10f309730e7076d2a7ee5dbcd2e6a179714abe4bbf02956ebbcb072525cfa5064736f6c63430007060033",
  "linkReferences": {},
  "deployedLinkReferences": {}
}