{
  "_format": "hh-sol-artifact-1",
  "contractName": "LendingMethods",
  "sourceName": "contracts/lending/LendingMethods.sol",
  "abi": [
    {
      "anonymous": false,
      "inputs": [
        {
          "indexed": true,
          "internalType": "address",
          "name": "currency",
          "type": "address"
        },
        {
          "indexed": true,
          "internalType": "uint256",
          "name": "loanId",
          "type": "uint256"
        },
        {
          "indexed": false,
          "internalType": "uint256",
          "name": "loanAmount",
          "type": "uint256"
        },
        {
          "indexed": false,
          "internalType": "uint256",
          "name": "amountDue",
          "type": "uint256"
        },
        {
          "indexed": false,
          "internalType": "uint256",
          "name": "installmentAmount",
          "type": "uint256"
        },
        {
          "indexed": false,
          "internalType": "uint256",
          "name": "assetsValue",
          "type": "uint256"
        },
        {
          "indexed": false,
          "internalType": "uint256",
          "name": "frequencyTime",
          "type": "uint256"
        },
        {
          "indexed": false,
          "internalType": "uint256",
          "name": "frequencyTimeUnit",
          "type": "uint256"
        }
      ],
      "name": "EditLoan",
      "type": "event"
    },
    {
      "anonymous": false,
      "inputs": [
        {
          "indexed": true,
          "internalType": "address",
          "name": "requester",
          "type": "address"
        },
        {
          "indexed": true,
          "internalType": "uint256",
          "name": "loanId",
          "type": "uint256"
        },
        {
          "indexed": false,
          "internalType": "enum LendingCore.Status",
          "name": "status",
          "type": "uint8"
        }
      ],
      "name": "ItemsWithdrawn",
      "type": "event"
    },
    {
      "anonymous": false,
      "inputs": [
        {
          "indexed": true,
          "internalType": "address",
          "name": "lender",
          "type": "address"
        },
        {
          "indexed": true,
          "internalType": "uint256",
          "name": "loanId",
          "type": "uint256"
        },
        {
          "indexed": false,
          "internalType": "uint256",
          "name": "loanPaymentEnd",
          "type": "uint256"
        }
      ],
      "name": "LoanApproved",
      "type": "event"
    },
    {
      "anonymous": false,
      "inputs": [
        {
          "indexed": true,
          "internalType": "uint256",
          "name": "loanId",
          "type": "uint256"
        }
      ],
      "name": "LoanCancelled",
      "type": "event"
    },
    {
      "anonymous": false,
      "inputs": [
        {
          "indexed": true,
          "internalType": "uint256",
          "name": "loanId",
          "type": "uint256"
        },
        {
          "indexed": false,
          "internalType": "uint256",
          "name": "installmentAmount",
          "type": "uint256"
        },
        {
          "indexed": false,
          "internalType": "uint256",
          "name": "amountPaidAsInstallmentToLender",
          "type": "uint256"
        },
        {
          "indexed": false,
          "internalType": "uint256",
          "name": "interestPerInstallement",
          "type": "uint256"
        },
        {
          "indexed": false,
          "internalType": "uint256",
          "name": "interestToStaterPerInstallement",
          "type": "uint256"
        },
        {
          "indexed": false,
          "internalType": "enum LendingCore.Status",
          "name": "status",
          "type": "uint8"
        }
      ],
      "name": "LoanPayment",
      "type": "event"
    },
    {
      "anonymous": false,
      "inputs": [
        {
          "indexed": true,
          "internalType": "address",
          "name": "owner",
          "type": "address"
        },
        {
          "indexed": true,
          "internalType": "address",
          "name": "currency",
          "type": "address"
        },
        {
          "indexed": true,
          "internalType": "uint256",
          "name": "loanId",
          "type": "uint256"
        },
        {
          "indexed": false,
          "internalType": "address[]",
          "name": "nftAddressArray",
          "type": "address[]"
        },
        {
          "indexed": false,
          "internalType": "uint256[]",
          "name": "nftTokenIdArray",
          "type": "uint256[]"
        },
        {
          "indexed": false,
          "internalType": "uint8[]",
          "name": "nftTokenTypeArray",
          "type": "uint8[]"
        }
      ],
      "name": "NewLoan",
      "type": "event"
    },
    {
      "anonymous": false,
      "inputs": [
        {
          "indexed": true,
          "internalType": "address",
          "name": "previousOwner",
          "type": "address"
        },
        {
          "indexed": true,
          "internalType": "address",
          "name": "newOwner",
          "type": "address"
        }
      ],
      "name": "OwnershipTransferred",
      "type": "event"
    },
    {
      "inputs": [
        {
          "internalType": "uint256",
          "name": "loanId",
          "type": "uint256"
        }
      ],
      "name": "approveLoan",
      "outputs": [],
      "stateMutability": "payable",
      "type": "function"
    },
    {
      "inputs": [
        {
          "internalType": "uint256",
          "name": "loanId",
          "type": "uint256"
        }
      ],
      "name": "canBeTerminated",
      "outputs": [
        {
          "internalType": "bool",
          "name": "",
          "type": "bool"
        }
      ],
      "stateMutability": "view",
      "type": "function"
    },
    {
      "inputs": [
        {
          "internalType": "uint256",
          "name": "loanId",
          "type": "uint256"
        }
      ],
      "name": "cancelLoan",
      "outputs": [],
      "stateMutability": "nonpayable",
      "type": "function"
    },
    {
      "inputs": [
        {
          "internalType": "uint256",
          "name": "loanValue",
          "type": "uint256"
        },
        {
          "internalType": "uint256",
          "name": "assetsValue",
          "type": "uint256"
        }
      ],
      "name": "checkLtv",
      "outputs": [],
      "stateMutability": "view",
      "type": "function"
    },
    {
      "inputs": [
        {
          "internalType": "uint256",
          "name": "loanAmount",
          "type": "uint256"
        },
        {
          "internalType": "uint16",
          "name": "nrOfInstallments",
          "type": "uint16"
        },
        {
          "internalType": "address",
          "name": "currency",
          "type": "address"
        },
        {
          "internalType": "uint256",
          "name": "assetsValue",
          "type": "uint256"
        },
        {
          "internalType": "address[]",
          "name": "nftAddressArray",
          "type": "address[]"
        },
        {
          "internalType": "uint256[]",
          "name": "nftTokenIdArray",
          "type": "uint256[]"
        },
        {
          "internalType": "uint8[]",
          "name": "nftTokenTypeArray",
          "type": "uint8[]"
        }
      ],
      "name": "createLoan",
      "outputs": [],
      "stateMutability": "nonpayable",
      "type": "function"
    },
    {
      "inputs": [],
      "name": "discounts",
      "outputs": [
        {
          "internalType": "contract IStaterDiscounts",
          "name": "",
          "type": "address"
        }
      ],
      "stateMutability": "view",
      "type": "function"
    },
    {
      "inputs": [
        {
          "internalType": "uint256",
          "name": "loanId",
          "type": "uint256"
        },
        {
          "internalType": "uint256",
          "name": "loanAmount",
          "type": "uint256"
        },
        {
          "internalType": "uint16",
          "name": "nrOfInstallments",
          "type": "uint16"
        },
        {
          "internalType": "address",
          "name": "currency",
          "type": "address"
        },
        {
          "internalType": "uint256",
          "name": "assetsValue",
          "type": "uint256"
        },
        {
          "internalType": "uint256",
          "name": "installmentTime",
          "type": "uint256"
        }
      ],
      "name": "editLoan",
      "outputs": [],
      "stateMutability": "nonpayable",
      "type": "function"
    },
    {
      "inputs": [],
      "name": "id",
      "outputs": [
        {
          "internalType": "uint256",
          "name": "",
          "type": "uint256"
        }
      ],
      "stateMutability": "view",
      "type": "function"
    },
    {
      "inputs": [],
      "name": "interestRate",
      "outputs": [
        {
          "internalType": "uint256",
          "name": "",
          "type": "uint256"
        }
      ],
      "stateMutability": "view",
      "type": "function"
    },
    {
      "inputs": [],
      "name": "interestRateToStater",
      "outputs": [
        {
          "internalType": "uint256",
          "name": "",
          "type": "uint256"
        }
      ],
      "stateMutability": "view",
      "type": "function"
    },
    {
      "inputs": [],
      "name": "lenderFee",
      "outputs": [
        {
          "internalType": "uint32",
          "name": "",
          "type": "uint32"
        }
      ],
      "stateMutability": "view",
      "type": "function"
    },
    {
      "inputs": [],
      "name": "lendingMethodsAddress",
      "outputs": [
        {
          "internalType": "address",
          "name": "",
          "type": "address"
        }
      ],
      "stateMutability": "view",
      "type": "function"
    },
    {
      "inputs": [
        {
          "internalType": "uint256",
          "name": "",
          "type": "uint256"
        }
      ],
      "name": "loans",
      "outputs": [
        {
          "internalType": "address payable",
          "name": "borrower",
          "type": "address"
        },
        {
          "internalType": "address payable",
          "name": "lender",
          "type": "address"
        },
        {
          "internalType": "address",
          "name": "currency",
          "type": "address"
        },
        {
          "internalType": "enum LendingCore.Status",
          "name": "status",
          "type": "uint8"
        },
        {
          "internalType": "uint256",
          "name": "installmentTime",
          "type": "uint256"
        },
        {
          "internalType": "uint256",
          "name": "nrOfPayments",
          "type": "uint256"
        },
        {
          "internalType": "uint256",
          "name": "loanAmount",
          "type": "uint256"
        },
        {
          "internalType": "uint256",
          "name": "assetsValue",
          "type": "uint256"
        },
        {
          "internalType": "uint256",
          "name": "installmentAmount",
          "type": "uint256"
        },
        {
          "internalType": "uint256",
          "name": "amountDue",
          "type": "uint256"
        },
        {
          "internalType": "uint256",
          "name": "paidAmount",
          "type": "uint256"
        },
        {
          "internalType": "uint16",
          "name": "nrOfInstallments",
          "type": "uint16"
        },
        {
          "internalType": "uint8",
          "name": "defaultingLimit",
          "type": "uint8"
        }
      ],
      "stateMutability": "view",
      "type": "function"
    },
    {
      "inputs": [],
      "name": "ltv",
      "outputs": [
        {
          "internalType": "uint256",
          "name": "",
          "type": "uint256"
        }
      ],
      "stateMutability": "view",
      "type": "function"
    },
    {
      "inputs": [
        {
          "internalType": "address",
          "name": "",
          "type": "address"
        },
        {
          "internalType": "address",
          "name": "",
          "type": "address"
        },
        {
          "internalType": "uint256[]",
          "name": "",
          "type": "uint256[]"
        },
        {
          "internalType": "uint256[]",
          "name": "",
          "type": "uint256[]"
        },
        {
          "internalType": "bytes",
          "name": "",
          "type": "bytes"
        }
      ],
      "name": "onERC1155BatchReceived",
      "outputs": [
        {
          "internalType": "bytes4",
          "name": "",
          "type": "bytes4"
        }
      ],
      "stateMutability": "nonpayable",
      "type": "function"
    },
    {
      "inputs": [
        {
          "internalType": "address",
          "name": "",
          "type": "address"
        },
        {
          "internalType": "address",
          "name": "",
          "type": "address"
        },
        {
          "internalType": "uint256",
          "name": "",
          "type": "uint256"
        },
        {
          "internalType": "uint256",
          "name": "",
          "type": "uint256"
        },
        {
          "internalType": "bytes",
          "name": "",
          "type": "bytes"
        }
      ],
      "name": "onERC1155Received",
      "outputs": [
        {
          "internalType": "bytes4",
          "name": "",
          "type": "bytes4"
        }
      ],
      "stateMutability": "nonpayable",
      "type": "function"
    },
    {
      "inputs": [
        {
          "internalType": "address",
          "name": "",
          "type": "address"
        },
        {
          "internalType": "address",
          "name": "",
          "type": "address"
        },
        {
          "internalType": "uint256",
          "name": "",
          "type": "uint256"
        },
        {
          "internalType": "bytes",
          "name": "",
          "type": "bytes"
        }
      ],
      "name": "onERC721Received",
      "outputs": [
        {
          "internalType": "bytes4",
          "name": "",
          "type": "bytes4"
        }
      ],
      "stateMutability": "nonpayable",
      "type": "function"
    },
    {
      "inputs": [],
      "name": "owner",
      "outputs": [
        {
          "internalType": "address",
          "name": "",
          "type": "address"
        }
      ],
      "stateMutability": "view",
      "type": "function"
    },
    {
      "inputs": [
        {
          "internalType": "uint256",
          "name": "loanId",
          "type": "uint256"
        },
        {
          "internalType": "uint256",
          "name": "amount",
          "type": "uint256"
        }
      ],
      "name": "payLoan",
      "outputs": [],
      "stateMutability": "payable",
      "type": "function"
    },
    {
      "inputs": [
        {
          "internalType": "address",
          "name": "from",
          "type": "address"
        },
        {
          "internalType": "address payable",
          "name": "to",
          "type": "address"
        },
        {
          "internalType": "uint256[]",
          "name": "loanIds",
          "type": "uint256[]"
        }
      ],
      "name": "promissoryExchange",
      "outputs": [],
      "stateMutability": "nonpayable",
      "type": "function"
    },
    {
      "inputs": [],
      "name": "promissoryNoteAddress",
      "outputs": [
        {
          "internalType": "address",
          "name": "",
          "type": "address"
        }
      ],
      "stateMutability": "view",
      "type": "function"
    },
    {
      "inputs": [
        {
          "internalType": "uint256",
          "name": "",
          "type": "uint256"
        }
      ],
      "name": "promissoryPermissions",
      "outputs": [
        {
          "internalType": "address",
          "name": "",
          "type": "address"
        }
      ],
      "stateMutability": "view",
      "type": "function"
    },
    {
      "inputs": [],
      "name": "renounceOwnership",
      "outputs": [],
      "stateMutability": "nonpayable",
      "type": "function"
    },
    {
      "inputs": [
        {
          "internalType": "uint256[]",
          "name": "loanIds",
          "type": "uint256[]"
        },
        {
          "internalType": "address",
          "name": "sender",
          "type": "address"
        },
        {
          "internalType": "address",
          "name": "allowed",
          "type": "address"
        }
      ],
      "name": "setPromissoryPermissions",
      "outputs": [],
      "stateMutability": "nonpayable",
      "type": "function"
    },
    {
      "inputs": [
        {
          "internalType": "bytes4",
          "name": "interfaceId",
          "type": "bytes4"
        }
      ],
      "name": "supportsInterface",
      "outputs": [
        {
          "internalType": "bool",
          "name": "",
          "type": "bool"
        }
      ],
      "stateMutability": "view",
      "type": "function"
    },
    {
      "inputs": [
        {
          "internalType": "uint256",
          "name": "loanId",
          "type": "uint256"
        }
      ],
      "name": "terminateLoan",
      "outputs": [],
      "stateMutability": "nonpayable",
      "type": "function"
    },
    {
      "inputs": [
        {
          "internalType": "address",
          "name": "from",
          "type": "address"
        },
        {
          "internalType": "address",
          "name": "to",
          "type": "address"
        },
        {
          "internalType": "address[]",
          "name": "nftAddressArray",
          "type": "address[]"
        },
        {
          "internalType": "uint256[]",
          "name": "nftTokenIdArray",
          "type": "uint256[]"
        },
        {
          "internalType": "uint8[]",
          "name": "nftTokenTypeArray",
          "type": "uint8[]"
        }
      ],
      "name": "transferItems",
      "outputs": [],
      "stateMutability": "nonpayable",
      "type": "function"
    },
    {
      "inputs": [
        {
          "internalType": "address",
          "name": "newOwner",
          "type": "address"
        }
      ],
      "name": "transferOwnership",
      "outputs": [],
      "stateMutability": "nonpayable",
      "type": "function"
    },
    {
      "inputs": [
        {
          "internalType": "address",
          "name": "from",
          "type": "address"
        },
        {
          "internalType": "address payable",
          "name": "to",
          "type": "address"
        },
        {
          "internalType": "address",
          "name": "currency",
          "type": "address"
        },
        {
          "internalType": "uint256",
          "name": "qty1",
          "type": "uint256"
        },
        {
          "internalType": "uint256",
          "name": "qty2",
          "type": "uint256"
        }
      ],
      "name": "transferTokens",
      "outputs": [],
      "stateMutability": "nonpayable",
      "type": "function"
    }
  ],
  "bytecode": "0x60806040526001600555603c600655601460075560286008556064600960006101000a81548163ffffffff021916908363ffffffff1602179055503480156200004757600080fd5b5060006200005a6200013760201b60201c565b9050806000806101000a81548173ffffffffffffffffffffffffffffffffffffffff021916908373ffffffffffffffffffffffffffffffffffffffff1602179055508073ffffffffffffffffffffffffffffffffffffffff16600073ffffffffffffffffffffffffffffffffffffffff167f8be0079c531659141344cd1fd0a4f28419497f9722a3daafe3b4186f6b6457e060405160405180910390a350620001106301ffc9a760e01b6200013f60201b60201c565b6200013163bc197c8160e01b63f23a6e6160e01b186200013f60201b60201c565b62000248565b600033905090565b63ffffffff60e01b817bffffffffffffffffffffffffffffffffffffffffffffffffffffffff19161415620001dc576040517f08c379a000000000000000000000000000000000000000000000000000000000815260040180806020018281038252601c8152602001807f4552433136353a20696e76616c696420696e746572666163652069640000000081525060200191505060405180910390fd5b6001806000837bffffffffffffffffffffffffffffffffffffffffffffffffffffffff19167bffffffffffffffffffffffffffffffffffffffffffffffffffffffff1916815260200190815260200160002060006101000a81548160ff02191690831515021790555050565b6150dc80620002586000396000f3fe6080604052600436106101c25760003560e01c80637fb9fe3d116100f7578063af640d0f11610095578063e1ec3c6811610064578063e1ec3c6814610fb4578063e70c7446146110ab578063f23a6e61146110fc578063f2fde38b1461124b576101c2565b8063af640d0f14610c25578063bc197c8114610c50578063bdbfa3de14610eb3578063de4f846c14610eee576101c2565b80638ca83f07116100d15780638ca83f0714610b5a5780638da5cb5b14610b8b5780638f82927514610bcc578063aadc1ac114610bf7576101c2565b80637fb9fe3d14610aa25780638771558814610add57806389306e6114610b22576101c2565b806338daa789116101645780636fb49d731161013e5780636fb49d73146109f4578063715018a614610a1f57806375af65d114610a365780637c3a00fd14610a77576101c2565b806338daa789146106ff578063407299d7146107405780634b69cd6c1461096d576101c2565b806324c93fe5116101a057806324c93fe5146103bd5780632530919d14610422578063277c15ff146104e85780632e3f4a5d1461065a576101c2565b806301ffc9a7146101c757806313c75b5b14610237578063150b7a0214610278575b600080fd5b3480156101d357600080fd5b5061021f600480360360208110156101ea57600080fd5b8101908080357bffffffffffffffffffffffffffffffffffffffffffffffffffffffff1916906020019092919050505061129c565b60405180821515815260200191505060405180910390f35b34801561024357600080fd5b5061024c611304565b604051808273ffffffffffffffffffffffffffffffffffffffff16815260200191505060405180910390f35b34801561028457600080fd5b506103886004803603608081101561029b57600080fd5b81019080803573ffffffffffffffffffffffffffffffffffffffff169060200190929190803573ffffffffffffffffffffffffffffffffffffffff169060200190929190803590602001909291908035906020019064010000000081111561030257600080fd5b82018360208201111561031457600080fd5b8035906020019184600183028401116401000000008311171561033657600080fd5b91908080601f016020809104026020016040519081016040528093929190818152602001838380828437600081840152601f19601f82011690508083019250505050505050919291929050505061132a565b60405180827bffffffffffffffffffffffffffffffffffffffffffffffffffffffff1916815260200191505060405180910390f35b3480156103c957600080fd5b506103f6600480360360208110156103e057600080fd5b810190808035906020019092919050505061133e565b604051808273ffffffffffffffffffffffffffffffffffffffff16815260200191505060405180910390f35b34801561042e57600080fd5b506104e66004803603606081101561044557600080fd5b81019080803573ffffffffffffffffffffffffffffffffffffffff169060200190929190803573ffffffffffffffffffffffffffffffffffffffff169060200190929190803590602001906401000000008111156104a257600080fd5b8201836020820111156104b457600080fd5b803590602001918460208302840111640100000000831117156104d657600080fd5b9091929391929390505050611371565b005b3480156104f457600080fd5b50610658600480360360e081101561050b57600080fd5b8101908080359060200190929190803561ffff169060200190929190803573ffffffffffffffffffffffffffffffffffffffff169060200190929190803590602001909291908035906020019064010000000081111561056a57600080fd5b82018360208201111561057c57600080fd5b8035906020019184602083028401116401000000008311171561059e57600080fd5b9091929391929390803590602001906401000000008111156105bf57600080fd5b8201836020820111156105d157600080fd5b803590602001918460208302840111640100000000831117156105f357600080fd5b90919293919293908035906020019064010000000081111561061457600080fd5b82018360208201111561062657600080fd5b8035906020019184602083028401116401000000008311171561064857600080fd5b9091929391929390505050611674565b005b34801561066657600080fd5b506106fd600480360360a081101561067d57600080fd5b81019080803573ffffffffffffffffffffffffffffffffffffffff169060200190929190803573ffffffffffffffffffffffffffffffffffffffff169060200190929190803573ffffffffffffffffffffffffffffffffffffffff1690602001909291908035906020019092919080359060200190929190505050611caa565b005b34801561070b57600080fd5b50610714612068565b604051808273ffffffffffffffffffffffffffffffffffffffff16815260200191505060405180910390f35b34801561074c57600080fd5b5061096b600480360360a081101561076357600080fd5b81019080803573ffffffffffffffffffffffffffffffffffffffff169060200190929190803573ffffffffffffffffffffffffffffffffffffffff169060200190929190803590602001906401000000008111156107c057600080fd5b8201836020820111156107d257600080fd5b803590602001918460208302840111640100000000831117156107f457600080fd5b919080806020026020016040519081016040528093929190818152602001838360200280828437600081840152601f19601f8201169050808301925050505050505091929192908035906020019064010000000081111561085457600080fd5b82018360208201111561086657600080fd5b8035906020019184602083028401116401000000008311171561088857600080fd5b919080806020026020016040519081016040528093929190818152602001838360200280828437600081840152601f19601f820116905080830192505050505050509192919290803590602001906401000000008111156108e857600080fd5b8201836020820111156108fa57600080fd5b8035906020019184602083028401116401000000008311171561091c57600080fd5b919080806020026020016040519081016040528093929190818152602001838360200280828437600081840152601f19601f82011690508083019250505050505050919291929050505061208e565b005b34801561097957600080fd5b506109f2600480360360c081101561099057600080fd5b810190808035906020019092919080359060200190929190803561ffff169060200190929190803573ffffffffffffffffffffffffffffffffffffffff1690602001909291908035906020019092919080359060200190929190505050612336565b005b348015610a0057600080fd5b50610a09612784565b6040518082815260200191505060405180910390f35b348015610a2b57600080fd5b50610a3461278a565b005b348015610a4257600080fd5b50610a4b612910565b604051808273ffffffffffffffffffffffffffffffffffffffff16815260200191505060405180910390f35b348015610a8357600080fd5b50610a8c612936565b6040518082815260200191505060405180910390f35b348015610aae57600080fd5b50610adb60048036036020811015610ac557600080fd5b810190808035906020019092919050505061293c565b005b348015610ae957600080fd5b50610b2060048036036040811015610b0057600080fd5b810190808035906020019092919080359060200190929190505050613297565b005b610b5860048036036040811015610b3857600080fd5b810190808035906020019092919080359060200190929190505050613338565b005b348015610b6657600080fd5b50610b6f6139aa565b604051808263ffffffff16815260200191505060405180910390f35b348015610b9757600080fd5b50610ba06139c0565b604051808273ffffffffffffffffffffffffffffffffffffffff16815260200191505060405180910390f35b348015610bd857600080fd5b50610be16139e9565b6040518082815260200191505060405180910390f35b610c2360048036036020811015610c0d57600080fd5b81019080803590602001909291905050506139ef565b005b348015610c3157600080fd5b50610c3a613f18565b6040518082815260200191505060405180910390f35b348015610c5c57600080fd5b50610e7e600480360360a0811015610c7357600080fd5b81019080803573ffffffffffffffffffffffffffffffffffffffff169060200190929190803573ffffffffffffffffffffffffffffffffffffffff16906020019092919080359060200190640100000000811115610cd057600080fd5b820183602082011115610ce257600080fd5b80359060200191846020830284011164010000000083111715610d0457600080fd5b919080806020026020016040519081016040528093929190818152602001838360200280828437600081840152601f19601f82011690508083019250505050505050919291929080359060200190640100000000811115610d6457600080fd5b820183602082011115610d7657600080fd5b80359060200191846020830284011164010000000083111715610d9857600080fd5b919080806020026020016040519081016040528093929190818152602001838360200280828437600081840152601f19601f82011690508083019250505050505050919291929080359060200190640100000000811115610df857600080fd5b820183602082011115610e0a57600080fd5b80359060200191846001830284011164010000000083111715610e2c57600080fd5b91908080601f016020809104026020016040519081016040528093929190818152602001838380828437600081840152601f19601f820116905080830192505050505050509192919290505050613f1e565b60405180827bffffffffffffffffffffffffffffffffffffffffffffffffffffffff1916815260200191505060405180910390f35b348015610ebf57600080fd5b50610eec60048036036020811015610ed657600080fd5b8101908080359060200190929190505050613f33565b005b348015610efa57600080fd5b50610fb260048036036060811015610f1157600080fd5b8101908080359060200190640100000000811115610f2e57600080fd5b820183602082011115610f4057600080fd5b80359060200191846020830284011164010000000083111715610f6257600080fd5b9091929391929390803573ffffffffffffffffffffffffffffffffffffffff169060200190929190803573ffffffffffffffffffffffffffffffffffffffff1690602001909291905050506142d0565b005b348015610fc057600080fd5b50610fed60048036036020811015610fd757600080fd5b8101908080359060200190929190505050614524565b604051808e73ffffffffffffffffffffffffffffffffffffffff1681526020018d73ffffffffffffffffffffffffffffffffffffffff1681526020018c73ffffffffffffffffffffffffffffffffffffffff1681526020018b600481111561105157fe5b81526020018a81526020018981526020018881526020018781526020018681526020018581526020018481526020018361ffff1681526020018260ff1681526020019d505050505050505050505050505060405180910390f35b3480156110b757600080fd5b506110e4600480360360208110156110ce57600080fd5b8101908080359060200190929190505050614612565b60405180821515815260200191505060405180910390f35b34801561110857600080fd5b50611216600480360360a081101561111f57600080fd5b81019080803573ffffffffffffffffffffffffffffffffffffffff169060200190929190803573ffffffffffffffffffffffffffffffffffffffff16906020019092919080359060200190929190803590602001909291908035906020019064010000000081111561119057600080fd5b8201836020820111156111a257600080fd5b803590602001918460018302840111640100000000831117156111c457600080fd5b91908080601f016020809104026020016040519081016040528093929190818152602001838380828437600081840152601f19601f8201169050808301925050505050505091929192905050506147cd565b60405180827bffffffffffffffffffffffffffffffffffffffffffffffffffffffff1916815260200191505060405180910390f35b34801561125757600080fd5b5061129a6004803603602081101561126e57600080fd5b81019080803573ffffffffffffffffffffffffffffffffffffffff1690602001909291905050506147e2565b005b600060016000837bffffffffffffffffffffffffffffffffffffffffffffffffffffffff19167bffffffffffffffffffffffffffffffffffffffffffffffffffffffff1916815260200190815260200160002060009054906101000a900460ff169050919050565b600260009054906101000a900473ffffffffffffffffffffffffffffffffffffffff1681565b600063150b7a0260e01b9050949350505050565b600b6020528060005260406000206000915054906101000a900473ffffffffffffffffffffffffffffffffffffffff1681565b600260009054906101000a900473ffffffffffffffffffffffffffffffffffffffff1673ffffffffffffffffffffffffffffffffffffffff163373ffffffffffffffffffffffffffffffffffffffff1614611434576040517f08c379a000000000000000000000000000000000000000000000000000000000815260040180806020018281038252601e8152602001807f4c656e64696e67204d6574686f64733a204163636573732064656e696564000081525060200191505060405180910390fd5b60005b8282905081101561166d578473ffffffffffffffffffffffffffffffffffffffff16600a600085858581811061146957fe5b90506020020135815260200190815260200160002060020160009054906101000a900473ffffffffffffffffffffffffffffffffffffffff1673ffffffffffffffffffffffffffffffffffffffff16146114c257600080fd5b600160048111156114cf57fe5b600a60008585858181106114df57fe5b90506020020135815260200190815260200160002060030160149054906101000a900460ff16600481111561151057fe5b1461151a57600080fd5b8473ffffffffffffffffffffffffffffffffffffffff16600b600085858581811061154157fe5b90506020020135815260200190815260200160002060009054906101000a900473ffffffffffffffffffffffffffffffffffffffff1673ffffffffffffffffffffffffffffffffffffffff161461159757600080fd5b83600a60008585858181106115a857fe5b90506020020135815260200190815260200160002060020160006101000a81548173ffffffffffffffffffffffffffffffffffffffff021916908373ffffffffffffffffffffffffffffffffffffffff16021790555083600b600085858581811061160f57fe5b90506020020135815260200190815260200160002060006101000a81548173ffffffffffffffffffffffffffffffffffffffff021916908373ffffffffffffffffffffffffffffffffffffffff160217905550806001019050611437565b5050505050565b60008961ffff16118015611688575060008a115b80156116975750600086869050115b6116a057600080fd5b83839050868690501480156116ba57508181905084849050145b6116c357600080fd5b86600a60006005548152602001908152602001600020600801819055506117028a600a6000600554815260200190815260200160002060080154613297565b60038961ffff1611611745576001600a60006005548152602001908152602001600020600e0160026101000a81548160ff021916908360ff1602179055506117c9565b60058961ffff1611611788576002600a60006005548152602001908152602001600020600e0160026101000a81548160ff021916908360ff1602179055506117c8565b60068961ffff16106117c7576003600a60006005548152602001908152602001600020600e0160026101000a81548160ff021916908360ff1602179055505b5b5b8383600a6000600554815260200190815260200160002060040191906117f0929190614e41565b5089600a6000600554815260200190815260200160002060070181905550611849606461183b61182c60646007546149ed90919063ffffffff16565b8d614a7590919063ffffffff16565b614afb90919063ffffffff16565b600a60006005548152602001908152602001600020600c018190555088600a60006005548152602001908152602001600020600e0160006101000a81548161ffff021916908361ffff16021790555060006118c98a61ffff16600a60006005548152602001908152602001600020600c0154614b4590919063ffffffff16565b11611902576118fd8961ffff16600a60006005548152602001908152602001600020600c0154614afb90919063ffffffff16565b611945565b61194460016119368b61ffff16600a60006005548152602001908152602001600020600c0154614afb90919063ffffffff16565b6149ed90919063ffffffff16565b5b600a60006005548152602001908152602001600020600b01819055506000600a6000600554815260200190815260200160002060030160146101000a81548160ff0219169083600481111561199657fe5b02179055508585600a6000600554815260200190815260200160002060000191906119c2929190614e8e565b5033600a6000600554815260200190815260200160002060010160006101000a81548173ffffffffffffffffffffffffffffffffffffffff021916908373ffffffffffffffffffffffffffffffffffffffff16021790555087600a6000600554815260200190815260200160002060030160006101000a81548173ffffffffffffffffffffffffffffffffffffffff021916908373ffffffffffffffffffffffffffffffffffffffff1602179055508181600a60006005548152602001908152602001600020600f019190611a98929190614f2e565b5062093a80600a6000600554815260200190815260200160002060050181905550611b893330888880806020026020016040519081016040528093929190818152602001838360200280828437600081840152601f19601f82011690508083019250505050505050878780806020026020016040519081016040528093929190818152602001838360200280828437600081840152601f19601f82011690508083019250505050505050868680806020026020016040519081016040528093929190818152602001838360200280828437600081840152601f19601f8201169050808301925050505050505061208e565b6005548873ffffffffffffffffffffffffffffffffffffffff163373ffffffffffffffffffffffffffffffffffffffff167f06b4fa68493c57d0a3bcfe8fd7db7297b3f4ed7c3f730fd563791eaafa27439d8989898989896040518080602001806020018060200184810384528a8a82818152602001925060200280828437600081840152601f19601f8201169050808301925050508481038352888882818152602001925060200280828437600081840152601f19601f8201169050808301925050508481038252868682818152602001925060200280828437600081840152601f19601f820116905080830192505050995050505050505050505060405180910390a46005600081546001019190508190555050505050505050505050565b600073ffffffffffffffffffffffffffffffffffffffff168373ffffffffffffffffffffffffffffffffffffffff1614611f28578273ffffffffffffffffffffffffffffffffffffffff166323b872dd8686856040518463ffffffff1660e01b8152600401808473ffffffffffffffffffffffffffffffffffffffff1681526020018373ffffffffffffffffffffffffffffffffffffffff1681526020018281526020019350505050602060405180830381600087803b158015611d6d57600080fd5b505af1158015611d81573d6000803e3d6000fd5b505050506040513d6020811015611d9757600080fd5b8101908080519060200190929190505050611dfd576040517f08c379a000000000000000000000000000000000000000000000000000000000815260040180806020018281038252602581526020018061501c6025913960400191505060405180910390fd5b8273ffffffffffffffffffffffffffffffffffffffff166323b872dd86611e226139c0565b846040518463ffffffff1660e01b8152600401808473ffffffffffffffffffffffffffffffffffffffff1681526020018373ffffffffffffffffffffffffffffffffffffffff1681526020018281526020019350505050602060405180830381600087803b158015611e9357600080fd5b505af1158015611ea7573d6000803e3d6000fd5b505050506040513d6020811015611ebd57600080fd5b8101908080519060200190929190505050611f23576040517f08c379a00000000000000000000000000000000000000000000000000000000081526004018080602001828103825260238152602001806150846023913960400191505060405180910390fd5b612061565b8373ffffffffffffffffffffffffffffffffffffffff166108fc839081150290604051600060405180830381858888f19350505050611fb2576040517f08c379a00000000000000000000000000000000000000000000000000000000081526004018080602001828103825260228152602001806150416022913960400191505060405180910390fd5b611fba6139c0565b73ffffffffffffffffffffffffffffffffffffffff166108fc829081150290604051600060405180830381858888f19350505050612060576040517f08c379a00000000000000000000000000000000000000000000000000000000081526004018080602001828103825260208152602001807f5472616e73666572206f662045544820746f20537461746572206661696c656481525060200191505060405180910390fd5b5b5050505050565b600360009054906101000a900473ffffffffffffffffffffffffffffffffffffffff1681565b6000835190508251811480156120a45750808251145b612116576040517f08c379a00000000000000000000000000000000000000000000000000000000081526004018080602001828103825260208152602001807f546f6b656e20696e666f732070726f76696465642061726520696e76616c696481525060200191505060405180910390fd5b60005b8181101561232d57600083828151811061212f57fe5b602002602001015160ff1614156122125784818151811061214c57fe5b602002602001015173ffffffffffffffffffffffffffffffffffffffff166342842e0e888887858151811061217d57fe5b60200260200101516040518463ffffffff1660e01b8152600401808473ffffffffffffffffffffffffffffffffffffffff1681526020018373ffffffffffffffffffffffffffffffffffffffff1681526020018281526020019350505050600060405180830381600087803b1580156121f557600080fd5b505af1158015612209573d6000803e3d6000fd5b50505050612322565b84818151811061221e57fe5b602002602001015173ffffffffffffffffffffffffffffffffffffffff1663f242432a888887858151811061224f57fe5b602002602001015160016040518563ffffffff1660e01b8152600401808573ffffffffffffffffffffffffffffffffffffffff1681526020018473ffffffffffffffffffffffffffffffffffffffff16815260200183815260200182815260200180602001828103825260048152602001807f307830300000000000000000000000000000000000000000000000000000000081525060200195505050505050600060405180830381600087803b15801561230957600080fd5b505af115801561231d573d6000803e3d6000fd5b505050505b806001019050612119565b50505050505050565b60008461ffff1611801561234a5750600085115b61235357600080fd5b3373ffffffffffffffffffffffffffffffffffffffff16600a600088815260200190815260200160002060010160009054906101000a900473ffffffffffffffffffffffffffffffffffffffff1673ffffffffffffffffffffffffffffffffffffffff16146123c157600080fd5b600160048111156123ce57fe5b600a600088815260200190815260200160002060030160149054906101000a900460ff1660048111156123fd57fe5b1061240757600080fd5b6124118583613297565b80600a60008881526020019081526020016000206005018190555084600a600088815260200190815260200160002060070181905550612482606461247461246560646007546149ed90919063ffffffff16565b88614a7590919063ffffffff16565b614afb90919063ffffffff16565b600a6000888152602001908152602001600020600c018190555060006124cb8561ffff16600a60008a8152602001908152602001600020600c0154614b4590919063ffffffff16565b11612502576124fd8461ffff16600a6000898152602001908152602001600020600c0154614afb90919063ffffffff16565b612543565b61254260016125348661ffff16600a60008b8152602001908152602001600020600c0154614afb90919063ffffffff16565b6149ed90919063ffffffff16565b5b600a6000888152602001908152602001600020600b018190555081600a60008881526020019081526020016000206008018190555083600a6000888152602001908152602001600020600e0160006101000a81548161ffff021916908361ffff16021790555082600a600088815260200190815260200160002060030160006101000a81548173ffffffffffffffffffffffffffffffffffffffff021916908373ffffffffffffffffffffffffffffffffffffffff16021790555060038461ffff161161263f576001600a6000888152602001908152602001600020600e0160026101000a81548160ff021916908360ff1602179055506126bf565b60058461ffff1611612680576002600a6000888152602001908152602001600020600e0160026101000a81548160ff021916908360ff1602179055506126be565b60068461ffff16106126bd576003600a6000888152602001908152602001600020600e0160026101000a81548160ff021916908360ff1602179055505b5b5b858373ffffffffffffffffffffffffffffffffffffffff167f8e1902f1b79a83752dd0c0b34c25d3d3b241fba59defc28b8fb8e182360136d187600a60008b8152602001908152602001600020600c0154600a60008c8152602001908152602001600020600b0154600a60008d815260200190815260200160002060080154878b604051808781526020018681526020018581526020018481526020018381526020018261ffff168152602001965050505050505060405180910390a3505050505050565b60065481565b612792614b8f565b73ffffffffffffffffffffffffffffffffffffffff1660008054906101000a900473ffffffffffffffffffffffffffffffffffffffff1673ffffffffffffffffffffffffffffffffffffffff1614612852576040517f08c379a00000000000000000000000000000000000000000000000000000000081526004018080602001828103825260208152602001807f4f776e61626c653a2063616c6c6572206973206e6f7420746865206f776e657281525060200191505060405180910390fd5b600073ffffffffffffffffffffffffffffffffffffffff1660008054906101000a900473ffffffffffffffffffffffffffffffffffffffff1673ffffffffffffffffffffffffffffffffffffffff167f8be0079c531659141344cd1fd0a4f28419497f9722a3daafe3b4186f6b6457e060405160405180910390a360008060006101000a81548173ffffffffffffffffffffffffffffffffffffffff021916908373ffffffffffffffffffffffffffffffffffffffff160217905550565b600460009054906101000a900473ffffffffffffffffffffffffffffffffffffffff1681565b60075481565b600a600082815260200190815260200160002060010160009054906101000a900473ffffffffffffffffffffffffffffffffffffffff1673ffffffffffffffffffffffffffffffffffffffff163373ffffffffffffffffffffffffffffffffffffffff161480612a0d5750600a600082815260200190815260200160002060020160009054906101000a900473ffffffffffffffffffffffffffffffffffffffff1673ffffffffffffffffffffffffffffffffffffffff163373ffffffffffffffffffffffffffffffffffffffff16145b612a1657600080fd5b600480811115612a2257fe5b600a600083815260200190815260200160002060030160149054906101000a900460ff166004811115612a5157fe5b1415612a5c57600080fd5b600a6000828152602001908152602001600020600901600160028110612a7e57fe5b015442101580612aba5750600a6000828152602001908152602001600020600c0154600a6000838152602001908152602001600020600d015410155b80612aca5750612ac981614612565b5b612ad357600080fd5b60026004811115612ae057fe5b600a600083815260200190815260200160002060030160149054906101000a900460ff166004811115612b0f57fe5b1480612b54575060016004811115612b2357fe5b600a600083815260200190815260200160002060030160149054906101000a900460ff166004811115612b5257fe5b145b612b5d57600080fd5b612b6681614612565b15612d73576004600a600083815260200190815260200160002060030160146101000a81548160ff02191690836004811115612b9e57fe5b0217905550612d6e30600a600084815260200190815260200160002060020160009054906101000a900473ffffffffffffffffffffffffffffffffffffffff16600a6000858152602001908152602001600020600001805480602002602001604051908101604052809291908181526020018280548015612c7457602002820191906000526020600020905b8160009054906101000a900473ffffffffffffffffffffffffffffffffffffffff1673ffffffffffffffffffffffffffffffffffffffff1681526020019060010190808311612c2a575b5050505050600a6000868152602001908152602001600020600401805480602002602001604051908101604052809291908181526020018280548015612cd957602002820191906000526020600020905b815481526020019060010190808311612cc5575b5050505050600a6000878152602001908152602001600020600f01805480602002602001604051908101604052809291908181526020018280548015612d6457602002820191906000526020600020906000905b82829054906101000a900460ff1660ff1681526020019060010190602082600001049283019260010382029150808411612d2d5790505b505050505061208e565b613217565b600a6000828152602001908152602001600020600901600160028110612d9557fe5b01544210158015612dd15750600a6000828152602001908152602001600020600c0154600a6000838152602001908152602001600020600d0154105b15612fde576004600a600083815260200190815260200160002060030160146101000a81548160ff02191690836004811115612e0957fe5b0217905550612fd930600a600084815260200190815260200160002060020160009054906101000a900473ffffffffffffffffffffffffffffffffffffffff16600a6000858152602001908152602001600020600001805480602002602001604051908101604052809291908181526020018280548015612edf57602002820191906000526020600020905b8160009054906101000a900473ffffffffffffffffffffffffffffffffffffffff1673ffffffffffffffffffffffffffffffffffffffff1681526020019060010190808311612e95575b5050505050600a6000868152602001908152602001600020600401805480602002602001604051908101604052809291908181526020018280548015612f4457602002820191906000526020600020905b815481526020019060010190808311612f30575b5050505050600a6000878152602001908152602001600020600f01805480602002602001604051908101604052809291908181526020018280548015612fcf57602002820191906000526020600020906000905b82829054906101000a900460ff1660ff1681526020019060010190602082600001049283019260010382029150808411612f985790505b505050505061208e565b613216565b600a6000828152602001908152602001600020600c0154600a6000838152602001908152602001600020600d015410613215576004600a600083815260200190815260200160002060030160146101000a81548160ff0219169083600481111561304457fe5b021790555061321430600a600084815260200190815260200160002060010160009054906101000a900473ffffffffffffffffffffffffffffffffffffffff16600a600085815260200190815260200160002060000180548060200260200160405190810160405280929190818152602001828054801561311a57602002820191906000526020600020905b8160009054906101000a900473ffffffffffffffffffffffffffffffffffffffff1673ffffffffffffffffffffffffffffffffffffffff16815260200190600101908083116130d0575b5050505050600a600086815260200190815260200160002060040180548060200260200160405190810160405280929190818152602001828054801561317f57602002820191906000526020600020905b81548152602001906001019080831161316b575b5050505050600a6000878152602001908152602001600020600f0180548060200260200160405190810160405280929190818152602001828054801561320a57602002820191906000526020600020906000905b82829054906101000a900460ff1660ff16815260200190600101906020826000010492830192600103820291508084116131d35790505b505050505061208e565b5b5b5b803373ffffffffffffffffffffffffffffffffffffffff167f174efca9557ce00d5a6f26355f73e3873fed7d6f8248757750569e4699146c67600a600085815260200190815260200160002060030160149054906101000a900460ff166040518082600481111561328457fe5b815260200191505060405180910390a350565b6132bf6006546132b1606484614afb90919063ffffffff16565b614a7590919063ffffffff16565b821115613334576040517f08c379a000000000000000000000000000000000000000000000000000000000815260040180806020018281038252600c8152602001807f4c545620746f6f2068696768000000000000000000000000000000000000000081525060200191505060405180910390fd5b5050565b3373ffffffffffffffffffffffffffffffffffffffff16600a600084815260200190815260200160002060010160009054906101000a900473ffffffffffffffffffffffffffffffffffffffff1673ffffffffffffffffffffffffffffffffffffffff16146133a657600080fd5b600160048111156133b357fe5b600a600084815260200190815260200160002060030160149054906101000a900460ff1660048111156133e257fe5b146133ec57600080fd5b42600a600084815260200190815260200160002060090160016002811061340f57fe5b0154101561341c57600080fd5b60003411801561348e5750600073ffffffffffffffffffffffffffffffffffffffff16600a600084815260200190815260200160002060030160009054906101000a900473ffffffffffffffffffffffffffffffffffffffff1673ffffffffffffffffffffffffffffffffffffffff16145b801561349957508034145b8061351f5750600073ffffffffffffffffffffffffffffffffffffffff16600a600084815260200190815260200160002060030160009054906101000a900473ffffffffffffffffffffffffffffffffffffffff1673ffffffffffffffffffffffffffffffffffffffff16141580156135125750600034145b801561351e5750600081115b5b61352857600080fd5b60008034116135375781613539565b345b90506000819050600061356a606461355c60075486614a7590919063ffffffff16565b614afb90919063ffffffff16565b90506000600460009054906101000a900473ffffffffffffffffffffffffffffffffffffffff1673ffffffffffffffffffffffffffffffffffffffff1663ad6a8745336040518263ffffffff1660e01b8152600401808273ffffffffffffffffffffffffffffffffffffffff16815260200191505060206040518083038186803b1580156135f757600080fd5b505afa15801561360b573d6000803e3d6000fd5b505050506040513d602081101561362157600080fd5b81019080805190602001909291905050509050600061365e606461365060085486614a7590919063ffffffff16565b614afb90919063ffffffff16565b90506001821461377357600073ffffffffffffffffffffffffffffffffffffffff16600a600089815260200190815260200160002060030160009054906101000a900473ffffffffffffffffffffffffffffffffffffffff1673ffffffffffffffffffffffffffffffffffffffff16141561374b573373ffffffffffffffffffffffffffffffffffffffff166108fc6137008484614afb90919063ffffffff16565b9081150290604051600060405180830381858888f1935050505061372357600080fd5b6137486137398383614afb90919063ffffffff16565b85614b9790919063ffffffff16565b93505b6137706137618383614afb90919063ffffffff16565b82614b9790919063ffffffff16565b90505b6137868185614b9790919063ffffffff16565b93506137b185600a60008a8152602001908152602001600020600d01546149ed90919063ffffffff16565b600a6000898152602001908152602001600020600d018190555061381c6137f7600a60008a8152602001908152602001600020600b015487614afb90919063ffffffff16565b600a60008a8152602001908152602001600020600601546149ed90919063ffffffff16565b600a600089815260200190815260200160002060060181905550600a6000888152602001908152602001600020600c0154600a6000898152602001908152602001600020600d0154106138a2576002600a600089815260200190815260200160002060030160146101000a81548160ff0219169083600481111561389c57fe5b02179055505b61391b33600a60008a815260200190815260200160002060020160009054906101000a900473ffffffffffffffffffffffffffffffffffffffff16600a60008b815260200190815260200160002060030160009054906101000a900473ffffffffffffffffffffffffffffffffffffffff168785611caa565b867fb5c84f6603b8d7669dbbe31fd93a237657c42054c0b237b7d4215fa463523b5b34868685600a60008e815260200190815260200160002060030160149054906101000a900460ff166040518086815260200185815260200184815260200183815260200182600481111561398d57fe5b81526020019550505050505060405180910390a250505050505050565b600960009054906101000a900463ffffffff1681565b60008060009054906101000a900473ffffffffffffffffffffffffffffffffffffffff16905090565b60085481565b600073ffffffffffffffffffffffffffffffffffffffff16600a600083815260200190815260200160002060020160009054906101000a900473ffffffffffffffffffffffffffffffffffffffff1673ffffffffffffffffffffffffffffffffffffffff1614613a5e57600080fd5b6000600a6000838152602001908152602001600020600d015414613a8157600080fd5b60006004811115613a8e57fe5b600a600083815260200190815260200160002060030160149054906101000a900460ff166004811115613abd57fe5b14613ac757600080fd5b33600a600083815260200190815260200160002060020160006101000a81548173ffffffffffffffffffffffffffffffffffffffff021916908373ffffffffffffffffffffffffffffffffffffffff160217905550613b7f613b70600a600084815260200190815260200160002060050154600a6000858152602001908152602001600020600e0160009054906101000a900461ffff1661ffff16614a7590919063ffffffff16565b426149ed90919063ffffffff16565b600a6000838152602001908152602001600020600901600160028110613ba157fe5b01819055506001600a600083815260200190815260200160002060030160146101000a81548160ff02191690836004811115613bd957fe5b021790555042600a6000838152602001908152602001600020600901600060028110613c0157fe5b01819055506000600460009054906101000a900473ffffffffffffffffffffffffffffffffffffffff1673ffffffffffffffffffffffffffffffffffffffff1663ad6a8745336040518263ffffffff1660e01b8152600401808273ffffffffffffffffffffffffffffffffffffffff16815260200191505060206040518083038186803b158015613c9157600080fd5b505afa158015613ca5573d6000803e3d6000fd5b505050506040513d6020811015613cbb57600080fd5b81019080805190602001909291905050509050600073ffffffffffffffffffffffffffffffffffffffff16600a600084815260200190815260200160002060030160009054906101000a900473ffffffffffffffffffffffffffffffffffffffff1673ffffffffffffffffffffffffffffffffffffffff161415613dc157613db4613d8f82613d81600960009054906101000a900463ffffffff1663ffffffff16600a600088815260200190815260200160002060070154614afb90919063ffffffff16565b614afb90919063ffffffff16565b600a6000858152602001908152602001600020600701546149ed90919063ffffffff16565b341015613dc057600080fd5b5b613ea233600a600085815260200190815260200160002060010160009054906101000a900473ffffffffffffffffffffffffffffffffffffffff16600a600086815260200190815260200160002060030160009054906101000a900473ffffffffffffffffffffffffffffffffffffffff16600a600087815260200190815260200160002060070154613e9d86613e8f600960009054906101000a900463ffffffff1663ffffffff16600a60008c815260200190815260200160002060070154614afb90919063ffffffff16565b614afb90919063ffffffff16565b611caa565b813373ffffffffffffffffffffffffffffffffffffffff167f1a8ecea83cbcff0f4c46b7e42f55227161863220eb7d439fde442dfdc0ddbc4e600a6000868152602001908152602001600020600901600160028110613efd57fe5b01546040518082815260200191505060405180910390a35050565b60055481565b600063bc197c8160e01b905095945050505050565b600073ffffffffffffffffffffffffffffffffffffffff16600a600083815260200190815260200160002060020160009054906101000a900473ffffffffffffffffffffffffffffffffffffffff1673ffffffffffffffffffffffffffffffffffffffff1614613fa257600080fd5b3373ffffffffffffffffffffffffffffffffffffffff16600a600083815260200190815260200160002060010160009054906101000a900473ffffffffffffffffffffffffffffffffffffffff1673ffffffffffffffffffffffffffffffffffffffff161461401057600080fd5b6003600481111561401d57fe5b600a600083815260200190815260200160002060030160149054906101000a900460ff16600481111561404c57fe5b141561405757600080fd5b6000600481111561406457fe5b600a600083815260200190815260200160002060030160149054906101000a900460ff16600481111561409357fe5b1461409d57600080fd5b6003600a600083815260200190815260200160002060030160146101000a81548160ff021916908360048111156140d057fe5b02179055506142a030600a600084815260200190815260200160002060010160009054906101000a900473ffffffffffffffffffffffffffffffffffffffff16600a60008581526020019081526020016000206000018054806020026020016040519081016040528092919081815260200182805480156141a657602002820191906000526020600020905b8160009054906101000a900473ffffffffffffffffffffffffffffffffffffffff1673ffffffffffffffffffffffffffffffffffffffff168152602001906001019080831161415c575b5050505050600a600086815260200190815260200160002060040180548060200260200160405190810160405280929190818152602001828054801561420b57602002820191906000526020600020905b8154815260200190600101908083116141f7575b5050505050600a6000878152602001908152602001600020600f0180548060200260200160405190810160405280929190818152602001828054801561429657602002820191906000526020600020906000905b82829054906101000a900460ff1660ff168152602001906001019060208260000104928301926001038202915080841161425f5790505b505050505061208e565b807fb71becc91961a6b43bcc5b3b630f3dce02c7fd444cf3738c4f188062b1caf5bc60405160405180910390a250565b600260009054906101000a900473ffffffffffffffffffffffffffffffffffffffff1673ffffffffffffffffffffffffffffffffffffffff163373ffffffffffffffffffffffffffffffffffffffff1614614393576040517f08c379a000000000000000000000000000000000000000000000000000000000815260040180806020018281038252601e8152602001807f4c656e64696e67204d6574686f64733a204163636573732064656e696564000081525060200191505060405180910390fd5b60005b8484905081101561451d578273ffffffffffffffffffffffffffffffffffffffff16600a60008787858181106143c857fe5b90506020020135815260200190815260200160002060020160009054906101000a900473ffffffffffffffffffffffffffffffffffffffff1673ffffffffffffffffffffffffffffffffffffffff161461442157600080fd5b600073ffffffffffffffffffffffffffffffffffffffff168273ffffffffffffffffffffffffffffffffffffffff16146144ae576001600481111561446257fe5b600a600087878581811061447257fe5b90506020020135815260200190815260200160002060030160149054906101000a900460ff1660048111156144a357fe5b146144ad57600080fd5b5b81600b60008787858181106144bf57fe5b90506020020135815260200190815260200160002060006101000a81548173ffffffffffffffffffffffffffffffffffffffff021916908373ffffffffffffffffffffffffffffffffffffffff160217905550806001019050614396565b5050505050565b600a6020528060005260406000206000915090508060010160009054906101000a900473ffffffffffffffffffffffffffffffffffffffff16908060020160009054906101000a900473ffffffffffffffffffffffffffffffffffffffff16908060030160009054906101000a900473ffffffffffffffffffffffffffffffffffffffff16908060030160149054906101000a900460ff169080600501549080600601549080600701549080600801549080600b01549080600c01549080600d01549080600e0160009054906101000a900461ffff169080600e0160029054906101000a900460ff1690508d565b60006001600481111561462157fe5b600a600084815260200190815260200160002060030160149054906101000a900460ff16600481111561465057fe5b146146c3576040517f08c379a00000000000000000000000000000000000000000000000000000000081526004018080602001828103825260188152602001807f4c6f616e206973206e6f742079657420617070726f766564000000000000000081525060200191505060405180910390fd5b6146f042600a60008581526020019081526020016000206009016001600281106146e957fe5b0154614be1565b6147c4614742600a600086815260200190815260200160002060050154600a6000878152602001908152602001600020600e0160029054906101000a900460ff1660ff16614a7590919063ffffffff16565b6147b6614784600a600088815260200190815260200160002060050154600a600089815260200190815260200160002060060154614a7590919063ffffffff16565b600a60008881526020019081526020016000206009016000600281106147a657fe5b01546149ed90919063ffffffff16565b6149ed90919063ffffffff16565b11159050919050565b600063f23a6e6160e01b905095945050505050565b6147ea614b8f565b73ffffffffffffffffffffffffffffffffffffffff1660008054906101000a900473ffffffffffffffffffffffffffffffffffffffff1673ffffffffffffffffffffffffffffffffffffffff16146148aa576040517f08c379a00000000000000000000000000000000000000000000000000000000081526004018080602001828103825260208152602001807f4f776e61626c653a2063616c6c6572206973206e6f7420746865206f776e657281525060200191505060405180910390fd5b600073ffffffffffffffffffffffffffffffffffffffff168173ffffffffffffffffffffffffffffffffffffffff161415614930576040517f08c379a0000000000000000000000000000000000000000000000000000000008152600401808060200182810382526026815260200180614ff66026913960400191505060405180910390fd5b8073ffffffffffffffffffffffffffffffffffffffff1660008054906101000a900473ffffffffffffffffffffffffffffffffffffffff1673ffffffffffffffffffffffffffffffffffffffff167f8be0079c531659141344cd1fd0a4f28419497f9722a3daafe3b4186f6b6457e060405160405180910390a3806000806101000a81548173ffffffffffffffffffffffffffffffffffffffff021916908373ffffffffffffffffffffffffffffffffffffffff16021790555050565b600080828401905083811015614a6b576040517f08c379a000000000000000000000000000000000000000000000000000000000815260040180806020018281038252601b8152602001807f536166654d6174683a206164646974696f6e206f766572666c6f77000000000081525060200191505060405180910390fd5b8091505092915050565b600080831415614a885760009050614af5565b6000828402905082848281614a9957fe5b0414614af0576040517f08c379a00000000000000000000000000000000000000000000000000000000081526004018080602001828103825260218152602001806150636021913960400191505060405180910390fd5b809150505b92915050565b6000614b3d83836040518060400160405280601a81526020017f536166654d6174683a206469766973696f6e206279207a65726f000000000000815250614bfa565b905092915050565b6000614b8783836040518060400160405280601881526020017f536166654d6174683a206d6f64756c6f206279207a65726f0000000000000000815250614cc0565b905092915050565b600033905090565b6000614bd983836040518060400160405280601e81526020017f536166654d6174683a207375627472616374696f6e206f766572666c6f770000815250614d81565b905092915050565b6000818310614bf05781614bf2565b825b905092915050565b60008083118290614ca6576040517f08c379a00000000000000000000000000000000000000000000000000000000081526004018080602001828103825283818151815260200191508051906020019080838360005b83811015614c6b578082015181840152602081019050614c50565b50505050905090810190601f168015614c985780820380516001836020036101000a031916815260200191505b509250505060405180910390fd5b506000838581614cb257fe5b049050809150509392505050565b6000808314158290614d6d576040517f08c379a00000000000000000000000000000000000000000000000000000000081526004018080602001828103825283818151815260200191508051906020019080838360005b83811015614d32578082015181840152602081019050614d17565b50505050905090810190601f168015614d5f5780820380516001836020036101000a031916815260200191505b509250505060405180910390fd5b50828481614d7757fe5b0690509392505050565b6000838311158290614e2e576040517f08c379a00000000000000000000000000000000000000000000000000000000081526004018080602001828103825283818151815260200191508051906020019080838360005b83811015614df3578082015181840152602081019050614dd8565b50505050905090810190601f168015614e205780820380516001836020036101000a031916815260200191505b509250505060405180910390fd5b5060008385039050809150509392505050565b828054828255906000526020600020908101928215614e7d579160200282015b82811115614e7c578235825591602001919060010190614e61565b5b509050614e8a9190614fd8565b5090565b828054828255906000526020600020908101928215614f1d579160200282015b82811115614f1c57823573ffffffffffffffffffffffffffffffffffffffff168260006101000a81548173ffffffffffffffffffffffffffffffffffffffff021916908373ffffffffffffffffffffffffffffffffffffffff16021790555091602001919060010190614eae565b5b509050614f2a9190614fd8565b5090565b82805482825590600052602060002090601f01602090048101928215614fc75791602002820160005b83821115614f9857833560ff1683826101000a81548160ff021916908360ff1602179055509260200192600101602081600001049283019260010302614f57565b8015614fc55782816101000a81549060ff0219169055600101602081600001049283019260010302614f98565b505b509050614fd49190614fd8565b5090565b5b80821115614ff1576000816000905550600101614fd9565b509056fe4f776e61626c653a206e6577206f776e657220697320746865207a65726f20616464726573735472616e73666572206f6620746f6b656e7320746f207265636569766572206661696c65645472616e73666572206f662045544820746f207265636569766572206661696c6564536166654d6174683a206d756c7469706c69636174696f6e206f766572666c6f775472616e73666572206f6620746f6b656e7320746f20537461746572206661696c6564a2646970667358221220cc4b1cb7e42e99bb2446e4a5182ca258695fb7e511482a9340599fe1e63efa2064736f6c63430007060033",
  "linkReferences": {},
  "deployedLinkReferences": {}
}