{
  "_format": "hh-sol-artifact-1",
  "contractName": "LendingMethods",
  "sourceName": "contracts/lending/LendingMethods.sol",
  "abi": [
    {
      "anonymous": false,
      "inputs": [
        {
          "indexed": true,
          "internalType": "address",
          "name": "currency",
          "type": "address"
        },
        {
          "indexed": true,
          "internalType": "uint256",
          "name": "loanId",
          "type": "uint256"
        },
        {
          "indexed": false,
          "internalType": "uint256",
          "name": "loanAmount",
          "type": "uint256"
        },
        {
          "indexed": false,
          "internalType": "uint256",
          "name": "amountDue",
          "type": "uint256"
        },
        {
          "indexed": false,
          "internalType": "uint256",
          "name": "installmentAmount",
          "type": "uint256"
        },
        {
          "indexed": false,
          "internalType": "uint256",
          "name": "assetsValue",
          "type": "uint256"
        },
        {
          "indexed": false,
          "internalType": "uint256",
          "name": "frequencyTime",
          "type": "uint256"
        },
        {
          "indexed": false,
          "internalType": "uint256",
          "name": "frequencyTimeUnit",
          "type": "uint256"
        }
      ],
      "name": "EditLoan",
      "type": "event"
    },
    {
      "anonymous": false,
      "inputs": [
        {
          "indexed": true,
          "internalType": "address",
          "name": "requester",
          "type": "address"
        },
        {
          "indexed": true,
          "internalType": "uint256",
          "name": "loanId",
          "type": "uint256"
        },
        {
          "indexed": false,
          "internalType": "enum LendingCore.Status",
          "name": "status",
          "type": "uint8"
        }
      ],
      "name": "ItemsWithdrawn",
      "type": "event"
    },
    {
      "anonymous": false,
      "inputs": [
        {
          "indexed": true,
          "internalType": "address",
          "name": "lender",
          "type": "address"
        },
        {
          "indexed": true,
          "internalType": "uint256",
          "name": "loanId",
          "type": "uint256"
        },
        {
          "indexed": false,
          "internalType": "uint256",
          "name": "loanPaymentEnd",
          "type": "uint256"
        }
      ],
      "name": "LoanApproved",
      "type": "event"
    },
    {
      "anonymous": false,
      "inputs": [
        {
          "indexed": true,
          "internalType": "uint256",
          "name": "loanId",
          "type": "uint256"
        }
      ],
      "name": "LoanCancelled",
      "type": "event"
    },
    {
      "anonymous": false,
      "inputs": [
        {
          "indexed": true,
          "internalType": "uint256",
          "name": "loanId",
          "type": "uint256"
        },
        {
          "indexed": false,
          "internalType": "uint256",
          "name": "installmentAmount",
          "type": "uint256"
        },
        {
          "indexed": false,
          "internalType": "uint256",
          "name": "amountPaidAsInstallmentToLender",
          "type": "uint256"
        },
        {
          "indexed": false,
          "internalType": "uint256",
          "name": "interestPerInstallement",
          "type": "uint256"
        },
        {
          "indexed": false,
          "internalType": "uint256",
          "name": "interestToStaterPerInstallement",
          "type": "uint256"
        },
        {
          "indexed": false,
          "internalType": "enum LendingCore.Status",
          "name": "status",
          "type": "uint8"
        }
      ],
      "name": "LoanPayment",
      "type": "event"
    },
    {
      "anonymous": false,
      "inputs": [
        {
          "indexed": true,
          "internalType": "address",
          "name": "owner",
          "type": "address"
        },
        {
          "indexed": true,
          "internalType": "address",
          "name": "currency",
          "type": "address"
        },
        {
          "indexed": true,
          "internalType": "uint256",
          "name": "loanId",
          "type": "uint256"
        },
        {
          "indexed": false,
          "internalType": "address[]",
          "name": "nftAddressArray",
          "type": "address[]"
        },
        {
          "indexed": false,
          "internalType": "uint256[]",
          "name": "nftTokenIdArray",
          "type": "uint256[]"
        },
        {
          "indexed": false,
          "internalType": "uint8[]",
          "name": "nftTokenTypeArray",
          "type": "uint8[]"
        }
      ],
      "name": "NewLoan",
      "type": "event"
    },
    {
      "anonymous": false,
      "inputs": [
        {
          "indexed": true,
          "internalType": "address",
          "name": "previousOwner",
          "type": "address"
        },
        {
          "indexed": true,
          "internalType": "address",
          "name": "newOwner",
          "type": "address"
        }
      ],
      "name": "OwnershipTransferred",
      "type": "event"
    },
    {
      "inputs": [
        {
          "internalType": "uint256",
          "name": "loanId",
          "type": "uint256"
        }
      ],
      "name": "approveLoan",
      "outputs": [],
      "stateMutability": "payable",
      "type": "function"
    },
    {
      "inputs": [
        {
          "internalType": "uint256",
          "name": "loanId",
          "type": "uint256"
        }
      ],
      "name": "canBeTerminated",
      "outputs": [
        {
          "internalType": "bool",
          "name": "",
          "type": "bool"
        }
      ],
      "stateMutability": "view",
      "type": "function"
    },
    {
      "inputs": [
        {
          "internalType": "uint256",
          "name": "loanId",
          "type": "uint256"
        }
      ],
      "name": "cancelLoan",
      "outputs": [],
      "stateMutability": "nonpayable",
      "type": "function"
    },
    {
      "inputs": [
        {
          "internalType": "uint256",
          "name": "loanAmount",
          "type": "uint256"
        },
        {
          "internalType": "uint16",
          "name": "nrOfInstallments",
          "type": "uint16"
        },
        {
          "internalType": "address",
          "name": "currency",
          "type": "address"
        },
        {
          "internalType": "uint256",
          "name": "assetsValue",
          "type": "uint256"
        },
        {
          "internalType": "address[]",
          "name": "nftAddressArray",
          "type": "address[]"
        },
        {
          "internalType": "uint256[]",
          "name": "nftTokenIdArray",
          "type": "uint256[]"
        },
        {
          "internalType": "uint8[]",
          "name": "nftTokenTypeArray",
          "type": "uint8[]"
        }
      ],
      "name": "createLoan",
      "outputs": [],
      "stateMutability": "nonpayable",
      "type": "function"
    },
    {
      "inputs": [],
      "name": "discounts",
      "outputs": [
        {
          "internalType": "contract IStaterDiscounts",
          "name": "",
          "type": "address"
        }
      ],
      "stateMutability": "view",
      "type": "function"
    },
    {
      "inputs": [
        {
          "internalType": "uint256",
          "name": "loanId",
          "type": "uint256"
        },
        {
          "internalType": "uint256",
          "name": "loanAmount",
          "type": "uint256"
        },
        {
          "internalType": "uint16",
          "name": "nrOfInstallments",
          "type": "uint16"
        },
        {
          "internalType": "address",
          "name": "currency",
          "type": "address"
        },
        {
          "internalType": "uint256",
          "name": "assetsValue",
          "type": "uint256"
        },
        {
          "internalType": "uint256",
          "name": "installmentTime",
          "type": "uint256"
        }
      ],
      "name": "editLoan",
      "outputs": [],
      "stateMutability": "nonpayable",
      "type": "function"
    },
    {
      "inputs": [],
      "name": "id",
      "outputs": [
        {
          "internalType": "uint256",
          "name": "",
          "type": "uint256"
        }
      ],
      "stateMutability": "view",
      "type": "function"
    },
    {
      "inputs": [],
      "name": "interestRate",
      "outputs": [
        {
          "internalType": "uint256",
          "name": "",
          "type": "uint256"
        }
      ],
      "stateMutability": "view",
      "type": "function"
    },
    {
      "inputs": [],
      "name": "interestRateToStater",
      "outputs": [
        {
          "internalType": "uint256",
          "name": "",
          "type": "uint256"
        }
      ],
      "stateMutability": "view",
      "type": "function"
    },
    {
      "inputs": [],
      "name": "lenderFee",
      "outputs": [
        {
          "internalType": "uint32",
          "name": "",
          "type": "uint32"
        }
      ],
      "stateMutability": "view",
      "type": "function"
    },
    {
      "inputs": [],
      "name": "lendingMethodsAddress",
      "outputs": [
        {
          "internalType": "address",
          "name": "",
          "type": "address"
        }
      ],
      "stateMutability": "view",
      "type": "function"
    },
    {
      "inputs": [
        {
          "internalType": "uint256",
          "name": "",
          "type": "uint256"
        }
      ],
      "name": "loans",
      "outputs": [
        {
          "internalType": "address payable",
          "name": "borrower",
          "type": "address"
        },
        {
          "internalType": "address payable",
          "name": "lender",
          "type": "address"
        },
        {
          "internalType": "address",
          "name": "currency",
          "type": "address"
        },
        {
          "internalType": "enum LendingCore.Status",
          "name": "status",
          "type": "uint8"
        },
        {
          "internalType": "uint256",
          "name": "installmentTime",
          "type": "uint256"
        },
        {
          "internalType": "uint256",
          "name": "nrOfPayments",
          "type": "uint256"
        },
        {
          "internalType": "uint256",
          "name": "loanAmount",
          "type": "uint256"
        },
        {
          "internalType": "uint256",
          "name": "assetsValue",
          "type": "uint256"
        },
        {
          "internalType": "uint256",
          "name": "installmentAmount",
          "type": "uint256"
        },
        {
          "internalType": "uint256",
          "name": "amountDue",
          "type": "uint256"
        },
        {
          "internalType": "uint256",
          "name": "paidAmount",
          "type": "uint256"
        },
        {
          "internalType": "uint16",
          "name": "nrOfInstallments",
          "type": "uint16"
        },
        {
          "internalType": "uint8",
          "name": "defaultingLimit",
          "type": "uint8"
        }
      ],
      "stateMutability": "view",
      "type": "function"
    },
    {
      "inputs": [],
      "name": "ltv",
      "outputs": [
        {
          "internalType": "uint256",
          "name": "",
          "type": "uint256"
        }
      ],
      "stateMutability": "view",
      "type": "function"
    },
    {
      "inputs": [
        {
          "internalType": "address",
          "name": "",
          "type": "address"
        },
        {
          "internalType": "address",
          "name": "",
          "type": "address"
        },
        {
          "internalType": "uint256[]",
          "name": "",
          "type": "uint256[]"
        },
        {
          "internalType": "uint256[]",
          "name": "",
          "type": "uint256[]"
        },
        {
          "internalType": "bytes",
          "name": "",
          "type": "bytes"
        }
      ],
      "name": "onERC1155BatchReceived",
      "outputs": [
        {
          "internalType": "bytes4",
          "name": "",
          "type": "bytes4"
        }
      ],
      "stateMutability": "nonpayable",
      "type": "function"
    },
    {
      "inputs": [
        {
          "internalType": "address",
          "name": "",
          "type": "address"
        },
        {
          "internalType": "address",
          "name": "",
          "type": "address"
        },
        {
          "internalType": "uint256",
          "name": "",
          "type": "uint256"
        },
        {
          "internalType": "uint256",
          "name": "",
          "type": "uint256"
        },
        {
          "internalType": "bytes",
          "name": "",
          "type": "bytes"
        }
      ],
      "name": "onERC1155Received",
      "outputs": [
        {
          "internalType": "bytes4",
          "name": "",
          "type": "bytes4"
        }
      ],
      "stateMutability": "nonpayable",
      "type": "function"
    },
    {
      "inputs": [
        {
          "internalType": "address",
          "name": "",
          "type": "address"
        },
        {
          "internalType": "address",
          "name": "",
          "type": "address"
        },
        {
          "internalType": "uint256",
          "name": "",
          "type": "uint256"
        },
        {
          "internalType": "bytes",
          "name": "",
          "type": "bytes"
        }
      ],
      "name": "onERC721Received",
      "outputs": [
        {
          "internalType": "bytes4",
          "name": "",
          "type": "bytes4"
        }
      ],
      "stateMutability": "nonpayable",
      "type": "function"
    },
    {
      "inputs": [],
      "name": "owner",
      "outputs": [
        {
          "internalType": "address",
          "name": "",
          "type": "address"
        }
      ],
      "stateMutability": "view",
      "type": "function"
    },
    {
      "inputs": [
        {
          "internalType": "uint256",
          "name": "loanId",
          "type": "uint256"
        },
        {
          "internalType": "uint256",
          "name": "amount",
          "type": "uint256"
        }
      ],
      "name": "payLoan",
      "outputs": [],
      "stateMutability": "payable",
      "type": "function"
    },
    {
      "inputs": [
        {
          "internalType": "address",
          "name": "from",
          "type": "address"
        },
        {
          "internalType": "address payable",
          "name": "to",
          "type": "address"
        },
        {
          "internalType": "uint256[]",
          "name": "loanIds",
          "type": "uint256[]"
        }
      ],
      "name": "promissoryExchange",
      "outputs": [],
      "stateMutability": "nonpayable",
      "type": "function"
    },
    {
      "inputs": [],
      "name": "promissoryNoteAddress",
      "outputs": [
        {
          "internalType": "address",
          "name": "",
          "type": "address"
        }
      ],
      "stateMutability": "view",
      "type": "function"
    },
    {
      "inputs": [
        {
          "internalType": "uint256",
          "name": "",
          "type": "uint256"
        }
      ],
      "name": "promissoryPermissions",
      "outputs": [
        {
          "internalType": "address",
          "name": "",
          "type": "address"
        }
      ],
      "stateMutability": "view",
      "type": "function"
    },
    {
      "inputs": [],
      "name": "renounceOwnership",
      "outputs": [],
      "stateMutability": "nonpayable",
      "type": "function"
    },
    {
      "inputs": [
        {
          "internalType": "uint256[]",
          "name": "loanIds",
          "type": "uint256[]"
        },
        {
          "internalType": "address",
          "name": "sender",
          "type": "address"
        },
        {
          "internalType": "address",
          "name": "allowed",
          "type": "address"
        }
      ],
      "name": "setPromissoryPermissions",
      "outputs": [],
      "stateMutability": "nonpayable",
      "type": "function"
    },
    {
      "inputs": [
        {
          "internalType": "bytes4",
          "name": "interfaceId",
          "type": "bytes4"
        }
      ],
      "name": "supportsInterface",
      "outputs": [
        {
          "internalType": "bool",
          "name": "",
          "type": "bool"
        }
      ],
      "stateMutability": "view",
      "type": "function"
    },
    {
      "inputs": [
        {
          "internalType": "uint256",
          "name": "loanId",
          "type": "uint256"
        }
      ],
      "name": "terminateLoan",
      "outputs": [],
      "stateMutability": "nonpayable",
      "type": "function"
    },
    {
      "inputs": [
        {
          "internalType": "address",
          "name": "from",
          "type": "address"
        },
        {
          "internalType": "address",
          "name": "to",
          "type": "address"
        },
        {
          "internalType": "address[]",
          "name": "nftAddressArray",
          "type": "address[]"
        },
        {
          "internalType": "uint256[]",
          "name": "nftTokenIdArray",
          "type": "uint256[]"
        },
        {
          "internalType": "uint8[]",
          "name": "nftTokenTypeArray",
          "type": "uint8[]"
        }
      ],
      "name": "transferItems",
      "outputs": [],
      "stateMutability": "nonpayable",
      "type": "function"
    },
    {
      "inputs": [
        {
          "internalType": "address",
          "name": "newOwner",
          "type": "address"
        }
      ],
      "name": "transferOwnership",
      "outputs": [],
      "stateMutability": "nonpayable",
      "type": "function"
    },
    {
      "inputs": [
        {
          "internalType": "address",
          "name": "from",
          "type": "address"
        },
        {
          "internalType": "address payable",
          "name": "to",
          "type": "address"
        },
        {
          "internalType": "address",
          "name": "currency",
          "type": "address"
        },
        {
          "internalType": "uint256",
          "name": "qty1",
          "type": "uint256"
        },
        {
          "internalType": "uint256",
          "name": "qty2",
          "type": "uint256"
        }
      ],
      "name": "transferTokens",
      "outputs": [],
      "stateMutability": "nonpayable",
      "type": "function"
    }
  ],
  "bytecode": "0x60806040526001600555603c600655601460075560286008556064600960006101000a81548163ffffffff021916908363ffffffff1602179055503480156200004757600080fd5b5060006200005a6200013760201b60201c565b9050806000806101000a81548173ffffffffffffffffffffffffffffffffffffffff021916908373ffffffffffffffffffffffffffffffffffffffff1602179055508073ffffffffffffffffffffffffffffffffffffffff16600073ffffffffffffffffffffffffffffffffffffffff167f8be0079c531659141344cd1fd0a4f28419497f9722a3daafe3b4186f6b6457e060405160405180910390a350620001106301ffc9a760e01b6200013f60201b60201c565b6200013163bc197c8160e01b63f23a6e6160e01b186200013f60201b60201c565b62000248565b600033905090565b63ffffffff60e01b817bffffffffffffffffffffffffffffffffffffffffffffffffffffffff19161415620001dc576040517f08c379a000000000000000000000000000000000000000000000000000000000815260040180806020018281038252601c8152602001807f4552433136353a20696e76616c696420696e746572666163652069640000000081525060200191505060405180910390fd5b6001806000837bffffffffffffffffffffffffffffffffffffffffffffffffffffffff19167bffffffffffffffffffffffffffffffffffffffffffffffffffffffff1916815260200190815260200160002060006101000a81548160ff02191690831515021790555050565b61507380620002586000396000f3fe6080604052600436106101b75760003560e01c80637fb9fe3d116100ec578063bc197c811161008a578063e1ec3c6811610064578063e1ec3c6814610f64578063e70c74461461105b578063f23a6e61146110ac578063f2fde38b146111fb576101b7565b8063bc197c8114610c00578063bdbfa3de14610e63578063de4f846c14610e9e576101b7565b80638da5cb5b116100c65780638da5cb5b14610b3b5780638f82927514610b7c578063aadc1ac114610ba7578063af640d0f14610bd5576101b7565b80637fb9fe3d14610a9757806389306e6114610ad25780638ca83f0714610b0a576101b7565b806338daa789116101595780636fb49d73116101335780636fb49d73146109e9578063715018a614610a1457806375af65d114610a2b5780637c3a00fd14610a6c576101b7565b806338daa789146106f4578063407299d7146107355780634b69cd6c14610962576101b7565b806324c93fe51161019557806324c93fe5146103b25780632530919d14610417578063277c15ff146104dd5780632e3f4a5d1461064f576101b7565b806301ffc9a7146101bc57806313c75b5b1461022c578063150b7a021461026d575b600080fd5b3480156101c857600080fd5b50610214600480360360208110156101df57600080fd5b8101908080357bffffffffffffffffffffffffffffffffffffffffffffffffffffffff1916906020019092919050505061124c565b60405180821515815260200191505060405180910390f35b34801561023857600080fd5b506102416112b4565b604051808273ffffffffffffffffffffffffffffffffffffffff16815260200191505060405180910390f35b34801561027957600080fd5b5061037d6004803603608081101561029057600080fd5b81019080803573ffffffffffffffffffffffffffffffffffffffff169060200190929190803573ffffffffffffffffffffffffffffffffffffffff16906020019092919080359060200190929190803590602001906401000000008111156102f757600080fd5b82018360208201111561030957600080fd5b8035906020019184600183028401116401000000008311171561032b57600080fd5b91908080601f016020809104026020016040519081016040528093929190818152602001838380828437600081840152601f19601f8201169050808301925050505050505091929192905050506112da565b60405180827bffffffffffffffffffffffffffffffffffffffffffffffffffffffff1916815260200191505060405180910390f35b3480156103be57600080fd5b506103eb600480360360208110156103d557600080fd5b81019080803590602001909291905050506112ee565b604051808273ffffffffffffffffffffffffffffffffffffffff16815260200191505060405180910390f35b34801561042357600080fd5b506104db6004803603606081101561043a57600080fd5b81019080803573ffffffffffffffffffffffffffffffffffffffff169060200190929190803573ffffffffffffffffffffffffffffffffffffffff1690602001909291908035906020019064010000000081111561049757600080fd5b8201836020820111156104a957600080fd5b803590602001918460208302840111640100000000831117156104cb57600080fd5b9091929391929390505050611321565b005b3480156104e957600080fd5b5061064d600480360360e081101561050057600080fd5b8101908080359060200190929190803561ffff169060200190929190803573ffffffffffffffffffffffffffffffffffffffff169060200190929190803590602001909291908035906020019064010000000081111561055f57600080fd5b82018360208201111561057157600080fd5b8035906020019184602083028401116401000000008311171561059357600080fd5b9091929391929390803590602001906401000000008111156105b457600080fd5b8201836020820111156105c657600080fd5b803590602001918460208302840111640100000000831117156105e857600080fd5b90919293919293908035906020019064010000000081111561060957600080fd5b82018360208201111561061b57600080fd5b8035906020019184602083028401116401000000008311171561063d57600080fd5b9091929391929390505050611624565b005b34801561065b57600080fd5b506106f2600480360360a081101561067257600080fd5b81019080803573ffffffffffffffffffffffffffffffffffffffff169060200190929190803573ffffffffffffffffffffffffffffffffffffffff169060200190929190803573ffffffffffffffffffffffffffffffffffffffff1690602001909291908035906020019092919080359060200190929190505050611c5a565b005b34801561070057600080fd5b50610709612018565b604051808273ffffffffffffffffffffffffffffffffffffffff16815260200191505060405180910390f35b34801561074157600080fd5b50610960600480360360a081101561075857600080fd5b81019080803573ffffffffffffffffffffffffffffffffffffffff169060200190929190803573ffffffffffffffffffffffffffffffffffffffff169060200190929190803590602001906401000000008111156107b557600080fd5b8201836020820111156107c757600080fd5b803590602001918460208302840111640100000000831117156107e957600080fd5b919080806020026020016040519081016040528093929190818152602001838360200280828437600081840152601f19601f8201169050808301925050505050505091929192908035906020019064010000000081111561084957600080fd5b82018360208201111561085b57600080fd5b8035906020019184602083028401116401000000008311171561087d57600080fd5b919080806020026020016040519081016040528093929190818152602001838360200280828437600081840152601f19601f820116905080830192505050505050509192919290803590602001906401000000008111156108dd57600080fd5b8201836020820111156108ef57600080fd5b8035906020019184602083028401116401000000008311171561091157600080fd5b919080806020026020016040519081016040528093929190818152602001838360200280828437600081840152601f19601f82011690508083019250505050505050919291929050505061203e565b005b34801561096e57600080fd5b506109e7600480360360c081101561098557600080fd5b810190808035906020019092919080359060200190929190803561ffff169060200190929190803573ffffffffffffffffffffffffffffffffffffffff16906020019092919080359060200190929190803590602001909291905050506122e6565b005b3480156109f557600080fd5b506109fe612734565b6040518082815260200191505060405180910390f35b348015610a2057600080fd5b50610a2961273a565b005b348015610a3757600080fd5b50610a406128c0565b604051808273ffffffffffffffffffffffffffffffffffffffff16815260200191505060405180910390f35b348015610a7857600080fd5b50610a816128e6565b6040518082815260200191505060405180910390f35b348015610aa357600080fd5b50610ad060048036036020811015610aba57600080fd5b81019080803590602001909291905050506128ec565b005b610b0860048036036040811015610ae857600080fd5b810190808035906020019092919080359060200190929190505050613247565b005b348015610b1657600080fd5b50610b1f6138b9565b604051808263ffffffff16815260200191505060405180910390f35b348015610b4757600080fd5b50610b506138cf565b604051808273ffffffffffffffffffffffffffffffffffffffff16815260200191505060405180910390f35b348015610b8857600080fd5b50610b916138f8565b6040518082815260200191505060405180910390f35b610bd360048036036020811015610bbd57600080fd5b81019080803590602001909291905050506138fe565b005b348015610be157600080fd5b50610bea613e27565b6040518082815260200191505060405180910390f35b348015610c0c57600080fd5b50610e2e600480360360a0811015610c2357600080fd5b81019080803573ffffffffffffffffffffffffffffffffffffffff169060200190929190803573ffffffffffffffffffffffffffffffffffffffff16906020019092919080359060200190640100000000811115610c8057600080fd5b820183602082011115610c9257600080fd5b80359060200191846020830284011164010000000083111715610cb457600080fd5b919080806020026020016040519081016040528093929190818152602001838360200280828437600081840152601f19601f82011690508083019250505050505050919291929080359060200190640100000000811115610d1457600080fd5b820183602082011115610d2657600080fd5b80359060200191846020830284011164010000000083111715610d4857600080fd5b919080806020026020016040519081016040528093929190818152602001838360200280828437600081840152601f19601f82011690508083019250505050505050919291929080359060200190640100000000811115610da857600080fd5b820183602082011115610dba57600080fd5b80359060200191846001830284011164010000000083111715610ddc57600080fd5b91908080601f016020809104026020016040519081016040528093929190818152602001838380828437600081840152601f19601f820116905080830192505050505050509192919290505050613e2d565b60405180827bffffffffffffffffffffffffffffffffffffffffffffffffffffffff1916815260200191505060405180910390f35b348015610e6f57600080fd5b50610e9c60048036036020811015610e8657600080fd5b8101908080359060200190929190505050613e42565b005b348015610eaa57600080fd5b50610f6260048036036060811015610ec157600080fd5b8101908080359060200190640100000000811115610ede57600080fd5b820183602082011115610ef057600080fd5b80359060200191846020830284011164010000000083111715610f1257600080fd5b9091929391929390803573ffffffffffffffffffffffffffffffffffffffff169060200190929190803573ffffffffffffffffffffffffffffffffffffffff1690602001909291905050506141df565b005b348015610f7057600080fd5b50610f9d60048036036020811015610f8757600080fd5b8101908080359060200190929190505050614433565b604051808e73ffffffffffffffffffffffffffffffffffffffff1681526020018d73ffffffffffffffffffffffffffffffffffffffff1681526020018c73ffffffffffffffffffffffffffffffffffffffff1681526020018b600481111561100157fe5b81526020018a81526020018981526020018881526020018781526020018681526020018581526020018481526020018361ffff1681526020018260ff1681526020019d505050505050505050505050505060405180910390f35b34801561106757600080fd5b506110946004803603602081101561107e57600080fd5b8101908080359060200190929190505050614521565b60405180821515815260200191505060405180910390f35b3480156110b857600080fd5b506111c6600480360360a08110156110cf57600080fd5b81019080803573ffffffffffffffffffffffffffffffffffffffff169060200190929190803573ffffffffffffffffffffffffffffffffffffffff16906020019092919080359060200190929190803590602001909291908035906020019064010000000081111561114057600080fd5b82018360208201111561115257600080fd5b8035906020019184600183028401116401000000008311171561117457600080fd5b91908080601f016020809104026020016040519081016040528093929190818152602001838380828437600081840152601f19601f8201169050808301925050505050505091929192905050506146dc565b60405180827bffffffffffffffffffffffffffffffffffffffffffffffffffffffff1916815260200191505060405180910390f35b34801561120757600080fd5b5061124a6004803603602081101561121e57600080fd5b81019080803573ffffffffffffffffffffffffffffffffffffffff1690602001909291905050506146f1565b005b600060016000837bffffffffffffffffffffffffffffffffffffffffffffffffffffffff19167bffffffffffffffffffffffffffffffffffffffffffffffffffffffff1916815260200190815260200160002060009054906101000a900460ff169050919050565b600260009054906101000a900473ffffffffffffffffffffffffffffffffffffffff1681565b600063150b7a0260e01b9050949350505050565b600b6020528060005260406000206000915054906101000a900473ffffffffffffffffffffffffffffffffffffffff1681565b600260009054906101000a900473ffffffffffffffffffffffffffffffffffffffff1673ffffffffffffffffffffffffffffffffffffffff163373ffffffffffffffffffffffffffffffffffffffff16146113e4576040517f08c379a000000000000000000000000000000000000000000000000000000000815260040180806020018281038252601e8152602001807f4c656e64696e67204d6574686f64733a204163636573732064656e696564000081525060200191505060405180910390fd5b60005b8282905081101561161d578473ffffffffffffffffffffffffffffffffffffffff16600a600085858581811061141957fe5b90506020020135815260200190815260200160002060020160009054906101000a900473ffffffffffffffffffffffffffffffffffffffff1673ffffffffffffffffffffffffffffffffffffffff161461147257600080fd5b6001600481111561147f57fe5b600a600085858581811061148f57fe5b90506020020135815260200190815260200160002060030160149054906101000a900460ff1660048111156114c057fe5b146114ca57600080fd5b8473ffffffffffffffffffffffffffffffffffffffff16600b60008585858181106114f157fe5b90506020020135815260200190815260200160002060009054906101000a900473ffffffffffffffffffffffffffffffffffffffff1673ffffffffffffffffffffffffffffffffffffffff161461154757600080fd5b83600a600085858581811061155857fe5b90506020020135815260200190815260200160002060020160006101000a81548173ffffffffffffffffffffffffffffffffffffffff021916908373ffffffffffffffffffffffffffffffffffffffff16021790555083600b60008585858181106115bf57fe5b90506020020135815260200190815260200160002060006101000a81548173ffffffffffffffffffffffffffffffffffffffff021916908373ffffffffffffffffffffffffffffffffffffffff1602179055508060010190506113e7565b5050505050565b60008961ffff16118015611638575060008a115b80156116475750600086869050115b61165057600080fd5b838390508686905014801561166a57508181905084849050145b61167357600080fd5b86600a60006005548152602001908152602001600020600801819055506116b28a600a60006005548152602001908152602001600020600801546148fc565b60038961ffff16116116f5576001600a60006005548152602001908152602001600020600e0160026101000a81548160ff021916908360ff160217905550611779565b60058961ffff1611611738576002600a60006005548152602001908152602001600020600e0160026101000a81548160ff021916908360ff160217905550611778565b60068961ffff1610611777576003600a60006005548152602001908152602001600020600e0160026101000a81548160ff021916908360ff1602179055505b5b5b8383600a6000600554815260200190815260200160002060040191906117a0929190614dd8565b5089600a60006005548152602001908152602001600020600701819055506117f960646117eb6117dc606460075461498490919063ffffffff16565b8d614a0c90919063ffffffff16565b614a9290919063ffffffff16565b600a60006005548152602001908152602001600020600c018190555088600a60006005548152602001908152602001600020600e0160006101000a81548161ffff021916908361ffff16021790555060006118798a61ffff16600a60006005548152602001908152602001600020600c0154614adc90919063ffffffff16565b116118b2576118ad8961ffff16600a60006005548152602001908152602001600020600c0154614a9290919063ffffffff16565b6118f5565b6118f460016118e68b61ffff16600a60006005548152602001908152602001600020600c0154614a9290919063ffffffff16565b61498490919063ffffffff16565b5b600a60006005548152602001908152602001600020600b01819055506000600a6000600554815260200190815260200160002060030160146101000a81548160ff0219169083600481111561194657fe5b02179055508585600a600060055481526020019081526020016000206000019190611972929190614e25565b5033600a6000600554815260200190815260200160002060010160006101000a81548173ffffffffffffffffffffffffffffffffffffffff021916908373ffffffffffffffffffffffffffffffffffffffff16021790555087600a6000600554815260200190815260200160002060030160006101000a81548173ffffffffffffffffffffffffffffffffffffffff021916908373ffffffffffffffffffffffffffffffffffffffff1602179055508181600a60006005548152602001908152602001600020600f019190611a48929190614ec5565b5062093a80600a6000600554815260200190815260200160002060050181905550611b393330888880806020026020016040519081016040528093929190818152602001838360200280828437600081840152601f19601f82011690508083019250505050505050878780806020026020016040519081016040528093929190818152602001838360200280828437600081840152601f19601f82011690508083019250505050505050868680806020026020016040519081016040528093929190818152602001838360200280828437600081840152601f19601f8201169050808301925050505050505061203e565b6005548873ffffffffffffffffffffffffffffffffffffffff163373ffffffffffffffffffffffffffffffffffffffff167f06b4fa68493c57d0a3bcfe8fd7db7297b3f4ed7c3f730fd563791eaafa27439d8989898989896040518080602001806020018060200184810384528a8a82818152602001925060200280828437600081840152601f19601f8201169050808301925050508481038352888882818152602001925060200280828437600081840152601f19601f8201169050808301925050508481038252868682818152602001925060200280828437600081840152601f19601f820116905080830192505050995050505050505050505060405180910390a46005600081546001019190508190555050505050505050505050565b600073ffffffffffffffffffffffffffffffffffffffff168373ffffffffffffffffffffffffffffffffffffffff1614611ed8578273ffffffffffffffffffffffffffffffffffffffff166323b872dd8686856040518463ffffffff1660e01b8152600401808473ffffffffffffffffffffffffffffffffffffffff1681526020018373ffffffffffffffffffffffffffffffffffffffff1681526020018281526020019350505050602060405180830381600087803b158015611d1d57600080fd5b505af1158015611d31573d6000803e3d6000fd5b505050506040513d6020811015611d4757600080fd5b8101908080519060200190929190505050611dad576040517f08c379a0000000000000000000000000000000000000000000000000000000008152600401808060200182810382526025815260200180614fb36025913960400191505060405180910390fd5b8273ffffffffffffffffffffffffffffffffffffffff166323b872dd86611dd26138cf565b846040518463ffffffff1660e01b8152600401808473ffffffffffffffffffffffffffffffffffffffff1681526020018373ffffffffffffffffffffffffffffffffffffffff1681526020018281526020019350505050602060405180830381600087803b158015611e4357600080fd5b505af1158015611e57573d6000803e3d6000fd5b505050506040513d6020811015611e6d57600080fd5b8101908080519060200190929190505050611ed3576040517f08c379a000000000000000000000000000000000000000000000000000000000815260040180806020018281038252602381526020018061501b6023913960400191505060405180910390fd5b612011565b8373ffffffffffffffffffffffffffffffffffffffff166108fc839081150290604051600060405180830381858888f19350505050611f62576040517f08c379a0000000000000000000000000000000000000000000000000000000008152600401808060200182810382526022815260200180614fd86022913960400191505060405180910390fd5b611f6a6138cf565b73ffffffffffffffffffffffffffffffffffffffff166108fc829081150290604051600060405180830381858888f19350505050612010576040517f08c379a00000000000000000000000000000000000000000000000000000000081526004018080602001828103825260208152602001807f5472616e73666572206f662045544820746f20537461746572206661696c656481525060200191505060405180910390fd5b5b5050505050565b600360009054906101000a900473ffffffffffffffffffffffffffffffffffffffff1681565b6000835190508251811480156120545750808251145b6120c6576040517f08c379a00000000000000000000000000000000000000000000000000000000081526004018080602001828103825260208152602001807f546f6b656e20696e666f732070726f76696465642061726520696e76616c696481525060200191505060405180910390fd5b60005b818110156122dd5760008382815181106120df57fe5b602002602001015160ff1614156121c2578481815181106120fc57fe5b602002602001015173ffffffffffffffffffffffffffffffffffffffff166342842e0e888887858151811061212d57fe5b60200260200101516040518463ffffffff1660e01b8152600401808473ffffffffffffffffffffffffffffffffffffffff1681526020018373ffffffffffffffffffffffffffffffffffffffff1681526020018281526020019350505050600060405180830381600087803b1580156121a557600080fd5b505af11580156121b9573d6000803e3d6000fd5b505050506122d2565b8481815181106121ce57fe5b602002602001015173ffffffffffffffffffffffffffffffffffffffff1663f242432a88888785815181106121ff57fe5b602002602001015160016040518563ffffffff1660e01b8152600401808573ffffffffffffffffffffffffffffffffffffffff1681526020018473ffffffffffffffffffffffffffffffffffffffff16815260200183815260200182815260200180602001828103825260048152602001807f307830300000000000000000000000000000000000000000000000000000000081525060200195505050505050600060405180830381600087803b1580156122b957600080fd5b505af11580156122cd573d6000803e3d6000fd5b505050505b8060010190506120c9565b50505050505050565b60008461ffff161180156122fa5750600085115b61230357600080fd5b3373ffffffffffffffffffffffffffffffffffffffff16600a600088815260200190815260200160002060010160009054906101000a900473ffffffffffffffffffffffffffffffffffffffff1673ffffffffffffffffffffffffffffffffffffffff161461237157600080fd5b6001600481111561237e57fe5b600a600088815260200190815260200160002060030160149054906101000a900460ff1660048111156123ad57fe5b106123b757600080fd5b6123c185836148fc565b80600a60008881526020019081526020016000206005018190555084600a6000888152602001908152602001600020600701819055506124326064612424612415606460075461498490919063ffffffff16565b88614a0c90919063ffffffff16565b614a9290919063ffffffff16565b600a6000888152602001908152602001600020600c0181905550600061247b8561ffff16600a60008a8152602001908152602001600020600c0154614adc90919063ffffffff16565b116124b2576124ad8461ffff16600a6000898152602001908152602001600020600c0154614a9290919063ffffffff16565b6124f3565b6124f260016124e48661ffff16600a60008b8152602001908152602001600020600c0154614a9290919063ffffffff16565b61498490919063ffffffff16565b5b600a6000888152602001908152602001600020600b018190555081600a60008881526020019081526020016000206008018190555083600a6000888152602001908152602001600020600e0160006101000a81548161ffff021916908361ffff16021790555082600a600088815260200190815260200160002060030160006101000a81548173ffffffffffffffffffffffffffffffffffffffff021916908373ffffffffffffffffffffffffffffffffffffffff16021790555060038461ffff16116125ef576001600a6000888152602001908152602001600020600e0160026101000a81548160ff021916908360ff16021790555061266f565b60058461ffff1611612630576002600a6000888152602001908152602001600020600e0160026101000a81548160ff021916908360ff16021790555061266e565b60068461ffff161061266d576003600a6000888152602001908152602001600020600e0160026101000a81548160ff021916908360ff1602179055505b5b5b858373ffffffffffffffffffffffffffffffffffffffff167f8e1902f1b79a83752dd0c0b34c25d3d3b241fba59defc28b8fb8e182360136d187600a60008b8152602001908152602001600020600c0154600a60008c8152602001908152602001600020600b0154600a60008d815260200190815260200160002060080154878b604051808781526020018681526020018581526020018481526020018381526020018261ffff168152602001965050505050505060405180910390a3505050505050565b60065481565b612742614b26565b73ffffffffffffffffffffffffffffffffffffffff1660008054906101000a900473ffffffffffffffffffffffffffffffffffffffff1673ffffffffffffffffffffffffffffffffffffffff1614612802576040517f08c379a00000000000000000000000000000000000000000000000000000000081526004018080602001828103825260208152602001807f4f776e61626c653a2063616c6c6572206973206e6f7420746865206f776e657281525060200191505060405180910390fd5b600073ffffffffffffffffffffffffffffffffffffffff1660008054906101000a900473ffffffffffffffffffffffffffffffffffffffff1673ffffffffffffffffffffffffffffffffffffffff167f8be0079c531659141344cd1fd0a4f28419497f9722a3daafe3b4186f6b6457e060405160405180910390a360008060006101000a81548173ffffffffffffffffffffffffffffffffffffffff021916908373ffffffffffffffffffffffffffffffffffffffff160217905550565b600460009054906101000a900473ffffffffffffffffffffffffffffffffffffffff1681565b60075481565b600a600082815260200190815260200160002060010160009054906101000a900473ffffffffffffffffffffffffffffffffffffffff1673ffffffffffffffffffffffffffffffffffffffff163373ffffffffffffffffffffffffffffffffffffffff1614806129bd5750600a600082815260200190815260200160002060020160009054906101000a900473ffffffffffffffffffffffffffffffffffffffff1673ffffffffffffffffffffffffffffffffffffffff163373ffffffffffffffffffffffffffffffffffffffff16145b6129c657600080fd5b6004808111156129d257fe5b600a600083815260200190815260200160002060030160149054906101000a900460ff166004811115612a0157fe5b1415612a0c57600080fd5b600a6000828152602001908152602001600020600901600160028110612a2e57fe5b015442101580612a6a5750600a6000828152602001908152602001600020600c0154600a6000838152602001908152602001600020600d015410155b80612a7a5750612a7981614521565b5b612a8357600080fd5b60026004811115612a9057fe5b600a600083815260200190815260200160002060030160149054906101000a900460ff166004811115612abf57fe5b1480612b04575060016004811115612ad357fe5b600a600083815260200190815260200160002060030160149054906101000a900460ff166004811115612b0257fe5b145b612b0d57600080fd5b612b1681614521565b15612d23576004600a600083815260200190815260200160002060030160146101000a81548160ff02191690836004811115612b4e57fe5b0217905550612d1e30600a600084815260200190815260200160002060020160009054906101000a900473ffffffffffffffffffffffffffffffffffffffff16600a6000858152602001908152602001600020600001805480602002602001604051908101604052809291908181526020018280548015612c2457602002820191906000526020600020905b8160009054906101000a900473ffffffffffffffffffffffffffffffffffffffff1673ffffffffffffffffffffffffffffffffffffffff1681526020019060010190808311612bda575b5050505050600a6000868152602001908152602001600020600401805480602002602001604051908101604052809291908181526020018280548015612c8957602002820191906000526020600020905b815481526020019060010190808311612c75575b5050505050600a6000878152602001908152602001600020600f01805480602002602001604051908101604052809291908181526020018280548015612d1457602002820191906000526020600020906000905b82829054906101000a900460ff1660ff1681526020019060010190602082600001049283019260010382029150808411612cdd5790505b505050505061203e565b6131c7565b600a6000828152602001908152602001600020600901600160028110612d4557fe5b01544210158015612d815750600a6000828152602001908152602001600020600c0154600a6000838152602001908152602001600020600d0154105b15612f8e576004600a600083815260200190815260200160002060030160146101000a81548160ff02191690836004811115612db957fe5b0217905550612f8930600a600084815260200190815260200160002060020160009054906101000a900473ffffffffffffffffffffffffffffffffffffffff16600a6000858152602001908152602001600020600001805480602002602001604051908101604052809291908181526020018280548015612e8f57602002820191906000526020600020905b8160009054906101000a900473ffffffffffffffffffffffffffffffffffffffff1673ffffffffffffffffffffffffffffffffffffffff1681526020019060010190808311612e45575b5050505050600a6000868152602001908152602001600020600401805480602002602001604051908101604052809291908181526020018280548015612ef457602002820191906000526020600020905b815481526020019060010190808311612ee0575b5050505050600a6000878152602001908152602001600020600f01805480602002602001604051908101604052809291908181526020018280548015612f7f57602002820191906000526020600020906000905b82829054906101000a900460ff1660ff1681526020019060010190602082600001049283019260010382029150808411612f485790505b505050505061203e565b6131c6565b600a6000828152602001908152602001600020600c0154600a6000838152602001908152602001600020600d0154106131c5576004600a600083815260200190815260200160002060030160146101000a81548160ff02191690836004811115612ff457fe5b02179055506131c430600a600084815260200190815260200160002060010160009054906101000a900473ffffffffffffffffffffffffffffffffffffffff16600a60008581526020019081526020016000206000018054806020026020016040519081016040528092919081815260200182805480156130ca57602002820191906000526020600020905b8160009054906101000a900473ffffffffffffffffffffffffffffffffffffffff1673ffffffffffffffffffffffffffffffffffffffff1681526020019060010190808311613080575b5050505050600a600086815260200190815260200160002060040180548060200260200160405190810160405280929190818152602001828054801561312f57602002820191906000526020600020905b81548152602001906001019080831161311b575b5050505050600a6000878152602001908152602001600020600f018054806020026020016040519081016040528092919081815260200182805480156131ba57602002820191906000526020600020906000905b82829054906101000a900460ff1660ff16815260200190600101906020826000010492830192600103820291508084116131835790505b505050505061203e565b5b5b5b803373ffffffffffffffffffffffffffffffffffffffff167f174efca9557ce00d5a6f26355f73e3873fed7d6f8248757750569e4699146c67600a600085815260200190815260200160002060030160149054906101000a900460ff166040518082600481111561323457fe5b815260200191505060405180910390a350565b3373ffffffffffffffffffffffffffffffffffffffff16600a600084815260200190815260200160002060010160009054906101000a900473ffffffffffffffffffffffffffffffffffffffff1673ffffffffffffffffffffffffffffffffffffffff16146132b557600080fd5b600160048111156132c257fe5b600a600084815260200190815260200160002060030160149054906101000a900460ff1660048111156132f157fe5b146132fb57600080fd5b42600a600084815260200190815260200160002060090160016002811061331e57fe5b0154101561332b57600080fd5b60003411801561339d5750600073ffffffffffffffffffffffffffffffffffffffff16600a600084815260200190815260200160002060030160009054906101000a900473ffffffffffffffffffffffffffffffffffffffff1673ffffffffffffffffffffffffffffffffffffffff16145b80156133a857508034145b8061342e5750600073ffffffffffffffffffffffffffffffffffffffff16600a600084815260200190815260200160002060030160009054906101000a900473ffffffffffffffffffffffffffffffffffffffff1673ffffffffffffffffffffffffffffffffffffffff16141580156134215750600034145b801561342d5750600081115b5b61343757600080fd5b60008034116134465781613448565b345b905060008190506000613479606461346b60075486614a0c90919063ffffffff16565b614a9290919063ffffffff16565b90506000600460009054906101000a900473ffffffffffffffffffffffffffffffffffffffff1673ffffffffffffffffffffffffffffffffffffffff1663ad6a8745336040518263ffffffff1660e01b8152600401808273ffffffffffffffffffffffffffffffffffffffff16815260200191505060206040518083038186803b15801561350657600080fd5b505afa15801561351a573d6000803e3d6000fd5b505050506040513d602081101561353057600080fd5b81019080805190602001909291905050509050600061356d606461355f60085486614a0c90919063ffffffff16565b614a9290919063ffffffff16565b90506001821461368257600073ffffffffffffffffffffffffffffffffffffffff16600a600089815260200190815260200160002060030160009054906101000a900473ffffffffffffffffffffffffffffffffffffffff1673ffffffffffffffffffffffffffffffffffffffff16141561365a573373ffffffffffffffffffffffffffffffffffffffff166108fc61360f8484614a9290919063ffffffff16565b9081150290604051600060405180830381858888f1935050505061363257600080fd5b6136576136488383614a9290919063ffffffff16565b85614b2e90919063ffffffff16565b93505b61367f6136708383614a9290919063ffffffff16565b82614b2e90919063ffffffff16565b90505b6136958185614b2e90919063ffffffff16565b93506136c085600a60008a8152602001908152602001600020600d015461498490919063ffffffff16565b600a6000898152602001908152602001600020600d018190555061372b613706600a60008a8152602001908152602001600020600b015487614a9290919063ffffffff16565b600a60008a81526020019081526020016000206006015461498490919063ffffffff16565b600a600089815260200190815260200160002060060181905550600a6000888152602001908152602001600020600c0154600a6000898152602001908152602001600020600d0154106137b1576002600a600089815260200190815260200160002060030160146101000a81548160ff021916908360048111156137ab57fe5b02179055505b61382a33600a60008a815260200190815260200160002060020160009054906101000a900473ffffffffffffffffffffffffffffffffffffffff16600a60008b815260200190815260200160002060030160009054906101000a900473ffffffffffffffffffffffffffffffffffffffff168785611c5a565b867fb5c84f6603b8d7669dbbe31fd93a237657c42054c0b237b7d4215fa463523b5b34868685600a60008e815260200190815260200160002060030160149054906101000a900460ff166040518086815260200185815260200184815260200183815260200182600481111561389c57fe5b81526020019550505050505060405180910390a250505050505050565b600960009054906101000a900463ffffffff1681565b60008060009054906101000a900473ffffffffffffffffffffffffffffffffffffffff16905090565b60085481565b600073ffffffffffffffffffffffffffffffffffffffff16600a600083815260200190815260200160002060020160009054906101000a900473ffffffffffffffffffffffffffffffffffffffff1673ffffffffffffffffffffffffffffffffffffffff161461396d57600080fd5b6000600a6000838152602001908152602001600020600d01541461399057600080fd5b6000600481111561399d57fe5b600a600083815260200190815260200160002060030160149054906101000a900460ff1660048111156139cc57fe5b146139d657600080fd5b33600a600083815260200190815260200160002060020160006101000a81548173ffffffffffffffffffffffffffffffffffffffff021916908373ffffffffffffffffffffffffffffffffffffffff160217905550613a8e613a7f600a600084815260200190815260200160002060050154600a6000858152602001908152602001600020600e0160009054906101000a900461ffff1661ffff16614a0c90919063ffffffff16565b4261498490919063ffffffff16565b600a6000838152602001908152602001600020600901600160028110613ab057fe5b01819055506001600a600083815260200190815260200160002060030160146101000a81548160ff02191690836004811115613ae857fe5b021790555042600a6000838152602001908152602001600020600901600060028110613b1057fe5b01819055506000600460009054906101000a900473ffffffffffffffffffffffffffffffffffffffff1673ffffffffffffffffffffffffffffffffffffffff1663ad6a8745336040518263ffffffff1660e01b8152600401808273ffffffffffffffffffffffffffffffffffffffff16815260200191505060206040518083038186803b158015613ba057600080fd5b505afa158015613bb4573d6000803e3d6000fd5b505050506040513d6020811015613bca57600080fd5b81019080805190602001909291905050509050600073ffffffffffffffffffffffffffffffffffffffff16600a600084815260200190815260200160002060030160009054906101000a900473ffffffffffffffffffffffffffffffffffffffff1673ffffffffffffffffffffffffffffffffffffffff161415613cd057613cc3613c9e82613c90600960009054906101000a900463ffffffff1663ffffffff16600a600088815260200190815260200160002060070154614a9290919063ffffffff16565b614a9290919063ffffffff16565b600a60008581526020019081526020016000206007015461498490919063ffffffff16565b341015613ccf57600080fd5b5b613db133600a600085815260200190815260200160002060010160009054906101000a900473ffffffffffffffffffffffffffffffffffffffff16600a600086815260200190815260200160002060030160009054906101000a900473ffffffffffffffffffffffffffffffffffffffff16600a600087815260200190815260200160002060070154613dac86613d9e600960009054906101000a900463ffffffff1663ffffffff16600a60008c815260200190815260200160002060070154614a9290919063ffffffff16565b614a9290919063ffffffff16565b611c5a565b813373ffffffffffffffffffffffffffffffffffffffff167f1a8ecea83cbcff0f4c46b7e42f55227161863220eb7d439fde442dfdc0ddbc4e600a6000868152602001908152602001600020600901600160028110613e0c57fe5b01546040518082815260200191505060405180910390a35050565b60055481565b600063bc197c8160e01b905095945050505050565b600073ffffffffffffffffffffffffffffffffffffffff16600a600083815260200190815260200160002060020160009054906101000a900473ffffffffffffffffffffffffffffffffffffffff1673ffffffffffffffffffffffffffffffffffffffff1614613eb157600080fd5b3373ffffffffffffffffffffffffffffffffffffffff16600a600083815260200190815260200160002060010160009054906101000a900473ffffffffffffffffffffffffffffffffffffffff1673ffffffffffffffffffffffffffffffffffffffff1614613f1f57600080fd5b60036004811115613f2c57fe5b600a600083815260200190815260200160002060030160149054906101000a900460ff166004811115613f5b57fe5b1415613f6657600080fd5b60006004811115613f7357fe5b600a600083815260200190815260200160002060030160149054906101000a900460ff166004811115613fa257fe5b14613fac57600080fd5b6003600a600083815260200190815260200160002060030160146101000a81548160ff02191690836004811115613fdf57fe5b02179055506141af30600a600084815260200190815260200160002060010160009054906101000a900473ffffffffffffffffffffffffffffffffffffffff16600a60008581526020019081526020016000206000018054806020026020016040519081016040528092919081815260200182805480156140b557602002820191906000526020600020905b8160009054906101000a900473ffffffffffffffffffffffffffffffffffffffff1673ffffffffffffffffffffffffffffffffffffffff168152602001906001019080831161406b575b5050505050600a600086815260200190815260200160002060040180548060200260200160405190810160405280929190818152602001828054801561411a57602002820191906000526020600020905b815481526020019060010190808311614106575b5050505050600a6000878152602001908152602001600020600f018054806020026020016040519081016040528092919081815260200182805480156141a557602002820191906000526020600020906000905b82829054906101000a900460ff1660ff168152602001906001019060208260000104928301926001038202915080841161416e5790505b505050505061203e565b807fb71becc91961a6b43bcc5b3b630f3dce02c7fd444cf3738c4f188062b1caf5bc60405160405180910390a250565b600260009054906101000a900473ffffffffffffffffffffffffffffffffffffffff1673ffffffffffffffffffffffffffffffffffffffff163373ffffffffffffffffffffffffffffffffffffffff16146142a2576040517f08c379a000000000000000000000000000000000000000000000000000000000815260040180806020018281038252601e8152602001807f4c656e64696e67204d6574686f64733a204163636573732064656e696564000081525060200191505060405180910390fd5b60005b8484905081101561442c578273ffffffffffffffffffffffffffffffffffffffff16600a60008787858181106142d757fe5b90506020020135815260200190815260200160002060020160009054906101000a900473ffffffffffffffffffffffffffffffffffffffff1673ffffffffffffffffffffffffffffffffffffffff161461433057600080fd5b600073ffffffffffffffffffffffffffffffffffffffff168273ffffffffffffffffffffffffffffffffffffffff16146143bd576001600481111561437157fe5b600a600087878581811061438157fe5b90506020020135815260200190815260200160002060030160149054906101000a900460ff1660048111156143b257fe5b146143bc57600080fd5b5b81600b60008787858181106143ce57fe5b90506020020135815260200190815260200160002060006101000a81548173ffffffffffffffffffffffffffffffffffffffff021916908373ffffffffffffffffffffffffffffffffffffffff1602179055508060010190506142a5565b5050505050565b600a6020528060005260406000206000915090508060010160009054906101000a900473ffffffffffffffffffffffffffffffffffffffff16908060020160009054906101000a900473ffffffffffffffffffffffffffffffffffffffff16908060030160009054906101000a900473ffffffffffffffffffffffffffffffffffffffff16908060030160149054906101000a900460ff169080600501549080600601549080600701549080600801549080600b01549080600c01549080600d01549080600e0160009054906101000a900461ffff169080600e0160029054906101000a900460ff1690508d565b60006001600481111561453057fe5b600a600084815260200190815260200160002060030160149054906101000a900460ff16600481111561455f57fe5b146145d2576040517f08c379a00000000000000000000000000000000000000000000000000000000081526004018080602001828103825260188152602001807f4c6f616e206973206e6f742079657420617070726f766564000000000000000081525060200191505060405180910390fd5b6145ff42600a60008581526020019081526020016000206009016001600281106145f857fe5b0154614b78565b6146d3614651600a600086815260200190815260200160002060050154600a6000878152602001908152602001600020600e0160029054906101000a900460ff1660ff16614a0c90919063ffffffff16565b6146c5614693600a600088815260200190815260200160002060050154600a600089815260200190815260200160002060060154614a0c90919063ffffffff16565b600a60008881526020019081526020016000206009016000600281106146b557fe5b015461498490919063ffffffff16565b61498490919063ffffffff16565b11159050919050565b600063f23a6e6160e01b905095945050505050565b6146f9614b26565b73ffffffffffffffffffffffffffffffffffffffff1660008054906101000a900473ffffffffffffffffffffffffffffffffffffffff1673ffffffffffffffffffffffffffffffffffffffff16146147b9576040517f08c379a00000000000000000000000000000000000000000000000000000000081526004018080602001828103825260208152602001807f4f776e61626c653a2063616c6c6572206973206e6f7420746865206f776e657281525060200191505060405180910390fd5b600073ffffffffffffffffffffffffffffffffffffffff168173ffffffffffffffffffffffffffffffffffffffff16141561483f576040517f08c379a0000000000000000000000000000000000000000000000000000000008152600401808060200182810382526026815260200180614f8d6026913960400191505060405180910390fd5b8073ffffffffffffffffffffffffffffffffffffffff1660008054906101000a900473ffffffffffffffffffffffffffffffffffffffff1673ffffffffffffffffffffffffffffffffffffffff167f8be0079c531659141344cd1fd0a4f28419497f9722a3daafe3b4186f6b6457e060405160405180910390a3806000806101000a81548173ffffffffffffffffffffffffffffffffffffffff021916908373ffffffffffffffffffffffffffffffffffffffff16021790555050565b6006546064828161490957fe5b0402821115614980576040517f08c379a000000000000000000000000000000000000000000000000000000000815260040180806020018281038252600c8152602001807f4c545620746f6f2068696768000000000000000000000000000000000000000081525060200191505060405180910390fd5b5050565b600080828401905083811015614a02576040517f08c379a000000000000000000000000000000000000000000000000000000000815260040180806020018281038252601b8152602001807f536166654d6174683a206164646974696f6e206f766572666c6f77000000000081525060200191505060405180910390fd5b8091505092915050565b600080831415614a1f5760009050614a8c565b6000828402905082848281614a3057fe5b0414614a87576040517f08c379a0000000000000000000000000000000000000000000000000000000008152600401808060200182810382526021815260200180614ffa6021913960400191505060405180910390fd5b809150505b92915050565b6000614ad483836040518060400160405280601a81526020017f536166654d6174683a206469766973696f6e206279207a65726f000000000000815250614b91565b905092915050565b6000614b1e83836040518060400160405280601881526020017f536166654d6174683a206d6f64756c6f206279207a65726f0000000000000000815250614c57565b905092915050565b600033905090565b6000614b7083836040518060400160405280601e81526020017f536166654d6174683a207375627472616374696f6e206f766572666c6f770000815250614d18565b905092915050565b6000818310614b875781614b89565b825b905092915050565b60008083118290614c3d576040517f08c379a00000000000000000000000000000000000000000000000000000000081526004018080602001828103825283818151815260200191508051906020019080838360005b83811015614c02578082015181840152602081019050614be7565b50505050905090810190601f168015614c2f5780820380516001836020036101000a031916815260200191505b509250505060405180910390fd5b506000838581614c4957fe5b049050809150509392505050565b6000808314158290614d04576040517f08c379a00000000000000000000000000000000000000000000000000000000081526004018080602001828103825283818151815260200191508051906020019080838360005b83811015614cc9578082015181840152602081019050614cae565b50505050905090810190601f168015614cf65780820380516001836020036101000a031916815260200191505b509250505060405180910390fd5b50828481614d0e57fe5b0690509392505050565b6000838311158290614dc5576040517f08c379a00000000000000000000000000000000000000000000000000000000081526004018080602001828103825283818151815260200191508051906020019080838360005b83811015614d8a578082015181840152602081019050614d6f565b50505050905090810190601f168015614db75780820380516001836020036101000a031916815260200191505b509250505060405180910390fd5b5060008385039050809150509392505050565b828054828255906000526020600020908101928215614e14579160200282015b82811115614e13578235825591602001919060010190614df8565b5b509050614e219190614f6f565b5090565b828054828255906000526020600020908101928215614eb4579160200282015b82811115614eb357823573ffffffffffffffffffffffffffffffffffffffff168260006101000a81548173ffffffffffffffffffffffffffffffffffffffff021916908373ffffffffffffffffffffffffffffffffffffffff16021790555091602001919060010190614e45565b5b509050614ec19190614f6f565b5090565b82805482825590600052602060002090601f01602090048101928215614f5e5791602002820160005b83821115614f2f57833560ff1683826101000a81548160ff021916908360ff1602179055509260200192600101602081600001049283019260010302614eee565b8015614f5c5782816101000a81549060ff0219169055600101602081600001049283019260010302614f2f565b505b509050614f6b9190614f6f565b5090565b5b80821115614f88576000816000905550600101614f70565b509056fe4f776e61626c653a206e6577206f776e657220697320746865207a65726f20616464726573735472616e73666572206f6620746f6b656e7320746f207265636569766572206661696c65645472616e73666572206f662045544820746f207265636569766572206661696c6564536166654d6174683a206d756c7469706c69636174696f6e206f766572666c6f775472616e73666572206f6620746f6b656e7320746f20537461746572206661696c6564a2646970667358221220c101201d412f06b586379f5e6adc30ccf712da3c26d6cdc27e501e9ddac423e864736f6c63430007060033",
  "linkReferences": {},
  "deployedLinkReferences": {}
}