{
  "_format": "hh-sol-artifact-1",
  "contractName": "LendingMethods",
  "sourceName": "contracts/lending/LendingMethods.sol",
  "abi": [
    {
      "inputs": [
        {
          "internalType": "string",
          "name": "name",
          "type": "string"
        },
        {
          "internalType": "string",
          "name": "symbol",
          "type": "string"
        }
      ],
      "stateMutability": "nonpayable",
      "type": "constructor"
    },
    {
      "anonymous": false,
      "inputs": [
        {
          "indexed": true,
          "internalType": "address",
          "name": "owner",
          "type": "address"
        },
        {
          "indexed": true,
          "internalType": "address",
          "name": "approved",
          "type": "address"
        },
        {
          "indexed": true,
          "internalType": "uint256",
          "name": "tokenId",
          "type": "uint256"
        }
      ],
      "name": "Approval",
      "type": "event"
    },
    {
      "anonymous": false,
      "inputs": [
        {
          "indexed": true,
          "internalType": "address",
          "name": "owner",
          "type": "address"
        },
        {
          "indexed": true,
          "internalType": "address",
          "name": "operator",
          "type": "address"
        },
        {
          "indexed": false,
          "internalType": "bool",
          "name": "approved",
          "type": "bool"
        }
      ],
      "name": "ApprovalForAll",
      "type": "event"
    },
    {
      "anonymous": false,
      "inputs": [
        {
          "indexed": true,
          "internalType": "uint256",
          "name": "loanId",
          "type": "uint256"
        },
        {
          "indexed": true,
          "internalType": "address",
          "name": "offerer",
          "type": "address"
        },
        {
          "indexed": true,
          "internalType": "uint256",
          "name": "position",
          "type": "uint256"
        }
      ],
      "name": "CloseLoanOffer",
      "type": "event"
    },
    {
      "anonymous": false,
      "inputs": [
        {
          "indexed": true,
          "internalType": "address",
          "name": "currency",
          "type": "address"
        },
        {
          "indexed": true,
          "internalType": "uint256",
          "name": "loanId",
          "type": "uint256"
        },
        {
          "indexed": false,
          "internalType": "uint256",
          "name": "loanAmount",
          "type": "uint256"
        },
        {
          "indexed": false,
          "internalType": "uint256",
          "name": "amountDue",
          "type": "uint256"
        },
        {
          "indexed": false,
          "internalType": "uint256",
          "name": "installmentAmount",
          "type": "uint256"
        },
        {
          "indexed": false,
          "internalType": "uint256",
          "name": "assetsValue",
          "type": "uint256"
        },
        {
          "indexed": false,
          "internalType": "uint256",
          "name": "frequencyTime",
          "type": "uint256"
        },
        {
          "indexed": false,
          "internalType": "uint256",
          "name": "frequencyTimeUnit",
          "type": "uint256"
        }
      ],
      "name": "EditLoan",
      "type": "event"
    },
    {
      "anonymous": false,
      "inputs": [
        {
          "indexed": true,
          "internalType": "address",
          "name": "requester",
          "type": "address"
        },
        {
          "indexed": true,
          "internalType": "uint256",
          "name": "loanId",
          "type": "uint256"
        },
        {
          "indexed": false,
          "internalType": "enum LendingCore.Status",
          "name": "status",
          "type": "uint8"
        }
      ],
      "name": "ItemsWithdrawn",
      "type": "event"
    },
    {
      "anonymous": false,
      "inputs": [
        {
          "indexed": true,
          "internalType": "address",
          "name": "lender",
          "type": "address"
        },
        {
          "indexed": true,
          "internalType": "uint256",
          "name": "loanId",
          "type": "uint256"
        },
        {
          "indexed": false,
          "internalType": "uint256",
          "name": "loanPaymentEnd",
          "type": "uint256"
        }
      ],
      "name": "LoanApproved",
      "type": "event"
    },
    {
      "anonymous": false,
      "inputs": [
        {
          "indexed": true,
          "internalType": "uint256",
          "name": "loanId",
          "type": "uint256"
        }
      ],
      "name": "LoanCancelled",
      "type": "event"
    },
    {
      "anonymous": false,
      "inputs": [
        {
          "indexed": true,
          "internalType": "uint256",
          "name": "loanId",
          "type": "uint256"
        },
        {
          "indexed": true,
          "internalType": "address",
          "name": "offerer",
          "type": "address"
        },
        {
          "indexed": false,
          "internalType": "uint256",
          "name": "offerId",
          "type": "uint256"
        },
        {
          "indexed": true,
          "internalType": "uint256",
          "name": "position",
          "type": "uint256"
        }
      ],
      "name": "LoanOffer",
      "type": "event"
    },
    {
      "anonymous": false,
      "inputs": [
        {
          "indexed": true,
          "internalType": "address",
          "name": "lender",
          "type": "address"
        },
        {
          "indexed": true,
          "internalType": "uint256",
          "name": "loanId",
          "type": "uint256"
        },
        {
          "indexed": true,
          "internalType": "uint256",
          "name": "offerId",
          "type": "uint256"
        },
        {
          "indexed": false,
          "internalType": "uint256",
          "name": "offerAmount",
          "type": "uint256"
        },
        {
          "indexed": false,
          "internalType": "uint256",
          "name": "loanPaymentEnd",
          "type": "uint256"
        }
      ],
      "name": "LoanOfferApproved",
      "type": "event"
    },
    {
      "anonymous": false,
      "inputs": [
        {
          "indexed": true,
          "internalType": "uint256",
          "name": "loanId",
          "type": "uint256"
        },
        {
          "indexed": false,
          "internalType": "uint256",
          "name": "installmentAmount",
          "type": "uint256"
        },
        {
          "indexed": false,
          "internalType": "uint256",
          "name": "amountPaidAsInstallmentToLender",
          "type": "uint256"
        },
        {
          "indexed": false,
          "internalType": "uint256",
          "name": "interestPerInstallement",
          "type": "uint256"
        },
        {
          "indexed": false,
          "internalType": "uint256",
          "name": "interestToStaterPerInstallement",
          "type": "uint256"
        },
        {
          "indexed": false,
          "internalType": "enum LendingCore.Status",
          "name": "status",
          "type": "uint8"
        }
      ],
      "name": "LoanPayment",
      "type": "event"
    },
    {
      "anonymous": false,
      "inputs": [
        {
          "indexed": true,
          "internalType": "address",
          "name": "owner",
          "type": "address"
        },
        {
          "indexed": true,
          "internalType": "address",
          "name": "currency",
          "type": "address"
        },
        {
          "indexed": true,
          "internalType": "uint256",
          "name": "loanId",
          "type": "uint256"
        },
        {
          "indexed": false,
          "internalType": "address[]",
          "name": "nftAddressArray",
          "type": "address[]"
        },
        {
          "indexed": false,
          "internalType": "uint256[]",
          "name": "nftTokenIdArray",
          "type": "uint256[]"
        },
        {
          "indexed": false,
          "internalType": "uint8[]",
          "name": "nftTokenTypeArray",
          "type": "uint8[]"
        }
      ],
      "name": "NewLoan",
      "type": "event"
    },
    {
      "anonymous": false,
      "inputs": [
        {
          "indexed": true,
          "internalType": "address",
          "name": "previousOwner",
          "type": "address"
        },
        {
          "indexed": true,
          "internalType": "address",
          "name": "newOwner",
          "type": "address"
        }
      ],
      "name": "OwnershipTransferred",
      "type": "event"
    },
    {
      "anonymous": false,
      "inputs": [
        {
          "indexed": true,
          "internalType": "address",
          "name": "from",
          "type": "address"
        },
        {
          "indexed": true,
          "internalType": "address",
          "name": "to",
          "type": "address"
        },
        {
          "indexed": true,
          "internalType": "uint256",
          "name": "tokenId",
          "type": "uint256"
        }
      ],
      "name": "Transfer",
      "type": "event"
    },
    {
      "inputs": [
        {
          "internalType": "address",
          "name": "to",
          "type": "address"
        },
        {
          "internalType": "uint256",
          "name": "tokenId",
          "type": "uint256"
        }
      ],
      "name": "approve",
      "outputs": [],
      "stateMutability": "nonpayable",
      "type": "function"
    },
    {
      "inputs": [
        {
          "internalType": "uint256",
          "name": "loanId",
          "type": "uint256"
        }
      ],
      "name": "approveLoan",
      "outputs": [],
      "stateMutability": "payable",
      "type": "function"
    },
    {
      "inputs": [
        {
          "internalType": "uint256",
          "name": "loanId",
          "type": "uint256"
        },
        {
          "internalType": "uint256",
          "name": "offerId",
          "type": "uint256"
        }
      ],
      "name": "approveLoanOffer",
      "outputs": [],
      "stateMutability": "nonpayable",
      "type": "function"
    },
    {
      "inputs": [
        {
          "internalType": "address",
          "name": "owner",
          "type": "address"
        }
      ],
      "name": "balanceOf",
      "outputs": [
        {
          "internalType": "uint256",
          "name": "",
          "type": "uint256"
        }
      ],
      "stateMutability": "view",
      "type": "function"
    },
    {
      "inputs": [
        {
          "internalType": "uint256",
          "name": "loanId",
          "type": "uint256"
        }
      ],
      "name": "canBeTerminated",
      "outputs": [
        {
          "internalType": "bool",
          "name": "",
          "type": "bool"
        }
      ],
      "stateMutability": "view",
      "type": "function"
    },
    {
      "inputs": [
        {
          "internalType": "uint256",
          "name": "loanId",
          "type": "uint256"
        }
      ],
      "name": "cancelLoan",
      "outputs": [],
      "stateMutability": "nonpayable",
      "type": "function"
    },
    {
      "inputs": [
        {
          "internalType": "uint256",
          "name": "loanValue",
          "type": "uint256"
        },
        {
          "internalType": "uint256",
          "name": "assetsValue",
          "type": "uint256"
        }
      ],
      "name": "checkLtv",
      "outputs": [],
      "stateMutability": "view",
      "type": "function"
    },
    {
      "inputs": [
        {
          "internalType": "address",
          "name": "from",
          "type": "address"
        },
        {
          "internalType": "address",
          "name": "currency",
          "type": "address"
        }
      ],
      "name": "checkTokensApproval",
      "outputs": [
        {
          "internalType": "uint256",
          "name": "",
          "type": "uint256"
        }
      ],
      "stateMutability": "view",
      "type": "function"
    },
    {
      "inputs": [
        {
          "internalType": "uint256",
          "name": "loanId",
          "type": "uint256"
        },
        {
          "internalType": "uint256",
          "name": "position",
          "type": "uint256"
        }
      ],
      "name": "closeOffer",
      "outputs": [],
      "stateMutability": "nonpayable",
      "type": "function"
    },
    {
      "inputs": [
        {
          "components": [
            {
              "internalType": "uint256",
              "name": "loanAmount",
              "type": "uint256"
            },
            {
              "internalType": "uint16",
              "name": "nrOfInstallments",
              "type": "uint16"
            },
            {
              "internalType": "address",
              "name": "currency",
              "type": "address"
            },
            {
              "internalType": "uint256",
              "name": "assetsValue",
              "type": "uint256"
            },
            {
              "internalType": "address[]",
              "name": "nftAddressArray",
              "type": "address[]"
            },
            {
              "internalType": "uint256[]",
              "name": "nftTokenIdArray",
              "type": "uint256[]"
            },
            {
              "internalType": "uint8[]",
              "name": "nftTokenTypeArray",
              "type": "uint8[]"
            }
          ],
          "internalType": "struct CreateLoanParams.Struct",
          "name": "input",
          "type": "tuple"
        }
      ],
      "name": "createLoan",
      "outputs": [],
      "stateMutability": "nonpayable",
      "type": "function"
    },
    {
      "inputs": [],
      "name": "discounts",
      "outputs": [
        {
          "internalType": "contract IStaterDiscounts",
          "name": "",
          "type": "address"
        }
      ],
      "stateMutability": "view",
      "type": "function"
    },
    {
      "inputs": [
        {
          "components": [
            {
              "internalType": "uint256",
              "name": "loanId",
              "type": "uint256"
            },
            {
              "internalType": "uint256",
              "name": "loanAmount",
              "type": "uint256"
            },
            {
              "internalType": "uint16",
              "name": "nrOfInstallments",
              "type": "uint16"
            },
            {
              "internalType": "address",
              "name": "currency",
              "type": "address"
            },
            {
              "internalType": "uint256",
              "name": "assetsValue",
              "type": "uint256"
            },
            {
              "internalType": "uint256",
              "name": "installmentTime",
              "type": "uint256"
            }
          ],
          "internalType": "struct EditLoanParams.Struct",
          "name": "input",
          "type": "tuple"
        }
      ],
      "name": "editLoan",
      "outputs": [],
      "stateMutability": "nonpayable",
      "type": "function"
    },
    {
      "inputs": [
        {
          "internalType": "uint256",
          "name": "tokenId",
          "type": "uint256"
        }
      ],
      "name": "getApproved",
      "outputs": [
        {
          "internalType": "address",
          "name": "",
          "type": "address"
        }
      ],
      "stateMutability": "view",
      "type": "function"
    },
    {
      "inputs": [
        {
          "internalType": "uint256",
          "name": "loanId",
          "type": "uint256"
        }
      ],
      "name": "getLoanStartEnd",
      "outputs": [
        {
          "internalType": "uint256[2]",
          "name": "",
          "type": "uint256[2]"
        }
      ],
      "stateMutability": "view",
      "type": "function"
    },
    {
      "inputs": [],
      "name": "id",
      "outputs": [
        {
          "internalType": "uint256",
          "name": "",
          "type": "uint256"
        }
      ],
      "stateMutability": "view",
      "type": "function"
    },
    {
      "inputs": [],
      "name": "interestRate",
      "outputs": [
        {
          "internalType": "uint256",
          "name": "",
          "type": "uint256"
        }
      ],
      "stateMutability": "view",
      "type": "function"
    },
    {
      "inputs": [],
      "name": "interestRateToStater",
      "outputs": [
        {
          "internalType": "uint256",
          "name": "",
          "type": "uint256"
        }
      ],
      "stateMutability": "view",
      "type": "function"
    },
    {
      "inputs": [
        {
          "internalType": "address",
          "name": "owner",
          "type": "address"
        },
        {
          "internalType": "address",
          "name": "operator",
          "type": "address"
        }
      ],
      "name": "isApprovedForAll",
      "outputs": [
        {
          "internalType": "bool",
          "name": "",
          "type": "bool"
        }
      ],
      "stateMutability": "view",
      "type": "function"
    },
    {
      "inputs": [],
      "name": "lenderFee",
      "outputs": [
        {
          "internalType": "uint32",
          "name": "",
          "type": "uint32"
        }
      ],
      "stateMutability": "view",
      "type": "function"
    },
    {
      "inputs": [],
      "name": "lendingMethodsAddress",
      "outputs": [
        {
          "internalType": "address",
          "name": "",
          "type": "address"
        }
      ],
      "stateMutability": "view",
      "type": "function"
    },
    {
      "inputs": [
        {
          "internalType": "uint256",
          "name": "",
          "type": "uint256"
        }
      ],
      "name": "loans",
      "outputs": [
        {
          "internalType": "address payable",
          "name": "borrower",
          "type": "address"
        },
        {
          "internalType": "address payable",
          "name": "lender",
          "type": "address"
        },
        {
          "internalType": "address",
          "name": "currency",
          "type": "address"
        },
        {
          "internalType": "enum LendingCore.Status",
          "name": "status",
          "type": "uint8"
        },
        {
          "internalType": "uint256",
          "name": "installmentTime",
          "type": "uint256"
        },
        {
          "internalType": "uint256",
          "name": "nrOfPayments",
          "type": "uint256"
        },
        {
          "internalType": "uint256",
          "name": "loanAmount",
          "type": "uint256"
        },
        {
          "internalType": "uint256",
          "name": "assetsValue",
          "type": "uint256"
        },
        {
          "internalType": "uint256",
          "name": "installmentAmount",
          "type": "uint256"
        },
        {
          "internalType": "uint256",
          "name": "amountDue",
          "type": "uint256"
        },
        {
          "internalType": "uint256",
          "name": "paidAmount",
          "type": "uint256"
        },
        {
          "internalType": "uint16",
          "name": "nrOfInstallments",
          "type": "uint16"
        },
        {
          "internalType": "uint8",
          "name": "defaultingLimit",
          "type": "uint8"
        }
      ],
      "stateMutability": "view",
      "type": "function"
    },
    {
      "inputs": [],
      "name": "ltv",
      "outputs": [
        {
          "internalType": "uint256",
          "name": "",
          "type": "uint256"
        }
      ],
      "stateMutability": "view",
      "type": "function"
    },
    {
      "inputs": [],
      "name": "name",
      "outputs": [
        {
          "internalType": "string",
          "name": "",
          "type": "string"
        }
      ],
      "stateMutability": "view",
      "type": "function"
    },
    {
      "inputs": [
        {
          "internalType": "uint256",
          "name": "loanId",
          "type": "uint256"
        },
        {
          "internalType": "uint256",
          "name": "offeredAmount",
          "type": "uint256"
        }
      ],
      "name": "offer",
      "outputs": [],
      "stateMutability": "payable",
      "type": "function"
    },
    {
      "inputs": [
        {
          "internalType": "address",
          "name": "",
          "type": "address"
        },
        {
          "internalType": "address",
          "name": "",
          "type": "address"
        },
        {
          "internalType": "uint256",
          "name": "",
          "type": "uint256"
        },
        {
          "internalType": "bytes",
          "name": "",
          "type": "bytes"
        }
      ],
      "name": "onERC721Received",
      "outputs": [
        {
          "internalType": "bytes4",
          "name": "",
          "type": "bytes4"
        }
      ],
      "stateMutability": "nonpayable",
      "type": "function"
    },
    {
      "inputs": [],
      "name": "owner",
      "outputs": [
        {
          "internalType": "address",
          "name": "",
          "type": "address"
        }
      ],
      "stateMutability": "view",
      "type": "function"
    },
    {
      "inputs": [
        {
          "internalType": "uint256",
          "name": "tokenId",
          "type": "uint256"
        }
      ],
      "name": "ownerOf",
      "outputs": [
        {
          "internalType": "address",
          "name": "",
          "type": "address"
        }
      ],
      "stateMutability": "view",
      "type": "function"
    },
    {
      "inputs": [
        {
          "internalType": "uint256",
          "name": "loanId",
          "type": "uint256"
        },
        {
          "internalType": "uint256",
          "name": "amount",
          "type": "uint256"
        }
      ],
      "name": "payLoan",
      "outputs": [],
      "stateMutability": "payable",
      "type": "function"
    },
    {
      "inputs": [],
      "name": "renounceOwnership",
      "outputs": [],
      "stateMutability": "nonpayable",
      "type": "function"
    },
    {
      "inputs": [
        {
          "internalType": "address",
          "name": "from",
          "type": "address"
        },
        {
          "internalType": "address",
          "name": "to",
          "type": "address"
        },
        {
          "internalType": "uint256",
          "name": "tokenId",
          "type": "uint256"
        }
      ],
      "name": "safeTransferFrom",
      "outputs": [],
      "stateMutability": "nonpayable",
      "type": "function"
    },
    {
      "inputs": [
        {
          "internalType": "address",
          "name": "from",
          "type": "address"
        },
        {
          "internalType": "address",
          "name": "to",
          "type": "address"
        },
        {
          "internalType": "uint256",
          "name": "tokenId",
          "type": "uint256"
        },
        {
          "internalType": "bytes",
          "name": "_data",
          "type": "bytes"
        }
      ],
      "name": "safeTransferFrom",
      "outputs": [],
      "stateMutability": "nonpayable",
      "type": "function"
    },
    {
      "inputs": [
        {
          "internalType": "address",
          "name": "operator",
          "type": "address"
        },
        {
          "internalType": "bool",
          "name": "approved",
          "type": "bool"
        }
      ],
      "name": "setApprovalForAll",
      "outputs": [],
      "stateMutability": "nonpayable",
      "type": "function"
    },
    {
      "inputs": [
        {
          "internalType": "address",
          "name": "lending",
          "type": "address"
        },
        {
          "internalType": "address",
          "name": "discountsAddress",
          "type": "address"
        }
      ],
      "name": "setGlobalParameters",
      "outputs": [],
      "stateMutability": "nonpayable",
      "type": "function"
    },
    {
      "inputs": [
        {
          "internalType": "bytes4",
          "name": "interfaceId",
          "type": "bytes4"
        }
      ],
      "name": "supportsInterface",
      "outputs": [
        {
          "internalType": "bool",
          "name": "",
          "type": "bool"
        }
      ],
      "stateMutability": "view",
      "type": "function"
    },
    {
      "inputs": [],
      "name": "symbol",
      "outputs": [
        {
          "internalType": "string",
          "name": "",
          "type": "string"
        }
      ],
      "stateMutability": "view",
      "type": "function"
    },
    {
      "inputs": [
        {
          "internalType": "uint256",
          "name": "loanId",
          "type": "uint256"
        }
      ],
      "name": "terminateLoan",
      "outputs": [],
      "stateMutability": "nonpayable",
      "type": "function"
    },
    {
      "inputs": [
        {
          "internalType": "uint256",
          "name": "tokenId",
          "type": "uint256"
        }
      ],
      "name": "tokenURI",
      "outputs": [
        {
          "internalType": "string",
          "name": "",
          "type": "string"
        }
      ],
      "stateMutability": "view",
      "type": "function"
    },
    {
      "inputs": [
        {
          "internalType": "address",
          "name": "from",
          "type": "address"
        },
        {
          "internalType": "address",
          "name": "to",
          "type": "address"
        },
        {
          "internalType": "uint256",
          "name": "tokenId",
          "type": "uint256"
        }
      ],
      "name": "transferFrom",
      "outputs": [],
      "stateMutability": "nonpayable",
      "type": "function"
    },
    {
      "inputs": [
        {
          "internalType": "address",
          "name": "from",
          "type": "address"
        },
        {
          "internalType": "address",
          "name": "to",
          "type": "address"
        },
        {
          "internalType": "address[]",
          "name": "nftAddressArray",
          "type": "address[]"
        },
        {
          "internalType": "uint256[]",
          "name": "nftTokenIdArray",
          "type": "uint256[]"
        },
        {
          "internalType": "uint8[]",
          "name": "nftTokenTypeArray",
          "type": "uint8[]"
        }
      ],
      "name": "transferItems",
      "outputs": [],
      "stateMutability": "nonpayable",
      "type": "function"
    },
    {
      "inputs": [
        {
          "internalType": "address",
          "name": "newOwner",
          "type": "address"
        }
      ],
      "name": "transferOwnership",
      "outputs": [],
      "stateMutability": "nonpayable",
      "type": "function"
    },
    {
      "inputs": [
        {
          "internalType": "address",
          "name": "from",
          "type": "address"
        },
        {
          "internalType": "address payable",
          "name": "to",
          "type": "address"
        },
        {
          "internalType": "address",
          "name": "currency",
          "type": "address"
        },
        {
          "internalType": "uint256",
          "name": "qty1",
          "type": "uint256"
        },
        {
          "internalType": "uint256",
          "name": "qty2",
          "type": "uint256"
        }
      ],
      "name": "transferTokens",
      "outputs": [],
      "stateMutability": "nonpayable",
      "type": "function"
    }
  ],
  "bytecode": "0x60806040526001600955603c600a556014600b556028600c55600d805463ffffffff191660641790553480156200003557600080fd5b506040516200475c3803806200475c833981016040819052620000589162000262565b8181818162000067336200009f565b81516200007c906001906020850190620000ef565b50805162000092906002906020840190620000ef565b5050505050505062000308565b600080546001600160a01b038381166001600160a01b0319831681178455604051919092169283917f8be0079c531659141344cd1fd0a4f28419497f9722a3daafe3b4186f6b6457e09190a35050565b828054620000fd90620002cc565b90600052602060002090601f0160209004810192826200012157600085556200016c565b82601f106200013c57805160ff19168380011785556200016c565b828001600101855582156200016c579182015b828111156200016c5782518255916020019190600101906200014f565b506200017a9291506200017e565b5090565b5b808211156200017a57600081556001016200017f565b634e487b7160e01b600052604160045260246000fd5b600082601f830112620001bd57600080fd5b81516001600160401b0380821115620001da57620001da62000195565b604051601f8301601f19908116603f0116810190828211818310171562000205576200020562000195565b816040528381526020925086838588010111156200022257600080fd5b600091505b8382101562000246578582018301518183018401529082019062000227565b83821115620002585760008385830101525b9695505050505050565b600080604083850312156200027657600080fd5b82516001600160401b03808211156200028e57600080fd5b6200029c86838701620001ab565b93506020850151915080821115620002b357600080fd5b50620002c285828601620001ab565b9150509250929050565b600181811c90821680620002e157607f821691505b6020821081036200030257634e487b7160e01b600052602260045260246000fd5b50919050565b61444480620003186000396000f3fe6080604052600436106101d65760003560e01c806301ffc9a7146101db57806306fdde0314610210578063081812fc14610232578063095ea7b31461025f578063150b7a021461028157806323b872dd146102ba5780632cccad92146102da5780632e3f4a5d146102fa57806333812d211461031a57806338daa7891461033a578063407299d71461035a5780634100f6b01461037a57806342842e0e1461039a5780635e66af3c146103ba5780636352211e146103da5780636fb49d73146103fa57806370a082311461041e578063715018a61461043e57806375af65d1146104535780637c3a00fd146104735780637fb9fe3d1461048957806387715588146104a957806389306e61146104c95780638ca83f07146104dc5780638da5cb5b1461050e5780638f8292751461052357806395d89b41146105395780639e1d7a1e1461054e578063a19205861461057b578063a22cb4651461058e578063aadc1ac1146105ae578063af640d0f146105c1578063b88d4fde146105d7578063bcd96e8f146105f7578063bdbfa3de14610617578063bdd3dc8e14610637578063c87b56dd14610657578063e1ec3c6814610677578063e70c744614610730578063e985e9c514610750578063f2fde38b14610770575b600080fd5b3480156101e757600080fd5b506101fb6101f636600461383e565b610790565b60405190151581526020015b60405180910390f35b34801561021c57600080fd5b506102256107e2565b60405161020791906138b3565b34801561023e57600080fd5b5061025261024d3660046138c6565b610874565b60405161020791906138df565b34801561026b57600080fd5b5061027f61027a366004613918565b610901565b005b34801561028d57600080fd5b506102a161029c3660046139b2565b610a11565b6040516001600160e01b03199091168152602001610207565b3480156102c657600080fd5b5061027f6102d5366004613a75565b610a22565b3480156102e657600080fd5b5061027f6102f5366004613ab6565b610a53565b34801561030657600080fd5b5061027f610315366004613aef565b610ab0565b34801561032657600080fd5b5061027f610335366004613b5c565b610d61565b34801561034657600080fd5b50600754610252906001600160a01b031681565b34801561036657600080fd5b5061027f610375366004613d41565b6110b2565b34801561038657600080fd5b5061027f610395366004613dee565b6112c9565b3480156103a657600080fd5b5061027f6103b5366004613a75565b6113bf565b3480156103c657600080fd5b5061027f6103d5366004613e10565b6113da565b3480156103e657600080fd5b506102526103f53660046138c6565b611793565b34801561040657600080fd5b50610410600a5481565b604051908152602001610207565b34801561042a57600080fd5b50610410610439366004613efa565b61180a565b34801561044a57600080fd5b5061027f611891565b34801561045f57600080fd5b50600854610252906001600160a01b031681565b34801561047f57600080fd5b50610410600b5481565b34801561049557600080fd5b5061027f6104a43660046138c6565b6118cc565b3480156104b557600080fd5b5061027f6104c4366004613dee565b611e4c565b61027f6104d7366004613dee565b611ea6565b3480156104e857600080fd5b50600d546104f99063ffffffff1681565b60405163ffffffff9091168152602001610207565b34801561051a57600080fd5b50610252612235565b34801561052f57600080fd5b50610410600c5481565b34801561054557600080fd5b50610225612244565b34801561055a57600080fd5b5061056e6105693660046138c6565b612253565b6040516102079190613f17565b61027f610589366004613dee565b6122a1565b34801561059a57600080fd5b5061027f6105a9366004613f56565b61249e565b61027f6105bc3660046138c6565b6124a9565b3480156105cd57600080fd5b5061041060095481565b3480156105e357600080fd5b5061027f6105f23660046139b2565b6127cc565b34801561060357600080fd5b5061027f610612366004613dee565b612804565b34801561062357600080fd5b5061027f6106323660046138c6565b612b89565b34801561064357600080fd5b50610410610652366004613ab6565b612c93565b34801561066357600080fd5b506102256106723660046138c6565b612d0e565b34801561068357600080fd5b506107176106923660046138c6565b600e602081905260009182526040909120600281015460038201546004830154600784015460088501546009860154600a870154600d88015498880154600f8901546010909901546001600160a01b039889169a978916999887169860ff600160a01b909804881698969795969495939493909161ffff81169162010000909104168d565b6040516102079d9c9b9a99989796959493929190613fbc565b34801561073c57600080fd5b506101fb61074b3660046138c6565b612de5565b34801561075c57600080fd5b506101fb61076b366004613ab6565b612f31565b34801561077c57600080fd5b5061027f61078b366004613efa565b612f5f565b60006001600160e01b031982166380ac58cd60e01b14806107c157506001600160e01b03198216635b5e139f60e01b145b806107dc57506301ffc9a760e01b6001600160e01b03198316145b92915050565b6060600180546107f19061403b565b80601f016020809104026020016040519081016040528092919081815260200182805461081d9061403b565b801561086a5780601f1061083f5761010080835404028352916020019161086a565b820191906000526020600020905b81548152906001019060200180831161084d57829003601f168201915b5050505050905090565b600061087f82612fff565b6108e55760405162461bcd60e51b815260206004820152602c60248201527f4552433732313a20617070726f76656420717565727920666f72206e6f6e657860448201526b34b9ba32b73a103a37b5b2b760a11b60648201526084015b60405180910390fd5b506000908152600560205260409020546001600160a01b031690565b600061090c82611793565b9050806001600160a01b0316836001600160a01b0316036109795760405162461bcd60e51b815260206004820152602160248201527f4552433732313a20617070726f76616c20746f2063757272656e74206f776e656044820152603960f91b60648201526084016108dc565b336001600160a01b038216148061099557506109958133612f31565b610a025760405162461bcd60e51b815260206004820152603860248201527f4552433732313a20617070726f76652063616c6c6572206973206e6f74206f776044820152771b995c881b9bdc88185c1c1c9bdd995908199bdc88185b1b60421b60648201526084016108dc565b610a0c838361301c565b505050565b630a85bd0160e11b5b949350505050565b610a2c338261308a565b610a485760405162461bcd60e51b81526004016108dc90614075565b610a0c838383613153565b33610a5c612235565b6001600160a01b031614610a825760405162461bcd60e51b81526004016108dc906140c6565b600780546001600160a01b039384166001600160a01b03199182161790915560088054929093169116179055565b6001600160a01b03831615610c63576040516323b872dd60e01b81526001600160a01b038416906323b872dd90610aef908890889087906004016140fb565b6020604051808303816000875af1158015610b0e573d6000803e3d6000fd5b505050506040513d601f19601f82011682018060405250810190610b32919061411f565b610b8c5760405162461bcd60e51b815260206004820152602560248201527f5472616e73666572206f6620746f6b656e7320746f2072656365697665722066604482015264185a5b195960da1b60648201526084016108dc565b826001600160a01b03166323b872dd86610ba4612235565b846040518463ffffffff1660e01b8152600401610bc3939291906140fb565b6020604051808303816000875af1158015610be2573d6000803e3d6000fd5b505050506040513d601f19601f82011682018060405250810190610c06919061411f565b610c5e5760405162461bcd60e51b815260206004820152602360248201527f5472616e73666572206f6620746f6b656e7320746f20537461746572206661696044820152621b195960ea1b60648201526084016108dc565b610d5a565b6040516001600160a01b0385169083156108fc029084906000818181858888f19350505050610cdf5760405162461bcd60e51b815260206004820152602260248201527f5472616e73666572206f662045544820746f207265636569766572206661696c604482015261195960f21b60648201526084016108dc565b610ce7612235565b6001600160a01b03166108fc829081150290604051600060405180830381858888f19350505050610d5a5760405162461bcd60e51b815260206004820181905260248201527f5472616e73666572206f662045544820746f20537461746572206661696c656460448201526064016108dc565b5050505050565b6000816040015161ffff16118015610d7d575060008160200151115b610d8657600080fd5b80516000908152600e60205260409020600201546001600160a01b03163314610dae57600080fd5b600181516000908152600e60205260409020600490810154600160a01b900460ff1690811115610de057610de0613f84565b10610dea57600080fd5b610dfc81602001518260800151611e4c565b60a081015181516000908152600e60209081526040808320600701939093558301518351825291902060090155600b54606490610e399082614152565b8260200151610e48919061416a565b610e52919061419f565b81516000908152600e60208190526040808320820193909355828401518451835292822001549091610e8a9161ffff909116906141b3565b11610ebd5760408082015182516000908152600e602081905292902090910154610eb89161ffff169061419f565b610ef1565b60408082015182516000908152600e602081905292902090910154610ee69161ffff169061419f565b610ef1906001614152565b81516000908152600e6020526040808220600d0192909255608083015183518252828220600a0155818301805184518352838320601001805461ffff191661ffff9283161790556060850151855184529390922060040180546001600160a01b0319166001600160a01b039094169390931790925590516003911611610f985780516000908152600e60205260409020601001805462ff0000191662010000179055611002565b6005816040015161ffff1611610fcf5780516000908152600e60205260409020601001805462ff0000191662020000179055611002565b6006816040015161ffff16106110025780516000908152600e60205260409020601001805462ff00001916620300001790555b805160608201516020808401516000848152600e9283905260408082209093015486518252838220600d01548751835291849020600a015460a08801518589015195516001600160a01b03909716967f8e1902f1b79a83752dd0c0b34c25d3d3b241fba59defc28b8fb8e182360136d1966110a79695939291958652602086019490945260408501929092526060840152608083015261ffff1660a082015260c00190565b60405180910390a350565b82518251811480156110c45750808251145b6111105760405162461bcd60e51b815260206004820181905260248201527f546f6b656e20696e666f732070726f76696465642061726520696e76616c696460448201526064016108dc565b60005b818110156112c05782818151811061112d5761112d6141c7565b602002602001015160ff166000036111d857848181518110611151576111516141c7565b60200260200101516001600160a01b03166342842e0e888887858151811061117b5761117b6141c7565b60200260200101516040518463ffffffff1660e01b81526004016111a1939291906140fb565b600060405180830381600087803b1580156111bb57600080fd5b505af11580156111cf573d6000803e3d6000fd5b505050506112b0565b8481815181106111ea576111ea6141c7565b60200260200101516001600160a01b031663f242432a8888878581518110611214576112146141c7565b602002602001015160016040518563ffffffff1660e01b815260040161127d94939291906001600160a01b0394851681529290931660208301526040820152606081019190915260a060808201819052600490820152630307830360e41b60c082015260e00190565b600060405180830381600087803b15801561129757600080fd5b505af11580156112ab573d6000803e3d6000fd5b505050505b6112b9816141dd565b9050611113565b50505050505050565b6000828152600e602052604090206001018054339190839081106112ef576112ef6141c7565b6000918252602090912001546001600160a01b03161461130e57600080fd5b6000828152600e6020526040902060048101546006909101805461135e92339283926001600160a01b03909216918690811061134c5761134c6141c7565b90600052602060002001546000610ab0565b6000828152600e60205260408120600601805483908110611381576113816141c7565b60009182526020822001919091556040518291339185917f670473ae4f8ffeb7be591f74a4677245f1e32d2f340ab6eb32ca3b2f9f05d93391a45050565b610a0c838383604051806020016040528060008152506127cc565b6000816020015161ffff161180156113f25750805115155b801561140357506000816080015151115b61140c57600080fd5b8060a001515181608001515114801561142e57508060c00151518160a0015151145b61143757600080fd5b6060810151600980546000908152600e6020526040808220600a9081019490945584519254825290209091015461146e9190611e4c565b6003816020015161ffff16116114a6576009546000908152600e60205260409020601001805462ff0000191662010000179055611512565b6005816020015161ffff16116114de576009546000908152600e60205260409020601001805462ff0000191662020000179055611512565b6006816020015161ffff1610611512576009546000908152600e60205260409020601001805462ff00001916620300001790555b8060a00151600e6000600954815260200190815260200160002060050190805190602001906115429291906136b4565b508051600980546000908152600e602052604090200155600b546064906115699082614152565b8251611575919061416a565b61157f919061419f565b600980546000908152600e602081815260408084208301959095558501805184548452858420601001805461ffff191661ffff928316179055905193548352938220015490926115d09216906141b3565b1161160657806020015161ffff16600e60006009548152602001908152602001600020600e0154611601919061419f565b61163d565b806020015161ffff16600e60006009548152602001908152602001600020600e0154611632919061419f565b61163d906001614152565b600980546000908152600e60209081526040808320600d019490945582548252838220600401805460ff60a01b19169055608085015192548252929020815161168b939192909101906136ff565b50600980546000908152600e602090815260408083206002018054336001600160a01b031991821617909155858201518554855282852060040180549092166001600160a01b0390911617905560c08501519354835290912082516116fa936011909201929190910190613754565b5062093a80600e600060095481526020019081526020016000206007018190555060095481604001516001600160a01b0316336001600160a01b03167f06b4fa68493c57d0a3bcfe8fd7db7297b3f4ed7c3f730fd563791eaafa27439d84608001518560a001518660c0015160405161177593929190614234565b60405180910390a460096000815461178c906141dd565b9091555050565b6000818152600360205260408120546001600160a01b0316806107dc5760405162461bcd60e51b815260206004820152602960248201527f4552433732313a206f776e657220717565727920666f72206e6f6e657869737460448201526832b73a103a37b5b2b760b91b60648201526084016108dc565b60006001600160a01b0382166118755760405162461bcd60e51b815260206004820152602a60248201527f4552433732313a2062616c616e636520717565727920666f7220746865207a65604482015269726f206164647265737360b01b60648201526084016108dc565b506001600160a01b031660009081526004602052604090205490565b3361189a612235565b6001600160a01b0316146118c05760405162461bcd60e51b81526004016108dc906140c6565b6118ca60006132ef565b565b6000818152600e60205260409020600201546001600160a01b031633148061190d57506000818152600e60205260409020600301546001600160a01b031633145b61191657600080fd5b60046000828152600e60205260409020600490810154600160a01b900460ff169081111561194657611946613f84565b0361195057600080fd5b6000818152600e60205260409020600c01544210158061198957506000818152600e6020819052604090912090810154600f9091015410155b80611998575061199881612de5565b6119a157600080fd5b60026000828152600e60205260409020600490810154600160a01b900460ff16908111156119d1576119d1613f84565b1480611a0a575060016000828152600e60205260409020600490810154600160a01b900460ff1690811115611a0857611a08613f84565b145b611a1357600080fd5b611a38604051806040016040528060048152602001634f6b203160e01b81525061333f565b611a4181612de5565b15611bdf57611a6b6040518060400160405280600481526020016327b5901960e11b81525061333f565b6000818152600e602090815260409182902060048101805460ff60a01b1916600160a21b17905560038101548154845181850281018501909552808552611bda9430946001600160a01b03909316939092909190830182828015611af857602002820191906000526020600020905b81546001600160a01b03168152600190910190602001808311611ada575b5050506000878152600e602090815260409182902060050180548351818402810184019094528084529294509250830182828015611b5557602002820191906000526020600020905b815481526020019060010190808311611b41575b5050506000888152600e602090815260409182902060110180548351818402810184019094528084529294509250830182828015611bd057602002820191906000526020600020906000905b825461010083900a900460ff16815260206001928301818104948501949093039092029101808411611ba15790505b50505050506110b2565b611dfb565b611c04604051806040016040528060048152602001634f6b203360e01b81525061333f565b6000818152600e60205260409020600c01544210801590611c3d57506000818152600e6020819052604090912090810154600f90910154105b15611c6757611a6b6040518060400160405280600481526020016313dac80d60e21b81525061333f565b6000818152600e6020819052604090912090810154600f9091015410611dfb57611cac604051806040016040528060048152602001634f6b203560e01b81525061333f565b6000818152600e602090815260409182902060048101805460ff60a01b1916600160a21b17905560028101548154845181850281018501909552808552611dfb9430946001600160a01b03909316939092909190830182828015611af8576020028201919060005260206000209081546001600160a01b03168152600190910190602001808311611ada575050506000878152600e602090815260409182902060050180548351818402810184019094528084529294509250830182828015611b555760200282019190600052602060002090815481526020019060010190808311611b41575050506000888152600e602090815260409182902060110180548351818402810184019094528084529294509250830182828015611bd0576000918252602091829020805460ff168452908202830192909160019101808411611ba157905050505050506110b2565b6000818152600e602052604090819020600401549051829133917f174efca9557ce00d5a6f26355f73e3873fed7d6f8248757750569e4699146c67916110a791600160a01b90910460ff16906142cb565b600a54611e5a60648361419f565b611e64919061416a565b821115611ea25760405162461bcd60e51b815260206004820152600c60248201526b098a8ac40e8dede40d0d2ced60a31b60448201526064016108dc565b5050565b6000828152600e60205260409020600201546001600160a01b03163314611ecc57600080fd5b60016000838152600e60205260409020600490810154600160a01b900460ff1690811115611efc57611efc613f84565b14611f0657600080fd5b6000828152600e60205260409020600c0154421115611f2457600080fd5b600034118015611f4c57506000828152600e60205260409020600401546001600160a01b0316155b8015611f5757508034145b80611f9057506000828152600e60205260409020600401546001600160a01b031615801590611f84575034155b8015611f905750600081115b611f9957600080fd5b6000803411611fa85781611faa565b345b9050600081905060006064600b5484611fc3919061416a565b611fcd919061419f565b60085460405163ad6a874560e01b81529192506000916001600160a01b039091169063ad6a8745906120039033906004016138df565b602060405180830381865afa158015612020573d6000803e3d6000fd5b505050506040513d601f19601f8201168201806040525081019061204491906142d9565b905060006064600c5484612058919061416a565b612062919061419f565b9050816001146120e7576000878152600e60205260409020600401546001600160a01b03166120d057336108fc612099848461419f565b6040518115909202916000818181858888f193505050506120b957600080fd5b6120c3828261419f565b6120cd90856142f2565b93505b6120da828261419f565b6120e490826142f2565b90505b6120f181856142f2565b6000888152600e60205260409020600f0154909450612111908690614152565b6000888152600e60205260409020600f810191909155600d0154612135908661419f565b6000888152600e60205260409020600801546121519190614152565b6000888152600e602081905260409091206008810192909255810154600f909101541061219b576000878152600e60205260409020600401805460ff60a01b1916600160a11b1790555b6000878152600e6020526040902060038101546004909101546121ce9133916001600160a01b0391821691168785610ab0565b6000878152600e60205260409081902060040154905188917fb5c84f6603b8d7669dbbe31fd93a237657c42054c0b237b7d4215fa463523b5b91612224918991899189918891600160a01b900460ff1690614309565b60405180910390a250505050505050565b6000546001600160a01b031690565b6060600280546107f19061403b565b61225b6137f5565b6000828152600e6020526040908190208151808301909252600b0160028282826020028201915b8154815260200190600101908083116122825750505050509050919050565b600080838152600e60205260409020600490810154600160a01b900460ff16908111156122d0576122d0613f84565b146122da57600080fd5b6000828152600e60205260409020600901548111156122f857600080fd5b6000828152600e60205260409020600401546001600160a01b031615612346576000828152600e602052604090206004015461233e9033906001600160a01b0316612c93565b81111561234b565b803410155b61235457600080fd5b60008060005b6000858152600e6020526040902060010154811015612401576000858152600e60205260409020600101805433919083908110612399576123996141c7565b6000918252602090912001546001600160a01b0316036123f1576000858152600e602052604090206006018054859190839081106123d9576123d96141c7565b60009182526020909120015560019250905080612401565b6123fa816141dd565b905061235a565b508161245357506000838152600e602090815260408220600180820180548083018255908552838520810180546001600160a01b03191633179055600690920180549182018155845291909220018390555b80336001600160a01b0316857fcf22a5436254b0581829633b362f711c1ec8562355555e4a62e468c30bd4bb2e8660405161249091815260200190565b60405180910390a450505050565b611ea2338383613382565b6000818152600e60205260409020600301546001600160a01b0316156124ce57600080fd5b6000818152600e60205260409020600f0154156124ea57600080fd5b600080828152600e60205260409020600490810154600160a01b900460ff169081111561251957612519613f84565b1461252357600080fd5b6000818152600e602052604090206003810180546001600160a01b03191633179055600781015460109091015461255e919061ffff1661416a565b6125689042614152565b6000828152600e6020526040808220600c8101939093556004808401805460ff60a01b1916600160a01b17905542600b90940193909355600854905163ad6a874560e01b815291926001600160a01b039091169163ad6a8745916125ce913391016138df565b602060405180830381865afa1580156125eb573d6000803e3d6000fd5b505050506040513d601f19601f8201168201806040525081019061260f91906142d9565b6000838152600e60205260409020600401549091506001600160a01b031661268c57600d546000838152600e6020526040902060090154829161265a9163ffffffff9091169061419f565b612664919061419f565b6000838152600e60205260409020600901546126809190614152565b34101561268c57600080fd5b6000828152600e6020526040902060028101546004820154600990920154600d546126de9333936001600160a01b039081169391169186906126d49063ffffffff168361419f565b610315919061419f565b60005b6000838152600e602052604090206001015481101561277b576000838152600e60205260409020600101805461276b91309184908110612723576127236141c7565b6000918252602080832090910154878352600e90915260409091206004810154600690910180546001600160a01b039384169392909216918690811061134c5761134c6141c7565b612774816141dd565b90506126e1565b506000828152600e60205260409020829033907f1a8ecea83cbcff0f4c46b7e42f55227161863220eb7d439fde442dfdc0ddbc4e90600b016001015460405190815260200160405180910390a35050565b6127d6338361308a565b6127f25760405162461bcd60e51b81526004016108dc90614075565b6127fe8484848461344c565b50505050565b6000828152600e60205260409020600301546001600160a01b03161561282957600080fd5b6000828152600e60205260409020600f01541561284557600080fd5b600080838152600e60205260409020600490810154600160a01b900460ff169081111561287457612874613f84565b1461287e57600080fd5b6000828152600e602052604090206001018054829081106128a1576128a16141c7565b6000918252602080832090910154848352600e90915260409091206003810180546001600160a01b0319166001600160a01b039093169290921790915560078101546010909101546128f7919061ffff1661416a565b6129019042614152565b6000838152600e6020526040808220600c8101939093556004808401805460ff60a01b1916600160a01b17905542600b90940193909355600854905163ad6a874560e01b815291926001600160a01b039091169163ad6a874591612967913391016138df565b602060405180830381865afa158015612984573d6000803e3d6000fd5b505050506040513d601f19601f820116820180604052508101906129a891906142d9565b6000848152600e60205260409020600481015460069091018054929350612a3b92309233926001600160a01b0390911691879081106129e9576129e96141c7565b6000918252602080832090910154600d548a8452600e90925260409092206006018054889263ffffffff1691908a908110612a2657612a266141c7565b90600052602060002001546126d4919061419f565b6000838152600e6020526040902060060180548391859133917fe05fe8894c9ea273903ce4fcda4ef23e041959e939f13ed849540ab86aa503389185908110612a8657612a866141c7565b600091825260208083209190910154898352600e8252604092839020600c01548351918252918101919091520160405180910390a46000838152600e60205260408120600601805484908110612ade57612ade6141c7565b906000526020600020018190555060005b6000848152600e60205260409020600101548110156127fe576000848152600e602052604090206001018054612b7991309184908110612b3157612b316141c7565b6000918252602080832090910154888352600e90915260409091206004810154600690910180546001600160a01b039384169392909216918690811061134c5761134c6141c7565b612b82816141dd565b9050612aef565b6000818152600e60205260409020600301546001600160a01b031615612bae57600080fd5b6000818152600e60205260409020600201546001600160a01b03163314612bd457600080fd5b60036000828152600e60205260409020600490810154600160a01b900460ff1690811115612c0457612c04613f84565b03612c0e57600080fd5b600080828152600e60205260409020600490810154600160a01b900460ff1690811115612c3d57612c3d613f84565b14612c4757600080fd5b6000818152600e6020526040808220600401805460ff60a01b1916600360a01b1790555182917fb71becc91961a6b43bcc5b3b630f3dce02c7fd444cf3738c4f188062b1caf5bc91a250565b604051636eb1769f60e11b81526001600160a01b0383811660048301523060248301526000919083169063dd62ed3e90604401602060405180830381865afa158015612ce3573d6000803e3d6000fd5b505050506040513d601f19601f82011682018060405250810190612d0791906142d9565b9392505050565b6060612d1982612fff565b612d7d5760405162461bcd60e51b815260206004820152602f60248201527f4552433732314d657461646174613a2055524920717565727920666f72206e6f60448201526e3732bc34b9ba32b73a103a37b5b2b760891b60648201526084016108dc565b6000612d9460408051602081019091526000815290565b90506000815111612db45760405180602001604052806000815250612d07565b80612dbe8461347f565b604051602001612dcf92919061433d565b6040516020818303038152906040529392505050565b600060016000838152600e60205260409020600490810154600160a01b900460ff1690811115612e1757612e17613f84565b1480612e50575060026000838152600e60205260409020600490810154600160a01b900460ff1690811115612e4e57612e4e613f84565b145b612e975760405162461bcd60e51b8152602060048201526018602482015277131bd85b881a5cc81b9bdd081e595d08185c1c1c9bdd995960421b60448201526064016108dc565b6000828152600e60205260409020600c0154612eb490429061357f565b6000838152600e602052604090206007810154601090910154612ee0919062010000900460ff1661416a565b6000848152600e602052604090206007810154600890910154612f03919061416a565b6000858152600e60205260409020600b0154612f1f9190614152565b612f299190614152565b111592915050565b6001600160a01b03918216600090815260066020908152604080832093909416825291909152205460ff1690565b33612f68612235565b6001600160a01b031614612f8e5760405162461bcd60e51b81526004016108dc906140c6565b6001600160a01b038116612ff35760405162461bcd60e51b815260206004820152602660248201527f4f776e61626c653a206e6577206f776e657220697320746865207a65726f206160448201526564647265737360d01b60648201526084016108dc565b612ffc816132ef565b50565b6000908152600360205260409020546001600160a01b0316151590565b600081815260056020526040902080546001600160a01b0319166001600160a01b038416908117909155819061305182611793565b6001600160a01b03167f8c5be1e5ebec7d5bd14f71427d1e84f3dd0314c0f7b2291e5b200ac8c7c3b92560405160405180910390a45050565b600061309582612fff565b6130f65760405162461bcd60e51b815260206004820152602c60248201527f4552433732313a206f70657261746f7220717565727920666f72206e6f6e657860448201526b34b9ba32b73a103a37b5b2b760a11b60648201526084016108dc565b600061310183611793565b9050806001600160a01b0316846001600160a01b0316148061312857506131288185612f31565b80610a1a5750836001600160a01b031661314184610874565b6001600160a01b031614949350505050565b826001600160a01b031661316682611793565b6001600160a01b0316146131ca5760405162461bcd60e51b815260206004820152602560248201527f4552433732313a207472616e736665722066726f6d20696e636f72726563742060448201526437bbb732b960d91b60648201526084016108dc565b6001600160a01b03821661322c5760405162461bcd60e51b8152602060048201526024808201527f4552433732313a207472616e7366657220746f20746865207a65726f206164646044820152637265737360e01b60648201526084016108dc565b61323760008261301c565b6001600160a01b03831660009081526004602052604081208054600192906132609084906142f2565b90915550506001600160a01b038216600090815260046020526040812080546001929061328e908490614152565b909155505060008181526003602052604080822080546001600160a01b0319166001600160a01b0386811691821790925591518493918716917fddf252ad1be2c89b69c2b068fc378daa952ba7f163c4a11628f55a4df523b3ef91a4505050565b600080546001600160a01b038381166001600160a01b0319831681178455604051919092169283917f8be0079c531659141344cd1fd0a4f28419497f9722a3daafe3b4186f6b6457e09190a35050565b612ffc8160405160240161335391906138b3565b60408051601f198184030181529190526020810180516001600160e01b031663104c13eb60e21b179052613595565b816001600160a01b0316836001600160a01b0316036133df5760405162461bcd60e51b815260206004820152601960248201527822a9219b99189d1030b8383937bb32903a379031b0b63632b960391b60448201526064016108dc565b6001600160a01b03838116600081815260066020908152604080832094871680845294825291829020805460ff191686151590811790915591519182527f17307eab39ab6107e8899845ad3d59bd9653f200f220920489ca2b5937696c31910160405180910390a3505050565b613457848484613153565b613463848484846135b6565b6127fe5760405162461bcd60e51b81526004016108dc9061436c565b6060816000036134a65750506040805180820190915260018152600360fc1b602082015290565b8160005b81156134d057806134ba816141dd565b91506134c99050600a8361419f565b91506134aa565b6000816001600160401b038111156134ea576134ea613944565b6040519080825280601f01601f191660200182016040528015613514576020820181803683370190505b5090505b8415610a1a576135296001836142f2565b9150613536600a866141b3565b613541906030614152565b60f81b818381518110613556576135566141c7565b60200101906001600160f81b031916908160001a905350613578600a8661419f565b9450613518565b600081831061358e5781612d07565b5090919050565b80516a636f6e736f6c652e6c6f67602083016000808483855afa5050505050565b60006001600160a01b0384163b156136ac57604051630a85bd0160e11b81526001600160a01b0385169063150b7a02906135fa9033908990889088906004016143be565b6020604051808303816000875af1925050508015613635575060408051601f3d908101601f19168201909252613632918101906143f1565b60015b613692573d808015613663576040519150601f19603f3d011682016040523d82523d6000602084013e613668565b606091505b50805160000361368a5760405162461bcd60e51b81526004016108dc9061436c565b805181602001fd5b6001600160e01b031916630a85bd0160e11b149050610a1a565b506001610a1a565b8280548282559060005260206000209081019282156136ef579160200282015b828111156136ef5782518255916020019190600101906136d4565b506136fb929150613813565b5090565b8280548282559060005260206000209081019282156136ef579160200282015b828111156136ef57825182546001600160a01b0319166001600160a01b0390911617825560209092019160019091019061371f565b82805482825590600052602060002090601f016020900481019282156136ef5791602002820160005b838211156137bb57835183826101000a81548160ff021916908360ff160217905550926020019260010160208160000104928301926001030261377d565b80156137e85782816101000a81549060ff02191690556001016020816000010492830192600103026137bb565b50506136fb929150613813565b60405180604001604052806002906020820280368337509192915050565b5b808211156136fb5760008155600101613814565b6001600160e01b031981168114612ffc57600080fd5b60006020828403121561385057600080fd5b8135612d0781613828565b60005b8381101561387657818101518382015260200161385e565b838111156127fe5750506000910152565b6000815180845261389f81602086016020860161385b565b601f01601f19169290920160200192915050565b602081526000612d076020830184613887565b6000602082840312156138d857600080fd5b5035919050565b6001600160a01b0391909116815260200190565b6001600160a01b0381168114612ffc57600080fd5b8035613913816138f3565b919050565b6000806040838503121561392b57600080fd5b8235613936816138f3565b946020939093013593505050565b634e487b7160e01b600052604160045260246000fd5b60405160e081016001600160401b038111828210171561397c5761397c613944565b60405290565b604051601f8201601f191681016001600160401b03811182821017156139aa576139aa613944565b604052919050565b600080600080608085870312156139c857600080fd5b84356139d3816138f3565b93506020858101356139e4816138f3565b93506040860135925060608601356001600160401b0380821115613a0757600080fd5b818801915088601f830112613a1b57600080fd5b813581811115613a2d57613a2d613944565b613a3f601f8201601f19168501613982565b91508082528984828501011115613a5557600080fd5b808484018584013760008482840101525080935050505092959194509250565b600080600060608486031215613a8a57600080fd5b8335613a95816138f3565b92506020840135613aa5816138f3565b929592945050506040919091013590565b60008060408385031215613ac957600080fd5b8235613ad4816138f3565b91506020830135613ae4816138f3565b809150509250929050565b600080600080600060a08688031215613b0757600080fd5b8535613b12816138f3565b94506020860135613b22816138f3565b93506040860135613b32816138f3565b94979396509394606081013594506080013592915050565b803561ffff8116811461391357600080fd5b600060c08284031215613b6e57600080fd5b60405160c081016001600160401b0381118282101715613b9057613b90613944565b80604052508235815260208301356020820152613baf60408401613b4a565b60408201526060830135613bc2816138f3565b60608201526080838101359082015260a0928301359281019290925250919050565b60006001600160401b03821115613bfd57613bfd613944565b5060051b60200190565b600082601f830112613c1857600080fd5b81356020613c2d613c2883613be4565b613982565b82815260059290921b84018101918181019086841115613c4c57600080fd5b8286015b84811015613c70578035613c63816138f3565b8352918301918301613c50565b509695505050505050565b600082601f830112613c8c57600080fd5b81356020613c9c613c2883613be4565b82815260059290921b84018101918181019086841115613cbb57600080fd5b8286015b84811015613c705780358352918301918301613cbf565b600082601f830112613ce757600080fd5b81356020613cf7613c2883613be4565b82815260059290921b84018101918181019086841115613d1657600080fd5b8286015b84811015613c7057803560ff81168114613d345760008081fd5b8352918301918301613d1a565b600080600080600060a08688031215613d5957600080fd5b8535613d64816138f3565b94506020860135613d74816138f3565b935060408601356001600160401b0380821115613d9057600080fd5b613d9c89838a01613c07565b94506060880135915080821115613db257600080fd5b613dbe89838a01613c7b565b93506080880135915080821115613dd457600080fd5b50613de188828901613cd6565b9150509295509295909350565b60008060408385031215613e0157600080fd5b50508035926020909101359150565b600060208284031215613e2257600080fd5b81356001600160401b0380821115613e3957600080fd5b9083019060e08286031215613e4d57600080fd5b613e5561395a565b82358152613e6560208401613b4a565b6020820152613e7660408401613908565b604082015260608301356060820152608083013582811115613e9757600080fd5b613ea387828601613c07565b60808301525060a083013582811115613ebb57600080fd5b613ec787828601613c7b565b60a08301525060c083013582811115613edf57600080fd5b613eeb87828601613cd6565b60c08301525095945050505050565b600060208284031215613f0c57600080fd5b8135612d07816138f3565b60408101818360005b6002811015613f3f578151835260209283019290910190600101613f20565b50505092915050565b8015158114612ffc57600080fd5b60008060408385031215613f6957600080fd5b8235613f74816138f3565b91506020830135613ae481613f48565b634e487b7160e01b600052602160045260246000fd5b60058110613fb857634e487b7160e01b600052602160045260246000fd5b9052565b6001600160a01b038e811682528d811660208301528c1660408201526101a08101613fea606083018d613f9a565b608082019a909a5260a081019890985260c088019690965260e087019490945261010086019290925261012085015261014084015261ffff1661016083015260ff1661018090910152949350505050565b600181811c9082168061404f57607f821691505b60208210810361406f57634e487b7160e01b600052602260045260246000fd5b50919050565b60208082526031908201527f4552433732313a207472616e736665722063616c6c6572206973206e6f74206f6040820152701ddb995c881b9bdc88185c1c1c9bdd9959607a1b606082015260800190565b6020808252818101527f4f776e61626c653a2063616c6c6572206973206e6f7420746865206f776e6572604082015260600190565b6001600160a01b039384168152919092166020820152604081019190915260600190565b60006020828403121561413157600080fd5b8151612d0781613f48565b634e487b7160e01b600052601160045260246000fd5b600082198211156141655761416561413c565b500190565b60008160001904831182151516156141845761418461413c565b500290565b634e487b7160e01b600052601260045260246000fd5b6000826141ae576141ae614189565b500490565b6000826141c2576141c2614189565b500690565b634e487b7160e01b600052603260045260246000fd5b6000600182016141ef576141ef61413c565b5060010190565b600081518084526020808501945080840160005b8381101561422957815160ff168752958201959082019060010161420a565b509495945050505050565b606080825284519082018190526000906020906080840190828801845b828110156142765781516001600160a01b031684529284019290840190600101614251565b5050508381038285015285518082528683019183019060005b818110156142ab5783518352928401929184019160010161428f565b505084810360408601526142bf81876141f6565b98975050505050505050565b602081016107dc8284613f9a565b6000602082840312156142eb57600080fd5b5051919050565b6000828210156143045761430461413c565b500390565b600060a0820190508682528560208301528460408301528360608301526143336080830184613f9a565b9695505050505050565b6000835161434f81846020880161385b565b83519083019061436381836020880161385b565b01949350505050565b60208082526032908201527f4552433732313a207472616e7366657220746f206e6f6e20455243373231526560408201527131b2b4bb32b91034b6b83632b6b2b73a32b960711b606082015260800190565b6001600160a01b038581168252841660208201526040810183905260806060820181905260009061433390830184613887565b60006020828403121561440357600080fd5b8151612d078161382856fea2646970667358221220f59299f4986f86e3fc3345eea28f7042331ab28111b12dff8fe7678052b68f3264736f6c634300080e0033",
  "linkReferences": {},
  "deployedLinkReferences": {}
}