{
  "_format": "hh-sol-artifact-1",
  "contractName": "ERC1155MetadataMock",
  "sourceName": "contracts/libs/multi-token-standard/contracts/mocks/ERC1155MetadataMock.sol",
  "abi": [
    {
      "anonymous": false,
      "inputs": [
        {
          "indexed": true,
          "internalType": "address",
          "name": "_owner",
          "type": "address"
        },
        {
          "indexed": true,
          "internalType": "address",
          "name": "_operator",
          "type": "address"
        },
        {
          "indexed": false,
          "internalType": "bool",
          "name": "_approved",
          "type": "bool"
        }
      ],
      "name": "ApprovalForAll",
      "type": "event"
    },
    {
      "anonymous": false,
      "inputs": [
        {
          "indexed": true,
          "internalType": "address",
          "name": "signer",
          "type": "address"
        },
        {
          "indexed": false,
          "internalType": "uint256",
          "name": "newNonce",
          "type": "uint256"
        }
      ],
      "name": "NonceChange",
      "type": "event"
    },
    {
      "anonymous": false,
      "inputs": [
        {
          "indexed": true,
          "internalType": "address",
          "name": "_operator",
          "type": "address"
        },
        {
          "indexed": true,
          "internalType": "address",
          "name": "_from",
          "type": "address"
        },
        {
          "indexed": true,
          "internalType": "address",
          "name": "_to",
          "type": "address"
        },
        {
          "indexed": false,
          "internalType": "uint256[]",
          "name": "_ids",
          "type": "uint256[]"
        },
        {
          "indexed": false,
          "internalType": "uint256[]",
          "name": "_amounts",
          "type": "uint256[]"
        }
      ],
      "name": "TransferBatch",
      "type": "event"
    },
    {
      "anonymous": false,
      "inputs": [
        {
          "indexed": true,
          "internalType": "address",
          "name": "_operator",
          "type": "address"
        },
        {
          "indexed": true,
          "internalType": "address",
          "name": "_from",
          "type": "address"
        },
        {
          "indexed": true,
          "internalType": "address",
          "name": "_to",
          "type": "address"
        },
        {
          "indexed": false,
          "internalType": "uint256",
          "name": "_id",
          "type": "uint256"
        },
        {
          "indexed": false,
          "internalType": "uint256",
          "name": "_amount",
          "type": "uint256"
        }
      ],
      "name": "TransferSingle",
      "type": "event"
    },
    {
      "anonymous": false,
      "inputs": [
        {
          "indexed": false,
          "internalType": "string",
          "name": "_uri",
          "type": "string"
        },
        {
          "indexed": true,
          "internalType": "uint256",
          "name": "_id",
          "type": "uint256"
        }
      ],
      "name": "URI",
      "type": "event"
    },
    {
      "stateMutability": "nonpayable",
      "type": "fallback"
    },
    {
      "inputs": [
        {
          "internalType": "address",
          "name": "_owner",
          "type": "address"
        },
        {
          "internalType": "uint256",
          "name": "_id",
          "type": "uint256"
        }
      ],
      "name": "balanceOf",
      "outputs": [
        {
          "internalType": "uint256",
          "name": "",
          "type": "uint256"
        }
      ],
      "stateMutability": "view",
      "type": "function"
    },
    {
      "inputs": [
        {
          "internalType": "address[]",
          "name": "_owners",
          "type": "address[]"
        },
        {
          "internalType": "uint256[]",
          "name": "_ids",
          "type": "uint256[]"
        }
      ],
      "name": "balanceOfBatch",
      "outputs": [
        {
          "internalType": "uint256[]",
          "name": "",
          "type": "uint256[]"
        }
      ],
      "stateMutability": "view",
      "type": "function"
    },
    {
      "inputs": [
        {
          "internalType": "address",
          "name": "_from",
          "type": "address"
        },
        {
          "internalType": "uint256[]",
          "name": "_ids",
          "type": "uint256[]"
        },
        {
          "internalType": "uint256[]",
          "name": "_values",
          "type": "uint256[]"
        }
      ],
      "name": "batchBurnMock",
      "outputs": [],
      "stateMutability": "nonpayable",
      "type": "function"
    },
    {
      "inputs": [
        {
          "internalType": "address",
          "name": "_to",
          "type": "address"
        },
        {
          "internalType": "uint256[]",
          "name": "_ids",
          "type": "uint256[]"
        },
        {
          "internalType": "uint256[]",
          "name": "_values",
          "type": "uint256[]"
        },
        {
          "internalType": "bytes",
          "name": "_data",
          "type": "bytes"
        }
      ],
      "name": "batchMintMock",
      "outputs": [],
      "stateMutability": "nonpayable",
      "type": "function"
    },
    {
      "inputs": [
        {
          "internalType": "address",
          "name": "_from",
          "type": "address"
        },
        {
          "internalType": "uint256",
          "name": "_id",
          "type": "uint256"
        },
        {
          "internalType": "uint256",
          "name": "_value",
          "type": "uint256"
        }
      ],
      "name": "burnMock",
      "outputs": [],
      "stateMutability": "nonpayable",
      "type": "function"
    },
    {
      "inputs": [
        {
          "internalType": "address",
          "name": "_signer",
          "type": "address"
        }
      ],
      "name": "getNonce",
      "outputs": [
        {
          "internalType": "uint256",
          "name": "nonce",
          "type": "uint256"
        }
      ],
      "stateMutability": "view",
      "type": "function"
    },
    {
      "inputs": [
        {
          "internalType": "address",
          "name": "_owner",
          "type": "address"
        },
        {
          "internalType": "address",
          "name": "_operator",
          "type": "address"
        }
      ],
      "name": "isApprovedForAll",
      "outputs": [
        {
          "internalType": "bool",
          "name": "isOperator",
          "type": "bool"
        }
      ],
      "stateMutability": "view",
      "type": "function"
    },
    {
      "inputs": [
        {
          "internalType": "address",
          "name": "_signerAddress",
          "type": "address"
        },
        {
          "internalType": "bytes32",
          "name": "_hash",
          "type": "bytes32"
        },
        {
          "internalType": "bytes",
          "name": "_data",
          "type": "bytes"
        },
        {
          "internalType": "bytes",
          "name": "_sig",
          "type": "bytes"
        }
      ],
      "name": "isValidSignature",
      "outputs": [
        {
          "internalType": "bool",
          "name": "isValid",
          "type": "bool"
        }
      ],
      "stateMutability": "view",
      "type": "function"
    },
    {
      "inputs": [
        {
          "internalType": "uint256[]",
          "name": "_tokenIDs",
          "type": "uint256[]"
        }
      ],
      "name": "logURIsMock",
      "outputs": [],
      "stateMutability": "nonpayable",
      "type": "function"
    },
    {
      "inputs": [
        {
          "internalType": "address",
          "name": "_from",
          "type": "address"
        },
        {
          "internalType": "address",
          "name": "_to",
          "type": "address"
        },
        {
          "internalType": "uint256[]",
          "name": "_ids",
          "type": "uint256[]"
        },
        {
          "internalType": "uint256[]",
          "name": "_amounts",
          "type": "uint256[]"
        },
        {
          "internalType": "bool",
          "name": "_isGasFee",
          "type": "bool"
        },
        {
          "internalType": "bytes",
          "name": "_data",
          "type": "bytes"
        }
      ],
      "name": "metaSafeBatchTransferFrom",
      "outputs": [],
      "stateMutability": "nonpayable",
      "type": "function"
    },
    {
      "inputs": [
        {
          "internalType": "address",
          "name": "_from",
          "type": "address"
        },
        {
          "internalType": "address",
          "name": "_to",
          "type": "address"
        },
        {
          "internalType": "uint256",
          "name": "_id",
          "type": "uint256"
        },
        {
          "internalType": "uint256",
          "name": "_amount",
          "type": "uint256"
        },
        {
          "internalType": "bool",
          "name": "_isGasFee",
          "type": "bool"
        },
        {
          "internalType": "bytes",
          "name": "_data",
          "type": "bytes"
        }
      ],
      "name": "metaSafeTransferFrom",
      "outputs": [],
      "stateMutability": "nonpayable",
      "type": "function"
    },
    {
      "inputs": [
        {
          "internalType": "address",
          "name": "_owner",
          "type": "address"
        },
        {
          "internalType": "address",
          "name": "_operator",
          "type": "address"
        },
        {
          "internalType": "bool",
          "name": "_approved",
          "type": "bool"
        },
        {
          "internalType": "bool",
          "name": "_isGasFee",
          "type": "bool"
        },
        {
          "internalType": "bytes",
          "name": "_data",
          "type": "bytes"
        }
      ],
      "name": "metaSetApprovalForAll",
      "outputs": [],
      "stateMutability": "nonpayable",
      "type": "function"
    },
    {
      "inputs": [
        {
          "internalType": "address",
          "name": "_to",
          "type": "address"
        },
        {
          "internalType": "uint256",
          "name": "_id",
          "type": "uint256"
        },
        {
          "internalType": "uint256",
          "name": "_value",
          "type": "uint256"
        },
        {
          "internalType": "bytes",
          "name": "_data",
          "type": "bytes"
        }
      ],
      "name": "mintMock",
      "outputs": [],
      "stateMutability": "nonpayable",
      "type": "function"
    },
    {
      "inputs": [
        {
          "internalType": "address",
          "name": "_from",
          "type": "address"
        },
        {
          "internalType": "address",
          "name": "_to",
          "type": "address"
        },
        {
          "internalType": "uint256[]",
          "name": "_ids",
          "type": "uint256[]"
        },
        {
          "internalType": "uint256[]",
          "name": "_amounts",
          "type": "uint256[]"
        },
        {
          "internalType": "bytes",
          "name": "_data",
          "type": "bytes"
        }
      ],
      "name": "safeBatchTransferFrom",
      "outputs": [],
      "stateMutability": "nonpayable",
      "type": "function"
    },
    {
      "inputs": [
        {
          "internalType": "address",
          "name": "_from",
          "type": "address"
        },
        {
          "internalType": "address",
          "name": "_to",
          "type": "address"
        },
        {
          "internalType": "uint256",
          "name": "_id",
          "type": "uint256"
        },
        {
          "internalType": "uint256",
          "name": "_amount",
          "type": "uint256"
        },
        {
          "internalType": "bytes",
          "name": "_data",
          "type": "bytes"
        }
      ],
      "name": "safeTransferFrom",
      "outputs": [],
      "stateMutability": "nonpayable",
      "type": "function"
    },
    {
      "inputs": [
        {
          "internalType": "address",
          "name": "_operator",
          "type": "address"
        },
        {
          "internalType": "bool",
          "name": "_approved",
          "type": "bool"
        }
      ],
      "name": "setApprovalForAll",
      "outputs": [],
      "stateMutability": "nonpayable",
      "type": "function"
    },
    {
      "inputs": [
        {
          "internalType": "string",
          "name": "_newBaseMetadataURI",
          "type": "string"
        }
      ],
      "name": "setBaseMetadataURI",
      "outputs": [],
      "stateMutability": "nonpayable",
      "type": "function"
    },
    {
      "inputs": [
        {
          "internalType": "bytes4",
          "name": "_interfaceID",
          "type": "bytes4"
        }
      ],
      "name": "supportsInterface",
      "outputs": [
        {
          "internalType": "bool",
          "name": "",
          "type": "bool"
        }
      ],
      "stateMutability": "pure",
      "type": "function"
    },
    {
      "inputs": [
        {
          "internalType": "uint256",
          "name": "_id",
          "type": "uint256"
        }
      ],
      "name": "uri",
      "outputs": [
        {
          "internalType": "string",
          "name": "",
          "type": "string"
        }
      ],
      "stateMutability": "view",
      "type": "function"
    }
  ],
  "bytecode": "0x608060405234801561001057600080fd5b506154be806100206000396000f3fe608060405234801561001057600080fd5b50600436106101245760003560e01c8063a22cb465116100ad578063d7a0ad9011610071578063d7a0ad901461034c578063e985e9c514610368578063f242432a14610398578063f5d4c820146103b4578063fa4e12d7146103d057610125565b8063a22cb465146102c0578063a3d4926e146102dc578063a3f091f5146102f8578063bd7a6c4114610314578063ce0b514b1461033057610125565b80632d0335ab116100f45780632d0335ab1461020c5780632eb2c2d61461023c578063437ecbe9146102585780634e1273f4146102745780637e518ec8146102a457610125565b8062fdd58e1461016057806301ffc9a7146101905780630e89341c146101c05780631ea430d4146101f057610125565b5b6040517f08c379a000000000000000000000000000000000000000000000000000000000815260040161015790614d5c565b60405180910390fd5b61017a6004803603810190610175919061424a565b610400565b6040516101879190614dfc565b60405180910390f35b6101aa60048036038101906101a59190614426565b61045a565b6040516101b79190614bca565b60405180910390f35b6101da60048036038101906101d591906145a9565b61046c565b6040516101e79190614cfa565b60405180910390f35b61020a600480360381019061020591906143bc565b61056c565b005b61022660048036038101906102219190613c38565b610578565b6040516102339190614dfc565b60405180910390f35b61025660048036038101906102519190613dd3565b6105c1565b005b610272600480360381019061026d9190614286565b6106fd565b005b61028e60048036038101906102899190614350565b61070d565b60405161029b9190614ba8565b60405180910390f35b6102be60048036038101906102b991906144bb565b610867565b005b6102da60048036038101906102d5919061417b565b610873565b005b6102f660048036038101906102f19190613d02565b610972565b005b610312600480360381019061030d91906142d5565b610b0a565b005b61032e60048036038101906103299190614051565b610b1c565b005b61034a60048036038101906103459190613f21565b610b2c565b005b610366600480360381019061036191906140d0565b610c78565b005b610382600480360381019061037d9190613cc6565b610c8a565b60405161038f9190614bca565b60405180910390f35b6103b260048036038101906103ad9190613fc2565b610d1e565b005b6103ce60048036038101906103c99190613e92565b610e5a565b005b6103ea60048036038101906103e591906141b7565b610ffa565b6040516103f79190614bca565b60405180910390f35b60008060008473ffffffffffffffffffffffffffffffffffffffff1673ffffffffffffffffffffffffffffffffffffffff168152602001908152602001600020600083815260200190815260200160002054905092915050565b600061046582611889565b9050919050565b606060036104798361190b565b60405160200180838054600181600116156101000203166002900480156104d75780601f106104b55761010080835404028352918201916104d7565b820191906000526020600020905b8154815290600101906020018083116104c3575b505082805190602001908083835b6020831061050857805182526020820191506020810190506020830392506104e5565b6001836020036101000a038019825116818451168082178552505050505050905001807f2e6a736f6e000000000000000000000000000000000000000000000000000000815250600501925050506040516020818303038152906040529050919050565b61057581611a55565b50565b6000600260008373ffffffffffffffffffffffffffffffffffffffff1673ffffffffffffffffffffffffffffffffffffffff168152602001908152602001600020549050919050565b8473ffffffffffffffffffffffffffffffffffffffff163373ffffffffffffffffffffffffffffffffffffffff16148061060157506106008533610c8a565b5b610656576040517f08c379a000000000000000000000000000000000000000000000000000000000815260040180806020018281038252602f815260200180615332602f913960400191505060405180910390fd5b600073ffffffffffffffffffffffffffffffffffffffff168473ffffffffffffffffffffffffffffffffffffffff1614156106dc576040517f08c379a00000000000000000000000000000000000000000000000000000000081526004018080602001828103825260308152602001806152736030913960400191505060405180910390fd5b6106e885858585611cc8565b6106f6858585855a8661202a565b5050505050565b6107088383836122bc565b505050565b60608151835114610769576040517f08c379a000000000000000000000000000000000000000000000000000000000815260040180806020018281038252602c8152602001806152d3602c913960400191505060405180910390fd5b6000835167ffffffffffffffff8111801561078357600080fd5b506040519080825280602002602001820160405280156107b25781602001602082028036833780820191505090505b50905060005b845181101561085c576000808683815181106107d057fe5b602002602001015173ffffffffffffffffffffffffffffffffffffffff1673ffffffffffffffffffffffffffffffffffffffff168152602001908152602001600020600085838151811061082057fe5b602002602001015181526020019081526020016000205482828151811061084357fe5b60200260200101818152505080806001019150506107b8565b508091505092915050565b610870816123fb565b50565b80600160003373ffffffffffffffffffffffffffffffffffffffff1673ffffffffffffffffffffffffffffffffffffffff16815260200190815260200160002060008473ffffffffffffffffffffffffffffffffffffffff1673ffffffffffffffffffffffffffffffffffffffff16815260200190815260200160002060006101000a81548160ff0219169083151502179055508173ffffffffffffffffffffffffffffffffffffffff163373ffffffffffffffffffffffffffffffffffffffff167f17307eab39ab6107e8899845ad3d59bd9653f200f220920489ca2b5937696c318360405180821515815260200191505060405180910390a35050565b600073ffffffffffffffffffffffffffffffffffffffff168573ffffffffffffffffffffffffffffffffffffffff1614156109e2576040517f08c379a00000000000000000000000000000000000000000000000000000000081526004016109d990614d9c565b60405180910390fd5b60606109ec6137a2565b6000610a9f89857fa3d4926e8cf8fe8e020cd29f514c256bc2eec62aa2337e415f1a33a4828af5a060001b8c8c8c604051602001610a2a9190614a94565b604051602081830303815290604052805190602001208c604051602001610a519190614a94565b604051602081830303815290604052805190602001208c610a73576000610a76565b60015b604051602001610a8b96959493929190614be5565b604051602081830303815290604052612415565b9050610aad89898989611cc8565b8415610af05780806020019051810190610ac7919061453d565b8094508193505050610ae18989898986602001518861202a565b610aeb8983612639565b610aff565b610afe898989895a8661202a565b5b505050505050505050565b610b1684848484612911565b50505050565b610b27838383612a60565b505050565b600073ffffffffffffffffffffffffffffffffffffffff168573ffffffffffffffffffffffffffffffffffffffff161415610b9c576040517f08c379a0000000000000000000000000000000000000000000000000000000008152600401610b9390614d1c565b60405180910390fd5b6060610ba66137a2565b6000610c0d89857fce0b514b3931bdbe4d5d44e4f035afe7113767b7db71949271f6a62d9c60f55860001b8c8c8c8c8c610be1576000610be4565b60015b604051602001610bf996959493929190614c99565b604051602081830303815290604052612415565b9050610c1b89898989612cd3565b8415610c5e5780806020019051810190610c35919061453d565b8094508193505050610c4f89898989866020015188612ec7565b610c598983612639565b610c6d565b610c6c898989895a86612ec7565b5b505050505050505050565b610c84848484846130d7565b50505050565b6000600160008473ffffffffffffffffffffffffffffffffffffffff1673ffffffffffffffffffffffffffffffffffffffff16815260200190815260200160002060008373ffffffffffffffffffffffffffffffffffffffff1673ffffffffffffffffffffffffffffffffffffffff16815260200190815260200160002060009054906101000a900460ff16905092915050565b8473ffffffffffffffffffffffffffffffffffffffff163373ffffffffffffffffffffffffffffffffffffffff161480610d5e5750610d5d8533610c8a565b5b610db3576040517f08c379a000000000000000000000000000000000000000000000000000000000815260040180806020018281038252602a81526020018061516d602a913960400191505060405180910390fd5b600073ffffffffffffffffffffffffffffffffffffffff168473ffffffffffffffffffffffffffffffffffffffff161415610e39576040517f08c379a000000000000000000000000000000000000000000000000000000000815260040180806020018281038252602b81526020018061510b602b913960400191505060405180910390fd5b610e4585858585612cd3565b610e53858585855a86612ec7565b5050505050565b6000610ecd86837ff5d4c820494c8595de274c7ff619bead38aac4fbc3d143b5bf956aa4b84fa52460001b898989610e93576000610e96565b60015b89610ea2576000610ea5565b60015b604051602001610eb9959493929190614c46565b604051602081830303815290604052612415565b905083600160008873ffffffffffffffffffffffffffffffffffffffff1673ffffffffffffffffffffffffffffffffffffffff16815260200190815260200160002060008773ffffffffffffffffffffffffffffffffffffffff1673ffffffffffffffffffffffffffffffffffffffff16815260200190815260200160002060006101000a81548160ff0219169083151502179055508473ffffffffffffffffffffffffffffffffffffffff168673ffffffffffffffffffffffffffffffffffffffff167f17307eab39ab6107e8899845ad3d59bd9653f200f220920489ca2b5937696c3186604051610fc09190614bca565b60405180910390a38215610ff257600081806020019051810190610fe491906144fc565b9050610ff08782612639565b505b505050505050565b600080825111611055576040517f08c379a00000000000000000000000000000000000000000000000000000000081526004018080602001828103825260438152602001806153616043913960600191505060405180910390fd5b600073ffffffffffffffffffffffffffffffffffffffff168573ffffffffffffffffffffffffffffffffffffffff1614156110db576040517f08c379a00000000000000000000000000000000000000000000000000000000081526004018080602001828103825260338152602001806152ff6033913960400191505060405180910390fd5b60006110e68361335b565b60f81c90506005808111156110f757fe5b60ff168160ff1610611154576040517f08c379a000000000000000000000000000000000000000000000000000000000815260040180806020018281038252603a8152602001806151cc603a913960400191505060405180910390fd5b60008160ff16600581111561116557fe5b90506000806000806000600581111561117a57fe5b85600581111561118657fe5b14156111dd576040517f08c379a00000000000000000000000000000000000000000000000000000000081526004018080602001828103825260368152602001806152066036913960400191505060405180910390fd5b600160058111156111ea57fe5b8560058111156111f657fe5b1415611341576061885114611256576040517f08c379a000000000000000000000000000000000000000000000000000000000815260040180806020018281038252603781526020018061523c6037913960400191505060405180910390fd5b61126a6000896133e190919063ffffffff16565b92506112806020896133e190919063ffffffff16565b91508760408151811061128f57fe5b602001015160f81c60f81b60f81c935060018a85858560405160008152602001604052604051808581526020018460ff1681526020018381526020018281526020019450505050506020604051602081039080840390855afa1580156112f9573d6000803e3d6000fd5b5050506020604051035190508073ffffffffffffffffffffffffffffffffffffffff168b73ffffffffffffffffffffffffffffffffffffffff16149650505050505050611881565b6002600581111561134e57fe5b85600581111561135a57fe5b14156114f35760618851146113ba576040517f08c379a000000000000000000000000000000000000000000000000000000000815260040180806020018281038252603781526020018061523c6037913960400191505060405180910390fd5b6113ce6000896133e190919063ffffffff16565b92506113e46020896133e190919063ffffffff16565b9150876040815181106113f357fe5b602001015160f81c60f81b60f81c935060018a60405160200180807f19457468657265756d205369676e6564204d6573736167653a0a333200000000815250601c018281526020019150506040516020818303038152906040528051906020012085858560405160008152602001604052604051808581526020018460ff1681526020018381526020018281526020019450505050506020604051602081039080840390855afa1580156114ab573d6000803e3d6000fd5b5050506020604051035190508073ffffffffffffffffffffffffffffffffffffffff168b73ffffffffffffffffffffffffffffffffffffffff16149650505050505050611881565b6003600581111561150057fe5b85600581111561150c57fe5b14156116c4578a73ffffffffffffffffffffffffffffffffffffffff166320c13b0b8a8a6040518363ffffffff1660e01b8152600401808060200180602001838103835285818151815260200191508051906020019080838360005b83811015611583578082015181840152602081019050611568565b50505050905090810190601f1680156115b05780820380516001836020036101000a031916815260200191505b50838103825284818151815260200191508051906020019080838360005b838110156115e95780820151818401526020810190506115ce565b50505050905090810190601f1680156116165780820380516001836020036101000a031916815260200191505b5094505050505060206040518083038186803b15801561163557600080fd5b505afa158015611649573d6000803e3d6000fd5b505050506040513d602081101561165f57600080fd5b81019080805190602001909291905050507bffffffffffffffffffffffffffffffffffffffffffffffffffffffff19166320c13b0b60e01b7bffffffffffffffffffffffffffffffffffffffffffffffffffffffff1916149650505050505050611881565b600460058111156116d157fe5b8560058111156116dd57fe5b1415611830578a73ffffffffffffffffffffffffffffffffffffffff16631626ba7e8b8a6040518363ffffffff1660e01b81526004018083815260200180602001828103825283818151815260200191508051906020019080838360005b8381101561175657808201518184015260208101905061173b565b50505050905090810190601f1680156117835780820380516001836020036101000a031916815260200191505b50935050505060206040518083038186803b1580156117a157600080fd5b505afa1580156117b5573d6000803e3d6000fd5b505050506040513d60208110156117cb57600080fd5b81019080805190602001909291905050507bffffffffffffffffffffffffffffffffffffffffffffffffffffffff1916631626ba7e60e01b7bffffffffffffffffffffffffffffffffffffffffffffffffffffffff1916149650505050505050611881565b6040517f08c379a000000000000000000000000000000000000000000000000000000000815260040180806020018281038252603a8152602001806151cc603a913960400191505060405180910390fd5b949350505050565b60007f0e89341c000000000000000000000000000000000000000000000000000000007bffffffffffffffffffffffffffffffffffffffffffffffffffffffff1916827bffffffffffffffffffffffffffffffffffffffffffffffffffffffff191614156118fa5760019050611906565b61190382613452565b90505b919050565b60606000821415611953576040518060400160405280600181526020017f30000000000000000000000000000000000000000000000000000000000000008152509050611a50565b6000829050600083905060005b60008314611982578080600101915050600a838161197a57fe5b049250611960565b60008167ffffffffffffffff8111801561199b57600080fd5b506040519080825280601f01601f1916602001820160405280156119ce5781602001600182028036833780820191505090505b50905060006001830390505b60008414611a4757600a84816119ec57fe5b0660300160f81b82828060019003935081518110611a0657fe5b60200101907effffffffffffffffffffffffffffffffffffffffffffffffffffffffffffff1916908160001a905350600a8481611a3f57fe5b0493506119da565b81955050505050505b919050565b600060038054600181600116156101000203166002900480601f016020809104026020016040519081016040528092919081815260200182805460018160011615610100020316600290048015611aed5780601f10611ac257610100808354040283529160200191611aed565b820191906000526020600020905b815481529060010190602001808311611ad057829003601f168201915b50505050509050606060005b8351811015611cc25782611b1f858381518110611b1257fe5b602002602001015161190b565b6040516020018083805190602001908083835b60208310611b555780518252602082019150602081019050602083039250611b32565b6001836020036101000a03801982511681845116808217855250505050505090500182805190602001908083835b60208310611ba65780518252602082019150602081019050602083039250611b83565b6001836020036101000a038019825116818451168082178552505050505050905001807f2e6a736f6e000000000000000000000000000000000000000000000000000000815250600501925050506040516020818303038152906040529150838181518110611c1157fe5b60200260200101517f6bb7ff708619ba0610cba295a58592e0451dee2622938c8755667688daf3529b836040518080602001828103825283818151815260200191508051906020019080838360005b83811015611c7b578082015181840152602081019050611c60565b50505050905090810190601f168015611ca85780820380516001836020036101000a031916815260200191505b509250505060405180910390a28080600101915050611af9565b50505050565b8051825114611d22576040517f08c379a00000000000000000000000000000000000000000000000000000000081526004018080602001828103825260358152602001806151976035913960400191505060405180910390fd5b60008251905060005b81811015611f1c57611dbb838281518110611d4257fe5b60200260200101516000808973ffffffffffffffffffffffffffffffffffffffff1673ffffffffffffffffffffffffffffffffffffffff1681526020019081526020016000206000878581518110611d9657fe5b60200260200101518152602001908152602001600020546134d490919063ffffffff16565b6000808873ffffffffffffffffffffffffffffffffffffffff1673ffffffffffffffffffffffffffffffffffffffff1681526020019081526020016000206000868481518110611e0757fe5b6020026020010151815260200190815260200160002081905550611ea9838281518110611e3057fe5b60200260200101516000808873ffffffffffffffffffffffffffffffffffffffff1673ffffffffffffffffffffffffffffffffffffffff1681526020019081526020016000206000878581518110611e8457fe5b602002602001015181526020019081526020016000205461355d90919063ffffffff16565b6000808773ffffffffffffffffffffffffffffffffffffffff1673ffffffffffffffffffffffffffffffffffffffff1681526020019081526020016000206000868481518110611ef557fe5b60200260200101518152602001908152602001600020819055508080600101915050611d2b565b508373ffffffffffffffffffffffffffffffffffffffff168573ffffffffffffffffffffffffffffffffffffffff163373ffffffffffffffffffffffffffffffffffffffff167f4a39dc06d4c0dbc64b70af90fd698a233a518aa5d07e595d983b8c0526c8f7fb8686604051808060200180602001838103835285818151815260200191508051906020019060200280838360005b83811015611fcc578082015181840152602081019050611fb1565b50505050905001838103825284818151815260200191508051906020019060200280838360005b8381101561200e578082015181840152602081019050611ff3565b5050505090500194505050505060405180910390a45050505050565b6120498573ffffffffffffffffffffffffffffffffffffffff166135e5565b156122b45760008573ffffffffffffffffffffffffffffffffffffffff1663bc197c8184338a8989886040518763ffffffff1660e01b8152600401808673ffffffffffffffffffffffffffffffffffffffff1681526020018573ffffffffffffffffffffffffffffffffffffffff168152602001806020018060200180602001848103845287818151815260200191508051906020019060200280838360005b838110156121045780820151818401526020810190506120e9565b50505050905001848103835286818151815260200191508051906020019060200280838360005b8381101561214657808201518184015260208101905061212b565b50505050905001848103825285818151815260200191508051906020019080838360005b8381101561218557808201518184015260208101905061216a565b50505050905090810190601f1680156121b25780820380516001836020036101000a031916815260200191505b5098505050505050505050602060405180830381600088803b1580156121d757600080fd5b5087f11580156121eb573d6000803e3d6000fd5b50505050506040513d602081101561220257600080fd5b8101908080519060200190929190505050905063bc197c8160e01b7bffffffffffffffffffffffffffffffffffffffffffffffffffffffff1916817bffffffffffffffffffffffffffffffffffffffffffffffffffffffff1916146122b2576040517f08c379a000000000000000000000000000000000000000000000000000000000815260040180806020018281038252603f8152602001806153d4603f913960400191505060405180910390fd5b505b505050505050565b61231e816000808673ffffffffffffffffffffffffffffffffffffffff1673ffffffffffffffffffffffffffffffffffffffff1681526020019081526020016000206000858152602001908152602001600020546134d490919063ffffffff16565b6000808573ffffffffffffffffffffffffffffffffffffffff1673ffffffffffffffffffffffffffffffffffffffff168152602001908152602001600020600084815260200190815260200160002081905550600073ffffffffffffffffffffffffffffffffffffffff168373ffffffffffffffffffffffffffffffffffffffff163373ffffffffffffffffffffffffffffffffffffffff167fc3d58168c5ae7397731d063d5bbf3d657854427343f4c083240f7aacaa2d0f628585604051808381526020018281526020019250505060405180910390a4505050565b80600390805190602001906124119291906137e0565b5050565b6060808380602001905181019061242c919061444f565b80935081925050506000600260008773ffffffffffffffffffffffffffffffffffffffff1673ffffffffffffffffffffffffffffffffffffffff168152602001908152602001600020549050600061248e6041846133e190919063ffffffff16565b60001c90508181101580156124a557506064820181105b6124e4576040517f08c379a00000000000000000000000000000000000000000000000000000000081526004016124db90614dbc565b60405180910390fd5b60006125208683878051906020012060405160200161250593929190614aab565b6040516020818303038152906040528051906020012061362a565b9050600086838760405160200161253993929190614ae4565b604051602081830303815290604052905060018301600260008b73ffffffffffffffffffffffffffffffffffffffff1673ffffffffffffffffffffffffffffffffffffffff168152602001908152602001600020819055508873ffffffffffffffffffffffffffffffffffffffff167fb861b7bdbe611a846ab271b8d2810391bc8b5a968f390c322438ecab66bccf59600185016040516125da9190614dfc565b60405180910390a26125ee89838388610ffa565b61262d576040517f08c379a000000000000000000000000000000000000000000000000000000000815260040161262490614d3c565b60405180910390fd5b50505050509392505050565b6000612648826060015161335b565b60f81c905060028081111561265957fe5b60ff168160ff16106126a0576040517f08c379a000000000000000000000000000000000000000000000000000000000815260040161269790614ddc565b60405180910390fd5b60008160ff1660028111156126b157fe5b905060008060008086600001519050600073ffffffffffffffffffffffffffffffffffffffff16876040015173ffffffffffffffffffffffffffffffffffffffff1614612702578660400151612704565b335b92506000600281111561271357fe5b85600281111561271f57fe5b141561281e57866060015180602001905181019061273d9190613c8a565b80935081955050503073ffffffffffffffffffffffffffffffffffffffff168473ffffffffffffffffffffffffffffffffffffffff1614156127a75761278588848484612cd3565b6127a28884845a8560405180602001604052806000815250612ec7565b612819565b8373ffffffffffffffffffffffffffffffffffffffff1663f242432a898585856040518563ffffffff1660e01b81526004016127e69493929190614b50565b600060405180830381600087803b15801561280057600080fd5b505af1158015612814573d6000803e3d6000fd5b505050505b612907565b86606001518060200190518101906128369190613c61565b93508373ffffffffffffffffffffffffffffffffffffffff166323b872dd8985846040518463ffffffff1660e01b815260040161287593929190614b19565b602060405180830381600087803b15801561288f57600080fd5b505af11580156128a3573d6000803e3d6000fd5b505050506040513d601f19601f820116820180604052508101906128c791906143fd565b612906576040517f08c379a00000000000000000000000000000000000000000000000000000000081526004016128fd90614d7c565b60405180910390fd5b5b5050505050505050565b612973826000808773ffffffffffffffffffffffffffffffffffffffff1673ffffffffffffffffffffffffffffffffffffffff16815260200190815260200160002060008681526020019081526020016000205461355d90919063ffffffff16565b6000808673ffffffffffffffffffffffffffffffffffffffff1673ffffffffffffffffffffffffffffffffffffffff1681526020019081526020016000206000858152602001908152602001600020819055508373ffffffffffffffffffffffffffffffffffffffff16600073ffffffffffffffffffffffffffffffffffffffff163373ffffffffffffffffffffffffffffffffffffffff167fc3d58168c5ae7397731d063d5bbf3d657854427343f4c083240f7aacaa2d0f628686604051808381526020018281526020019250505060405180910390a4612a5a60008585855a86612ec7565b50505050565b60008251905081518114612abf576040517f08c379a00000000000000000000000000000000000000000000000000000000081526004018080602001828103825260308152602001806152a36030913960400191505060405180910390fd5b60005b81811015612bc557612b52838281518110612ad957fe5b60200260200101516000808873ffffffffffffffffffffffffffffffffffffffff1673ffffffffffffffffffffffffffffffffffffffff1681526020019081526020016000206000878581518110612b2d57fe5b60200260200101518152602001908152602001600020546134d490919063ffffffff16565b6000808773ffffffffffffffffffffffffffffffffffffffff1673ffffffffffffffffffffffffffffffffffffffff1681526020019081526020016000206000868481518110612b9e57fe5b60200260200101518152602001908152602001600020819055508080600101915050612ac2565b50600073ffffffffffffffffffffffffffffffffffffffff168473ffffffffffffffffffffffffffffffffffffffff163373ffffffffffffffffffffffffffffffffffffffff167f4a39dc06d4c0dbc64b70af90fd698a233a518aa5d07e595d983b8c0526c8f7fb8686604051808060200180602001838103835285818151815260200191508051906020019060200280838360005b83811015612c76578082015181840152602081019050612c5b565b50505050905001838103825284818151815260200191508051906020019060200280838360005b83811015612cb8578082015181840152602081019050612c9d565b5050505090500194505050505060405180910390a450505050565b612d35816000808773ffffffffffffffffffffffffffffffffffffffff1673ffffffffffffffffffffffffffffffffffffffff1681526020019081526020016000206000858152602001908152602001600020546134d490919063ffffffff16565b6000808673ffffffffffffffffffffffffffffffffffffffff1673ffffffffffffffffffffffffffffffffffffffff168152602001908152602001600020600084815260200190815260200160002081905550612dea816000808673ffffffffffffffffffffffffffffffffffffffff1673ffffffffffffffffffffffffffffffffffffffff16815260200190815260200160002060008581526020019081526020016000205461355d90919063ffffffff16565b6000808573ffffffffffffffffffffffffffffffffffffffff1673ffffffffffffffffffffffffffffffffffffffff1681526020019081526020016000206000848152602001908152602001600020819055508273ffffffffffffffffffffffffffffffffffffffff168473ffffffffffffffffffffffffffffffffffffffff163373ffffffffffffffffffffffffffffffffffffffff167fc3d58168c5ae7397731d063d5bbf3d657854427343f4c083240f7aacaa2d0f628585604051808381526020018281526020019250505060405180910390a450505050565b612ee68573ffffffffffffffffffffffffffffffffffffffff166135e5565b156130cf5760008573ffffffffffffffffffffffffffffffffffffffff1663f23a6e6184338a8989886040518763ffffffff1660e01b8152600401808673ffffffffffffffffffffffffffffffffffffffff1681526020018573ffffffffffffffffffffffffffffffffffffffff16815260200184815260200183815260200180602001828103825283818151815260200191508051906020019080838360005b83811015612fa2578082015181840152602081019050612f87565b50505050905090810190601f168015612fcf5780820380516001836020036101000a031916815260200191505b509650505050505050602060405180830381600088803b158015612ff257600080fd5b5087f1158015613006573d6000803e3d6000fd5b50505050506040513d602081101561301d57600080fd5b8101908080519060200190929190505050905063f23a6e6160e01b7bffffffffffffffffffffffffffffffffffffffffffffffffffffffff1916817bffffffffffffffffffffffffffffffffffffffffffffffffffffffff1916146130cd576040517f08c379a000000000000000000000000000000000000000000000000000000000815260040180806020018281038252603a815260200180615413603a913960400191505060405180910390fd5b505b505050505050565b8151835114613131576040517f08c379a00000000000000000000000000000000000000000000000000000000081526004018080602001828103825260308152602001806153a46030913960400191505060405180910390fd5b60008351905060005b8181101561323d576131ca84828151811061315157fe5b60200260200101516000808973ffffffffffffffffffffffffffffffffffffffff1673ffffffffffffffffffffffffffffffffffffffff16815260200190815260200160002060008885815181106131a557fe5b602002602001015181526020019081526020016000205461355d90919063ffffffff16565b6000808873ffffffffffffffffffffffffffffffffffffffff1673ffffffffffffffffffffffffffffffffffffffff168152602001908152602001600020600087848151811061321657fe5b6020026020010151815260200190815260200160002081905550808060010191505061313a565b508473ffffffffffffffffffffffffffffffffffffffff16600073ffffffffffffffffffffffffffffffffffffffff163373ffffffffffffffffffffffffffffffffffffffff167f4a39dc06d4c0dbc64b70af90fd698a233a518aa5d07e595d983b8c0526c8f7fb8787604051808060200180602001838103835285818151815260200191508051906020019060200280838360005b838110156132ee5780820151818401526020810190506132d3565b50505050905001838103825284818151815260200191508051906020019060200280838360005b83811015613330578082015181840152602081019050613315565b5050505090500194505050505060405180910390a461335460008686865a8761202a565b5050505050565b6000808251116133b6576040517f08c379a00000000000000000000000000000000000000000000000000000000081526004018080602001828103825260378152602001806151366037913960400191505060405180910390fd5b816001835103815181106133c657fe5b602001015160f81c60f81b9050600182510380835250919050565b60006020820183511015613440576040517f08c379a000000000000000000000000000000000000000000000000000000000815260040180806020018281038252603c81526020018061544d603c913960400191505060405180910390fd5b60208201915081830151905092915050565b60007fd9b67a26000000000000000000000000000000000000000000000000000000007bffffffffffffffffffffffffffffffffffffffffffffffffffffffff1916827bffffffffffffffffffffffffffffffffffffffffffffffffffffffff191614156134c357600190506134cf565b6134cc82613751565b90505b919050565b60008282111561354c576040517f08c379a00000000000000000000000000000000000000000000000000000000081526004018080602001828103825260178152602001807f536166654d617468237375623a20554e444552464c4f5700000000000000000081525060200191505060405180910390fd5b600082840390508091505092915050565b6000808284019050838110156135db576040517f08c379a00000000000000000000000000000000000000000000000000000000081526004018080602001828103825260168152602001807f536166654d617468236164643a204f564552464c4f570000000000000000000081525060200191505060405180910390fd5b8091505092915050565b600080823f90506000801b811415801561362257507fc5d2460186f7233c927e7db2dcc703c0e500b653ca82273b7bfad8045d85a47060001b8114155b915050919050565b60006040518060400160405280600281526020017f19010000000000000000000000000000000000000000000000000000000000008152507f035aff83d86937d35b32e04f0ddc6ff469290eef2f1b692d8a815c89404d474960001b30604051602001808381526020018273ffffffffffffffffffffffffffffffffffffffff1681526020019250505060405160208183030381529060405280519060200120836040516020018084805190602001908083835b6020831061370157805182526020820191506020810190506020830392506136de565b6001836020036101000a0380198251168184511680821785525050505050509050018381526020018281526020019350505050604051602081830303815290604052805190602001209050919050565b60006301ffc9a760e01b7bffffffffffffffffffffffffffffffffffffffffffffffffffffffff1916827bffffffffffffffffffffffffffffffffffffffffffffffffffffffff1916149050919050565b60405180608001604052806000815260200160008152602001600073ffffffffffffffffffffffffffffffffffffffff168152602001606081525090565b828054600181600116156101000203166002900490600052602060002090601f016020900481019282613816576000855561385d565b82601f1061382f57805160ff191683800117855561385d565b8280016001018555821561385d579182015b8281111561385c578251825591602001919060010190613841565b5b50905061386a919061386e565b5090565b5b8082111561388757600081600090555060010161386f565b5090565b600061389e61389984614e48565b614e17565b905080838252602082019050828560208602820111156138bd57600080fd5b60005b858110156138ed57816138d38882613a1d565b8452602084019350602083019250506001810190506138c0565b5050509392505050565b600061390a61390584614e74565b614e17565b9050808382526020820190508285602086028201111561392957600080fd5b60005b85811015613959578161393f8882613c0e565b84526020840193506020830192505060018101905061392c565b5050509392505050565b600061397661397184614ea0565b614e17565b90508281526020810184848401111561398e57600080fd5b613999848285615017565b509392505050565b60006139b46139af84614ea0565b614e17565b9050828152602081018484840111156139cc57600080fd5b6139d7848285615026565b509392505050565b60006139f26139ed84614ed0565b614e17565b905082815260208101848484011115613a0a57600080fd5b613a15848285615017565b509392505050565b600081359050613a2c81615080565b92915050565b600081519050613a4181615080565b92915050565b600081519050613a5681615097565b92915050565b600082601f830112613a6d57600080fd5b8135613a7d84826020860161388b565b91505092915050565b600082601f830112613a9757600080fd5b8135613aa78482602086016138f7565b91505092915050565b600081359050613abf816150ae565b92915050565b600081519050613ad4816150ae565b92915050565b600081359050613ae9816150c5565b92915050565b600081359050613afe816150dc565b92915050565b600082601f830112613b1557600080fd5b8135613b25848260208601613963565b91505092915050565b600082601f830112613b3f57600080fd5b8151613b4f8482602086016139a1565b91505092915050565b600082601f830112613b6957600080fd5b8135613b798482602086016139df565b91505092915050565b600060808284031215613b9457600080fd5b613b9e6080614e17565b90506000613bae84828501613c23565b6000830152506020613bc284828501613c23565b6020830152506040613bd684828501613a32565b604083015250606082015167ffffffffffffffff811115613bf657600080fd5b613c0284828501613b2e565b60608301525092915050565b600081359050613c1d816150f3565b92915050565b600081519050613c32816150f3565b92915050565b600060208284031215613c4a57600080fd5b6000613c5884828501613a1d565b91505092915050565b600060208284031215613c7357600080fd5b6000613c8184828501613a47565b91505092915050565b60008060408385031215613c9d57600080fd5b6000613cab85828601613a47565b9250506020613cbc85828601613c23565b9150509250929050565b60008060408385031215613cd957600080fd5b6000613ce785828601613a1d565b9250506020613cf885828601613a1d565b9150509250929050565b60008060008060008060c08789031215613d1b57600080fd5b6000613d2989828a01613a1d565b9650506020613d3a89828a01613a1d565b955050604087013567ffffffffffffffff811115613d5757600080fd5b613d6389828a01613a86565b945050606087013567ffffffffffffffff811115613d8057600080fd5b613d8c89828a01613a86565b9350506080613d9d89828a01613ab0565b92505060a087013567ffffffffffffffff811115613dba57600080fd5b613dc689828a01613b04565b9150509295509295509295565b600080600080600060a08688031215613deb57600080fd5b6000613df988828901613a1d565b9550506020613e0a88828901613a1d565b945050604086013567ffffffffffffffff811115613e2757600080fd5b613e3388828901613a86565b935050606086013567ffffffffffffffff811115613e5057600080fd5b613e5c88828901613a86565b925050608086013567ffffffffffffffff811115613e7957600080fd5b613e8588828901613b04565b9150509295509295909350565b600080600080600060a08688031215613eaa57600080fd5b6000613eb888828901613a1d565b9550506020613ec988828901613a1d565b9450506040613eda88828901613ab0565b9350506060613eeb88828901613ab0565b925050608086013567ffffffffffffffff811115613f0857600080fd5b613f1488828901613b04565b9150509295509295909350565b60008060008060008060c08789031215613f3a57600080fd5b6000613f4889828a01613a1d565b9650506020613f5989828a01613a1d565b9550506040613f6a89828a01613c0e565b9450506060613f7b89828a01613c0e565b9350506080613f8c89828a01613ab0565b92505060a087013567ffffffffffffffff811115613fa957600080fd5b613fb589828a01613b04565b9150509295509295509295565b600080600080600060a08688031215613fda57600080fd5b6000613fe888828901613a1d565b9550506020613ff988828901613a1d565b945050604061400a88828901613c0e565b935050606061401b88828901613c0e565b925050608086013567ffffffffffffffff81111561403857600080fd5b61404488828901613b04565b9150509295509295909350565b60008060006060848603121561406657600080fd5b600061407486828701613a1d565b935050602084013567ffffffffffffffff81111561409157600080fd5b61409d86828701613a86565b925050604084013567ffffffffffffffff8111156140ba57600080fd5b6140c686828701613a86565b9150509250925092565b600080600080608085870312156140e657600080fd5b60006140f487828801613a1d565b945050602085013567ffffffffffffffff81111561411157600080fd5b61411d87828801613a86565b935050604085013567ffffffffffffffff81111561413a57600080fd5b61414687828801613a86565b925050606085013567ffffffffffffffff81111561416357600080fd5b61416f87828801613b04565b91505092959194509250565b6000806040838503121561418e57600080fd5b600061419c85828601613a1d565b92505060206141ad85828601613ab0565b9150509250929050565b600080600080608085870312156141cd57600080fd5b60006141db87828801613a1d565b94505060206141ec87828801613ada565b935050604085013567ffffffffffffffff81111561420957600080fd5b61421587828801613b04565b925050606085013567ffffffffffffffff81111561423257600080fd5b61423e87828801613b04565b91505092959194509250565b6000806040838503121561425d57600080fd5b600061426b85828601613a1d565b925050602061427c85828601613c0e565b9150509250929050565b60008060006060848603121561429b57600080fd5b60006142a986828701613a1d565b93505060206142ba86828701613c0e565b92505060406142cb86828701613c0e565b9150509250925092565b600080600080608085870312156142eb57600080fd5b60006142f987828801613a1d565b945050602061430a87828801613c0e565b935050604061431b87828801613c0e565b925050606085013567ffffffffffffffff81111561433857600080fd5b61434487828801613b04565b91505092959194509250565b6000806040838503121561436357600080fd5b600083013567ffffffffffffffff81111561437d57600080fd5b61438985828601613a5c565b925050602083013567ffffffffffffffff8111156143a657600080fd5b6143b285828601613a86565b9150509250929050565b6000602082840312156143ce57600080fd5b600082013567ffffffffffffffff8111156143e857600080fd5b6143f484828501613a86565b91505092915050565b60006020828403121561440f57600080fd5b600061441d84828501613ac5565b91505092915050565b60006020828403121561443857600080fd5b600061444684828501613aef565b91505092915050565b6000806040838503121561446257600080fd5b600083015167ffffffffffffffff81111561447c57600080fd5b61448885828601613b2e565b925050602083015167ffffffffffffffff8111156144a557600080fd5b6144b185828601613b2e565b9150509250929050565b6000602082840312156144cd57600080fd5b600082013567ffffffffffffffff8111156144e757600080fd5b6144f384828501613b58565b91505092915050565b60006020828403121561450e57600080fd5b600082015167ffffffffffffffff81111561452857600080fd5b61453484828501613b82565b91505092915050565b6000806040838503121561455057600080fd5b600083015167ffffffffffffffff81111561456a57600080fd5b61457685828601613b82565b925050602083015167ffffffffffffffff81111561459357600080fd5b61459f85828601613b2e565b9150509250929050565b6000602082840312156145bb57600080fd5b60006145c984828501613c0e565b91505092915050565b60006145de8383614a50565b60208301905092915050565b60006145f68383614a6e565b60208301905092915050565b61460b81614f87565b82525050565b600061461c82614f10565b6146268185614f3e565b935061463183614f00565b8060005b8381101561466257815161464988826145d2565b975061465483614f31565b925050600181019050614635565b5085935050505092915050565b600061467a82614f10565b6146848185614f4f565b935061468f83614f00565b8060005b838110156146c05781516146a788826145ea565b97506146b283614f31565b925050600181019050614693565b5085935050505092915050565b6146d681614fab565b82525050565b6146e581614fb7565b82525050565b6146fc6146f782614fb7565b615059565b82525050565b600061470d82614f1b565b6147178185614f6b565b9350614727818560208601615026565b80840191505092915050565b600061473e82614f26565b6147488185614f76565b9350614758818560208601615026565b6147618161506f565b840191505092915050565b6000614779603383614f76565b91507f455243313135354d657461236d657461536166655472616e7366657246726f6d60008301527f3a20494e56414c49445f524543495049454e54000000000000000000000000006020830152604082019050919050565b60006147df603383614f76565b91507f455243313135354d657461235f7369676e617475726556616c69646174696f6e60008301527f3a20494e56414c49445f5349474e4154555245000000000000000000000000006020830152604082019050919050565b6000614845602383614f76565b91507f455243313135354d657461646174614d6f636b3a20494e56414c49445f4d455460008301527f484f4400000000000000000000000000000000000000000000000000000000006020830152604082019050919050565b60006148ab603283614f76565b91507f455243313135354d657461235f7472616e736665724761734665653a2045524360008301527f32305f5452414e534645525f4641494c454400000000000000000000000000006020830152604082019050919050565b6000614911603883614f76565b91507f455243313135354d657461236d6574615361666542617463685472616e73666560008301527f7246726f6d3a20494e56414c49445f524543495049454e5400000000000000006020830152604082019050919050565b6000614977600083614f5a565b9150600082019050919050565b6000614991602f83614f76565b91507f455243313135354d657461235f7369676e617475726556616c69646174696f6e60008301527f3a20494e56414c49445f4e4f4e434500000000000000000000000000000000006020830152604082019050919050565b60006149f7602e83614f76565b91507f455243313135354d657461235f7472616e736665724761734665653a20554e5360008301527f5550504f525445445f544f4b454e0000000000000000000000000000000000006020830152604082019050919050565b614a598161500d565b82525050565b614a688161500d565b82525050565b614a778161500d565b82525050565b614a8e614a898261500d565b615063565b82525050565b6000614aa0828461466f565b915081905092915050565b6000614ab78286614702565b9150614ac38285614a7d565b602082019150614ad382846146eb565b602082019150819050949350505050565b6000614af08286614702565b9150614afc8285614a7d565b602082019150614b0c8284614702565b9150819050949350505050565b6000606082019050614b2e6000830186614602565b614b3b6020830185614602565b614b486040830184614a5f565b949350505050565b600060a082019050614b656000830187614602565b614b726020830186614602565b614b7f6040830185614a5f565b614b8c6060830184614a5f565b8181036080830152614b9d8161496a565b905095945050505050565b60006020820190508181036000830152614bc28184614611565b905092915050565b6000602082019050614bdf60008301846146cd565b92915050565b600060c082019050614bfa60008301896146dc565b614c076020830188614602565b614c146040830187614602565b614c2160608301866146dc565b614c2e60808301856146dc565b614c3b60a0830184614a5f565b979650505050505050565b600060a082019050614c5b60008301886146dc565b614c686020830187614602565b614c756040830186614602565b614c826060830185614a5f565b614c8f6080830184614a5f565b9695505050505050565b600060c082019050614cae60008301896146dc565b614cbb6020830188614602565b614cc86040830187614602565b614cd56060830186614a5f565b614ce26080830185614a5f565b614cef60a0830184614a5f565b979650505050505050565b60006020820190508181036000830152614d148184614733565b905092915050565b60006020820190508181036000830152614d358161476c565b9050919050565b60006020820190508181036000830152614d55816147d2565b9050919050565b60006020820190508181036000830152614d7581614838565b9050919050565b60006020820190508181036000830152614d958161489e565b9050919050565b60006020820190508181036000830152614db581614904565b9050919050565b60006020820190508181036000830152614dd581614984565b9050919050565b60006020820190508181036000830152614df5816149ea565b9050919050565b6000602082019050614e116000830184614a5f565b92915050565b6000604051905081810181811067ffffffffffffffff82111715614e3e57614e3d61506d565b5b8060405250919050565b600067ffffffffffffffff821115614e6357614e6261506d565b5b602082029050602081019050919050565b600067ffffffffffffffff821115614e8f57614e8e61506d565b5b602082029050602081019050919050565b600067ffffffffffffffff821115614ebb57614eba61506d565b5b601f19601f8301169050602081019050919050565b600067ffffffffffffffff821115614eeb57614eea61506d565b5b601f19601f8301169050602081019050919050565b6000819050602082019050919050565b600081519050919050565b600081519050919050565b600081519050919050565b6000602082019050919050565b600082825260208201905092915050565b600081905092915050565b600082825260208201905092915050565b600081905092915050565b600082825260208201905092915050565b6000614f9282614fed565b9050919050565b6000614fa482614fed565b9050919050565b60008115159050919050565b6000819050919050565b60007fffffffff0000000000000000000000000000000000000000000000000000000082169050919050565b600073ffffffffffffffffffffffffffffffffffffffff82169050919050565b6000819050919050565b82818337600083830152505050565b60005b83811015615044578082015181840152602081019050615029565b83811115615053576000848401525b50505050565b6000819050919050565b6000819050919050565bfe5b6000601f19601f8301169050919050565b61508981614f87565b811461509457600080fd5b50565b6150a081614f99565b81146150ab57600080fd5b50565b6150b781614fab565b81146150c257600080fd5b50565b6150ce81614fb7565b81146150d957600080fd5b50565b6150e581614fc1565b81146150f057600080fd5b50565b6150fc8161500d565b811461510757600080fd5b5056fe4552433131353523736166655472616e7366657246726f6d3a20494e56414c49445f524543495049454e544c6962427974657323706f704c617374427974653a20475245415445525f5448414e5f5a45524f5f4c454e4754485f52455155495245444552433131353523736166655472616e7366657246726f6d3a20494e56414c49445f4f50455241544f5245524331313535235f7361666542617463685472616e7366657246726f6d3a20494e56414c49445f4152524159535f4c454e4754485369676e617475726556616c696461746f7223697356616c69645369676e61747572653a20554e535550504f525445445f5349474e41545552455369676e617475726556616c696461746f7223697356616c69645369676e61747572653a20494c4c4547414c5f5349474e41545552455369676e617475726556616c696461746f7223697356616c69645369676e61747572653a204c454e4754485f39375f524551554952454445524331313535237361666542617463685472616e7366657246726f6d3a20494e56414c49445f524543495049454e54455243313135354d696e744275726e2362617463684275726e3a20494e56414c49445f4152524159535f4c454e475448455243313135352362616c616e63654f6642617463683a20494e56414c49445f41525241595f4c454e4754485369676e617475726556616c696461746f7223697356616c69645369676e61747572653a20494e56414c49445f5349474e455245524331313535237361666542617463685472616e7366657246726f6d3a20494e56414c49445f4f50455241544f525369676e617475726556616c696461746f7223697356616c69645369676e61747572653a204c454e4754485f475245415445525f5448414e5f305f5245515549524544455243313135354d696e744275726e2362617463684d696e743a20494e56414c49445f4152524159535f4c454e47544845524331313535235f63616c6c6f6e45524331313535426174636852656365697665643a20494e56414c49445f4f4e5f524543454956455f4d45535341474545524331313535235f63616c6c6f6e4552433131353552656365697665643a20494e56414c49445f4f4e5f524543454956455f4d4553534147454c696242797465732372656164427974657333323a20475245415445525f4f525f455155414c5f544f5f33325f4c454e4754485f5245515549524544a2646970667358221220d47ac1af996faa507b646448222d4987fa2c52666601f8fdf50760a2bce7b30d64736f6c63430007060033",
  "linkReferences": {},
  "deployedLinkReferences": {}
}