{
	"data": {
		"bytecode": {
			"linkReferences": {},
			"object": "608060405234801561001057600080fd5b5061077a806100206000396000f3fe608060405234801561001057600080fd5b50600436106100625760003560e01c8063034d21e414610067578063aa58276a146100bc578063af955e3b1461011b578063d7cdaf7114610162578063e20f7ac0146101a9578063fedf2b5f146101ec575b600080fd5b6100aa6004803603608081101561007d57600080fd5b506001600160a01b03813516906001600160801b036020820135169060408101359060600135151561022f565b60408051918252519081900360200190f35b6100ff600480360360808110156100d257600080fd5b506001600160a01b03813516906001600160801b0360208201351690604081013590606001351515610250565b604080516001600160a01b039092168252519081900360200190f35b6100aa6004803603608081101561013157600080fd5b506001600160a01b0381358116916020810135909116906001600160801b0360408201351690606001351515610267565b6100aa6004803603608081101561017857600080fd5b506001600160a01b0381358116916020810135909116906001600160801b0360408201351690606001351515610279565b6100aa600480360360808110156101bf57600080fd5b506001600160a01b03813516906001600160801b036020820135169060408101359060600135151561028b565b6100ff6004803603608081101561020257600080fd5b506001600160a01b03813516906001600160801b036020820135169060408101359060600135151561029d565b6000805a9050610241868686866102ab565b505a900390505b949350505050565b600061025e858585856102ab565b95945050505050565b6000805a9050610241868686866102fc565b6000805a905061024186868686610367565b6000805a905061024186868686610412565b600061025e85858585610412565b600080856001600160a01b0316116102c257600080fd5b6000846001600160801b0316116102d857600080fd5b816102ef576102ea858585600161045a565b61025e565b61025e858585600161053b565b6000836001600160a01b0316856001600160a01b0316111561031c579293925b81610344576102ea836001600160801b03168686036001600160a01b0316600160601b61061e565b61025e836001600160801b03168686036001600160a01b0316600160601b6106ce565b6000836001600160a01b0316856001600160a01b03161115610387579293925b600160601b600160e01b03606084901b166001600160a01b0386860381169087166103b157600080fd5b836103e157866001600160a01b03166103d48383896001600160a01b031661061e565b816103db57fe5b04610407565b6104076103f88383896001600160a01b03166106ce565b886001600160a01b0316610708565b979650505050505050565b600080856001600160a01b03161161042957600080fd5b6000846001600160801b03161161043f57600080fd5b81610451576102ea858585600061053b565b61025e85858560005b600081156104cd5760006001600160a01b038411156104905761048b84600160601b876001600160801b031661061e565b6104a8565b6001600160801b038516606085901b816104a657fe5b045b90506104c56104c06001600160a01b03881683610713565b610729565b915050610248565b60006001600160a01b038411156104fb576104f684600160601b876001600160801b03166106ce565b610512565b610512606085901b6001600160801b038716610708565b905080866001600160a01b03161161052957600080fd5b6001600160a01b038616039050610248565b600082610549575083610248565b600160601b600160e01b03606085901b1682156105d7576001600160a01b0386168481029085828161057757fe5b0414156105a8578181018281106105a65761059c83896001600160a01b0316836106ce565b9350505050610248565b505b6105ce826105c9878a6001600160a01b031686816105c257fe5b0490610713565b610708565b92505050610248565b6001600160a01b038616848102908582816105ee57fe5b041480156105fb57508082115b61060457600080fd5b80820361059c6104c0846001600160a01b038b16846106ce565b6000808060001985870986860292508281109083900303905080610654576000841161064957600080fd5b5082900490506106c7565b80841161066057600080fd5b6000848688096000868103871696879004966002600389028118808a02820302808a02820302808a02820302808a02820302808a02820302808a02909103029181900381900460010186841190950394909402919094039290920491909117919091029150505b9392505050565b60006106db84848461061e565b9050600082806106e757fe5b84860911156106c75760001981106106fe57600080fd5b6001019392505050565b808204910615150190565b8082018281101561072357600080fd5b92915050565b806001600160a01b038116811461073f57600080fd5b91905056fea2646970667358221220514a28e9d161af24a6cc63dd9bacec7afca3fc5abf2df52d40589b7de41a0a9e64736f6c63430007060033",
			"opcodes": "PUSH1 0x80 PUSH1 0x40 MSTORE CALLVALUE DUP1 ISZERO PUSH2 0x10 JUMPI PUSH1 0x0 DUP1 REVERT JUMPDEST POP PUSH2 0x77A DUP1 PUSH2 0x20 PUSH1 0x0 CODECOPY PUSH1 0x0 RETURN INVALID PUSH1 0x80 PUSH1 0x40 MSTORE CALLVALUE DUP1 ISZERO PUSH2 0x10 JUMPI PUSH1 0x0 DUP1 REVERT JUMPDEST POP PUSH1 0x4 CALLDATASIZE LT PUSH2 0x62 JUMPI PUSH1 0x0 CALLDATALOAD PUSH1 0xE0 SHR DUP1 PUSH4 0x34D21E4 EQ PUSH2 0x67 JUMPI DUP1 PUSH4 0xAA58276A EQ PUSH2 0xBC JUMPI DUP1 PUSH4 0xAF955E3B EQ PUSH2 0x11B JUMPI DUP1 PUSH4 0xD7CDAF71 EQ PUSH2 0x162 JUMPI DUP1 PUSH4 0xE20F7AC0 EQ PUSH2 0x1A9 JUMPI DUP1 PUSH4 0xFEDF2B5F EQ PUSH2 0x1EC JUMPI JUMPDEST PUSH1 0x0 DUP1 REVERT JUMPDEST PUSH2 0xAA PUSH1 0x4 DUP1 CALLDATASIZE SUB PUSH1 0x80 DUP2 LT ISZERO PUSH2 0x7D JUMPI PUSH1 0x0 DUP1 REVERT JUMPDEST POP PUSH1 0x1 PUSH1 0x1 PUSH1 0xA0 SHL SUB DUP2 CALLDATALOAD AND SWAP1 PUSH1 0x1 PUSH1 0x1 PUSH1 0x80 SHL SUB PUSH1 0x20 DUP3 ADD CALLDATALOAD AND SWAP1 PUSH1 0x40 DUP2 ADD CALLDATALOAD SWAP1 PUSH1 0x60 ADD CALLDATALOAD ISZERO ISZERO PUSH2 0x22F JUMP JUMPDEST PUSH1 0x40 DUP1 MLOAD SWAP2 DUP3 MSTORE MLOAD SWAP1 DUP2 SWAP1 SUB PUSH1 0x20 ADD SWAP1 RETURN JUMPDEST PUSH2 0xFF PUSH1 0x4 DUP1 CALLDATASIZE SUB PUSH1 0x80 DUP2 LT ISZERO PUSH2 0xD2 JUMPI PUSH1 0x0 DUP1 REVERT JUMPDEST POP PUSH1 0x1 PUSH1 0x1 PUSH1 0xA0 SHL SUB DUP2 CALLDATALOAD AND SWAP1 PUSH1 0x1 PUSH1 0x1 PUSH1 0x80 SHL SUB PUSH1 0x20 DUP3 ADD CALLDATALOAD AND SWAP1 PUSH1 0x40 DUP2 ADD CALLDATALOAD SWAP1 PUSH1 0x60 ADD CALLDATALOAD ISZERO ISZERO PUSH2 0x250 JUMP JUMPDEST PUSH1 0x40 DUP1 MLOAD PUSH1 0x1 PUSH1 0x1 PUSH1 0xA0 SHL SUB SWAP1 SWAP3 AND DUP3 MSTORE MLOAD SWAP1 DUP2 SWAP1 SUB PUSH1 0x20 ADD SWAP1 RETURN JUMPDEST PUSH2 0xAA PUSH1 0x4 DUP1 CALLDATASIZE SUB PUSH1 0x80 DUP2 LT ISZERO PUSH2 0x131 JUMPI PUSH1 0x0 DUP1 REVERT JUMPDEST POP PUSH1 0x1 PUSH1 0x1 PUSH1 0xA0 SHL SUB DUP2 CALLDATALOAD DUP2 AND SWAP2 PUSH1 0x20 DUP2 ADD CALLDATALOAD SWAP1 SWAP2 AND SWAP1 PUSH1 0x1 PUSH1 0x1 PUSH1 0x80 SHL SUB PUSH1 0x40 DUP3 ADD CALLDATALOAD AND SWAP1 PUSH1 0x60 ADD CALLDATALOAD ISZERO ISZERO PUSH2 0x267 JUMP JUMPDEST PUSH2 0xAA PUSH1 0x4 DUP1 CALLDATASIZE SUB PUSH1 0x80 DUP2 LT ISZERO PUSH2 0x178 JUMPI PUSH1 0x0 DUP1 REVERT JUMPDEST POP PUSH1 0x1 PUSH1 0x1 PUSH1 0xA0 SHL SUB DUP2 CALLDATALOAD DUP2 AND SWAP2 PUSH1 0x20 DUP2 ADD CALLDATALOAD SWAP1 SWAP2 AND SWAP1 PUSH1 0x1 PUSH1 0x1 PUSH1 0x80 SHL SUB PUSH1 0x40 DUP3 ADD CALLDATALOAD AND SWAP1 PUSH1 0x60 ADD CALLDATALOAD ISZERO ISZERO PUSH2 0x279 JUMP JUMPDEST PUSH2 0xAA PUSH1 0x4 DUP1 CALLDATASIZE SUB PUSH1 0x80 DUP2 LT ISZERO PUSH2 0x1BF JUMPI PUSH1 0x0 DUP1 REVERT JUMPDEST POP PUSH1 0x1 PUSH1 0x1 PUSH1 0xA0 SHL SUB DUP2 CALLDATALOAD AND SWAP1 PUSH1 0x1 PUSH1 0x1 PUSH1 0x80 SHL SUB PUSH1 0x20 DUP3 ADD CALLDATALOAD AND SWAP1 PUSH1 0x40 DUP2 ADD CALLDATALOAD SWAP1 PUSH1 0x60 ADD CALLDATALOAD ISZERO ISZERO PUSH2 0x28B JUMP JUMPDEST PUSH2 0xFF PUSH1 0x4 DUP1 CALLDATASIZE SUB PUSH1 0x80 DUP2 LT ISZERO PUSH2 0x202 JUMPI PUSH1 0x0 DUP1 REVERT JUMPDEST POP PUSH1 0x1 PUSH1 0x1 PUSH1 0xA0 SHL SUB DUP2 CALLDATALOAD AND SWAP1 PUSH1 0x1 PUSH1 0x1 PUSH1 0x80 SHL SUB PUSH1 0x20 DUP3 ADD CALLDATALOAD AND SWAP1 PUSH1 0x40 DUP2 ADD CALLDATALOAD SWAP1 PUSH1 0x60 ADD CALLDATALOAD ISZERO ISZERO PUSH2 0x29D JUMP JUMPDEST PUSH1 0x0 DUP1 GAS SWAP1 POP PUSH2 0x241 DUP7 DUP7 DUP7 DUP7 PUSH2 0x2AB JUMP JUMPDEST POP GAS SWAP1 SUB SWAP1 POP JUMPDEST SWAP5 SWAP4 POP POP POP POP JUMP JUMPDEST PUSH1 0x0 PUSH2 0x25E DUP6 DUP6 DUP6 DUP6 PUSH2 0x2AB JUMP JUMPDEST SWAP6 SWAP5 POP POP POP POP POP JUMP JUMPDEST PUSH1 0x0 DUP1 GAS SWAP1 POP PUSH2 0x241 DUP7 DUP7 DUP7 DUP7 PUSH2 0x2FC JUMP JUMPDEST PUSH1 0x0 DUP1 GAS SWAP1 POP PUSH2 0x241 DUP7 DUP7 DUP7 DUP7 PUSH2 0x367 JUMP JUMPDEST PUSH1 0x0 DUP1 GAS SWAP1 POP PUSH2 0x241 DUP7 DUP7 DUP7 DUP7 PUSH2 0x412 JUMP JUMPDEST PUSH1 0x0 PUSH2 0x25E DUP6 DUP6 DUP6 DUP6 PUSH2 0x412 JUMP JUMPDEST PUSH1 0x0 DUP1 DUP6 PUSH1 0x1 PUSH1 0x1 PUSH1 0xA0 SHL SUB AND GT PUSH2 0x2C2 JUMPI PUSH1 0x0 DUP1 REVERT JUMPDEST PUSH1 0x0 DUP5 PUSH1 0x1 PUSH1 0x1 PUSH1 0x80 SHL SUB AND GT PUSH2 0x2D8 JUMPI PUSH1 0x0 DUP1 REVERT JUMPDEST DUP2 PUSH2 0x2EF JUMPI PUSH2 0x2EA DUP6 DUP6 DUP6 PUSH1 0x1 PUSH2 0x45A JUMP JUMPDEST PUSH2 0x25E JUMP JUMPDEST PUSH2 0x25E DUP6 DUP6 DUP6 PUSH1 0x1 PUSH2 0x53B JUMP JUMPDEST PUSH1 0x0 DUP4 PUSH1 0x1 PUSH1 0x1 PUSH1 0xA0 SHL SUB AND DUP6 PUSH1 0x1 PUSH1 0x1 PUSH1 0xA0 SHL SUB AND GT ISZERO PUSH2 0x31C JUMPI SWAP3 SWAP4 SWAP3 JUMPDEST DUP2 PUSH2 0x344 JUMPI PUSH2 0x2EA DUP4 PUSH1 0x1 PUSH1 0x1 PUSH1 0x80 SHL SUB AND DUP7 DUP7 SUB PUSH1 0x1 PUSH1 0x1 PUSH1 0xA0 SHL SUB AND PUSH1 0x1 PUSH1 0x60 SHL PUSH2 0x61E JUMP JUMPDEST PUSH2 0x25E DUP4 PUSH1 0x1 PUSH1 0x1 PUSH1 0x80 SHL SUB AND DUP7 DUP7 SUB PUSH1 0x1 PUSH1 0x1 PUSH1 0xA0 SHL SUB AND PUSH1 0x1 PUSH1 0x60 SHL PUSH2 0x6CE JUMP JUMPDEST PUSH1 0x0 DUP4 PUSH1 0x1 PUSH1 0x1 PUSH1 0xA0 SHL SUB AND DUP6 PUSH1 0x1 PUSH1 0x1 PUSH1 0xA0 SHL SUB AND GT ISZERO PUSH2 0x387 JUMPI SWAP3 SWAP4 SWAP3 JUMPDEST PUSH1 0x1 PUSH1 0x60 SHL PUSH1 0x1 PUSH1 0xE0 SHL SUB PUSH1 0x60 DUP5 SWAP1 SHL AND PUSH1 0x1 PUSH1 0x1 PUSH1 0xA0 SHL SUB DUP7 DUP7 SUB DUP2 AND SWAP1 DUP8 AND PUSH2 0x3B1 JUMPI PUSH1 0x0 DUP1 REVERT JUMPDEST DUP4 PUSH2 0x3E1 JUMPI DUP7 PUSH1 0x1 PUSH1 0x1 PUSH1 0xA0 SHL SUB AND PUSH2 0x3D4 DUP4 DUP4 DUP10 PUSH1 0x1 PUSH1 0x1 PUSH1 0xA0 SHL SUB AND PUSH2 0x61E JUMP JUMPDEST DUP2 PUSH2 0x3DB JUMPI INVALID JUMPDEST DIV PUSH2 0x407 JUMP JUMPDEST PUSH2 0x407 PUSH2 0x3F8 DUP4 DUP4 DUP10 PUSH1 0x1 PUSH1 0x1 PUSH1 0xA0 SHL SUB AND PUSH2 0x6CE JUMP JUMPDEST DUP9 PUSH1 0x1 PUSH1 0x1 PUSH1 0xA0 SHL SUB AND PUSH2 0x708 JUMP JUMPDEST SWAP8 SWAP7 POP POP POP POP POP POP POP JUMP JUMPDEST PUSH1 0x0 DUP1 DUP6 PUSH1 0x1 PUSH1 0x1 PUSH1 0xA0 SHL SUB AND GT PUSH2 0x429 JUMPI PUSH1 0x0 DUP1 REVERT JUMPDEST PUSH1 0x0 DUP5 PUSH1 0x1 PUSH1 0x1 PUSH1 0x80 SHL SUB AND GT PUSH2 0x43F JUMPI PUSH1 0x0 DUP1 REVERT JUMPDEST DUP2 PUSH2 0x451 JUMPI PUSH2 0x2EA DUP6 DUP6 DUP6 PUSH1 0x0 PUSH2 0x53B JUMP JUMPDEST PUSH2 0x25E DUP6 DUP6 DUP6 PUSH1 0x0 JUMPDEST PUSH1 0x0 DUP2 ISZERO PUSH2 0x4CD JUMPI PUSH1 0x0 PUSH1 0x1 PUSH1 0x1 PUSH1 0xA0 SHL SUB DUP5 GT ISZERO PUSH2 0x490 JUMPI PUSH2 0x48B DUP5 PUSH1 0x1 PUSH1 0x60 SHL DUP8 PUSH1 0x1 PUSH1 0x1 PUSH1 0x80 SHL SUB AND PUSH2 0x61E JUMP JUMPDEST PUSH2 0x4A8 JUMP JUMPDEST PUSH1 0x1 PUSH1 0x1 PUSH1 0x80 SHL SUB DUP6 AND PUSH1 0x60 DUP6 SWAP1 SHL DUP2 PUSH2 0x4A6 JUMPI INVALID JUMPDEST DIV JUMPDEST SWAP1 POP PUSH2 0x4C5 PUSH2 0x4C0 PUSH1 0x1 PUSH1 0x1 PUSH1 0xA0 SHL SUB DUP9 AND DUP4 PUSH2 0x713 JUMP JUMPDEST PUSH2 0x729 JUMP JUMPDEST SWAP2 POP POP PUSH2 0x248 JUMP JUMPDEST PUSH1 0x0 PUSH1 0x1 PUSH1 0x1 PUSH1 0xA0 SHL SUB DUP5 GT ISZERO PUSH2 0x4FB JUMPI PUSH2 0x4F6 DUP5 PUSH1 0x1 PUSH1 0x60 SHL DUP8 PUSH1 0x1 PUSH1 0x1 PUSH1 0x80 SHL SUB AND PUSH2 0x6CE JUMP JUMPDEST PUSH2 0x512 JUMP JUMPDEST PUSH2 0x512 PUSH1 0x60 DUP6 SWAP1 SHL PUSH1 0x1 PUSH1 0x1 PUSH1 0x80 SHL SUB DUP8 AND PUSH2 0x708 JUMP JUMPDEST SWAP1 POP DUP1 DUP7 PUSH1 0x1 PUSH1 0x1 PUSH1 0xA0 SHL SUB AND GT PUSH2 0x529 JUMPI PUSH1 0x0 DUP1 REVERT JUMPDEST PUSH1 0x1 PUSH1 0x1 PUSH1 0xA0 SHL SUB DUP7 AND SUB SWAP1 POP PUSH2 0x248 JUMP JUMPDEST PUSH1 0x0 DUP3 PUSH2 0x549 JUMPI POP DUP4 PUSH2 0x248 JUMP JUMPDEST PUSH1 0x1 PUSH1 0x60 SHL PUSH1 0x1 PUSH1 0xE0 SHL SUB PUSH1 0x60 DUP6 SWAP1 SHL AND DUP3 ISZERO PUSH2 0x5D7 JUMPI PUSH1 0x1 PUSH1 0x1 PUSH1 0xA0 SHL SUB DUP7 AND DUP5 DUP2 MUL SWAP1 DUP6 DUP3 DUP2 PUSH2 0x577 JUMPI INVALID JUMPDEST DIV EQ ISZERO PUSH2 0x5A8 JUMPI DUP2 DUP2 ADD DUP3 DUP2 LT PUSH2 0x5A6 JUMPI PUSH2 0x59C DUP4 DUP10 PUSH1 0x1 PUSH1 0x1 PUSH1 0xA0 SHL SUB AND DUP4 PUSH2 0x6CE JUMP JUMPDEST SWAP4 POP POP POP POP PUSH2 0x248 JUMP JUMPDEST POP JUMPDEST PUSH2 0x5CE DUP3 PUSH2 0x5C9 DUP8 DUP11 PUSH1 0x1 PUSH1 0x1 PUSH1 0xA0 SHL SUB AND DUP7 DUP2 PUSH2 0x5C2 JUMPI INVALID JUMPDEST DIV SWAP1 PUSH2 0x713 JUMP JUMPDEST PUSH2 0x708 JUMP JUMPDEST SWAP3 POP POP POP PUSH2 0x248 JUMP JUMPDEST PUSH1 0x1 PUSH1 0x1 PUSH1 0xA0 SHL SUB DUP7 AND DUP5 DUP2 MUL SWAP1 DUP6 DUP3 DUP2 PUSH2 0x5EE JUMPI INVALID JUMPDEST DIV EQ DUP1 ISZERO PUSH2 0x5FB JUMPI POP DUP1 DUP3 GT JUMPDEST PUSH2 0x604 JUMPI PUSH1 0x0 DUP1 REVERT JUMPDEST DUP1 DUP3 SUB PUSH2 0x59C PUSH2 0x4C0 DUP5 PUSH1 0x1 PUSH1 0x1 PUSH1 0xA0 SHL SUB DUP12 AND DUP5 PUSH2 0x6CE JUMP JUMPDEST PUSH1 0x0 DUP1 DUP1 PUSH1 0x0 NOT DUP6 DUP8 MULMOD DUP7 DUP7 MUL SWAP3 POP DUP3 DUP2 LT SWAP1 DUP4 SWAP1 SUB SUB SWAP1 POP DUP1 PUSH2 0x654 JUMPI PUSH1 0x0 DUP5 GT PUSH2 0x649 JUMPI PUSH1 0x0 DUP1 REVERT JUMPDEST POP DUP3 SWAP1 DIV SWAP1 POP PUSH2 0x6C7 JUMP JUMPDEST DUP1 DUP5 GT PUSH2 0x660 JUMPI PUSH1 0x0 DUP1 REVERT JUMPDEST PUSH1 0x0 DUP5 DUP7 DUP9 MULMOD PUSH1 0x0 DUP7 DUP2 SUB DUP8 AND SWAP7 DUP8 SWAP1 DIV SWAP7 PUSH1 0x2 PUSH1 0x3 DUP10 MUL DUP2 XOR DUP1 DUP11 MUL DUP3 SUB MUL DUP1 DUP11 MUL DUP3 SUB MUL DUP1 DUP11 MUL DUP3 SUB MUL DUP1 DUP11 MUL DUP3 SUB MUL DUP1 DUP11 MUL DUP3 SUB MUL DUP1 DUP11 MUL SWAP1 SWAP2 SUB MUL SWAP2 DUP2 SWAP1 SUB DUP2 SWAP1 DIV PUSH1 0x1 ADD DUP7 DUP5 GT SWAP1 SWAP6 SUB SWAP5 SWAP1 SWAP5 MUL SWAP2 SWAP1 SWAP5 SUB SWAP3 SWAP1 SWAP3 DIV SWAP2 SWAP1 SWAP2 OR SWAP2 SWAP1 SWAP2 MUL SWAP2 POP POP JUMPDEST SWAP4 SWAP3 POP POP POP JUMP JUMPDEST PUSH1 0x0 PUSH2 0x6DB DUP5 DUP5 DUP5 PUSH2 0x61E JUMP JUMPDEST SWAP1 POP PUSH1 0x0 DUP3 DUP1 PUSH2 0x6E7 JUMPI INVALID JUMPDEST DUP5 DUP7 MULMOD GT ISZERO PUSH2 0x6C7 JUMPI PUSH1 0x0 NOT DUP2 LT PUSH2 0x6FE JUMPI PUSH1 0x0 DUP1 REVERT JUMPDEST PUSH1 0x1 ADD SWAP4 SWAP3 POP POP POP JUMP JUMPDEST DUP1 DUP3 DIV SWAP2 MOD ISZERO ISZERO ADD SWAP1 JUMP JUMPDEST DUP1 DUP3 ADD DUP3 DUP2 LT ISZERO PUSH2 0x723 JUMPI PUSH1 0x0 DUP1 REVERT JUMPDEST SWAP3 SWAP2 POP POP JUMP JUMPDEST DUP1 PUSH1 0x1 PUSH1 0x1 PUSH1 0xA0 SHL SUB DUP2 AND DUP2 EQ PUSH2 0x73F JUMPI PUSH1 0x0 DUP1 REVERT JUMPDEST SWAP2 SWAP1 POP JUMP INVALID LOG2 PUSH5 0x6970667358 0x22 SLT KECCAK256 MLOAD 0x4A 0x28 0xE9 0xD1 PUSH2 0xAF24 0xA6 0xCC PUSH4 0xDD9BACEC PUSH27 0xFCA3FC5ABF2DF52D40589B7DE41A0A9E64736F6C63430007060033 "
		},
		"gasEstimates": {
			"creation": {
				"codeDepositCost": "382800",
				"executionCost": "418",
				"totalCost": "383218"
			},
			"external": {
				"getGasCostOfGetAmount0Delta(uint160,uint160,uint128,bool)": "infinite",
				"getGasCostOfGetAmount1Delta(uint160,uint160,uint128,bool)": "infinite",
				"getGasCostOfGetNextSqrtPriceFromInput(uint160,uint128,uint256,bool)": "infinite",
				"getGasCostOfGetNextSqrtPriceFromOutput(uint160,uint128,uint256,bool)": "infinite",
				"getNextSqrtPriceFromInput(uint160,uint128,uint256,bool)": "infinite",
				"getNextSqrtPriceFromOutput(uint160,uint128,uint256,bool)": "infinite"
			},
			"internal": {
				"getAmount0Delta(uint160,uint160,uint128,bool)": "infinite",
				"getAmount1Delta(uint160,uint160,uint128,bool)": "infinite"
			}
		},
		"methodIdentifiers": {
			"getGasCostOfGetAmount0Delta(uint160,uint160,uint128,bool)": "d7cdaf71",
			"getGasCostOfGetAmount1Delta(uint160,uint160,uint128,bool)": "af955e3b",
			"getGasCostOfGetNextSqrtPriceFromInput(uint160,uint128,uint256,bool)": "034d21e4",
			"getGasCostOfGetNextSqrtPriceFromOutput(uint160,uint128,uint256,bool)": "e20f7ac0",
			"getNextSqrtPriceFromInput(uint160,uint128,uint256,bool)": "aa58276a",
			"getNextSqrtPriceFromOutput(uint160,uint128,uint256,bool)": "fedf2b5f"
		}
	},
	"abi": [
		{
			"inputs": [
				{
					"internalType": "uint160",
					"name": "sqrtLower",
					"type": "uint160"
				},
				{
					"internalType": "uint160",
					"name": "sqrtUpper",
					"type": "uint160"
				},
				{
					"internalType": "uint128",
					"name": "liquidity",
					"type": "uint128"
				},
				{
					"internalType": "bool",
					"name": "roundUp",
					"type": "bool"
				}
			],
			"name": "getGasCostOfGetAmount0Delta",
			"outputs": [
				{
					"internalType": "uint256",
					"name": "",
					"type": "uint256"
				}
			],
			"stateMutability": "view",
			"type": "function"
		},
		{
			"inputs": [
				{
					"internalType": "uint160",
					"name": "sqrtLower",
					"type": "uint160"
				},
				{
					"internalType": "uint160",
					"name": "sqrtUpper",
					"type": "uint160"
				},
				{
					"internalType": "uint128",
					"name": "liquidity",
					"type": "uint128"
				},
				{
					"internalType": "bool",
					"name": "roundUp",
					"type": "bool"
				}
			],
			"name": "getGasCostOfGetAmount1Delta",
			"outputs": [
				{
					"internalType": "uint256",
					"name": "",
					"type": "uint256"
				}
			],
			"stateMutability": "view",
			"type": "function"
		},
		{
			"inputs": [
				{
					"internalType": "uint160",
					"name": "sqrtP",
					"type": "uint160"
				},
				{
					"internalType": "uint128",
					"name": "liquidity",
					"type": "uint128"
				},
				{
					"internalType": "uint256",
					"name": "amountIn",
					"type": "uint256"
				},
				{
					"internalType": "bool",
					"name": "zeroForOne",
					"type": "bool"
				}
			],
			"name": "getGasCostOfGetNextSqrtPriceFromInput",
			"outputs": [
				{
					"internalType": "uint256",
					"name": "",
					"type": "uint256"
				}
			],
			"stateMutability": "view",
			"type": "function"
		},
		{
			"inputs": [
				{
					"internalType": "uint160",
					"name": "sqrtP",
					"type": "uint160"
				},
				{
					"internalType": "uint128",
					"name": "liquidity",
					"type": "uint128"
				},
				{
					"internalType": "uint256",
					"name": "amountOut",
					"type": "uint256"
				},
				{
					"internalType": "bool",
					"name": "zeroForOne",
					"type": "bool"
				}
			],
			"name": "getGasCostOfGetNextSqrtPriceFromOutput",
			"outputs": [
				{
					"internalType": "uint256",
					"name": "",
					"type": "uint256"
				}
			],
			"stateMutability": "view",
			"type": "function"
		},
		{
			"inputs": [
				{
					"internalType": "uint160",
					"name": "sqrtP",
					"type": "uint160"
				},
				{
					"internalType": "uint128",
					"name": "liquidity",
					"type": "uint128"
				},
				{
					"internalType": "uint256",
					"name": "amountIn",
					"type": "uint256"
				},
				{
					"internalType": "bool",
					"name": "zeroForOne",
					"type": "bool"
				}
			],
			"name": "getNextSqrtPriceFromInput",
			"outputs": [
				{
					"internalType": "uint160",
					"name": "sqrtQ",
					"type": "uint160"
				}
			],
			"stateMutability": "pure",
			"type": "function"
		},
		{
			"inputs": [
				{
					"internalType": "uint160",
					"name": "sqrtP",
					"type": "uint160"
				},
				{
					"internalType": "uint128",
					"name": "liquidity",
					"type": "uint128"
				},
				{
					"internalType": "uint256",
					"name": "amountOut",
					"type": "uint256"
				},
				{
					"internalType": "bool",
					"name": "zeroForOne",
					"type": "bool"
				}
			],
			"name": "getNextSqrtPriceFromOutput",
			"outputs": [
				{
					"internalType": "uint160",
					"name": "sqrtQ",
					"type": "uint160"
				}
			],
			"stateMutability": "pure",
			"type": "function"
		}
	]
}