{
	"contracts/plugins/StaterTransfers.sol": {
		"StaterTransfers": {
			"abi": [
				{
					"anonymous": false,
					"inputs": [
						{
							"indexed": true,
							"internalType": "address",
							"name": "previousOwner",
							"type": "address"
						},
						{
							"indexed": true,
							"internalType": "address",
							"name": "newOwner",
							"type": "address"
						}
					],
					"name": "OwnershipTransferred",
					"type": "event"
				},
				{
					"inputs": [
						{
							"internalType": "address",
							"name": "",
							"type": "address"
						},
						{
							"internalType": "address",
							"name": "",
							"type": "address"
						},
						{
							"internalType": "uint256[]",
							"name": "",
							"type": "uint256[]"
						},
						{
							"internalType": "uint256[]",
							"name": "",
							"type": "uint256[]"
						},
						{
							"internalType": "bytes",
							"name": "",
							"type": "bytes"
						}
					],
					"name": "onERC1155BatchReceived",
					"outputs": [
						{
							"internalType": "bytes4",
							"name": "",
							"type": "bytes4"
						}
					],
					"stateMutability": "nonpayable",
					"type": "function"
				},
				{
					"inputs": [
						{
							"internalType": "address",
							"name": "",
							"type": "address"
						},
						{
							"internalType": "address",
							"name": "",
							"type": "address"
						},
						{
							"internalType": "uint256",
							"name": "",
							"type": "uint256"
						},
						{
							"internalType": "uint256",
							"name": "",
							"type": "uint256"
						},
						{
							"internalType": "bytes",
							"name": "",
							"type": "bytes"
						}
					],
					"name": "onERC1155Received",
					"outputs": [
						{
							"internalType": "bytes4",
							"name": "",
							"type": "bytes4"
						}
					],
					"stateMutability": "nonpayable",
					"type": "function"
				},
				{
					"inputs": [
						{
							"internalType": "address",
							"name": "",
							"type": "address"
						},
						{
							"internalType": "address",
							"name": "",
							"type": "address"
						},
						{
							"internalType": "uint256",
							"name": "",
							"type": "uint256"
						},
						{
							"internalType": "bytes",
							"name": "",
							"type": "bytes"
						}
					],
					"name": "onERC721Received",
					"outputs": [
						{
							"internalType": "bytes4",
							"name": "",
							"type": "bytes4"
						}
					],
					"stateMutability": "nonpayable",
					"type": "function"
				},
				{
					"inputs": [],
					"name": "owner",
					"outputs": [
						{
							"internalType": "address",
							"name": "",
							"type": "address"
						}
					],
					"stateMutability": "view",
					"type": "function"
				},
				{
					"inputs": [],
					"name": "renounceOwnership",
					"outputs": [],
					"stateMutability": "nonpayable",
					"type": "function"
				},
				{
					"inputs": [
						{
							"internalType": "bytes4",
							"name": "interfaceId",
							"type": "bytes4"
						}
					],
					"name": "supportsInterface",
					"outputs": [
						{
							"internalType": "bool",
							"name": "",
							"type": "bool"
						}
					],
					"stateMutability": "view",
					"type": "function"
				},
				{
					"inputs": [
						{
							"internalType": "address",
							"name": "from",
							"type": "address"
						},
						{
							"internalType": "address",
							"name": "to",
							"type": "address"
						},
						{
							"internalType": "address[]",
							"name": "nftAddressArray",
							"type": "address[]"
						},
						{
							"internalType": "uint256[]",
							"name": "nftTokenIdArray",
							"type": "uint256[]"
						},
						{
							"internalType": "uint8[]",
							"name": "nftTokenTypeArray",
							"type": "uint8[]"
						}
					],
					"name": "transferItems",
					"outputs": [],
					"stateMutability": "nonpayable",
					"type": "function"
				},
				{
					"inputs": [
						{
							"internalType": "address",
							"name": "newOwner",
							"type": "address"
						}
					],
					"name": "transferOwnership",
					"outputs": [],
					"stateMutability": "nonpayable",
					"type": "function"
				},
				{
					"inputs": [
						{
							"internalType": "address",
							"name": "from",
							"type": "address"
						},
						{
							"internalType": "address payable",
							"name": "to",
							"type": "address"
						},
						{
							"internalType": "address",
							"name": "currency",
							"type": "address"
						},
						{
							"internalType": "uint256",
							"name": "qty1",
							"type": "uint256"
						},
						{
							"internalType": "uint256",
							"name": "qty2",
							"type": "uint256"
						}
					],
					"name": "transferTokens",
					"outputs": [],
					"stateMutability": "nonpayable",
					"type": "function"
				}
			],
			"devdoc": {
				"kind": "dev",
				"methods": {
					"onERC721Received(address,address,uint256,bytes)": {
						"details": "See {IERC721Receiver-onERC721Received}. Always returns `IERC721Receiver.onERC721Received.selector`."
					},
					"owner()": {
						"details": "Returns the address of the current owner."
					},
					"renounceOwnership()": {
						"details": "Leaves the contract without owner. It will not be possible to call `onlyOwner` functions anymore. Can only be called by the current owner. NOTE: Renouncing ownership will leave the contract without an owner, thereby removing any functionality that is only available to the owner."
					},
					"supportsInterface(bytes4)": {
						"details": "See {IERC165-supportsInterface}."
					},
					"transferOwnership(address)": {
						"details": "Transfers ownership of the contract to a new account (`newOwner`). Can only be called by the current owner."
					}
				},
				"version": 1
			},
			"evm": {
				"assembly": "    /* \"contracts/plugins/StaterTransfers.sol\":430:2317  contract StaterTransfers is Ownable, ERC721Holder, ERC1155Holder {... */\n  mstore(0x40, 0x80)\n  callvalue\n  dup1\n  iszero\n  tag_1\n  jumpi\n  0x00\n  dup1\n  revert\ntag_1:\n  pop\n    /* \"@openzeppelin/contracts/access/Ownable.sol\":921:953  _transferOwnership(_msgSender()) */\n  tag_4\n    /* \"@openzeppelin/contracts/utils/Context.sol\":719:729  msg.sender */\n  caller\n    /* \"@openzeppelin/contracts/access/Ownable.sol\":921:939  _transferOwnership */\n  tag_7\n    /* \"@openzeppelin/contracts/access/Ownable.sol\":921:953  _transferOwnership(_msgSender()) */\n  jump\t// in\ntag_4:\n    /* \"contracts/plugins/StaterTransfers.sol\":430:2317  contract StaterTransfers is Ownable, ERC721Holder, ERC1155Holder {... */\n  jump(tag_8)\n    /* \"@openzeppelin/contracts/access/Ownable.sol\":2270:2457  function _transferOwnership(address newOwner) internal virtual {... */\ntag_7:\n    /* \"@openzeppelin/contracts/access/Ownable.sol\":2343:2359  address oldOwner */\n  0x00\n    /* \"@openzeppelin/contracts/access/Ownable.sol\":2362:2368  _owner */\n  dup1\n  sload\n  sub(shl(0xa0, 0x01), 0x01)\n    /* \"@openzeppelin/contracts/access/Ownable.sol\":2378:2395  _owner = newOwner */\n  dup4\n  dup2\n  and\n  not(sub(shl(0xa0, 0x01), 0x01))\n  dup4\n  and\n  dup2\n  or\n  dup5\n  sstore\n    /* \"@openzeppelin/contracts/access/Ownable.sol\":2410:2450  OwnershipTransferred(oldOwner, newOwner) */\n  mload(0x40)\n    /* \"@openzeppelin/contracts/access/Ownable.sol\":2362:2368  _owner */\n  swap2\n  swap1\n  swap3\n  and\n  swap3\n  dup4\n  swap2\n    /* \"@openzeppelin/contracts/access/Ownable.sol\":2410:2450  OwnershipTransferred(oldOwner, newOwner) */\n  0x8be0079c531659141344cd1fd0a4f28419497f9722a3daafe3b4186f6b6457e0\n  swap2\n    /* \"@openzeppelin/contracts/access/Ownable.sol\":2343:2359  address oldOwner */\n  swap1\n    /* \"@openzeppelin/contracts/access/Ownable.sol\":2410:2450  OwnershipTransferred(oldOwner, newOwner) */\n  log3\n    /* \"@openzeppelin/contracts/access/Ownable.sol\":2333:2457  {... */\n  pop\n    /* \"@openzeppelin/contracts/access/Ownable.sol\":2270:2457  function _transferOwnership(address newOwner) internal virtual {... */\n  pop\n  jump\t// out\n    /* \"contracts/plugins/StaterTransfers.sol\":430:2317  contract StaterTransfers is Ownable, ERC721Holder, ERC1155Holder {... */\ntag_8:\n  dataSize(sub_0)\n  dup1\n  dataOffset(sub_0)\n  0x00\n  codecopy\n  0x00\n  return\nstop\n\nsub_0: assembly {\n        /* \"contracts/plugins/StaterTransfers.sol\":430:2317  contract StaterTransfers is Ownable, ERC721Holder, ERC1155Holder {... */\n      mstore(0x40, 0x80)\n      callvalue\n      dup1\n      iszero\n      tag_1\n      jumpi\n      0x00\n      dup1\n      revert\n    tag_1:\n      pop\n      jumpi(tag_2, lt(calldatasize, 0x04))\n      shr(0xe0, calldataload(0x00))\n      dup1\n      0x01ffc9a7\n      eq\n      tag_3\n      jumpi\n      dup1\n      0x150b7a02\n      eq\n      tag_4\n      jumpi\n      dup1\n      0x2e3f4a5d\n      eq\n      tag_5\n      jumpi\n      dup1\n      0x407299d7\n      eq\n      tag_6\n      jumpi\n      dup1\n      0x715018a6\n      eq\n      tag_7\n      jumpi\n      dup1\n      0x8da5cb5b\n      eq\n      tag_8\n      jumpi\n      dup1\n      0xbc197c81\n      eq\n      tag_9\n      jumpi\n      dup1\n      0xf23a6e61\n      eq\n      tag_10\n      jumpi\n      dup1\n      0xf2fde38b\n      eq\n      tag_11\n      jumpi\n    tag_2:\n      0x00\n      dup1\n      revert\n        /* \"@openzeppelin/contracts/token/ERC1155/utils/ERC1155Receiver.sol\":387:608  function supportsInterface(bytes4 interfaceId) public view virtual override(ERC165, IERC165) returns (bool) {... */\n    tag_3:\n      tag_12\n      tag_13\n      calldatasize\n      0x04\n      tag_14\n      jump\t// in\n    tag_13:\n      tag_15\n      jump\t// in\n    tag_12:\n      mload(0x40)\n        /* \"#utility.yul\":470:484   */\n      swap1\n      iszero\n        /* \"#utility.yul\":463:485   */\n      iszero\n        /* \"#utility.yul\":445:486   */\n      dup2\n      mstore\n        /* \"#utility.yul\":433:435   */\n      0x20\n        /* \"#utility.yul\":418:436   */\n      add\n        /* \"@openzeppelin/contracts/token/ERC1155/utils/ERC1155Receiver.sol\":387:608  function supportsInterface(bytes4 interfaceId) public view virtual override(ERC165, IERC165) returns (bool) {... */\n    tag_16:\n      mload(0x40)\n      dup1\n      swap2\n      sub\n      swap1\n      return\n        /* \"@openzeppelin/contracts/token/ERC721/utils/ERC721Holder.sol\":588:788  function onERC721Received(... */\n    tag_4:\n      tag_18\n      tag_19\n      calldatasize\n      0x04\n      tag_20\n      jump\t// in\n    tag_19:\n      shl(0xe1, 0x0a85bd01)\n      swap5\n      swap4\n      pop\n      pop\n      pop\n      pop\n      jump\n    tag_18:\n      mload(0x40)\n      not(sub(shl(0xe0, 0x01), 0x01))\n        /* \"#utility.yul\":2412:2445   */\n      swap1\n      swap2\n      and\n        /* \"#utility.yul\":2394:2446   */\n      dup2\n      mstore\n        /* \"#utility.yul\":2382:2384   */\n      0x20\n        /* \"#utility.yul\":2367:2385   */\n      add\n        /* \"@openzeppelin/contracts/token/ERC721/utils/ERC721Holder.sol\":588:788  function onERC721Received(... */\n      tag_16\n        /* \"#utility.yul\":2250:2452   */\n      jump\n        /* \"contracts/plugins/StaterTransfers.sol\":625:1330  function transferTokens(... */\n    tag_5:\n      tag_24\n      tag_25\n      calldatasize\n      0x04\n      tag_26\n      jump\t// in\n    tag_25:\n      tag_27\n      jump\t// in\n    tag_24:\n      stop\n        /* \"contracts/plugins/StaterTransfers.sol\":1427:2314  function transferItems(... */\n    tag_6:\n      tag_24\n      tag_29\n      calldatasize\n      0x04\n      tag_30\n      jump\t// in\n    tag_29:\n      tag_31\n      jump\t// in\n        /* \"@openzeppelin/contracts/access/Ownable.sol\":1668:1769  function renounceOwnership() public virtual onlyOwner {... */\n    tag_7:\n      tag_24\n      tag_33\n      jump\t// in\n        /* \"@openzeppelin/contracts/access/Ownable.sol\":1036:1121  function owner() public view virtual returns (address) {... */\n    tag_8:\n      tag_34\n      tag_35\n      jump\t// in\n    tag_34:\n      mload(0x40)\n      sub(shl(0xa0, 0x01), 0x01)\n        /* \"#utility.yul\":6714:6746   */\n      swap1\n      swap2\n      and\n        /* \"#utility.yul\":6696:6747   */\n      dup2\n      mstore\n        /* \"#utility.yul\":6684:6686   */\n      0x20\n        /* \"#utility.yul\":6669:6687   */\n      add\n        /* \"@openzeppelin/contracts/access/Ownable.sol\":1036:1121  function owner() public view virtual returns (address) {... */\n      tag_16\n        /* \"#utility.yul\":6550:6753   */\n      jump\n        /* \"@openzeppelin/contracts/token/ERC1155/utils/ERC1155Holder.sol\":724:971  function onERC1155BatchReceived(... */\n    tag_9:\n      tag_18\n      tag_39\n      calldatasize\n      0x04\n      tag_40\n      jump\t// in\n    tag_39:\n      shl(0xe0, 0xbc197c81)\n      swap6\n      swap5\n      pop\n      pop\n      pop\n      pop\n      pop\n      jump\n        /* \"@openzeppelin/contracts/token/ERC1155/utils/ERC1155Holder.sol\":499:718  function onERC1155Received(... */\n    tag_10:\n      tag_18\n      tag_44\n      calldatasize\n      0x04\n      tag_45\n      jump\t// in\n    tag_44:\n      shl(0xe0, 0xf23a6e61)\n      swap6\n      swap5\n      pop\n      pop\n      pop\n      pop\n      pop\n      jump\n        /* \"@openzeppelin/contracts/access/Ownable.sol\":1918:2116  function transferOwnership(address newOwner) public virtual onlyOwner {... */\n    tag_11:\n      tag_24\n      tag_49\n      calldatasize\n      0x04\n      tag_50\n      jump\t// in\n    tag_49:\n      tag_51\n      jump\t// in\n        /* \"@openzeppelin/contracts/token/ERC1155/utils/ERC1155Receiver.sol\":387:608  function supportsInterface(bytes4 interfaceId) public view virtual override(ERC165, IERC165) returns (bool) {... */\n    tag_15:\n        /* \"@openzeppelin/contracts/token/ERC1155/utils/ERC1155Receiver.sol\":489:493  bool */\n      0x00\n      not(sub(shl(0xe0, 0x01), 0x01))\n        /* \"@openzeppelin/contracts/token/ERC1155/utils/ERC1155Receiver.sol\":512:561  interfaceId == type(IERC1155Receiver).interfaceId */\n      dup3\n      and\n      shl(0xe5, 0x02711897)\n      eq\n      dup1\n        /* \"@openzeppelin/contracts/token/ERC1155/utils/ERC1155Receiver.sol\":512:601  interfaceId == type(IERC1155Receiver).interfaceId || super.supportsInterface(interfaceId) */\n      tag_54\n      jumpi\n      pop\n      shl(0xe0, 0x01ffc9a7)\n      not(sub(shl(0xe0, 0x01), 0x01))\n        /* \"@openzeppelin/contracts/utils/introspection/ERC165.sol\":937:977  interfaceId == type(IERC165).interfaceId */\n      dup4\n      and\n      eq\n        /* \"@openzeppelin/contracts/token/ERC1155/utils/ERC1155Receiver.sol\":565:601  super.supportsInterface(interfaceId) */\n    tag_54:\n        /* \"@openzeppelin/contracts/token/ERC1155/utils/ERC1155Receiver.sol\":505:601  return interfaceId == type(IERC1155Receiver).interfaceId || super.supportsInterface(interfaceId) */\n      swap3\n        /* \"@openzeppelin/contracts/token/ERC1155/utils/ERC1155Receiver.sol\":387:608  function supportsInterface(bytes4 interfaceId) public view virtual override(ERC165, IERC165) returns (bool) {... */\n      swap2\n      pop\n      pop\n      jump\t// out\n        /* \"contracts/plugins/StaterTransfers.sol\":625:1330  function transferTokens(... */\n    tag_27:\n      sub(shl(0xa0, 0x01), 0x01)\n        /* \"contracts/plugins/StaterTransfers.sol\":795:817  currency != address(0) */\n      dup4\n      and\n      iszero\n        /* \"contracts/plugins/StaterTransfers.sol\":790:1324  if ( currency != address(0) ){... */\n      tag_58\n      jumpi\n        /* \"contracts/plugins/StaterTransfers.sol\":839:939  IERC20(currency).transferFrom(... */\n      mload(0x40)\n      shl(0xe0, 0x23b872dd)\n      dup2\n      mstore\n      sub(shl(0xa0, 0x01), 0x01)\n        /* \"contracts/plugins/StaterTransfers.sol\":839:868  IERC20(currency).transferFrom */\n      dup5\n      and\n      swap1\n      0x23b872dd\n      swap1\n        /* \"contracts/plugins/StaterTransfers.sol\":839:939  IERC20(currency).transferFrom(... */\n      tag_59\n      swap1\n        /* \"contracts/plugins/StaterTransfers.sol\":884:888  from */\n      dup9\n      swap1\n        /* \"contracts/plugins/StaterTransfers.sol\":904:906  to */\n      dup9\n      swap1\n        /* \"contracts/plugins/StaterTransfers.sol\":923:927  qty1 */\n      dup8\n      swap1\n        /* \"contracts/plugins/StaterTransfers.sol\":839:939  IERC20(currency).transferFrom(... */\n      0x04\n      add\n      tag_60\n      jump\t// in\n    tag_59:\n      0x20\n      mload(0x40)\n      dup1\n      dup4\n      sub\n      dup2\n      0x00\n      dup8\n      gas\n      call\n      iszero\n      dup1\n      iszero\n      tag_62\n      jumpi\n      returndatasize\n      0x00\n      dup1\n      returndatacopy\n      revert(0x00, returndatasize)\n    tag_62:\n      pop\n      pop\n      pop\n      pop\n      mload(0x40)\n      returndatasize\n      not(0x1f)\n      0x1f\n      dup3\n      add\n      and\n      dup3\n      add\n      dup1\n      0x40\n      mstore\n      pop\n      dup2\n      add\n      swap1\n      tag_63\n      swap2\n      swap1\n      tag_64\n      jump\t// in\n    tag_63:\n        /* \"contracts/plugins/StaterTransfers.sol\":831:981  require(IERC20(currency).transferFrom(... */\n      tag_65\n      jumpi\n      mload(0x40)\n      shl(0xe5, 0x461bcd)\n      dup2\n      mstore\n        /* \"#utility.yul\":9697:9699   */\n      0x20\n        /* \"contracts/plugins/StaterTransfers.sol\":831:981  require(IERC20(currency).transferFrom(... */\n      0x04\n      dup3\n      add\n        /* \"#utility.yul\":9679:9700   */\n      mstore\n        /* \"#utility.yul\":9736:9738   */\n      0x25\n        /* \"#utility.yul\":9716:9734   */\n      0x24\n      dup3\n      add\n        /* \"#utility.yul\":9709:9739   */\n      mstore\n        /* \"#utility.yul\":9775:9809   */\n      0x5472616e73666572206f6620746f6b656e7320746f2072656365697665722066\n        /* \"#utility.yul\":9755:9773   */\n      0x44\n      dup3\n      add\n        /* \"#utility.yul\":9748:9810   */\n      mstore\n      shl(0xda, 0x185a5b1959)\n        /* \"#utility.yul\":9826:9844   */\n      0x64\n      dup3\n      add\n        /* \"#utility.yul\":9819:9854   */\n      mstore\n        /* \"#utility.yul\":9871:9890   */\n      0x84\n      add\n        /* \"contracts/plugins/StaterTransfers.sol\":831:981  require(IERC20(currency).transferFrom(... */\n    tag_66:\n      mload(0x40)\n      dup1\n      swap2\n      sub\n      swap1\n      revert\n    tag_65:\n        /* \"contracts/plugins/StaterTransfers.sol\":1008:1016  currency */\n      dup3\n      sub(shl(0xa0, 0x01), 0x01)\n        /* \"contracts/plugins/StaterTransfers.sol\":1001:1030  IERC20(currency).transferFrom */\n      and\n      0x23b872dd\n        /* \"contracts/plugins/StaterTransfers.sol\":1046:1050  from */\n      dup7\n        /* \"contracts/plugins/StaterTransfers.sol\":1066:1073  owner() */\n      tag_68\n        /* \"contracts/plugins/StaterTransfers.sol\":1066:1071  owner */\n      tag_35\n        /* \"contracts/plugins/StaterTransfers.sol\":1066:1073  owner() */\n      jump\t// in\n    tag_68:\n        /* \"contracts/plugins/StaterTransfers.sol\":1090:1094  qty2 */\n      dup5\n        /* \"contracts/plugins/StaterTransfers.sol\":1001:1106  IERC20(currency).transferFrom(... */\n      mload(0x40)\n      dup5\n      0xffffffff\n      and\n      0xe0\n      shl\n      dup2\n      mstore\n      0x04\n      add\n      tag_69\n      swap4\n      swap3\n      swap2\n      swap1\n      tag_60\n      jump\t// in\n    tag_69:\n      0x20\n      mload(0x40)\n      dup1\n      dup4\n      sub\n      dup2\n      0x00\n      dup8\n      gas\n      call\n      iszero\n      dup1\n      iszero\n      tag_72\n      jumpi\n      returndatasize\n      0x00\n      dup1\n      returndatacopy\n      revert(0x00, returndatasize)\n    tag_72:\n      pop\n      pop\n      pop\n      pop\n      mload(0x40)\n      returndatasize\n      not(0x1f)\n      0x1f\n      dup3\n      add\n      and\n      dup3\n      add\n      dup1\n      0x40\n      mstore\n      pop\n      dup2\n      add\n      swap1\n      tag_73\n      swap2\n      swap1\n      tag_64\n      jump\t// in\n    tag_73:\n        /* \"contracts/plugins/StaterTransfers.sol\":993:1146  require(IERC20(currency).transferFrom(... */\n      tag_74\n      jumpi\n      mload(0x40)\n      shl(0xe5, 0x461bcd)\n      dup2\n      mstore\n        /* \"#utility.yul\":10483:10485   */\n      0x20\n        /* \"contracts/plugins/StaterTransfers.sol\":993:1146  require(IERC20(currency).transferFrom(... */\n      0x04\n      dup3\n      add\n        /* \"#utility.yul\":10465:10486   */\n      mstore\n        /* \"#utility.yul\":10522:10524   */\n      0x23\n        /* \"#utility.yul\":10502:10520   */\n      0x24\n      dup3\n      add\n        /* \"#utility.yul\":10495:10525   */\n      mstore\n        /* \"#utility.yul\":10561:10595   */\n      0x5472616e73666572206f6620746f6b656e7320746f2053746174657220666169\n        /* \"#utility.yul\":10541:10559   */\n      0x44\n      dup3\n      add\n        /* \"#utility.yul\":10534:10596   */\n      mstore\n      shl(0xea, 0x1b1959)\n        /* \"#utility.yul\":10612:10630   */\n      0x64\n      dup3\n      add\n        /* \"#utility.yul\":10605:10638   */\n      mstore\n        /* \"#utility.yul\":10655:10674   */\n      0x84\n      add\n        /* \"contracts/plugins/StaterTransfers.sol\":993:1146  require(IERC20(currency).transferFrom(... */\n      tag_66\n        /* \"#utility.yul\":10281:10680   */\n      jump\n        /* \"contracts/plugins/StaterTransfers.sol\":993:1146  require(IERC20(currency).transferFrom(... */\n    tag_74:\n        /* \"contracts/plugins/StaterTransfers.sol\":790:1324  if ( currency != address(0) ){... */\n      jump(tag_84)\n    tag_58:\n        /* \"contracts/plugins/StaterTransfers.sol\":1179:1192  to.send(qty1) */\n      mload(0x40)\n      sub(shl(0xa0, 0x01), 0x01)\n        /* \"contracts/plugins/StaterTransfers.sol\":1179:1186  to.send */\n      dup6\n      and\n      swap1\n        /* \"contracts/plugins/StaterTransfers.sol\":1179:1192  to.send(qty1) */\n      dup4\n      iszero\n      0x08fc\n      mul\n      swap1\n        /* \"contracts/plugins/StaterTransfers.sol\":1187:1191  qty1 */\n      dup5\n      swap1\n        /* \"contracts/plugins/StaterTransfers.sol\":1179:1192  to.send(qty1) */\n      0x00\n      dup2\n      dup2\n      dup2\n        /* \"contracts/plugins/StaterTransfers.sol\":1187:1191  qty1 */\n      dup6\n        /* \"contracts/plugins/StaterTransfers.sol\":1179:1186  to.send */\n      dup9\n        /* \"contracts/plugins/StaterTransfers.sol\":1179:1192  to.send(qty1) */\n      dup9\n      call\n      swap4\n      pop\n      pop\n      pop\n      pop\n        /* \"contracts/plugins/StaterTransfers.sol\":1171:1231  require(to.send(qty1), \"Transfer of ETH to receiver failed\") */\n      tag_79\n      jumpi\n      mload(0x40)\n      shl(0xe5, 0x461bcd)\n      dup2\n      mstore\n        /* \"#utility.yul\":10887:10889   */\n      0x20\n        /* \"contracts/plugins/StaterTransfers.sol\":1171:1231  require(to.send(qty1), \"Transfer of ETH to receiver failed\") */\n      0x04\n      dup3\n      add\n        /* \"#utility.yul\":10869:10890   */\n      mstore\n        /* \"#utility.yul\":10926:10928   */\n      0x22\n        /* \"#utility.yul\":10906:10924   */\n      0x24\n      dup3\n      add\n        /* \"#utility.yul\":10899:10929   */\n      mstore\n        /* \"#utility.yul\":10965:10999   */\n      0x5472616e73666572206f662045544820746f207265636569766572206661696c\n        /* \"#utility.yul\":10945:10963   */\n      0x44\n      dup3\n      add\n        /* \"#utility.yul\":10938:11000   */\n      mstore\n      shl(0xf2, 0x1959)\n        /* \"#utility.yul\":11016:11034   */\n      0x64\n      dup3\n      add\n        /* \"#utility.yul\":11009:11041   */\n      mstore\n        /* \"#utility.yul\":11058:11077   */\n      0x84\n      add\n        /* \"contracts/plugins/StaterTransfers.sol\":1171:1231  require(to.send(qty1), \"Transfer of ETH to receiver failed\") */\n      tag_66\n        /* \"#utility.yul\":10685:11083   */\n      jump\n        /* \"contracts/plugins/StaterTransfers.sol\":1171:1231  require(to.send(qty1), \"Transfer of ETH to receiver failed\") */\n    tag_79:\n        /* \"contracts/plugins/StaterTransfers.sol\":1259:1266  owner() */\n      tag_82\n        /* \"contracts/plugins/StaterTransfers.sol\":1259:1264  owner */\n      tag_35\n        /* \"contracts/plugins/StaterTransfers.sol\":1259:1266  owner() */\n      jump\t// in\n    tag_82:\n      sub(shl(0xa0, 0x01), 0x01)\n        /* \"contracts/plugins/StaterTransfers.sol\":1251:1272  payable(owner()).send */\n      and\n        /* \"contracts/plugins/StaterTransfers.sol\":1251:1278  payable(owner()).send(qty2) */\n      0x08fc\n        /* \"contracts/plugins/StaterTransfers.sol\":1273:1277  qty2 */\n      dup3\n        /* \"contracts/plugins/StaterTransfers.sol\":1251:1278  payable(owner()).send(qty2) */\n      swap1\n      dup2\n      iszero\n      mul\n      swap1\n      mload(0x40)\n      0x00\n      mload(0x40)\n      dup1\n      dup4\n      sub\n      dup2\n      dup6\n      dup9\n      dup9\n      call\n      swap4\n      pop\n      pop\n      pop\n      pop\n        /* \"contracts/plugins/StaterTransfers.sol\":1243:1315  require(payable(owner()).send(qty2), \"Transfer of ETH to Stater failed\") */\n      tag_84\n      jumpi\n      mload(0x40)\n      shl(0xe5, 0x461bcd)\n      dup2\n      mstore\n        /* \"#utility.yul\":11290:11292   */\n      0x20\n        /* \"contracts/plugins/StaterTransfers.sol\":1243:1315  require(payable(owner()).send(qty2), \"Transfer of ETH to Stater failed\") */\n      0x04\n      dup3\n      add\n        /* \"#utility.yul\":11272:11293   */\n      dup2\n      swap1\n      mstore\n        /* \"#utility.yul\":11309:11327   */\n      0x24\n      dup3\n      add\n        /* \"#utility.yul\":11302:11332   */\n      mstore\n        /* \"#utility.yul\":11368:11402   */\n      0x5472616e73666572206f662045544820746f20537461746572206661696c6564\n        /* \"#utility.yul\":11348:11366   */\n      0x44\n      dup3\n      add\n        /* \"#utility.yul\":11341:11403   */\n      mstore\n        /* \"#utility.yul\":11420:11438   */\n      0x64\n      add\n        /* \"contracts/plugins/StaterTransfers.sol\":1243:1315  require(payable(owner()).send(qty2), \"Transfer of ETH to Stater failed\") */\n      tag_66\n        /* \"#utility.yul\":11088:11444   */\n      jump\n        /* \"contracts/plugins/StaterTransfers.sol\":1243:1315  require(payable(owner()).send(qty2), \"Transfer of ETH to Stater failed\") */\n    tag_84:\n        /* \"contracts/plugins/StaterTransfers.sol\":625:1330  function transferTokens(... */\n      pop\n      pop\n      pop\n      pop\n      pop\n      jump\t// out\n        /* \"contracts/plugins/StaterTransfers.sol\":1427:2314  function transferItems(... */\n    tag_31:\n        /* \"contracts/plugins/StaterTransfers.sol\":1661:1683  nftAddressArray.length */\n      dup3\n      mload\n        /* \"contracts/plugins/StaterTransfers.sol\":1711:1733  nftTokenIdArray.length */\n      dup3\n      mload\n        /* \"contracts/plugins/StaterTransfers.sol\":1701:1733  length == nftTokenIdArray.length */\n      dup2\n      eq\n        /* \"contracts/plugins/StaterTransfers.sol\":1701:1771  length == nftTokenIdArray.length && nftTokenTypeArray.length == length */\n      dup1\n      iszero\n      tag_88\n      jumpi\n      pop\n        /* \"contracts/plugins/StaterTransfers.sol\":1765:1771  length */\n      dup1\n        /* \"contracts/plugins/StaterTransfers.sol\":1737:1754  nftTokenTypeArray */\n      dup3\n        /* \"contracts/plugins/StaterTransfers.sol\":1737:1761  nftTokenTypeArray.length */\n      mload\n        /* \"contracts/plugins/StaterTransfers.sol\":1737:1771  nftTokenTypeArray.length == length */\n      eq\n        /* \"contracts/plugins/StaterTransfers.sol\":1701:1771  length == nftTokenIdArray.length && nftTokenTypeArray.length == length */\n    tag_88:\n        /* \"contracts/plugins/StaterTransfers.sol\":1693:1808  require(length == nftTokenIdArray.length && nftTokenTypeArray.length == length, \"Token infos provided are invalid\") */\n      tag_89\n      jumpi\n      mload(0x40)\n      shl(0xe5, 0x461bcd)\n      dup2\n      mstore\n        /* \"#utility.yul\":11651:11653   */\n      0x20\n        /* \"contracts/plugins/StaterTransfers.sol\":1693:1808  require(length == nftTokenIdArray.length && nftTokenTypeArray.length == length, \"Token infos provided are invalid\") */\n      0x04\n      dup3\n      add\n        /* \"#utility.yul\":11633:11654   */\n      dup2\n      swap1\n      mstore\n        /* \"#utility.yul\":11670:11688   */\n      0x24\n      dup3\n      add\n        /* \"#utility.yul\":11663:11693   */\n      mstore\n        /* \"#utility.yul\":11729:11763   */\n      0x546f6b656e20696e666f732070726f76696465642061726520696e76616c6964\n        /* \"#utility.yul\":11709:11727   */\n      0x44\n      dup3\n      add\n        /* \"#utility.yul\":11702:11764   */\n      mstore\n        /* \"#utility.yul\":11781:11799   */\n      0x64\n      add\n        /* \"contracts/plugins/StaterTransfers.sol\":1693:1808  require(length == nftTokenIdArray.length && nftTokenTypeArray.length == length, \"Token infos provided are invalid\") */\n      tag_66\n        /* \"#utility.yul\":11449:11805   */\n      jump\n        /* \"contracts/plugins/StaterTransfers.sol\":1693:1808  require(length == nftTokenIdArray.length && nftTokenTypeArray.length == length, \"Token infos provided are invalid\") */\n    tag_89:\n        /* \"contracts/plugins/StaterTransfers.sol\":1822:1831  uint256 i */\n      0x00\n        /* \"contracts/plugins/StaterTransfers.sol\":1818:2307  for(uint256 i = 0; i < length; ++i) ... */\n    tag_92:\n        /* \"contracts/plugins/StaterTransfers.sol\":1841:1847  length */\n      dup2\n        /* \"contracts/plugins/StaterTransfers.sol\":1837:1838  i */\n      dup2\n        /* \"contracts/plugins/StaterTransfers.sol\":1837:1847  i < length */\n      lt\n        /* \"contracts/plugins/StaterTransfers.sol\":1818:2307  for(uint256 i = 0; i < length; ++i) ... */\n      iszero\n      tag_93\n      jumpi\n        /* \"contracts/plugins/StaterTransfers.sol\":1872:1889  nftTokenTypeArray */\n      dup3\n        /* \"contracts/plugins/StaterTransfers.sol\":1890:1891  i */\n      dup2\n        /* \"contracts/plugins/StaterTransfers.sol\":1872:1892  nftTokenTypeArray[i] */\n      dup2\n      mload\n      dup2\n      lt\n      tag_96\n      jumpi\n      tag_96\n      tag_97\n      jump\t// in\n    tag_96:\n      0x20\n      mul\n      0x20\n      add\n      add\n      mload\n        /* \"contracts/plugins/StaterTransfers.sol\":1872:1897  nftTokenTypeArray[i] == 0 */\n      0xff\n      and\n        /* \"contracts/plugins/StaterTransfers.sol\":1896:1897  0 */\n      0x00\n        /* \"contracts/plugins/StaterTransfers.sol\":1872:1897  nftTokenTypeArray[i] == 0 */\n      sub\n        /* \"contracts/plugins/StaterTransfers.sol\":1867:2307  if ( nftTokenTypeArray[i] == 0 )... */\n      tag_98\n      jumpi\n        /* \"contracts/plugins/StaterTransfers.sol\":1924:1939  nftAddressArray */\n      dup5\n        /* \"contracts/plugins/StaterTransfers.sol\":1940:1941  i */\n      dup2\n        /* \"contracts/plugins/StaterTransfers.sol\":1924:1942  nftAddressArray[i] */\n      dup2\n      mload\n      dup2\n      lt\n      tag_100\n      jumpi\n      tag_100\n      tag_97\n      jump\t// in\n    tag_100:\n      0x20\n      mul\n      0x20\n      add\n      add\n      mload\n      sub(shl(0xa0, 0x01), 0x01)\n        /* \"contracts/plugins/StaterTransfers.sol\":1916:1960  IERC721(nftAddressArray[i]).safeTransferFrom */\n      and\n      0x42842e0e\n        /* \"contracts/plugins/StaterTransfers.sol\":1982:1986  from */\n      dup9\n        /* \"contracts/plugins/StaterTransfers.sol\":2008:2010  to */\n      dup9\n        /* \"contracts/plugins/StaterTransfers.sol\":2032:2047  nftTokenIdArray */\n      dup8\n        /* \"contracts/plugins/StaterTransfers.sol\":2048:2049  i */\n      dup6\n        /* \"contracts/plugins/StaterTransfers.sol\":2032:2050  nftTokenIdArray[i] */\n      dup2\n      mload\n      dup2\n      lt\n      tag_102\n      jumpi\n      tag_102\n      tag_97\n      jump\t// in\n    tag_102:\n      0x20\n      mul\n      0x20\n      add\n      add\n      mload\n        /* \"contracts/plugins/StaterTransfers.sol\":1916:2068  IERC721(nftAddressArray[i]).safeTransferFrom(... */\n      mload(0x40)\n      dup5\n      0xffffffff\n      and\n      0xe0\n      shl\n      dup2\n      mstore\n      0x04\n      add\n      tag_103\n      swap4\n      swap3\n      swap2\n      swap1\n      tag_60\n      jump\t// in\n    tag_103:\n      0x00\n      mload(0x40)\n      dup1\n      dup4\n      sub\n      dup2\n      0x00\n      dup8\n      dup1\n      extcodesize\n      iszero\n      dup1\n      iszero\n      tag_104\n      jumpi\n      0x00\n      dup1\n      revert\n    tag_104:\n      pop\n      gas\n      call\n      iszero\n      dup1\n      iszero\n      tag_106\n      jumpi\n      returndatasize\n      0x00\n      dup1\n      returndatacopy\n      revert(0x00, returndatasize)\n    tag_106:\n      pop\n      pop\n      pop\n      pop\n        /* \"contracts/plugins/StaterTransfers.sol\":1867:2307  if ( nftTokenTypeArray[i] == 0 )... */\n      jump(tag_107)\n    tag_98:\n        /* \"contracts/plugins/StaterTransfers.sol\":2112:2127  nftAddressArray */\n      dup5\n        /* \"contracts/plugins/StaterTransfers.sol\":2128:2129  i */\n      dup2\n        /* \"contracts/plugins/StaterTransfers.sol\":2112:2130  nftAddressArray[i] */\n      dup2\n      mload\n      dup2\n      lt\n      tag_109\n      jumpi\n      tag_109\n      tag_97\n      jump\t// in\n    tag_109:\n      0x20\n      mul\n      0x20\n      add\n      add\n      mload\n      sub(shl(0xa0, 0x01), 0x01)\n        /* \"contracts/plugins/StaterTransfers.sol\":2103:2148  IERC1155(nftAddressArray[i]).safeTransferFrom */\n      and\n      0xf242432a\n        /* \"contracts/plugins/StaterTransfers.sol\":2170:2174  from */\n      dup9\n        /* \"contracts/plugins/StaterTransfers.sol\":2196:2198  to */\n      dup9\n        /* \"contracts/plugins/StaterTransfers.sol\":2220:2235  nftTokenIdArray */\n      dup8\n        /* \"contracts/plugins/StaterTransfers.sol\":2236:2237  i */\n      dup6\n        /* \"contracts/plugins/StaterTransfers.sol\":2220:2238  nftTokenIdArray[i] */\n      dup2\n      mload\n      dup2\n      lt\n      tag_111\n      jumpi\n      tag_111\n      tag_97\n      jump\t// in\n    tag_111:\n      0x20\n      mul\n      0x20\n      add\n      add\n      mload\n        /* \"contracts/plugins/StaterTransfers.sol\":2260:2261  1 */\n      0x01\n        /* \"contracts/plugins/StaterTransfers.sol\":2103:2307  IERC1155(nftAddressArray[i]).safeTransferFrom(... */\n      mload(0x40)\n      dup6\n      0xffffffff\n      and\n      0xe0\n      shl\n      dup2\n      mstore\n      0x04\n      add\n      tag_112\n      swap5\n      swap4\n      swap3\n      swap2\n      swap1\n      sub(shl(0xa0, 0x01), 0x01)\n        /* \"#utility.yul\":12301:12316   */\n      swap5\n      dup6\n      and\n        /* \"#utility.yul\":12283:12317   */\n      dup2\n      mstore\n        /* \"#utility.yul\":12353:12368   */\n      swap3\n      swap1\n      swap4\n      and\n        /* \"#utility.yul\":12348:12350   */\n      0x20\n        /* \"#utility.yul\":12333:12351   */\n      dup4\n      add\n        /* \"#utility.yul\":12326:12369   */\n      mstore\n        /* \"#utility.yul\":12400:12402   */\n      0x40\n        /* \"#utility.yul\":12385:12403   */\n      dup3\n      add\n        /* \"#utility.yul\":12378:12412   */\n      mstore\n        /* \"#utility.yul\":12443:12445   */\n      0x60\n        /* \"#utility.yul\":12428:12446   */\n      dup2\n      add\n        /* \"#utility.yul\":12421:12455   */\n      swap2\n      swap1\n      swap2\n      mstore\n        /* \"#utility.yul\":12263:12266   */\n      0xa0\n        /* \"#utility.yul\":12486:12489   */\n      0x80\n        /* \"#utility.yul\":12471:12490   */\n      dup3\n      add\n        /* \"#utility.yul\":12464:12496   */\n      dup2\n      swap1\n      mstore\n        /* \"#utility.yul\":12533:12534   */\n      0x04\n        /* \"#utility.yul\":12512:12531   */\n      swap1\n      dup3\n      add\n        /* \"#utility.yul\":12505:12535   */\n      mstore\n      shl(0xe4, 0x03078303)\n        /* \"#utility.yul\":12566:12569   */\n      0xc0\n        /* \"#utility.yul\":12551:12570   */\n      dup3\n      add\n        /* \"#utility.yul\":12544:12579   */\n      mstore\n        /* \"#utility.yul\":12611:12614   */\n      0xe0\n        /* \"#utility.yul\":12596:12615   */\n      add\n      swap1\n        /* \"#utility.yul\":11942:12621   */\n      jump\n        /* \"contracts/plugins/StaterTransfers.sol\":2103:2307  IERC1155(nftAddressArray[i]).safeTransferFrom(... */\n    tag_112:\n      0x00\n      mload(0x40)\n      dup1\n      dup4\n      sub\n      dup2\n      0x00\n      dup8\n      dup1\n      extcodesize\n      iszero\n      dup1\n      iszero\n      tag_114\n      jumpi\n      0x00\n      dup1\n      revert\n    tag_114:\n      pop\n      gas\n      call\n      iszero\n      dup1\n      iszero\n      tag_116\n      jumpi\n      returndatasize\n      0x00\n      dup1\n      returndatacopy\n      revert(0x00, returndatasize)\n    tag_116:\n      pop\n      pop\n      pop\n      pop\n        /* \"contracts/plugins/StaterTransfers.sol\":1867:2307  if ( nftTokenTypeArray[i] == 0 )... */\n    tag_107:\n        /* \"contracts/plugins/StaterTransfers.sol\":1849:1852  ++i */\n      tag_117\n      dup2\n      tag_118\n      jump\t// in\n    tag_117:\n      swap1\n      pop\n        /* \"contracts/plugins/StaterTransfers.sol\":1818:2307  for(uint256 i = 0; i < length; ++i) ... */\n      jump(tag_92)\n    tag_93:\n      pop\n        /* \"contracts/plugins/StaterTransfers.sol\":1634:2314  {... */\n      pop\n        /* \"contracts/plugins/StaterTransfers.sol\":1427:2314  function transferItems(... */\n      pop\n      pop\n      pop\n      pop\n      pop\n      jump\t// out\n        /* \"@openzeppelin/contracts/access/Ownable.sol\":1668:1769  function renounceOwnership() public virtual onlyOwner {... */\n    tag_33:\n        /* \"@openzeppelin/contracts/utils/Context.sol\":719:729  msg.sender */\n      caller\n        /* \"@openzeppelin/contracts/access/Ownable.sol\":1248:1255  owner() */\n      tag_122\n        /* \"@openzeppelin/contracts/access/Ownable.sol\":1248:1253  owner */\n      tag_35\n        /* \"@openzeppelin/contracts/access/Ownable.sol\":1248:1255  owner() */\n      jump\t// in\n    tag_122:\n      sub(shl(0xa0, 0x01), 0x01)\n        /* \"@openzeppelin/contracts/access/Ownable.sol\":1248:1271  owner() == _msgSender() */\n      and\n      eq\n        /* \"@openzeppelin/contracts/access/Ownable.sol\":1240:1308  require(owner() == _msgSender(), \"Ownable: caller is not the owner\") */\n      tag_123\n      jumpi\n      mload(0x40)\n      shl(0xe5, 0x461bcd)\n      dup2\n      mstore\n      0x04\n      add\n      tag_66\n      swap1\n      tag_125\n      jump\t// in\n    tag_123:\n        /* \"@openzeppelin/contracts/access/Ownable.sol\":1732:1762  _transferOwnership(address(0)) */\n      tag_127\n        /* \"@openzeppelin/contracts/access/Ownable.sol\":1759:1760  0 */\n      0x00\n        /* \"@openzeppelin/contracts/access/Ownable.sol\":1732:1750  _transferOwnership */\n      tag_128\n        /* \"@openzeppelin/contracts/access/Ownable.sol\":1732:1762  _transferOwnership(address(0)) */\n      jump\t// in\n    tag_127:\n        /* \"@openzeppelin/contracts/access/Ownable.sol\":1668:1769  function renounceOwnership() public virtual onlyOwner {... */\n      jump\t// out\n        /* \"@openzeppelin/contracts/access/Ownable.sol\":1036:1121  function owner() public view virtual returns (address) {... */\n    tag_35:\n        /* \"@openzeppelin/contracts/access/Ownable.sol\":1082:1089  address */\n      0x00\n        /* \"@openzeppelin/contracts/access/Ownable.sol\":1108:1114  _owner */\n      sload\n      sub(shl(0xa0, 0x01), 0x01)\n      and\n      swap1\n        /* \"@openzeppelin/contracts/access/Ownable.sol\":1036:1121  function owner() public view virtual returns (address) {... */\n      jump\t// out\n        /* \"@openzeppelin/contracts/access/Ownable.sol\":1918:2116  function transferOwnership(address newOwner) public virtual onlyOwner {... */\n    tag_51:\n        /* \"@openzeppelin/contracts/utils/Context.sol\":719:729  msg.sender */\n      caller\n        /* \"@openzeppelin/contracts/access/Ownable.sol\":1248:1255  owner() */\n      tag_134\n        /* \"@openzeppelin/contracts/access/Ownable.sol\":1248:1253  owner */\n      tag_35\n        /* \"@openzeppelin/contracts/access/Ownable.sol\":1248:1255  owner() */\n      jump\t// in\n    tag_134:\n      sub(shl(0xa0, 0x01), 0x01)\n        /* \"@openzeppelin/contracts/access/Ownable.sol\":1248:1271  owner() == _msgSender() */\n      and\n      eq\n        /* \"@openzeppelin/contracts/access/Ownable.sol\":1240:1308  require(owner() == _msgSender(), \"Ownable: caller is not the owner\") */\n      tag_135\n      jumpi\n      mload(0x40)\n      shl(0xe5, 0x461bcd)\n      dup2\n      mstore\n      0x04\n      add\n      tag_66\n      swap1\n      tag_125\n      jump\t// in\n    tag_135:\n      sub(shl(0xa0, 0x01), 0x01)\n        /* \"@openzeppelin/contracts/access/Ownable.sol\":2006:2028  newOwner != address(0) */\n      dup2\n      and\n        /* \"@openzeppelin/contracts/access/Ownable.sol\":1998:2071  require(newOwner != address(0), \"Ownable: new owner is the zero address\") */\n      tag_138\n      jumpi\n      mload(0x40)\n      shl(0xe5, 0x461bcd)\n      dup2\n      mstore\n        /* \"#utility.yul\":13426:13428   */\n      0x20\n        /* \"@openzeppelin/contracts/access/Ownable.sol\":1998:2071  require(newOwner != address(0), \"Ownable: new owner is the zero address\") */\n      0x04\n      dup3\n      add\n        /* \"#utility.yul\":13408:13429   */\n      mstore\n        /* \"#utility.yul\":13465:13467   */\n      0x26\n        /* \"#utility.yul\":13445:13463   */\n      0x24\n      dup3\n      add\n        /* \"#utility.yul\":13438:13468   */\n      mstore\n        /* \"#utility.yul\":13504:13538   */\n      0x4f776e61626c653a206e6577206f776e657220697320746865207a65726f2061\n        /* \"#utility.yul\":13484:13502   */\n      0x44\n      dup3\n      add\n        /* \"#utility.yul\":13477:13539   */\n      mstore\n      shl(0xd0, 0x646472657373)\n        /* \"#utility.yul\":13555:13573   */\n      0x64\n      dup3\n      add\n        /* \"#utility.yul\":13548:13584   */\n      mstore\n        /* \"#utility.yul\":13601:13620   */\n      0x84\n      add\n        /* \"@openzeppelin/contracts/access/Ownable.sol\":1998:2071  require(newOwner != address(0), \"Ownable: new owner is the zero address\") */\n      tag_66\n        /* \"#utility.yul\":13224:13626   */\n      jump\n        /* \"@openzeppelin/contracts/access/Ownable.sol\":1998:2071  require(newOwner != address(0), \"Ownable: new owner is the zero address\") */\n    tag_138:\n        /* \"@openzeppelin/contracts/access/Ownable.sol\":2081:2109  _transferOwnership(newOwner) */\n      tag_141\n        /* \"@openzeppelin/contracts/access/Ownable.sol\":2100:2108  newOwner */\n      dup2\n        /* \"@openzeppelin/contracts/access/Ownable.sol\":2081:2099  _transferOwnership */\n      tag_128\n        /* \"@openzeppelin/contracts/access/Ownable.sol\":2081:2109  _transferOwnership(newOwner) */\n      jump\t// in\n    tag_141:\n        /* \"@openzeppelin/contracts/access/Ownable.sol\":1918:2116  function transferOwnership(address newOwner) public virtual onlyOwner {... */\n      pop\n      jump\t// out\n        /* \"@openzeppelin/contracts/access/Ownable.sol\":2270:2457  function _transferOwnership(address newOwner) internal virtual {... */\n    tag_128:\n        /* \"@openzeppelin/contracts/access/Ownable.sol\":2343:2359  address oldOwner */\n      0x00\n        /* \"@openzeppelin/contracts/access/Ownable.sol\":2362:2368  _owner */\n      dup1\n      sload\n      sub(shl(0xa0, 0x01), 0x01)\n        /* \"@openzeppelin/contracts/access/Ownable.sol\":2378:2395  _owner = newOwner */\n      dup4\n      dup2\n      and\n      not(sub(shl(0xa0, 0x01), 0x01))\n      dup4\n      and\n      dup2\n      or\n      dup5\n      sstore\n        /* \"@openzeppelin/contracts/access/Ownable.sol\":2410:2450  OwnershipTransferred(oldOwner, newOwner) */\n      mload(0x40)\n        /* \"@openzeppelin/contracts/access/Ownable.sol\":2362:2368  _owner */\n      swap2\n      swap1\n      swap3\n      and\n      swap3\n      dup4\n      swap2\n        /* \"@openzeppelin/contracts/access/Ownable.sol\":2410:2450  OwnershipTransferred(oldOwner, newOwner) */\n      0x8be0079c531659141344cd1fd0a4f28419497f9722a3daafe3b4186f6b6457e0\n      swap2\n        /* \"@openzeppelin/contracts/access/Ownable.sol\":2343:2359  address oldOwner */\n      swap1\n        /* \"@openzeppelin/contracts/access/Ownable.sol\":2410:2450  OwnershipTransferred(oldOwner, newOwner) */\n      log3\n        /* \"@openzeppelin/contracts/access/Ownable.sol\":2333:2457  {... */\n      pop\n        /* \"@openzeppelin/contracts/access/Ownable.sol\":2270:2457  function _transferOwnership(address newOwner) internal virtual {... */\n      pop\n      jump\t// out\n        /* \"#utility.yul\":14:300   */\n    tag_14:\n        /* \"#utility.yul\":72:78   */\n      0x00\n        /* \"#utility.yul\":125:127   */\n      0x20\n        /* \"#utility.yul\":113:122   */\n      dup3\n        /* \"#utility.yul\":104:111   */\n      dup5\n        /* \"#utility.yul\":100:123   */\n      sub\n        /* \"#utility.yul\":96:128   */\n      slt\n        /* \"#utility.yul\":93:145   */\n      iszero\n      tag_154\n      jumpi\n        /* \"#utility.yul\":141:142   */\n      0x00\n        /* \"#utility.yul\":138:139   */\n      dup1\n        /* \"#utility.yul\":131:143   */\n      revert\n        /* \"#utility.yul\":93:145   */\n    tag_154:\n        /* \"#utility.yul\":167:190   */\n      dup2\n      calldataload\n      not(sub(shl(0xe0, 0x01), 0x01))\n        /* \"#utility.yul\":219:251   */\n      dup2\n      and\n        /* \"#utility.yul\":209:252   */\n      dup2\n      eq\n        /* \"#utility.yul\":199:270   */\n      tag_155\n      jumpi\n        /* \"#utility.yul\":266:267   */\n      0x00\n        /* \"#utility.yul\":263:264   */\n      dup1\n        /* \"#utility.yul\":256:268   */\n      revert\n        /* \"#utility.yul\":199:270   */\n    tag_155:\n        /* \"#utility.yul\":289:294   */\n      swap4\n        /* \"#utility.yul\":14:300   */\n      swap3\n      pop\n      pop\n      pop\n      jump\t// out\n        /* \"#utility.yul\":497:628   */\n    tag_145:\n      sub(shl(0xa0, 0x01), 0x01)\n        /* \"#utility.yul\":572:603   */\n      dup2\n      and\n        /* \"#utility.yul\":562:604   */\n      dup2\n      eq\n        /* \"#utility.yul\":552:622   */\n      tag_141\n      jumpi\n        /* \"#utility.yul\":618:619   */\n      0x00\n        /* \"#utility.yul\":615:616   */\n      dup1\n        /* \"#utility.yul\":608:620   */\n      revert\n        /* \"#utility.yul\":633:760   */\n    tag_146:\n        /* \"#utility.yul\":694:704   */\n      0x4e487b71\n        /* \"#utility.yul\":689:692   */\n      0xe0\n        /* \"#utility.yul\":685:705   */\n      shl\n        /* \"#utility.yul\":682:683   */\n      0x00\n        /* \"#utility.yul\":675:706   */\n      mstore\n        /* \"#utility.yul\":725:729   */\n      0x41\n        /* \"#utility.yul\":722:723   */\n      0x04\n        /* \"#utility.yul\":715:730   */\n      mstore\n        /* \"#utility.yul\":749:753   */\n      0x24\n        /* \"#utility.yul\":746:747   */\n      0x00\n        /* \"#utility.yul\":739:754   */\n      revert\n        /* \"#utility.yul\":765:1040   */\n    tag_147:\n        /* \"#utility.yul\":836:838   */\n      0x40\n        /* \"#utility.yul\":830:839   */\n      mload\n        /* \"#utility.yul\":901:903   */\n      0x1f\n        /* \"#utility.yul\":882:895   */\n      dup3\n      add\n      not(0x1f)\n        /* \"#utility.yul\":878:905   */\n      and\n        /* \"#utility.yul\":866:906   */\n      dup2\n      add\n      sub(shl(0x40, 0x01), 0x01)\n        /* \"#utility.yul\":921:955   */\n      dup2\n      gt\n        /* \"#utility.yul\":957:979   */\n      dup3\n      dup3\n      lt\n        /* \"#utility.yul\":918:980   */\n      or\n        /* \"#utility.yul\":915:1003   */\n      iszero\n      tag_162\n      jumpi\n        /* \"#utility.yul\":983:1001   */\n      tag_162\n      tag_146\n      jump\t// in\n    tag_162:\n        /* \"#utility.yul\":1019:1021   */\n      0x40\n        /* \"#utility.yul\":1012:1034   */\n      mstore\n        /* \"#utility.yul\":765:1040   */\n      swap2\n      swap1\n      pop\n      jump\t// out\n        /* \"#utility.yul\":1045:1575   */\n    tag_148:\n        /* \"#utility.yul\":1087:1092   */\n      0x00\n        /* \"#utility.yul\":1140:1143   */\n      dup3\n        /* \"#utility.yul\":1133:1137   */\n      0x1f\n        /* \"#utility.yul\":1125:1131   */\n      dup4\n        /* \"#utility.yul\":1121:1138   */\n      add\n        /* \"#utility.yul\":1117:1144   */\n      slt\n        /* \"#utility.yul\":1107:1162   */\n      tag_164\n      jumpi\n        /* \"#utility.yul\":1158:1159   */\n      0x00\n        /* \"#utility.yul\":1155:1156   */\n      dup1\n        /* \"#utility.yul\":1148:1160   */\n      revert\n        /* \"#utility.yul\":1107:1162   */\n    tag_164:\n        /* \"#utility.yul\":1181:1201   */\n      dup2\n      calldataload\n      sub(shl(0x40, 0x01), 0x01)\n        /* \"#utility.yul\":1213:1239   */\n      dup2\n      gt\n        /* \"#utility.yul\":1210:1262   */\n      iszero\n      tag_166\n      jumpi\n        /* \"#utility.yul\":1242:1260   */\n      tag_166\n      tag_146\n      jump\t// in\n    tag_166:\n        /* \"#utility.yul\":1286:1341   */\n      tag_167\n        /* \"#utility.yul\":1329:1331   */\n      0x1f\n        /* \"#utility.yul\":1310:1323   */\n      dup3\n      add\n      not(0x1f)\n        /* \"#utility.yul\":1306:1333   */\n      and\n        /* \"#utility.yul\":1335:1339   */\n      0x20\n        /* \"#utility.yul\":1302:1340   */\n      add\n        /* \"#utility.yul\":1286:1341   */\n      tag_147\n      jump\t// in\n    tag_167:\n        /* \"#utility.yul\":1366:1368   */\n      dup2\n        /* \"#utility.yul\":1357:1364   */\n      dup2\n        /* \"#utility.yul\":1350:1369   */\n      mstore\n        /* \"#utility.yul\":1412:1415   */\n      dup5\n        /* \"#utility.yul\":1405:1409   */\n      0x20\n        /* \"#utility.yul\":1400:1402   */\n      dup4\n        /* \"#utility.yul\":1392:1398   */\n      dup7\n        /* \"#utility.yul\":1388:1403   */\n      add\n        /* \"#utility.yul\":1384:1410   */\n      add\n        /* \"#utility.yul\":1381:1416   */\n      gt\n        /* \"#utility.yul\":1378:1433   */\n      iszero\n      tag_168\n      jumpi\n        /* \"#utility.yul\":1429:1430   */\n      0x00\n        /* \"#utility.yul\":1426:1427   */\n      dup1\n        /* \"#utility.yul\":1419:1431   */\n      revert\n        /* \"#utility.yul\":1378:1433   */\n    tag_168:\n        /* \"#utility.yul\":1494:1496   */\n      dup2\n        /* \"#utility.yul\":1487:1491   */\n      0x20\n        /* \"#utility.yul\":1479:1485   */\n      dup6\n        /* \"#utility.yul\":1475:1492   */\n      add\n        /* \"#utility.yul\":1468:1472   */\n      0x20\n        /* \"#utility.yul\":1459:1466   */\n      dup4\n        /* \"#utility.yul\":1455:1473   */\n      add\n        /* \"#utility.yul\":1442:1497   */\n      calldatacopy\n        /* \"#utility.yul\":1542:1543   */\n      0x00\n        /* \"#utility.yul\":1517:1533   */\n      swap2\n      dup2\n      add\n        /* \"#utility.yul\":1535:1539   */\n      0x20\n        /* \"#utility.yul\":1513:1540   */\n      add\n        /* \"#utility.yul\":1506:1544   */\n      swap2\n      swap1\n      swap2\n      mstore\n        /* \"#utility.yul\":1521:1528   */\n      swap4\n        /* \"#utility.yul\":1045:1575   */\n      swap3\n      pop\n      pop\n      pop\n      jump\t// out\n        /* \"#utility.yul\":1580:2245   */\n    tag_20:\n        /* \"#utility.yul\":1675:1681   */\n      0x00\n        /* \"#utility.yul\":1683:1689   */\n      dup1\n        /* \"#utility.yul\":1691:1697   */\n      0x00\n        /* \"#utility.yul\":1699:1705   */\n      dup1\n        /* \"#utility.yul\":1752:1755   */\n      0x80\n        /* \"#utility.yul\":1740:1749   */\n      dup6\n        /* \"#utility.yul\":1731:1738   */\n      dup8\n        /* \"#utility.yul\":1727:1750   */\n      sub\n        /* \"#utility.yul\":1723:1756   */\n      slt\n        /* \"#utility.yul\":1720:1773   */\n      iszero\n      tag_170\n      jumpi\n        /* \"#utility.yul\":1769:1770   */\n      0x00\n        /* \"#utility.yul\":1766:1767   */\n      dup1\n        /* \"#utility.yul\":1759:1771   */\n      revert\n        /* \"#utility.yul\":1720:1773   */\n    tag_170:\n        /* \"#utility.yul\":1808:1817   */\n      dup5\n        /* \"#utility.yul\":1795:1818   */\n      calldataload\n        /* \"#utility.yul\":1827:1858   */\n      tag_171\n        /* \"#utility.yul\":1852:1857   */\n      dup2\n        /* \"#utility.yul\":1827:1858   */\n      tag_145\n      jump\t// in\n    tag_171:\n        /* \"#utility.yul\":1877:1882   */\n      swap4\n      pop\n        /* \"#utility.yul\":1934:1936   */\n      0x20\n        /* \"#utility.yul\":1919:1937   */\n      dup6\n      add\n        /* \"#utility.yul\":1906:1938   */\n      calldataload\n        /* \"#utility.yul\":1947:1980   */\n      tag_172\n        /* \"#utility.yul\":1906:1938   */\n      dup2\n        /* \"#utility.yul\":1947:1980   */\n      tag_145\n      jump\t// in\n    tag_172:\n        /* \"#utility.yul\":1999:2006   */\n      swap3\n      pop\n        /* \"#utility.yul\":2053:2055   */\n      0x40\n        /* \"#utility.yul\":2038:2056   */\n      dup6\n      add\n        /* \"#utility.yul\":2025:2057   */\n      calldataload\n      swap2\n      pop\n        /* \"#utility.yul\":2108:2110   */\n      0x60\n        /* \"#utility.yul\":2093:2111   */\n      dup6\n      add\n        /* \"#utility.yul\":2080:2112   */\n      calldataload\n      sub(shl(0x40, 0x01), 0x01)\n        /* \"#utility.yul\":2124:2154   */\n      dup2\n      gt\n        /* \"#utility.yul\":2121:2171   */\n      iszero\n      tag_173\n      jumpi\n        /* \"#utility.yul\":2167:2168   */\n      0x00\n        /* \"#utility.yul\":2164:2165   */\n      dup1\n        /* \"#utility.yul\":2157:2169   */\n      revert\n        /* \"#utility.yul\":2121:2171   */\n    tag_173:\n        /* \"#utility.yul\":2190:2239   */\n      tag_174\n        /* \"#utility.yul\":2231:2238   */\n      dup8\n        /* \"#utility.yul\":2222:2228   */\n      dup3\n        /* \"#utility.yul\":2211:2220   */\n      dup9\n        /* \"#utility.yul\":2207:2229   */\n      add\n        /* \"#utility.yul\":2190:2239   */\n      tag_148\n      jump\t// in\n    tag_174:\n        /* \"#utility.yul\":2180:2239   */\n      swap2\n      pop\n      pop\n        /* \"#utility.yul\":1580:2245   */\n      swap3\n      swap6\n      swap2\n      swap5\n      pop\n      swap3\n      pop\n      jump\t// out\n        /* \"#utility.yul\":2457:3132   */\n    tag_26:\n        /* \"#utility.yul\":2560:2566   */\n      0x00\n        /* \"#utility.yul\":2568:2574   */\n      dup1\n        /* \"#utility.yul\":2576:2582   */\n      0x00\n        /* \"#utility.yul\":2584:2590   */\n      dup1\n        /* \"#utility.yul\":2592:2598   */\n      0x00\n        /* \"#utility.yul\":2645:2648   */\n      0xa0\n        /* \"#utility.yul\":2633:2642   */\n      dup7\n        /* \"#utility.yul\":2624:2631   */\n      dup9\n        /* \"#utility.yul\":2620:2643   */\n      sub\n        /* \"#utility.yul\":2616:2649   */\n      slt\n        /* \"#utility.yul\":2613:2666   */\n      iszero\n      tag_177\n      jumpi\n        /* \"#utility.yul\":2662:2663   */\n      0x00\n        /* \"#utility.yul\":2659:2660   */\n      dup1\n        /* \"#utility.yul\":2652:2664   */\n      revert\n        /* \"#utility.yul\":2613:2666   */\n    tag_177:\n        /* \"#utility.yul\":2701:2710   */\n      dup6\n        /* \"#utility.yul\":2688:2711   */\n      calldataload\n        /* \"#utility.yul\":2720:2751   */\n      tag_178\n        /* \"#utility.yul\":2745:2750   */\n      dup2\n        /* \"#utility.yul\":2720:2751   */\n      tag_145\n      jump\t// in\n    tag_178:\n        /* \"#utility.yul\":2770:2775   */\n      swap5\n      pop\n        /* \"#utility.yul\":2827:2829   */\n      0x20\n        /* \"#utility.yul\":2812:2830   */\n      dup7\n      add\n        /* \"#utility.yul\":2799:2831   */\n      calldataload\n        /* \"#utility.yul\":2840:2873   */\n      tag_179\n        /* \"#utility.yul\":2799:2831   */\n      dup2\n        /* \"#utility.yul\":2840:2873   */\n      tag_145\n      jump\t// in\n    tag_179:\n        /* \"#utility.yul\":2892:2899   */\n      swap4\n      pop\n        /* \"#utility.yul\":2951:2953   */\n      0x40\n        /* \"#utility.yul\":2936:2954   */\n      dup7\n      add\n        /* \"#utility.yul\":2923:2955   */\n      calldataload\n        /* \"#utility.yul\":2964:2997   */\n      tag_180\n        /* \"#utility.yul\":2923:2955   */\n      dup2\n        /* \"#utility.yul\":2964:2997   */\n      tag_145\n      jump\t// in\n    tag_180:\n        /* \"#utility.yul\":2457:3132   */\n      swap5\n      swap8\n      swap4\n      swap7\n      pop\n        /* \"#utility.yul\":3016:3023   */\n      swap4\n      swap5\n        /* \"#utility.yul\":3070:3072   */\n      0x60\n        /* \"#utility.yul\":3055:3073   */\n      dup2\n      add\n        /* \"#utility.yul\":3042:3074   */\n      calldataload\n      swap5\n      pop\n        /* \"#utility.yul\":3121:3124   */\n      0x80\n        /* \"#utility.yul\":3106:3125   */\n      add\n        /* \"#utility.yul\":3093:3126   */\n      calldataload\n      swap3\n        /* \"#utility.yul\":2457:3132   */\n      swap2\n      pop\n      pop\n      jump\t// out\n        /* \"#utility.yul\":3137:3320   */\n    tag_149:\n        /* \"#utility.yul\":3197:3201   */\n      0x00\n      sub(shl(0x40, 0x01), 0x01)\n        /* \"#utility.yul\":3219:3249   */\n      dup3\n      gt\n        /* \"#utility.yul\":3216:3272   */\n      iszero\n      tag_183\n      jumpi\n        /* \"#utility.yul\":3252:3270   */\n      tag_183\n      tag_146\n      jump\t// in\n    tag_183:\n      pop\n        /* \"#utility.yul\":3297:3298   */\n      0x05\n        /* \"#utility.yul\":3293:3307   */\n      shl\n        /* \"#utility.yul\":3309:3313   */\n      0x20\n        /* \"#utility.yul\":3289:3314   */\n      add\n      swap1\n        /* \"#utility.yul\":3137:3320   */\n      jump\t// out\n        /* \"#utility.yul\":3325:3987   */\n    tag_150:\n        /* \"#utility.yul\":3379:3384   */\n      0x00\n        /* \"#utility.yul\":3432:3435   */\n      dup3\n        /* \"#utility.yul\":3425:3429   */\n      0x1f\n        /* \"#utility.yul\":3417:3423   */\n      dup4\n        /* \"#utility.yul\":3413:3430   */\n      add\n        /* \"#utility.yul\":3409:3436   */\n      slt\n        /* \"#utility.yul\":3399:3454   */\n      tag_185\n      jumpi\n        /* \"#utility.yul\":3450:3451   */\n      0x00\n        /* \"#utility.yul\":3447:3448   */\n      dup1\n        /* \"#utility.yul\":3440:3452   */\n      revert\n        /* \"#utility.yul\":3399:3454   */\n    tag_185:\n        /* \"#utility.yul\":3486:3492   */\n      dup2\n        /* \"#utility.yul\":3473:3493   */\n      calldataload\n        /* \"#utility.yul\":3512:3516   */\n      0x20\n        /* \"#utility.yul\":3536:3596   */\n      tag_186\n        /* \"#utility.yul\":3552:3595   */\n      tag_187\n        /* \"#utility.yul\":3592:3594   */\n      dup4\n        /* \"#utility.yul\":3552:3595   */\n      tag_149\n      jump\t// in\n    tag_187:\n        /* \"#utility.yul\":3536:3596   */\n      tag_147\n      jump\t// in\n    tag_186:\n        /* \"#utility.yul\":3630:3645   */\n      dup3\n      dup2\n      mstore\n        /* \"#utility.yul\":3716:3717   */\n      0x05\n        /* \"#utility.yul\":3712:3722   */\n      swap3\n      swap1\n      swap3\n      shl\n        /* \"#utility.yul\":3700:3723   */\n      dup5\n      add\n        /* \"#utility.yul\":3696:3728   */\n      dup2\n      add\n      swap2\n        /* \"#utility.yul\":3661:3673   */\n      dup2\n      dup2\n      add\n      swap1\n        /* \"#utility.yul\":3740:3755   */\n      dup7\n      dup5\n      gt\n        /* \"#utility.yul\":3737:3772   */\n      iszero\n      tag_188\n      jumpi\n        /* \"#utility.yul\":3768:3769   */\n      0x00\n        /* \"#utility.yul\":3765:3766   */\n      dup1\n        /* \"#utility.yul\":3758:3770   */\n      revert\n        /* \"#utility.yul\":3737:3772   */\n    tag_188:\n        /* \"#utility.yul\":3804:3806   */\n      dup3\n        /* \"#utility.yul\":3796:3802   */\n      dup7\n        /* \"#utility.yul\":3792:3807   */\n      add\n        /* \"#utility.yul\":3816:3958   */\n    tag_189:\n        /* \"#utility.yul\":3832:3838   */\n      dup5\n        /* \"#utility.yul\":3827:3830   */\n      dup2\n        /* \"#utility.yul\":3824:3839   */\n      lt\n        /* \"#utility.yul\":3816:3958   */\n      iszero\n      tag_191\n      jumpi\n        /* \"#utility.yul\":3898:3915   */\n      dup1\n      calldataload\n        /* \"#utility.yul\":3886:3916   */\n      dup4\n      mstore\n        /* \"#utility.yul\":3936:3948   */\n      swap2\n      dup4\n      add\n      swap2\n        /* \"#utility.yul\":3849:3861   */\n      dup4\n      add\n        /* \"#utility.yul\":3816:3958   */\n      jump(tag_189)\n    tag_191:\n      pop\n        /* \"#utility.yul\":3976:3981   */\n      swap7\n        /* \"#utility.yul\":3325:3987   */\n      swap6\n      pop\n      pop\n      pop\n      pop\n      pop\n      pop\n      jump\t// out\n        /* \"#utility.yul\":3992:4821   */\n    tag_151:\n        /* \"#utility.yul\":4044:4049   */\n      0x00\n        /* \"#utility.yul\":4097:4100   */\n      dup3\n        /* \"#utility.yul\":4090:4094   */\n      0x1f\n        /* \"#utility.yul\":4082:4088   */\n      dup4\n        /* \"#utility.yul\":4078:4095   */\n      add\n        /* \"#utility.yul\":4074:4101   */\n      slt\n        /* \"#utility.yul\":4064:4119   */\n      tag_193\n      jumpi\n        /* \"#utility.yul\":4115:4116   */\n      0x00\n        /* \"#utility.yul\":4112:4113   */\n      dup1\n        /* \"#utility.yul\":4105:4117   */\n      revert\n        /* \"#utility.yul\":4064:4119   */\n    tag_193:\n        /* \"#utility.yul\":4151:4157   */\n      dup2\n        /* \"#utility.yul\":4138:4158   */\n      calldataload\n        /* \"#utility.yul\":4177:4181   */\n      0x20\n        /* \"#utility.yul\":4201:4261   */\n      tag_194\n        /* \"#utility.yul\":4217:4260   */\n      tag_187\n        /* \"#utility.yul\":4257:4259   */\n      dup4\n        /* \"#utility.yul\":4217:4260   */\n      tag_149\n      jump\t// in\n        /* \"#utility.yul\":4201:4261   */\n    tag_194:\n        /* \"#utility.yul\":4295:4310   */\n      dup3\n      dup2\n      mstore\n        /* \"#utility.yul\":4381:4382   */\n      0x05\n        /* \"#utility.yul\":4377:4387   */\n      swap3\n      swap1\n      swap3\n      shl\n        /* \"#utility.yul\":4365:4388   */\n      dup5\n      add\n        /* \"#utility.yul\":4361:4393   */\n      dup2\n      add\n      swap2\n        /* \"#utility.yul\":4326:4338   */\n      dup2\n      dup2\n      add\n      swap1\n        /* \"#utility.yul\":4405:4420   */\n      dup7\n      dup5\n      gt\n        /* \"#utility.yul\":4402:4437   */\n      iszero\n      tag_196\n      jumpi\n        /* \"#utility.yul\":4433:4434   */\n      0x00\n        /* \"#utility.yul\":4430:4431   */\n      dup1\n        /* \"#utility.yul\":4423:4435   */\n      revert\n        /* \"#utility.yul\":4402:4437   */\n    tag_196:\n        /* \"#utility.yul\":4469:4471   */\n      dup3\n        /* \"#utility.yul\":4461:4467   */\n      dup7\n        /* \"#utility.yul\":4457:4472   */\n      add\n        /* \"#utility.yul\":4481:4792   */\n    tag_197:\n        /* \"#utility.yul\":4497:4503   */\n      dup5\n        /* \"#utility.yul\":4492:4495   */\n      dup2\n        /* \"#utility.yul\":4489:4504   */\n      lt\n        /* \"#utility.yul\":4481:4792   */\n      iszero\n      tag_191\n      jumpi\n        /* \"#utility.yul\":4577:4580   */\n      dup1\n        /* \"#utility.yul\":4564:4581   */\n      calldataload\n        /* \"#utility.yul\":4625:4629   */\n      0xff\n        /* \"#utility.yul\":4618:4623   */\n      dup2\n        /* \"#utility.yul\":4614:4630   */\n      and\n        /* \"#utility.yul\":4607:4612   */\n      dup2\n        /* \"#utility.yul\":4604:4631   */\n      eq\n        /* \"#utility.yul\":4594:4719   */\n      tag_200\n      jumpi\n        /* \"#utility.yul\":4673:4674   */\n      0x00\n        /* \"#utility.yul\":4702:4704   */\n      dup1\n        /* \"#utility.yul\":4698:4700   */\n      dup2\n        /* \"#utility.yul\":4691:4705   */\n      revert\n        /* \"#utility.yul\":4594:4719   */\n    tag_200:\n        /* \"#utility.yul\":4732:4750   */\n      dup4\n      mstore\n        /* \"#utility.yul\":4770:4782   */\n      swap2\n      dup4\n      add\n      swap2\n        /* \"#utility.yul\":4514:4526   */\n      dup4\n      add\n        /* \"#utility.yul\":4481:4792   */\n      jump(tag_197)\n        /* \"#utility.yul\":4826:6545   */\n    tag_30:\n        /* \"#utility.yul\":4994:5000   */\n      0x00\n        /* \"#utility.yul\":5002:5008   */\n      dup1\n        /* \"#utility.yul\":5010:5016   */\n      0x00\n        /* \"#utility.yul\":5018:5024   */\n      dup1\n        /* \"#utility.yul\":5026:5032   */\n      0x00\n        /* \"#utility.yul\":5079:5082   */\n      0xa0\n        /* \"#utility.yul\":5067:5076   */\n      dup7\n        /* \"#utility.yul\":5058:5065   */\n      dup9\n        /* \"#utility.yul\":5054:5077   */\n      sub\n        /* \"#utility.yul\":5050:5083   */\n      slt\n        /* \"#utility.yul\":5047:5100   */\n      iszero\n      tag_202\n      jumpi\n        /* \"#utility.yul\":5096:5097   */\n      0x00\n        /* \"#utility.yul\":5093:5094   */\n      dup1\n        /* \"#utility.yul\":5086:5098   */\n      revert\n        /* \"#utility.yul\":5047:5100   */\n    tag_202:\n        /* \"#utility.yul\":5135:5144   */\n      dup6\n        /* \"#utility.yul\":5122:5145   */\n      calldataload\n        /* \"#utility.yul\":5154:5185   */\n      tag_203\n        /* \"#utility.yul\":5179:5184   */\n      dup2\n        /* \"#utility.yul\":5154:5185   */\n      tag_145\n      jump\t// in\n    tag_203:\n        /* \"#utility.yul\":5204:5209   */\n      swap5\n      pop\n        /* \"#utility.yul\":5228:5230   */\n      0x20\n        /* \"#utility.yul\":5267:5285   */\n      dup7\n      dup2\n      add\n        /* \"#utility.yul\":5254:5286   */\n      calldataload\n        /* \"#utility.yul\":5295:5328   */\n      tag_204\n        /* \"#utility.yul\":5254:5286   */\n      dup2\n        /* \"#utility.yul\":5295:5328   */\n      tag_145\n      jump\t// in\n    tag_204:\n        /* \"#utility.yul\":5347:5354   */\n      swap5\n      pop\n        /* \"#utility.yul\":5405:5407   */\n      0x40\n        /* \"#utility.yul\":5390:5408   */\n      dup8\n      add\n        /* \"#utility.yul\":5377:5409   */\n      calldataload\n      sub(shl(0x40, 0x01), 0x01)\n        /* \"#utility.yul\":5458:5472   */\n      dup1\n      dup3\n      gt\n        /* \"#utility.yul\":5455:5489   */\n      iszero\n      tag_205\n      jumpi\n        /* \"#utility.yul\":5485:5486   */\n      0x00\n        /* \"#utility.yul\":5482:5483   */\n      dup1\n        /* \"#utility.yul\":5475:5487   */\n      revert\n        /* \"#utility.yul\":5455:5489   */\n    tag_205:\n        /* \"#utility.yul\":5523:5529   */\n      dup2\n        /* \"#utility.yul\":5512:5521   */\n      dup10\n        /* \"#utility.yul\":5508:5530   */\n      add\n        /* \"#utility.yul\":5498:5530   */\n      swap2\n      pop\n        /* \"#utility.yul\":5568:5575   */\n      dup10\n        /* \"#utility.yul\":5561:5565   */\n      0x1f\n        /* \"#utility.yul\":5557:5559   */\n      dup4\n        /* \"#utility.yul\":5553:5566   */\n      add\n        /* \"#utility.yul\":5549:5576   */\n      slt\n        /* \"#utility.yul\":5539:5594   */\n      tag_206\n      jumpi\n        /* \"#utility.yul\":5590:5591   */\n      0x00\n        /* \"#utility.yul\":5587:5588   */\n      dup1\n        /* \"#utility.yul\":5580:5592   */\n      revert\n        /* \"#utility.yul\":5539:5594   */\n    tag_206:\n        /* \"#utility.yul\":5626:5628   */\n      dup2\n        /* \"#utility.yul\":5613:5629   */\n      calldataload\n        /* \"#utility.yul\":5649:5709   */\n      tag_207\n        /* \"#utility.yul\":5665:5708   */\n      tag_187\n        /* \"#utility.yul\":5705:5707   */\n      dup3\n        /* \"#utility.yul\":5665:5708   */\n      tag_149\n      jump\t// in\n        /* \"#utility.yul\":5649:5709   */\n    tag_207:\n        /* \"#utility.yul\":5743:5758   */\n      dup2\n      dup2\n      mstore\n        /* \"#utility.yul\":5825:5826   */\n      0x05\n        /* \"#utility.yul\":5821:5831   */\n      swap2\n      swap1\n      swap2\n      shl\n        /* \"#utility.yul\":5813:5832   */\n      dup4\n      add\n        /* \"#utility.yul\":5809:5837   */\n      dup5\n      add\n      swap1\n        /* \"#utility.yul\":5774:5786   */\n      dup5\n      dup2\n      add\n      swap1\n        /* \"#utility.yul\":5849:5868   */\n      dup13\n      dup4\n      gt\n        /* \"#utility.yul\":5846:5885   */\n      iszero\n      tag_209\n      jumpi\n        /* \"#utility.yul\":5881:5882   */\n      0x00\n        /* \"#utility.yul\":5878:5879   */\n      dup1\n        /* \"#utility.yul\":5871:5883   */\n      revert\n        /* \"#utility.yul\":5846:5885   */\n    tag_209:\n        /* \"#utility.yul\":5905:5916   */\n      swap4\n      dup6\n      add\n      swap4\n        /* \"#utility.yul\":5925:6148   */\n    tag_210:\n        /* \"#utility.yul\":5941:5947   */\n      dup3\n        /* \"#utility.yul\":5936:5939   */\n      dup6\n        /* \"#utility.yul\":5933:5948   */\n      lt\n        /* \"#utility.yul\":5925:6148   */\n      iszero\n      tag_212\n      jumpi\n        /* \"#utility.yul\":6023:6026   */\n      dup5\n        /* \"#utility.yul\":6010:6027   */\n      calldataload\n        /* \"#utility.yul\":6040:6073   */\n      tag_213\n        /* \"#utility.yul\":6065:6072   */\n      dup2\n        /* \"#utility.yul\":6040:6073   */\n      tag_145\n      jump\t// in\n    tag_213:\n        /* \"#utility.yul\":6086:6106   */\n      dup3\n      mstore\n        /* \"#utility.yul\":5958:5970   */\n      swap4\n      dup6\n      add\n      swap4\n        /* \"#utility.yul\":6126:6138   */\n      swap1\n      dup6\n      add\n      swap1\n        /* \"#utility.yul\":5925:6148   */\n      jump(tag_210)\n    tag_212:\n        /* \"#utility.yul\":6167:6172   */\n      swap8\n      pop\n      pop\n      pop\n        /* \"#utility.yul\":6225:6227   */\n      0x60\n        /* \"#utility.yul\":6210:6228   */\n      dup10\n      add\n        /* \"#utility.yul\":6197:6229   */\n      calldataload\n      swap3\n      pop\n        /* \"#utility.yul\":6241:6257   */\n      dup1\n      dup4\n      gt\n        /* \"#utility.yul\":6238:6274   */\n      iszero\n      tag_214\n      jumpi\n        /* \"#utility.yul\":6270:6271   */\n      0x00\n        /* \"#utility.yul\":6267:6268   */\n      dup1\n        /* \"#utility.yul\":6260:6272   */\n      revert\n        /* \"#utility.yul\":6238:6274   */\n    tag_214:\n        /* \"#utility.yul\":6293:6356   */\n      tag_215\n        /* \"#utility.yul\":6348:6355   */\n      dup11\n        /* \"#utility.yul\":6337:6345   */\n      dup5\n        /* \"#utility.yul\":6326:6335   */\n      dup12\n        /* \"#utility.yul\":6322:6346   */\n      add\n        /* \"#utility.yul\":6293:6356   */\n      tag_150\n      jump\t// in\n    tag_215:\n        /* \"#utility.yul\":6283:6356   */\n      swap5\n      pop\n        /* \"#utility.yul\":6409:6412   */\n      0x80\n        /* \"#utility.yul\":6398:6407   */\n      dup10\n        /* \"#utility.yul\":6394:6413   */\n      add\n        /* \"#utility.yul\":6381:6414   */\n      calldataload\n        /* \"#utility.yul\":6365:6414   */\n      swap3\n      pop\n        /* \"#utility.yul\":6439:6441   */\n      dup1\n        /* \"#utility.yul\":6429:6437   */\n      dup4\n        /* \"#utility.yul\":6426:6442   */\n      gt\n        /* \"#utility.yul\":6423:6459   */\n      iszero\n      tag_216\n      jumpi\n        /* \"#utility.yul\":6455:6456   */\n      0x00\n        /* \"#utility.yul\":6452:6453   */\n      dup1\n        /* \"#utility.yul\":6445:6457   */\n      revert\n        /* \"#utility.yul\":6423:6459   */\n    tag_216:\n      pop\n      pop\n        /* \"#utility.yul\":6478:6539   */\n      tag_217\n        /* \"#utility.yul\":6531:6538   */\n      dup9\n        /* \"#utility.yul\":6520:6528   */\n      dup3\n        /* \"#utility.yul\":6509:6518   */\n      dup10\n        /* \"#utility.yul\":6505:6529   */\n      add\n        /* \"#utility.yul\":6478:6539   */\n      tag_151\n      jump\t// in\n    tag_217:\n        /* \"#utility.yul\":6468:6539   */\n      swap2\n      pop\n      pop\n        /* \"#utility.yul\":4826:6545   */\n      swap3\n      swap6\n      pop\n      swap3\n      swap6\n      swap1\n      swap4\n      pop\n      jump\t// out\n        /* \"#utility.yul\":6758:7829   */\n    tag_40:\n        /* \"#utility.yul\":6912:6918   */\n      0x00\n        /* \"#utility.yul\":6920:6926   */\n      dup1\n        /* \"#utility.yul\":6928:6934   */\n      0x00\n        /* \"#utility.yul\":6936:6942   */\n      dup1\n        /* \"#utility.yul\":6944:6950   */\n      0x00\n        /* \"#utility.yul\":6997:7000   */\n      0xa0\n        /* \"#utility.yul\":6985:6994   */\n      dup7\n        /* \"#utility.yul\":6976:6983   */\n      dup9\n        /* \"#utility.yul\":6972:6995   */\n      sub\n        /* \"#utility.yul\":6968:7001   */\n      slt\n        /* \"#utility.yul\":6965:7018   */\n      iszero\n      tag_220\n      jumpi\n        /* \"#utility.yul\":7014:7015   */\n      0x00\n        /* \"#utility.yul\":7011:7012   */\n      dup1\n        /* \"#utility.yul\":7004:7016   */\n      revert\n        /* \"#utility.yul\":6965:7018   */\n    tag_220:\n        /* \"#utility.yul\":7053:7062   */\n      dup6\n        /* \"#utility.yul\":7040:7063   */\n      calldataload\n        /* \"#utility.yul\":7072:7103   */\n      tag_221\n        /* \"#utility.yul\":7097:7102   */\n      dup2\n        /* \"#utility.yul\":7072:7103   */\n      tag_145\n      jump\t// in\n    tag_221:\n        /* \"#utility.yul\":7122:7127   */\n      swap5\n      pop\n        /* \"#utility.yul\":7179:7181   */\n      0x20\n        /* \"#utility.yul\":7164:7182   */\n      dup7\n      add\n        /* \"#utility.yul\":7151:7183   */\n      calldataload\n        /* \"#utility.yul\":7192:7225   */\n      tag_222\n        /* \"#utility.yul\":7151:7183   */\n      dup2\n        /* \"#utility.yul\":7192:7225   */\n      tag_145\n      jump\t// in\n    tag_222:\n        /* \"#utility.yul\":7244:7251   */\n      swap4\n      pop\n        /* \"#utility.yul\":7302:7304   */\n      0x40\n        /* \"#utility.yul\":7287:7305   */\n      dup7\n      add\n        /* \"#utility.yul\":7274:7306   */\n      calldataload\n      sub(shl(0x40, 0x01), 0x01)\n        /* \"#utility.yul\":7355:7369   */\n      dup1\n      dup3\n      gt\n        /* \"#utility.yul\":7352:7386   */\n      iszero\n      tag_223\n      jumpi\n        /* \"#utility.yul\":7382:7383   */\n      0x00\n        /* \"#utility.yul\":7379:7380   */\n      dup1\n        /* \"#utility.yul\":7372:7384   */\n      revert\n        /* \"#utility.yul\":7352:7386   */\n    tag_223:\n        /* \"#utility.yul\":7405:7466   */\n      tag_224\n        /* \"#utility.yul\":7458:7465   */\n      dup10\n        /* \"#utility.yul\":7449:7455   */\n      dup4\n        /* \"#utility.yul\":7438:7447   */\n      dup11\n        /* \"#utility.yul\":7434:7456   */\n      add\n        /* \"#utility.yul\":7405:7466   */\n      tag_150\n      jump\t// in\n    tag_224:\n        /* \"#utility.yul\":7395:7466   */\n      swap5\n      pop\n        /* \"#utility.yul\":7519:7521   */\n      0x60\n        /* \"#utility.yul\":7508:7517   */\n      dup9\n        /* \"#utility.yul\":7504:7522   */\n      add\n        /* \"#utility.yul\":7491:7523   */\n      calldataload\n        /* \"#utility.yul\":7475:7523   */\n      swap2\n      pop\n        /* \"#utility.yul\":7548:7550   */\n      dup1\n        /* \"#utility.yul\":7538:7546   */\n      dup3\n        /* \"#utility.yul\":7535:7551   */\n      gt\n        /* \"#utility.yul\":7532:7568   */\n      iszero\n      tag_225\n      jumpi\n        /* \"#utility.yul\":7564:7565   */\n      0x00\n        /* \"#utility.yul\":7561:7562   */\n      dup1\n        /* \"#utility.yul\":7554:7566   */\n      revert\n        /* \"#utility.yul\":7532:7568   */\n    tag_225:\n        /* \"#utility.yul\":7587:7650   */\n      tag_226\n        /* \"#utility.yul\":7642:7649   */\n      dup10\n        /* \"#utility.yul\":7631:7639   */\n      dup4\n        /* \"#utility.yul\":7620:7629   */\n      dup11\n        /* \"#utility.yul\":7616:7640   */\n      add\n        /* \"#utility.yul\":7587:7650   */\n      tag_150\n      jump\t// in\n    tag_226:\n        /* \"#utility.yul\":7577:7650   */\n      swap4\n      pop\n        /* \"#utility.yul\":7703:7706   */\n      0x80\n        /* \"#utility.yul\":7692:7701   */\n      dup9\n        /* \"#utility.yul\":7688:7707   */\n      add\n        /* \"#utility.yul\":7675:7708   */\n      calldataload\n        /* \"#utility.yul\":7659:7708   */\n      swap2\n      pop\n        /* \"#utility.yul\":7733:7735   */\n      dup1\n        /* \"#utility.yul\":7723:7731   */\n      dup3\n        /* \"#utility.yul\":7720:7736   */\n      gt\n        /* \"#utility.yul\":7717:7753   */\n      iszero\n      tag_227\n      jumpi\n        /* \"#utility.yul\":7749:7750   */\n      0x00\n        /* \"#utility.yul\":7746:7747   */\n      dup1\n        /* \"#utility.yul\":7739:7751   */\n      revert\n        /* \"#utility.yul\":7717:7753   */\n    tag_227:\n      pop\n        /* \"#utility.yul\":7772:7823   */\n      tag_217\n        /* \"#utility.yul\":7815:7822   */\n      dup9\n        /* \"#utility.yul\":7804:7812   */\n      dup3\n        /* \"#utility.yul\":7793:7802   */\n      dup10\n        /* \"#utility.yul\":7789:7813   */\n      add\n        /* \"#utility.yul\":7772:7823   */\n      tag_148\n      jump\t// in\n        /* \"#utility.yul\":7834:8568   */\n    tag_45:\n        /* \"#utility.yul\":7938:7944   */\n      0x00\n        /* \"#utility.yul\":7946:7952   */\n      dup1\n        /* \"#utility.yul\":7954:7960   */\n      0x00\n        /* \"#utility.yul\":7962:7968   */\n      dup1\n        /* \"#utility.yul\":7970:7976   */\n      0x00\n        /* \"#utility.yul\":8023:8026   */\n      0xa0\n        /* \"#utility.yul\":8011:8020   */\n      dup7\n        /* \"#utility.yul\":8002:8009   */\n      dup9\n        /* \"#utility.yul\":7998:8021   */\n      sub\n        /* \"#utility.yul\":7994:8027   */\n      slt\n        /* \"#utility.yul\":7991:8044   */\n      iszero\n      tag_230\n      jumpi\n        /* \"#utility.yul\":8040:8041   */\n      0x00\n        /* \"#utility.yul\":8037:8038   */\n      dup1\n        /* \"#utility.yul\":8030:8042   */\n      revert\n        /* \"#utility.yul\":7991:8044   */\n    tag_230:\n        /* \"#utility.yul\":8079:8088   */\n      dup6\n        /* \"#utility.yul\":8066:8089   */\n      calldataload\n        /* \"#utility.yul\":8098:8129   */\n      tag_231\n        /* \"#utility.yul\":8123:8128   */\n      dup2\n        /* \"#utility.yul\":8098:8129   */\n      tag_145\n      jump\t// in\n    tag_231:\n        /* \"#utility.yul\":8148:8153   */\n      swap5\n      pop\n        /* \"#utility.yul\":8205:8207   */\n      0x20\n        /* \"#utility.yul\":8190:8208   */\n      dup7\n      add\n        /* \"#utility.yul\":8177:8209   */\n      calldataload\n        /* \"#utility.yul\":8218:8251   */\n      tag_232\n        /* \"#utility.yul\":8177:8209   */\n      dup2\n        /* \"#utility.yul\":8218:8251   */\n      tag_145\n      jump\t// in\n    tag_232:\n        /* \"#utility.yul\":8270:8277   */\n      swap4\n      pop\n        /* \"#utility.yul\":8324:8326   */\n      0x40\n        /* \"#utility.yul\":8309:8327   */\n      dup7\n      add\n        /* \"#utility.yul\":8296:8328   */\n      calldataload\n      swap3\n      pop\n        /* \"#utility.yul\":8375:8377   */\n      0x60\n        /* \"#utility.yul\":8360:8378   */\n      dup7\n      add\n        /* \"#utility.yul\":8347:8379   */\n      calldataload\n      swap2\n      pop\n        /* \"#utility.yul\":8430:8433   */\n      0x80\n        /* \"#utility.yul\":8415:8434   */\n      dup7\n      add\n        /* \"#utility.yul\":8402:8435   */\n      calldataload\n      sub(shl(0x40, 0x01), 0x01)\n        /* \"#utility.yul\":8447:8477   */\n      dup2\n      gt\n        /* \"#utility.yul\":8444:8494   */\n      iszero\n      tag_233\n      jumpi\n        /* \"#utility.yul\":8490:8491   */\n      0x00\n        /* \"#utility.yul\":8487:8488   */\n      dup1\n        /* \"#utility.yul\":8480:8492   */\n      revert\n        /* \"#utility.yul\":8444:8494   */\n    tag_233:\n        /* \"#utility.yul\":8513:8562   */\n      tag_217\n        /* \"#utility.yul\":8554:8561   */\n      dup9\n        /* \"#utility.yul\":8545:8551   */\n      dup3\n        /* \"#utility.yul\":8534:8543   */\n      dup10\n        /* \"#utility.yul\":8530:8552   */\n      add\n        /* \"#utility.yul\":8513:8562   */\n      tag_148\n      jump\t// in\n        /* \"#utility.yul\":8573:8820   */\n    tag_50:\n        /* \"#utility.yul\":8632:8638   */\n      0x00\n        /* \"#utility.yul\":8685:8687   */\n      0x20\n        /* \"#utility.yul\":8673:8682   */\n      dup3\n        /* \"#utility.yul\":8664:8671   */\n      dup5\n        /* \"#utility.yul\":8660:8683   */\n      sub\n        /* \"#utility.yul\":8656:8688   */\n      slt\n        /* \"#utility.yul\":8653:8705   */\n      iszero\n      tag_236\n      jumpi\n        /* \"#utility.yul\":8701:8702   */\n      0x00\n        /* \"#utility.yul\":8698:8699   */\n      dup1\n        /* \"#utility.yul\":8691:8703   */\n      revert\n        /* \"#utility.yul\":8653:8705   */\n    tag_236:\n        /* \"#utility.yul\":8740:8749   */\n      dup2\n        /* \"#utility.yul\":8727:8750   */\n      calldataload\n        /* \"#utility.yul\":8759:8790   */\n      tag_155\n        /* \"#utility.yul\":8784:8789   */\n      dup2\n        /* \"#utility.yul\":8759:8790   */\n      tag_145\n      jump\t// in\n        /* \"#utility.yul\":8825:9208   */\n    tag_60:\n      sub(shl(0xa0, 0x01), 0x01)\n        /* \"#utility.yul\":9091:9106   */\n      swap4\n      dup5\n      and\n        /* \"#utility.yul\":9073:9107   */\n      dup2\n      mstore\n        /* \"#utility.yul\":9143:9158   */\n      swap2\n      swap1\n      swap3\n      and\n        /* \"#utility.yul\":9138:9140   */\n      0x20\n        /* \"#utility.yul\":9123:9141   */\n      dup3\n      add\n        /* \"#utility.yul\":9116:9159   */\n      mstore\n        /* \"#utility.yul\":9190:9192   */\n      0x40\n        /* \"#utility.yul\":9175:9193   */\n      dup2\n      add\n        /* \"#utility.yul\":9168:9202   */\n      swap2\n      swap1\n      swap2\n      mstore\n        /* \"#utility.yul\":9023:9025   */\n      0x60\n        /* \"#utility.yul\":9008:9026   */\n      add\n      swap1\n        /* \"#utility.yul\":8825:9208   */\n      jump\t// out\n        /* \"#utility.yul\":9213:9490   */\n    tag_64:\n        /* \"#utility.yul\":9280:9286   */\n      0x00\n        /* \"#utility.yul\":9333:9335   */\n      0x20\n        /* \"#utility.yul\":9321:9330   */\n      dup3\n        /* \"#utility.yul\":9312:9319   */\n      dup5\n        /* \"#utility.yul\":9308:9331   */\n      sub\n        /* \"#utility.yul\":9304:9336   */\n      slt\n        /* \"#utility.yul\":9301:9353   */\n      iszero\n      tag_240\n      jumpi\n        /* \"#utility.yul\":9349:9350   */\n      0x00\n        /* \"#utility.yul\":9346:9347   */\n      dup1\n        /* \"#utility.yul\":9339:9351   */\n      revert\n        /* \"#utility.yul\":9301:9353   */\n    tag_240:\n        /* \"#utility.yul\":9381:9390   */\n      dup2\n        /* \"#utility.yul\":9375:9391   */\n      mload\n        /* \"#utility.yul\":9434:9439   */\n      dup1\n        /* \"#utility.yul\":9427:9440   */\n      iszero\n        /* \"#utility.yul\":9420:9441   */\n      iszero\n        /* \"#utility.yul\":9413:9418   */\n      dup2\n        /* \"#utility.yul\":9410:9442   */\n      eq\n        /* \"#utility.yul\":9400:9460   */\n      tag_155\n      jumpi\n        /* \"#utility.yul\":9456:9457   */\n      0x00\n        /* \"#utility.yul\":9453:9454   */\n      dup1\n        /* \"#utility.yul\":9446:9458   */\n      revert\n        /* \"#utility.yul\":11810:11937   */\n    tag_97:\n        /* \"#utility.yul\":11871:11881   */\n      0x4e487b71\n        /* \"#utility.yul\":11866:11869   */\n      0xe0\n        /* \"#utility.yul\":11862:11882   */\n      shl\n        /* \"#utility.yul\":11859:11860   */\n      0x00\n        /* \"#utility.yul\":11852:11883   */\n      mstore\n        /* \"#utility.yul\":11902:11906   */\n      0x32\n        /* \"#utility.yul\":11899:11900   */\n      0x04\n        /* \"#utility.yul\":11892:11907   */\n      mstore\n        /* \"#utility.yul\":11926:11930   */\n      0x24\n        /* \"#utility.yul\":11923:11924   */\n      0x00\n        /* \"#utility.yul\":11916:11931   */\n      revert\n        /* \"#utility.yul\":12626:12858   */\n    tag_118:\n        /* \"#utility.yul\":12665:12668   */\n      0x00\n        /* \"#utility.yul\":12686:12703   */\n      0x01\n      dup3\n      add\n        /* \"#utility.yul\":12683:12823   */\n      tag_251\n      jumpi\n        /* \"#utility.yul\":12745:12755   */\n      0x4e487b71\n        /* \"#utility.yul\":12740:12743   */\n      0xe0\n        /* \"#utility.yul\":12736:12756   */\n      shl\n        /* \"#utility.yul\":12733:12734   */\n      0x00\n        /* \"#utility.yul\":12726:12757   */\n      mstore\n        /* \"#utility.yul\":12780:12784   */\n      0x11\n        /* \"#utility.yul\":12777:12778   */\n      0x04\n        /* \"#utility.yul\":12770:12785   */\n      mstore\n        /* \"#utility.yul\":12808:12812   */\n      0x24\n        /* \"#utility.yul\":12805:12806   */\n      0x00\n        /* \"#utility.yul\":12798:12813   */\n      revert\n        /* \"#utility.yul\":12683:12823   */\n    tag_251:\n      pop\n        /* \"#utility.yul\":12850:12851   */\n      0x01\n        /* \"#utility.yul\":12839:12852   */\n      add\n      swap1\n        /* \"#utility.yul\":12626:12858   */\n      jump\t// out\n        /* \"#utility.yul\":12863:13219   */\n    tag_125:\n        /* \"#utility.yul\":13065:13067   */\n      0x20\n        /* \"#utility.yul\":13047:13068   */\n      dup1\n      dup3\n      mstore\n        /* \"#utility.yul\":13084:13102   */\n      dup2\n      dup2\n      add\n        /* \"#utility.yul\":13077:13107   */\n      mstore\n        /* \"#utility.yul\":13143:13177   */\n      0x4f776e61626c653a2063616c6c6572206973206e6f7420746865206f776e6572\n        /* \"#utility.yul\":13138:13140   */\n      0x40\n        /* \"#utility.yul\":13123:13141   */\n      dup3\n      add\n        /* \"#utility.yul\":13116:13178   */\n      mstore\n        /* \"#utility.yul\":13210:13212   */\n      0x60\n        /* \"#utility.yul\":13195:13213   */\n      add\n      swap1\n        /* \"#utility.yul\":12863:13219   */\n      jump\t// out\n\n    auxdata: 0xa26469706673582212208fad268cf4d4d8854b7a222c1c976591507dc1497ec014996c020a91747f990764736f6c634300080e0033\n}\n",
				"bytecode": {
					"linkReferences": {},
					"object": "608060405234801561001057600080fd5b5061001a3361001f565b61006f565b600080546001600160a01b038381166001600160a01b0319831681178455604051919092169283917f8be0079c531659141344cd1fd0a4f28419497f9722a3daafe3b4186f6b6457e09190a35050565b610da08061007e6000396000f3fe608060405234801561001057600080fd5b50600436106100835760003560e01c806301ffc9a714610088578063150b7a02146100b05780632e3f4a5d146100e7578063407299d7146100fc578063715018a61461010f5780638da5cb5b14610117578063bc197c8114610137578063f23a6e6114610156578063f2fde38b14610175575b600080fd5b61009b6100963660046107c6565b610188565b60405190151581526020015b60405180910390f35b6100ce6100be3660046108c1565b630a85bd0160e11b949350505050565b6040516001600160e01b031990911681526020016100a7565b6100fa6100f536600461092c565b6101bf565b005b6100fa61010a366004610a80565b610475565b6100fa61068c565b61011f6106c7565b6040516001600160a01b0390911681526020016100a7565b6100ce610145366004610b8d565b63bc197c8160e01b95945050505050565b6100ce610164366004610c2d565b63f23a6e6160e01b95945050505050565b6100fa610183366004610c95565b6106d6565b60006001600160e01b03198216630271189760e51b14806101b957506301ffc9a760e01b6001600160e01b03198316145b92915050565b6001600160a01b03831615610377576040516323b872dd60e01b81526001600160a01b038416906323b872dd906101fe90889088908790600401610cb2565b6020604051808303816000875af115801561021d573d6000803e3d6000fd5b505050506040513d601f19601f820116820180604052508101906102419190610cd6565b6102a05760405162461bcd60e51b815260206004820152602560248201527f5472616e73666572206f6620746f6b656e7320746f2072656365697665722066604482015264185a5b195960da1b60648201526084015b60405180910390fd5b826001600160a01b03166323b872dd866102b86106c7565b846040518463ffffffff1660e01b81526004016102d793929190610cb2565b6020604051808303816000875af11580156102f6573d6000803e3d6000fd5b505050506040513d601f19601f8201168201806040525081019061031a9190610cd6565b6103725760405162461bcd60e51b815260206004820152602360248201527f5472616e73666572206f6620746f6b656e7320746f20537461746572206661696044820152621b195960ea1b6064820152608401610297565b61046e565b6040516001600160a01b0385169083156108fc029084906000818181858888f193505050506103f35760405162461bcd60e51b815260206004820152602260248201527f5472616e73666572206f662045544820746f207265636569766572206661696c604482015261195960f21b6064820152608401610297565b6103fb6106c7565b6001600160a01b03166108fc829081150290604051600060405180830381858888f1935050505061046e5760405162461bcd60e51b815260206004820181905260248201527f5472616e73666572206f662045544820746f20537461746572206661696c65646044820152606401610297565b5050505050565b82518251811480156104875750808251145b6104d35760405162461bcd60e51b815260206004820181905260248201527f546f6b656e20696e666f732070726f76696465642061726520696e76616c69646044820152606401610297565b60005b81811015610683578281815181106104f0576104f0610cf8565b602002602001015160ff1660000361059b5784818151811061051457610514610cf8565b60200260200101516001600160a01b03166342842e0e888887858151811061053e5761053e610cf8565b60200260200101516040518463ffffffff1660e01b815260040161056493929190610cb2565b600060405180830381600087803b15801561057e57600080fd5b505af1158015610592573d6000803e3d6000fd5b50505050610673565b8481815181106105ad576105ad610cf8565b60200260200101516001600160a01b031663f242432a88888785815181106105d7576105d7610cf8565b602002602001015160016040518563ffffffff1660e01b815260040161064094939291906001600160a01b0394851681529290931660208301526040820152606081019190915260a060808201819052600490820152630307830360e41b60c082015260e00190565b600060405180830381600087803b15801561065a57600080fd5b505af115801561066e573d6000803e3d6000fd5b505050505b61067c81610d0e565b90506104d6565b50505050505050565b336106956106c7565b6001600160a01b0316146106bb5760405162461bcd60e51b815260040161029790610d35565b6106c56000610776565b565b6000546001600160a01b031690565b336106df6106c7565b6001600160a01b0316146107055760405162461bcd60e51b815260040161029790610d35565b6001600160a01b03811661076a5760405162461bcd60e51b815260206004820152602660248201527f4f776e61626c653a206e6577206f776e657220697320746865207a65726f206160448201526564647265737360d01b6064820152608401610297565b61077381610776565b50565b600080546001600160a01b038381166001600160a01b0319831681178455604051919092169283917f8be0079c531659141344cd1fd0a4f28419497f9722a3daafe3b4186f6b6457e09190a35050565b6000602082840312156107d857600080fd5b81356001600160e01b0319811681146107f057600080fd5b9392505050565b6001600160a01b038116811461077357600080fd5b634e487b7160e01b600052604160045260246000fd5b604051601f8201601f191681016001600160401b038111828210171561084a5761084a61080c565b604052919050565b600082601f83011261086357600080fd5b81356001600160401b0381111561087c5761087c61080c565b61088f601f8201601f1916602001610822565b8181528460208386010111156108a457600080fd5b816020850160208301376000918101602001919091529392505050565b600080600080608085870312156108d757600080fd5b84356108e2816107f7565b935060208501356108f2816107f7565b92506040850135915060608501356001600160401b0381111561091457600080fd5b61092087828801610852565b91505092959194509250565b600080600080600060a0868803121561094457600080fd5b853561094f816107f7565b9450602086013561095f816107f7565b9350604086013561096f816107f7565b94979396509394606081013594506080013592915050565b60006001600160401b038211156109a0576109a061080c565b5060051b60200190565b600082601f8301126109bb57600080fd5b813560206109d06109cb83610987565b610822565b82815260059290921b840181019181810190868411156109ef57600080fd5b8286015b84811015610a0a57803583529183019183016109f3565b509695505050505050565b600082601f830112610a2657600080fd5b81356020610a366109cb83610987565b82815260059290921b84018101918181019086841115610a5557600080fd5b8286015b84811015610a0a57803560ff81168114610a735760008081fd5b8352918301918301610a59565b600080600080600060a08688031215610a9857600080fd5b8535610aa3816107f7565b9450602086810135610ab4816107f7565b945060408701356001600160401b0380821115610ad057600080fd5b818901915089601f830112610ae457600080fd5b8135610af26109cb82610987565b81815260059190911b8301840190848101908c831115610b1157600080fd5b938501935b82851015610b38578435610b29816107f7565b82529385019390850190610b16565b975050506060890135925080831115610b5057600080fd5b610b5c8a848b016109aa565b94506080890135925080831115610b7257600080fd5b5050610b8088828901610a15565b9150509295509295909350565b600080600080600060a08688031215610ba557600080fd5b8535610bb0816107f7565b94506020860135610bc0816107f7565b935060408601356001600160401b0380821115610bdc57600080fd5b610be889838a016109aa565b94506060880135915080821115610bfe57600080fd5b610c0a89838a016109aa565b93506080880135915080821115610c2057600080fd5b50610b8088828901610852565b600080600080600060a08688031215610c4557600080fd5b8535610c50816107f7565b94506020860135610c60816107f7565b9350604086013592506060860135915060808601356001600160401b03811115610c8957600080fd5b610b8088828901610852565b600060208284031215610ca757600080fd5b81356107f0816107f7565b6001600160a01b039384168152919092166020820152604081019190915260600190565b600060208284031215610ce857600080fd5b815180151581146107f057600080fd5b634e487b7160e01b600052603260045260246000fd5b600060018201610d2e57634e487b7160e01b600052601160045260246000fd5b5060010190565b6020808252818101527f4f776e61626c653a2063616c6c6572206973206e6f7420746865206f776e657260408201526060019056fea26469706673582212208fad268cf4d4d8854b7a222c1c976591507dc1497ec014996c020a91747f990764736f6c634300080e0033",
					"opcodes": "PUSH1 0x80 PUSH1 0x40 MSTORE CALLVALUE DUP1 ISZERO PUSH2 0x10 JUMPI PUSH1 0x0 DUP1 REVERT JUMPDEST POP PUSH2 0x1A CALLER PUSH2 0x1F JUMP JUMPDEST PUSH2 0x6F JUMP JUMPDEST PUSH1 0x0 DUP1 SLOAD PUSH1 0x1 PUSH1 0x1 PUSH1 0xA0 SHL SUB DUP4 DUP2 AND PUSH1 0x1 PUSH1 0x1 PUSH1 0xA0 SHL SUB NOT DUP4 AND DUP2 OR DUP5 SSTORE PUSH1 0x40 MLOAD SWAP2 SWAP1 SWAP3 AND SWAP3 DUP4 SWAP2 PUSH32 0x8BE0079C531659141344CD1FD0A4F28419497F9722A3DAAFE3B4186F6B6457E0 SWAP2 SWAP1 LOG3 POP POP JUMP JUMPDEST PUSH2 0xDA0 DUP1 PUSH2 0x7E PUSH1 0x0 CODECOPY PUSH1 0x0 RETURN INVALID PUSH1 0x80 PUSH1 0x40 MSTORE CALLVALUE DUP1 ISZERO PUSH2 0x10 JUMPI PUSH1 0x0 DUP1 REVERT JUMPDEST POP PUSH1 0x4 CALLDATASIZE LT PUSH2 0x83 JUMPI PUSH1 0x0 CALLDATALOAD PUSH1 0xE0 SHR DUP1 PUSH4 0x1FFC9A7 EQ PUSH2 0x88 JUMPI DUP1 PUSH4 0x150B7A02 EQ PUSH2 0xB0 JUMPI DUP1 PUSH4 0x2E3F4A5D EQ PUSH2 0xE7 JUMPI DUP1 PUSH4 0x407299D7 EQ PUSH2 0xFC JUMPI DUP1 PUSH4 0x715018A6 EQ PUSH2 0x10F JUMPI DUP1 PUSH4 0x8DA5CB5B EQ PUSH2 0x117 JUMPI DUP1 PUSH4 0xBC197C81 EQ PUSH2 0x137 JUMPI DUP1 PUSH4 0xF23A6E61 EQ PUSH2 0x156 JUMPI DUP1 PUSH4 0xF2FDE38B EQ PUSH2 0x175 JUMPI JUMPDEST PUSH1 0x0 DUP1 REVERT JUMPDEST PUSH2 0x9B PUSH2 0x96 CALLDATASIZE PUSH1 0x4 PUSH2 0x7C6 JUMP JUMPDEST PUSH2 0x188 JUMP JUMPDEST PUSH1 0x40 MLOAD SWAP1 ISZERO ISZERO DUP2 MSTORE PUSH1 0x20 ADD JUMPDEST PUSH1 0x40 MLOAD DUP1 SWAP2 SUB SWAP1 RETURN JUMPDEST PUSH2 0xCE PUSH2 0xBE CALLDATASIZE PUSH1 0x4 PUSH2 0x8C1 JUMP JUMPDEST PUSH4 0xA85BD01 PUSH1 0xE1 SHL SWAP5 SWAP4 POP POP POP POP JUMP JUMPDEST PUSH1 0x40 MLOAD PUSH1 0x1 PUSH1 0x1 PUSH1 0xE0 SHL SUB NOT SWAP1 SWAP2 AND DUP2 MSTORE PUSH1 0x20 ADD PUSH2 0xA7 JUMP JUMPDEST PUSH2 0xFA PUSH2 0xF5 CALLDATASIZE PUSH1 0x4 PUSH2 0x92C JUMP JUMPDEST PUSH2 0x1BF JUMP JUMPDEST STOP JUMPDEST PUSH2 0xFA PUSH2 0x10A CALLDATASIZE PUSH1 0x4 PUSH2 0xA80 JUMP JUMPDEST PUSH2 0x475 JUMP JUMPDEST PUSH2 0xFA PUSH2 0x68C JUMP JUMPDEST PUSH2 0x11F PUSH2 0x6C7 JUMP JUMPDEST PUSH1 0x40 MLOAD PUSH1 0x1 PUSH1 0x1 PUSH1 0xA0 SHL SUB SWAP1 SWAP2 AND DUP2 MSTORE PUSH1 0x20 ADD PUSH2 0xA7 JUMP JUMPDEST PUSH2 0xCE PUSH2 0x145 CALLDATASIZE PUSH1 0x4 PUSH2 0xB8D JUMP JUMPDEST PUSH4 0xBC197C81 PUSH1 0xE0 SHL SWAP6 SWAP5 POP POP POP POP POP JUMP JUMPDEST PUSH2 0xCE PUSH2 0x164 CALLDATASIZE PUSH1 0x4 PUSH2 0xC2D JUMP JUMPDEST PUSH4 0xF23A6E61 PUSH1 0xE0 SHL SWAP6 SWAP5 POP POP POP POP POP JUMP JUMPDEST PUSH2 0xFA PUSH2 0x183 CALLDATASIZE PUSH1 0x4 PUSH2 0xC95 JUMP JUMPDEST PUSH2 0x6D6 JUMP JUMPDEST PUSH1 0x0 PUSH1 0x1 PUSH1 0x1 PUSH1 0xE0 SHL SUB NOT DUP3 AND PUSH4 0x2711897 PUSH1 0xE5 SHL EQ DUP1 PUSH2 0x1B9 JUMPI POP PUSH4 0x1FFC9A7 PUSH1 0xE0 SHL PUSH1 0x1 PUSH1 0x1 PUSH1 0xE0 SHL SUB NOT DUP4 AND EQ JUMPDEST SWAP3 SWAP2 POP POP JUMP JUMPDEST PUSH1 0x1 PUSH1 0x1 PUSH1 0xA0 SHL SUB DUP4 AND ISZERO PUSH2 0x377 JUMPI PUSH1 0x40 MLOAD PUSH4 0x23B872DD PUSH1 0xE0 SHL DUP2 MSTORE PUSH1 0x1 PUSH1 0x1 PUSH1 0xA0 SHL SUB DUP5 AND SWAP1 PUSH4 0x23B872DD SWAP1 PUSH2 0x1FE SWAP1 DUP9 SWAP1 DUP9 SWAP1 DUP8 SWAP1 PUSH1 0x4 ADD PUSH2 0xCB2 JUMP JUMPDEST PUSH1 0x20 PUSH1 0x40 MLOAD DUP1 DUP4 SUB DUP2 PUSH1 0x0 DUP8 GAS CALL ISZERO DUP1 ISZERO PUSH2 0x21D JUMPI RETURNDATASIZE PUSH1 0x0 DUP1 RETURNDATACOPY RETURNDATASIZE PUSH1 0x0 REVERT JUMPDEST POP POP POP POP PUSH1 0x40 MLOAD RETURNDATASIZE PUSH1 0x1F NOT PUSH1 0x1F DUP3 ADD AND DUP3 ADD DUP1 PUSH1 0x40 MSTORE POP DUP2 ADD SWAP1 PUSH2 0x241 SWAP2 SWAP1 PUSH2 0xCD6 JUMP JUMPDEST PUSH2 0x2A0 JUMPI PUSH1 0x40 MLOAD PUSH3 0x461BCD PUSH1 0xE5 SHL DUP2 MSTORE PUSH1 0x20 PUSH1 0x4 DUP3 ADD MSTORE PUSH1 0x25 PUSH1 0x24 DUP3 ADD MSTORE PUSH32 0x5472616E73666572206F6620746F6B656E7320746F2072656365697665722066 PUSH1 0x44 DUP3 ADD MSTORE PUSH5 0x185A5B1959 PUSH1 0xDA SHL PUSH1 0x64 DUP3 ADD MSTORE PUSH1 0x84 ADD JUMPDEST PUSH1 0x40 MLOAD DUP1 SWAP2 SUB SWAP1 REVERT JUMPDEST DUP3 PUSH1 0x1 PUSH1 0x1 PUSH1 0xA0 SHL SUB AND PUSH4 0x23B872DD DUP7 PUSH2 0x2B8 PUSH2 0x6C7 JUMP JUMPDEST DUP5 PUSH1 0x40 MLOAD DUP5 PUSH4 0xFFFFFFFF AND PUSH1 0xE0 SHL DUP2 MSTORE PUSH1 0x4 ADD PUSH2 0x2D7 SWAP4 SWAP3 SWAP2 SWAP1 PUSH2 0xCB2 JUMP JUMPDEST PUSH1 0x20 PUSH1 0x40 MLOAD DUP1 DUP4 SUB DUP2 PUSH1 0x0 DUP8 GAS CALL ISZERO DUP1 ISZERO PUSH2 0x2F6 JUMPI RETURNDATASIZE PUSH1 0x0 DUP1 RETURNDATACOPY RETURNDATASIZE PUSH1 0x0 REVERT JUMPDEST POP POP POP POP PUSH1 0x40 MLOAD RETURNDATASIZE PUSH1 0x1F NOT PUSH1 0x1F DUP3 ADD AND DUP3 ADD DUP1 PUSH1 0x40 MSTORE POP DUP2 ADD SWAP1 PUSH2 0x31A SWAP2 SWAP1 PUSH2 0xCD6 JUMP JUMPDEST PUSH2 0x372 JUMPI PUSH1 0x40 MLOAD PUSH3 0x461BCD PUSH1 0xE5 SHL DUP2 MSTORE PUSH1 0x20 PUSH1 0x4 DUP3 ADD MSTORE PUSH1 0x23 PUSH1 0x24 DUP3 ADD MSTORE PUSH32 0x5472616E73666572206F6620746F6B656E7320746F2053746174657220666169 PUSH1 0x44 DUP3 ADD MSTORE PUSH3 0x1B1959 PUSH1 0xEA SHL PUSH1 0x64 DUP3 ADD MSTORE PUSH1 0x84 ADD PUSH2 0x297 JUMP JUMPDEST PUSH2 0x46E JUMP JUMPDEST PUSH1 0x40 MLOAD PUSH1 0x1 PUSH1 0x1 PUSH1 0xA0 SHL SUB DUP6 AND SWAP1 DUP4 ISZERO PUSH2 0x8FC MUL SWAP1 DUP5 SWAP1 PUSH1 0x0 DUP2 DUP2 DUP2 DUP6 DUP9 DUP9 CALL SWAP4 POP POP POP POP PUSH2 0x3F3 JUMPI PUSH1 0x40 MLOAD PUSH3 0x461BCD PUSH1 0xE5 SHL DUP2 MSTORE PUSH1 0x20 PUSH1 0x4 DUP3 ADD MSTORE PUSH1 0x22 PUSH1 0x24 DUP3 ADD MSTORE PUSH32 0x5472616E73666572206F662045544820746F207265636569766572206661696C PUSH1 0x44 DUP3 ADD MSTORE PUSH2 0x1959 PUSH1 0xF2 SHL PUSH1 0x64 DUP3 ADD MSTORE PUSH1 0x84 ADD PUSH2 0x297 JUMP JUMPDEST PUSH2 0x3FB PUSH2 0x6C7 JUMP JUMPDEST PUSH1 0x1 PUSH1 0x1 PUSH1 0xA0 SHL SUB AND PUSH2 0x8FC DUP3 SWAP1 DUP2 ISZERO MUL SWAP1 PUSH1 0x40 MLOAD PUSH1 0x0 PUSH1 0x40 MLOAD DUP1 DUP4 SUB DUP2 DUP6 DUP9 DUP9 CALL SWAP4 POP POP POP POP PUSH2 0x46E JUMPI PUSH1 0x40 MLOAD PUSH3 0x461BCD PUSH1 0xE5 SHL DUP2 MSTORE PUSH1 0x20 PUSH1 0x4 DUP3 ADD DUP2 SWAP1 MSTORE PUSH1 0x24 DUP3 ADD MSTORE PUSH32 0x5472616E73666572206F662045544820746F20537461746572206661696C6564 PUSH1 0x44 DUP3 ADD MSTORE PUSH1 0x64 ADD PUSH2 0x297 JUMP JUMPDEST POP POP POP POP POP JUMP JUMPDEST DUP3 MLOAD DUP3 MLOAD DUP2 EQ DUP1 ISZERO PUSH2 0x487 JUMPI POP DUP1 DUP3 MLOAD EQ JUMPDEST PUSH2 0x4D3 JUMPI PUSH1 0x40 MLOAD PUSH3 0x461BCD PUSH1 0xE5 SHL DUP2 MSTORE PUSH1 0x20 PUSH1 0x4 DUP3 ADD DUP2 SWAP1 MSTORE PUSH1 0x24 DUP3 ADD MSTORE PUSH32 0x546F6B656E20696E666F732070726F76696465642061726520696E76616C6964 PUSH1 0x44 DUP3 ADD MSTORE PUSH1 0x64 ADD PUSH2 0x297 JUMP JUMPDEST PUSH1 0x0 JUMPDEST DUP2 DUP2 LT ISZERO PUSH2 0x683 JUMPI DUP3 DUP2 DUP2 MLOAD DUP2 LT PUSH2 0x4F0 JUMPI PUSH2 0x4F0 PUSH2 0xCF8 JUMP JUMPDEST PUSH1 0x20 MUL PUSH1 0x20 ADD ADD MLOAD PUSH1 0xFF AND PUSH1 0x0 SUB PUSH2 0x59B JUMPI DUP5 DUP2 DUP2 MLOAD DUP2 LT PUSH2 0x514 JUMPI PUSH2 0x514 PUSH2 0xCF8 JUMP JUMPDEST PUSH1 0x20 MUL PUSH1 0x20 ADD ADD MLOAD PUSH1 0x1 PUSH1 0x1 PUSH1 0xA0 SHL SUB AND PUSH4 0x42842E0E DUP9 DUP9 DUP8 DUP6 DUP2 MLOAD DUP2 LT PUSH2 0x53E JUMPI PUSH2 0x53E PUSH2 0xCF8 JUMP JUMPDEST PUSH1 0x20 MUL PUSH1 0x20 ADD ADD MLOAD PUSH1 0x40 MLOAD DUP5 PUSH4 0xFFFFFFFF AND PUSH1 0xE0 SHL DUP2 MSTORE PUSH1 0x4 ADD PUSH2 0x564 SWAP4 SWAP3 SWAP2 SWAP1 PUSH2 0xCB2 JUMP JUMPDEST PUSH1 0x0 PUSH1 0x40 MLOAD DUP1 DUP4 SUB DUP2 PUSH1 0x0 DUP8 DUP1 EXTCODESIZE ISZERO DUP1 ISZERO PUSH2 0x57E JUMPI PUSH1 0x0 DUP1 REVERT JUMPDEST POP GAS CALL ISZERO DUP1 ISZERO PUSH2 0x592 JUMPI RETURNDATASIZE PUSH1 0x0 DUP1 RETURNDATACOPY RETURNDATASIZE PUSH1 0x0 REVERT JUMPDEST POP POP POP POP PUSH2 0x673 JUMP JUMPDEST DUP5 DUP2 DUP2 MLOAD DUP2 LT PUSH2 0x5AD JUMPI PUSH2 0x5AD PUSH2 0xCF8 JUMP JUMPDEST PUSH1 0x20 MUL PUSH1 0x20 ADD ADD MLOAD PUSH1 0x1 PUSH1 0x1 PUSH1 0xA0 SHL SUB AND PUSH4 0xF242432A DUP9 DUP9 DUP8 DUP6 DUP2 MLOAD DUP2 LT PUSH2 0x5D7 JUMPI PUSH2 0x5D7 PUSH2 0xCF8 JUMP JUMPDEST PUSH1 0x20 MUL PUSH1 0x20 ADD ADD MLOAD PUSH1 0x1 PUSH1 0x40 MLOAD DUP6 PUSH4 0xFFFFFFFF AND PUSH1 0xE0 SHL DUP2 MSTORE PUSH1 0x4 ADD PUSH2 0x640 SWAP5 SWAP4 SWAP3 SWAP2 SWAP1 PUSH1 0x1 PUSH1 0x1 PUSH1 0xA0 SHL SUB SWAP5 DUP6 AND DUP2 MSTORE SWAP3 SWAP1 SWAP4 AND PUSH1 0x20 DUP4 ADD MSTORE PUSH1 0x40 DUP3 ADD MSTORE PUSH1 0x60 DUP2 ADD SWAP2 SWAP1 SWAP2 MSTORE PUSH1 0xA0 PUSH1 0x80 DUP3 ADD DUP2 SWAP1 MSTORE PUSH1 0x4 SWAP1 DUP3 ADD MSTORE PUSH4 0x3078303 PUSH1 0xE4 SHL PUSH1 0xC0 DUP3 ADD MSTORE PUSH1 0xE0 ADD SWAP1 JUMP JUMPDEST PUSH1 0x0 PUSH1 0x40 MLOAD DUP1 DUP4 SUB DUP2 PUSH1 0x0 DUP8 DUP1 EXTCODESIZE ISZERO DUP1 ISZERO PUSH2 0x65A JUMPI PUSH1 0x0 DUP1 REVERT JUMPDEST POP GAS CALL ISZERO DUP1 ISZERO PUSH2 0x66E JUMPI RETURNDATASIZE PUSH1 0x0 DUP1 RETURNDATACOPY RETURNDATASIZE PUSH1 0x0 REVERT JUMPDEST POP POP POP POP JUMPDEST PUSH2 0x67C DUP2 PUSH2 0xD0E JUMP JUMPDEST SWAP1 POP PUSH2 0x4D6 JUMP JUMPDEST POP POP POP POP POP POP POP JUMP JUMPDEST CALLER PUSH2 0x695 PUSH2 0x6C7 JUMP JUMPDEST PUSH1 0x1 PUSH1 0x1 PUSH1 0xA0 SHL SUB AND EQ PUSH2 0x6BB JUMPI PUSH1 0x40 MLOAD PUSH3 0x461BCD PUSH1 0xE5 SHL DUP2 MSTORE PUSH1 0x4 ADD PUSH2 0x297 SWAP1 PUSH2 0xD35 JUMP JUMPDEST PUSH2 0x6C5 PUSH1 0x0 PUSH2 0x776 JUMP JUMPDEST JUMP JUMPDEST PUSH1 0x0 SLOAD PUSH1 0x1 PUSH1 0x1 PUSH1 0xA0 SHL SUB AND SWAP1 JUMP JUMPDEST CALLER PUSH2 0x6DF PUSH2 0x6C7 JUMP JUMPDEST PUSH1 0x1 PUSH1 0x1 PUSH1 0xA0 SHL SUB AND EQ PUSH2 0x705 JUMPI PUSH1 0x40 MLOAD PUSH3 0x461BCD PUSH1 0xE5 SHL DUP2 MSTORE PUSH1 0x4 ADD PUSH2 0x297 SWAP1 PUSH2 0xD35 JUMP JUMPDEST PUSH1 0x1 PUSH1 0x1 PUSH1 0xA0 SHL SUB DUP2 AND PUSH2 0x76A JUMPI PUSH1 0x40 MLOAD PUSH3 0x461BCD PUSH1 0xE5 SHL DUP2 MSTORE PUSH1 0x20 PUSH1 0x4 DUP3 ADD MSTORE PUSH1 0x26 PUSH1 0x24 DUP3 ADD MSTORE PUSH32 0x4F776E61626C653A206E6577206F776E657220697320746865207A65726F2061 PUSH1 0x44 DUP3 ADD MSTORE PUSH6 0x646472657373 PUSH1 0xD0 SHL PUSH1 0x64 DUP3 ADD MSTORE PUSH1 0x84 ADD PUSH2 0x297 JUMP JUMPDEST PUSH2 0x773 DUP2 PUSH2 0x776 JUMP JUMPDEST POP JUMP JUMPDEST PUSH1 0x0 DUP1 SLOAD PUSH1 0x1 PUSH1 0x1 PUSH1 0xA0 SHL SUB DUP4 DUP2 AND PUSH1 0x1 PUSH1 0x1 PUSH1 0xA0 SHL SUB NOT DUP4 AND DUP2 OR DUP5 SSTORE PUSH1 0x40 MLOAD SWAP2 SWAP1 SWAP3 AND SWAP3 DUP4 SWAP2 PUSH32 0x8BE0079C531659141344CD1FD0A4F28419497F9722A3DAAFE3B4186F6B6457E0 SWAP2 SWAP1 LOG3 POP POP JUMP JUMPDEST PUSH1 0x0 PUSH1 0x20 DUP3 DUP5 SUB SLT ISZERO PUSH2 0x7D8 JUMPI PUSH1 0x0 DUP1 REVERT JUMPDEST DUP2 CALLDATALOAD PUSH1 0x1 PUSH1 0x1 PUSH1 0xE0 SHL SUB NOT DUP2 AND DUP2 EQ PUSH2 0x7F0 JUMPI PUSH1 0x0 DUP1 REVERT JUMPDEST SWAP4 SWAP3 POP POP POP JUMP JUMPDEST PUSH1 0x1 PUSH1 0x1 PUSH1 0xA0 SHL SUB DUP2 AND DUP2 EQ PUSH2 0x773 JUMPI PUSH1 0x0 DUP1 REVERT JUMPDEST PUSH4 0x4E487B71 PUSH1 0xE0 SHL PUSH1 0x0 MSTORE PUSH1 0x41 PUSH1 0x4 MSTORE PUSH1 0x24 PUSH1 0x0 REVERT JUMPDEST PUSH1 0x40 MLOAD PUSH1 0x1F DUP3 ADD PUSH1 0x1F NOT AND DUP2 ADD PUSH1 0x1 PUSH1 0x1 PUSH1 0x40 SHL SUB DUP2 GT DUP3 DUP3 LT OR ISZERO PUSH2 0x84A JUMPI PUSH2 0x84A PUSH2 0x80C JUMP JUMPDEST PUSH1 0x40 MSTORE SWAP2 SWAP1 POP JUMP JUMPDEST PUSH1 0x0 DUP3 PUSH1 0x1F DUP4 ADD SLT PUSH2 0x863 JUMPI PUSH1 0x0 DUP1 REVERT JUMPDEST DUP2 CALLDATALOAD PUSH1 0x1 PUSH1 0x1 PUSH1 0x40 SHL SUB DUP2 GT ISZERO PUSH2 0x87C JUMPI PUSH2 0x87C PUSH2 0x80C JUMP JUMPDEST PUSH2 0x88F PUSH1 0x1F DUP3 ADD PUSH1 0x1F NOT AND PUSH1 0x20 ADD PUSH2 0x822 JUMP JUMPDEST DUP2 DUP2 MSTORE DUP5 PUSH1 0x20 DUP4 DUP7 ADD ADD GT ISZERO PUSH2 0x8A4 JUMPI PUSH1 0x0 DUP1 REVERT JUMPDEST DUP2 PUSH1 0x20 DUP6 ADD PUSH1 0x20 DUP4 ADD CALLDATACOPY PUSH1 0x0 SWAP2 DUP2 ADD PUSH1 0x20 ADD SWAP2 SWAP1 SWAP2 MSTORE SWAP4 SWAP3 POP POP POP JUMP JUMPDEST PUSH1 0x0 DUP1 PUSH1 0x0 DUP1 PUSH1 0x80 DUP6 DUP8 SUB SLT ISZERO PUSH2 0x8D7 JUMPI PUSH1 0x0 DUP1 REVERT JUMPDEST DUP5 CALLDATALOAD PUSH2 0x8E2 DUP2 PUSH2 0x7F7 JUMP JUMPDEST SWAP4 POP PUSH1 0x20 DUP6 ADD CALLDATALOAD PUSH2 0x8F2 DUP2 PUSH2 0x7F7 JUMP JUMPDEST SWAP3 POP PUSH1 0x40 DUP6 ADD CALLDATALOAD SWAP2 POP PUSH1 0x60 DUP6 ADD CALLDATALOAD PUSH1 0x1 PUSH1 0x1 PUSH1 0x40 SHL SUB DUP2 GT ISZERO PUSH2 0x914 JUMPI PUSH1 0x0 DUP1 REVERT JUMPDEST PUSH2 0x920 DUP8 DUP3 DUP9 ADD PUSH2 0x852 JUMP JUMPDEST SWAP2 POP POP SWAP3 SWAP6 SWAP2 SWAP5 POP SWAP3 POP JUMP JUMPDEST PUSH1 0x0 DUP1 PUSH1 0x0 DUP1 PUSH1 0x0 PUSH1 0xA0 DUP7 DUP9 SUB SLT ISZERO PUSH2 0x944 JUMPI PUSH1 0x0 DUP1 REVERT JUMPDEST DUP6 CALLDATALOAD PUSH2 0x94F DUP2 PUSH2 0x7F7 JUMP JUMPDEST SWAP5 POP PUSH1 0x20 DUP7 ADD CALLDATALOAD PUSH2 0x95F DUP2 PUSH2 0x7F7 JUMP JUMPDEST SWAP4 POP PUSH1 0x40 DUP7 ADD CALLDATALOAD PUSH2 0x96F DUP2 PUSH2 0x7F7 JUMP JUMPDEST SWAP5 SWAP8 SWAP4 SWAP7 POP SWAP4 SWAP5 PUSH1 0x60 DUP2 ADD CALLDATALOAD SWAP5 POP PUSH1 0x80 ADD CALLDATALOAD SWAP3 SWAP2 POP POP JUMP JUMPDEST PUSH1 0x0 PUSH1 0x1 PUSH1 0x1 PUSH1 0x40 SHL SUB DUP3 GT ISZERO PUSH2 0x9A0 JUMPI PUSH2 0x9A0 PUSH2 0x80C JUMP JUMPDEST POP PUSH1 0x5 SHL PUSH1 0x20 ADD SWAP1 JUMP JUMPDEST PUSH1 0x0 DUP3 PUSH1 0x1F DUP4 ADD SLT PUSH2 0x9BB JUMPI PUSH1 0x0 DUP1 REVERT JUMPDEST DUP2 CALLDATALOAD PUSH1 0x20 PUSH2 0x9D0 PUSH2 0x9CB DUP4 PUSH2 0x987 JUMP JUMPDEST PUSH2 0x822 JUMP JUMPDEST DUP3 DUP2 MSTORE PUSH1 0x5 SWAP3 SWAP1 SWAP3 SHL DUP5 ADD DUP2 ADD SWAP2 DUP2 DUP2 ADD SWAP1 DUP7 DUP5 GT ISZERO PUSH2 0x9EF JUMPI PUSH1 0x0 DUP1 REVERT JUMPDEST DUP3 DUP7 ADD JUMPDEST DUP5 DUP2 LT ISZERO PUSH2 0xA0A JUMPI DUP1 CALLDATALOAD DUP4 MSTORE SWAP2 DUP4 ADD SWAP2 DUP4 ADD PUSH2 0x9F3 JUMP JUMPDEST POP SWAP7 SWAP6 POP POP POP POP POP POP JUMP JUMPDEST PUSH1 0x0 DUP3 PUSH1 0x1F DUP4 ADD SLT PUSH2 0xA26 JUMPI PUSH1 0x0 DUP1 REVERT JUMPDEST DUP2 CALLDATALOAD PUSH1 0x20 PUSH2 0xA36 PUSH2 0x9CB DUP4 PUSH2 0x987 JUMP JUMPDEST DUP3 DUP2 MSTORE PUSH1 0x5 SWAP3 SWAP1 SWAP3 SHL DUP5 ADD DUP2 ADD SWAP2 DUP2 DUP2 ADD SWAP1 DUP7 DUP5 GT ISZERO PUSH2 0xA55 JUMPI PUSH1 0x0 DUP1 REVERT JUMPDEST DUP3 DUP7 ADD JUMPDEST DUP5 DUP2 LT ISZERO PUSH2 0xA0A JUMPI DUP1 CALLDATALOAD PUSH1 0xFF DUP2 AND DUP2 EQ PUSH2 0xA73 JUMPI PUSH1 0x0 DUP1 DUP2 REVERT JUMPDEST DUP4 MSTORE SWAP2 DUP4 ADD SWAP2 DUP4 ADD PUSH2 0xA59 JUMP JUMPDEST PUSH1 0x0 DUP1 PUSH1 0x0 DUP1 PUSH1 0x0 PUSH1 0xA0 DUP7 DUP9 SUB SLT ISZERO PUSH2 0xA98 JUMPI PUSH1 0x0 DUP1 REVERT JUMPDEST DUP6 CALLDATALOAD PUSH2 0xAA3 DUP2 PUSH2 0x7F7 JUMP JUMPDEST SWAP5 POP PUSH1 0x20 DUP7 DUP2 ADD CALLDATALOAD PUSH2 0xAB4 DUP2 PUSH2 0x7F7 JUMP JUMPDEST SWAP5 POP PUSH1 0x40 DUP8 ADD CALLDATALOAD PUSH1 0x1 PUSH1 0x1 PUSH1 0x40 SHL SUB DUP1 DUP3 GT ISZERO PUSH2 0xAD0 JUMPI PUSH1 0x0 DUP1 REVERT JUMPDEST DUP2 DUP10 ADD SWAP2 POP DUP10 PUSH1 0x1F DUP4 ADD SLT PUSH2 0xAE4 JUMPI PUSH1 0x0 DUP1 REVERT JUMPDEST DUP2 CALLDATALOAD PUSH2 0xAF2 PUSH2 0x9CB DUP3 PUSH2 0x987 JUMP JUMPDEST DUP2 DUP2 MSTORE PUSH1 0x5 SWAP2 SWAP1 SWAP2 SHL DUP4 ADD DUP5 ADD SWAP1 DUP5 DUP2 ADD SWAP1 DUP13 DUP4 GT ISZERO PUSH2 0xB11 JUMPI PUSH1 0x0 DUP1 REVERT JUMPDEST SWAP4 DUP6 ADD SWAP4 JUMPDEST DUP3 DUP6 LT ISZERO PUSH2 0xB38 JUMPI DUP5 CALLDATALOAD PUSH2 0xB29 DUP2 PUSH2 0x7F7 JUMP JUMPDEST DUP3 MSTORE SWAP4 DUP6 ADD SWAP4 SWAP1 DUP6 ADD SWAP1 PUSH2 0xB16 JUMP JUMPDEST SWAP8 POP POP POP PUSH1 0x60 DUP10 ADD CALLDATALOAD SWAP3 POP DUP1 DUP4 GT ISZERO PUSH2 0xB50 JUMPI PUSH1 0x0 DUP1 REVERT JUMPDEST PUSH2 0xB5C DUP11 DUP5 DUP12 ADD PUSH2 0x9AA JUMP JUMPDEST SWAP5 POP PUSH1 0x80 DUP10 ADD CALLDATALOAD SWAP3 POP DUP1 DUP4 GT ISZERO PUSH2 0xB72 JUMPI PUSH1 0x0 DUP1 REVERT JUMPDEST POP POP PUSH2 0xB80 DUP9 DUP3 DUP10 ADD PUSH2 0xA15 JUMP JUMPDEST SWAP2 POP POP SWAP3 SWAP6 POP SWAP3 SWAP6 SWAP1 SWAP4 POP JUMP JUMPDEST PUSH1 0x0 DUP1 PUSH1 0x0 DUP1 PUSH1 0x0 PUSH1 0xA0 DUP7 DUP9 SUB SLT ISZERO PUSH2 0xBA5 JUMPI PUSH1 0x0 DUP1 REVERT JUMPDEST DUP6 CALLDATALOAD PUSH2 0xBB0 DUP2 PUSH2 0x7F7 JUMP JUMPDEST SWAP5 POP PUSH1 0x20 DUP7 ADD CALLDATALOAD PUSH2 0xBC0 DUP2 PUSH2 0x7F7 JUMP JUMPDEST SWAP4 POP PUSH1 0x40 DUP7 ADD CALLDATALOAD PUSH1 0x1 PUSH1 0x1 PUSH1 0x40 SHL SUB DUP1 DUP3 GT ISZERO PUSH2 0xBDC JUMPI PUSH1 0x0 DUP1 REVERT JUMPDEST PUSH2 0xBE8 DUP10 DUP4 DUP11 ADD PUSH2 0x9AA JUMP JUMPDEST SWAP5 POP PUSH1 0x60 DUP9 ADD CALLDATALOAD SWAP2 POP DUP1 DUP3 GT ISZERO PUSH2 0xBFE JUMPI PUSH1 0x0 DUP1 REVERT JUMPDEST PUSH2 0xC0A DUP10 DUP4 DUP11 ADD PUSH2 0x9AA JUMP JUMPDEST SWAP4 POP PUSH1 0x80 DUP9 ADD CALLDATALOAD SWAP2 POP DUP1 DUP3 GT ISZERO PUSH2 0xC20 JUMPI PUSH1 0x0 DUP1 REVERT JUMPDEST POP PUSH2 0xB80 DUP9 DUP3 DUP10 ADD PUSH2 0x852 JUMP JUMPDEST PUSH1 0x0 DUP1 PUSH1 0x0 DUP1 PUSH1 0x0 PUSH1 0xA0 DUP7 DUP9 SUB SLT ISZERO PUSH2 0xC45 JUMPI PUSH1 0x0 DUP1 REVERT JUMPDEST DUP6 CALLDATALOAD PUSH2 0xC50 DUP2 PUSH2 0x7F7 JUMP JUMPDEST SWAP5 POP PUSH1 0x20 DUP7 ADD CALLDATALOAD PUSH2 0xC60 DUP2 PUSH2 0x7F7 JUMP JUMPDEST SWAP4 POP PUSH1 0x40 DUP7 ADD CALLDATALOAD SWAP3 POP PUSH1 0x60 DUP7 ADD CALLDATALOAD SWAP2 POP PUSH1 0x80 DUP7 ADD CALLDATALOAD PUSH1 0x1 PUSH1 0x1 PUSH1 0x40 SHL SUB DUP2 GT ISZERO PUSH2 0xC89 JUMPI PUSH1 0x0 DUP1 REVERT JUMPDEST PUSH2 0xB80 DUP9 DUP3 DUP10 ADD PUSH2 0x852 JUMP JUMPDEST PUSH1 0x0 PUSH1 0x20 DUP3 DUP5 SUB SLT ISZERO PUSH2 0xCA7 JUMPI PUSH1 0x0 DUP1 REVERT JUMPDEST DUP2 CALLDATALOAD PUSH2 0x7F0 DUP2 PUSH2 0x7F7 JUMP JUMPDEST PUSH1 0x1 PUSH1 0x1 PUSH1 0xA0 SHL SUB SWAP4 DUP5 AND DUP2 MSTORE SWAP2 SWAP1 SWAP3 AND PUSH1 0x20 DUP3 ADD MSTORE PUSH1 0x40 DUP2 ADD SWAP2 SWAP1 SWAP2 MSTORE PUSH1 0x60 ADD SWAP1 JUMP JUMPDEST PUSH1 0x0 PUSH1 0x20 DUP3 DUP5 SUB SLT ISZERO PUSH2 0xCE8 JUMPI PUSH1 0x0 DUP1 REVERT JUMPDEST DUP2 MLOAD DUP1 ISZERO ISZERO DUP2 EQ PUSH2 0x7F0 JUMPI PUSH1 0x0 DUP1 REVERT JUMPDEST PUSH4 0x4E487B71 PUSH1 0xE0 SHL PUSH1 0x0 MSTORE PUSH1 0x32 PUSH1 0x4 MSTORE PUSH1 0x24 PUSH1 0x0 REVERT JUMPDEST PUSH1 0x0 PUSH1 0x1 DUP3 ADD PUSH2 0xD2E JUMPI PUSH4 0x4E487B71 PUSH1 0xE0 SHL PUSH1 0x0 MSTORE PUSH1 0x11 PUSH1 0x4 MSTORE PUSH1 0x24 PUSH1 0x0 REVERT JUMPDEST POP PUSH1 0x1 ADD SWAP1 JUMP JUMPDEST PUSH1 0x20 DUP1 DUP3 MSTORE DUP2 DUP2 ADD MSTORE PUSH32 0x4F776E61626C653A2063616C6C6572206973206E6F7420746865206F776E6572 PUSH1 0x40 DUP3 ADD MSTORE PUSH1 0x60 ADD SWAP1 JUMP INVALID LOG2 PUSH5 0x6970667358 0x22 SLT KECCAK256 DUP16 0xAD 0x26 DUP13 DELEGATECALL 0xD4 0xD8 DUP6 0x4B PUSH27 0x222C1C976591507DC1497EC014996C020A91747F990764736F6C63 NUMBER STOP ADDMOD 0xE STOP CALLER "
				},
				"gasEstimates": {
					"creation": {
						"codeDepositCost": "697600",
						"executionCost": "26569",
						"totalCost": "724169"
					},
					"external": {
						"onERC1155BatchReceived(address,address,uint256[],uint256[],bytes)": "infinite",
						"onERC1155Received(address,address,uint256,uint256,bytes)": "infinite",
						"onERC721Received(address,address,uint256,bytes)": "infinite",
						"owner()": "2434",
						"renounceOwnership()": "28225",
						"supportsInterface(bytes4)": "404",
						"transferItems(address,address,address[],uint256[],uint8[])": "infinite",
						"transferOwnership(address)": "infinite",
						"transferTokens(address,address,address,uint256,uint256)": "infinite"
					}
				},
				"methodIdentifiers": {
					"onERC1155BatchReceived(address,address,uint256[],uint256[],bytes)": "bc197c81",
					"onERC1155Received(address,address,uint256,uint256,bytes)": "f23a6e61",
					"onERC721Received(address,address,uint256,bytes)": "150b7a02",
					"owner()": "8da5cb5b",
					"renounceOwnership()": "715018a6",
					"supportsInterface(bytes4)": "01ffc9a7",
					"transferItems(address,address,address[],uint256[],uint8[])": "407299d7",
					"transferOwnership(address)": "f2fde38b",
					"transferTokens(address,address,address,uint256,uint256)": "2e3f4a5d"
				}
			},
			"storageLayout": {
				"storage": [
					{
						"astId": 7,
						"contract": "contracts/plugins/StaterTransfers.sol:StaterTransfers",
						"label": "_owner",
						"offset": 0,
						"slot": "0",
						"type": "t_address"
					}
				],
				"types": {
					"t_address": {
						"encoding": "inplace",
						"label": "address",
						"numberOfBytes": "20"
					}
				}
			},
			"userdoc": {
				"kind": "user",
				"methods": {},
				"version": 1
			}
		}
	}
}