{
	"data": {
		"bytecode": {
			"linkReferences": {},
			"object": "608060405260016009553480156200001657600080fd5b5060405162005d3638038062005d3683398181016040528101906200003c91906200024d565b6200005c620000506200016a60201b60201c565b6200017260201b60201c565b83600160006101000a81548173ffffffffffffffffffffffffffffffffffffffff021916908373ffffffffffffffffffffffffffffffffffffffff16021790555082600260006101000a81548173ffffffffffffffffffffffffffffffffffffffff021916908373ffffffffffffffffffffffffffffffffffffffff16021790555081600360006101000a81548173ffffffffffffffffffffffffffffffffffffffff021916908373ffffffffffffffffffffffffffffffffffffffff16021790555080600460006101000a81548173ffffffffffffffffffffffffffffffffffffffff021916908373ffffffffffffffffffffffffffffffffffffffff1602179055505050505062000312565b600033905090565b60008060009054906101000a900473ffffffffffffffffffffffffffffffffffffffff169050816000806101000a81548173ffffffffffffffffffffffffffffffffffffffff021916908373ffffffffffffffffffffffffffffffffffffffff1602179055508173ffffffffffffffffffffffffffffffffffffffff168173ffffffffffffffffffffffffffffffffffffffff167f8be0079c531659141344cd1fd0a4f28419497f9722a3daafe3b4186f6b6457e060405160405180910390a35050565b6000815190506200024781620002f8565b92915050565b600080600080608085870312156200026a5762000269620002f3565b5b60006200027a8782880162000236565b94505060206200028d8782880162000236565b9350506040620002a08782880162000236565b9250506060620002b38782880162000236565b91505092959194509250565b6000620002cc82620002d3565b9050919050565b600073ffffffffffffffffffffffffffffffffffffffff82169050919050565b600080fd5b6200030381620002bf565b81146200030f57600080fd5b50565b615a1480620003226000396000f3fe6080604052600436106101d85760003560e01c80638395f08311610102578063bc197c8111610095578063e1ec3c6811610064578063e1ec3c681461068f578063f23a6e61146106d3578063f2fde38b14610710578063f5076e7814610739576101d8565b8063bc197c81146105d3578063bdbfa3de14610610578063d442ce0914610639578063d9cbb52d14610664576101d8565b80638f829275116100d15780638f82927514610536578063aadc1ac114610561578063af640d0f1461057d578063b2b71a00146105a8576101d8565b80638395f0831461048457806389306e61146104c45780638ca83f07146104e05780638da5cb5b1461050b576101d8565b806344ff78c71161017a578063715018a611610149578063715018a6146103f05780637b878d42146104075780637c3a00fd146104305780637fb9fe3d1461045b576101d8565b806344ff78c7146103435780634b69cd6c1461038057806367a00c55146103a95780636fb49d73146103c5576101d8565b80632d990756116101b65780632d990756146102825780632e3f4a5d146102c85780632e8fa54b146102f1578063407299d71461031a576101d8565b806301ffc9a7146101dd578063150b7a021461021a5780632a60784114610257575b600080fd5b3480156101e957600080fd5b5061020460048036038101906101ff9190614739565b610762565b6040516102119190614e71565b60405180910390f35b34801561022657600080fd5b50610241600480360381019061023c91906145f2565b6107dc565b60405161024e9190614e8c565b60405180910390f35b34801561026357600080fd5b5061026c6107f0565b6040516102799190614cc6565b60405180910390f35b34801561028e57600080fd5b506102a960048036038101906102a491906147f0565b610816565b6040516102bf9a99989796959493929190614ec2565b60405180910390f35b3480156102d457600080fd5b506102ef60048036038101906102ea91906143d9565b610904565b005b3480156102fd57600080fd5b50610318600480360381019061031391906147af565b610bd7565b005b34801561032657600080fd5b50610341600480360381019061033c9190614454565b610db1565b005b34801561034f57600080fd5b5061036a600480360381019061036591906147f0565b610fa0565b6040516103779190614e71565b60405180910390f35b34801561038c57600080fd5b506103a760048036038101906103a291906148de565b611124565b005b6103c360048036038101906103be919061489e565b611509565b005b3480156103d157600080fd5b506103da6116cc565b6040516103e7919061503e565b60405180910390f35b3480156103fc57600080fd5b506104056116d2565b005b34801561041357600080fd5b5061042e60048036038101906104299190614766565b61175a565b005b34801561043c57600080fd5b50610445611e5d565b604051610452919061503e565b60405180910390f35b34801561046757600080fd5b50610482600480360381019061047d91906147f0565b611e63565b005b34801561049057600080fd5b506104ab60048036038101906104a691906147f0565b6127db565b6040516104bb949392919061510d565b60405180910390f35b6104de60048036038101906104d9919061489e565b61281b565b005b3480156104ec57600080fd5b506104f5612d71565b6040516105029190615152565b60405180910390f35b34801561051757600080fd5b50610520612d87565b60405161052d9190614cc6565b60405180910390f35b34801561054257600080fd5b5061054b612db0565b604051610558919061503e565b60405180910390f35b61057b600480360381019061057691906147f0565b612db6565b005b34801561058957600080fd5b50610592612f82565b60405161059f919061503e565b60405180910390f35b3480156105b457600080fd5b506105bd612f88565b6040516105ca9190614cc6565b60405180910390f35b3480156105df57600080fd5b506105fa60048036038101906105f59190614523565b612fae565b6040516106079190614e8c565b60405180910390f35b34801561061c57600080fd5b50610637600480360381019061063291906147f0565b612fc3565b005b34801561064557600080fd5b5061064e61335d565b60405161065b9190614cc6565b60405180910390f35b34801561067057600080fd5b50610679613383565b6040516106869190614cc6565b60405180910390f35b34801561069b57600080fd5b506106b660048036038101906106b191906147f0565b6133a9565b6040516106ca989796959493929190614ce1565b60405180910390f35b3480156106df57600080fd5b506106fa60048036038101906106f59190614675565b61345f565b6040516107079190614e8c565b60405180910390f35b34801561071c57600080fd5b50610737600480360381019061073291906143ac565b613474565b005b34801561074557600080fd5b50610760600480360381019061075b919061484a565b61356c565b005b60007f4e2312e0000000000000000000000000000000000000000000000000000000007bffffffffffffffffffffffffffffffffffffffffffffffffffffffff1916827bffffffffffffffffffffffffffffffffffffffffffffffffffffffff191614806107d557506107d4826137e7565b5b9050919050565b600063150b7a0260e01b9050949350505050565b600460009054906101000a900473ffffffffffffffffffffffffffffffffffffffff1681565b600b6020528060005260406000206000915090508060000160009054906101000a900460ff16908060010154908060020160009054906101000a900460ff16908060050154908060060154908060070154908060080160009054906101000a900473ffffffffffffffffffffffffffffffffffffffff16908060090160009054906101000a900473ffffffffffffffffffffffffffffffffffffffff169080600a0160009054906101000a900473ffffffffffffffffffffffffffffffffffffffff169080600b0160009054906101000a900473ffffffffffffffffffffffffffffffffffffffff1690508a565b600073ffffffffffffffffffffffffffffffffffffffff168373ffffffffffffffffffffffffffffffffffffffff1614610ae0578273ffffffffffffffffffffffffffffffffffffffff166323b872dd8686856040518463ffffffff1660e01b815260040161097593929190614d5f565b602060405180830381600087803b15801561098f57600080fd5b505af11580156109a3573d6000803e3d6000fd5b505050506040513d601f19601f820116820180604052508101906109c7919061470c565b610a06576040517f08c379a00000000000000000000000000000000000000000000000000000000081526004016109fd90614f7e565b60405180910390fd5b8273ffffffffffffffffffffffffffffffffffffffff166323b872dd86610a2b612d87565b846040518463ffffffff1660e01b8152600401610a4a93929190614d96565b602060405180830381600087803b158015610a6457600080fd5b505af1158015610a78573d6000803e3d6000fd5b505050506040513d601f19601f82011682018060405250810190610a9c919061470c565b610adb576040517f08c379a0000000000000000000000000000000000000000000000000000000008152600401610ad290614fde565b60405180910390fd5b610bd0565b8373ffffffffffffffffffffffffffffffffffffffff166108fc839081150290604051600060405180830381858888f19350505050610b54576040517f08c379a0000000000000000000000000000000000000000000000000000000008152600401610b4b90614fbe565b60405180910390fd5b610b5c612d87565b73ffffffffffffffffffffffffffffffffffffffff166108fc829081150290604051600060405180830381858888f19350505050610bcf576040517f08c379a0000000000000000000000000000000000000000000000000000000008152600401610bc69061501e565b60405180910390fd5b5b5050505050565b610bdf613851565b73ffffffffffffffffffffffffffffffffffffffff16610bfd612d87565b73ffffffffffffffffffffffffffffffffffffffff1614610c53576040517f08c379a0000000000000000000000000000000000000000000000000000000008152600401610c4a90614ffe565b60405180910390fd5b8160000151600581905550816020015160068190555081604001516007819055508160600151600860006101000a81548163ffffffff021916908363ffffffff1602179055508060000151600160006101000a81548173ffffffffffffffffffffffffffffffffffffffff021916908373ffffffffffffffffffffffffffffffffffffffff1602179055508060200151600260006101000a81548173ffffffffffffffffffffffffffffffffffffffff021916908373ffffffffffffffffffffffffffffffffffffffff1602179055508060400151600360006101000a81548173ffffffffffffffffffffffffffffffffffffffff021916908373ffffffffffffffffffffffffffffffffffffffff1602179055508060600151600460006101000a81548173ffffffffffffffffffffffffffffffffffffffff021916908373ffffffffffffffffffffffffffffffffffffffff1602179055505050565b600083519050825181148015610dc75750808251145b610e06576040517f08c379a0000000000000000000000000000000000000000000000000000000008152600401610dfd90614f9e565b60405180910390fd5b60005b81811015610f97576000838281518110610e2657610e256156a0565b5b602002602001015160ff161415610edf57848181518110610e4a57610e496156a0565b5b602002602001015173ffffffffffffffffffffffffffffffffffffffff166342842e0e8888878581518110610e8257610e816156a0565b5b60200260200101516040518463ffffffff1660e01b8152600401610ea893929190614d96565b600060405180830381600087803b158015610ec257600080fd5b505af1158015610ed6573d6000803e3d6000fd5b50505050610f86565b848181518110610ef257610ef16156a0565b5b602002602001015173ffffffffffffffffffffffffffffffffffffffff1663f242432a8888878581518110610f2a57610f296156a0565b5b602002602001015160016040518563ffffffff1660e01b8152600401610f539493929190614dcd565b600060405180830381600087803b158015610f6d57600080fd5b505af1158015610f81573d6000803e3d6000fd5b505050505b80610f9090615599565b9050610e09565b50505050505050565b600060016004811115610fb657610fb5615671565b5b600b600084815260200190815260200160002060000160009054906101000a900460ff166004811115610fec57610feb615671565b5b14801561111d5750600a600083815260200190815260200160002060090160009054906101000a900461ffff1661ffff16600a60008481526020019081526020016000206005015461103e919061536a565b600b600084815260200190815260200160002060020160009054906101000a900460ff1660ff1661106f919061539b565b4261107a91906153f5565b600a600084815260200190815260200160002060090160009054906101000a900461ffff1661ffff16600a6000858152602001908152602001600020600501546110c4919061536a565b600a6000858152602001908152602001600020600601546110e5919061539b565b600b600085815260200190815260200160002060030160006002811061110e5761110d6156a0565b5b015461111a9190615314565b11155b9050919050565b60008461ffff161180156111385750600085115b61114157600080fd5b3373ffffffffffffffffffffffffffffffffffffffff16600a600088815260200190815260200160002060010160009054906101000a900473ffffffffffffffffffffffffffffffffffffffff1673ffffffffffffffffffffffffffffffffffffffff16146111af57600080fd5b600160048111156111c3576111c2615671565b5b600b600088815260200190815260200160002060000160009054906101000a900460ff1660048111156111f9576111f8615671565b5b1061120357600080fd5b6005546112108684613859565b111561121b57600080fd5b80600a60008881526020019081526020016000206005018190555084600a6000888152602001908152602001600020600701819055506064806006546112619190615314565b8661126c919061539b565b611276919061536a565b600b60008881526020019081526020016000206006018190555060008461ffff16600b6000898152602001908152602001600020600601546112b891906155e2565b116112e8578361ffff16600b6000888152602001908152602001600020600601546112e3919061536a565b61131b565b60018461ffff16600b600089815260200190815260200160002060060154611310919061536a565b61131a9190615314565b5b600b60008881526020019081526020016000206005018190555081600a60008881526020019081526020016000206008018190555082600a600088815260200190815260200160002060030160006101000a81548173ffffffffffffffffffffffffffffffffffffffff021916908373ffffffffffffffffffffffffffffffffffffffff16021790555060038461ffff16116113e6576001600b600088815260200190815260200160002060020160006101000a81548160ff021916908360ff160217905550611466565b60058461ffff1611611427576002600b600088815260200190815260200160002060020160006101000a81548160ff021916908360ff160217905550611465565b60068461ffff1610611464576003600b600088815260200190815260200160002060020160006101000a81548160ff021916908360ff1602179055505b5b5b858373ffffffffffffffffffffffffffffffffffffffff167f8e1902f1b79a83752dd0c0b34c25d3d3b241fba59defc28b8fb8e182360136d187600b60008b815260200190815260200160002060060154600b60008c815260200190815260200160002060050154600a60008d815260200190815260200160002060080154878b6040516114f9969594939291906150ac565b60405180910390a3505050505050565b61151282613894565b600073ffffffffffffffffffffffffffffffffffffffff16600a600084815260200190815260200160002060030160009054906101000a900473ffffffffffffffffffffffffffffffffffffffff1673ffffffffffffffffffffffffffffffffffffffff1614156115e557600860009054906101000a900463ffffffff1663ffffffff16600a6000848152602001908152602001600020600701546115b7919061536a565b600a6000848152602001908152602001600020600701546115d89190615314565b3410156115e457600080fd5b5b80600b6000848152602001908152602001600020600101819055506116c833600a600085815260200190815260200160002060010160009054906101000a900473ffffffffffffffffffffffffffffffffffffffff16600a600086815260200190815260200160002060030160009054906101000a900473ffffffffffffffffffffffffffffffffffffffff16600a600087815260200190815260200160002060070154600860009054906101000a900463ffffffff1663ffffffff16600a6000898152602001908152602001600020600701546116c3919061536a565b610904565b5050565b60055481565b6116da613851565b73ffffffffffffffffffffffffffffffffffffffff166116f8612d87565b73ffffffffffffffffffffffffffffffffffffffff161461174e576040517f08c379a000000000000000000000000000000000000000000000000000000000815260040161174590614ffe565b60405180910390fd5b6117586000613b6f565b565b60008160c0015161ffff16118015611776575060008160400151115b801561178757506000816020015151115b61179057600080fd5b8060a00151518160200151511480156117b257508060e00151518160a0015151145b6117bb57600080fd5b6005546117d082604001518360800151613859565b11156117db57600080fd5b8060800151600a600060095481526020019081526020016000206008018190555060038160c0015161ffff1611611843576001600b6000600954815260200190815260200160002060020160006101000a81548160ff021916908360ff1602179055506118cf565b60058160c0015161ffff161161188a576002600b6000600954815260200190815260200160002060020160006101000a81548160ff021916908360ff1602179055506118ce565b60068160c0015161ffff16106118cd576003600b6000600954815260200190815260200160002060020160006101000a81548160ff021916908360ff1602179055505b5b5b8060a00151600a6000600954815260200190815260200160002060040190805190602001906118ff929190613cfc565b508060400151600a60006009548152602001908152602001600020600701819055506064806006546119319190615314565b8260400151611940919061539b565b61194a919061536a565b600b60006009548152602001908152602001600020600601819055508060c00151600a6000600954815260200190815260200160002060090160006101000a81548161ffff021916908361ffff16021790555060008160c0015161ffff16600b60006009548152602001908152602001600020600601546119cb91906155e2565b11611a01578060c0015161ffff16600b60006009548152602001908152602001600020600601546119fc919061536a565b611a3a565b60018160c0015161ffff16600b6000600954815260200190815260200160002060060154611a2f919061536a565b611a399190615314565b5b600b60006009548152602001908152602001600020600501819055506000600b6000600954815260200190815260200160002060000160006101000a81548160ff02191690836004811115611a9257611a91615671565b5b0217905550600160009054906101000a900473ffffffffffffffffffffffffffffffffffffffff16600b6000600954815260200190815260200160002060080160006101000a81548173ffffffffffffffffffffffffffffffffffffffff021916908373ffffffffffffffffffffffffffffffffffffffff160217905550600260009054906101000a900473ffffffffffffffffffffffffffffffffffffffff16600b6000600954815260200190815260200160002060090160006101000a81548173ffffffffffffffffffffffffffffffffffffffff021916908373ffffffffffffffffffffffffffffffffffffffff160217905550600360009054906101000a900473ffffffffffffffffffffffffffffffffffffffff16600b60006009548152602001908152602001600020600a0160006101000a81548173ffffffffffffffffffffffffffffffffffffffff021916908373ffffffffffffffffffffffffffffffffffffffff160217905550600460009054906101000a900473ffffffffffffffffffffffffffffffffffffffff16600b60006009548152602001908152602001600020600b0160006101000a81548173ffffffffffffffffffffffffffffffffffffffff021916908373ffffffffffffffffffffffffffffffffffffffff1602179055508060200151600a600060095481526020019081526020016000206000019080519060200190611cab929190613d49565b5033600a6000600954815260200190815260200160002060010160006101000a81548173ffffffffffffffffffffffffffffffffffffffff021916908373ffffffffffffffffffffffffffffffffffffffff1602179055508060000151600a6000600954815260200190815260200160002060030160006101000a81548173ffffffffffffffffffffffffffffffffffffffff021916908373ffffffffffffffffffffffffffffffffffffffff1602179055508060e00151600a60006009548152602001908152602001600020600a019080519060200190611d8e929190613dd3565b5062093a80600a6000600954815260200190815260200160002060050181905550611dc8333083602001518460a001518560e00151610db1565b600954816000015173ffffffffffffffffffffffffffffffffffffffff163373ffffffffffffffffffffffffffffffffffffffff167f06b4fa68493c57d0a3bcfe8fd7db7297b3f4ed7c3f730fd563791eaafa27439d84602001518560a001518660e00151604051611e3c93929190614e25565b60405180910390a4600960008154611e5390615599565b9190508190555050565b60065481565b600a600082815260200190815260200160002060010160009054906101000a900473ffffffffffffffffffffffffffffffffffffffff1673ffffffffffffffffffffffffffffffffffffffff163373ffffffffffffffffffffffffffffffffffffffff161480611f345750600a600082815260200190815260200160002060020160009054906101000a900473ffffffffffffffffffffffffffffffffffffffff1673ffffffffffffffffffffffffffffffffffffffff163373ffffffffffffffffffffffffffffffffffffffff16145b611f3d57600080fd5b600b6000828152602001908152602001600020600301600160028110611f6657611f656156a0565b5b015442101580611fa25750600b600082815260200190815260200160002060060154600b60008381526020019081526020016000206007015410155b80611fb25750611fb181610fa0565b5b611fbb57600080fd5b60026004811115611fcf57611fce615671565b5b600b600083815260200190815260200160002060000160009054906101000a900460ff16600481111561200557612004615671565b5b14806120585750600160048111156120205761201f615671565b5b600b600083815260200190815260200160002060000160009054906101000a900460ff16600481111561205657612055615671565b5b145b61206157600080fd5b61206a81610fa0565b156122ad576004600b600083815260200190815260200160002060000160006101000a81548160ff021916908360048111156120a9576120a8615671565b5b021790555042600b60008381526020019081526020016000206003016001600281106120d8576120d76156a0565b5b01819055506122a830600a600084815260200190815260200160002060020160009054906101000a900473ffffffffffffffffffffffffffffffffffffffff16600a60008581526020019081526020016000206000018054806020026020016040519081016040528092919081815260200182805480156121ae57602002820191906000526020600020905b8160009054906101000a900473ffffffffffffffffffffffffffffffffffffffff1673ffffffffffffffffffffffffffffffffffffffff1681526020019060010190808311612164575b5050505050600a600086815260200190815260200160002060040180548060200260200160405190810160405280929190818152602001828054801561221357602002820191906000526020600020905b8154815260200190600101908083116121ff575b5050505050600a6000878152602001908152602001600020600a0180548060200260200160405190810160405280929190818152602001828054801561229e57602002820191906000526020600020906000905b82829054906101000a900460ff1660ff16815260200190600101906020826000010492830192600103820291508084116122675790505b5050505050610db1565b612766565b600b60008281526020019081526020016000206003016001600281106122d6576122d56156a0565b5b015442101580156123125750600b600082815260200190815260200160002060060154600b600083815260200190815260200160002060070154105b15612526576004600b600083815260200190815260200160002060000160006101000a81548160ff0219169083600481111561235157612350615671565b5b021790555061252130600a600084815260200190815260200160002060020160009054906101000a900473ffffffffffffffffffffffffffffffffffffffff16600a600085815260200190815260200160002060000180548060200260200160405190810160405280929190818152602001828054801561242757602002820191906000526020600020905b8160009054906101000a900473ffffffffffffffffffffffffffffffffffffffff1673ffffffffffffffffffffffffffffffffffffffff16815260200190600101908083116123dd575b5050505050600a600086815260200190815260200160002060040180548060200260200160405190810160405280929190818152602001828054801561248c57602002820191906000526020600020905b815481526020019060010190808311612478575b5050505050600a6000878152602001908152602001600020600a0180548060200260200160405190810160405280929190818152602001828054801561251757602002820191906000526020600020906000905b82829054906101000a900460ff1660ff16815260200190600101906020826000010492830192600103820291508084116124e05790505b5050505050610db1565b612765565b600b600082815260200190815260200160002060060154600b60008381526020019081526020016000206007015410612764576004600b600083815260200190815260200160002060000160006101000a81548160ff0219169083600481111561259357612592615671565b5b021790555061276330600a600084815260200190815260200160002060010160009054906101000a900473ffffffffffffffffffffffffffffffffffffffff16600a600085815260200190815260200160002060000180548060200260200160405190810160405280929190818152602001828054801561266957602002820191906000526020600020905b8160009054906101000a900473ffffffffffffffffffffffffffffffffffffffff1673ffffffffffffffffffffffffffffffffffffffff168152602001906001019080831161261f575b5050505050600a60008681526020019081526020016000206004018054806020026020016040519081016040528092919081815260200182805480156126ce57602002820191906000526020600020905b8154815260200190600101908083116126ba575b5050505050600a6000878152602001908152602001600020600a0180548060200260200160405190810160405280929190818152602001828054801561275957602002820191906000526020600020906000905b82829054906101000a900460ff1660ff16815260200190600101906020826000010492830192600103820291508084116127225790505b5050505050610db1565b5b5b5b803373ffffffffffffffffffffffffffffffffffffffff167f174efca9557ce00d5a6f26355f73e3873fed7d6f8248757750569e4699146c67600b600085815260200190815260200160002060000160009054906101000a900460ff166040516127d09190614ea7565b60405180910390a350565b600c6020528060005260406000206000915090508060000154908060010154908060020154908060030160009054906101000a900463ffffffff16905084565b3373ffffffffffffffffffffffffffffffffffffffff16600a600084815260200190815260200160002060010160009054906101000a900473ffffffffffffffffffffffffffffffffffffffff1673ffffffffffffffffffffffffffffffffffffffff161461288957600080fd5b6001600481111561289d5761289c615671565b5b600b600084815260200190815260200160002060000160009054906101000a900460ff1660048111156128d3576128d2615671565b5b146128dd57600080fd5b42600b6000848152602001908152602001600020600301600160028110612907576129066156a0565b5b0154101561291457600080fd5b6000341180156129865750600073ffffffffffffffffffffffffffffffffffffffff16600a600084815260200190815260200160002060030160009054906101000a900473ffffffffffffffffffffffffffffffffffffffff1673ffffffffffffffffffffffffffffffffffffffff16145b801561299157508034145b80612a175750600073ffffffffffffffffffffffffffffffffffffffff16600a600084815260200190815260200160002060030160009054906101000a900473ffffffffffffffffffffffffffffffffffffffff1673ffffffffffffffffffffffffffffffffffffffff1614158015612a0a5750600034145b8015612a165750600081115b5b612a2057600080fd5b6000803411612a2f5781612a31565b345b905060008190506000606460065484612a4a919061539b565b612a54919061536a565b90506000612a628633613c33565b90506000606460075484612a76919061539b565b612a80919061536a565b905060018214612b7257600073ffffffffffffffffffffffffffffffffffffffff16600a600089815260200190815260200160002060030160009054906101000a900473ffffffffffffffffffffffffffffffffffffffff1673ffffffffffffffffffffffffffffffffffffffff161415612b58573373ffffffffffffffffffffffffffffffffffffffff166108fc8383612b1b919061536a565b9081150290604051600060405180830381858888f19350505050612b3e57600080fd5b8181612b4a919061536a565b84612b5591906153f5565b93505b8181612b64919061536a565b81612b6f91906153f5565b90505b8084612b7e91906153f5565b935084600b600089815260200190815260200160002060070154612ba29190615314565b600b600089815260200190815260200160002060070181905550600b60008881526020019081526020016000206005015485612bde919061536a565b600a600089815260200190815260200160002060060154612bff9190615314565b600a600089815260200190815260200160002060060181905550600b600088815260200190815260200160002060060154600b60008981526020019081526020016000206007015410612c8c576002600b600089815260200190815260200160002060000160006101000a81548160ff02191690836004811115612c8657612c85615671565b5b02179055505b612d0533600a60008a815260200190815260200160002060020160009054906101000a900473ffffffffffffffffffffffffffffffffffffffff16600a60008b815260200190815260200160002060030160009054906101000a900473ffffffffffffffffffffffffffffffffffffffff168785610904565b867fb5c84f6603b8d7669dbbe31fd93a237657c42054c0b237b7d4215fa463523b5b34868685600b60008e815260200190815260200160002060000160009054906101000a900460ff16604051612d60959493929190615059565b60405180910390a250505050505050565b600860009054906101000a900463ffffffff1681565b60008060009054906101000a900473ffffffffffffffffffffffffffffffffffffffff16905090565b60075481565b612dbf81613894565b6000612dcb8233613c33565b9050600073ffffffffffffffffffffffffffffffffffffffff16600a600084815260200190815260200160002060030160009054906101000a900473ffffffffffffffffffffffffffffffffffffffff1673ffffffffffffffffffffffffffffffffffffffff161415612eab5780600860009054906101000a900463ffffffff1663ffffffff16600a600085815260200190815260200160002060070154612e73919061536a565b612e7d919061536a565b600a600084815260200190815260200160002060070154612e9e9190615314565b341015612eaa57600080fd5b5b612f7e33600a600085815260200190815260200160002060010160009054906101000a900473ffffffffffffffffffffffffffffffffffffffff16600a600086815260200190815260200160002060030160009054906101000a900473ffffffffffffffffffffffffffffffffffffffff16600a60008781526020019081526020016000206007015485600860009054906101000a900463ffffffff1663ffffffff16600a60008a815260200190815260200160002060070154612f6f919061536a565b612f79919061536a565b610904565b5050565b60095481565b600160009054906101000a900473ffffffffffffffffffffffffffffffffffffffff1681565b600063bc197c8160e01b905095945050505050565b600073ffffffffffffffffffffffffffffffffffffffff16600a600083815260200190815260200160002060020160009054906101000a900473ffffffffffffffffffffffffffffffffffffffff1673ffffffffffffffffffffffffffffffffffffffff161461303257600080fd5b3373ffffffffffffffffffffffffffffffffffffffff16600a600083815260200190815260200160002060010160009054906101000a900473ffffffffffffffffffffffffffffffffffffffff1673ffffffffffffffffffffffffffffffffffffffff16146130a057600080fd5b600060048111156130b4576130b3615671565b5b600b600083815260200190815260200160002060000160009054906101000a900460ff1660048111156130ea576130e9615671565b5b146130f457600080fd5b42600b600083815260200190815260200160002060030160016002811061311e5761311d6156a0565b5b01819055506003600b600083815260200190815260200160002060000160006101000a81548160ff0219169083600481111561315d5761315c615671565b5b021790555061332d30600a600084815260200190815260200160002060010160009054906101000a900473ffffffffffffffffffffffffffffffffffffffff16600a600085815260200190815260200160002060000180548060200260200160405190810160405280929190818152602001828054801561323357602002820191906000526020600020905b8160009054906101000a900473ffffffffffffffffffffffffffffffffffffffff1673ffffffffffffffffffffffffffffffffffffffff16815260200190600101908083116131e9575b5050505050600a600086815260200190815260200160002060040180548060200260200160405190810160405280929190818152602001828054801561329857602002820191906000526020600020905b815481526020019060010190808311613284575b5050505050600a6000878152602001908152602001600020600a0180548060200260200160405190810160405280929190818152602001828054801561332357602002820191906000526020600020906000905b82829054906101000a900460ff1660ff16815260200190600101906020826000010492830192600103820291508084116132ec5790505b5050505050610db1565b807fb71becc91961a6b43bcc5b3b630f3dce02c7fd444cf3738c4f188062b1caf5bc60405160405180910390a250565b600360009054906101000a900473ffffffffffffffffffffffffffffffffffffffff1681565b600260009054906101000a900473ffffffffffffffffffffffffffffffffffffffff1681565b600a6020528060005260406000206000915090508060010160009054906101000a900473ffffffffffffffffffffffffffffffffffffffff16908060020160009054906101000a900473ffffffffffffffffffffffffffffffffffffffff16908060030160009054906101000a900473ffffffffffffffffffffffffffffffffffffffff16908060050154908060060154908060070154908060080154908060090160009054906101000a900461ffff16905088565b600063f23a6e6160e01b905095945050505050565b61347c613851565b73ffffffffffffffffffffffffffffffffffffffff1661349a612d87565b73ffffffffffffffffffffffffffffffffffffffff16146134f0576040517f08c379a00000000000000000000000000000000000000000000000000000000081526004016134e790614ffe565b60405180910390fd5b600073ffffffffffffffffffffffffffffffffffffffff168173ffffffffffffffffffffffffffffffffffffffff161415613560576040517f08c379a000000000000000000000000000000000000000000000000000000000815260040161355790614f5e565b60405180910390fd5b61356981613b6f565b50565b613574613851565b73ffffffffffffffffffffffffffffffffffffffff16613592612d87565b73ffffffffffffffffffffffffffffffffffffffff16146135e8576040517f08c379a00000000000000000000000000000000000000000000000000000000081526004016135df90614ffe565b60405180910390fd5b8160000151600c6000858152602001908152602001600020600001819055508160200151600c6000858152602001908152602001600020600101819055508160400151600c6000858152602001908152602001600020600201819055508160600151600c600085815260200190815260200160002060030160006101000a81548163ffffffff021916908363ffffffff1602179055508060000151600b600085815260200190815260200160002060080160006101000a81548173ffffffffffffffffffffffffffffffffffffffff021916908373ffffffffffffffffffffffffffffffffffffffff1602179055508060200151600b600085815260200190815260200160002060090160006101000a81548173ffffffffffffffffffffffffffffffffffffffff021916908373ffffffffffffffffffffffffffffffffffffffff1602179055508060400151600b6000858152602001908152602001600020600a0160006101000a81548173ffffffffffffffffffffffffffffffffffffffff021916908373ffffffffffffffffffffffffffffffffffffffff1602179055508060600151600b6000858152602001908152602001600020600b0160006101000a81548173ffffffffffffffffffffffffffffffffffffffff021916908373ffffffffffffffffffffffffffffffffffffffff160217905550505050565b60007f01ffc9a7000000000000000000000000000000000000000000000000000000007bffffffffffffffffffffffffffffffffffffffffffffffffffffffff1916827bffffffffffffffffffffffffffffffffffffffffffffffffffffffff1916149050919050565b600033905090565b6000600a6005836127108661386e919061539b565b613878919061536a565b6138829190615314565b61388c919061536a565b905092915050565b600073ffffffffffffffffffffffffffffffffffffffff16600a600083815260200190815260200160002060020160009054906101000a900473ffffffffffffffffffffffffffffffffffffffff1673ffffffffffffffffffffffffffffffffffffffff161461390357600080fd5b6000600b6000838152602001908152602001600020600701541461392657600080fd5b6000600481111561393a57613939615671565b5b600b600083815260200190815260200160002060000160009054906101000a900460ff1660048111156139705761396f615671565b5b1461397a57600080fd5b33600a600083815260200190815260200160002060020160006101000a81548173ffffffffffffffffffffffffffffffffffffffff021916908373ffffffffffffffffffffffffffffffffffffffff160217905550600a600082815260200190815260200160002060090160009054906101000a900461ffff1661ffff16600a600083815260200190815260200160002060050154613a19919061536a565b600a600083815260200190815260200160002060090160009054906101000a900461ffff1661ffff16613a4c919061539b565b42613a579190615314565b600b6000838152602001908152602001600020600301600160028110613a8057613a7f6156a0565b5b01819055506001600b600083815260200190815260200160002060000160006101000a81548160ff02191690836004811115613abf57613abe615671565b5b021790555042600b6000838152602001908152602001600020600301600060028110613aee57613aed6156a0565b5b0181905550803373ffffffffffffffffffffffffffffffffffffffff167f1a8ecea83cbcff0f4c46b7e42f55227161863220eb7d439fde442dfdc0ddbc4e600b6000858152602001908152602001600020600301600160028110613b5557613b546156a0565b5b0154604051613b64919061503e565b60405180910390a350565b60008060009054906101000a900473ffffffffffffffffffffffffffffffffffffffff169050816000806101000a81548173ffffffffffffffffffffffffffffffffffffffff021916908373ffffffffffffffffffffffffffffffffffffffff1602179055508173ffffffffffffffffffffffffffffffffffffffff168173ffffffffffffffffffffffffffffffffffffffff167f8be0079c531659141344cd1fd0a4f28419497f9722a3daafe3b4186f6b6457e060405160405180910390a35050565b6000600b6000848152602001908152602001600020600a0160009054906101000a900473ffffffffffffffffffffffffffffffffffffffff1673ffffffffffffffffffffffffffffffffffffffff1663ad6a8745836040518263ffffffff1660e01b8152600401613ca49190614cc6565b60206040518083038186803b158015613cbc57600080fd5b505afa158015613cd0573d6000803e3d6000fd5b505050506040513d601f19601f82011682018060405250810190613cf4919061481d565b905092915050565b828054828255906000526020600020908101928215613d38579160200282015b82811115613d37578251825591602001919060010190613d1c565b5b509050613d459190613e7a565b5090565b828054828255906000526020600020908101928215613dc2579160200282015b82811115613dc15782518260006101000a81548173ffffffffffffffffffffffffffffffffffffffff021916908373ffffffffffffffffffffffffffffffffffffffff16021790555091602001919060010190613d69565b5b509050613dcf9190613e7a565b5090565b82805482825590600052602060002090601f01602090048101928215613e695791602002820160005b83821115613e3a57835183826101000a81548160ff021916908360ff1602179055509260200192600101602081600001049283019260010302613dfc565b8015613e675782816101000a81549060ff0219169055600101602081600001049283019260010302613e3a565b505b509050613e769190613e7a565b5090565b5b80821115613e93576000816000905550600101613e7b565b5090565b6000613eaa613ea584615192565b61516d565b90508083825260208201905082856020860282011115613ecd57613ecc61570d565b5b60005b85811015613efd5781613ee38882614029565b845260208401935060208301925050600181019050613ed0565b5050509392505050565b6000613f1a613f15846151be565b61516d565b90508083825260208201905082856020860282011115613f3d57613f3c61570d565b5b60005b85811015613f6d5781613f538882614358565b845260208401935060208301925050600181019050613f40565b5050509392505050565b6000613f8a613f85846151ea565b61516d565b90508083825260208201905082856020860282011115613fad57613fac61570d565b5b60005b85811015613fdd5781613fc38882614397565b845260208401935060208301925050600181019050613fb0565b5050509392505050565b6000613ffa613ff584615216565b61516d565b90508281526020810184848401111561401657614015615712565b5b614021848285615559565b509392505050565b60008135905061403881615926565b92915050565b60008135905061404d8161593d565b92915050565b600082601f830112614068576140676156fe565b5b8135614078848260208601613e97565b91505092915050565b600082601f830112614096576140956156fe565b5b81356140a6848260208601613f07565b91505092915050565b600082601f8301126140c4576140c36156fe565b5b81356140d4848260208601613f77565b91505092915050565b6000815190506140ec81615954565b92915050565b6000813590506141018161596b565b92915050565b600082601f83011261411c5761411b6156fe565b5b813561412c848260208601613fe7565b91505092915050565b6000610100828403121561414c5761414b615703565b5b61415761010061516d565b9050600061416784828501614029565b600083015250602082013567ffffffffffffffff81111561418b5761418a615708565b5b61419784828501614053565b60208301525060406141ab84828501614358565b60408301525060606141bf84828501614358565b60608301525060806141d384828501614358565b60808301525060a082013567ffffffffffffffff8111156141f7576141f6615708565b5b61420384828501614081565b60a08301525060c061421784828501614343565b60c08301525060e082013567ffffffffffffffff81111561423b5761423a615708565b5b614247848285016140af565b60e08301525092915050565b60006080828403121561426957614268615703565b5b614273608061516d565b9050600061428384828501614029565b600083015250602061429784828501614029565b60208301525060406142ab84828501614029565b60408301525060606142bf84828501614029565b60608301525092915050565b6000608082840312156142e1576142e0615703565b5b6142eb608061516d565b905060006142fb84828501614358565b600083015250602061430f84828501614358565b602083015250604061432384828501614358565b604083015250606061433784828501614382565b60608301525092915050565b60008135905061435281615982565b92915050565b60008135905061436781615999565b92915050565b60008151905061437c81615999565b92915050565b600081359050614391816159b0565b92915050565b6000813590506143a6816159c7565b92915050565b6000602082840312156143c2576143c161571c565b5b60006143d084828501614029565b91505092915050565b600080600080600060a086880312156143f5576143f461571c565b5b600061440388828901614029565b95505060206144148882890161403e565b945050604061442588828901614029565b935050606061443688828901614358565b925050608061444788828901614358565b9150509295509295909350565b600080600080600060a086880312156144705761446f61571c565b5b600061447e88828901614029565b955050602061448f88828901614029565b945050604086013567ffffffffffffffff8111156144b0576144af615717565b5b6144bc88828901614053565b935050606086013567ffffffffffffffff8111156144dd576144dc615717565b5b6144e988828901614081565b925050608086013567ffffffffffffffff81111561450a57614509615717565b5b614516888289016140af565b9150509295509295909350565b600080600080600060a0868803121561453f5761453e61571c565b5b600061454d88828901614029565b955050602061455e88828901614029565b945050604086013567ffffffffffffffff81111561457f5761457e615717565b5b61458b88828901614081565b935050606086013567ffffffffffffffff8111156145ac576145ab615717565b5b6145b888828901614081565b925050608086013567ffffffffffffffff8111156145d9576145d8615717565b5b6145e588828901614107565b9150509295509295909350565b6000806000806080858703121561460c5761460b61571c565b5b600061461a87828801614029565b945050602061462b87828801614029565b935050604061463c87828801614358565b925050606085013567ffffffffffffffff81111561465d5761465c615717565b5b61466987828801614107565b91505092959194509250565b600080600080600060a086880312156146915761469061571c565b5b600061469f88828901614029565b95505060206146b088828901614029565b94505060406146c188828901614358565b93505060606146d288828901614358565b925050608086013567ffffffffffffffff8111156146f3576146f2615717565b5b6146ff88828901614107565b9150509295509295909350565b6000602082840312156147225761472161571c565b5b6000614730848285016140dd565b91505092915050565b60006020828403121561474f5761474e61571c565b5b600061475d848285016140f2565b91505092915050565b60006020828403121561477c5761477b61571c565b5b600082013567ffffffffffffffff81111561479a57614799615717565b5b6147a684828501614135565b91505092915050565b60008061010083850312156147c7576147c661571c565b5b60006147d5858286016142cb565b92505060806147e685828601614253565b9150509250929050565b6000602082840312156148065761480561571c565b5b600061481484828501614358565b91505092915050565b6000602082840312156148335761483261571c565b5b60006148418482850161436d565b91505092915050565b600080600061012084860312156148645761486361571c565b5b600061487286828701614358565b9350506020614883868287016142cb565b92505060a061489486828701614253565b9150509250925092565b600080604083850312156148b5576148b461571c565b5b60006148c385828601614358565b92505060206148d485828601614358565b9150509250929050565b60008060008060008060c087890312156148fb576148fa61571c565b5b600061490989828a01614358565b965050602061491a89828a01614358565b955050604061492b89828a01614343565b945050606061493c89828a01614029565b935050608061494d89828a01614358565b92505060a061495e89828a01614358565b9150509295509295509295565b600061497783836149d1565b60208301905092915050565b600061498f8383614c7b565b60208301905092915050565b60006149a78383614ca8565b60208301905092915050565b6149bc816154ed565b82525050565b6149cb8161543b565b82525050565b6149da81615429565b82525050565b6149e981615429565b82525050565b60006149fa82615277565b614a0481856152bf565b9350614a0f83615247565b8060005b83811015614a40578151614a27888261496b565b9750614a3283615298565b925050600181019050614a13565b5085935050505092915050565b6000614a5882615282565b614a6281856152d0565b9350614a6d83615257565b8060005b83811015614a9e578151614a858882614983565b9750614a90836152a5565b925050600181019050614a71565b5085935050505092915050565b6000614ab68261528d565b614ac081856152e1565b9350614acb83615267565b8060005b83811015614afc578151614ae3888261499b565b9750614aee836152b2565b925050600181019050614acf565b5085935050505092915050565b614b128161544d565b82525050565b614b2181615459565b82525050565b614b30816154ff565b82525050565b614b3f81615511565b82525050565b6000614b52602683615303565b9150614b5d82615732565b604082019050919050565b6000614b756004836152f2565b9150614b8082615781565b602082019050919050565b6000614b98602583615303565b9150614ba3826157aa565b604082019050919050565b6000614bbb602083615303565b9150614bc6826157f9565b602082019050919050565b6000614bde602283615303565b9150614be982615822565b604082019050919050565b6000614c01602383615303565b9150614c0c82615871565b604082019050919050565b6000614c24602083615303565b9150614c2f826158c0565b602082019050919050565b6000614c47602083615303565b9150614c52826158e9565b602082019050919050565b614c6681615498565b82525050565b614c7581615547565b82525050565b614c84816154c6565b82525050565b614c93816154c6565b82525050565b614ca2816154d0565b82525050565b614cb1816154e0565b82525050565b614cc0816154e0565b82525050565b6000602082019050614cdb60008301846149e0565b92915050565b600061010082019050614cf7600083018b6149c2565b614d04602083018a6149c2565b614d1160408301896149e0565b614d1e6060830188614c8a565b614d2b6080830187614c8a565b614d3860a0830186614c8a565b614d4560c0830185614c8a565b614d5260e0830184614c5d565b9998505050505050505050565b6000606082019050614d7460008301866149e0565b614d8160208301856149b3565b614d8e6040830184614c8a565b949350505050565b6000606082019050614dab60008301866149e0565b614db860208301856149e0565b614dc56040830184614c8a565b949350505050565b600060a082019050614de260008301876149e0565b614def60208301866149e0565b614dfc6040830185614c8a565b614e096060830184614b36565b8181036080830152614e1a81614b68565b905095945050505050565b60006060820190508181036000830152614e3f81866149ef565b90508181036020830152614e538185614a4d565b90508181036040830152614e678184614aab565b9050949350505050565b6000602082019050614e866000830184614b09565b92915050565b6000602082019050614ea16000830184614b18565b92915050565b6000602082019050614ebc6000830184614b27565b92915050565b600061014082019050614ed8600083018d614b27565b614ee5602083018c614c8a565b614ef2604083018b614cb7565b614eff606083018a614c8a565b614f0c6080830189614c8a565b614f1960a0830188614c8a565b614f2660c08301876149e0565b614f3360e08301866149e0565b614f416101008301856149e0565b614f4f6101208301846149e0565b9b9a5050505050505050505050565b60006020820190508181036000830152614f7781614b45565b9050919050565b60006020820190508181036000830152614f9781614b8b565b9050919050565b60006020820190508181036000830152614fb781614bae565b9050919050565b60006020820190508181036000830152614fd781614bd1565b9050919050565b60006020820190508181036000830152614ff781614bf4565b9050919050565b6000602082019050818103600083015261501781614c17565b9050919050565b6000602082019050818103600083015261503781614c3a565b9050919050565b60006020820190506150536000830184614c8a565b92915050565b600060a08201905061506e6000830188614c8a565b61507b6020830187614c8a565b6150886040830186614c8a565b6150956060830185614c8a565b6150a26080830184614b27565b9695505050505050565b600060c0820190506150c16000830189614c8a565b6150ce6020830188614c8a565b6150db6040830187614c8a565b6150e86060830186614c8a565b6150f56080830185614c8a565b61510260a0830184614c6c565b979650505050505050565b60006080820190506151226000830187614c8a565b61512f6020830186614c8a565b61513c6040830185614c8a565b6151496060830184614c99565b95945050505050565b60006020820190506151676000830184614c99565b92915050565b6000615177615188565b90506151838282615568565b919050565b6000604051905090565b600067ffffffffffffffff8211156151ad576151ac6156cf565b5b602082029050602081019050919050565b600067ffffffffffffffff8211156151d9576151d86156cf565b5b602082029050602081019050919050565b600067ffffffffffffffff821115615205576152046156cf565b5b602082029050602081019050919050565b600067ffffffffffffffff821115615231576152306156cf565b5b61523a82615721565b9050602081019050919050565b6000819050602082019050919050565b6000819050602082019050919050565b6000819050602082019050919050565b600081519050919050565b600081519050919050565b600081519050919050565b6000602082019050919050565b6000602082019050919050565b6000602082019050919050565b600082825260208201905092915050565b600082825260208201905092915050565b600082825260208201905092915050565b600082825260208201905092915050565b600082825260208201905092915050565b600061531f826154c6565b915061532a836154c6565b9250827fffffffffffffffffffffffffffffffffffffffffffffffffffffffffffffffff0382111561535f5761535e615613565b5b828201905092915050565b6000615375826154c6565b9150615380836154c6565b9250826153905761538f615642565b5b828204905092915050565b60006153a6826154c6565b91506153b1836154c6565b9250817fffffffffffffffffffffffffffffffffffffffffffffffffffffffffffffffff04831182151516156153ea576153e9615613565b5b828202905092915050565b6000615400826154c6565b915061540b836154c6565b92508282101561541e5761541d615613565b5b828203905092915050565b6000615434826154a6565b9050919050565b6000615446826154a6565b9050919050565b60008115159050919050565b60007fffffffff0000000000000000000000000000000000000000000000000000000082169050919050565b600081905061549382615912565b919050565b600061ffff82169050919050565b600073ffffffffffffffffffffffffffffffffffffffff82169050919050565b6000819050919050565b600063ffffffff82169050919050565b600060ff82169050919050565b60006154f882615523565b9050919050565b600061550a82615485565b9050919050565b600061551c826154c6565b9050919050565b600061552e82615535565b9050919050565b6000615540826154a6565b9050919050565b600061555282615498565b9050919050565b82818337600083830152505050565b61557182615721565b810181811067ffffffffffffffff821117156155905761558f6156cf565b5b80604052505050565b60006155a4826154c6565b91507fffffffffffffffffffffffffffffffffffffffffffffffffffffffffffffffff8214156155d7576155d6615613565b5b600182019050919050565b60006155ed826154c6565b91506155f8836154c6565b92508261560857615607615642565b5b828206905092915050565b7f4e487b7100000000000000000000000000000000000000000000000000000000600052601160045260246000fd5b7f4e487b7100000000000000000000000000000000000000000000000000000000600052601260045260246000fd5b7f4e487b7100000000000000000000000000000000000000000000000000000000600052602160045260246000fd5b7f4e487b7100000000000000000000000000000000000000000000000000000000600052603260045260246000fd5b7f4e487b7100000000000000000000000000000000000000000000000000000000600052604160045260246000fd5b600080fd5b600080fd5b600080fd5b600080fd5b600080fd5b600080fd5b600080fd5b6000601f19601f8301169050919050565b7f4f776e61626c653a206e6577206f776e657220697320746865207a65726f206160008201527f6464726573730000000000000000000000000000000000000000000000000000602082015250565b7f3078303000000000000000000000000000000000000000000000000000000000600082015250565b7f5472616e73666572206f6620746f6b656e7320746f207265636569766572206660008201527f61696c6564000000000000000000000000000000000000000000000000000000602082015250565b7f546f6b656e20696e666f732070726f76696465642061726520696e76616c6964600082015250565b7f5472616e73666572206f662045544820746f207265636569766572206661696c60008201527f6564000000000000000000000000000000000000000000000000000000000000602082015250565b7f5472616e73666572206f6620746f6b656e7320746f205374617465722066616960008201527f6c65640000000000000000000000000000000000000000000000000000000000602082015250565b7f4f776e61626c653a2063616c6c6572206973206e6f7420746865206f776e6572600082015250565b7f5472616e73666572206f662045544820746f20537461746572206661696c6564600082015250565b6005811061592357615922615671565b5b50565b61592f81615429565b811461593a57600080fd5b50565b6159468161543b565b811461595157600080fd5b50565b61595d8161544d565b811461596857600080fd5b50565b61597481615459565b811461597f57600080fd5b50565b61598b81615498565b811461599657600080fd5b50565b6159a2816154c6565b81146159ad57600080fd5b50565b6159b9816154d0565b81146159c457600080fd5b50565b6159d0816154e0565b81146159db57600080fd5b5056fea26469706673582212200c3a350ff1c84fe5eba53333959b0f7fccfed1444433dc261afb064497cca74364736f6c63430008070033",
			"opcodes": "PUSH1 0x80 PUSH1 0x40 MSTORE PUSH1 0x1 PUSH1 0x9 SSTORE CALLVALUE DUP1 ISZERO PUSH3 0x16 JUMPI PUSH1 0x0 DUP1 REVERT JUMPDEST POP PUSH1 0x40 MLOAD PUSH3 0x5D36 CODESIZE SUB DUP1 PUSH3 0x5D36 DUP4 CODECOPY DUP2 DUP2 ADD PUSH1 0x40 MSTORE DUP2 ADD SWAP1 PUSH3 0x3C SWAP2 SWAP1 PUSH3 0x24D JUMP JUMPDEST PUSH3 0x5C PUSH3 0x50 PUSH3 0x16A PUSH1 0x20 SHL PUSH1 0x20 SHR JUMP JUMPDEST PUSH3 0x172 PUSH1 0x20 SHL PUSH1 0x20 SHR JUMP JUMPDEST DUP4 PUSH1 0x1 PUSH1 0x0 PUSH2 0x100 EXP DUP2 SLOAD DUP2 PUSH20 0xFFFFFFFFFFFFFFFFFFFFFFFFFFFFFFFFFFFFFFFF MUL NOT AND SWAP1 DUP4 PUSH20 0xFFFFFFFFFFFFFFFFFFFFFFFFFFFFFFFFFFFFFFFF AND MUL OR SWAP1 SSTORE POP DUP3 PUSH1 0x2 PUSH1 0x0 PUSH2 0x100 EXP DUP2 SLOAD DUP2 PUSH20 0xFFFFFFFFFFFFFFFFFFFFFFFFFFFFFFFFFFFFFFFF MUL NOT AND SWAP1 DUP4 PUSH20 0xFFFFFFFFFFFFFFFFFFFFFFFFFFFFFFFFFFFFFFFF AND MUL OR SWAP1 SSTORE POP DUP2 PUSH1 0x3 PUSH1 0x0 PUSH2 0x100 EXP DUP2 SLOAD DUP2 PUSH20 0xFFFFFFFFFFFFFFFFFFFFFFFFFFFFFFFFFFFFFFFF MUL NOT AND SWAP1 DUP4 PUSH20 0xFFFFFFFFFFFFFFFFFFFFFFFFFFFFFFFFFFFFFFFF AND MUL OR SWAP1 SSTORE POP DUP1 PUSH1 0x4 PUSH1 0x0 PUSH2 0x100 EXP DUP2 SLOAD DUP2 PUSH20 0xFFFFFFFFFFFFFFFFFFFFFFFFFFFFFFFFFFFFFFFF MUL NOT AND SWAP1 DUP4 PUSH20 0xFFFFFFFFFFFFFFFFFFFFFFFFFFFFFFFFFFFFFFFF AND MUL OR SWAP1 SSTORE POP POP POP POP POP PUSH3 0x312 JUMP JUMPDEST PUSH1 0x0 CALLER SWAP1 POP SWAP1 JUMP JUMPDEST PUSH1 0x0 DUP1 PUSH1 0x0 SWAP1 SLOAD SWAP1 PUSH2 0x100 EXP SWAP1 DIV PUSH20 0xFFFFFFFFFFFFFFFFFFFFFFFFFFFFFFFFFFFFFFFF AND SWAP1 POP DUP2 PUSH1 0x0 DUP1 PUSH2 0x100 EXP DUP2 SLOAD DUP2 PUSH20 0xFFFFFFFFFFFFFFFFFFFFFFFFFFFFFFFFFFFFFFFF MUL NOT AND SWAP1 DUP4 PUSH20 0xFFFFFFFFFFFFFFFFFFFFFFFFFFFFFFFFFFFFFFFF AND MUL OR SWAP1 SSTORE POP DUP2 PUSH20 0xFFFFFFFFFFFFFFFFFFFFFFFFFFFFFFFFFFFFFFFF AND DUP2 PUSH20 0xFFFFFFFFFFFFFFFFFFFFFFFFFFFFFFFFFFFFFFFF AND PUSH32 0x8BE0079C531659141344CD1FD0A4F28419497F9722A3DAAFE3B4186F6B6457E0 PUSH1 0x40 MLOAD PUSH1 0x40 MLOAD DUP1 SWAP2 SUB SWAP1 LOG3 POP POP JUMP JUMPDEST PUSH1 0x0 DUP2 MLOAD SWAP1 POP PUSH3 0x247 DUP2 PUSH3 0x2F8 JUMP JUMPDEST SWAP3 SWAP2 POP POP JUMP JUMPDEST PUSH1 0x0 DUP1 PUSH1 0x0 DUP1 PUSH1 0x80 DUP6 DUP8 SUB SLT ISZERO PUSH3 0x26A JUMPI PUSH3 0x269 PUSH3 0x2F3 JUMP JUMPDEST JUMPDEST PUSH1 0x0 PUSH3 0x27A DUP8 DUP3 DUP9 ADD PUSH3 0x236 JUMP JUMPDEST SWAP5 POP POP PUSH1 0x20 PUSH3 0x28D DUP8 DUP3 DUP9 ADD PUSH3 0x236 JUMP JUMPDEST SWAP4 POP POP PUSH1 0x40 PUSH3 0x2A0 DUP8 DUP3 DUP9 ADD PUSH3 0x236 JUMP JUMPDEST SWAP3 POP POP PUSH1 0x60 PUSH3 0x2B3 DUP8 DUP3 DUP9 ADD PUSH3 0x236 JUMP JUMPDEST SWAP2 POP POP SWAP3 SWAP6 SWAP2 SWAP5 POP SWAP3 POP JUMP JUMPDEST PUSH1 0x0 PUSH3 0x2CC DUP3 PUSH3 0x2D3 JUMP JUMPDEST SWAP1 POP SWAP2 SWAP1 POP JUMP JUMPDEST PUSH1 0x0 PUSH20 0xFFFFFFFFFFFFFFFFFFFFFFFFFFFFFFFFFFFFFFFF DUP3 AND SWAP1 POP SWAP2 SWAP1 POP JUMP JUMPDEST PUSH1 0x0 DUP1 REVERT JUMPDEST PUSH3 0x303 DUP2 PUSH3 0x2BF JUMP JUMPDEST DUP2 EQ PUSH3 0x30F JUMPI PUSH1 0x0 DUP1 REVERT JUMPDEST POP JUMP JUMPDEST PUSH2 0x5A14 DUP1 PUSH3 0x322 PUSH1 0x0 CODECOPY PUSH1 0x0 RETURN INVALID PUSH1 0x80 PUSH1 0x40 MSTORE PUSH1 0x4 CALLDATASIZE LT PUSH2 0x1D8 JUMPI PUSH1 0x0 CALLDATALOAD PUSH1 0xE0 SHR DUP1 PUSH4 0x8395F083 GT PUSH2 0x102 JUMPI DUP1 PUSH4 0xBC197C81 GT PUSH2 0x95 JUMPI DUP1 PUSH4 0xE1EC3C68 GT PUSH2 0x64 JUMPI DUP1 PUSH4 0xE1EC3C68 EQ PUSH2 0x68F JUMPI DUP1 PUSH4 0xF23A6E61 EQ PUSH2 0x6D3 JUMPI DUP1 PUSH4 0xF2FDE38B EQ PUSH2 0x710 JUMPI DUP1 PUSH4 0xF5076E78 EQ PUSH2 0x739 JUMPI PUSH2 0x1D8 JUMP JUMPDEST DUP1 PUSH4 0xBC197C81 EQ PUSH2 0x5D3 JUMPI DUP1 PUSH4 0xBDBFA3DE EQ PUSH2 0x610 JUMPI DUP1 PUSH4 0xD442CE09 EQ PUSH2 0x639 JUMPI DUP1 PUSH4 0xD9CBB52D EQ PUSH2 0x664 JUMPI PUSH2 0x1D8 JUMP JUMPDEST DUP1 PUSH4 0x8F829275 GT PUSH2 0xD1 JUMPI DUP1 PUSH4 0x8F829275 EQ PUSH2 0x536 JUMPI DUP1 PUSH4 0xAADC1AC1 EQ PUSH2 0x561 JUMPI DUP1 PUSH4 0xAF640D0F EQ PUSH2 0x57D JUMPI DUP1 PUSH4 0xB2B71A00 EQ PUSH2 0x5A8 JUMPI PUSH2 0x1D8 JUMP JUMPDEST DUP1 PUSH4 0x8395F083 EQ PUSH2 0x484 JUMPI DUP1 PUSH4 0x89306E61 EQ PUSH2 0x4C4 JUMPI DUP1 PUSH4 0x8CA83F07 EQ PUSH2 0x4E0 JUMPI DUP1 PUSH4 0x8DA5CB5B EQ PUSH2 0x50B JUMPI PUSH2 0x1D8 JUMP JUMPDEST DUP1 PUSH4 0x44FF78C7 GT PUSH2 0x17A JUMPI DUP1 PUSH4 0x715018A6 GT PUSH2 0x149 JUMPI DUP1 PUSH4 0x715018A6 EQ PUSH2 0x3F0 JUMPI DUP1 PUSH4 0x7B878D42 EQ PUSH2 0x407 JUMPI DUP1 PUSH4 0x7C3A00FD EQ PUSH2 0x430 JUMPI DUP1 PUSH4 0x7FB9FE3D EQ PUSH2 0x45B JUMPI PUSH2 0x1D8 JUMP JUMPDEST DUP1 PUSH4 0x44FF78C7 EQ PUSH2 0x343 JUMPI DUP1 PUSH4 0x4B69CD6C EQ PUSH2 0x380 JUMPI DUP1 PUSH4 0x67A00C55 EQ PUSH2 0x3A9 JUMPI DUP1 PUSH4 0x6FB49D73 EQ PUSH2 0x3C5 JUMPI PUSH2 0x1D8 JUMP JUMPDEST DUP1 PUSH4 0x2D990756 GT PUSH2 0x1B6 JUMPI DUP1 PUSH4 0x2D990756 EQ PUSH2 0x282 JUMPI DUP1 PUSH4 0x2E3F4A5D EQ PUSH2 0x2C8 JUMPI DUP1 PUSH4 0x2E8FA54B EQ PUSH2 0x2F1 JUMPI DUP1 PUSH4 0x407299D7 EQ PUSH2 0x31A JUMPI PUSH2 0x1D8 JUMP JUMPDEST DUP1 PUSH4 0x1FFC9A7 EQ PUSH2 0x1DD JUMPI DUP1 PUSH4 0x150B7A02 EQ PUSH2 0x21A JUMPI DUP1 PUSH4 0x2A607841 EQ PUSH2 0x257 JUMPI JUMPDEST PUSH1 0x0 DUP1 REVERT JUMPDEST CALLVALUE DUP1 ISZERO PUSH2 0x1E9 JUMPI PUSH1 0x0 DUP1 REVERT JUMPDEST POP PUSH2 0x204 PUSH1 0x4 DUP1 CALLDATASIZE SUB DUP2 ADD SWAP1 PUSH2 0x1FF SWAP2 SWAP1 PUSH2 0x4739 JUMP JUMPDEST PUSH2 0x762 JUMP JUMPDEST PUSH1 0x40 MLOAD PUSH2 0x211 SWAP2 SWAP1 PUSH2 0x4E71 JUMP JUMPDEST PUSH1 0x40 MLOAD DUP1 SWAP2 SUB SWAP1 RETURN JUMPDEST CALLVALUE DUP1 ISZERO PUSH2 0x226 JUMPI PUSH1 0x0 DUP1 REVERT JUMPDEST POP PUSH2 0x241 PUSH1 0x4 DUP1 CALLDATASIZE SUB DUP2 ADD SWAP1 PUSH2 0x23C SWAP2 SWAP1 PUSH2 0x45F2 JUMP JUMPDEST PUSH2 0x7DC JUMP JUMPDEST PUSH1 0x40 MLOAD PUSH2 0x24E SWAP2 SWAP1 PUSH2 0x4E8C JUMP JUMPDEST PUSH1 0x40 MLOAD DUP1 SWAP2 SUB SWAP1 RETURN JUMPDEST CALLVALUE DUP1 ISZERO PUSH2 0x263 JUMPI PUSH1 0x0 DUP1 REVERT JUMPDEST POP PUSH2 0x26C PUSH2 0x7F0 JUMP JUMPDEST PUSH1 0x40 MLOAD PUSH2 0x279 SWAP2 SWAP1 PUSH2 0x4CC6 JUMP JUMPDEST PUSH1 0x40 MLOAD DUP1 SWAP2 SUB SWAP1 RETURN JUMPDEST CALLVALUE DUP1 ISZERO PUSH2 0x28E JUMPI PUSH1 0x0 DUP1 REVERT JUMPDEST POP PUSH2 0x2A9 PUSH1 0x4 DUP1 CALLDATASIZE SUB DUP2 ADD SWAP1 PUSH2 0x2A4 SWAP2 SWAP1 PUSH2 0x47F0 JUMP JUMPDEST PUSH2 0x816 JUMP JUMPDEST PUSH1 0x40 MLOAD PUSH2 0x2BF SWAP11 SWAP10 SWAP9 SWAP8 SWAP7 SWAP6 SWAP5 SWAP4 SWAP3 SWAP2 SWAP1 PUSH2 0x4EC2 JUMP JUMPDEST PUSH1 0x40 MLOAD DUP1 SWAP2 SUB SWAP1 RETURN JUMPDEST CALLVALUE DUP1 ISZERO PUSH2 0x2D4 JUMPI PUSH1 0x0 DUP1 REVERT JUMPDEST POP PUSH2 0x2EF PUSH1 0x4 DUP1 CALLDATASIZE SUB DUP2 ADD SWAP1 PUSH2 0x2EA SWAP2 SWAP1 PUSH2 0x43D9 JUMP JUMPDEST PUSH2 0x904 JUMP JUMPDEST STOP JUMPDEST CALLVALUE DUP1 ISZERO PUSH2 0x2FD JUMPI PUSH1 0x0 DUP1 REVERT JUMPDEST POP PUSH2 0x318 PUSH1 0x4 DUP1 CALLDATASIZE SUB DUP2 ADD SWAP1 PUSH2 0x313 SWAP2 SWAP1 PUSH2 0x47AF JUMP JUMPDEST PUSH2 0xBD7 JUMP JUMPDEST STOP JUMPDEST CALLVALUE DUP1 ISZERO PUSH2 0x326 JUMPI PUSH1 0x0 DUP1 REVERT JUMPDEST POP PUSH2 0x341 PUSH1 0x4 DUP1 CALLDATASIZE SUB DUP2 ADD SWAP1 PUSH2 0x33C SWAP2 SWAP1 PUSH2 0x4454 JUMP JUMPDEST PUSH2 0xDB1 JUMP JUMPDEST STOP JUMPDEST CALLVALUE DUP1 ISZERO PUSH2 0x34F JUMPI PUSH1 0x0 DUP1 REVERT JUMPDEST POP PUSH2 0x36A PUSH1 0x4 DUP1 CALLDATASIZE SUB DUP2 ADD SWAP1 PUSH2 0x365 SWAP2 SWAP1 PUSH2 0x47F0 JUMP JUMPDEST PUSH2 0xFA0 JUMP JUMPDEST PUSH1 0x40 MLOAD PUSH2 0x377 SWAP2 SWAP1 PUSH2 0x4E71 JUMP JUMPDEST PUSH1 0x40 MLOAD DUP1 SWAP2 SUB SWAP1 RETURN JUMPDEST CALLVALUE DUP1 ISZERO PUSH2 0x38C JUMPI PUSH1 0x0 DUP1 REVERT JUMPDEST POP PUSH2 0x3A7 PUSH1 0x4 DUP1 CALLDATASIZE SUB DUP2 ADD SWAP1 PUSH2 0x3A2 SWAP2 SWAP1 PUSH2 0x48DE JUMP JUMPDEST PUSH2 0x1124 JUMP JUMPDEST STOP JUMPDEST PUSH2 0x3C3 PUSH1 0x4 DUP1 CALLDATASIZE SUB DUP2 ADD SWAP1 PUSH2 0x3BE SWAP2 SWAP1 PUSH2 0x489E JUMP JUMPDEST PUSH2 0x1509 JUMP JUMPDEST STOP JUMPDEST CALLVALUE DUP1 ISZERO PUSH2 0x3D1 JUMPI PUSH1 0x0 DUP1 REVERT JUMPDEST POP PUSH2 0x3DA PUSH2 0x16CC JUMP JUMPDEST PUSH1 0x40 MLOAD PUSH2 0x3E7 SWAP2 SWAP1 PUSH2 0x503E JUMP JUMPDEST PUSH1 0x40 MLOAD DUP1 SWAP2 SUB SWAP1 RETURN JUMPDEST CALLVALUE DUP1 ISZERO PUSH2 0x3FC JUMPI PUSH1 0x0 DUP1 REVERT JUMPDEST POP PUSH2 0x405 PUSH2 0x16D2 JUMP JUMPDEST STOP JUMPDEST CALLVALUE DUP1 ISZERO PUSH2 0x413 JUMPI PUSH1 0x0 DUP1 REVERT JUMPDEST POP PUSH2 0x42E PUSH1 0x4 DUP1 CALLDATASIZE SUB DUP2 ADD SWAP1 PUSH2 0x429 SWAP2 SWAP1 PUSH2 0x4766 JUMP JUMPDEST PUSH2 0x175A JUMP JUMPDEST STOP JUMPDEST CALLVALUE DUP1 ISZERO PUSH2 0x43C JUMPI PUSH1 0x0 DUP1 REVERT JUMPDEST POP PUSH2 0x445 PUSH2 0x1E5D JUMP JUMPDEST PUSH1 0x40 MLOAD PUSH2 0x452 SWAP2 SWAP1 PUSH2 0x503E JUMP JUMPDEST PUSH1 0x40 MLOAD DUP1 SWAP2 SUB SWAP1 RETURN JUMPDEST CALLVALUE DUP1 ISZERO PUSH2 0x467 JUMPI PUSH1 0x0 DUP1 REVERT JUMPDEST POP PUSH2 0x482 PUSH1 0x4 DUP1 CALLDATASIZE SUB DUP2 ADD SWAP1 PUSH2 0x47D SWAP2 SWAP1 PUSH2 0x47F0 JUMP JUMPDEST PUSH2 0x1E63 JUMP JUMPDEST STOP JUMPDEST CALLVALUE DUP1 ISZERO PUSH2 0x490 JUMPI PUSH1 0x0 DUP1 REVERT JUMPDEST POP PUSH2 0x4AB PUSH1 0x4 DUP1 CALLDATASIZE SUB DUP2 ADD SWAP1 PUSH2 0x4A6 SWAP2 SWAP1 PUSH2 0x47F0 JUMP JUMPDEST PUSH2 0x27DB JUMP JUMPDEST PUSH1 0x40 MLOAD PUSH2 0x4BB SWAP5 SWAP4 SWAP3 SWAP2 SWAP1 PUSH2 0x510D JUMP JUMPDEST PUSH1 0x40 MLOAD DUP1 SWAP2 SUB SWAP1 RETURN JUMPDEST PUSH2 0x4DE PUSH1 0x4 DUP1 CALLDATASIZE SUB DUP2 ADD SWAP1 PUSH2 0x4D9 SWAP2 SWAP1 PUSH2 0x489E JUMP JUMPDEST PUSH2 0x281B JUMP JUMPDEST STOP JUMPDEST CALLVALUE DUP1 ISZERO PUSH2 0x4EC JUMPI PUSH1 0x0 DUP1 REVERT JUMPDEST POP PUSH2 0x4F5 PUSH2 0x2D71 JUMP JUMPDEST PUSH1 0x40 MLOAD PUSH2 0x502 SWAP2 SWAP1 PUSH2 0x5152 JUMP JUMPDEST PUSH1 0x40 MLOAD DUP1 SWAP2 SUB SWAP1 RETURN JUMPDEST CALLVALUE DUP1 ISZERO PUSH2 0x517 JUMPI PUSH1 0x0 DUP1 REVERT JUMPDEST POP PUSH2 0x520 PUSH2 0x2D87 JUMP JUMPDEST PUSH1 0x40 MLOAD PUSH2 0x52D SWAP2 SWAP1 PUSH2 0x4CC6 JUMP JUMPDEST PUSH1 0x40 MLOAD DUP1 SWAP2 SUB SWAP1 RETURN JUMPDEST CALLVALUE DUP1 ISZERO PUSH2 0x542 JUMPI PUSH1 0x0 DUP1 REVERT JUMPDEST POP PUSH2 0x54B PUSH2 0x2DB0 JUMP JUMPDEST PUSH1 0x40 MLOAD PUSH2 0x558 SWAP2 SWAP1 PUSH2 0x503E JUMP JUMPDEST PUSH1 0x40 MLOAD DUP1 SWAP2 SUB SWAP1 RETURN JUMPDEST PUSH2 0x57B PUSH1 0x4 DUP1 CALLDATASIZE SUB DUP2 ADD SWAP1 PUSH2 0x576 SWAP2 SWAP1 PUSH2 0x47F0 JUMP JUMPDEST PUSH2 0x2DB6 JUMP JUMPDEST STOP JUMPDEST CALLVALUE DUP1 ISZERO PUSH2 0x589 JUMPI PUSH1 0x0 DUP1 REVERT JUMPDEST POP PUSH2 0x592 PUSH2 0x2F82 JUMP JUMPDEST PUSH1 0x40 MLOAD PUSH2 0x59F SWAP2 SWAP1 PUSH2 0x503E JUMP JUMPDEST PUSH1 0x40 MLOAD DUP1 SWAP2 SUB SWAP1 RETURN JUMPDEST CALLVALUE DUP1 ISZERO PUSH2 0x5B4 JUMPI PUSH1 0x0 DUP1 REVERT JUMPDEST POP PUSH2 0x5BD PUSH2 0x2F88 JUMP JUMPDEST PUSH1 0x40 MLOAD PUSH2 0x5CA SWAP2 SWAP1 PUSH2 0x4CC6 JUMP JUMPDEST PUSH1 0x40 MLOAD DUP1 SWAP2 SUB SWAP1 RETURN JUMPDEST CALLVALUE DUP1 ISZERO PUSH2 0x5DF JUMPI PUSH1 0x0 DUP1 REVERT JUMPDEST POP PUSH2 0x5FA PUSH1 0x4 DUP1 CALLDATASIZE SUB DUP2 ADD SWAP1 PUSH2 0x5F5 SWAP2 SWAP1 PUSH2 0x4523 JUMP JUMPDEST PUSH2 0x2FAE JUMP JUMPDEST PUSH1 0x40 MLOAD PUSH2 0x607 SWAP2 SWAP1 PUSH2 0x4E8C JUMP JUMPDEST PUSH1 0x40 MLOAD DUP1 SWAP2 SUB SWAP1 RETURN JUMPDEST CALLVALUE DUP1 ISZERO PUSH2 0x61C JUMPI PUSH1 0x0 DUP1 REVERT JUMPDEST POP PUSH2 0x637 PUSH1 0x4 DUP1 CALLDATASIZE SUB DUP2 ADD SWAP1 PUSH2 0x632 SWAP2 SWAP1 PUSH2 0x47F0 JUMP JUMPDEST PUSH2 0x2FC3 JUMP JUMPDEST STOP JUMPDEST CALLVALUE DUP1 ISZERO PUSH2 0x645 JUMPI PUSH1 0x0 DUP1 REVERT JUMPDEST POP PUSH2 0x64E PUSH2 0x335D JUMP JUMPDEST PUSH1 0x40 MLOAD PUSH2 0x65B SWAP2 SWAP1 PUSH2 0x4CC6 JUMP JUMPDEST PUSH1 0x40 MLOAD DUP1 SWAP2 SUB SWAP1 RETURN JUMPDEST CALLVALUE DUP1 ISZERO PUSH2 0x670 JUMPI PUSH1 0x0 DUP1 REVERT JUMPDEST POP PUSH2 0x679 PUSH2 0x3383 JUMP JUMPDEST PUSH1 0x40 MLOAD PUSH2 0x686 SWAP2 SWAP1 PUSH2 0x4CC6 JUMP JUMPDEST PUSH1 0x40 MLOAD DUP1 SWAP2 SUB SWAP1 RETURN JUMPDEST CALLVALUE DUP1 ISZERO PUSH2 0x69B JUMPI PUSH1 0x0 DUP1 REVERT JUMPDEST POP PUSH2 0x6B6 PUSH1 0x4 DUP1 CALLDATASIZE SUB DUP2 ADD SWAP1 PUSH2 0x6B1 SWAP2 SWAP1 PUSH2 0x47F0 JUMP JUMPDEST PUSH2 0x33A9 JUMP JUMPDEST PUSH1 0x40 MLOAD PUSH2 0x6CA SWAP9 SWAP8 SWAP7 SWAP6 SWAP5 SWAP4 SWAP3 SWAP2 SWAP1 PUSH2 0x4CE1 JUMP JUMPDEST PUSH1 0x40 MLOAD DUP1 SWAP2 SUB SWAP1 RETURN JUMPDEST CALLVALUE DUP1 ISZERO PUSH2 0x6DF JUMPI PUSH1 0x0 DUP1 REVERT JUMPDEST POP PUSH2 0x6FA PUSH1 0x4 DUP1 CALLDATASIZE SUB DUP2 ADD SWAP1 PUSH2 0x6F5 SWAP2 SWAP1 PUSH2 0x4675 JUMP JUMPDEST PUSH2 0x345F JUMP JUMPDEST PUSH1 0x40 MLOAD PUSH2 0x707 SWAP2 SWAP1 PUSH2 0x4E8C JUMP JUMPDEST PUSH1 0x40 MLOAD DUP1 SWAP2 SUB SWAP1 RETURN JUMPDEST CALLVALUE DUP1 ISZERO PUSH2 0x71C JUMPI PUSH1 0x0 DUP1 REVERT JUMPDEST POP PUSH2 0x737 PUSH1 0x4 DUP1 CALLDATASIZE SUB DUP2 ADD SWAP1 PUSH2 0x732 SWAP2 SWAP1 PUSH2 0x43AC JUMP JUMPDEST PUSH2 0x3474 JUMP JUMPDEST STOP JUMPDEST CALLVALUE DUP1 ISZERO PUSH2 0x745 JUMPI PUSH1 0x0 DUP1 REVERT JUMPDEST POP PUSH2 0x760 PUSH1 0x4 DUP1 CALLDATASIZE SUB DUP2 ADD SWAP1 PUSH2 0x75B SWAP2 SWAP1 PUSH2 0x484A JUMP JUMPDEST PUSH2 0x356C JUMP JUMPDEST STOP JUMPDEST PUSH1 0x0 PUSH32 0x4E2312E000000000000000000000000000000000000000000000000000000000 PUSH28 0xFFFFFFFFFFFFFFFFFFFFFFFFFFFFFFFFFFFFFFFFFFFFFFFFFFFFFFFF NOT AND DUP3 PUSH28 0xFFFFFFFFFFFFFFFFFFFFFFFFFFFFFFFFFFFFFFFFFFFFFFFFFFFFFFFF NOT AND EQ DUP1 PUSH2 0x7D5 JUMPI POP PUSH2 0x7D4 DUP3 PUSH2 0x37E7 JUMP JUMPDEST JUMPDEST SWAP1 POP SWAP2 SWAP1 POP JUMP JUMPDEST PUSH1 0x0 PUSH4 0x150B7A02 PUSH1 0xE0 SHL SWAP1 POP SWAP5 SWAP4 POP POP POP POP JUMP JUMPDEST PUSH1 0x4 PUSH1 0x0 SWAP1 SLOAD SWAP1 PUSH2 0x100 EXP SWAP1 DIV PUSH20 0xFFFFFFFFFFFFFFFFFFFFFFFFFFFFFFFFFFFFFFFF AND DUP2 JUMP JUMPDEST PUSH1 0xB PUSH1 0x20 MSTORE DUP1 PUSH1 0x0 MSTORE PUSH1 0x40 PUSH1 0x0 KECCAK256 PUSH1 0x0 SWAP2 POP SWAP1 POP DUP1 PUSH1 0x0 ADD PUSH1 0x0 SWAP1 SLOAD SWAP1 PUSH2 0x100 EXP SWAP1 DIV PUSH1 0xFF AND SWAP1 DUP1 PUSH1 0x1 ADD SLOAD SWAP1 DUP1 PUSH1 0x2 ADD PUSH1 0x0 SWAP1 SLOAD SWAP1 PUSH2 0x100 EXP SWAP1 DIV PUSH1 0xFF AND SWAP1 DUP1 PUSH1 0x5 ADD SLOAD SWAP1 DUP1 PUSH1 0x6 ADD SLOAD SWAP1 DUP1 PUSH1 0x7 ADD SLOAD SWAP1 DUP1 PUSH1 0x8 ADD PUSH1 0x0 SWAP1 SLOAD SWAP1 PUSH2 0x100 EXP SWAP1 DIV PUSH20 0xFFFFFFFFFFFFFFFFFFFFFFFFFFFFFFFFFFFFFFFF AND SWAP1 DUP1 PUSH1 0x9 ADD PUSH1 0x0 SWAP1 SLOAD SWAP1 PUSH2 0x100 EXP SWAP1 DIV PUSH20 0xFFFFFFFFFFFFFFFFFFFFFFFFFFFFFFFFFFFFFFFF AND SWAP1 DUP1 PUSH1 0xA ADD PUSH1 0x0 SWAP1 SLOAD SWAP1 PUSH2 0x100 EXP SWAP1 DIV PUSH20 0xFFFFFFFFFFFFFFFFFFFFFFFFFFFFFFFFFFFFFFFF AND SWAP1 DUP1 PUSH1 0xB ADD PUSH1 0x0 SWAP1 SLOAD SWAP1 PUSH2 0x100 EXP SWAP1 DIV PUSH20 0xFFFFFFFFFFFFFFFFFFFFFFFFFFFFFFFFFFFFFFFF AND SWAP1 POP DUP11 JUMP JUMPDEST PUSH1 0x0 PUSH20 0xFFFFFFFFFFFFFFFFFFFFFFFFFFFFFFFFFFFFFFFF AND DUP4 PUSH20 0xFFFFFFFFFFFFFFFFFFFFFFFFFFFFFFFFFFFFFFFF AND EQ PUSH2 0xAE0 JUMPI DUP3 PUSH20 0xFFFFFFFFFFFFFFFFFFFFFFFFFFFFFFFFFFFFFFFF AND PUSH4 0x23B872DD DUP7 DUP7 DUP6 PUSH1 0x40 MLOAD DUP5 PUSH4 0xFFFFFFFF AND PUSH1 0xE0 SHL DUP2 MSTORE PUSH1 0x4 ADD PUSH2 0x975 SWAP4 SWAP3 SWAP2 SWAP1 PUSH2 0x4D5F JUMP JUMPDEST PUSH1 0x20 PUSH1 0x40 MLOAD DUP1 DUP4 SUB DUP2 PUSH1 0x0 DUP8 DUP1 EXTCODESIZE ISZERO DUP1 ISZERO PUSH2 0x98F JUMPI PUSH1 0x0 DUP1 REVERT JUMPDEST POP GAS CALL ISZERO DUP1 ISZERO PUSH2 0x9A3 JUMPI RETURNDATASIZE PUSH1 0x0 DUP1 RETURNDATACOPY RETURNDATASIZE PUSH1 0x0 REVERT JUMPDEST POP POP POP POP PUSH1 0x40 MLOAD RETURNDATASIZE PUSH1 0x1F NOT PUSH1 0x1F DUP3 ADD AND DUP3 ADD DUP1 PUSH1 0x40 MSTORE POP DUP2 ADD SWAP1 PUSH2 0x9C7 SWAP2 SWAP1 PUSH2 0x470C JUMP JUMPDEST PUSH2 0xA06 JUMPI PUSH1 0x40 MLOAD PUSH32 0x8C379A000000000000000000000000000000000000000000000000000000000 DUP2 MSTORE PUSH1 0x4 ADD PUSH2 0x9FD SWAP1 PUSH2 0x4F7E JUMP JUMPDEST PUSH1 0x40 MLOAD DUP1 SWAP2 SUB SWAP1 REVERT JUMPDEST DUP3 PUSH20 0xFFFFFFFFFFFFFFFFFFFFFFFFFFFFFFFFFFFFFFFF AND PUSH4 0x23B872DD DUP7 PUSH2 0xA2B PUSH2 0x2D87 JUMP JUMPDEST DUP5 PUSH1 0x40 MLOAD DUP5 PUSH4 0xFFFFFFFF AND PUSH1 0xE0 SHL DUP2 MSTORE PUSH1 0x4 ADD PUSH2 0xA4A SWAP4 SWAP3 SWAP2 SWAP1 PUSH2 0x4D96 JUMP JUMPDEST PUSH1 0x20 PUSH1 0x40 MLOAD DUP1 DUP4 SUB DUP2 PUSH1 0x0 DUP8 DUP1 EXTCODESIZE ISZERO DUP1 ISZERO PUSH2 0xA64 JUMPI PUSH1 0x0 DUP1 REVERT JUMPDEST POP GAS CALL ISZERO DUP1 ISZERO PUSH2 0xA78 JUMPI RETURNDATASIZE PUSH1 0x0 DUP1 RETURNDATACOPY RETURNDATASIZE PUSH1 0x0 REVERT JUMPDEST POP POP POP POP PUSH1 0x40 MLOAD RETURNDATASIZE PUSH1 0x1F NOT PUSH1 0x1F DUP3 ADD AND DUP3 ADD DUP1 PUSH1 0x40 MSTORE POP DUP2 ADD SWAP1 PUSH2 0xA9C SWAP2 SWAP1 PUSH2 0x470C JUMP JUMPDEST PUSH2 0xADB JUMPI PUSH1 0x40 MLOAD PUSH32 0x8C379A000000000000000000000000000000000000000000000000000000000 DUP2 MSTORE PUSH1 0x4 ADD PUSH2 0xAD2 SWAP1 PUSH2 0x4FDE JUMP JUMPDEST PUSH1 0x40 MLOAD DUP1 SWAP2 SUB SWAP1 REVERT JUMPDEST PUSH2 0xBD0 JUMP JUMPDEST DUP4 PUSH20 0xFFFFFFFFFFFFFFFFFFFFFFFFFFFFFFFFFFFFFFFF AND PUSH2 0x8FC DUP4 SWAP1 DUP2 ISZERO MUL SWAP1 PUSH1 0x40 MLOAD PUSH1 0x0 PUSH1 0x40 MLOAD DUP1 DUP4 SUB DUP2 DUP6 DUP9 DUP9 CALL SWAP4 POP POP POP POP PUSH2 0xB54 JUMPI PUSH1 0x40 MLOAD PUSH32 0x8C379A000000000000000000000000000000000000000000000000000000000 DUP2 MSTORE PUSH1 0x4 ADD PUSH2 0xB4B SWAP1 PUSH2 0x4FBE JUMP JUMPDEST PUSH1 0x40 MLOAD DUP1 SWAP2 SUB SWAP1 REVERT JUMPDEST PUSH2 0xB5C PUSH2 0x2D87 JUMP JUMPDEST PUSH20 0xFFFFFFFFFFFFFFFFFFFFFFFFFFFFFFFFFFFFFFFF AND PUSH2 0x8FC DUP3 SWAP1 DUP2 ISZERO MUL SWAP1 PUSH1 0x40 MLOAD PUSH1 0x0 PUSH1 0x40 MLOAD DUP1 DUP4 SUB DUP2 DUP6 DUP9 DUP9 CALL SWAP4 POP POP POP POP PUSH2 0xBCF JUMPI PUSH1 0x40 MLOAD PUSH32 0x8C379A000000000000000000000000000000000000000000000000000000000 DUP2 MSTORE PUSH1 0x4 ADD PUSH2 0xBC6 SWAP1 PUSH2 0x501E JUMP JUMPDEST PUSH1 0x40 MLOAD DUP1 SWAP2 SUB SWAP1 REVERT JUMPDEST JUMPDEST POP POP POP POP POP JUMP JUMPDEST PUSH2 0xBDF PUSH2 0x3851 JUMP JUMPDEST PUSH20 0xFFFFFFFFFFFFFFFFFFFFFFFFFFFFFFFFFFFFFFFF AND PUSH2 0xBFD PUSH2 0x2D87 JUMP JUMPDEST PUSH20 0xFFFFFFFFFFFFFFFFFFFFFFFFFFFFFFFFFFFFFFFF AND EQ PUSH2 0xC53 JUMPI PUSH1 0x40 MLOAD PUSH32 0x8C379A000000000000000000000000000000000000000000000000000000000 DUP2 MSTORE PUSH1 0x4 ADD PUSH2 0xC4A SWAP1 PUSH2 0x4FFE JUMP JUMPDEST PUSH1 0x40 MLOAD DUP1 SWAP2 SUB SWAP1 REVERT JUMPDEST DUP2 PUSH1 0x0 ADD MLOAD PUSH1 0x5 DUP2 SWAP1 SSTORE POP DUP2 PUSH1 0x20 ADD MLOAD PUSH1 0x6 DUP2 SWAP1 SSTORE POP DUP2 PUSH1 0x40 ADD MLOAD PUSH1 0x7 DUP2 SWAP1 SSTORE POP DUP2 PUSH1 0x60 ADD MLOAD PUSH1 0x8 PUSH1 0x0 PUSH2 0x100 EXP DUP2 SLOAD DUP2 PUSH4 0xFFFFFFFF MUL NOT AND SWAP1 DUP4 PUSH4 0xFFFFFFFF AND MUL OR SWAP1 SSTORE POP DUP1 PUSH1 0x0 ADD MLOAD PUSH1 0x1 PUSH1 0x0 PUSH2 0x100 EXP DUP2 SLOAD DUP2 PUSH20 0xFFFFFFFFFFFFFFFFFFFFFFFFFFFFFFFFFFFFFFFF MUL NOT AND SWAP1 DUP4 PUSH20 0xFFFFFFFFFFFFFFFFFFFFFFFFFFFFFFFFFFFFFFFF AND MUL OR SWAP1 SSTORE POP DUP1 PUSH1 0x20 ADD MLOAD PUSH1 0x2 PUSH1 0x0 PUSH2 0x100 EXP DUP2 SLOAD DUP2 PUSH20 0xFFFFFFFFFFFFFFFFFFFFFFFFFFFFFFFFFFFFFFFF MUL NOT AND SWAP1 DUP4 PUSH20 0xFFFFFFFFFFFFFFFFFFFFFFFFFFFFFFFFFFFFFFFF AND MUL OR SWAP1 SSTORE POP DUP1 PUSH1 0x40 ADD MLOAD PUSH1 0x3 PUSH1 0x0 PUSH2 0x100 EXP DUP2 SLOAD DUP2 PUSH20 0xFFFFFFFFFFFFFFFFFFFFFFFFFFFFFFFFFFFFFFFF MUL NOT AND SWAP1 DUP4 PUSH20 0xFFFFFFFFFFFFFFFFFFFFFFFFFFFFFFFFFFFFFFFF AND MUL OR SWAP1 SSTORE POP DUP1 PUSH1 0x60 ADD MLOAD PUSH1 0x4 PUSH1 0x0 PUSH2 0x100 EXP DUP2 SLOAD DUP2 PUSH20 0xFFFFFFFFFFFFFFFFFFFFFFFFFFFFFFFFFFFFFFFF MUL NOT AND SWAP1 DUP4 PUSH20 0xFFFFFFFFFFFFFFFFFFFFFFFFFFFFFFFFFFFFFFFF AND MUL OR SWAP1 SSTORE POP POP POP JUMP JUMPDEST PUSH1 0x0 DUP4 MLOAD SWAP1 POP DUP3 MLOAD DUP2 EQ DUP1 ISZERO PUSH2 0xDC7 JUMPI POP DUP1 DUP3 MLOAD EQ JUMPDEST PUSH2 0xE06 JUMPI PUSH1 0x40 MLOAD PUSH32 0x8C379A000000000000000000000000000000000000000000000000000000000 DUP2 MSTORE PUSH1 0x4 ADD PUSH2 0xDFD SWAP1 PUSH2 0x4F9E JUMP JUMPDEST PUSH1 0x40 MLOAD DUP1 SWAP2 SUB SWAP1 REVERT JUMPDEST PUSH1 0x0 JUMPDEST DUP2 DUP2 LT ISZERO PUSH2 0xF97 JUMPI PUSH1 0x0 DUP4 DUP3 DUP2 MLOAD DUP2 LT PUSH2 0xE26 JUMPI PUSH2 0xE25 PUSH2 0x56A0 JUMP JUMPDEST JUMPDEST PUSH1 0x20 MUL PUSH1 0x20 ADD ADD MLOAD PUSH1 0xFF AND EQ ISZERO PUSH2 0xEDF JUMPI DUP5 DUP2 DUP2 MLOAD DUP2 LT PUSH2 0xE4A JUMPI PUSH2 0xE49 PUSH2 0x56A0 JUMP JUMPDEST JUMPDEST PUSH1 0x20 MUL PUSH1 0x20 ADD ADD MLOAD PUSH20 0xFFFFFFFFFFFFFFFFFFFFFFFFFFFFFFFFFFFFFFFF AND PUSH4 0x42842E0E DUP9 DUP9 DUP8 DUP6 DUP2 MLOAD DUP2 LT PUSH2 0xE82 JUMPI PUSH2 0xE81 PUSH2 0x56A0 JUMP JUMPDEST JUMPDEST PUSH1 0x20 MUL PUSH1 0x20 ADD ADD MLOAD PUSH1 0x40 MLOAD DUP5 PUSH4 0xFFFFFFFF AND PUSH1 0xE0 SHL DUP2 MSTORE PUSH1 0x4 ADD PUSH2 0xEA8 SWAP4 SWAP3 SWAP2 SWAP1 PUSH2 0x4D96 JUMP JUMPDEST PUSH1 0x0 PUSH1 0x40 MLOAD DUP1 DUP4 SUB DUP2 PUSH1 0x0 DUP8 DUP1 EXTCODESIZE ISZERO DUP1 ISZERO PUSH2 0xEC2 JUMPI PUSH1 0x0 DUP1 REVERT JUMPDEST POP GAS CALL ISZERO DUP1 ISZERO PUSH2 0xED6 JUMPI RETURNDATASIZE PUSH1 0x0 DUP1 RETURNDATACOPY RETURNDATASIZE PUSH1 0x0 REVERT JUMPDEST POP POP POP POP PUSH2 0xF86 JUMP JUMPDEST DUP5 DUP2 DUP2 MLOAD DUP2 LT PUSH2 0xEF2 JUMPI PUSH2 0xEF1 PUSH2 0x56A0 JUMP JUMPDEST JUMPDEST PUSH1 0x20 MUL PUSH1 0x20 ADD ADD MLOAD PUSH20 0xFFFFFFFFFFFFFFFFFFFFFFFFFFFFFFFFFFFFFFFF AND PUSH4 0xF242432A DUP9 DUP9 DUP8 DUP6 DUP2 MLOAD DUP2 LT PUSH2 0xF2A JUMPI PUSH2 0xF29 PUSH2 0x56A0 JUMP JUMPDEST JUMPDEST PUSH1 0x20 MUL PUSH1 0x20 ADD ADD MLOAD PUSH1 0x1 PUSH1 0x40 MLOAD DUP6 PUSH4 0xFFFFFFFF AND PUSH1 0xE0 SHL DUP2 MSTORE PUSH1 0x4 ADD PUSH2 0xF53 SWAP5 SWAP4 SWAP3 SWAP2 SWAP1 PUSH2 0x4DCD JUMP JUMPDEST PUSH1 0x0 PUSH1 0x40 MLOAD DUP1 DUP4 SUB DUP2 PUSH1 0x0 DUP8 DUP1 EXTCODESIZE ISZERO DUP1 ISZERO PUSH2 0xF6D JUMPI PUSH1 0x0 DUP1 REVERT JUMPDEST POP GAS CALL ISZERO DUP1 ISZERO PUSH2 0xF81 JUMPI RETURNDATASIZE PUSH1 0x0 DUP1 RETURNDATACOPY RETURNDATASIZE PUSH1 0x0 REVERT JUMPDEST POP POP POP POP JUMPDEST DUP1 PUSH2 0xF90 SWAP1 PUSH2 0x5599 JUMP JUMPDEST SWAP1 POP PUSH2 0xE09 JUMP JUMPDEST POP POP POP POP POP POP POP JUMP JUMPDEST PUSH1 0x0 PUSH1 0x1 PUSH1 0x4 DUP2 GT ISZERO PUSH2 0xFB6 JUMPI PUSH2 0xFB5 PUSH2 0x5671 JUMP JUMPDEST JUMPDEST PUSH1 0xB PUSH1 0x0 DUP5 DUP2 MSTORE PUSH1 0x20 ADD SWAP1 DUP2 MSTORE PUSH1 0x20 ADD PUSH1 0x0 KECCAK256 PUSH1 0x0 ADD PUSH1 0x0 SWAP1 SLOAD SWAP1 PUSH2 0x100 EXP SWAP1 DIV PUSH1 0xFF AND PUSH1 0x4 DUP2 GT ISZERO PUSH2 0xFEC JUMPI PUSH2 0xFEB PUSH2 0x5671 JUMP JUMPDEST JUMPDEST EQ DUP1 ISZERO PUSH2 0x111D JUMPI POP PUSH1 0xA PUSH1 0x0 DUP4 DUP2 MSTORE PUSH1 0x20 ADD SWAP1 DUP2 MSTORE PUSH1 0x20 ADD PUSH1 0x0 KECCAK256 PUSH1 0x9 ADD PUSH1 0x0 SWAP1 SLOAD SWAP1 PUSH2 0x100 EXP SWAP1 DIV PUSH2 0xFFFF AND PUSH2 0xFFFF AND PUSH1 0xA PUSH1 0x0 DUP5 DUP2 MSTORE PUSH1 0x20 ADD SWAP1 DUP2 MSTORE PUSH1 0x20 ADD PUSH1 0x0 KECCAK256 PUSH1 0x5 ADD SLOAD PUSH2 0x103E SWAP2 SWAP1 PUSH2 0x536A JUMP JUMPDEST PUSH1 0xB PUSH1 0x0 DUP5 DUP2 MSTORE PUSH1 0x20 ADD SWAP1 DUP2 MSTORE PUSH1 0x20 ADD PUSH1 0x0 KECCAK256 PUSH1 0x2 ADD PUSH1 0x0 SWAP1 SLOAD SWAP1 PUSH2 0x100 EXP SWAP1 DIV PUSH1 0xFF AND PUSH1 0xFF AND PUSH2 0x106F SWAP2 SWAP1 PUSH2 0x539B JUMP JUMPDEST TIMESTAMP PUSH2 0x107A SWAP2 SWAP1 PUSH2 0x53F5 JUMP JUMPDEST PUSH1 0xA PUSH1 0x0 DUP5 DUP2 MSTORE PUSH1 0x20 ADD SWAP1 DUP2 MSTORE PUSH1 0x20 ADD PUSH1 0x0 KECCAK256 PUSH1 0x9 ADD PUSH1 0x0 SWAP1 SLOAD SWAP1 PUSH2 0x100 EXP SWAP1 DIV PUSH2 0xFFFF AND PUSH2 0xFFFF AND PUSH1 0xA PUSH1 0x0 DUP6 DUP2 MSTORE PUSH1 0x20 ADD SWAP1 DUP2 MSTORE PUSH1 0x20 ADD PUSH1 0x0 KECCAK256 PUSH1 0x5 ADD SLOAD PUSH2 0x10C4 SWAP2 SWAP1 PUSH2 0x536A JUMP JUMPDEST PUSH1 0xA PUSH1 0x0 DUP6 DUP2 MSTORE PUSH1 0x20 ADD SWAP1 DUP2 MSTORE PUSH1 0x20 ADD PUSH1 0x0 KECCAK256 PUSH1 0x6 ADD SLOAD PUSH2 0x10E5 SWAP2 SWAP1 PUSH2 0x539B JUMP JUMPDEST PUSH1 0xB PUSH1 0x0 DUP6 DUP2 MSTORE PUSH1 0x20 ADD SWAP1 DUP2 MSTORE PUSH1 0x20 ADD PUSH1 0x0 KECCAK256 PUSH1 0x3 ADD PUSH1 0x0 PUSH1 0x2 DUP2 LT PUSH2 0x110E JUMPI PUSH2 0x110D PUSH2 0x56A0 JUMP JUMPDEST JUMPDEST ADD SLOAD PUSH2 0x111A SWAP2 SWAP1 PUSH2 0x5314 JUMP JUMPDEST GT ISZERO JUMPDEST SWAP1 POP SWAP2 SWAP1 POP JUMP JUMPDEST PUSH1 0x0 DUP5 PUSH2 0xFFFF AND GT DUP1 ISZERO PUSH2 0x1138 JUMPI POP PUSH1 0x0 DUP6 GT JUMPDEST PUSH2 0x1141 JUMPI PUSH1 0x0 DUP1 REVERT JUMPDEST CALLER PUSH20 0xFFFFFFFFFFFFFFFFFFFFFFFFFFFFFFFFFFFFFFFF AND PUSH1 0xA PUSH1 0x0 DUP9 DUP2 MSTORE PUSH1 0x20 ADD SWAP1 DUP2 MSTORE PUSH1 0x20 ADD PUSH1 0x0 KECCAK256 PUSH1 0x1 ADD PUSH1 0x0 SWAP1 SLOAD SWAP1 PUSH2 0x100 EXP SWAP1 DIV PUSH20 0xFFFFFFFFFFFFFFFFFFFFFFFFFFFFFFFFFFFFFFFF AND PUSH20 0xFFFFFFFFFFFFFFFFFFFFFFFFFFFFFFFFFFFFFFFF AND EQ PUSH2 0x11AF JUMPI PUSH1 0x0 DUP1 REVERT JUMPDEST PUSH1 0x1 PUSH1 0x4 DUP2 GT ISZERO PUSH2 0x11C3 JUMPI PUSH2 0x11C2 PUSH2 0x5671 JUMP JUMPDEST JUMPDEST PUSH1 0xB PUSH1 0x0 DUP9 DUP2 MSTORE PUSH1 0x20 ADD SWAP1 DUP2 MSTORE PUSH1 0x20 ADD PUSH1 0x0 KECCAK256 PUSH1 0x0 ADD PUSH1 0x0 SWAP1 SLOAD SWAP1 PUSH2 0x100 EXP SWAP1 DIV PUSH1 0xFF AND PUSH1 0x4 DUP2 GT ISZERO PUSH2 0x11F9 JUMPI PUSH2 0x11F8 PUSH2 0x5671 JUMP JUMPDEST JUMPDEST LT PUSH2 0x1203 JUMPI PUSH1 0x0 DUP1 REVERT JUMPDEST PUSH1 0x5 SLOAD PUSH2 0x1210 DUP7 DUP5 PUSH2 0x3859 JUMP JUMPDEST GT ISZERO PUSH2 0x121B JUMPI PUSH1 0x0 DUP1 REVERT JUMPDEST DUP1 PUSH1 0xA PUSH1 0x0 DUP9 DUP2 MSTORE PUSH1 0x20 ADD SWAP1 DUP2 MSTORE PUSH1 0x20 ADD PUSH1 0x0 KECCAK256 PUSH1 0x5 ADD DUP2 SWAP1 SSTORE POP DUP5 PUSH1 0xA PUSH1 0x0 DUP9 DUP2 MSTORE PUSH1 0x20 ADD SWAP1 DUP2 MSTORE PUSH1 0x20 ADD PUSH1 0x0 KECCAK256 PUSH1 0x7 ADD DUP2 SWAP1 SSTORE POP PUSH1 0x64 DUP1 PUSH1 0x6 SLOAD PUSH2 0x1261 SWAP2 SWAP1 PUSH2 0x5314 JUMP JUMPDEST DUP7 PUSH2 0x126C SWAP2 SWAP1 PUSH2 0x539B JUMP JUMPDEST PUSH2 0x1276 SWAP2 SWAP1 PUSH2 0x536A JUMP JUMPDEST PUSH1 0xB PUSH1 0x0 DUP9 DUP2 MSTORE PUSH1 0x20 ADD SWAP1 DUP2 MSTORE PUSH1 0x20 ADD PUSH1 0x0 KECCAK256 PUSH1 0x6 ADD DUP2 SWAP1 SSTORE POP PUSH1 0x0 DUP5 PUSH2 0xFFFF AND PUSH1 0xB PUSH1 0x0 DUP10 DUP2 MSTORE PUSH1 0x20 ADD SWAP1 DUP2 MSTORE PUSH1 0x20 ADD PUSH1 0x0 KECCAK256 PUSH1 0x6 ADD SLOAD PUSH2 0x12B8 SWAP2 SWAP1 PUSH2 0x55E2 JUMP JUMPDEST GT PUSH2 0x12E8 JUMPI DUP4 PUSH2 0xFFFF AND PUSH1 0xB PUSH1 0x0 DUP9 DUP2 MSTORE PUSH1 0x20 ADD SWAP1 DUP2 MSTORE PUSH1 0x20 ADD PUSH1 0x0 KECCAK256 PUSH1 0x6 ADD SLOAD PUSH2 0x12E3 SWAP2 SWAP1 PUSH2 0x536A JUMP JUMPDEST PUSH2 0x131B JUMP JUMPDEST PUSH1 0x1 DUP5 PUSH2 0xFFFF AND PUSH1 0xB PUSH1 0x0 DUP10 DUP2 MSTORE PUSH1 0x20 ADD SWAP1 DUP2 MSTORE PUSH1 0x20 ADD PUSH1 0x0 KECCAK256 PUSH1 0x6 ADD SLOAD PUSH2 0x1310 SWAP2 SWAP1 PUSH2 0x536A JUMP JUMPDEST PUSH2 0x131A SWAP2 SWAP1 PUSH2 0x5314 JUMP JUMPDEST JUMPDEST PUSH1 0xB PUSH1 0x0 DUP9 DUP2 MSTORE PUSH1 0x20 ADD SWAP1 DUP2 MSTORE PUSH1 0x20 ADD PUSH1 0x0 KECCAK256 PUSH1 0x5 ADD DUP2 SWAP1 SSTORE POP DUP2 PUSH1 0xA PUSH1 0x0 DUP9 DUP2 MSTORE PUSH1 0x20 ADD SWAP1 DUP2 MSTORE PUSH1 0x20 ADD PUSH1 0x0 KECCAK256 PUSH1 0x8 ADD DUP2 SWAP1 SSTORE POP DUP3 PUSH1 0xA PUSH1 0x0 DUP9 DUP2 MSTORE PUSH1 0x20 ADD SWAP1 DUP2 MSTORE PUSH1 0x20 ADD PUSH1 0x0 KECCAK256 PUSH1 0x3 ADD PUSH1 0x0 PUSH2 0x100 EXP DUP2 SLOAD DUP2 PUSH20 0xFFFFFFFFFFFFFFFFFFFFFFFFFFFFFFFFFFFFFFFF MUL NOT AND SWAP1 DUP4 PUSH20 0xFFFFFFFFFFFFFFFFFFFFFFFFFFFFFFFFFFFFFFFF AND MUL OR SWAP1 SSTORE POP PUSH1 0x3 DUP5 PUSH2 0xFFFF AND GT PUSH2 0x13E6 JUMPI PUSH1 0x1 PUSH1 0xB PUSH1 0x0 DUP9 DUP2 MSTORE PUSH1 0x20 ADD SWAP1 DUP2 MSTORE PUSH1 0x20 ADD PUSH1 0x0 KECCAK256 PUSH1 0x2 ADD PUSH1 0x0 PUSH2 0x100 EXP DUP2 SLOAD DUP2 PUSH1 0xFF MUL NOT AND SWAP1 DUP4 PUSH1 0xFF AND MUL OR SWAP1 SSTORE POP PUSH2 0x1466 JUMP JUMPDEST PUSH1 0x5 DUP5 PUSH2 0xFFFF AND GT PUSH2 0x1427 JUMPI PUSH1 0x2 PUSH1 0xB PUSH1 0x0 DUP9 DUP2 MSTORE PUSH1 0x20 ADD SWAP1 DUP2 MSTORE PUSH1 0x20 ADD PUSH1 0x0 KECCAK256 PUSH1 0x2 ADD PUSH1 0x0 PUSH2 0x100 EXP DUP2 SLOAD DUP2 PUSH1 0xFF MUL NOT AND SWAP1 DUP4 PUSH1 0xFF AND MUL OR SWAP1 SSTORE POP PUSH2 0x1465 JUMP JUMPDEST PUSH1 0x6 DUP5 PUSH2 0xFFFF AND LT PUSH2 0x1464 JUMPI PUSH1 0x3 PUSH1 0xB PUSH1 0x0 DUP9 DUP2 MSTORE PUSH1 0x20 ADD SWAP1 DUP2 MSTORE PUSH1 0x20 ADD PUSH1 0x0 KECCAK256 PUSH1 0x2 ADD PUSH1 0x0 PUSH2 0x100 EXP DUP2 SLOAD DUP2 PUSH1 0xFF MUL NOT AND SWAP1 DUP4 PUSH1 0xFF AND MUL OR SWAP1 SSTORE POP JUMPDEST JUMPDEST JUMPDEST DUP6 DUP4 PUSH20 0xFFFFFFFFFFFFFFFFFFFFFFFFFFFFFFFFFFFFFFFF AND PUSH32 0x8E1902F1B79A83752DD0C0B34C25D3D3B241FBA59DEFC28B8FB8E182360136D1 DUP8 PUSH1 0xB PUSH1 0x0 DUP12 DUP2 MSTORE PUSH1 0x20 ADD SWAP1 DUP2 MSTORE PUSH1 0x20 ADD PUSH1 0x0 KECCAK256 PUSH1 0x6 ADD SLOAD PUSH1 0xB PUSH1 0x0 DUP13 DUP2 MSTORE PUSH1 0x20 ADD SWAP1 DUP2 MSTORE PUSH1 0x20 ADD PUSH1 0x0 KECCAK256 PUSH1 0x5 ADD SLOAD PUSH1 0xA PUSH1 0x0 DUP14 DUP2 MSTORE PUSH1 0x20 ADD SWAP1 DUP2 MSTORE PUSH1 0x20 ADD PUSH1 0x0 KECCAK256 PUSH1 0x8 ADD SLOAD DUP8 DUP12 PUSH1 0x40 MLOAD PUSH2 0x14F9 SWAP7 SWAP6 SWAP5 SWAP4 SWAP3 SWAP2 SWAP1 PUSH2 0x50AC JUMP JUMPDEST PUSH1 0x40 MLOAD DUP1 SWAP2 SUB SWAP1 LOG3 POP POP POP POP POP POP JUMP JUMPDEST PUSH2 0x1512 DUP3 PUSH2 0x3894 JUMP JUMPDEST PUSH1 0x0 PUSH20 0xFFFFFFFFFFFFFFFFFFFFFFFFFFFFFFFFFFFFFFFF AND PUSH1 0xA PUSH1 0x0 DUP5 DUP2 MSTORE PUSH1 0x20 ADD SWAP1 DUP2 MSTORE PUSH1 0x20 ADD PUSH1 0x0 KECCAK256 PUSH1 0x3 ADD PUSH1 0x0 SWAP1 SLOAD SWAP1 PUSH2 0x100 EXP SWAP1 DIV PUSH20 0xFFFFFFFFFFFFFFFFFFFFFFFFFFFFFFFFFFFFFFFF AND PUSH20 0xFFFFFFFFFFFFFFFFFFFFFFFFFFFFFFFFFFFFFFFF AND EQ ISZERO PUSH2 0x15E5 JUMPI PUSH1 0x8 PUSH1 0x0 SWAP1 SLOAD SWAP1 PUSH2 0x100 EXP SWAP1 DIV PUSH4 0xFFFFFFFF AND PUSH4 0xFFFFFFFF AND PUSH1 0xA PUSH1 0x0 DUP5 DUP2 MSTORE PUSH1 0x20 ADD SWAP1 DUP2 MSTORE PUSH1 0x20 ADD PUSH1 0x0 KECCAK256 PUSH1 0x7 ADD SLOAD PUSH2 0x15B7 SWAP2 SWAP1 PUSH2 0x536A JUMP JUMPDEST PUSH1 0xA PUSH1 0x0 DUP5 DUP2 MSTORE PUSH1 0x20 ADD SWAP1 DUP2 MSTORE PUSH1 0x20 ADD PUSH1 0x0 KECCAK256 PUSH1 0x7 ADD SLOAD PUSH2 0x15D8 SWAP2 SWAP1 PUSH2 0x5314 JUMP JUMPDEST CALLVALUE LT ISZERO PUSH2 0x15E4 JUMPI PUSH1 0x0 DUP1 REVERT JUMPDEST JUMPDEST DUP1 PUSH1 0xB PUSH1 0x0 DUP5 DUP2 MSTORE PUSH1 0x20 ADD SWAP1 DUP2 MSTORE PUSH1 0x20 ADD PUSH1 0x0 KECCAK256 PUSH1 0x1 ADD DUP2 SWAP1 SSTORE POP PUSH2 0x16C8 CALLER PUSH1 0xA PUSH1 0x0 DUP6 DUP2 MSTORE PUSH1 0x20 ADD SWAP1 DUP2 MSTORE PUSH1 0x20 ADD PUSH1 0x0 KECCAK256 PUSH1 0x1 ADD PUSH1 0x0 SWAP1 SLOAD SWAP1 PUSH2 0x100 EXP SWAP1 DIV PUSH20 0xFFFFFFFFFFFFFFFFFFFFFFFFFFFFFFFFFFFFFFFF AND PUSH1 0xA PUSH1 0x0 DUP7 DUP2 MSTORE PUSH1 0x20 ADD SWAP1 DUP2 MSTORE PUSH1 0x20 ADD PUSH1 0x0 KECCAK256 PUSH1 0x3 ADD PUSH1 0x0 SWAP1 SLOAD SWAP1 PUSH2 0x100 EXP SWAP1 DIV PUSH20 0xFFFFFFFFFFFFFFFFFFFFFFFFFFFFFFFFFFFFFFFF AND PUSH1 0xA PUSH1 0x0 DUP8 DUP2 MSTORE PUSH1 0x20 ADD SWAP1 DUP2 MSTORE PUSH1 0x20 ADD PUSH1 0x0 KECCAK256 PUSH1 0x7 ADD SLOAD PUSH1 0x8 PUSH1 0x0 SWAP1 SLOAD SWAP1 PUSH2 0x100 EXP SWAP1 DIV PUSH4 0xFFFFFFFF AND PUSH4 0xFFFFFFFF AND PUSH1 0xA PUSH1 0x0 DUP10 DUP2 MSTORE PUSH1 0x20 ADD SWAP1 DUP2 MSTORE PUSH1 0x20 ADD PUSH1 0x0 KECCAK256 PUSH1 0x7 ADD SLOAD PUSH2 0x16C3 SWAP2 SWAP1 PUSH2 0x536A JUMP JUMPDEST PUSH2 0x904 JUMP JUMPDEST POP POP JUMP JUMPDEST PUSH1 0x5 SLOAD DUP2 JUMP JUMPDEST PUSH2 0x16DA PUSH2 0x3851 JUMP JUMPDEST PUSH20 0xFFFFFFFFFFFFFFFFFFFFFFFFFFFFFFFFFFFFFFFF AND PUSH2 0x16F8 PUSH2 0x2D87 JUMP JUMPDEST PUSH20 0xFFFFFFFFFFFFFFFFFFFFFFFFFFFFFFFFFFFFFFFF AND EQ PUSH2 0x174E JUMPI PUSH1 0x40 MLOAD PUSH32 0x8C379A000000000000000000000000000000000000000000000000000000000 DUP2 MSTORE PUSH1 0x4 ADD PUSH2 0x1745 SWAP1 PUSH2 0x4FFE JUMP JUMPDEST PUSH1 0x40 MLOAD DUP1 SWAP2 SUB SWAP1 REVERT JUMPDEST PUSH2 0x1758 PUSH1 0x0 PUSH2 0x3B6F JUMP JUMPDEST JUMP JUMPDEST PUSH1 0x0 DUP2 PUSH1 0xC0 ADD MLOAD PUSH2 0xFFFF AND GT DUP1 ISZERO PUSH2 0x1776 JUMPI POP PUSH1 0x0 DUP2 PUSH1 0x40 ADD MLOAD GT JUMPDEST DUP1 ISZERO PUSH2 0x1787 JUMPI POP PUSH1 0x0 DUP2 PUSH1 0x20 ADD MLOAD MLOAD GT JUMPDEST PUSH2 0x1790 JUMPI PUSH1 0x0 DUP1 REVERT JUMPDEST DUP1 PUSH1 0xA0 ADD MLOAD MLOAD DUP2 PUSH1 0x20 ADD MLOAD MLOAD EQ DUP1 ISZERO PUSH2 0x17B2 JUMPI POP DUP1 PUSH1 0xE0 ADD MLOAD MLOAD DUP2 PUSH1 0xA0 ADD MLOAD MLOAD EQ JUMPDEST PUSH2 0x17BB JUMPI PUSH1 0x0 DUP1 REVERT JUMPDEST PUSH1 0x5 SLOAD PUSH2 0x17D0 DUP3 PUSH1 0x40 ADD MLOAD DUP4 PUSH1 0x80 ADD MLOAD PUSH2 0x3859 JUMP JUMPDEST GT ISZERO PUSH2 0x17DB JUMPI PUSH1 0x0 DUP1 REVERT JUMPDEST DUP1 PUSH1 0x80 ADD MLOAD PUSH1 0xA PUSH1 0x0 PUSH1 0x9 SLOAD DUP2 MSTORE PUSH1 0x20 ADD SWAP1 DUP2 MSTORE PUSH1 0x20 ADD PUSH1 0x0 KECCAK256 PUSH1 0x8 ADD DUP2 SWAP1 SSTORE POP PUSH1 0x3 DUP2 PUSH1 0xC0 ADD MLOAD PUSH2 0xFFFF AND GT PUSH2 0x1843 JUMPI PUSH1 0x1 PUSH1 0xB PUSH1 0x0 PUSH1 0x9 SLOAD DUP2 MSTORE PUSH1 0x20 ADD SWAP1 DUP2 MSTORE PUSH1 0x20 ADD PUSH1 0x0 KECCAK256 PUSH1 0x2 ADD PUSH1 0x0 PUSH2 0x100 EXP DUP2 SLOAD DUP2 PUSH1 0xFF MUL NOT AND SWAP1 DUP4 PUSH1 0xFF AND MUL OR SWAP1 SSTORE POP PUSH2 0x18CF JUMP JUMPDEST PUSH1 0x5 DUP2 PUSH1 0xC0 ADD MLOAD PUSH2 0xFFFF AND GT PUSH2 0x188A JUMPI PUSH1 0x2 PUSH1 0xB PUSH1 0x0 PUSH1 0x9 SLOAD DUP2 MSTORE PUSH1 0x20 ADD SWAP1 DUP2 MSTORE PUSH1 0x20 ADD PUSH1 0x0 KECCAK256 PUSH1 0x2 ADD PUSH1 0x0 PUSH2 0x100 EXP DUP2 SLOAD DUP2 PUSH1 0xFF MUL NOT AND SWAP1 DUP4 PUSH1 0xFF AND MUL OR SWAP1 SSTORE POP PUSH2 0x18CE JUMP JUMPDEST PUSH1 0x6 DUP2 PUSH1 0xC0 ADD MLOAD PUSH2 0xFFFF AND LT PUSH2 0x18CD JUMPI PUSH1 0x3 PUSH1 0xB PUSH1 0x0 PUSH1 0x9 SLOAD DUP2 MSTORE PUSH1 0x20 ADD SWAP1 DUP2 MSTORE PUSH1 0x20 ADD PUSH1 0x0 KECCAK256 PUSH1 0x2 ADD PUSH1 0x0 PUSH2 0x100 EXP DUP2 SLOAD DUP2 PUSH1 0xFF MUL NOT AND SWAP1 DUP4 PUSH1 0xFF AND MUL OR SWAP1 SSTORE POP JUMPDEST JUMPDEST JUMPDEST DUP1 PUSH1 0xA0 ADD MLOAD PUSH1 0xA PUSH1 0x0 PUSH1 0x9 SLOAD DUP2 MSTORE PUSH1 0x20 ADD SWAP1 DUP2 MSTORE PUSH1 0x20 ADD PUSH1 0x0 KECCAK256 PUSH1 0x4 ADD SWAP1 DUP1 MLOAD SWAP1 PUSH1 0x20 ADD SWAP1 PUSH2 0x18FF SWAP3 SWAP2 SWAP1 PUSH2 0x3CFC JUMP JUMPDEST POP DUP1 PUSH1 0x40 ADD MLOAD PUSH1 0xA PUSH1 0x0 PUSH1 0x9 SLOAD DUP2 MSTORE PUSH1 0x20 ADD SWAP1 DUP2 MSTORE PUSH1 0x20 ADD PUSH1 0x0 KECCAK256 PUSH1 0x7 ADD DUP2 SWAP1 SSTORE POP PUSH1 0x64 DUP1 PUSH1 0x6 SLOAD PUSH2 0x1931 SWAP2 SWAP1 PUSH2 0x5314 JUMP JUMPDEST DUP3 PUSH1 0x40 ADD MLOAD PUSH2 0x1940 SWAP2 SWAP1 PUSH2 0x539B JUMP JUMPDEST PUSH2 0x194A SWAP2 SWAP1 PUSH2 0x536A JUMP JUMPDEST PUSH1 0xB PUSH1 0x0 PUSH1 0x9 SLOAD DUP2 MSTORE PUSH1 0x20 ADD SWAP1 DUP2 MSTORE PUSH1 0x20 ADD PUSH1 0x0 KECCAK256 PUSH1 0x6 ADD DUP2 SWAP1 SSTORE POP DUP1 PUSH1 0xC0 ADD MLOAD PUSH1 0xA PUSH1 0x0 PUSH1 0x9 SLOAD DUP2 MSTORE PUSH1 0x20 ADD SWAP1 DUP2 MSTORE PUSH1 0x20 ADD PUSH1 0x0 KECCAK256 PUSH1 0x9 ADD PUSH1 0x0 PUSH2 0x100 EXP DUP2 SLOAD DUP2 PUSH2 0xFFFF MUL NOT AND SWAP1 DUP4 PUSH2 0xFFFF AND MUL OR SWAP1 SSTORE POP PUSH1 0x0 DUP2 PUSH1 0xC0 ADD MLOAD PUSH2 0xFFFF AND PUSH1 0xB PUSH1 0x0 PUSH1 0x9 SLOAD DUP2 MSTORE PUSH1 0x20 ADD SWAP1 DUP2 MSTORE PUSH1 0x20 ADD PUSH1 0x0 KECCAK256 PUSH1 0x6 ADD SLOAD PUSH2 0x19CB SWAP2 SWAP1 PUSH2 0x55E2 JUMP JUMPDEST GT PUSH2 0x1A01 JUMPI DUP1 PUSH1 0xC0 ADD MLOAD PUSH2 0xFFFF AND PUSH1 0xB PUSH1 0x0 PUSH1 0x9 SLOAD DUP2 MSTORE PUSH1 0x20 ADD SWAP1 DUP2 MSTORE PUSH1 0x20 ADD PUSH1 0x0 KECCAK256 PUSH1 0x6 ADD SLOAD PUSH2 0x19FC SWAP2 SWAP1 PUSH2 0x536A JUMP JUMPDEST PUSH2 0x1A3A JUMP JUMPDEST PUSH1 0x1 DUP2 PUSH1 0xC0 ADD MLOAD PUSH2 0xFFFF AND PUSH1 0xB PUSH1 0x0 PUSH1 0x9 SLOAD DUP2 MSTORE PUSH1 0x20 ADD SWAP1 DUP2 MSTORE PUSH1 0x20 ADD PUSH1 0x0 KECCAK256 PUSH1 0x6 ADD SLOAD PUSH2 0x1A2F SWAP2 SWAP1 PUSH2 0x536A JUMP JUMPDEST PUSH2 0x1A39 SWAP2 SWAP1 PUSH2 0x5314 JUMP JUMPDEST JUMPDEST PUSH1 0xB PUSH1 0x0 PUSH1 0x9 SLOAD DUP2 MSTORE PUSH1 0x20 ADD SWAP1 DUP2 MSTORE PUSH1 0x20 ADD PUSH1 0x0 KECCAK256 PUSH1 0x5 ADD DUP2 SWAP1 SSTORE POP PUSH1 0x0 PUSH1 0xB PUSH1 0x0 PUSH1 0x9 SLOAD DUP2 MSTORE PUSH1 0x20 ADD SWAP1 DUP2 MSTORE PUSH1 0x20 ADD PUSH1 0x0 KECCAK256 PUSH1 0x0 ADD PUSH1 0x0 PUSH2 0x100 EXP DUP2 SLOAD DUP2 PUSH1 0xFF MUL NOT AND SWAP1 DUP4 PUSH1 0x4 DUP2 GT ISZERO PUSH2 0x1A92 JUMPI PUSH2 0x1A91 PUSH2 0x5671 JUMP JUMPDEST JUMPDEST MUL OR SWAP1 SSTORE POP PUSH1 0x1 PUSH1 0x0 SWAP1 SLOAD SWAP1 PUSH2 0x100 EXP SWAP1 DIV PUSH20 0xFFFFFFFFFFFFFFFFFFFFFFFFFFFFFFFFFFFFFFFF AND PUSH1 0xB PUSH1 0x0 PUSH1 0x9 SLOAD DUP2 MSTORE PUSH1 0x20 ADD SWAP1 DUP2 MSTORE PUSH1 0x20 ADD PUSH1 0x0 KECCAK256 PUSH1 0x8 ADD PUSH1 0x0 PUSH2 0x100 EXP DUP2 SLOAD DUP2 PUSH20 0xFFFFFFFFFFFFFFFFFFFFFFFFFFFFFFFFFFFFFFFF MUL NOT AND SWAP1 DUP4 PUSH20 0xFFFFFFFFFFFFFFFFFFFFFFFFFFFFFFFFFFFFFFFF AND MUL OR SWAP1 SSTORE POP PUSH1 0x2 PUSH1 0x0 SWAP1 SLOAD SWAP1 PUSH2 0x100 EXP SWAP1 DIV PUSH20 0xFFFFFFFFFFFFFFFFFFFFFFFFFFFFFFFFFFFFFFFF AND PUSH1 0xB PUSH1 0x0 PUSH1 0x9 SLOAD DUP2 MSTORE PUSH1 0x20 ADD SWAP1 DUP2 MSTORE PUSH1 0x20 ADD PUSH1 0x0 KECCAK256 PUSH1 0x9 ADD PUSH1 0x0 PUSH2 0x100 EXP DUP2 SLOAD DUP2 PUSH20 0xFFFFFFFFFFFFFFFFFFFFFFFFFFFFFFFFFFFFFFFF MUL NOT AND SWAP1 DUP4 PUSH20 0xFFFFFFFFFFFFFFFFFFFFFFFFFFFFFFFFFFFFFFFF AND MUL OR SWAP1 SSTORE POP PUSH1 0x3 PUSH1 0x0 SWAP1 SLOAD SWAP1 PUSH2 0x100 EXP SWAP1 DIV PUSH20 0xFFFFFFFFFFFFFFFFFFFFFFFFFFFFFFFFFFFFFFFF AND PUSH1 0xB PUSH1 0x0 PUSH1 0x9 SLOAD DUP2 MSTORE PUSH1 0x20 ADD SWAP1 DUP2 MSTORE PUSH1 0x20 ADD PUSH1 0x0 KECCAK256 PUSH1 0xA ADD PUSH1 0x0 PUSH2 0x100 EXP DUP2 SLOAD DUP2 PUSH20 0xFFFFFFFFFFFFFFFFFFFFFFFFFFFFFFFFFFFFFFFF MUL NOT AND SWAP1 DUP4 PUSH20 0xFFFFFFFFFFFFFFFFFFFFFFFFFFFFFFFFFFFFFFFF AND MUL OR SWAP1 SSTORE POP PUSH1 0x4 PUSH1 0x0 SWAP1 SLOAD SWAP1 PUSH2 0x100 EXP SWAP1 DIV PUSH20 0xFFFFFFFFFFFFFFFFFFFFFFFFFFFFFFFFFFFFFFFF AND PUSH1 0xB PUSH1 0x0 PUSH1 0x9 SLOAD DUP2 MSTORE PUSH1 0x20 ADD SWAP1 DUP2 MSTORE PUSH1 0x20 ADD PUSH1 0x0 KECCAK256 PUSH1 0xB ADD PUSH1 0x0 PUSH2 0x100 EXP DUP2 SLOAD DUP2 PUSH20 0xFFFFFFFFFFFFFFFFFFFFFFFFFFFFFFFFFFFFFFFF MUL NOT AND SWAP1 DUP4 PUSH20 0xFFFFFFFFFFFFFFFFFFFFFFFFFFFFFFFFFFFFFFFF AND MUL OR SWAP1 SSTORE POP DUP1 PUSH1 0x20 ADD MLOAD PUSH1 0xA PUSH1 0x0 PUSH1 0x9 SLOAD DUP2 MSTORE PUSH1 0x20 ADD SWAP1 DUP2 MSTORE PUSH1 0x20 ADD PUSH1 0x0 KECCAK256 PUSH1 0x0 ADD SWAP1 DUP1 MLOAD SWAP1 PUSH1 0x20 ADD SWAP1 PUSH2 0x1CAB SWAP3 SWAP2 SWAP1 PUSH2 0x3D49 JUMP JUMPDEST POP CALLER PUSH1 0xA PUSH1 0x0 PUSH1 0x9 SLOAD DUP2 MSTORE PUSH1 0x20 ADD SWAP1 DUP2 MSTORE PUSH1 0x20 ADD PUSH1 0x0 KECCAK256 PUSH1 0x1 ADD PUSH1 0x0 PUSH2 0x100 EXP DUP2 SLOAD DUP2 PUSH20 0xFFFFFFFFFFFFFFFFFFFFFFFFFFFFFFFFFFFFFFFF MUL NOT AND SWAP1 DUP4 PUSH20 0xFFFFFFFFFFFFFFFFFFFFFFFFFFFFFFFFFFFFFFFF AND MUL OR SWAP1 SSTORE POP DUP1 PUSH1 0x0 ADD MLOAD PUSH1 0xA PUSH1 0x0 PUSH1 0x9 SLOAD DUP2 MSTORE PUSH1 0x20 ADD SWAP1 DUP2 MSTORE PUSH1 0x20 ADD PUSH1 0x0 KECCAK256 PUSH1 0x3 ADD PUSH1 0x0 PUSH2 0x100 EXP DUP2 SLOAD DUP2 PUSH20 0xFFFFFFFFFFFFFFFFFFFFFFFFFFFFFFFFFFFFFFFF MUL NOT AND SWAP1 DUP4 PUSH20 0xFFFFFFFFFFFFFFFFFFFFFFFFFFFFFFFFFFFFFFFF AND MUL OR SWAP1 SSTORE POP DUP1 PUSH1 0xE0 ADD MLOAD PUSH1 0xA PUSH1 0x0 PUSH1 0x9 SLOAD DUP2 MSTORE PUSH1 0x20 ADD SWAP1 DUP2 MSTORE PUSH1 0x20 ADD PUSH1 0x0 KECCAK256 PUSH1 0xA ADD SWAP1 DUP1 MLOAD SWAP1 PUSH1 0x20 ADD SWAP1 PUSH2 0x1D8E SWAP3 SWAP2 SWAP1 PUSH2 0x3DD3 JUMP JUMPDEST POP PUSH3 0x93A80 PUSH1 0xA PUSH1 0x0 PUSH1 0x9 SLOAD DUP2 MSTORE PUSH1 0x20 ADD SWAP1 DUP2 MSTORE PUSH1 0x20 ADD PUSH1 0x0 KECCAK256 PUSH1 0x5 ADD DUP2 SWAP1 SSTORE POP PUSH2 0x1DC8 CALLER ADDRESS DUP4 PUSH1 0x20 ADD MLOAD DUP5 PUSH1 0xA0 ADD MLOAD DUP6 PUSH1 0xE0 ADD MLOAD PUSH2 0xDB1 JUMP JUMPDEST PUSH1 0x9 SLOAD DUP2 PUSH1 0x0 ADD MLOAD PUSH20 0xFFFFFFFFFFFFFFFFFFFFFFFFFFFFFFFFFFFFFFFF AND CALLER PUSH20 0xFFFFFFFFFFFFFFFFFFFFFFFFFFFFFFFFFFFFFFFF AND PUSH32 0x6B4FA68493C57D0A3BCFE8FD7DB7297B3F4ED7C3F730FD563791EAAFA27439D DUP5 PUSH1 0x20 ADD MLOAD DUP6 PUSH1 0xA0 ADD MLOAD DUP7 PUSH1 0xE0 ADD MLOAD PUSH1 0x40 MLOAD PUSH2 0x1E3C SWAP4 SWAP3 SWAP2 SWAP1 PUSH2 0x4E25 JUMP JUMPDEST PUSH1 0x40 MLOAD DUP1 SWAP2 SUB SWAP1 LOG4 PUSH1 0x9 PUSH1 0x0 DUP2 SLOAD PUSH2 0x1E53 SWAP1 PUSH2 0x5599 JUMP JUMPDEST SWAP2 SWAP1 POP DUP2 SWAP1 SSTORE POP POP JUMP JUMPDEST PUSH1 0x6 SLOAD DUP2 JUMP JUMPDEST PUSH1 0xA PUSH1 0x0 DUP3 DUP2 MSTORE PUSH1 0x20 ADD SWAP1 DUP2 MSTORE PUSH1 0x20 ADD PUSH1 0x0 KECCAK256 PUSH1 0x1 ADD PUSH1 0x0 SWAP1 SLOAD SWAP1 PUSH2 0x100 EXP SWAP1 DIV PUSH20 0xFFFFFFFFFFFFFFFFFFFFFFFFFFFFFFFFFFFFFFFF AND PUSH20 0xFFFFFFFFFFFFFFFFFFFFFFFFFFFFFFFFFFFFFFFF AND CALLER PUSH20 0xFFFFFFFFFFFFFFFFFFFFFFFFFFFFFFFFFFFFFFFF AND EQ DUP1 PUSH2 0x1F34 JUMPI POP PUSH1 0xA PUSH1 0x0 DUP3 DUP2 MSTORE PUSH1 0x20 ADD SWAP1 DUP2 MSTORE PUSH1 0x20 ADD PUSH1 0x0 KECCAK256 PUSH1 0x2 ADD PUSH1 0x0 SWAP1 SLOAD SWAP1 PUSH2 0x100 EXP SWAP1 DIV PUSH20 0xFFFFFFFFFFFFFFFFFFFFFFFFFFFFFFFFFFFFFFFF AND PUSH20 0xFFFFFFFFFFFFFFFFFFFFFFFFFFFFFFFFFFFFFFFF AND CALLER PUSH20 0xFFFFFFFFFFFFFFFFFFFFFFFFFFFFFFFFFFFFFFFF AND EQ JUMPDEST PUSH2 0x1F3D JUMPI PUSH1 0x0 DUP1 REVERT JUMPDEST PUSH1 0xB PUSH1 0x0 DUP3 DUP2 MSTORE PUSH1 0x20 ADD SWAP1 DUP2 MSTORE PUSH1 0x20 ADD PUSH1 0x0 KECCAK256 PUSH1 0x3 ADD PUSH1 0x1 PUSH1 0x2 DUP2 LT PUSH2 0x1F66 JUMPI PUSH2 0x1F65 PUSH2 0x56A0 JUMP JUMPDEST JUMPDEST ADD SLOAD TIMESTAMP LT ISZERO DUP1 PUSH2 0x1FA2 JUMPI POP PUSH1 0xB PUSH1 0x0 DUP3 DUP2 MSTORE PUSH1 0x20 ADD SWAP1 DUP2 MSTORE PUSH1 0x20 ADD PUSH1 0x0 KECCAK256 PUSH1 0x6 ADD SLOAD PUSH1 0xB PUSH1 0x0 DUP4 DUP2 MSTORE PUSH1 0x20 ADD SWAP1 DUP2 MSTORE PUSH1 0x20 ADD PUSH1 0x0 KECCAK256 PUSH1 0x7 ADD SLOAD LT ISZERO JUMPDEST DUP1 PUSH2 0x1FB2 JUMPI POP PUSH2 0x1FB1 DUP2 PUSH2 0xFA0 JUMP JUMPDEST JUMPDEST PUSH2 0x1FBB JUMPI PUSH1 0x0 DUP1 REVERT JUMPDEST PUSH1 0x2 PUSH1 0x4 DUP2 GT ISZERO PUSH2 0x1FCF JUMPI PUSH2 0x1FCE PUSH2 0x5671 JUMP JUMPDEST JUMPDEST PUSH1 0xB PUSH1 0x0 DUP4 DUP2 MSTORE PUSH1 0x20 ADD SWAP1 DUP2 MSTORE PUSH1 0x20 ADD PUSH1 0x0 KECCAK256 PUSH1 0x0 ADD PUSH1 0x0 SWAP1 SLOAD SWAP1 PUSH2 0x100 EXP SWAP1 DIV PUSH1 0xFF AND PUSH1 0x4 DUP2 GT ISZERO PUSH2 0x2005 JUMPI PUSH2 0x2004 PUSH2 0x5671 JUMP JUMPDEST JUMPDEST EQ DUP1 PUSH2 0x2058 JUMPI POP PUSH1 0x1 PUSH1 0x4 DUP2 GT ISZERO PUSH2 0x2020 JUMPI PUSH2 0x201F PUSH2 0x5671 JUMP JUMPDEST JUMPDEST PUSH1 0xB PUSH1 0x0 DUP4 DUP2 MSTORE PUSH1 0x20 ADD SWAP1 DUP2 MSTORE PUSH1 0x20 ADD PUSH1 0x0 KECCAK256 PUSH1 0x0 ADD PUSH1 0x0 SWAP1 SLOAD SWAP1 PUSH2 0x100 EXP SWAP1 DIV PUSH1 0xFF AND PUSH1 0x4 DUP2 GT ISZERO PUSH2 0x2056 JUMPI PUSH2 0x2055 PUSH2 0x5671 JUMP JUMPDEST JUMPDEST EQ JUMPDEST PUSH2 0x2061 JUMPI PUSH1 0x0 DUP1 REVERT JUMPDEST PUSH2 0x206A DUP2 PUSH2 0xFA0 JUMP JUMPDEST ISZERO PUSH2 0x22AD JUMPI PUSH1 0x4 PUSH1 0xB PUSH1 0x0 DUP4 DUP2 MSTORE PUSH1 0x20 ADD SWAP1 DUP2 MSTORE PUSH1 0x20 ADD PUSH1 0x0 KECCAK256 PUSH1 0x0 ADD PUSH1 0x0 PUSH2 0x100 EXP DUP2 SLOAD DUP2 PUSH1 0xFF MUL NOT AND SWAP1 DUP4 PUSH1 0x4 DUP2 GT ISZERO PUSH2 0x20A9 JUMPI PUSH2 0x20A8 PUSH2 0x5671 JUMP JUMPDEST JUMPDEST MUL OR SWAP1 SSTORE POP TIMESTAMP PUSH1 0xB PUSH1 0x0 DUP4 DUP2 MSTORE PUSH1 0x20 ADD SWAP1 DUP2 MSTORE PUSH1 0x20 ADD PUSH1 0x0 KECCAK256 PUSH1 0x3 ADD PUSH1 0x1 PUSH1 0x2 DUP2 LT PUSH2 0x20D8 JUMPI PUSH2 0x20D7 PUSH2 0x56A0 JUMP JUMPDEST JUMPDEST ADD DUP2 SWAP1 SSTORE POP PUSH2 0x22A8 ADDRESS PUSH1 0xA PUSH1 0x0 DUP5 DUP2 MSTORE PUSH1 0x20 ADD SWAP1 DUP2 MSTORE PUSH1 0x20 ADD PUSH1 0x0 KECCAK256 PUSH1 0x2 ADD PUSH1 0x0 SWAP1 SLOAD SWAP1 PUSH2 0x100 EXP SWAP1 DIV PUSH20 0xFFFFFFFFFFFFFFFFFFFFFFFFFFFFFFFFFFFFFFFF AND PUSH1 0xA PUSH1 0x0 DUP6 DUP2 MSTORE PUSH1 0x20 ADD SWAP1 DUP2 MSTORE PUSH1 0x20 ADD PUSH1 0x0 KECCAK256 PUSH1 0x0 ADD DUP1 SLOAD DUP1 PUSH1 0x20 MUL PUSH1 0x20 ADD PUSH1 0x40 MLOAD SWAP1 DUP2 ADD PUSH1 0x40 MSTORE DUP1 SWAP3 SWAP2 SWAP1 DUP2 DUP2 MSTORE PUSH1 0x20 ADD DUP3 DUP1 SLOAD DUP1 ISZERO PUSH2 0x21AE JUMPI PUSH1 0x20 MUL DUP3 ADD SWAP2 SWAP1 PUSH1 0x0 MSTORE PUSH1 0x20 PUSH1 0x0 KECCAK256 SWAP1 JUMPDEST DUP2 PUSH1 0x0 SWAP1 SLOAD SWAP1 PUSH2 0x100 EXP SWAP1 DIV PUSH20 0xFFFFFFFFFFFFFFFFFFFFFFFFFFFFFFFFFFFFFFFF AND PUSH20 0xFFFFFFFFFFFFFFFFFFFFFFFFFFFFFFFFFFFFFFFF AND DUP2 MSTORE PUSH1 0x20 ADD SWAP1 PUSH1 0x1 ADD SWAP1 DUP1 DUP4 GT PUSH2 0x2164 JUMPI JUMPDEST POP POP POP POP POP PUSH1 0xA PUSH1 0x0 DUP7 DUP2 MSTORE PUSH1 0x20 ADD SWAP1 DUP2 MSTORE PUSH1 0x20 ADD PUSH1 0x0 KECCAK256 PUSH1 0x4 ADD DUP1 SLOAD DUP1 PUSH1 0x20 MUL PUSH1 0x20 ADD PUSH1 0x40 MLOAD SWAP1 DUP2 ADD PUSH1 0x40 MSTORE DUP1 SWAP3 SWAP2 SWAP1 DUP2 DUP2 MSTORE PUSH1 0x20 ADD DUP3 DUP1 SLOAD DUP1 ISZERO PUSH2 0x2213 JUMPI PUSH1 0x20 MUL DUP3 ADD SWAP2 SWAP1 PUSH1 0x0 MSTORE PUSH1 0x20 PUSH1 0x0 KECCAK256 SWAP1 JUMPDEST DUP2 SLOAD DUP2 MSTORE PUSH1 0x20 ADD SWAP1 PUSH1 0x1 ADD SWAP1 DUP1 DUP4 GT PUSH2 0x21FF JUMPI JUMPDEST POP POP POP POP POP PUSH1 0xA PUSH1 0x0 DUP8 DUP2 MSTORE PUSH1 0x20 ADD SWAP1 DUP2 MSTORE PUSH1 0x20 ADD PUSH1 0x0 KECCAK256 PUSH1 0xA ADD DUP1 SLOAD DUP1 PUSH1 0x20 MUL PUSH1 0x20 ADD PUSH1 0x40 MLOAD SWAP1 DUP2 ADD PUSH1 0x40 MSTORE DUP1 SWAP3 SWAP2 SWAP1 DUP2 DUP2 MSTORE PUSH1 0x20 ADD DUP3 DUP1 SLOAD DUP1 ISZERO PUSH2 0x229E JUMPI PUSH1 0x20 MUL DUP3 ADD SWAP2 SWAP1 PUSH1 0x0 MSTORE PUSH1 0x20 PUSH1 0x0 KECCAK256 SWAP1 PUSH1 0x0 SWAP1 JUMPDEST DUP3 DUP3 SWAP1 SLOAD SWAP1 PUSH2 0x100 EXP SWAP1 DIV PUSH1 0xFF AND PUSH1 0xFF AND DUP2 MSTORE PUSH1 0x20 ADD SWAP1 PUSH1 0x1 ADD SWAP1 PUSH1 0x20 DUP3 PUSH1 0x0 ADD DIV SWAP3 DUP4 ADD SWAP3 PUSH1 0x1 SUB DUP3 MUL SWAP2 POP DUP1 DUP5 GT PUSH2 0x2267 JUMPI SWAP1 POP JUMPDEST POP POP POP POP POP PUSH2 0xDB1 JUMP JUMPDEST PUSH2 0x2766 JUMP JUMPDEST PUSH1 0xB PUSH1 0x0 DUP3 DUP2 MSTORE PUSH1 0x20 ADD SWAP1 DUP2 MSTORE PUSH1 0x20 ADD PUSH1 0x0 KECCAK256 PUSH1 0x3 ADD PUSH1 0x1 PUSH1 0x2 DUP2 LT PUSH2 0x22D6 JUMPI PUSH2 0x22D5 PUSH2 0x56A0 JUMP JUMPDEST JUMPDEST ADD SLOAD TIMESTAMP LT ISZERO DUP1 ISZERO PUSH2 0x2312 JUMPI POP PUSH1 0xB PUSH1 0x0 DUP3 DUP2 MSTORE PUSH1 0x20 ADD SWAP1 DUP2 MSTORE PUSH1 0x20 ADD PUSH1 0x0 KECCAK256 PUSH1 0x6 ADD SLOAD PUSH1 0xB PUSH1 0x0 DUP4 DUP2 MSTORE PUSH1 0x20 ADD SWAP1 DUP2 MSTORE PUSH1 0x20 ADD PUSH1 0x0 KECCAK256 PUSH1 0x7 ADD SLOAD LT JUMPDEST ISZERO PUSH2 0x2526 JUMPI PUSH1 0x4 PUSH1 0xB PUSH1 0x0 DUP4 DUP2 MSTORE PUSH1 0x20 ADD SWAP1 DUP2 MSTORE PUSH1 0x20 ADD PUSH1 0x0 KECCAK256 PUSH1 0x0 ADD PUSH1 0x0 PUSH2 0x100 EXP DUP2 SLOAD DUP2 PUSH1 0xFF MUL NOT AND SWAP1 DUP4 PUSH1 0x4 DUP2 GT ISZERO PUSH2 0x2351 JUMPI PUSH2 0x2350 PUSH2 0x5671 JUMP JUMPDEST JUMPDEST MUL OR SWAP1 SSTORE POP PUSH2 0x2521 ADDRESS PUSH1 0xA PUSH1 0x0 DUP5 DUP2 MSTORE PUSH1 0x20 ADD SWAP1 DUP2 MSTORE PUSH1 0x20 ADD PUSH1 0x0 KECCAK256 PUSH1 0x2 ADD PUSH1 0x0 SWAP1 SLOAD SWAP1 PUSH2 0x100 EXP SWAP1 DIV PUSH20 0xFFFFFFFFFFFFFFFFFFFFFFFFFFFFFFFFFFFFFFFF AND PUSH1 0xA PUSH1 0x0 DUP6 DUP2 MSTORE PUSH1 0x20 ADD SWAP1 DUP2 MSTORE PUSH1 0x20 ADD PUSH1 0x0 KECCAK256 PUSH1 0x0 ADD DUP1 SLOAD DUP1 PUSH1 0x20 MUL PUSH1 0x20 ADD PUSH1 0x40 MLOAD SWAP1 DUP2 ADD PUSH1 0x40 MSTORE DUP1 SWAP3 SWAP2 SWAP1 DUP2 DUP2 MSTORE PUSH1 0x20 ADD DUP3 DUP1 SLOAD DUP1 ISZERO PUSH2 0x2427 JUMPI PUSH1 0x20 MUL DUP3 ADD SWAP2 SWAP1 PUSH1 0x0 MSTORE PUSH1 0x20 PUSH1 0x0 KECCAK256 SWAP1 JUMPDEST DUP2 PUSH1 0x0 SWAP1 SLOAD SWAP1 PUSH2 0x100 EXP SWAP1 DIV PUSH20 0xFFFFFFFFFFFFFFFFFFFFFFFFFFFFFFFFFFFFFFFF AND PUSH20 0xFFFFFFFFFFFFFFFFFFFFFFFFFFFFFFFFFFFFFFFF AND DUP2 MSTORE PUSH1 0x20 ADD SWAP1 PUSH1 0x1 ADD SWAP1 DUP1 DUP4 GT PUSH2 0x23DD JUMPI JUMPDEST POP POP POP POP POP PUSH1 0xA PUSH1 0x0 DUP7 DUP2 MSTORE PUSH1 0x20 ADD SWAP1 DUP2 MSTORE PUSH1 0x20 ADD PUSH1 0x0 KECCAK256 PUSH1 0x4 ADD DUP1 SLOAD DUP1 PUSH1 0x20 MUL PUSH1 0x20 ADD PUSH1 0x40 MLOAD SWAP1 DUP2 ADD PUSH1 0x40 MSTORE DUP1 SWAP3 SWAP2 SWAP1 DUP2 DUP2 MSTORE PUSH1 0x20 ADD DUP3 DUP1 SLOAD DUP1 ISZERO PUSH2 0x248C JUMPI PUSH1 0x20 MUL DUP3 ADD SWAP2 SWAP1 PUSH1 0x0 MSTORE PUSH1 0x20 PUSH1 0x0 KECCAK256 SWAP1 JUMPDEST DUP2 SLOAD DUP2 MSTORE PUSH1 0x20 ADD SWAP1 PUSH1 0x1 ADD SWAP1 DUP1 DUP4 GT PUSH2 0x2478 JUMPI JUMPDEST POP POP POP POP POP PUSH1 0xA PUSH1 0x0 DUP8 DUP2 MSTORE PUSH1 0x20 ADD SWAP1 DUP2 MSTORE PUSH1 0x20 ADD PUSH1 0x0 KECCAK256 PUSH1 0xA ADD DUP1 SLOAD DUP1 PUSH1 0x20 MUL PUSH1 0x20 ADD PUSH1 0x40 MLOAD SWAP1 DUP2 ADD PUSH1 0x40 MSTORE DUP1 SWAP3 SWAP2 SWAP1 DUP2 DUP2 MSTORE PUSH1 0x20 ADD DUP3 DUP1 SLOAD DUP1 ISZERO PUSH2 0x2517 JUMPI PUSH1 0x20 MUL DUP3 ADD SWAP2 SWAP1 PUSH1 0x0 MSTORE PUSH1 0x20 PUSH1 0x0 KECCAK256 SWAP1 PUSH1 0x0 SWAP1 JUMPDEST DUP3 DUP3 SWAP1 SLOAD SWAP1 PUSH2 0x100 EXP SWAP1 DIV PUSH1 0xFF AND PUSH1 0xFF AND DUP2 MSTORE PUSH1 0x20 ADD SWAP1 PUSH1 0x1 ADD SWAP1 PUSH1 0x20 DUP3 PUSH1 0x0 ADD DIV SWAP3 DUP4 ADD SWAP3 PUSH1 0x1 SUB DUP3 MUL SWAP2 POP DUP1 DUP5 GT PUSH2 0x24E0 JUMPI SWAP1 POP JUMPDEST POP POP POP POP POP PUSH2 0xDB1 JUMP JUMPDEST PUSH2 0x2765 JUMP JUMPDEST PUSH1 0xB PUSH1 0x0 DUP3 DUP2 MSTORE PUSH1 0x20 ADD SWAP1 DUP2 MSTORE PUSH1 0x20 ADD PUSH1 0x0 KECCAK256 PUSH1 0x6 ADD SLOAD PUSH1 0xB PUSH1 0x0 DUP4 DUP2 MSTORE PUSH1 0x20 ADD SWAP1 DUP2 MSTORE PUSH1 0x20 ADD PUSH1 0x0 KECCAK256 PUSH1 0x7 ADD SLOAD LT PUSH2 0x2764 JUMPI PUSH1 0x4 PUSH1 0xB PUSH1 0x0 DUP4 DUP2 MSTORE PUSH1 0x20 ADD SWAP1 DUP2 MSTORE PUSH1 0x20 ADD PUSH1 0x0 KECCAK256 PUSH1 0x0 ADD PUSH1 0x0 PUSH2 0x100 EXP DUP2 SLOAD DUP2 PUSH1 0xFF MUL NOT AND SWAP1 DUP4 PUSH1 0x4 DUP2 GT ISZERO PUSH2 0x2593 JUMPI PUSH2 0x2592 PUSH2 0x5671 JUMP JUMPDEST JUMPDEST MUL OR SWAP1 SSTORE POP PUSH2 0x2763 ADDRESS PUSH1 0xA PUSH1 0x0 DUP5 DUP2 MSTORE PUSH1 0x20 ADD SWAP1 DUP2 MSTORE PUSH1 0x20 ADD PUSH1 0x0 KECCAK256 PUSH1 0x1 ADD PUSH1 0x0 SWAP1 SLOAD SWAP1 PUSH2 0x100 EXP SWAP1 DIV PUSH20 0xFFFFFFFFFFFFFFFFFFFFFFFFFFFFFFFFFFFFFFFF AND PUSH1 0xA PUSH1 0x0 DUP6 DUP2 MSTORE PUSH1 0x20 ADD SWAP1 DUP2 MSTORE PUSH1 0x20 ADD PUSH1 0x0 KECCAK256 PUSH1 0x0 ADD DUP1 SLOAD DUP1 PUSH1 0x20 MUL PUSH1 0x20 ADD PUSH1 0x40 MLOAD SWAP1 DUP2 ADD PUSH1 0x40 MSTORE DUP1 SWAP3 SWAP2 SWAP1 DUP2 DUP2 MSTORE PUSH1 0x20 ADD DUP3 DUP1 SLOAD DUP1 ISZERO PUSH2 0x2669 JUMPI PUSH1 0x20 MUL DUP3 ADD SWAP2 SWAP1 PUSH1 0x0 MSTORE PUSH1 0x20 PUSH1 0x0 KECCAK256 SWAP1 JUMPDEST DUP2 PUSH1 0x0 SWAP1 SLOAD SWAP1 PUSH2 0x100 EXP SWAP1 DIV PUSH20 0xFFFFFFFFFFFFFFFFFFFFFFFFFFFFFFFFFFFFFFFF AND PUSH20 0xFFFFFFFFFFFFFFFFFFFFFFFFFFFFFFFFFFFFFFFF AND DUP2 MSTORE PUSH1 0x20 ADD SWAP1 PUSH1 0x1 ADD SWAP1 DUP1 DUP4 GT PUSH2 0x261F JUMPI JUMPDEST POP POP POP POP POP PUSH1 0xA PUSH1 0x0 DUP7 DUP2 MSTORE PUSH1 0x20 ADD SWAP1 DUP2 MSTORE PUSH1 0x20 ADD PUSH1 0x0 KECCAK256 PUSH1 0x4 ADD DUP1 SLOAD DUP1 PUSH1 0x20 MUL PUSH1 0x20 ADD PUSH1 0x40 MLOAD SWAP1 DUP2 ADD PUSH1 0x40 MSTORE DUP1 SWAP3 SWAP2 SWAP1 DUP2 DUP2 MSTORE PUSH1 0x20 ADD DUP3 DUP1 SLOAD DUP1 ISZERO PUSH2 0x26CE JUMPI PUSH1 0x20 MUL DUP3 ADD SWAP2 SWAP1 PUSH1 0x0 MSTORE PUSH1 0x20 PUSH1 0x0 KECCAK256 SWAP1 JUMPDEST DUP2 SLOAD DUP2 MSTORE PUSH1 0x20 ADD SWAP1 PUSH1 0x1 ADD SWAP1 DUP1 DUP4 GT PUSH2 0x26BA JUMPI JUMPDEST POP POP POP POP POP PUSH1 0xA PUSH1 0x0 DUP8 DUP2 MSTORE PUSH1 0x20 ADD SWAP1 DUP2 MSTORE PUSH1 0x20 ADD PUSH1 0x0 KECCAK256 PUSH1 0xA ADD DUP1 SLOAD DUP1 PUSH1 0x20 MUL PUSH1 0x20 ADD PUSH1 0x40 MLOAD SWAP1 DUP2 ADD PUSH1 0x40 MSTORE DUP1 SWAP3 SWAP2 SWAP1 DUP2 DUP2 MSTORE PUSH1 0x20 ADD DUP3 DUP1 SLOAD DUP1 ISZERO PUSH2 0x2759 JUMPI PUSH1 0x20 MUL DUP3 ADD SWAP2 SWAP1 PUSH1 0x0 MSTORE PUSH1 0x20 PUSH1 0x0 KECCAK256 SWAP1 PUSH1 0x0 SWAP1 JUMPDEST DUP3 DUP3 SWAP1 SLOAD SWAP1 PUSH2 0x100 EXP SWAP1 DIV PUSH1 0xFF AND PUSH1 0xFF AND DUP2 MSTORE PUSH1 0x20 ADD SWAP1 PUSH1 0x1 ADD SWAP1 PUSH1 0x20 DUP3 PUSH1 0x0 ADD DIV SWAP3 DUP4 ADD SWAP3 PUSH1 0x1 SUB DUP3 MUL SWAP2 POP DUP1 DUP5 GT PUSH2 0x2722 JUMPI SWAP1 POP JUMPDEST POP POP POP POP POP PUSH2 0xDB1 JUMP JUMPDEST JUMPDEST JUMPDEST JUMPDEST DUP1 CALLER PUSH20 0xFFFFFFFFFFFFFFFFFFFFFFFFFFFFFFFFFFFFFFFF AND PUSH32 0x174EFCA9557CE00D5A6F26355F73E3873FED7D6F8248757750569E4699146C67 PUSH1 0xB PUSH1 0x0 DUP6 DUP2 MSTORE PUSH1 0x20 ADD SWAP1 DUP2 MSTORE PUSH1 0x20 ADD PUSH1 0x0 KECCAK256 PUSH1 0x0 ADD PUSH1 0x0 SWAP1 SLOAD SWAP1 PUSH2 0x100 EXP SWAP1 DIV PUSH1 0xFF AND PUSH1 0x40 MLOAD PUSH2 0x27D0 SWAP2 SWAP1 PUSH2 0x4EA7 JUMP JUMPDEST PUSH1 0x40 MLOAD DUP1 SWAP2 SUB SWAP1 LOG3 POP JUMP JUMPDEST PUSH1 0xC PUSH1 0x20 MSTORE DUP1 PUSH1 0x0 MSTORE PUSH1 0x40 PUSH1 0x0 KECCAK256 PUSH1 0x0 SWAP2 POP SWAP1 POP DUP1 PUSH1 0x0 ADD SLOAD SWAP1 DUP1 PUSH1 0x1 ADD SLOAD SWAP1 DUP1 PUSH1 0x2 ADD SLOAD SWAP1 DUP1 PUSH1 0x3 ADD PUSH1 0x0 SWAP1 SLOAD SWAP1 PUSH2 0x100 EXP SWAP1 DIV PUSH4 0xFFFFFFFF AND SWAP1 POP DUP5 JUMP JUMPDEST CALLER PUSH20 0xFFFFFFFFFFFFFFFFFFFFFFFFFFFFFFFFFFFFFFFF AND PUSH1 0xA PUSH1 0x0 DUP5 DUP2 MSTORE PUSH1 0x20 ADD SWAP1 DUP2 MSTORE PUSH1 0x20 ADD PUSH1 0x0 KECCAK256 PUSH1 0x1 ADD PUSH1 0x0 SWAP1 SLOAD SWAP1 PUSH2 0x100 EXP SWAP1 DIV PUSH20 0xFFFFFFFFFFFFFFFFFFFFFFFFFFFFFFFFFFFFFFFF AND PUSH20 0xFFFFFFFFFFFFFFFFFFFFFFFFFFFFFFFFFFFFFFFF AND EQ PUSH2 0x2889 JUMPI PUSH1 0x0 DUP1 REVERT JUMPDEST PUSH1 0x1 PUSH1 0x4 DUP2 GT ISZERO PUSH2 0x289D JUMPI PUSH2 0x289C PUSH2 0x5671 JUMP JUMPDEST JUMPDEST PUSH1 0xB PUSH1 0x0 DUP5 DUP2 MSTORE PUSH1 0x20 ADD SWAP1 DUP2 MSTORE PUSH1 0x20 ADD PUSH1 0x0 KECCAK256 PUSH1 0x0 ADD PUSH1 0x0 SWAP1 SLOAD SWAP1 PUSH2 0x100 EXP SWAP1 DIV PUSH1 0xFF AND PUSH1 0x4 DUP2 GT ISZERO PUSH2 0x28D3 JUMPI PUSH2 0x28D2 PUSH2 0x5671 JUMP JUMPDEST JUMPDEST EQ PUSH2 0x28DD JUMPI PUSH1 0x0 DUP1 REVERT JUMPDEST TIMESTAMP PUSH1 0xB PUSH1 0x0 DUP5 DUP2 MSTORE PUSH1 0x20 ADD SWAP1 DUP2 MSTORE PUSH1 0x20 ADD PUSH1 0x0 KECCAK256 PUSH1 0x3 ADD PUSH1 0x1 PUSH1 0x2 DUP2 LT PUSH2 0x2907 JUMPI PUSH2 0x2906 PUSH2 0x56A0 JUMP JUMPDEST JUMPDEST ADD SLOAD LT ISZERO PUSH2 0x2914 JUMPI PUSH1 0x0 DUP1 REVERT JUMPDEST PUSH1 0x0 CALLVALUE GT DUP1 ISZERO PUSH2 0x2986 JUMPI POP PUSH1 0x0 PUSH20 0xFFFFFFFFFFFFFFFFFFFFFFFFFFFFFFFFFFFFFFFF AND PUSH1 0xA PUSH1 0x0 DUP5 DUP2 MSTORE PUSH1 0x20 ADD SWAP1 DUP2 MSTORE PUSH1 0x20 ADD PUSH1 0x0 KECCAK256 PUSH1 0x3 ADD PUSH1 0x0 SWAP1 SLOAD SWAP1 PUSH2 0x100 EXP SWAP1 DIV PUSH20 0xFFFFFFFFFFFFFFFFFFFFFFFFFFFFFFFFFFFFFFFF AND PUSH20 0xFFFFFFFFFFFFFFFFFFFFFFFFFFFFFFFFFFFFFFFF AND EQ JUMPDEST DUP1 ISZERO PUSH2 0x2991 JUMPI POP DUP1 CALLVALUE EQ JUMPDEST DUP1 PUSH2 0x2A17 JUMPI POP PUSH1 0x0 PUSH20 0xFFFFFFFFFFFFFFFFFFFFFFFFFFFFFFFFFFFFFFFF AND PUSH1 0xA PUSH1 0x0 DUP5 DUP2 MSTORE PUSH1 0x20 ADD SWAP1 DUP2 MSTORE PUSH1 0x20 ADD PUSH1 0x0 KECCAK256 PUSH1 0x3 ADD PUSH1 0x0 SWAP1 SLOAD SWAP1 PUSH2 0x100 EXP SWAP1 DIV PUSH20 0xFFFFFFFFFFFFFFFFFFFFFFFFFFFFFFFFFFFFFFFF AND PUSH20 0xFFFFFFFFFFFFFFFFFFFFFFFFFFFFFFFFFFFFFFFF AND EQ ISZERO DUP1 ISZERO PUSH2 0x2A0A JUMPI POP PUSH1 0x0 CALLVALUE EQ JUMPDEST DUP1 ISZERO PUSH2 0x2A16 JUMPI POP PUSH1 0x0 DUP2 GT JUMPDEST JUMPDEST PUSH2 0x2A20 JUMPI PUSH1 0x0 DUP1 REVERT JUMPDEST PUSH1 0x0 DUP1 CALLVALUE GT PUSH2 0x2A2F JUMPI DUP2 PUSH2 0x2A31 JUMP JUMPDEST CALLVALUE JUMPDEST SWAP1 POP PUSH1 0x0 DUP2 SWAP1 POP PUSH1 0x0 PUSH1 0x64 PUSH1 0x6 SLOAD DUP5 PUSH2 0x2A4A SWAP2 SWAP1 PUSH2 0x539B JUMP JUMPDEST PUSH2 0x2A54 SWAP2 SWAP1 PUSH2 0x536A JUMP JUMPDEST SWAP1 POP PUSH1 0x0 PUSH2 0x2A62 DUP7 CALLER PUSH2 0x3C33 JUMP JUMPDEST SWAP1 POP PUSH1 0x0 PUSH1 0x64 PUSH1 0x7 SLOAD DUP5 PUSH2 0x2A76 SWAP2 SWAP1 PUSH2 0x539B JUMP JUMPDEST PUSH2 0x2A80 SWAP2 SWAP1 PUSH2 0x536A JUMP JUMPDEST SWAP1 POP PUSH1 0x1 DUP3 EQ PUSH2 0x2B72 JUMPI PUSH1 0x0 PUSH20 0xFFFFFFFFFFFFFFFFFFFFFFFFFFFFFFFFFFFFFFFF AND PUSH1 0xA PUSH1 0x0 DUP10 DUP2 MSTORE PUSH1 0x20 ADD SWAP1 DUP2 MSTORE PUSH1 0x20 ADD PUSH1 0x0 KECCAK256 PUSH1 0x3 ADD PUSH1 0x0 SWAP1 SLOAD SWAP1 PUSH2 0x100 EXP SWAP1 DIV PUSH20 0xFFFFFFFFFFFFFFFFFFFFFFFFFFFFFFFFFFFFFFFF AND PUSH20 0xFFFFFFFFFFFFFFFFFFFFFFFFFFFFFFFFFFFFFFFF AND EQ ISZERO PUSH2 0x2B58 JUMPI CALLER PUSH20 0xFFFFFFFFFFFFFFFFFFFFFFFFFFFFFFFFFFFFFFFF AND PUSH2 0x8FC DUP4 DUP4 PUSH2 0x2B1B SWAP2 SWAP1 PUSH2 0x536A JUMP JUMPDEST SWAP1 DUP2 ISZERO MUL SWAP1 PUSH1 0x40 MLOAD PUSH1 0x0 PUSH1 0x40 MLOAD DUP1 DUP4 SUB DUP2 DUP6 DUP9 DUP9 CALL SWAP4 POP POP POP POP PUSH2 0x2B3E JUMPI PUSH1 0x0 DUP1 REVERT JUMPDEST DUP2 DUP2 PUSH2 0x2B4A SWAP2 SWAP1 PUSH2 0x536A JUMP JUMPDEST DUP5 PUSH2 0x2B55 SWAP2 SWAP1 PUSH2 0x53F5 JUMP JUMPDEST SWAP4 POP JUMPDEST DUP2 DUP2 PUSH2 0x2B64 SWAP2 SWAP1 PUSH2 0x536A JUMP JUMPDEST DUP2 PUSH2 0x2B6F SWAP2 SWAP1 PUSH2 0x53F5 JUMP JUMPDEST SWAP1 POP JUMPDEST DUP1 DUP5 PUSH2 0x2B7E SWAP2 SWAP1 PUSH2 0x53F5 JUMP JUMPDEST SWAP4 POP DUP5 PUSH1 0xB PUSH1 0x0 DUP10 DUP2 MSTORE PUSH1 0x20 ADD SWAP1 DUP2 MSTORE PUSH1 0x20 ADD PUSH1 0x0 KECCAK256 PUSH1 0x7 ADD SLOAD PUSH2 0x2BA2 SWAP2 SWAP1 PUSH2 0x5314 JUMP JUMPDEST PUSH1 0xB PUSH1 0x0 DUP10 DUP2 MSTORE PUSH1 0x20 ADD SWAP1 DUP2 MSTORE PUSH1 0x20 ADD PUSH1 0x0 KECCAK256 PUSH1 0x7 ADD DUP2 SWAP1 SSTORE POP PUSH1 0xB PUSH1 0x0 DUP9 DUP2 MSTORE PUSH1 0x20 ADD SWAP1 DUP2 MSTORE PUSH1 0x20 ADD PUSH1 0x0 KECCAK256 PUSH1 0x5 ADD SLOAD DUP6 PUSH2 0x2BDE SWAP2 SWAP1 PUSH2 0x536A JUMP JUMPDEST PUSH1 0xA PUSH1 0x0 DUP10 DUP2 MSTORE PUSH1 0x20 ADD SWAP1 DUP2 MSTORE PUSH1 0x20 ADD PUSH1 0x0 KECCAK256 PUSH1 0x6 ADD SLOAD PUSH2 0x2BFF SWAP2 SWAP1 PUSH2 0x5314 JUMP JUMPDEST PUSH1 0xA PUSH1 0x0 DUP10 DUP2 MSTORE PUSH1 0x20 ADD SWAP1 DUP2 MSTORE PUSH1 0x20 ADD PUSH1 0x0 KECCAK256 PUSH1 0x6 ADD DUP2 SWAP1 SSTORE POP PUSH1 0xB PUSH1 0x0 DUP9 DUP2 MSTORE PUSH1 0x20 ADD SWAP1 DUP2 MSTORE PUSH1 0x20 ADD PUSH1 0x0 KECCAK256 PUSH1 0x6 ADD SLOAD PUSH1 0xB PUSH1 0x0 DUP10 DUP2 MSTORE PUSH1 0x20 ADD SWAP1 DUP2 MSTORE PUSH1 0x20 ADD PUSH1 0x0 KECCAK256 PUSH1 0x7 ADD SLOAD LT PUSH2 0x2C8C JUMPI PUSH1 0x2 PUSH1 0xB PUSH1 0x0 DUP10 DUP2 MSTORE PUSH1 0x20 ADD SWAP1 DUP2 MSTORE PUSH1 0x20 ADD PUSH1 0x0 KECCAK256 PUSH1 0x0 ADD PUSH1 0x0 PUSH2 0x100 EXP DUP2 SLOAD DUP2 PUSH1 0xFF MUL NOT AND SWAP1 DUP4 PUSH1 0x4 DUP2 GT ISZERO PUSH2 0x2C86 JUMPI PUSH2 0x2C85 PUSH2 0x5671 JUMP JUMPDEST JUMPDEST MUL OR SWAP1 SSTORE POP JUMPDEST PUSH2 0x2D05 CALLER PUSH1 0xA PUSH1 0x0 DUP11 DUP2 MSTORE PUSH1 0x20 ADD SWAP1 DUP2 MSTORE PUSH1 0x20 ADD PUSH1 0x0 KECCAK256 PUSH1 0x2 ADD PUSH1 0x0 SWAP1 SLOAD SWAP1 PUSH2 0x100 EXP SWAP1 DIV PUSH20 0xFFFFFFFFFFFFFFFFFFFFFFFFFFFFFFFFFFFFFFFF AND PUSH1 0xA PUSH1 0x0 DUP12 DUP2 MSTORE PUSH1 0x20 ADD SWAP1 DUP2 MSTORE PUSH1 0x20 ADD PUSH1 0x0 KECCAK256 PUSH1 0x3 ADD PUSH1 0x0 SWAP1 SLOAD SWAP1 PUSH2 0x100 EXP SWAP1 DIV PUSH20 0xFFFFFFFFFFFFFFFFFFFFFFFFFFFFFFFFFFFFFFFF AND DUP8 DUP6 PUSH2 0x904 JUMP JUMPDEST DUP7 PUSH32 0xB5C84F6603B8D7669DBBE31FD93A237657C42054C0B237B7D4215FA463523B5B CALLVALUE DUP7 DUP7 DUP6 PUSH1 0xB PUSH1 0x0 DUP15 DUP2 MSTORE PUSH1 0x20 ADD SWAP1 DUP2 MSTORE PUSH1 0x20 ADD PUSH1 0x0 KECCAK256 PUSH1 0x0 ADD PUSH1 0x0 SWAP1 SLOAD SWAP1 PUSH2 0x100 EXP SWAP1 DIV PUSH1 0xFF AND PUSH1 0x40 MLOAD PUSH2 0x2D60 SWAP6 SWAP5 SWAP4 SWAP3 SWAP2 SWAP1 PUSH2 0x5059 JUMP JUMPDEST PUSH1 0x40 MLOAD DUP1 SWAP2 SUB SWAP1 LOG2 POP POP POP POP POP POP POP JUMP JUMPDEST PUSH1 0x8 PUSH1 0x0 SWAP1 SLOAD SWAP1 PUSH2 0x100 EXP SWAP1 DIV PUSH4 0xFFFFFFFF AND DUP2 JUMP JUMPDEST PUSH1 0x0 DUP1 PUSH1 0x0 SWAP1 SLOAD SWAP1 PUSH2 0x100 EXP SWAP1 DIV PUSH20 0xFFFFFFFFFFFFFFFFFFFFFFFFFFFFFFFFFFFFFFFF AND SWAP1 POP SWAP1 JUMP JUMPDEST PUSH1 0x7 SLOAD DUP2 JUMP JUMPDEST PUSH2 0x2DBF DUP2 PUSH2 0x3894 JUMP JUMPDEST PUSH1 0x0 PUSH2 0x2DCB DUP3 CALLER PUSH2 0x3C33 JUMP JUMPDEST SWAP1 POP PUSH1 0x0 PUSH20 0xFFFFFFFFFFFFFFFFFFFFFFFFFFFFFFFFFFFFFFFF AND PUSH1 0xA PUSH1 0x0 DUP5 DUP2 MSTORE PUSH1 0x20 ADD SWAP1 DUP2 MSTORE PUSH1 0x20 ADD PUSH1 0x0 KECCAK256 PUSH1 0x3 ADD PUSH1 0x0 SWAP1 SLOAD SWAP1 PUSH2 0x100 EXP SWAP1 DIV PUSH20 0xFFFFFFFFFFFFFFFFFFFFFFFFFFFFFFFFFFFFFFFF AND PUSH20 0xFFFFFFFFFFFFFFFFFFFFFFFFFFFFFFFFFFFFFFFF AND EQ ISZERO PUSH2 0x2EAB JUMPI DUP1 PUSH1 0x8 PUSH1 0x0 SWAP1 SLOAD SWAP1 PUSH2 0x100 EXP SWAP1 DIV PUSH4 0xFFFFFFFF AND PUSH4 0xFFFFFFFF AND PUSH1 0xA PUSH1 0x0 DUP6 DUP2 MSTORE PUSH1 0x20 ADD SWAP1 DUP2 MSTORE PUSH1 0x20 ADD PUSH1 0x0 KECCAK256 PUSH1 0x7 ADD SLOAD PUSH2 0x2E73 SWAP2 SWAP1 PUSH2 0x536A JUMP JUMPDEST PUSH2 0x2E7D SWAP2 SWAP1 PUSH2 0x536A JUMP JUMPDEST PUSH1 0xA PUSH1 0x0 DUP5 DUP2 MSTORE PUSH1 0x20 ADD SWAP1 DUP2 MSTORE PUSH1 0x20 ADD PUSH1 0x0 KECCAK256 PUSH1 0x7 ADD SLOAD PUSH2 0x2E9E SWAP2 SWAP1 PUSH2 0x5314 JUMP JUMPDEST CALLVALUE LT ISZERO PUSH2 0x2EAA JUMPI PUSH1 0x0 DUP1 REVERT JUMPDEST JUMPDEST PUSH2 0x2F7E CALLER PUSH1 0xA PUSH1 0x0 DUP6 DUP2 MSTORE PUSH1 0x20 ADD SWAP1 DUP2 MSTORE PUSH1 0x20 ADD PUSH1 0x0 KECCAK256 PUSH1 0x1 ADD PUSH1 0x0 SWAP1 SLOAD SWAP1 PUSH2 0x100 EXP SWAP1 DIV PUSH20 0xFFFFFFFFFFFFFFFFFFFFFFFFFFFFFFFFFFFFFFFF AND PUSH1 0xA PUSH1 0x0 DUP7 DUP2 MSTORE PUSH1 0x20 ADD SWAP1 DUP2 MSTORE PUSH1 0x20 ADD PUSH1 0x0 KECCAK256 PUSH1 0x3 ADD PUSH1 0x0 SWAP1 SLOAD SWAP1 PUSH2 0x100 EXP SWAP1 DIV PUSH20 0xFFFFFFFFFFFFFFFFFFFFFFFFFFFFFFFFFFFFFFFF AND PUSH1 0xA PUSH1 0x0 DUP8 DUP2 MSTORE PUSH1 0x20 ADD SWAP1 DUP2 MSTORE PUSH1 0x20 ADD PUSH1 0x0 KECCAK256 PUSH1 0x7 ADD SLOAD DUP6 PUSH1 0x8 PUSH1 0x0 SWAP1 SLOAD SWAP1 PUSH2 0x100 EXP SWAP1 DIV PUSH4 0xFFFFFFFF AND PUSH4 0xFFFFFFFF AND PUSH1 0xA PUSH1 0x0 DUP11 DUP2 MSTORE PUSH1 0x20 ADD SWAP1 DUP2 MSTORE PUSH1 0x20 ADD PUSH1 0x0 KECCAK256 PUSH1 0x7 ADD SLOAD PUSH2 0x2F6F SWAP2 SWAP1 PUSH2 0x536A JUMP JUMPDEST PUSH2 0x2F79 SWAP2 SWAP1 PUSH2 0x536A JUMP JUMPDEST PUSH2 0x904 JUMP JUMPDEST POP POP JUMP JUMPDEST PUSH1 0x9 SLOAD DUP2 JUMP JUMPDEST PUSH1 0x1 PUSH1 0x0 SWAP1 SLOAD SWAP1 PUSH2 0x100 EXP SWAP1 DIV PUSH20 0xFFFFFFFFFFFFFFFFFFFFFFFFFFFFFFFFFFFFFFFF AND DUP2 JUMP JUMPDEST PUSH1 0x0 PUSH4 0xBC197C81 PUSH1 0xE0 SHL SWAP1 POP SWAP6 SWAP5 POP POP POP POP POP JUMP JUMPDEST PUSH1 0x0 PUSH20 0xFFFFFFFFFFFFFFFFFFFFFFFFFFFFFFFFFFFFFFFF AND PUSH1 0xA PUSH1 0x0 DUP4 DUP2 MSTORE PUSH1 0x20 ADD SWAP1 DUP2 MSTORE PUSH1 0x20 ADD PUSH1 0x0 KECCAK256 PUSH1 0x2 ADD PUSH1 0x0 SWAP1 SLOAD SWAP1 PUSH2 0x100 EXP SWAP1 DIV PUSH20 0xFFFFFFFFFFFFFFFFFFFFFFFFFFFFFFFFFFFFFFFF AND PUSH20 0xFFFFFFFFFFFFFFFFFFFFFFFFFFFFFFFFFFFFFFFF AND EQ PUSH2 0x3032 JUMPI PUSH1 0x0 DUP1 REVERT JUMPDEST CALLER PUSH20 0xFFFFFFFFFFFFFFFFFFFFFFFFFFFFFFFFFFFFFFFF AND PUSH1 0xA PUSH1 0x0 DUP4 DUP2 MSTORE PUSH1 0x20 ADD SWAP1 DUP2 MSTORE PUSH1 0x20 ADD PUSH1 0x0 KECCAK256 PUSH1 0x1 ADD PUSH1 0x0 SWAP1 SLOAD SWAP1 PUSH2 0x100 EXP SWAP1 DIV PUSH20 0xFFFFFFFFFFFFFFFFFFFFFFFFFFFFFFFFFFFFFFFF AND PUSH20 0xFFFFFFFFFFFFFFFFFFFFFFFFFFFFFFFFFFFFFFFF AND EQ PUSH2 0x30A0 JUMPI PUSH1 0x0 DUP1 REVERT JUMPDEST PUSH1 0x0 PUSH1 0x4 DUP2 GT ISZERO PUSH2 0x30B4 JUMPI PUSH2 0x30B3 PUSH2 0x5671 JUMP JUMPDEST JUMPDEST PUSH1 0xB PUSH1 0x0 DUP4 DUP2 MSTORE PUSH1 0x20 ADD SWAP1 DUP2 MSTORE PUSH1 0x20 ADD PUSH1 0x0 KECCAK256 PUSH1 0x0 ADD PUSH1 0x0 SWAP1 SLOAD SWAP1 PUSH2 0x100 EXP SWAP1 DIV PUSH1 0xFF AND PUSH1 0x4 DUP2 GT ISZERO PUSH2 0x30EA JUMPI PUSH2 0x30E9 PUSH2 0x5671 JUMP JUMPDEST JUMPDEST EQ PUSH2 0x30F4 JUMPI PUSH1 0x0 DUP1 REVERT JUMPDEST TIMESTAMP PUSH1 0xB PUSH1 0x0 DUP4 DUP2 MSTORE PUSH1 0x20 ADD SWAP1 DUP2 MSTORE PUSH1 0x20 ADD PUSH1 0x0 KECCAK256 PUSH1 0x3 ADD PUSH1 0x1 PUSH1 0x2 DUP2 LT PUSH2 0x311E JUMPI PUSH2 0x311D PUSH2 0x56A0 JUMP JUMPDEST JUMPDEST ADD DUP2 SWAP1 SSTORE POP PUSH1 0x3 PUSH1 0xB PUSH1 0x0 DUP4 DUP2 MSTORE PUSH1 0x20 ADD SWAP1 DUP2 MSTORE PUSH1 0x20 ADD PUSH1 0x0 KECCAK256 PUSH1 0x0 ADD PUSH1 0x0 PUSH2 0x100 EXP DUP2 SLOAD DUP2 PUSH1 0xFF MUL NOT AND SWAP1 DUP4 PUSH1 0x4 DUP2 GT ISZERO PUSH2 0x315D JUMPI PUSH2 0x315C PUSH2 0x5671 JUMP JUMPDEST JUMPDEST MUL OR SWAP1 SSTORE POP PUSH2 0x332D ADDRESS PUSH1 0xA PUSH1 0x0 DUP5 DUP2 MSTORE PUSH1 0x20 ADD SWAP1 DUP2 MSTORE PUSH1 0x20 ADD PUSH1 0x0 KECCAK256 PUSH1 0x1 ADD PUSH1 0x0 SWAP1 SLOAD SWAP1 PUSH2 0x100 EXP SWAP1 DIV PUSH20 0xFFFFFFFFFFFFFFFFFFFFFFFFFFFFFFFFFFFFFFFF AND PUSH1 0xA PUSH1 0x0 DUP6 DUP2 MSTORE PUSH1 0x20 ADD SWAP1 DUP2 MSTORE PUSH1 0x20 ADD PUSH1 0x0 KECCAK256 PUSH1 0x0 ADD DUP1 SLOAD DUP1 PUSH1 0x20 MUL PUSH1 0x20 ADD PUSH1 0x40 MLOAD SWAP1 DUP2 ADD PUSH1 0x40 MSTORE DUP1 SWAP3 SWAP2 SWAP1 DUP2 DUP2 MSTORE PUSH1 0x20 ADD DUP3 DUP1 SLOAD DUP1 ISZERO PUSH2 0x3233 JUMPI PUSH1 0x20 MUL DUP3 ADD SWAP2 SWAP1 PUSH1 0x0 MSTORE PUSH1 0x20 PUSH1 0x0 KECCAK256 SWAP1 JUMPDEST DUP2 PUSH1 0x0 SWAP1 SLOAD SWAP1 PUSH2 0x100 EXP SWAP1 DIV PUSH20 0xFFFFFFFFFFFFFFFFFFFFFFFFFFFFFFFFFFFFFFFF AND PUSH20 0xFFFFFFFFFFFFFFFFFFFFFFFFFFFFFFFFFFFFFFFF AND DUP2 MSTORE PUSH1 0x20 ADD SWAP1 PUSH1 0x1 ADD SWAP1 DUP1 DUP4 GT PUSH2 0x31E9 JUMPI JUMPDEST POP POP POP POP POP PUSH1 0xA PUSH1 0x0 DUP7 DUP2 MSTORE PUSH1 0x20 ADD SWAP1 DUP2 MSTORE PUSH1 0x20 ADD PUSH1 0x0 KECCAK256 PUSH1 0x4 ADD DUP1 SLOAD DUP1 PUSH1 0x20 MUL PUSH1 0x20 ADD PUSH1 0x40 MLOAD SWAP1 DUP2 ADD PUSH1 0x40 MSTORE DUP1 SWAP3 SWAP2 SWAP1 DUP2 DUP2 MSTORE PUSH1 0x20 ADD DUP3 DUP1 SLOAD DUP1 ISZERO PUSH2 0x3298 JUMPI PUSH1 0x20 MUL DUP3 ADD SWAP2 SWAP1 PUSH1 0x0 MSTORE PUSH1 0x20 PUSH1 0x0 KECCAK256 SWAP1 JUMPDEST DUP2 SLOAD DUP2 MSTORE PUSH1 0x20 ADD SWAP1 PUSH1 0x1 ADD SWAP1 DUP1 DUP4 GT PUSH2 0x3284 JUMPI JUMPDEST POP POP POP POP POP PUSH1 0xA PUSH1 0x0 DUP8 DUP2 MSTORE PUSH1 0x20 ADD SWAP1 DUP2 MSTORE PUSH1 0x20 ADD PUSH1 0x0 KECCAK256 PUSH1 0xA ADD DUP1 SLOAD DUP1 PUSH1 0x20 MUL PUSH1 0x20 ADD PUSH1 0x40 MLOAD SWAP1 DUP2 ADD PUSH1 0x40 MSTORE DUP1 SWAP3 SWAP2 SWAP1 DUP2 DUP2 MSTORE PUSH1 0x20 ADD DUP3 DUP1 SLOAD DUP1 ISZERO PUSH2 0x3323 JUMPI PUSH1 0x20 MUL DUP3 ADD SWAP2 SWAP1 PUSH1 0x0 MSTORE PUSH1 0x20 PUSH1 0x0 KECCAK256 SWAP1 PUSH1 0x0 SWAP1 JUMPDEST DUP3 DUP3 SWAP1 SLOAD SWAP1 PUSH2 0x100 EXP SWAP1 DIV PUSH1 0xFF AND PUSH1 0xFF AND DUP2 MSTORE PUSH1 0x20 ADD SWAP1 PUSH1 0x1 ADD SWAP1 PUSH1 0x20 DUP3 PUSH1 0x0 ADD DIV SWAP3 DUP4 ADD SWAP3 PUSH1 0x1 SUB DUP3 MUL SWAP2 POP DUP1 DUP5 GT PUSH2 0x32EC JUMPI SWAP1 POP JUMPDEST POP POP POP POP POP PUSH2 0xDB1 JUMP JUMPDEST DUP1 PUSH32 0xB71BECC91961A6B43BCC5B3B630F3DCE02C7FD444CF3738C4F188062B1CAF5BC PUSH1 0x40 MLOAD PUSH1 0x40 MLOAD DUP1 SWAP2 SUB SWAP1 LOG2 POP JUMP JUMPDEST PUSH1 0x3 PUSH1 0x0 SWAP1 SLOAD SWAP1 PUSH2 0x100 EXP SWAP1 DIV PUSH20 0xFFFFFFFFFFFFFFFFFFFFFFFFFFFFFFFFFFFFFFFF AND DUP2 JUMP JUMPDEST PUSH1 0x2 PUSH1 0x0 SWAP1 SLOAD SWAP1 PUSH2 0x100 EXP SWAP1 DIV PUSH20 0xFFFFFFFFFFFFFFFFFFFFFFFFFFFFFFFFFFFFFFFF AND DUP2 JUMP JUMPDEST PUSH1 0xA PUSH1 0x20 MSTORE DUP1 PUSH1 0x0 MSTORE PUSH1 0x40 PUSH1 0x0 KECCAK256 PUSH1 0x0 SWAP2 POP SWAP1 POP DUP1 PUSH1 0x1 ADD PUSH1 0x0 SWAP1 SLOAD SWAP1 PUSH2 0x100 EXP SWAP1 DIV PUSH20 0xFFFFFFFFFFFFFFFFFFFFFFFFFFFFFFFFFFFFFFFF AND SWAP1 DUP1 PUSH1 0x2 ADD PUSH1 0x0 SWAP1 SLOAD SWAP1 PUSH2 0x100 EXP SWAP1 DIV PUSH20 0xFFFFFFFFFFFFFFFFFFFFFFFFFFFFFFFFFFFFFFFF AND SWAP1 DUP1 PUSH1 0x3 ADD PUSH1 0x0 SWAP1 SLOAD SWAP1 PUSH2 0x100 EXP SWAP1 DIV PUSH20 0xFFFFFFFFFFFFFFFFFFFFFFFFFFFFFFFFFFFFFFFF AND SWAP1 DUP1 PUSH1 0x5 ADD SLOAD SWAP1 DUP1 PUSH1 0x6 ADD SLOAD SWAP1 DUP1 PUSH1 0x7 ADD SLOAD SWAP1 DUP1 PUSH1 0x8 ADD SLOAD SWAP1 DUP1 PUSH1 0x9 ADD PUSH1 0x0 SWAP1 SLOAD SWAP1 PUSH2 0x100 EXP SWAP1 DIV PUSH2 0xFFFF AND SWAP1 POP DUP9 JUMP JUMPDEST PUSH1 0x0 PUSH4 0xF23A6E61 PUSH1 0xE0 SHL SWAP1 POP SWAP6 SWAP5 POP POP POP POP POP JUMP JUMPDEST PUSH2 0x347C PUSH2 0x3851 JUMP JUMPDEST PUSH20 0xFFFFFFFFFFFFFFFFFFFFFFFFFFFFFFFFFFFFFFFF AND PUSH2 0x349A PUSH2 0x2D87 JUMP JUMPDEST PUSH20 0xFFFFFFFFFFFFFFFFFFFFFFFFFFFFFFFFFFFFFFFF AND EQ PUSH2 0x34F0 JUMPI PUSH1 0x40 MLOAD PUSH32 0x8C379A000000000000000000000000000000000000000000000000000000000 DUP2 MSTORE PUSH1 0x4 ADD PUSH2 0x34E7 SWAP1 PUSH2 0x4FFE JUMP JUMPDEST PUSH1 0x40 MLOAD DUP1 SWAP2 SUB SWAP1 REVERT JUMPDEST PUSH1 0x0 PUSH20 0xFFFFFFFFFFFFFFFFFFFFFFFFFFFFFFFFFFFFFFFF AND DUP2 PUSH20 0xFFFFFFFFFFFFFFFFFFFFFFFFFFFFFFFFFFFFFFFF AND EQ ISZERO PUSH2 0x3560 JUMPI PUSH1 0x40 MLOAD PUSH32 0x8C379A000000000000000000000000000000000000000000000000000000000 DUP2 MSTORE PUSH1 0x4 ADD PUSH2 0x3557 SWAP1 PUSH2 0x4F5E JUMP JUMPDEST PUSH1 0x40 MLOAD DUP1 SWAP2 SUB SWAP1 REVERT JUMPDEST PUSH2 0x3569 DUP2 PUSH2 0x3B6F JUMP JUMPDEST POP JUMP JUMPDEST PUSH2 0x3574 PUSH2 0x3851 JUMP JUMPDEST PUSH20 0xFFFFFFFFFFFFFFFFFFFFFFFFFFFFFFFFFFFFFFFF AND PUSH2 0x3592 PUSH2 0x2D87 JUMP JUMPDEST PUSH20 0xFFFFFFFFFFFFFFFFFFFFFFFFFFFFFFFFFFFFFFFF AND EQ PUSH2 0x35E8 JUMPI PUSH1 0x40 MLOAD PUSH32 0x8C379A000000000000000000000000000000000000000000000000000000000 DUP2 MSTORE PUSH1 0x4 ADD PUSH2 0x35DF SWAP1 PUSH2 0x4FFE JUMP JUMPDEST PUSH1 0x40 MLOAD DUP1 SWAP2 SUB SWAP1 REVERT JUMPDEST DUP2 PUSH1 0x0 ADD MLOAD PUSH1 0xC PUSH1 0x0 DUP6 DUP2 MSTORE PUSH1 0x20 ADD SWAP1 DUP2 MSTORE PUSH1 0x20 ADD PUSH1 0x0 KECCAK256 PUSH1 0x0 ADD DUP2 SWAP1 SSTORE POP DUP2 PUSH1 0x20 ADD MLOAD PUSH1 0xC PUSH1 0x0 DUP6 DUP2 MSTORE PUSH1 0x20 ADD SWAP1 DUP2 MSTORE PUSH1 0x20 ADD PUSH1 0x0 KECCAK256 PUSH1 0x1 ADD DUP2 SWAP1 SSTORE POP DUP2 PUSH1 0x40 ADD MLOAD PUSH1 0xC PUSH1 0x0 DUP6 DUP2 MSTORE PUSH1 0x20 ADD SWAP1 DUP2 MSTORE PUSH1 0x20 ADD PUSH1 0x0 KECCAK256 PUSH1 0x2 ADD DUP2 SWAP1 SSTORE POP DUP2 PUSH1 0x60 ADD MLOAD PUSH1 0xC PUSH1 0x0 DUP6 DUP2 MSTORE PUSH1 0x20 ADD SWAP1 DUP2 MSTORE PUSH1 0x20 ADD PUSH1 0x0 KECCAK256 PUSH1 0x3 ADD PUSH1 0x0 PUSH2 0x100 EXP DUP2 SLOAD DUP2 PUSH4 0xFFFFFFFF MUL NOT AND SWAP1 DUP4 PUSH4 0xFFFFFFFF AND MUL OR SWAP1 SSTORE POP DUP1 PUSH1 0x0 ADD MLOAD PUSH1 0xB PUSH1 0x0 DUP6 DUP2 MSTORE PUSH1 0x20 ADD SWAP1 DUP2 MSTORE PUSH1 0x20 ADD PUSH1 0x0 KECCAK256 PUSH1 0x8 ADD PUSH1 0x0 PUSH2 0x100 EXP DUP2 SLOAD DUP2 PUSH20 0xFFFFFFFFFFFFFFFFFFFFFFFFFFFFFFFFFFFFFFFF MUL NOT AND SWAP1 DUP4 PUSH20 0xFFFFFFFFFFFFFFFFFFFFFFFFFFFFFFFFFFFFFFFF AND MUL OR SWAP1 SSTORE POP DUP1 PUSH1 0x20 ADD MLOAD PUSH1 0xB PUSH1 0x0 DUP6 DUP2 MSTORE PUSH1 0x20 ADD SWAP1 DUP2 MSTORE PUSH1 0x20 ADD PUSH1 0x0 KECCAK256 PUSH1 0x9 ADD PUSH1 0x0 PUSH2 0x100 EXP DUP2 SLOAD DUP2 PUSH20 0xFFFFFFFFFFFFFFFFFFFFFFFFFFFFFFFFFFFFFFFF MUL NOT AND SWAP1 DUP4 PUSH20 0xFFFFFFFFFFFFFFFFFFFFFFFFFFFFFFFFFFFFFFFF AND MUL OR SWAP1 SSTORE POP DUP1 PUSH1 0x40 ADD MLOAD PUSH1 0xB PUSH1 0x0 DUP6 DUP2 MSTORE PUSH1 0x20 ADD SWAP1 DUP2 MSTORE PUSH1 0x20 ADD PUSH1 0x0 KECCAK256 PUSH1 0xA ADD PUSH1 0x0 PUSH2 0x100 EXP DUP2 SLOAD DUP2 PUSH20 0xFFFFFFFFFFFFFFFFFFFFFFFFFFFFFFFFFFFFFFFF MUL NOT AND SWAP1 DUP4 PUSH20 0xFFFFFFFFFFFFFFFFFFFFFFFFFFFFFFFFFFFFFFFF AND MUL OR SWAP1 SSTORE POP DUP1 PUSH1 0x60 ADD MLOAD PUSH1 0xB PUSH1 0x0 DUP6 DUP2 MSTORE PUSH1 0x20 ADD SWAP1 DUP2 MSTORE PUSH1 0x20 ADD PUSH1 0x0 KECCAK256 PUSH1 0xB ADD PUSH1 0x0 PUSH2 0x100 EXP DUP2 SLOAD DUP2 PUSH20 0xFFFFFFFFFFFFFFFFFFFFFFFFFFFFFFFFFFFFFFFF MUL NOT AND SWAP1 DUP4 PUSH20 0xFFFFFFFFFFFFFFFFFFFFFFFFFFFFFFFFFFFFFFFF AND MUL OR SWAP1 SSTORE POP POP POP POP JUMP JUMPDEST PUSH1 0x0 PUSH32 0x1FFC9A700000000000000000000000000000000000000000000000000000000 PUSH28 0xFFFFFFFFFFFFFFFFFFFFFFFFFFFFFFFFFFFFFFFFFFFFFFFFFFFFFFFF NOT AND DUP3 PUSH28 0xFFFFFFFFFFFFFFFFFFFFFFFFFFFFFFFFFFFFFFFFFFFFFFFFFFFFFFFF NOT AND EQ SWAP1 POP SWAP2 SWAP1 POP JUMP JUMPDEST PUSH1 0x0 CALLER SWAP1 POP SWAP1 JUMP JUMPDEST PUSH1 0x0 PUSH1 0xA PUSH1 0x5 DUP4 PUSH2 0x2710 DUP7 PUSH2 0x386E SWAP2 SWAP1 PUSH2 0x539B JUMP JUMPDEST PUSH2 0x3878 SWAP2 SWAP1 PUSH2 0x536A JUMP JUMPDEST PUSH2 0x3882 SWAP2 SWAP1 PUSH2 0x5314 JUMP JUMPDEST PUSH2 0x388C SWAP2 SWAP1 PUSH2 0x536A JUMP JUMPDEST SWAP1 POP SWAP3 SWAP2 POP POP JUMP JUMPDEST PUSH1 0x0 PUSH20 0xFFFFFFFFFFFFFFFFFFFFFFFFFFFFFFFFFFFFFFFF AND PUSH1 0xA PUSH1 0x0 DUP4 DUP2 MSTORE PUSH1 0x20 ADD SWAP1 DUP2 MSTORE PUSH1 0x20 ADD PUSH1 0x0 KECCAK256 PUSH1 0x2 ADD PUSH1 0x0 SWAP1 SLOAD SWAP1 PUSH2 0x100 EXP SWAP1 DIV PUSH20 0xFFFFFFFFFFFFFFFFFFFFFFFFFFFFFFFFFFFFFFFF AND PUSH20 0xFFFFFFFFFFFFFFFFFFFFFFFFFFFFFFFFFFFFFFFF AND EQ PUSH2 0x3903 JUMPI PUSH1 0x0 DUP1 REVERT JUMPDEST PUSH1 0x0 PUSH1 0xB PUSH1 0x0 DUP4 DUP2 MSTORE PUSH1 0x20 ADD SWAP1 DUP2 MSTORE PUSH1 0x20 ADD PUSH1 0x0 KECCAK256 PUSH1 0x7 ADD SLOAD EQ PUSH2 0x3926 JUMPI PUSH1 0x0 DUP1 REVERT JUMPDEST PUSH1 0x0 PUSH1 0x4 DUP2 GT ISZERO PUSH2 0x393A JUMPI PUSH2 0x3939 PUSH2 0x5671 JUMP JUMPDEST JUMPDEST PUSH1 0xB PUSH1 0x0 DUP4 DUP2 MSTORE PUSH1 0x20 ADD SWAP1 DUP2 MSTORE PUSH1 0x20 ADD PUSH1 0x0 KECCAK256 PUSH1 0x0 ADD PUSH1 0x0 SWAP1 SLOAD SWAP1 PUSH2 0x100 EXP SWAP1 DIV PUSH1 0xFF AND PUSH1 0x4 DUP2 GT ISZERO PUSH2 0x3970 JUMPI PUSH2 0x396F PUSH2 0x5671 JUMP JUMPDEST JUMPDEST EQ PUSH2 0x397A JUMPI PUSH1 0x0 DUP1 REVERT JUMPDEST CALLER PUSH1 0xA PUSH1 0x0 DUP4 DUP2 MSTORE PUSH1 0x20 ADD SWAP1 DUP2 MSTORE PUSH1 0x20 ADD PUSH1 0x0 KECCAK256 PUSH1 0x2 ADD PUSH1 0x0 PUSH2 0x100 EXP DUP2 SLOAD DUP2 PUSH20 0xFFFFFFFFFFFFFFFFFFFFFFFFFFFFFFFFFFFFFFFF MUL NOT AND SWAP1 DUP4 PUSH20 0xFFFFFFFFFFFFFFFFFFFFFFFFFFFFFFFFFFFFFFFF AND MUL OR SWAP1 SSTORE POP PUSH1 0xA PUSH1 0x0 DUP3 DUP2 MSTORE PUSH1 0x20 ADD SWAP1 DUP2 MSTORE PUSH1 0x20 ADD PUSH1 0x0 KECCAK256 PUSH1 0x9 ADD PUSH1 0x0 SWAP1 SLOAD SWAP1 PUSH2 0x100 EXP SWAP1 DIV PUSH2 0xFFFF AND PUSH2 0xFFFF AND PUSH1 0xA PUSH1 0x0 DUP4 DUP2 MSTORE PUSH1 0x20 ADD SWAP1 DUP2 MSTORE PUSH1 0x20 ADD PUSH1 0x0 KECCAK256 PUSH1 0x5 ADD SLOAD PUSH2 0x3A19 SWAP2 SWAP1 PUSH2 0x536A JUMP JUMPDEST PUSH1 0xA PUSH1 0x0 DUP4 DUP2 MSTORE PUSH1 0x20 ADD SWAP1 DUP2 MSTORE PUSH1 0x20 ADD PUSH1 0x0 KECCAK256 PUSH1 0x9 ADD PUSH1 0x0 SWAP1 SLOAD SWAP1 PUSH2 0x100 EXP SWAP1 DIV PUSH2 0xFFFF AND PUSH2 0xFFFF AND PUSH2 0x3A4C SWAP2 SWAP1 PUSH2 0x539B JUMP JUMPDEST TIMESTAMP PUSH2 0x3A57 SWAP2 SWAP1 PUSH2 0x5314 JUMP JUMPDEST PUSH1 0xB PUSH1 0x0 DUP4 DUP2 MSTORE PUSH1 0x20 ADD SWAP1 DUP2 MSTORE PUSH1 0x20 ADD PUSH1 0x0 KECCAK256 PUSH1 0x3 ADD PUSH1 0x1 PUSH1 0x2 DUP2 LT PUSH2 0x3A80 JUMPI PUSH2 0x3A7F PUSH2 0x56A0 JUMP JUMPDEST JUMPDEST ADD DUP2 SWAP1 SSTORE POP PUSH1 0x1 PUSH1 0xB PUSH1 0x0 DUP4 DUP2 MSTORE PUSH1 0x20 ADD SWAP1 DUP2 MSTORE PUSH1 0x20 ADD PUSH1 0x0 KECCAK256 PUSH1 0x0 ADD PUSH1 0x0 PUSH2 0x100 EXP DUP2 SLOAD DUP2 PUSH1 0xFF MUL NOT AND SWAP1 DUP4 PUSH1 0x4 DUP2 GT ISZERO PUSH2 0x3ABF JUMPI PUSH2 0x3ABE PUSH2 0x5671 JUMP JUMPDEST JUMPDEST MUL OR SWAP1 SSTORE POP TIMESTAMP PUSH1 0xB PUSH1 0x0 DUP4 DUP2 MSTORE PUSH1 0x20 ADD SWAP1 DUP2 MSTORE PUSH1 0x20 ADD PUSH1 0x0 KECCAK256 PUSH1 0x3 ADD PUSH1 0x0 PUSH1 0x2 DUP2 LT PUSH2 0x3AEE JUMPI PUSH2 0x3AED PUSH2 0x56A0 JUMP JUMPDEST JUMPDEST ADD DUP2 SWAP1 SSTORE POP DUP1 CALLER PUSH20 0xFFFFFFFFFFFFFFFFFFFFFFFFFFFFFFFFFFFFFFFF AND PUSH32 0x1A8ECEA83CBCFF0F4C46B7E42F55227161863220EB7D439FDE442DFDC0DDBC4E PUSH1 0xB PUSH1 0x0 DUP6 DUP2 MSTORE PUSH1 0x20 ADD SWAP1 DUP2 MSTORE PUSH1 0x20 ADD PUSH1 0x0 KECCAK256 PUSH1 0x3 ADD PUSH1 0x1 PUSH1 0x2 DUP2 LT PUSH2 0x3B55 JUMPI PUSH2 0x3B54 PUSH2 0x56A0 JUMP JUMPDEST JUMPDEST ADD SLOAD PUSH1 0x40 MLOAD PUSH2 0x3B64 SWAP2 SWAP1 PUSH2 0x503E JUMP JUMPDEST PUSH1 0x40 MLOAD DUP1 SWAP2 SUB SWAP1 LOG3 POP JUMP JUMPDEST PUSH1 0x0 DUP1 PUSH1 0x0 SWAP1 SLOAD SWAP1 PUSH2 0x100 EXP SWAP1 DIV PUSH20 0xFFFFFFFFFFFFFFFFFFFFFFFFFFFFFFFFFFFFFFFF AND SWAP1 POP DUP2 PUSH1 0x0 DUP1 PUSH2 0x100 EXP DUP2 SLOAD DUP2 PUSH20 0xFFFFFFFFFFFFFFFFFFFFFFFFFFFFFFFFFFFFFFFF MUL NOT AND SWAP1 DUP4 PUSH20 0xFFFFFFFFFFFFFFFFFFFFFFFFFFFFFFFFFFFFFFFF AND MUL OR SWAP1 SSTORE POP DUP2 PUSH20 0xFFFFFFFFFFFFFFFFFFFFFFFFFFFFFFFFFFFFFFFF AND DUP2 PUSH20 0xFFFFFFFFFFFFFFFFFFFFFFFFFFFFFFFFFFFFFFFF AND PUSH32 0x8BE0079C531659141344CD1FD0A4F28419497F9722A3DAAFE3B4186F6B6457E0 PUSH1 0x40 MLOAD PUSH1 0x40 MLOAD DUP1 SWAP2 SUB SWAP1 LOG3 POP POP JUMP JUMPDEST PUSH1 0x0 PUSH1 0xB PUSH1 0x0 DUP5 DUP2 MSTORE PUSH1 0x20 ADD SWAP1 DUP2 MSTORE PUSH1 0x20 ADD PUSH1 0x0 KECCAK256 PUSH1 0xA ADD PUSH1 0x0 SWAP1 SLOAD SWAP1 PUSH2 0x100 EXP SWAP1 DIV PUSH20 0xFFFFFFFFFFFFFFFFFFFFFFFFFFFFFFFFFFFFFFFF AND PUSH20 0xFFFFFFFFFFFFFFFFFFFFFFFFFFFFFFFFFFFFFFFF AND PUSH4 0xAD6A8745 DUP4 PUSH1 0x40 MLOAD DUP3 PUSH4 0xFFFFFFFF AND PUSH1 0xE0 SHL DUP2 MSTORE PUSH1 0x4 ADD PUSH2 0x3CA4 SWAP2 SWAP1 PUSH2 0x4CC6 JUMP JUMPDEST PUSH1 0x20 PUSH1 0x40 MLOAD DUP1 DUP4 SUB DUP2 DUP7 DUP1 EXTCODESIZE ISZERO DUP1 ISZERO PUSH2 0x3CBC JUMPI PUSH1 0x0 DUP1 REVERT JUMPDEST POP GAS STATICCALL ISZERO DUP1 ISZERO PUSH2 0x3CD0 JUMPI RETURNDATASIZE PUSH1 0x0 DUP1 RETURNDATACOPY RETURNDATASIZE PUSH1 0x0 REVERT JUMPDEST POP POP POP POP PUSH1 0x40 MLOAD RETURNDATASIZE PUSH1 0x1F NOT PUSH1 0x1F DUP3 ADD AND DUP3 ADD DUP1 PUSH1 0x40 MSTORE POP DUP2 ADD SWAP1 PUSH2 0x3CF4 SWAP2 SWAP1 PUSH2 0x481D JUMP JUMPDEST SWAP1 POP SWAP3 SWAP2 POP POP JUMP JUMPDEST DUP3 DUP1 SLOAD DUP3 DUP3 SSTORE SWAP1 PUSH1 0x0 MSTORE PUSH1 0x20 PUSH1 0x0 KECCAK256 SWAP1 DUP2 ADD SWAP3 DUP3 ISZERO PUSH2 0x3D38 JUMPI SWAP2 PUSH1 0x20 MUL DUP3 ADD JUMPDEST DUP3 DUP2 GT ISZERO PUSH2 0x3D37 JUMPI DUP3 MLOAD DUP3 SSTORE SWAP2 PUSH1 0x20 ADD SWAP2 SWAP1 PUSH1 0x1 ADD SWAP1 PUSH2 0x3D1C JUMP JUMPDEST JUMPDEST POP SWAP1 POP PUSH2 0x3D45 SWAP2 SWAP1 PUSH2 0x3E7A JUMP JUMPDEST POP SWAP1 JUMP JUMPDEST DUP3 DUP1 SLOAD DUP3 DUP3 SSTORE SWAP1 PUSH1 0x0 MSTORE PUSH1 0x20 PUSH1 0x0 KECCAK256 SWAP1 DUP2 ADD SWAP3 DUP3 ISZERO PUSH2 0x3DC2 JUMPI SWAP2 PUSH1 0x20 MUL DUP3 ADD JUMPDEST DUP3 DUP2 GT ISZERO PUSH2 0x3DC1 JUMPI DUP3 MLOAD DUP3 PUSH1 0x0 PUSH2 0x100 EXP DUP2 SLOAD DUP2 PUSH20 0xFFFFFFFFFFFFFFFFFFFFFFFFFFFFFFFFFFFFFFFF MUL NOT AND SWAP1 DUP4 PUSH20 0xFFFFFFFFFFFFFFFFFFFFFFFFFFFFFFFFFFFFFFFF AND MUL OR SWAP1 SSTORE POP SWAP2 PUSH1 0x20 ADD SWAP2 SWAP1 PUSH1 0x1 ADD SWAP1 PUSH2 0x3D69 JUMP JUMPDEST JUMPDEST POP SWAP1 POP PUSH2 0x3DCF SWAP2 SWAP1 PUSH2 0x3E7A JUMP JUMPDEST POP SWAP1 JUMP JUMPDEST DUP3 DUP1 SLOAD DUP3 DUP3 SSTORE SWAP1 PUSH1 0x0 MSTORE PUSH1 0x20 PUSH1 0x0 KECCAK256 SWAP1 PUSH1 0x1F ADD PUSH1 0x20 SWAP1 DIV DUP2 ADD SWAP3 DUP3 ISZERO PUSH2 0x3E69 JUMPI SWAP2 PUSH1 0x20 MUL DUP3 ADD PUSH1 0x0 JUMPDEST DUP4 DUP3 GT ISZERO PUSH2 0x3E3A JUMPI DUP4 MLOAD DUP4 DUP3 PUSH2 0x100 EXP DUP2 SLOAD DUP2 PUSH1 0xFF MUL NOT AND SWAP1 DUP4 PUSH1 0xFF AND MUL OR SWAP1 SSTORE POP SWAP3 PUSH1 0x20 ADD SWAP3 PUSH1 0x1 ADD PUSH1 0x20 DUP2 PUSH1 0x0 ADD DIV SWAP3 DUP4 ADD SWAP3 PUSH1 0x1 SUB MUL PUSH2 0x3DFC JUMP JUMPDEST DUP1 ISZERO PUSH2 0x3E67 JUMPI DUP3 DUP2 PUSH2 0x100 EXP DUP2 SLOAD SWAP1 PUSH1 0xFF MUL NOT AND SWAP1 SSTORE PUSH1 0x1 ADD PUSH1 0x20 DUP2 PUSH1 0x0 ADD DIV SWAP3 DUP4 ADD SWAP3 PUSH1 0x1 SUB MUL PUSH2 0x3E3A JUMP JUMPDEST POP JUMPDEST POP SWAP1 POP PUSH2 0x3E76 SWAP2 SWAP1 PUSH2 0x3E7A JUMP JUMPDEST POP SWAP1 JUMP JUMPDEST JUMPDEST DUP1 DUP3 GT ISZERO PUSH2 0x3E93 JUMPI PUSH1 0x0 DUP2 PUSH1 0x0 SWAP1 SSTORE POP PUSH1 0x1 ADD PUSH2 0x3E7B JUMP JUMPDEST POP SWAP1 JUMP JUMPDEST PUSH1 0x0 PUSH2 0x3EAA PUSH2 0x3EA5 DUP5 PUSH2 0x5192 JUMP JUMPDEST PUSH2 0x516D JUMP JUMPDEST SWAP1 POP DUP1 DUP4 DUP3 MSTORE PUSH1 0x20 DUP3 ADD SWAP1 POP DUP3 DUP6 PUSH1 0x20 DUP7 MUL DUP3 ADD GT ISZERO PUSH2 0x3ECD JUMPI PUSH2 0x3ECC PUSH2 0x570D JUMP JUMPDEST JUMPDEST PUSH1 0x0 JUMPDEST DUP6 DUP2 LT ISZERO PUSH2 0x3EFD JUMPI DUP2 PUSH2 0x3EE3 DUP9 DUP3 PUSH2 0x4029 JUMP JUMPDEST DUP5 MSTORE PUSH1 0x20 DUP5 ADD SWAP4 POP PUSH1 0x20 DUP4 ADD SWAP3 POP POP PUSH1 0x1 DUP2 ADD SWAP1 POP PUSH2 0x3ED0 JUMP JUMPDEST POP POP POP SWAP4 SWAP3 POP POP POP JUMP JUMPDEST PUSH1 0x0 PUSH2 0x3F1A PUSH2 0x3F15 DUP5 PUSH2 0x51BE JUMP JUMPDEST PUSH2 0x516D JUMP JUMPDEST SWAP1 POP DUP1 DUP4 DUP3 MSTORE PUSH1 0x20 DUP3 ADD SWAP1 POP DUP3 DUP6 PUSH1 0x20 DUP7 MUL DUP3 ADD GT ISZERO PUSH2 0x3F3D JUMPI PUSH2 0x3F3C PUSH2 0x570D JUMP JUMPDEST JUMPDEST PUSH1 0x0 JUMPDEST DUP6 DUP2 LT ISZERO PUSH2 0x3F6D JUMPI DUP2 PUSH2 0x3F53 DUP9 DUP3 PUSH2 0x4358 JUMP JUMPDEST DUP5 MSTORE PUSH1 0x20 DUP5 ADD SWAP4 POP PUSH1 0x20 DUP4 ADD SWAP3 POP POP PUSH1 0x1 DUP2 ADD SWAP1 POP PUSH2 0x3F40 JUMP JUMPDEST POP POP POP SWAP4 SWAP3 POP POP POP JUMP JUMPDEST PUSH1 0x0 PUSH2 0x3F8A PUSH2 0x3F85 DUP5 PUSH2 0x51EA JUMP JUMPDEST PUSH2 0x516D JUMP JUMPDEST SWAP1 POP DUP1 DUP4 DUP3 MSTORE PUSH1 0x20 DUP3 ADD SWAP1 POP DUP3 DUP6 PUSH1 0x20 DUP7 MUL DUP3 ADD GT ISZERO PUSH2 0x3FAD JUMPI PUSH2 0x3FAC PUSH2 0x570D JUMP JUMPDEST JUMPDEST PUSH1 0x0 JUMPDEST DUP6 DUP2 LT ISZERO PUSH2 0x3FDD JUMPI DUP2 PUSH2 0x3FC3 DUP9 DUP3 PUSH2 0x4397 JUMP JUMPDEST DUP5 MSTORE PUSH1 0x20 DUP5 ADD SWAP4 POP PUSH1 0x20 DUP4 ADD SWAP3 POP POP PUSH1 0x1 DUP2 ADD SWAP1 POP PUSH2 0x3FB0 JUMP JUMPDEST POP POP POP SWAP4 SWAP3 POP POP POP JUMP JUMPDEST PUSH1 0x0 PUSH2 0x3FFA PUSH2 0x3FF5 DUP5 PUSH2 0x5216 JUMP JUMPDEST PUSH2 0x516D JUMP JUMPDEST SWAP1 POP DUP3 DUP2 MSTORE PUSH1 0x20 DUP2 ADD DUP5 DUP5 DUP5 ADD GT ISZERO PUSH2 0x4016 JUMPI PUSH2 0x4015 PUSH2 0x5712 JUMP JUMPDEST JUMPDEST PUSH2 0x4021 DUP5 DUP3 DUP6 PUSH2 0x5559 JUMP JUMPDEST POP SWAP4 SWAP3 POP POP POP JUMP JUMPDEST PUSH1 0x0 DUP2 CALLDATALOAD SWAP1 POP PUSH2 0x4038 DUP2 PUSH2 0x5926 JUMP JUMPDEST SWAP3 SWAP2 POP POP JUMP JUMPDEST PUSH1 0x0 DUP2 CALLDATALOAD SWAP1 POP PUSH2 0x404D DUP2 PUSH2 0x593D JUMP JUMPDEST SWAP3 SWAP2 POP POP JUMP JUMPDEST PUSH1 0x0 DUP3 PUSH1 0x1F DUP4 ADD SLT PUSH2 0x4068 JUMPI PUSH2 0x4067 PUSH2 0x56FE JUMP JUMPDEST JUMPDEST DUP2 CALLDATALOAD PUSH2 0x4078 DUP5 DUP3 PUSH1 0x20 DUP7 ADD PUSH2 0x3E97 JUMP JUMPDEST SWAP2 POP POP SWAP3 SWAP2 POP POP JUMP JUMPDEST PUSH1 0x0 DUP3 PUSH1 0x1F DUP4 ADD SLT PUSH2 0x4096 JUMPI PUSH2 0x4095 PUSH2 0x56FE JUMP JUMPDEST JUMPDEST DUP2 CALLDATALOAD PUSH2 0x40A6 DUP5 DUP3 PUSH1 0x20 DUP7 ADD PUSH2 0x3F07 JUMP JUMPDEST SWAP2 POP POP SWAP3 SWAP2 POP POP JUMP JUMPDEST PUSH1 0x0 DUP3 PUSH1 0x1F DUP4 ADD SLT PUSH2 0x40C4 JUMPI PUSH2 0x40C3 PUSH2 0x56FE JUMP JUMPDEST JUMPDEST DUP2 CALLDATALOAD PUSH2 0x40D4 DUP5 DUP3 PUSH1 0x20 DUP7 ADD PUSH2 0x3F77 JUMP JUMPDEST SWAP2 POP POP SWAP3 SWAP2 POP POP JUMP JUMPDEST PUSH1 0x0 DUP2 MLOAD SWAP1 POP PUSH2 0x40EC DUP2 PUSH2 0x5954 JUMP JUMPDEST SWAP3 SWAP2 POP POP JUMP JUMPDEST PUSH1 0x0 DUP2 CALLDATALOAD SWAP1 POP PUSH2 0x4101 DUP2 PUSH2 0x596B JUMP JUMPDEST SWAP3 SWAP2 POP POP JUMP JUMPDEST PUSH1 0x0 DUP3 PUSH1 0x1F DUP4 ADD SLT PUSH2 0x411C JUMPI PUSH2 0x411B PUSH2 0x56FE JUMP JUMPDEST JUMPDEST DUP2 CALLDATALOAD PUSH2 0x412C DUP5 DUP3 PUSH1 0x20 DUP7 ADD PUSH2 0x3FE7 JUMP JUMPDEST SWAP2 POP POP SWAP3 SWAP2 POP POP JUMP JUMPDEST PUSH1 0x0 PUSH2 0x100 DUP3 DUP5 SUB SLT ISZERO PUSH2 0x414C JUMPI PUSH2 0x414B PUSH2 0x5703 JUMP JUMPDEST JUMPDEST PUSH2 0x4157 PUSH2 0x100 PUSH2 0x516D JUMP JUMPDEST SWAP1 POP PUSH1 0x0 PUSH2 0x4167 DUP5 DUP3 DUP6 ADD PUSH2 0x4029 JUMP JUMPDEST PUSH1 0x0 DUP4 ADD MSTORE POP PUSH1 0x20 DUP3 ADD CALLDATALOAD PUSH8 0xFFFFFFFFFFFFFFFF DUP2 GT ISZERO PUSH2 0x418B JUMPI PUSH2 0x418A PUSH2 0x5708 JUMP JUMPDEST JUMPDEST PUSH2 0x4197 DUP5 DUP3 DUP6 ADD PUSH2 0x4053 JUMP JUMPDEST PUSH1 0x20 DUP4 ADD MSTORE POP PUSH1 0x40 PUSH2 0x41AB DUP5 DUP3 DUP6 ADD PUSH2 0x4358 JUMP JUMPDEST PUSH1 0x40 DUP4 ADD MSTORE POP PUSH1 0x60 PUSH2 0x41BF DUP5 DUP3 DUP6 ADD PUSH2 0x4358 JUMP JUMPDEST PUSH1 0x60 DUP4 ADD MSTORE POP PUSH1 0x80 PUSH2 0x41D3 DUP5 DUP3 DUP6 ADD PUSH2 0x4358 JUMP JUMPDEST PUSH1 0x80 DUP4 ADD MSTORE POP PUSH1 0xA0 DUP3 ADD CALLDATALOAD PUSH8 0xFFFFFFFFFFFFFFFF DUP2 GT ISZERO PUSH2 0x41F7 JUMPI PUSH2 0x41F6 PUSH2 0x5708 JUMP JUMPDEST JUMPDEST PUSH2 0x4203 DUP5 DUP3 DUP6 ADD PUSH2 0x4081 JUMP JUMPDEST PUSH1 0xA0 DUP4 ADD MSTORE POP PUSH1 0xC0 PUSH2 0x4217 DUP5 DUP3 DUP6 ADD PUSH2 0x4343 JUMP JUMPDEST PUSH1 0xC0 DUP4 ADD MSTORE POP PUSH1 0xE0 DUP3 ADD CALLDATALOAD PUSH8 0xFFFFFFFFFFFFFFFF DUP2 GT ISZERO PUSH2 0x423B JUMPI PUSH2 0x423A PUSH2 0x5708 JUMP JUMPDEST JUMPDEST PUSH2 0x4247 DUP5 DUP3 DUP6 ADD PUSH2 0x40AF JUMP JUMPDEST PUSH1 0xE0 DUP4 ADD MSTORE POP SWAP3 SWAP2 POP POP JUMP JUMPDEST PUSH1 0x0 PUSH1 0x80 DUP3 DUP5 SUB SLT ISZERO PUSH2 0x4269 JUMPI PUSH2 0x4268 PUSH2 0x5703 JUMP JUMPDEST JUMPDEST PUSH2 0x4273 PUSH1 0x80 PUSH2 0x516D JUMP JUMPDEST SWAP1 POP PUSH1 0x0 PUSH2 0x4283 DUP5 DUP3 DUP6 ADD PUSH2 0x4029 JUMP JUMPDEST PUSH1 0x0 DUP4 ADD MSTORE POP PUSH1 0x20 PUSH2 0x4297 DUP5 DUP3 DUP6 ADD PUSH2 0x4029 JUMP JUMPDEST PUSH1 0x20 DUP4 ADD MSTORE POP PUSH1 0x40 PUSH2 0x42AB DUP5 DUP3 DUP6 ADD PUSH2 0x4029 JUMP JUMPDEST PUSH1 0x40 DUP4 ADD MSTORE POP PUSH1 0x60 PUSH2 0x42BF DUP5 DUP3 DUP6 ADD PUSH2 0x4029 JUMP JUMPDEST PUSH1 0x60 DUP4 ADD MSTORE POP SWAP3 SWAP2 POP POP JUMP JUMPDEST PUSH1 0x0 PUSH1 0x80 DUP3 DUP5 SUB SLT ISZERO PUSH2 0x42E1 JUMPI PUSH2 0x42E0 PUSH2 0x5703 JUMP JUMPDEST JUMPDEST PUSH2 0x42EB PUSH1 0x80 PUSH2 0x516D JUMP JUMPDEST SWAP1 POP PUSH1 0x0 PUSH2 0x42FB DUP5 DUP3 DUP6 ADD PUSH2 0x4358 JUMP JUMPDEST PUSH1 0x0 DUP4 ADD MSTORE POP PUSH1 0x20 PUSH2 0x430F DUP5 DUP3 DUP6 ADD PUSH2 0x4358 JUMP JUMPDEST PUSH1 0x20 DUP4 ADD MSTORE POP PUSH1 0x40 PUSH2 0x4323 DUP5 DUP3 DUP6 ADD PUSH2 0x4358 JUMP JUMPDEST PUSH1 0x40 DUP4 ADD MSTORE POP PUSH1 0x60 PUSH2 0x4337 DUP5 DUP3 DUP6 ADD PUSH2 0x4382 JUMP JUMPDEST PUSH1 0x60 DUP4 ADD MSTORE POP SWAP3 SWAP2 POP POP JUMP JUMPDEST PUSH1 0x0 DUP2 CALLDATALOAD SWAP1 POP PUSH2 0x4352 DUP2 PUSH2 0x5982 JUMP JUMPDEST SWAP3 SWAP2 POP POP JUMP JUMPDEST PUSH1 0x0 DUP2 CALLDATALOAD SWAP1 POP PUSH2 0x4367 DUP2 PUSH2 0x5999 JUMP JUMPDEST SWAP3 SWAP2 POP POP JUMP JUMPDEST PUSH1 0x0 DUP2 MLOAD SWAP1 POP PUSH2 0x437C DUP2 PUSH2 0x5999 JUMP JUMPDEST SWAP3 SWAP2 POP POP JUMP JUMPDEST PUSH1 0x0 DUP2 CALLDATALOAD SWAP1 POP PUSH2 0x4391 DUP2 PUSH2 0x59B0 JUMP JUMPDEST SWAP3 SWAP2 POP POP JUMP JUMPDEST PUSH1 0x0 DUP2 CALLDATALOAD SWAP1 POP PUSH2 0x43A6 DUP2 PUSH2 0x59C7 JUMP JUMPDEST SWAP3 SWAP2 POP POP JUMP JUMPDEST PUSH1 0x0 PUSH1 0x20 DUP3 DUP5 SUB SLT ISZERO PUSH2 0x43C2 JUMPI PUSH2 0x43C1 PUSH2 0x571C JUMP JUMPDEST JUMPDEST PUSH1 0x0 PUSH2 0x43D0 DUP5 DUP3 DUP6 ADD PUSH2 0x4029 JUMP JUMPDEST SWAP2 POP POP SWAP3 SWAP2 POP POP JUMP JUMPDEST PUSH1 0x0 DUP1 PUSH1 0x0 DUP1 PUSH1 0x0 PUSH1 0xA0 DUP7 DUP9 SUB SLT ISZERO PUSH2 0x43F5 JUMPI PUSH2 0x43F4 PUSH2 0x571C JUMP JUMPDEST JUMPDEST PUSH1 0x0 PUSH2 0x4403 DUP9 DUP3 DUP10 ADD PUSH2 0x4029 JUMP JUMPDEST SWAP6 POP POP PUSH1 0x20 PUSH2 0x4414 DUP9 DUP3 DUP10 ADD PUSH2 0x403E JUMP JUMPDEST SWAP5 POP POP PUSH1 0x40 PUSH2 0x4425 DUP9 DUP3 DUP10 ADD PUSH2 0x4029 JUMP JUMPDEST SWAP4 POP POP PUSH1 0x60 PUSH2 0x4436 DUP9 DUP3 DUP10 ADD PUSH2 0x4358 JUMP JUMPDEST SWAP3 POP POP PUSH1 0x80 PUSH2 0x4447 DUP9 DUP3 DUP10 ADD PUSH2 0x4358 JUMP JUMPDEST SWAP2 POP POP SWAP3 SWAP6 POP SWAP3 SWAP6 SWAP1 SWAP4 POP JUMP JUMPDEST PUSH1 0x0 DUP1 PUSH1 0x0 DUP1 PUSH1 0x0 PUSH1 0xA0 DUP7 DUP9 SUB SLT ISZERO PUSH2 0x4470 JUMPI PUSH2 0x446F PUSH2 0x571C JUMP JUMPDEST JUMPDEST PUSH1 0x0 PUSH2 0x447E DUP9 DUP3 DUP10 ADD PUSH2 0x4029 JUMP JUMPDEST SWAP6 POP POP PUSH1 0x20 PUSH2 0x448F DUP9 DUP3 DUP10 ADD PUSH2 0x4029 JUMP JUMPDEST SWAP5 POP POP PUSH1 0x40 DUP7 ADD CALLDATALOAD PUSH8 0xFFFFFFFFFFFFFFFF DUP2 GT ISZERO PUSH2 0x44B0 JUMPI PUSH2 0x44AF PUSH2 0x5717 JUMP JUMPDEST JUMPDEST PUSH2 0x44BC DUP9 DUP3 DUP10 ADD PUSH2 0x4053 JUMP JUMPDEST SWAP4 POP POP PUSH1 0x60 DUP7 ADD CALLDATALOAD PUSH8 0xFFFFFFFFFFFFFFFF DUP2 GT ISZERO PUSH2 0x44DD JUMPI PUSH2 0x44DC PUSH2 0x5717 JUMP JUMPDEST JUMPDEST PUSH2 0x44E9 DUP9 DUP3 DUP10 ADD PUSH2 0x4081 JUMP JUMPDEST SWAP3 POP POP PUSH1 0x80 DUP7 ADD CALLDATALOAD PUSH8 0xFFFFFFFFFFFFFFFF DUP2 GT ISZERO PUSH2 0x450A JUMPI PUSH2 0x4509 PUSH2 0x5717 JUMP JUMPDEST JUMPDEST PUSH2 0x4516 DUP9 DUP3 DUP10 ADD PUSH2 0x40AF JUMP JUMPDEST SWAP2 POP POP SWAP3 SWAP6 POP SWAP3 SWAP6 SWAP1 SWAP4 POP JUMP JUMPDEST PUSH1 0x0 DUP1 PUSH1 0x0 DUP1 PUSH1 0x0 PUSH1 0xA0 DUP7 DUP9 SUB SLT ISZERO PUSH2 0x453F JUMPI PUSH2 0x453E PUSH2 0x571C JUMP JUMPDEST JUMPDEST PUSH1 0x0 PUSH2 0x454D DUP9 DUP3 DUP10 ADD PUSH2 0x4029 JUMP JUMPDEST SWAP6 POP POP PUSH1 0x20 PUSH2 0x455E DUP9 DUP3 DUP10 ADD PUSH2 0x4029 JUMP JUMPDEST SWAP5 POP POP PUSH1 0x40 DUP7 ADD CALLDATALOAD PUSH8 0xFFFFFFFFFFFFFFFF DUP2 GT ISZERO PUSH2 0x457F JUMPI PUSH2 0x457E PUSH2 0x5717 JUMP JUMPDEST JUMPDEST PUSH2 0x458B DUP9 DUP3 DUP10 ADD PUSH2 0x4081 JUMP JUMPDEST SWAP4 POP POP PUSH1 0x60 DUP7 ADD CALLDATALOAD PUSH8 0xFFFFFFFFFFFFFFFF DUP2 GT ISZERO PUSH2 0x45AC JUMPI PUSH2 0x45AB PUSH2 0x5717 JUMP JUMPDEST JUMPDEST PUSH2 0x45B8 DUP9 DUP3 DUP10 ADD PUSH2 0x4081 JUMP JUMPDEST SWAP3 POP POP PUSH1 0x80 DUP7 ADD CALLDATALOAD PUSH8 0xFFFFFFFFFFFFFFFF DUP2 GT ISZERO PUSH2 0x45D9 JUMPI PUSH2 0x45D8 PUSH2 0x5717 JUMP JUMPDEST JUMPDEST PUSH2 0x45E5 DUP9 DUP3 DUP10 ADD PUSH2 0x4107 JUMP JUMPDEST SWAP2 POP POP SWAP3 SWAP6 POP SWAP3 SWAP6 SWAP1 SWAP4 POP JUMP JUMPDEST PUSH1 0x0 DUP1 PUSH1 0x0 DUP1 PUSH1 0x80 DUP6 DUP8 SUB SLT ISZERO PUSH2 0x460C JUMPI PUSH2 0x460B PUSH2 0x571C JUMP JUMPDEST JUMPDEST PUSH1 0x0 PUSH2 0x461A DUP8 DUP3 DUP9 ADD PUSH2 0x4029 JUMP JUMPDEST SWAP5 POP POP PUSH1 0x20 PUSH2 0x462B DUP8 DUP3 DUP9 ADD PUSH2 0x4029 JUMP JUMPDEST SWAP4 POP POP PUSH1 0x40 PUSH2 0x463C DUP8 DUP3 DUP9 ADD PUSH2 0x4358 JUMP JUMPDEST SWAP3 POP POP PUSH1 0x60 DUP6 ADD CALLDATALOAD PUSH8 0xFFFFFFFFFFFFFFFF DUP2 GT ISZERO PUSH2 0x465D JUMPI PUSH2 0x465C PUSH2 0x5717 JUMP JUMPDEST JUMPDEST PUSH2 0x4669 DUP8 DUP3 DUP9 ADD PUSH2 0x4107 JUMP JUMPDEST SWAP2 POP POP SWAP3 SWAP6 SWAP2 SWAP5 POP SWAP3 POP JUMP JUMPDEST PUSH1 0x0 DUP1 PUSH1 0x0 DUP1 PUSH1 0x0 PUSH1 0xA0 DUP7 DUP9 SUB SLT ISZERO PUSH2 0x4691 JUMPI PUSH2 0x4690 PUSH2 0x571C JUMP JUMPDEST JUMPDEST PUSH1 0x0 PUSH2 0x469F DUP9 DUP3 DUP10 ADD PUSH2 0x4029 JUMP JUMPDEST SWAP6 POP POP PUSH1 0x20 PUSH2 0x46B0 DUP9 DUP3 DUP10 ADD PUSH2 0x4029 JUMP JUMPDEST SWAP5 POP POP PUSH1 0x40 PUSH2 0x46C1 DUP9 DUP3 DUP10 ADD PUSH2 0x4358 JUMP JUMPDEST SWAP4 POP POP PUSH1 0x60 PUSH2 0x46D2 DUP9 DUP3 DUP10 ADD PUSH2 0x4358 JUMP JUMPDEST SWAP3 POP POP PUSH1 0x80 DUP7 ADD CALLDATALOAD PUSH8 0xFFFFFFFFFFFFFFFF DUP2 GT ISZERO PUSH2 0x46F3 JUMPI PUSH2 0x46F2 PUSH2 0x5717 JUMP JUMPDEST JUMPDEST PUSH2 0x46FF DUP9 DUP3 DUP10 ADD PUSH2 0x4107 JUMP JUMPDEST SWAP2 POP POP SWAP3 SWAP6 POP SWAP3 SWAP6 SWAP1 SWAP4 POP JUMP JUMPDEST PUSH1 0x0 PUSH1 0x20 DUP3 DUP5 SUB SLT ISZERO PUSH2 0x4722 JUMPI PUSH2 0x4721 PUSH2 0x571C JUMP JUMPDEST JUMPDEST PUSH1 0x0 PUSH2 0x4730 DUP5 DUP3 DUP6 ADD PUSH2 0x40DD JUMP JUMPDEST SWAP2 POP POP SWAP3 SWAP2 POP POP JUMP JUMPDEST PUSH1 0x0 PUSH1 0x20 DUP3 DUP5 SUB SLT ISZERO PUSH2 0x474F JUMPI PUSH2 0x474E PUSH2 0x571C JUMP JUMPDEST JUMPDEST PUSH1 0x0 PUSH2 0x475D DUP5 DUP3 DUP6 ADD PUSH2 0x40F2 JUMP JUMPDEST SWAP2 POP POP SWAP3 SWAP2 POP POP JUMP JUMPDEST PUSH1 0x0 PUSH1 0x20 DUP3 DUP5 SUB SLT ISZERO PUSH2 0x477C JUMPI PUSH2 0x477B PUSH2 0x571C JUMP JUMPDEST JUMPDEST PUSH1 0x0 DUP3 ADD CALLDATALOAD PUSH8 0xFFFFFFFFFFFFFFFF DUP2 GT ISZERO PUSH2 0x479A JUMPI PUSH2 0x4799 PUSH2 0x5717 JUMP JUMPDEST JUMPDEST PUSH2 0x47A6 DUP5 DUP3 DUP6 ADD PUSH2 0x4135 JUMP JUMPDEST SWAP2 POP POP SWAP3 SWAP2 POP POP JUMP JUMPDEST PUSH1 0x0 DUP1 PUSH2 0x100 DUP4 DUP6 SUB SLT ISZERO PUSH2 0x47C7 JUMPI PUSH2 0x47C6 PUSH2 0x571C JUMP JUMPDEST JUMPDEST PUSH1 0x0 PUSH2 0x47D5 DUP6 DUP3 DUP7 ADD PUSH2 0x42CB JUMP JUMPDEST SWAP3 POP POP PUSH1 0x80 PUSH2 0x47E6 DUP6 DUP3 DUP7 ADD PUSH2 0x4253 JUMP JUMPDEST SWAP2 POP POP SWAP3 POP SWAP3 SWAP1 POP JUMP JUMPDEST PUSH1 0x0 PUSH1 0x20 DUP3 DUP5 SUB SLT ISZERO PUSH2 0x4806 JUMPI PUSH2 0x4805 PUSH2 0x571C JUMP JUMPDEST JUMPDEST PUSH1 0x0 PUSH2 0x4814 DUP5 DUP3 DUP6 ADD PUSH2 0x4358 JUMP JUMPDEST SWAP2 POP POP SWAP3 SWAP2 POP POP JUMP JUMPDEST PUSH1 0x0 PUSH1 0x20 DUP3 DUP5 SUB SLT ISZERO PUSH2 0x4833 JUMPI PUSH2 0x4832 PUSH2 0x571C JUMP JUMPDEST JUMPDEST PUSH1 0x0 PUSH2 0x4841 DUP5 DUP3 DUP6 ADD PUSH2 0x436D JUMP JUMPDEST SWAP2 POP POP SWAP3 SWAP2 POP POP JUMP JUMPDEST PUSH1 0x0 DUP1 PUSH1 0x0 PUSH2 0x120 DUP5 DUP7 SUB SLT ISZERO PUSH2 0x4864 JUMPI PUSH2 0x4863 PUSH2 0x571C JUMP JUMPDEST JUMPDEST PUSH1 0x0 PUSH2 0x4872 DUP7 DUP3 DUP8 ADD PUSH2 0x4358 JUMP JUMPDEST SWAP4 POP POP PUSH1 0x20 PUSH2 0x4883 DUP7 DUP3 DUP8 ADD PUSH2 0x42CB JUMP JUMPDEST SWAP3 POP POP PUSH1 0xA0 PUSH2 0x4894 DUP7 DUP3 DUP8 ADD PUSH2 0x4253 JUMP JUMPDEST SWAP2 POP POP SWAP3 POP SWAP3 POP SWAP3 JUMP JUMPDEST PUSH1 0x0 DUP1 PUSH1 0x40 DUP4 DUP6 SUB SLT ISZERO PUSH2 0x48B5 JUMPI PUSH2 0x48B4 PUSH2 0x571C JUMP JUMPDEST JUMPDEST PUSH1 0x0 PUSH2 0x48C3 DUP6 DUP3 DUP7 ADD PUSH2 0x4358 JUMP JUMPDEST SWAP3 POP POP PUSH1 0x20 PUSH2 0x48D4 DUP6 DUP3 DUP7 ADD PUSH2 0x4358 JUMP JUMPDEST SWAP2 POP POP SWAP3 POP SWAP3 SWAP1 POP JUMP JUMPDEST PUSH1 0x0 DUP1 PUSH1 0x0 DUP1 PUSH1 0x0 DUP1 PUSH1 0xC0 DUP8 DUP10 SUB SLT ISZERO PUSH2 0x48FB JUMPI PUSH2 0x48FA PUSH2 0x571C JUMP JUMPDEST JUMPDEST PUSH1 0x0 PUSH2 0x4909 DUP10 DUP3 DUP11 ADD PUSH2 0x4358 JUMP JUMPDEST SWAP7 POP POP PUSH1 0x20 PUSH2 0x491A DUP10 DUP3 DUP11 ADD PUSH2 0x4358 JUMP JUMPDEST SWAP6 POP POP PUSH1 0x40 PUSH2 0x492B DUP10 DUP3 DUP11 ADD PUSH2 0x4343 JUMP JUMPDEST SWAP5 POP POP PUSH1 0x60 PUSH2 0x493C DUP10 DUP3 DUP11 ADD PUSH2 0x4029 JUMP JUMPDEST SWAP4 POP POP PUSH1 0x80 PUSH2 0x494D DUP10 DUP3 DUP11 ADD PUSH2 0x4358 JUMP JUMPDEST SWAP3 POP POP PUSH1 0xA0 PUSH2 0x495E DUP10 DUP3 DUP11 ADD PUSH2 0x4358 JUMP JUMPDEST SWAP2 POP POP SWAP3 SWAP6 POP SWAP3 SWAP6 POP SWAP3 SWAP6 JUMP JUMPDEST PUSH1 0x0 PUSH2 0x4977 DUP4 DUP4 PUSH2 0x49D1 JUMP JUMPDEST PUSH1 0x20 DUP4 ADD SWAP1 POP SWAP3 SWAP2 POP POP JUMP JUMPDEST PUSH1 0x0 PUSH2 0x498F DUP4 DUP4 PUSH2 0x4C7B JUMP JUMPDEST PUSH1 0x20 DUP4 ADD SWAP1 POP SWAP3 SWAP2 POP POP JUMP JUMPDEST PUSH1 0x0 PUSH2 0x49A7 DUP4 DUP4 PUSH2 0x4CA8 JUMP JUMPDEST PUSH1 0x20 DUP4 ADD SWAP1 POP SWAP3 SWAP2 POP POP JUMP JUMPDEST PUSH2 0x49BC DUP2 PUSH2 0x54ED JUMP JUMPDEST DUP3 MSTORE POP POP JUMP JUMPDEST PUSH2 0x49CB DUP2 PUSH2 0x543B JUMP JUMPDEST DUP3 MSTORE POP POP JUMP JUMPDEST PUSH2 0x49DA DUP2 PUSH2 0x5429 JUMP JUMPDEST DUP3 MSTORE POP POP JUMP JUMPDEST PUSH2 0x49E9 DUP2 PUSH2 0x5429 JUMP JUMPDEST DUP3 MSTORE POP POP JUMP JUMPDEST PUSH1 0x0 PUSH2 0x49FA DUP3 PUSH2 0x5277 JUMP JUMPDEST PUSH2 0x4A04 DUP2 DUP6 PUSH2 0x52BF JUMP JUMPDEST SWAP4 POP PUSH2 0x4A0F DUP4 PUSH2 0x5247 JUMP JUMPDEST DUP1 PUSH1 0x0 JUMPDEST DUP4 DUP2 LT ISZERO PUSH2 0x4A40 JUMPI DUP2 MLOAD PUSH2 0x4A27 DUP9 DUP3 PUSH2 0x496B JUMP JUMPDEST SWAP8 POP PUSH2 0x4A32 DUP4 PUSH2 0x5298 JUMP JUMPDEST SWAP3 POP POP PUSH1 0x1 DUP2 ADD SWAP1 POP PUSH2 0x4A13 JUMP JUMPDEST POP DUP6 SWAP4 POP POP POP POP SWAP3 SWAP2 POP POP JUMP JUMPDEST PUSH1 0x0 PUSH2 0x4A58 DUP3 PUSH2 0x5282 JUMP JUMPDEST PUSH2 0x4A62 DUP2 DUP6 PUSH2 0x52D0 JUMP JUMPDEST SWAP4 POP PUSH2 0x4A6D DUP4 PUSH2 0x5257 JUMP JUMPDEST DUP1 PUSH1 0x0 JUMPDEST DUP4 DUP2 LT ISZERO PUSH2 0x4A9E JUMPI DUP2 MLOAD PUSH2 0x4A85 DUP9 DUP3 PUSH2 0x4983 JUMP JUMPDEST SWAP8 POP PUSH2 0x4A90 DUP4 PUSH2 0x52A5 JUMP JUMPDEST SWAP3 POP POP PUSH1 0x1 DUP2 ADD SWAP1 POP PUSH2 0x4A71 JUMP JUMPDEST POP DUP6 SWAP4 POP POP POP POP SWAP3 SWAP2 POP POP JUMP JUMPDEST PUSH1 0x0 PUSH2 0x4AB6 DUP3 PUSH2 0x528D JUMP JUMPDEST PUSH2 0x4AC0 DUP2 DUP6 PUSH2 0x52E1 JUMP JUMPDEST SWAP4 POP PUSH2 0x4ACB DUP4 PUSH2 0x5267 JUMP JUMPDEST DUP1 PUSH1 0x0 JUMPDEST DUP4 DUP2 LT ISZERO PUSH2 0x4AFC JUMPI DUP2 MLOAD PUSH2 0x4AE3 DUP9 DUP3 PUSH2 0x499B JUMP JUMPDEST SWAP8 POP PUSH2 0x4AEE DUP4 PUSH2 0x52B2 JUMP JUMPDEST SWAP3 POP POP PUSH1 0x1 DUP2 ADD SWAP1 POP PUSH2 0x4ACF JUMP JUMPDEST POP DUP6 SWAP4 POP POP POP POP SWAP3 SWAP2 POP POP JUMP JUMPDEST PUSH2 0x4B12 DUP2 PUSH2 0x544D JUMP JUMPDEST DUP3 MSTORE POP POP JUMP JUMPDEST PUSH2 0x4B21 DUP2 PUSH2 0x5459 JUMP JUMPDEST DUP3 MSTORE POP POP JUMP JUMPDEST PUSH2 0x4B30 DUP2 PUSH2 0x54FF JUMP JUMPDEST DUP3 MSTORE POP POP JUMP JUMPDEST PUSH2 0x4B3F DUP2 PUSH2 0x5511 JUMP JUMPDEST DUP3 MSTORE POP POP JUMP JUMPDEST PUSH1 0x0 PUSH2 0x4B52 PUSH1 0x26 DUP4 PUSH2 0x5303 JUMP JUMPDEST SWAP2 POP PUSH2 0x4B5D DUP3 PUSH2 0x5732 JUMP JUMPDEST PUSH1 0x40 DUP3 ADD SWAP1 POP SWAP2 SWAP1 POP JUMP JUMPDEST PUSH1 0x0 PUSH2 0x4B75 PUSH1 0x4 DUP4 PUSH2 0x52F2 JUMP JUMPDEST SWAP2 POP PUSH2 0x4B80 DUP3 PUSH2 0x5781 JUMP JUMPDEST PUSH1 0x20 DUP3 ADD SWAP1 POP SWAP2 SWAP1 POP JUMP JUMPDEST PUSH1 0x0 PUSH2 0x4B98 PUSH1 0x25 DUP4 PUSH2 0x5303 JUMP JUMPDEST SWAP2 POP PUSH2 0x4BA3 DUP3 PUSH2 0x57AA JUMP JUMPDEST PUSH1 0x40 DUP3 ADD SWAP1 POP SWAP2 SWAP1 POP JUMP JUMPDEST PUSH1 0x0 PUSH2 0x4BBB PUSH1 0x20 DUP4 PUSH2 0x5303 JUMP JUMPDEST SWAP2 POP PUSH2 0x4BC6 DUP3 PUSH2 0x57F9 JUMP JUMPDEST PUSH1 0x20 DUP3 ADD SWAP1 POP SWAP2 SWAP1 POP JUMP JUMPDEST PUSH1 0x0 PUSH2 0x4BDE PUSH1 0x22 DUP4 PUSH2 0x5303 JUMP JUMPDEST SWAP2 POP PUSH2 0x4BE9 DUP3 PUSH2 0x5822 JUMP JUMPDEST PUSH1 0x40 DUP3 ADD SWAP1 POP SWAP2 SWAP1 POP JUMP JUMPDEST PUSH1 0x0 PUSH2 0x4C01 PUSH1 0x23 DUP4 PUSH2 0x5303 JUMP JUMPDEST SWAP2 POP PUSH2 0x4C0C DUP3 PUSH2 0x5871 JUMP JUMPDEST PUSH1 0x40 DUP3 ADD SWAP1 POP SWAP2 SWAP1 POP JUMP JUMPDEST PUSH1 0x0 PUSH2 0x4C24 PUSH1 0x20 DUP4 PUSH2 0x5303 JUMP JUMPDEST SWAP2 POP PUSH2 0x4C2F DUP3 PUSH2 0x58C0 JUMP JUMPDEST PUSH1 0x20 DUP3 ADD SWAP1 POP SWAP2 SWAP1 POP JUMP JUMPDEST PUSH1 0x0 PUSH2 0x4C47 PUSH1 0x20 DUP4 PUSH2 0x5303 JUMP JUMPDEST SWAP2 POP PUSH2 0x4C52 DUP3 PUSH2 0x58E9 JUMP JUMPDEST PUSH1 0x20 DUP3 ADD SWAP1 POP SWAP2 SWAP1 POP JUMP JUMPDEST PUSH2 0x4C66 DUP2 PUSH2 0x5498 JUMP JUMPDEST DUP3 MSTORE POP POP JUMP JUMPDEST PUSH2 0x4C75 DUP2 PUSH2 0x5547 JUMP JUMPDEST DUP3 MSTORE POP POP JUMP JUMPDEST PUSH2 0x4C84 DUP2 PUSH2 0x54C6 JUMP JUMPDEST DUP3 MSTORE POP POP JUMP JUMPDEST PUSH2 0x4C93 DUP2 PUSH2 0x54C6 JUMP JUMPDEST DUP3 MSTORE POP POP JUMP JUMPDEST PUSH2 0x4CA2 DUP2 PUSH2 0x54D0 JUMP JUMPDEST DUP3 MSTORE POP POP JUMP JUMPDEST PUSH2 0x4CB1 DUP2 PUSH2 0x54E0 JUMP JUMPDEST DUP3 MSTORE POP POP JUMP JUMPDEST PUSH2 0x4CC0 DUP2 PUSH2 0x54E0 JUMP JUMPDEST DUP3 MSTORE POP POP JUMP JUMPDEST PUSH1 0x0 PUSH1 0x20 DUP3 ADD SWAP1 POP PUSH2 0x4CDB PUSH1 0x0 DUP4 ADD DUP5 PUSH2 0x49E0 JUMP JUMPDEST SWAP3 SWAP2 POP POP JUMP JUMPDEST PUSH1 0x0 PUSH2 0x100 DUP3 ADD SWAP1 POP PUSH2 0x4CF7 PUSH1 0x0 DUP4 ADD DUP12 PUSH2 0x49C2 JUMP JUMPDEST PUSH2 0x4D04 PUSH1 0x20 DUP4 ADD DUP11 PUSH2 0x49C2 JUMP JUMPDEST PUSH2 0x4D11 PUSH1 0x40 DUP4 ADD DUP10 PUSH2 0x49E0 JUMP JUMPDEST PUSH2 0x4D1E PUSH1 0x60 DUP4 ADD DUP9 PUSH2 0x4C8A JUMP JUMPDEST PUSH2 0x4D2B PUSH1 0x80 DUP4 ADD DUP8 PUSH2 0x4C8A JUMP JUMPDEST PUSH2 0x4D38 PUSH1 0xA0 DUP4 ADD DUP7 PUSH2 0x4C8A JUMP JUMPDEST PUSH2 0x4D45 PUSH1 0xC0 DUP4 ADD DUP6 PUSH2 0x4C8A JUMP JUMPDEST PUSH2 0x4D52 PUSH1 0xE0 DUP4 ADD DUP5 PUSH2 0x4C5D JUMP JUMPDEST SWAP10 SWAP9 POP POP POP POP POP POP POP POP POP JUMP JUMPDEST PUSH1 0x0 PUSH1 0x60 DUP3 ADD SWAP1 POP PUSH2 0x4D74 PUSH1 0x0 DUP4 ADD DUP7 PUSH2 0x49E0 JUMP JUMPDEST PUSH2 0x4D81 PUSH1 0x20 DUP4 ADD DUP6 PUSH2 0x49B3 JUMP JUMPDEST PUSH2 0x4D8E PUSH1 0x40 DUP4 ADD DUP5 PUSH2 0x4C8A JUMP JUMPDEST SWAP5 SWAP4 POP POP POP POP JUMP JUMPDEST PUSH1 0x0 PUSH1 0x60 DUP3 ADD SWAP1 POP PUSH2 0x4DAB PUSH1 0x0 DUP4 ADD DUP7 PUSH2 0x49E0 JUMP JUMPDEST PUSH2 0x4DB8 PUSH1 0x20 DUP4 ADD DUP6 PUSH2 0x49E0 JUMP JUMPDEST PUSH2 0x4DC5 PUSH1 0x40 DUP4 ADD DUP5 PUSH2 0x4C8A JUMP JUMPDEST SWAP5 SWAP4 POP POP POP POP JUMP JUMPDEST PUSH1 0x0 PUSH1 0xA0 DUP3 ADD SWAP1 POP PUSH2 0x4DE2 PUSH1 0x0 DUP4 ADD DUP8 PUSH2 0x49E0 JUMP JUMPDEST PUSH2 0x4DEF PUSH1 0x20 DUP4 ADD DUP7 PUSH2 0x49E0 JUMP JUMPDEST PUSH2 0x4DFC PUSH1 0x40 DUP4 ADD DUP6 PUSH2 0x4C8A JUMP JUMPDEST PUSH2 0x4E09 PUSH1 0x60 DUP4 ADD DUP5 PUSH2 0x4B36 JUMP JUMPDEST DUP2 DUP2 SUB PUSH1 0x80 DUP4 ADD MSTORE PUSH2 0x4E1A DUP2 PUSH2 0x4B68 JUMP JUMPDEST SWAP1 POP SWAP6 SWAP5 POP POP POP POP POP JUMP JUMPDEST PUSH1 0x0 PUSH1 0x60 DUP3 ADD SWAP1 POP DUP2 DUP2 SUB PUSH1 0x0 DUP4 ADD MSTORE PUSH2 0x4E3F DUP2 DUP7 PUSH2 0x49EF JUMP JUMPDEST SWAP1 POP DUP2 DUP2 SUB PUSH1 0x20 DUP4 ADD MSTORE PUSH2 0x4E53 DUP2 DUP6 PUSH2 0x4A4D JUMP JUMPDEST SWAP1 POP DUP2 DUP2 SUB PUSH1 0x40 DUP4 ADD MSTORE PUSH2 0x4E67 DUP2 DUP5 PUSH2 0x4AAB JUMP JUMPDEST SWAP1 POP SWAP5 SWAP4 POP POP POP POP JUMP JUMPDEST PUSH1 0x0 PUSH1 0x20 DUP3 ADD SWAP1 POP PUSH2 0x4E86 PUSH1 0x0 DUP4 ADD DUP5 PUSH2 0x4B09 JUMP JUMPDEST SWAP3 SWAP2 POP POP JUMP JUMPDEST PUSH1 0x0 PUSH1 0x20 DUP3 ADD SWAP1 POP PUSH2 0x4EA1 PUSH1 0x0 DUP4 ADD DUP5 PUSH2 0x4B18 JUMP JUMPDEST SWAP3 SWAP2 POP POP JUMP JUMPDEST PUSH1 0x0 PUSH1 0x20 DUP3 ADD SWAP1 POP PUSH2 0x4EBC PUSH1 0x0 DUP4 ADD DUP5 PUSH2 0x4B27 JUMP JUMPDEST SWAP3 SWAP2 POP POP JUMP JUMPDEST PUSH1 0x0 PUSH2 0x140 DUP3 ADD SWAP1 POP PUSH2 0x4ED8 PUSH1 0x0 DUP4 ADD DUP14 PUSH2 0x4B27 JUMP JUMPDEST PUSH2 0x4EE5 PUSH1 0x20 DUP4 ADD DUP13 PUSH2 0x4C8A JUMP JUMPDEST PUSH2 0x4EF2 PUSH1 0x40 DUP4 ADD DUP12 PUSH2 0x4CB7 JUMP JUMPDEST PUSH2 0x4EFF PUSH1 0x60 DUP4 ADD DUP11 PUSH2 0x4C8A JUMP JUMPDEST PUSH2 0x4F0C PUSH1 0x80 DUP4 ADD DUP10 PUSH2 0x4C8A JUMP JUMPDEST PUSH2 0x4F19 PUSH1 0xA0 DUP4 ADD DUP9 PUSH2 0x4C8A JUMP JUMPDEST PUSH2 0x4F26 PUSH1 0xC0 DUP4 ADD DUP8 PUSH2 0x49E0 JUMP JUMPDEST PUSH2 0x4F33 PUSH1 0xE0 DUP4 ADD DUP7 PUSH2 0x49E0 JUMP JUMPDEST PUSH2 0x4F41 PUSH2 0x100 DUP4 ADD DUP6 PUSH2 0x49E0 JUMP JUMPDEST PUSH2 0x4F4F PUSH2 0x120 DUP4 ADD DUP5 PUSH2 0x49E0 JUMP JUMPDEST SWAP12 SWAP11 POP POP POP POP POP POP POP POP POP POP POP JUMP JUMPDEST PUSH1 0x0 PUSH1 0x20 DUP3 ADD SWAP1 POP DUP2 DUP2 SUB PUSH1 0x0 DUP4 ADD MSTORE PUSH2 0x4F77 DUP2 PUSH2 0x4B45 JUMP JUMPDEST SWAP1 POP SWAP2 SWAP1 POP JUMP JUMPDEST PUSH1 0x0 PUSH1 0x20 DUP3 ADD SWAP1 POP DUP2 DUP2 SUB PUSH1 0x0 DUP4 ADD MSTORE PUSH2 0x4F97 DUP2 PUSH2 0x4B8B JUMP JUMPDEST SWAP1 POP SWAP2 SWAP1 POP JUMP JUMPDEST PUSH1 0x0 PUSH1 0x20 DUP3 ADD SWAP1 POP DUP2 DUP2 SUB PUSH1 0x0 DUP4 ADD MSTORE PUSH2 0x4FB7 DUP2 PUSH2 0x4BAE JUMP JUMPDEST SWAP1 POP SWAP2 SWAP1 POP JUMP JUMPDEST PUSH1 0x0 PUSH1 0x20 DUP3 ADD SWAP1 POP DUP2 DUP2 SUB PUSH1 0x0 DUP4 ADD MSTORE PUSH2 0x4FD7 DUP2 PUSH2 0x4BD1 JUMP JUMPDEST SWAP1 POP SWAP2 SWAP1 POP JUMP JUMPDEST PUSH1 0x0 PUSH1 0x20 DUP3 ADD SWAP1 POP DUP2 DUP2 SUB PUSH1 0x0 DUP4 ADD MSTORE PUSH2 0x4FF7 DUP2 PUSH2 0x4BF4 JUMP JUMPDEST SWAP1 POP SWAP2 SWAP1 POP JUMP JUMPDEST PUSH1 0x0 PUSH1 0x20 DUP3 ADD SWAP1 POP DUP2 DUP2 SUB PUSH1 0x0 DUP4 ADD MSTORE PUSH2 0x5017 DUP2 PUSH2 0x4C17 JUMP JUMPDEST SWAP1 POP SWAP2 SWAP1 POP JUMP JUMPDEST PUSH1 0x0 PUSH1 0x20 DUP3 ADD SWAP1 POP DUP2 DUP2 SUB PUSH1 0x0 DUP4 ADD MSTORE PUSH2 0x5037 DUP2 PUSH2 0x4C3A JUMP JUMPDEST SWAP1 POP SWAP2 SWAP1 POP JUMP JUMPDEST PUSH1 0x0 PUSH1 0x20 DUP3 ADD SWAP1 POP PUSH2 0x5053 PUSH1 0x0 DUP4 ADD DUP5 PUSH2 0x4C8A JUMP JUMPDEST SWAP3 SWAP2 POP POP JUMP JUMPDEST PUSH1 0x0 PUSH1 0xA0 DUP3 ADD SWAP1 POP PUSH2 0x506E PUSH1 0x0 DUP4 ADD DUP9 PUSH2 0x4C8A JUMP JUMPDEST PUSH2 0x507B PUSH1 0x20 DUP4 ADD DUP8 PUSH2 0x4C8A JUMP JUMPDEST PUSH2 0x5088 PUSH1 0x40 DUP4 ADD DUP7 PUSH2 0x4C8A JUMP JUMPDEST PUSH2 0x5095 PUSH1 0x60 DUP4 ADD DUP6 PUSH2 0x4C8A JUMP JUMPDEST PUSH2 0x50A2 PUSH1 0x80 DUP4 ADD DUP5 PUSH2 0x4B27 JUMP JUMPDEST SWAP7 SWAP6 POP POP POP POP POP POP JUMP JUMPDEST PUSH1 0x0 PUSH1 0xC0 DUP3 ADD SWAP1 POP PUSH2 0x50C1 PUSH1 0x0 DUP4 ADD DUP10 PUSH2 0x4C8A JUMP JUMPDEST PUSH2 0x50CE PUSH1 0x20 DUP4 ADD DUP9 PUSH2 0x4C8A JUMP JUMPDEST PUSH2 0x50DB PUSH1 0x40 DUP4 ADD DUP8 PUSH2 0x4C8A JUMP JUMPDEST PUSH2 0x50E8 PUSH1 0x60 DUP4 ADD DUP7 PUSH2 0x4C8A JUMP JUMPDEST PUSH2 0x50F5 PUSH1 0x80 DUP4 ADD DUP6 PUSH2 0x4C8A JUMP JUMPDEST PUSH2 0x5102 PUSH1 0xA0 DUP4 ADD DUP5 PUSH2 0x4C6C JUMP JUMPDEST SWAP8 SWAP7 POP POP POP POP POP POP POP JUMP JUMPDEST PUSH1 0x0 PUSH1 0x80 DUP3 ADD SWAP1 POP PUSH2 0x5122 PUSH1 0x0 DUP4 ADD DUP8 PUSH2 0x4C8A JUMP JUMPDEST PUSH2 0x512F PUSH1 0x20 DUP4 ADD DUP7 PUSH2 0x4C8A JUMP JUMPDEST PUSH2 0x513C PUSH1 0x40 DUP4 ADD DUP6 PUSH2 0x4C8A JUMP JUMPDEST PUSH2 0x5149 PUSH1 0x60 DUP4 ADD DUP5 PUSH2 0x4C99 JUMP JUMPDEST SWAP6 SWAP5 POP POP POP POP POP JUMP JUMPDEST PUSH1 0x0 PUSH1 0x20 DUP3 ADD SWAP1 POP PUSH2 0x5167 PUSH1 0x0 DUP4 ADD DUP5 PUSH2 0x4C99 JUMP JUMPDEST SWAP3 SWAP2 POP POP JUMP JUMPDEST PUSH1 0x0 PUSH2 0x5177 PUSH2 0x5188 JUMP JUMPDEST SWAP1 POP PUSH2 0x5183 DUP3 DUP3 PUSH2 0x5568 JUMP JUMPDEST SWAP2 SWAP1 POP JUMP JUMPDEST PUSH1 0x0 PUSH1 0x40 MLOAD SWAP1 POP SWAP1 JUMP JUMPDEST PUSH1 0x0 PUSH8 0xFFFFFFFFFFFFFFFF DUP3 GT ISZERO PUSH2 0x51AD JUMPI PUSH2 0x51AC PUSH2 0x56CF JUMP JUMPDEST JUMPDEST PUSH1 0x20 DUP3 MUL SWAP1 POP PUSH1 0x20 DUP2 ADD SWAP1 POP SWAP2 SWAP1 POP JUMP JUMPDEST PUSH1 0x0 PUSH8 0xFFFFFFFFFFFFFFFF DUP3 GT ISZERO PUSH2 0x51D9 JUMPI PUSH2 0x51D8 PUSH2 0x56CF JUMP JUMPDEST JUMPDEST PUSH1 0x20 DUP3 MUL SWAP1 POP PUSH1 0x20 DUP2 ADD SWAP1 POP SWAP2 SWAP1 POP JUMP JUMPDEST PUSH1 0x0 PUSH8 0xFFFFFFFFFFFFFFFF DUP3 GT ISZERO PUSH2 0x5205 JUMPI PUSH2 0x5204 PUSH2 0x56CF JUMP JUMPDEST JUMPDEST PUSH1 0x20 DUP3 MUL SWAP1 POP PUSH1 0x20 DUP2 ADD SWAP1 POP SWAP2 SWAP1 POP JUMP JUMPDEST PUSH1 0x0 PUSH8 0xFFFFFFFFFFFFFFFF DUP3 GT ISZERO PUSH2 0x5231 JUMPI PUSH2 0x5230 PUSH2 0x56CF JUMP JUMPDEST JUMPDEST PUSH2 0x523A DUP3 PUSH2 0x5721 JUMP JUMPDEST SWAP1 POP PUSH1 0x20 DUP2 ADD SWAP1 POP SWAP2 SWAP1 POP JUMP JUMPDEST PUSH1 0x0 DUP2 SWAP1 POP PUSH1 0x20 DUP3 ADD SWAP1 POP SWAP2 SWAP1 POP JUMP JUMPDEST PUSH1 0x0 DUP2 SWAP1 POP PUSH1 0x20 DUP3 ADD SWAP1 POP SWAP2 SWAP1 POP JUMP JUMPDEST PUSH1 0x0 DUP2 SWAP1 POP PUSH1 0x20 DUP3 ADD SWAP1 POP SWAP2 SWAP1 POP JUMP JUMPDEST PUSH1 0x0 DUP2 MLOAD SWAP1 POP SWAP2 SWAP1 POP JUMP JUMPDEST PUSH1 0x0 DUP2 MLOAD SWAP1 POP SWAP2 SWAP1 POP JUMP JUMPDEST PUSH1 0x0 DUP2 MLOAD SWAP1 POP SWAP2 SWAP1 POP JUMP JUMPDEST PUSH1 0x0 PUSH1 0x20 DUP3 ADD SWAP1 POP SWAP2 SWAP1 POP JUMP JUMPDEST PUSH1 0x0 PUSH1 0x20 DUP3 ADD SWAP1 POP SWAP2 SWAP1 POP JUMP JUMPDEST PUSH1 0x0 PUSH1 0x20 DUP3 ADD SWAP1 POP SWAP2 SWAP1 POP JUMP JUMPDEST PUSH1 0x0 DUP3 DUP3 MSTORE PUSH1 0x20 DUP3 ADD SWAP1 POP SWAP3 SWAP2 POP POP JUMP JUMPDEST PUSH1 0x0 DUP3 DUP3 MSTORE PUSH1 0x20 DUP3 ADD SWAP1 POP SWAP3 SWAP2 POP POP JUMP JUMPDEST PUSH1 0x0 DUP3 DUP3 MSTORE PUSH1 0x20 DUP3 ADD SWAP1 POP SWAP3 SWAP2 POP POP JUMP JUMPDEST PUSH1 0x0 DUP3 DUP3 MSTORE PUSH1 0x20 DUP3 ADD SWAP1 POP SWAP3 SWAP2 POP POP JUMP JUMPDEST PUSH1 0x0 DUP3 DUP3 MSTORE PUSH1 0x20 DUP3 ADD SWAP1 POP SWAP3 SWAP2 POP POP JUMP JUMPDEST PUSH1 0x0 PUSH2 0x531F DUP3 PUSH2 0x54C6 JUMP JUMPDEST SWAP2 POP PUSH2 0x532A DUP4 PUSH2 0x54C6 JUMP JUMPDEST SWAP3 POP DUP3 PUSH32 0xFFFFFFFFFFFFFFFFFFFFFFFFFFFFFFFFFFFFFFFFFFFFFFFFFFFFFFFFFFFFFFFF SUB DUP3 GT ISZERO PUSH2 0x535F JUMPI PUSH2 0x535E PUSH2 0x5613 JUMP JUMPDEST JUMPDEST DUP3 DUP3 ADD SWAP1 POP SWAP3 SWAP2 POP POP JUMP JUMPDEST PUSH1 0x0 PUSH2 0x5375 DUP3 PUSH2 0x54C6 JUMP JUMPDEST SWAP2 POP PUSH2 0x5380 DUP4 PUSH2 0x54C6 JUMP JUMPDEST SWAP3 POP DUP3 PUSH2 0x5390 JUMPI PUSH2 0x538F PUSH2 0x5642 JUMP JUMPDEST JUMPDEST DUP3 DUP3 DIV SWAP1 POP SWAP3 SWAP2 POP POP JUMP JUMPDEST PUSH1 0x0 PUSH2 0x53A6 DUP3 PUSH2 0x54C6 JUMP JUMPDEST SWAP2 POP PUSH2 0x53B1 DUP4 PUSH2 0x54C6 JUMP JUMPDEST SWAP3 POP DUP2 PUSH32 0xFFFFFFFFFFFFFFFFFFFFFFFFFFFFFFFFFFFFFFFFFFFFFFFFFFFFFFFFFFFFFFFF DIV DUP4 GT DUP3 ISZERO ISZERO AND ISZERO PUSH2 0x53EA JUMPI PUSH2 0x53E9 PUSH2 0x5613 JUMP JUMPDEST JUMPDEST DUP3 DUP3 MUL SWAP1 POP SWAP3 SWAP2 POP POP JUMP JUMPDEST PUSH1 0x0 PUSH2 0x5400 DUP3 PUSH2 0x54C6 JUMP JUMPDEST SWAP2 POP PUSH2 0x540B DUP4 PUSH2 0x54C6 JUMP JUMPDEST SWAP3 POP DUP3 DUP3 LT ISZERO PUSH2 0x541E JUMPI PUSH2 0x541D PUSH2 0x5613 JUMP JUMPDEST JUMPDEST DUP3 DUP3 SUB SWAP1 POP SWAP3 SWAP2 POP POP JUMP JUMPDEST PUSH1 0x0 PUSH2 0x5434 DUP3 PUSH2 0x54A6 JUMP JUMPDEST SWAP1 POP SWAP2 SWAP1 POP JUMP JUMPDEST PUSH1 0x0 PUSH2 0x5446 DUP3 PUSH2 0x54A6 JUMP JUMPDEST SWAP1 POP SWAP2 SWAP1 POP JUMP JUMPDEST PUSH1 0x0 DUP2 ISZERO ISZERO SWAP1 POP SWAP2 SWAP1 POP JUMP JUMPDEST PUSH1 0x0 PUSH32 0xFFFFFFFF00000000000000000000000000000000000000000000000000000000 DUP3 AND SWAP1 POP SWAP2 SWAP1 POP JUMP JUMPDEST PUSH1 0x0 DUP2 SWAP1 POP PUSH2 0x5493 DUP3 PUSH2 0x5912 JUMP JUMPDEST SWAP2 SWAP1 POP JUMP JUMPDEST PUSH1 0x0 PUSH2 0xFFFF DUP3 AND SWAP1 POP SWAP2 SWAP1 POP JUMP JUMPDEST PUSH1 0x0 PUSH20 0xFFFFFFFFFFFFFFFFFFFFFFFFFFFFFFFFFFFFFFFF DUP3 AND SWAP1 POP SWAP2 SWAP1 POP JUMP JUMPDEST PUSH1 0x0 DUP2 SWAP1 POP SWAP2 SWAP1 POP JUMP JUMPDEST PUSH1 0x0 PUSH4 0xFFFFFFFF DUP3 AND SWAP1 POP SWAP2 SWAP1 POP JUMP JUMPDEST PUSH1 0x0 PUSH1 0xFF DUP3 AND SWAP1 POP SWAP2 SWAP1 POP JUMP JUMPDEST PUSH1 0x0 PUSH2 0x54F8 DUP3 PUSH2 0x5523 JUMP JUMPDEST SWAP1 POP SWAP2 SWAP1 POP JUMP JUMPDEST PUSH1 0x0 PUSH2 0x550A DUP3 PUSH2 0x5485 JUMP JUMPDEST SWAP1 POP SWAP2 SWAP1 POP JUMP JUMPDEST PUSH1 0x0 PUSH2 0x551C DUP3 PUSH2 0x54C6 JUMP JUMPDEST SWAP1 POP SWAP2 SWAP1 POP JUMP JUMPDEST PUSH1 0x0 PUSH2 0x552E DUP3 PUSH2 0x5535 JUMP JUMPDEST SWAP1 POP SWAP2 SWAP1 POP JUMP JUMPDEST PUSH1 0x0 PUSH2 0x5540 DUP3 PUSH2 0x54A6 JUMP JUMPDEST SWAP1 POP SWAP2 SWAP1 POP JUMP JUMPDEST PUSH1 0x0 PUSH2 0x5552 DUP3 PUSH2 0x5498 JUMP JUMPDEST SWAP1 POP SWAP2 SWAP1 POP JUMP JUMPDEST DUP3 DUP2 DUP4 CALLDATACOPY PUSH1 0x0 DUP4 DUP4 ADD MSTORE POP POP POP JUMP JUMPDEST PUSH2 0x5571 DUP3 PUSH2 0x5721 JUMP JUMPDEST DUP2 ADD DUP2 DUP2 LT PUSH8 0xFFFFFFFFFFFFFFFF DUP3 GT OR ISZERO PUSH2 0x5590 JUMPI PUSH2 0x558F PUSH2 0x56CF JUMP JUMPDEST JUMPDEST DUP1 PUSH1 0x40 MSTORE POP POP POP JUMP JUMPDEST PUSH1 0x0 PUSH2 0x55A4 DUP3 PUSH2 0x54C6 JUMP JUMPDEST SWAP2 POP PUSH32 0xFFFFFFFFFFFFFFFFFFFFFFFFFFFFFFFFFFFFFFFFFFFFFFFFFFFFFFFFFFFFFFFF DUP3 EQ ISZERO PUSH2 0x55D7 JUMPI PUSH2 0x55D6 PUSH2 0x5613 JUMP JUMPDEST JUMPDEST PUSH1 0x1 DUP3 ADD SWAP1 POP SWAP2 SWAP1 POP JUMP JUMPDEST PUSH1 0x0 PUSH2 0x55ED DUP3 PUSH2 0x54C6 JUMP JUMPDEST SWAP2 POP PUSH2 0x55F8 DUP4 PUSH2 0x54C6 JUMP JUMPDEST SWAP3 POP DUP3 PUSH2 0x5608 JUMPI PUSH2 0x5607 PUSH2 0x5642 JUMP JUMPDEST JUMPDEST DUP3 DUP3 MOD SWAP1 POP SWAP3 SWAP2 POP POP JUMP JUMPDEST PUSH32 0x4E487B7100000000000000000000000000000000000000000000000000000000 PUSH1 0x0 MSTORE PUSH1 0x11 PUSH1 0x4 MSTORE PUSH1 0x24 PUSH1 0x0 REVERT JUMPDEST PUSH32 0x4E487B7100000000000000000000000000000000000000000000000000000000 PUSH1 0x0 MSTORE PUSH1 0x12 PUSH1 0x4 MSTORE PUSH1 0x24 PUSH1 0x0 REVERT JUMPDEST PUSH32 0x4E487B7100000000000000000000000000000000000000000000000000000000 PUSH1 0x0 MSTORE PUSH1 0x21 PUSH1 0x4 MSTORE PUSH1 0x24 PUSH1 0x0 REVERT JUMPDEST PUSH32 0x4E487B7100000000000000000000000000000000000000000000000000000000 PUSH1 0x0 MSTORE PUSH1 0x32 PUSH1 0x4 MSTORE PUSH1 0x24 PUSH1 0x0 REVERT JUMPDEST PUSH32 0x4E487B7100000000000000000000000000000000000000000000000000000000 PUSH1 0x0 MSTORE PUSH1 0x41 PUSH1 0x4 MSTORE PUSH1 0x24 PUSH1 0x0 REVERT JUMPDEST PUSH1 0x0 DUP1 REVERT JUMPDEST PUSH1 0x0 DUP1 REVERT JUMPDEST PUSH1 0x0 DUP1 REVERT JUMPDEST PUSH1 0x0 DUP1 REVERT JUMPDEST PUSH1 0x0 DUP1 REVERT JUMPDEST PUSH1 0x0 DUP1 REVERT JUMPDEST PUSH1 0x0 DUP1 REVERT JUMPDEST PUSH1 0x0 PUSH1 0x1F NOT PUSH1 0x1F DUP4 ADD AND SWAP1 POP SWAP2 SWAP1 POP JUMP JUMPDEST PUSH32 0x4F776E61626C653A206E6577206F776E657220697320746865207A65726F2061 PUSH1 0x0 DUP3 ADD MSTORE PUSH32 0x6464726573730000000000000000000000000000000000000000000000000000 PUSH1 0x20 DUP3 ADD MSTORE POP JUMP JUMPDEST PUSH32 0x3078303000000000000000000000000000000000000000000000000000000000 PUSH1 0x0 DUP3 ADD MSTORE POP JUMP JUMPDEST PUSH32 0x5472616E73666572206F6620746F6B656E7320746F2072656365697665722066 PUSH1 0x0 DUP3 ADD MSTORE PUSH32 0x61696C6564000000000000000000000000000000000000000000000000000000 PUSH1 0x20 DUP3 ADD MSTORE POP JUMP JUMPDEST PUSH32 0x546F6B656E20696E666F732070726F76696465642061726520696E76616C6964 PUSH1 0x0 DUP3 ADD MSTORE POP JUMP JUMPDEST PUSH32 0x5472616E73666572206F662045544820746F207265636569766572206661696C PUSH1 0x0 DUP3 ADD MSTORE PUSH32 0x6564000000000000000000000000000000000000000000000000000000000000 PUSH1 0x20 DUP3 ADD MSTORE POP JUMP JUMPDEST PUSH32 0x5472616E73666572206F6620746F6B656E7320746F2053746174657220666169 PUSH1 0x0 DUP3 ADD MSTORE PUSH32 0x6C65640000000000000000000000000000000000000000000000000000000000 PUSH1 0x20 DUP3 ADD MSTORE POP JUMP JUMPDEST PUSH32 0x4F776E61626C653A2063616C6C6572206973206E6F7420746865206F776E6572 PUSH1 0x0 DUP3 ADD MSTORE POP JUMP JUMPDEST PUSH32 0x5472616E73666572206F662045544820746F20537461746572206661696C6564 PUSH1 0x0 DUP3 ADD MSTORE POP JUMP JUMPDEST PUSH1 0x5 DUP2 LT PUSH2 0x5923 JUMPI PUSH2 0x5922 PUSH2 0x5671 JUMP JUMPDEST JUMPDEST POP JUMP JUMPDEST PUSH2 0x592F DUP2 PUSH2 0x5429 JUMP JUMPDEST DUP2 EQ PUSH2 0x593A JUMPI PUSH1 0x0 DUP1 REVERT JUMPDEST POP JUMP JUMPDEST PUSH2 0x5946 DUP2 PUSH2 0x543B JUMP JUMPDEST DUP2 EQ PUSH2 0x5951 JUMPI PUSH1 0x0 DUP1 REVERT JUMPDEST POP JUMP JUMPDEST PUSH2 0x595D DUP2 PUSH2 0x544D JUMP JUMPDEST DUP2 EQ PUSH2 0x5968 JUMPI PUSH1 0x0 DUP1 REVERT JUMPDEST POP JUMP JUMPDEST PUSH2 0x5974 DUP2 PUSH2 0x5459 JUMP JUMPDEST DUP2 EQ PUSH2 0x597F JUMPI PUSH1 0x0 DUP1 REVERT JUMPDEST POP JUMP JUMPDEST PUSH2 0x598B DUP2 PUSH2 0x5498 JUMP JUMPDEST DUP2 EQ PUSH2 0x5996 JUMPI PUSH1 0x0 DUP1 REVERT JUMPDEST POP JUMP JUMPDEST PUSH2 0x59A2 DUP2 PUSH2 0x54C6 JUMP JUMPDEST DUP2 EQ PUSH2 0x59AD JUMPI PUSH1 0x0 DUP1 REVERT JUMPDEST POP JUMP JUMPDEST PUSH2 0x59B9 DUP2 PUSH2 0x54D0 JUMP JUMPDEST DUP2 EQ PUSH2 0x59C4 JUMPI PUSH1 0x0 DUP1 REVERT JUMPDEST POP JUMP JUMPDEST PUSH2 0x59D0 DUP2 PUSH2 0x54E0 JUMP JUMPDEST DUP2 EQ PUSH2 0x59DB JUMPI PUSH1 0x0 DUP1 REVERT JUMPDEST POP JUMP INVALID LOG2 PUSH5 0x6970667358 0x22 SLT KECCAK256 0xC GASPRICE CALLDATALOAD 0xF CALL 0xC8 0x4F 0xE5 0xEB 0xA5 CALLER CALLER SWAP6 SWAP12 0xF PUSH32 0xCCFED1444433DC261AFB064497CCA74364736F6C634300080700330000000000 "
		},
		"gasEstimates": {
			"creation": {
				"codeDepositCost": "4612000",
				"executionCost": "infinite",
				"totalCost": "infinite"
			},
			"external": {
				"approveLoan(uint256)": "infinite",
				"approveLoanWithPool(uint256,uint256)": "infinite",
				"cancelLoan(uint256)": "infinite",
				"createLoan((address,address[],uint256,uint256,uint256,uint256[],uint16,uint8[]))": "infinite",
				"discountsHandler()": "2603",
				"editLoan(uint256,uint256,uint16,address,uint256,uint256)": "infinite",
				"id()": "2518",
				"interestRate()": "2518",
				"interestRateToStater()": "2474",
				"lackOfPayment(uint256)": "infinite",
				"lenderFee()": "2561",
				"loanControlPanels(uint256)": "infinite",
				"loanFeesHandler(uint256)": "infinite",
				"loanHandler()": "2625",
				"loans(uint256)": "infinite",
				"ltv()": "2541",
				"onERC1155BatchReceived(address,address,uint256[],uint256[],bytes)": "infinite",
				"onERC1155Received(address,address,uint256,uint256,bytes)": "infinite",
				"onERC721Received(address,address,uint256,bytes)": "infinite",
				"owner()": "2634",
				"payLoan(uint256,uint256)": "infinite",
				"poolHandler()": "2605",
				"promissoryHandler()": "2625",
				"renounceOwnership()": "30419",
				"setGlobalVariables((uint256,uint256,uint256,uint32),(address,address,address,address))": "infinite",
				"supportsInterface(bytes4)": "774",
				"terminateLoan(uint256)": "infinite",
				"transferItems(address,address,address[],uint256[],uint8[])": "infinite",
				"transferOwnership(address)": "30811",
				"transferTokens(address,address,address,uint256,uint256)": "infinite",
				"updateLoan(uint256,(uint256,uint256,uint256,uint32),(address,address,address,address))": "infinite"
			},
			"internal": {
				"approveLoanCoreMechanism(uint256)": "infinite"
			}
		},
		"methodIdentifiers": {
			"approveLoan(uint256)": "aadc1ac1",
			"approveLoanWithPool(uint256,uint256)": "67a00c55",
			"cancelLoan(uint256)": "bdbfa3de",
			"createLoan((address,address[],uint256,uint256,uint256,uint256[],uint16,uint8[]))": "7b878d42",
			"discountsHandler()": "d442ce09",
			"editLoan(uint256,uint256,uint16,address,uint256,uint256)": "4b69cd6c",
			"id()": "af640d0f",
			"interestRate()": "7c3a00fd",
			"interestRateToStater()": "8f829275",
			"lackOfPayment(uint256)": "44ff78c7",
			"lenderFee()": "8ca83f07",
			"loanControlPanels(uint256)": "2d990756",
			"loanFeesHandler(uint256)": "8395f083",
			"loanHandler()": "b2b71a00",
			"loans(uint256)": "e1ec3c68",
			"ltv()": "6fb49d73",
			"onERC1155BatchReceived(address,address,uint256[],uint256[],bytes)": "bc197c81",
			"onERC1155Received(address,address,uint256,uint256,bytes)": "f23a6e61",
			"onERC721Received(address,address,uint256,bytes)": "150b7a02",
			"owner()": "8da5cb5b",
			"payLoan(uint256,uint256)": "89306e61",
			"poolHandler()": "2a607841",
			"promissoryHandler()": "d9cbb52d",
			"renounceOwnership()": "715018a6",
			"setGlobalVariables((uint256,uint256,uint256,uint32),(address,address,address,address))": "2e8fa54b",
			"supportsInterface(bytes4)": "01ffc9a7",
			"terminateLoan(uint256)": "7fb9fe3d",
			"transferItems(address,address,address[],uint256[],uint8[])": "407299d7",
			"transferOwnership(address)": "f2fde38b",
			"transferTokens(address,address,address,uint256,uint256)": "2e3f4a5d",
			"updateLoan(uint256,(uint256,uint256,uint256,uint32),(address,address,address,address))": "f5076e78"
		}
	},
	"abi": [
		{
			"inputs": [
				{
					"internalType": "address",
					"name": "_loanHandler",
					"type": "address"
				},
				{
					"internalType": "address",
					"name": "_promissoryHandler",
					"type": "address"
				},
				{
					"internalType": "address",
					"name": "_discountsHandler",
					"type": "address"
				},
				{
					"internalType": "address",
					"name": "_poolHandler",
					"type": "address"
				}
			],
			"stateMutability": "nonpayable",
			"type": "constructor"
		},
		{
			"anonymous": false,
			"inputs": [
				{
					"indexed": true,
					"internalType": "address",
					"name": "currency",
					"type": "address"
				},
				{
					"indexed": true,
					"internalType": "uint256",
					"name": "loanId",
					"type": "uint256"
				},
				{
					"indexed": false,
					"internalType": "uint256",
					"name": "loanAmount",
					"type": "uint256"
				},
				{
					"indexed": false,
					"internalType": "uint256",
					"name": "amountDue",
					"type": "uint256"
				},
				{
					"indexed": false,
					"internalType": "uint256",
					"name": "installmentAmount",
					"type": "uint256"
				},
				{
					"indexed": false,
					"internalType": "uint256",
					"name": "assetsValue",
					"type": "uint256"
				},
				{
					"indexed": false,
					"internalType": "uint256",
					"name": "frequencyTime",
					"type": "uint256"
				},
				{
					"indexed": false,
					"internalType": "uint256",
					"name": "frequencyTimeUnit",
					"type": "uint256"
				}
			],
			"name": "EditLoan",
			"type": "event"
		},
		{
			"anonymous": false,
			"inputs": [
				{
					"indexed": true,
					"internalType": "address",
					"name": "requester",
					"type": "address"
				},
				{
					"indexed": true,
					"internalType": "uint256",
					"name": "loanId",
					"type": "uint256"
				},
				{
					"indexed": false,
					"internalType": "enum LendingCore.Status",
					"name": "status",
					"type": "uint8"
				}
			],
			"name": "ItemsWithdrawn",
			"type": "event"
		},
		{
			"anonymous": false,
			"inputs": [
				{
					"indexed": true,
					"internalType": "address",
					"name": "lender",
					"type": "address"
				},
				{
					"indexed": true,
					"internalType": "uint256",
					"name": "loanId",
					"type": "uint256"
				},
				{
					"indexed": false,
					"internalType": "uint256",
					"name": "loanPaymentEnd",
					"type": "uint256"
				}
			],
			"name": "LoanApproved",
			"type": "event"
		},
		{
			"anonymous": false,
			"inputs": [
				{
					"indexed": true,
					"internalType": "uint256",
					"name": "loanId",
					"type": "uint256"
				}
			],
			"name": "LoanCancelled",
			"type": "event"
		},
		{
			"anonymous": false,
			"inputs": [
				{
					"indexed": true,
					"internalType": "uint256",
					"name": "loanId",
					"type": "uint256"
				},
				{
					"indexed": false,
					"internalType": "uint256",
					"name": "installmentAmount",
					"type": "uint256"
				},
				{
					"indexed": false,
					"internalType": "uint256",
					"name": "amountPaidAsInstallmentToLender",
					"type": "uint256"
				},
				{
					"indexed": false,
					"internalType": "uint256",
					"name": "interestPerInstallement",
					"type": "uint256"
				},
				{
					"indexed": false,
					"internalType": "uint256",
					"name": "interestToStaterPerInstallement",
					"type": "uint256"
				},
				{
					"indexed": false,
					"internalType": "enum LendingCore.Status",
					"name": "status",
					"type": "uint8"
				}
			],
			"name": "LoanPayment",
			"type": "event"
		},
		{
			"anonymous": false,
			"inputs": [
				{
					"indexed": true,
					"internalType": "address",
					"name": "owner",
					"type": "address"
				},
				{
					"indexed": true,
					"internalType": "address",
					"name": "currency",
					"type": "address"
				},
				{
					"indexed": true,
					"internalType": "uint256",
					"name": "loanId",
					"type": "uint256"
				},
				{
					"indexed": false,
					"internalType": "address[]",
					"name": "nftAddressArray",
					"type": "address[]"
				},
				{
					"indexed": false,
					"internalType": "uint256[]",
					"name": "nftTokenIdArray",
					"type": "uint256[]"
				},
				{
					"indexed": false,
					"internalType": "uint8[]",
					"name": "nftTokenTypeArray",
					"type": "uint8[]"
				}
			],
			"name": "NewLoan",
			"type": "event"
		},
		{
			"anonymous": false,
			"inputs": [
				{
					"indexed": true,
					"internalType": "address",
					"name": "previousOwner",
					"type": "address"
				},
				{
					"indexed": true,
					"internalType": "address",
					"name": "newOwner",
					"type": "address"
				}
			],
			"name": "OwnershipTransferred",
			"type": "event"
		},
		{
			"inputs": [
				{
					"internalType": "uint256",
					"name": "loanId",
					"type": "uint256"
				}
			],
			"name": "approveLoan",
			"outputs": [],
			"stateMutability": "payable",
			"type": "function"
		},
		{
			"inputs": [
				{
					"internalType": "uint256",
					"name": "loanId",
					"type": "uint256"
				},
				{
					"internalType": "uint256",
					"name": "poolId",
					"type": "uint256"
				}
			],
			"name": "approveLoanWithPool",
			"outputs": [],
			"stateMutability": "payable",
			"type": "function"
		},
		{
			"inputs": [
				{
					"internalType": "uint256",
					"name": "loanId",
					"type": "uint256"
				}
			],
			"name": "cancelLoan",
			"outputs": [],
			"stateMutability": "nonpayable",
			"type": "function"
		},
		{
			"inputs": [
				{
					"components": [
						{
							"internalType": "address",
							"name": "currency",
							"type": "address"
						},
						{
							"internalType": "address[]",
							"name": "nftAddressArray",
							"type": "address[]"
						},
						{
							"internalType": "uint256",
							"name": "loanAmount",
							"type": "uint256"
						},
						{
							"internalType": "uint256",
							"name": "installmentTime",
							"type": "uint256"
						},
						{
							"internalType": "uint256",
							"name": "assetsValue",
							"type": "uint256"
						},
						{
							"internalType": "uint256[]",
							"name": "nftTokenIdArray",
							"type": "uint256[]"
						},
						{
							"internalType": "uint16",
							"name": "nrOfInstallments",
							"type": "uint16"
						},
						{
							"internalType": "uint8[]",
							"name": "nftTokenTypeArray",
							"type": "uint8[]"
						}
					],
					"internalType": "struct Params.CreateLoanParams",
					"name": "loan",
					"type": "tuple"
				}
			],
			"name": "createLoan",
			"outputs": [],
			"stateMutability": "nonpayable",
			"type": "function"
		},
		{
			"inputs": [],
			"name": "discountsHandler",
			"outputs": [
				{
					"internalType": "address",
					"name": "",
					"type": "address"
				}
			],
			"stateMutability": "view",
			"type": "function"
		},
		{
			"inputs": [
				{
					"internalType": "uint256",
					"name": "loanId",
					"type": "uint256"
				},
				{
					"internalType": "uint256",
					"name": "loanAmount",
					"type": "uint256"
				},
				{
					"internalType": "uint16",
					"name": "nrOfInstallments",
					"type": "uint16"
				},
				{
					"internalType": "address",
					"name": "currency",
					"type": "address"
				},
				{
					"internalType": "uint256",
					"name": "assetsValue",
					"type": "uint256"
				},
				{
					"internalType": "uint256",
					"name": "installmentTime",
					"type": "uint256"
				}
			],
			"name": "editLoan",
			"outputs": [],
			"stateMutability": "nonpayable",
			"type": "function"
		},
		{
			"inputs": [],
			"name": "id",
			"outputs": [
				{
					"internalType": "uint256",
					"name": "",
					"type": "uint256"
				}
			],
			"stateMutability": "view",
			"type": "function"
		},
		{
			"inputs": [],
			"name": "interestRate",
			"outputs": [
				{
					"internalType": "uint256",
					"name": "",
					"type": "uint256"
				}
			],
			"stateMutability": "view",
			"type": "function"
		},
		{
			"inputs": [],
			"name": "interestRateToStater",
			"outputs": [
				{
					"internalType": "uint256",
					"name": "",
					"type": "uint256"
				}
			],
			"stateMutability": "view",
			"type": "function"
		},
		{
			"inputs": [
				{
					"internalType": "uint256",
					"name": "loanId",
					"type": "uint256"
				}
			],
			"name": "lackOfPayment",
			"outputs": [
				{
					"internalType": "bool",
					"name": "",
					"type": "bool"
				}
			],
			"stateMutability": "view",
			"type": "function"
		},
		{
			"inputs": [],
			"name": "lenderFee",
			"outputs": [
				{
					"internalType": "uint32",
					"name": "",
					"type": "uint32"
				}
			],
			"stateMutability": "view",
			"type": "function"
		},
		{
			"inputs": [
				{
					"internalType": "uint256",
					"name": "",
					"type": "uint256"
				}
			],
			"name": "loanControlPanels",
			"outputs": [
				{
					"internalType": "enum LendingCore.Status",
					"name": "status",
					"type": "uint8"
				},
				{
					"internalType": "uint256",
					"name": "poolId",
					"type": "uint256"
				},
				{
					"internalType": "uint8",
					"name": "defaultingLimit",
					"type": "uint8"
				},
				{
					"internalType": "uint256",
					"name": "installmentAmount",
					"type": "uint256"
				},
				{
					"internalType": "uint256",
					"name": "amountDue",
					"type": "uint256"
				},
				{
					"internalType": "uint256",
					"name": "paidAmount",
					"type": "uint256"
				},
				{
					"internalType": "address",
					"name": "loanHandler",
					"type": "address"
				},
				{
					"internalType": "address",
					"name": "promissoryHandler",
					"type": "address"
				},
				{
					"internalType": "address",
					"name": "discountsHandler",
					"type": "address"
				},
				{
					"internalType": "address",
					"name": "poolHandler",
					"type": "address"
				}
			],
			"stateMutability": "view",
			"type": "function"
		},
		{
			"inputs": [
				{
					"internalType": "uint256",
					"name": "",
					"type": "uint256"
				}
			],
			"name": "loanFeesHandler",
			"outputs": [
				{
					"internalType": "uint256",
					"name": "ltv",
					"type": "uint256"
				},
				{
					"internalType": "uint256",
					"name": "interestRate",
					"type": "uint256"
				},
				{
					"internalType": "uint256",
					"name": "interestRateToStater",
					"type": "uint256"
				},
				{
					"internalType": "uint32",
					"name": "lenderFee",
					"type": "uint32"
				}
			],
			"stateMutability": "view",
			"type": "function"
		},
		{
			"inputs": [],
			"name": "loanHandler",
			"outputs": [
				{
					"internalType": "address",
					"name": "",
					"type": "address"
				}
			],
			"stateMutability": "view",
			"type": "function"
		},
		{
			"inputs": [
				{
					"internalType": "uint256",
					"name": "",
					"type": "uint256"
				}
			],
			"name": "loans",
			"outputs": [
				{
					"internalType": "address payable",
					"name": "borrower",
					"type": "address"
				},
				{
					"internalType": "address payable",
					"name": "lender",
					"type": "address"
				},
				{
					"internalType": "address",
					"name": "currency",
					"type": "address"
				},
				{
					"internalType": "uint256",
					"name": "installmentTime",
					"type": "uint256"
				},
				{
					"internalType": "uint256",
					"name": "nrOfPayments",
					"type": "uint256"
				},
				{
					"internalType": "uint256",
					"name": "loanAmount",
					"type": "uint256"
				},
				{
					"internalType": "uint256",
					"name": "assetsValue",
					"type": "uint256"
				},
				{
					"internalType": "uint16",
					"name": "nrOfInstallments",
					"type": "uint16"
				}
			],
			"stateMutability": "view",
			"type": "function"
		},
		{
			"inputs": [],
			"name": "ltv",
			"outputs": [
				{
					"internalType": "uint256",
					"name": "",
					"type": "uint256"
				}
			],
			"stateMutability": "view",
			"type": "function"
		},
		{
			"inputs": [
				{
					"internalType": "address",
					"name": "",
					"type": "address"
				},
				{
					"internalType": "address",
					"name": "",
					"type": "address"
				},
				{
					"internalType": "uint256[]",
					"name": "",
					"type": "uint256[]"
				},
				{
					"internalType": "uint256[]",
					"name": "",
					"type": "uint256[]"
				},
				{
					"internalType": "bytes",
					"name": "",
					"type": "bytes"
				}
			],
			"name": "onERC1155BatchReceived",
			"outputs": [
				{
					"internalType": "bytes4",
					"name": "",
					"type": "bytes4"
				}
			],
			"stateMutability": "nonpayable",
			"type": "function"
		},
		{
			"inputs": [
				{
					"internalType": "address",
					"name": "",
					"type": "address"
				},
				{
					"internalType": "address",
					"name": "",
					"type": "address"
				},
				{
					"internalType": "uint256",
					"name": "",
					"type": "uint256"
				},
				{
					"internalType": "uint256",
					"name": "",
					"type": "uint256"
				},
				{
					"internalType": "bytes",
					"name": "",
					"type": "bytes"
				}
			],
			"name": "onERC1155Received",
			"outputs": [
				{
					"internalType": "bytes4",
					"name": "",
					"type": "bytes4"
				}
			],
			"stateMutability": "nonpayable",
			"type": "function"
		},
		{
			"inputs": [
				{
					"internalType": "address",
					"name": "",
					"type": "address"
				},
				{
					"internalType": "address",
					"name": "",
					"type": "address"
				},
				{
					"internalType": "uint256",
					"name": "",
					"type": "uint256"
				},
				{
					"internalType": "bytes",
					"name": "",
					"type": "bytes"
				}
			],
			"name": "onERC721Received",
			"outputs": [
				{
					"internalType": "bytes4",
					"name": "",
					"type": "bytes4"
				}
			],
			"stateMutability": "nonpayable",
			"type": "function"
		},
		{
			"inputs": [],
			"name": "owner",
			"outputs": [
				{
					"internalType": "address",
					"name": "",
					"type": "address"
				}
			],
			"stateMutability": "view",
			"type": "function"
		},
		{
			"inputs": [
				{
					"internalType": "uint256",
					"name": "loanId",
					"type": "uint256"
				},
				{
					"internalType": "uint256",
					"name": "amount",
					"type": "uint256"
				}
			],
			"name": "payLoan",
			"outputs": [],
			"stateMutability": "payable",
			"type": "function"
		},
		{
			"inputs": [],
			"name": "poolHandler",
			"outputs": [
				{
					"internalType": "address",
					"name": "",
					"type": "address"
				}
			],
			"stateMutability": "view",
			"type": "function"
		},
		{
			"inputs": [],
			"name": "promissoryHandler",
			"outputs": [
				{
					"internalType": "address",
					"name": "",
					"type": "address"
				}
			],
			"stateMutability": "view",
			"type": "function"
		},
		{
			"inputs": [],
			"name": "renounceOwnership",
			"outputs": [],
			"stateMutability": "nonpayable",
			"type": "function"
		},
		{
			"inputs": [
				{
					"components": [
						{
							"internalType": "uint256",
							"name": "ltv",
							"type": "uint256"
						},
						{
							"internalType": "uint256",
							"name": "interestRate",
							"type": "uint256"
						},
						{
							"internalType": "uint256",
							"name": "interestRateToStater",
							"type": "uint256"
						},
						{
							"internalType": "uint32",
							"name": "lenderFee",
							"type": "uint32"
						}
					],
					"internalType": "struct LendingCore.LoanFeesHandler",
					"name": "feesHandler",
					"type": "tuple"
				},
				{
					"components": [
						{
							"internalType": "address",
							"name": "loanHandler",
							"type": "address"
						},
						{
							"internalType": "address",
							"name": "promissoryHandler",
							"type": "address"
						},
						{
							"internalType": "address",
							"name": "discountsHandler",
							"type": "address"
						},
						{
							"internalType": "address",
							"name": "poolHandler",
							"type": "address"
						}
					],
					"internalType": "struct Params.Handlers",
					"name": "handlers",
					"type": "tuple"
				}
			],
			"name": "setGlobalVariables",
			"outputs": [],
			"stateMutability": "nonpayable",
			"type": "function"
		},
		{
			"inputs": [
				{
					"internalType": "bytes4",
					"name": "interfaceId",
					"type": "bytes4"
				}
			],
			"name": "supportsInterface",
			"outputs": [
				{
					"internalType": "bool",
					"name": "",
					"type": "bool"
				}
			],
			"stateMutability": "view",
			"type": "function"
		},
		{
			"inputs": [
				{
					"internalType": "uint256",
					"name": "loanId",
					"type": "uint256"
				}
			],
			"name": "terminateLoan",
			"outputs": [],
			"stateMutability": "nonpayable",
			"type": "function"
		},
		{
			"inputs": [
				{
					"internalType": "address",
					"name": "from",
					"type": "address"
				},
				{
					"internalType": "address",
					"name": "to",
					"type": "address"
				},
				{
					"internalType": "address[]",
					"name": "nftAddressArray",
					"type": "address[]"
				},
				{
					"internalType": "uint256[]",
					"name": "nftTokenIdArray",
					"type": "uint256[]"
				},
				{
					"internalType": "uint8[]",
					"name": "nftTokenTypeArray",
					"type": "uint8[]"
				}
			],
			"name": "transferItems",
			"outputs": [],
			"stateMutability": "nonpayable",
			"type": "function"
		},
		{
			"inputs": [
				{
					"internalType": "address",
					"name": "newOwner",
					"type": "address"
				}
			],
			"name": "transferOwnership",
			"outputs": [],
			"stateMutability": "nonpayable",
			"type": "function"
		},
		{
			"inputs": [
				{
					"internalType": "address",
					"name": "from",
					"type": "address"
				},
				{
					"internalType": "address payable",
					"name": "to",
					"type": "address"
				},
				{
					"internalType": "address",
					"name": "currency",
					"type": "address"
				},
				{
					"internalType": "uint256",
					"name": "qty1",
					"type": "uint256"
				},
				{
					"internalType": "uint256",
					"name": "qty2",
					"type": "uint256"
				}
			],
			"name": "transferTokens",
			"outputs": [],
			"stateMutability": "nonpayable",
			"type": "function"
		},
		{
			"inputs": [
				{
					"internalType": "uint256",
					"name": "loanId",
					"type": "uint256"
				},
				{
					"components": [
						{
							"internalType": "uint256",
							"name": "ltv",
							"type": "uint256"
						},
						{
							"internalType": "uint256",
							"name": "interestRate",
							"type": "uint256"
						},
						{
							"internalType": "uint256",
							"name": "interestRateToStater",
							"type": "uint256"
						},
						{
							"internalType": "uint32",
							"name": "lenderFee",
							"type": "uint32"
						}
					],
					"internalType": "struct LendingCore.LoanFeesHandler",
					"name": "feesHandler",
					"type": "tuple"
				},
				{
					"components": [
						{
							"internalType": "address",
							"name": "loanHandler",
							"type": "address"
						},
						{
							"internalType": "address",
							"name": "promissoryHandler",
							"type": "address"
						},
						{
							"internalType": "address",
							"name": "discountsHandler",
							"type": "address"
						},
						{
							"internalType": "address",
							"name": "poolHandler",
							"type": "address"
						}
					],
					"internalType": "struct Params.Handlers",
					"name": "handlers",
					"type": "tuple"
				}
			],
			"name": "updateLoan",
			"outputs": [],
			"stateMutability": "nonpayable",
			"type": "function"
		}
	]
}