{
	"data": {
		"bytecode": {
			"linkReferences": {},
			"object": "60806040526001600955670429d069189e0000600d553480156200002257600080fd5b5062000037620000316200003d565b62000041565b62000091565b3390565b600080546001600160a01b038381166001600160a01b0319831681178455604051919092169283917f8be0079c531659141344cd1fd0a4f28419497f9722a3daafe3b4186f6b6457e09190a35050565b61322e80620000a16000396000f3fe6080604052600436106101cd5760003560e01c80638395f083116100f7578063b2b71a0011610095578063d9cbb52d11610064578063d9cbb52d146104f1578063e1ec3c6814610506578063f23a6e611461053a578063f2fde38b1461055a576101cd565b8063b2b71a0014610487578063bc197c811461049c578063bdbfa3de146104bc578063d442ce09146104dc576101cd565b80638da5cb5b116100d15780638da5cb5b146104355780638f8292751461044a578063aadc1ac11461045f578063af640d0f14610472576101cd565b80638395f083146103d057806389306e61146104005780638ca83f0714610413576101cd565b80634b69cd6c1161016f578063715018a61161013e578063715018a6146103665780637b878d421461037b5780637c3a00fd1461039b5780637fb9fe3d146103b0576101cd565b80634b69cd6c146102fc578063537d2a2b1461031c57806367a00c551461033e5780636fb49d7314610351576101cd565b80632d990756116101ab5780632d990756146102575780632e3f4a5d1461028d578063407299d7146102af57806344ff78c7146102cf576101cd565b806301ffc9a7146101d2578063150b7a02146102085780632a60784114610235575b600080fd5b3480156101de57600080fd5b506101f26101ed366004612c05565b61057a565b6040516101ff9190612fd2565b60405180910390f35b34801561021457600080fd5b50610228610223366004612b34565b6105a7565b6040516101ff9190612fdd565b34801561024157600080fd5b5061024a6105b7565b6040516101ff9190612ede565b34801561026357600080fd5b50610277610272366004612d22565b6105c6565b6040516101ff9a99989796959493929190613000565b34801561029957600080fd5b506102ad6102a8366004612993565b61062f565b005b3480156102bb57600080fd5b506102ad6102ca3660046129ed565b6108cf565b3480156102db57600080fd5b506102ef6102ea366004612d22565b610ae8565b6040516101ff9190613103565b34801561030857600080fd5b506102ad610317366004612d5b565b610eac565b34801561032857600080fd5b5061033161111c565b6040516101ff9190613068565b6102ad61034c366004612d3a565b611122565b34801561035d57600080fd5b5061033161120b565b34801561037257600080fd5b506102ad611211565b34801561038757600080fd5b506102ad610396366004612c2d565b611291565b3480156103a757600080fd5b506103316116bc565b3480156103bc57600080fd5b506102ad6103cb366004612d22565b6116c2565b3480156103dc57600080fd5b506103f06103eb366004612d22565b611c82565b6040516101ff94939291906130d1565b6102ad61040e366004612d3a565b611caf565b34801561041f57600080fd5b50610428611f62565b6040516101ff91906130f2565b34801561044157600080fd5b5061024a611f6e565b34801561045657600080fd5b50610331611f7d565b6102ad61046d366004612d22565b611f83565b34801561047e57600080fd5b50610331612076565b34801561049357600080fd5b5061024a61207c565b3480156104a857600080fd5b506102286104b7366004612a97565b61208b565b3480156104c857600080fd5b506102ad6104d7366004612d22565b61209c565b3480156104e857600080fd5b5061024a61228e565b3480156104fd57600080fd5b5061024a61229d565b34801561051257600080fd5b50610526610521366004612d22565b6122ac565b6040516101ff989796959493929190612ef2565b34801561054657600080fd5b50610228610555366004612b9e565b612304565b34801561056657600080fd5b506102ad610575366004612970565b612315565b60006001600160e01b03198216630271189760e51b148061059f575061059f826123da565b90505b919050565b630a85bd0160e11b949350505050565b6004546001600160a01b031681565b600b60208190526000918252604090912080546001820154600283015460058401546006850154600786015460088701546009880154600a890154989099015460ff97881699969895909716969395929491936001600160a01b0391821693821692821691168a565b6001600160a01b038316156107e857826001600160a01b03166323b872dd8686856040518463ffffffff1660e01b815260040180846001600160a01b03168152602001836001600160a01b031681526020018281526020019350505050602060405180830381600087803b1580156106a657600080fd5b505af11580156106ba573d6000803e3d6000fd5b505050506040513d60208110156106d057600080fd5b505161070d5760405162461bcd60e51b815260040180806020018281038252602581526020018061318f6025913960400191505060405180910390fd5b826001600160a01b03166323b872dd86610725611f6e565b846040518463ffffffff1660e01b815260040180846001600160a01b03168152602001836001600160a01b031681526020018281526020019350505050602060405180830381600087803b15801561077c57600080fd5b505af1158015610790573d6000803e3d6000fd5b505050506040513d60208110156107a657600080fd5b50516107e35760405162461bcd60e51b81526004018080602001828103825260238152602001806131d66023913960400191505060405180910390fd5b6108c8565b6040516001600160a01b0385169083156108fc029084906000818181858888f193505050506108485760405162461bcd60e51b81526004018080602001828103825260228152602001806131b46022913960400191505060405180910390fd5b610850611f6e565b6001600160a01b03166108fc829081150290604051600060405180830381858888f193505050506108c8576040805162461bcd60e51b815260206004820181905260248201527f5472616e73666572206f662045544820746f20537461746572206661696c6564604482015290519081900360640190fd5b5050505050565b82518251811480156108e15750808251145b610932576040805162461bcd60e51b815260206004820181905260248201527f546f6b656e20696e666f732070726f76696465642061726520696e76616c6964604482015290519081900360640190fd5b60005b81811015610adf5782818151811061094957fe5b602002602001015160ff1660001415610a075784818151811061096857fe5b60200260200101516001600160a01b03166342842e0e888887858151811061098c57fe5b60200260200101516040518463ffffffff1660e01b815260040180846001600160a01b03168152602001836001600160a01b031681526020018281526020019350505050600060405180830381600087803b1580156109ea57600080fd5b505af11580156109fe573d6000803e3d6000fd5b50505050610ad7565b848181518110610a1357fe5b60200260200101516001600160a01b031663f242432a8888878581518110610a3757fe5b602002602001015160016040518563ffffffff1660e01b815260040180856001600160a01b03168152602001846001600160a01b031681526020018381526020018281526020018060200182810382526004815260200180630307830360e41b81525060200195505050505050600060405180830381600087803b158015610abe57600080fd5b505af1158015610ad2573d6000803e3d6000fd5b505050505b600101610935565b50505050505050565b6000818152600b602052604080822081516101608101909252805483929190829060ff166004811115610b1757fe5b6004811115610b2257fe5b81526001820154602082015260028083015460ff1660408084019190915280518082019182905260609093019291600385019182845b815481526020019060010190808311610b58575050509183525050600582015460208083019190915260068301546040808401919091526007840154606084015260088401546001600160a01b0390811660808501526009850154811660a0850152600a80860154821660c0860152600b909501541660e090930192909252600087815292815281832082518154610180938102820184019094526101608101848152959650939490928492849190840182828015610c4057602002820191906000526020600020905b81546001600160a01b03168152600190910190602001808311610c22575b505050918352505060018201546001600160a01b0390811660208084019190915260028401548216604080850191909152600385015490921660608401526004840180548351818402810184019094528084526080909401939091830182828015610cca57602002820191906000526020600020905b815481526020019060010190808311610cb6575b50505050508152602001600582015481526020016006820154815260200160078201548152602001600882015481526020016009820160009054906101000a900461ffff1661ffff1661ffff168152602001600a8201805480602002602001604051908101604052809291908181526020018280548015610d8857602002820191906000526020600020906000905b825461010083900a900460ff16815260206001928301818104948501949093039092029101808411610d595790505b50505050508152505090508160a001518260c0015110610dad57600b925050506105a2565b6000805b825151811015610e93576000806000806000600e60009054906101000a90046001600160a01b03166001600160a01b03166399fbab8889608001518881518110610df757fe5b60200260200101516040518263ffffffff1660e01b8152600401610e1b9190613068565b6101806040518083038186803b158015610e3457600080fd5b505afa158015610e48573d6000803e3d6000fd5b505050506040513d601f19601f82011682018060405250810190610e6c9190612db4565b9b509b50505099505050509650965050506001870196505050505050806001019050610db1565b5081515160ff821681610ea257fe5b0495945050505050565b60008461ffff16118015610ec05750600085115b610ec957600080fd5b6000868152600a60205260409020600101546001600160a01b03163314610eef57600080fd5b60016000878152600b602052604090205460ff166004811115610f0e57fe5b10610f1857600080fd5b6000868152600c6020526040902054610f3186846123f3565b1115610f3c57600080fd5b6000868152600a6020908152604080832060058101859055600701889055600c825280832060010154600b90925282206064918201880291909104600690910181905561ffff86169081610f8c57fe5b0611610fb7576000868152600b602052604090206006015461ffff85169081610fb157fe5b04610fdb565b6000868152600b602052604090206006015461ffff85169081610fd657fe5b046001015b6000878152600b6020908152604080832060050193909355600a90522060088101839055600390810180546001600160a01b0319166001600160a01b03861617905561ffff851611611048576000868152600b60205260409020600201805460ff191660011790556110a0565b60058461ffff1611611077576000868152600b602052604090206002908101805460ff191690911790556110a0565b60068461ffff16106110a0576000868152600b60205260409020600201805460ff191660031790555b6000868152600b602090815260408083206006810154600590910154600a9093529281902060080154905189936001600160a01b038816937f8e1902f1b79a83752dd0c0b34c25d3d3b241fba59defc28b8fb8e182360136d19361110c938c9392919089908d906130a5565b60405180910390a3505050505050565b600d5481565b61112b82612419565b6000828152600a60205260409020600301546001600160a01b031661119d576000828152600c6020908152604080832060030154600a9092529091206007015463ffffffff909116908161117b57fe5b6000848152600a60205260409020600701549190040134101561119d57600080fd5b6000828152600b602090815260408083206001908101859055600a80845282852091820154600380840154600790940154600c8752949096209095015493526112079333936001600160a01b0391821693919092169163ffffffff16818161120157fe5b0461062f565b5050565b60055481565b611219612536565b6001600160a01b031661122a611f6e565b6001600160a01b031614611285576040805162461bcd60e51b815260206004820181905260248201527f4f776e61626c653a2063616c6c6572206973206e6f7420746865206f776e6572604482015290519081900360640190fd5b61128f600061253a565b565b60008160c0015161ffff161180156112ad575060008160400151115b80156112be57506000816020015151115b6112c757600080fd5b8060a00151518160200151511480156112e957508060e00151518160a0015151145b6112f257600080fd5b600554611307826040015183608001516123f3565b111561131257600080fd5b60808101516009546000908152600a602052604090206008015560c0810151600361ffff90911611611362576009546000908152600b60205260409020600201805460ff191660011790556113c8565b60058160c0015161ffff1611611398576009546000908152600b602052604090206002908101805460ff191690911790556113c8565b60068160c0015161ffff16106113c8576009546000908152600b60205260409020600201805460ff191660031790555b8060a00151600a6000600954815260200190815260200160002060040190805190602001906113f8929190612615565b5060408181018051600980546000908152600a60208181528683206007019490945582548252600c8452858220600101549451600b80865287842060649788019092029690960460069182015560c088018051855485529286528784208501805461ffff191661ffff948516179055519354835294909352938420909201549116908161148157fe5b06116114b6578060c0015161ffff16600b6000600954815260200190815260200160002060060154816114b057fe5b046114e4565b8060c0015161ffff16600b6000600954815260200190815260200160002060060154816114df57fe5b046001015b600980546000908152600b602081815260408084206005019590955583548352848320805460ff191690556001548454845285842060080180546001600160a01b03199081166001600160a01b03938416179091556002548654865287862087018054831691841691909117905560035486548652878620600a90810180548416928516929092179091556004548754875288872090950180549092169490921693909317909255858101519354835290815292902081516115ab93919290910190612660565b50600980546000908152600a602081815260408084206001018054336001600160a01b03199182161790915586518654865282862060030180549092166001600160a01b0390911617905560e086015194548452909220835161161494919092019201906126b5565b5062093a80600a600060095481526020019081526020016000206005018190555061164e333083602001518460a001518560e001516108cf565b60095481600001516001600160a01b0316336001600160a01b03167f06b4fa68493c57d0a3bcfe8fd7db7297b3f4ed7c3f730fd563791eaafa27439d84602001518560a001518660e001516040516116a893929190612f3c565b60405180910390a450600980546001019055565b60065481565b6000818152600a60205260409020600101546001600160a01b031633148061170357506000818152600a60205260409020600201546001600160a01b031633145b61170c57600080fd5b6000818152600b60205260409020600401544210158061174357506000818152600b60205260409020600681015460079091015410155b806117595750600161175482610ae8565b60ff16105b61176257600080fd5b60026000828152600b602052604090205460ff16600481111561178157fe5b14806117a9575060016000828152600b602052604090205460ff1660048111156117a757fe5b145b6117b257600080fd5b60016117bd82610ae8565b60ff16101561193d576000818152600b60209081526040808320805460ff19166004908117825542910155600a825291829020600281015481548451818502810185019095528085526119389430946001600160a01b0390931693909290919083018282801561185657602002820191906000526020600020905b81546001600160a01b03168152600190910190602001808311611838575b5050506000878152600a6020908152604091829020600401805483518184028101840190945280845292945092508301828280156118b357602002820191906000526020600020905b81548152602001906001019080831161189f575b5050506000888152600a60208181526040928390209091018054835181840281018401909452808452929450925083018282801561192e57602002820191906000526020600020906000905b825461010083900a900460ff168152602060019283018181049485019490930390920291018084116118ff5790505b50505050506108cf565b611c2f565b6000818152600b6020526040902060040154421080159061197457506000818152600b602052604090206006810154600790910154105b15611ac5576000818152600b60209081526040808320805460ff19166004179055600a825291829020600281015481548451818502810185019095528085526119389430946001600160a01b03909316939092909190830182828015611856576020028201919060005260206000209081546001600160a01b03168152600190910190602001808311611838575050506000878152600a6020908152604091829020600401805483518184028101840190945280845292945092508301828280156118b3576020028201919060005260206000209081548152602001906001019080831161189f575050506000888152600a60208181526040928390209091018054835181840281018401909452808452929450925083018282801561192e576000918252602091829020805460ff1684529082028301929091600191018084116118ff57905050505050506108cf565b6000818152600b60205260409020600681015460079091015410611c2f576000818152600b60209081526040808320805460ff19166004179055600a82529182902060018101548154845181850281018501909552808552611c2f9430946001600160a01b03909316939092909190830182828015611856576020028201919060005260206000209081546001600160a01b03168152600190910190602001808311611838575050506000878152600a6020908152604091829020600401805483518184028101840190945280845292945092508301828280156118b3576020028201919060005260206000209081548152602001906001019080831161189f575050506000888152600a60208181526040928390209091018054835181840281018401909452808452929450925083018282801561192e576000918252602091829020805460ff1684529082028301929091600191018084116118ff57905050505050506108cf565b6000818152600b602052604090819020549051829133917f174efca9557ce00d5a6f26355f73e3873fed7d6f8248757750569e4699146c6791611c779160ff90911690612ff2565b60405180910390a350565b600c6020526000908152604090208054600182015460028301546003909301549192909163ffffffff1684565b6000828152600a60205260409020600101546001600160a01b03163314611cd557600080fd5b60016000838152600b602052604090205460ff166004811115611cf457fe5b14611cfe57600080fd5b6000828152600b6020526040902060040154421115611d1c57600080fd5b600034118015611d4457506000828152600a60205260409020600301546001600160a01b0316155b8015611d4f57508034145b80611d8857506000828152600a60205260409020600301546001600160a01b031615801590611d7c575034155b8015611d885750600081115b611d9157600080fd5b6000803411611da05781611da2565b345b6000848152600c6020526040812060010154919250829160649083020490611dca863361258a565b6000878152600c602052604090206002015490915060649083020460018214611e59576000878152600a60205260409020600301546001600160a01b0316611e4c57336108fc838381611e1957fe5b049081150290604051600060405180830381858888f19350505050611e3d57600080fd5b818181611e4657fe5b04840393505b818181611e5557fe5b0490035b6000878152600b60205260409020600781018054870190556005015493819003938581611e8257fe5b6000898152600a602090815260408083206006908101805496909504909501909355600b9052209081015460079091015410611ed2576000878152600b60205260409020805460ff191660021790555b6000878152600a602052604090206002810154600390910154611f059133916001600160a01b039182169116878561062f565b6000878152600b60205260409081902054905188917fb5c84f6603b8d7669dbbe31fd93a237657c42054c0b237b7d4215fa463523b5b91611f5191349189918991889160ff1690613071565b60405180910390a250505050505050565b60085463ffffffff1681565b6000546001600160a01b031690565b60075481565b611f8c81612419565b6000611f98823361258a565b6000838152600a60205260409020600301549091506001600160a01b0316612015576000828152600c6020908152604080832060030154600a90925290912060070154829163ffffffff169081611feb57fe5b0481611ff357fe5b6000848152600a60205260409020600701549190040134101561201557600080fd5b6000828152600a602081815260408084206001810154600380830154600790930154600c86529390962090950154939092526112079333936001600160a01b03918216939091169190869063ffffffff16828161206e57fe5b048161120157fe5b60095481565b6001546001600160a01b031681565b63bc197c8160e01b95945050505050565b6000818152600a60205260409020600201546001600160a01b0316156120c157600080fd5b6000818152600a60205260409020600101546001600160a01b031633146120e757600080fd5b6000818152600b602052604081205460ff16600481111561210457fe5b1461210e57600080fd5b6000818152600b60209081526040808320426004820155805460ff19166003179055600a825291829020600181015481548451818502810185019095528085526122609430946001600160a01b03909316939092909190830182828015611856576020028201919060005260206000209081546001600160a01b03168152600190910190602001808311611838575050506000878152600a6020908152604091829020600401805483518184028101840190945280845292945092508301828280156118b3576020028201919060005260206000209081548152602001906001019080831161189f575050506000888152600a60208181526040928390209091018054835181840281018401909452808452929450925083018282801561192e576000918252602091829020805460ff1684529082028301929091600191018084116118ff57905050505050506108cf565b60405181907fb71becc91961a6b43bcc5b3b630f3dce02c7fd444cf3738c4f188062b1caf5bc90600090a250565b6003546001600160a01b031681565b6002546001600160a01b031681565b600a60205260009081526040902060018101546002820154600383015460058401546006850154600786015460088701546009909701546001600160a01b0396871697958716969094169492939192909161ffff1688565b63f23a6e6160e01b95945050505050565b61231d612536565b6001600160a01b031661232e611f6e565b6001600160a01b031614612389576040805162461bcd60e51b815260206004820181905260248201527f4f776e61626c653a2063616c6c6572206973206e6f7420746865206f776e6572604482015290519081900360640190fd5b6001600160a01b0381166123ce5760405162461bcd60e51b81526004018080602001828103825260268152602001806131696026913960400191505060405180910390fd5b6123d78161253a565b50565b6001600160e01b031981166301ffc9a760e01b14919050565b6000600a8284612710028161240457fe5b046005018161240f57fe5b0490505b92915050565b6000818152600a60205260409020600201546001600160a01b03161561243e57600080fd5b6000818152600b60205260409020600701541561245a57600080fd5b6000818152600b602052604081205460ff16600481111561247757fe5b1461248157600080fd5b6000818152600a602052604090206002810180546001600160a01b03191633179055600981015460059091015461ffff90911690816124bc57fe5b6000838152600a6020908152604080832060090154600b909252918290209390920461ffff9092169190910242908101600484018190558354600160ff1990911617845560039093015551829133917f1a8ecea83cbcff0f4c46b7e42f55227161863220eb7d439fde442dfdc0ddbc4e91611c7791613068565b3390565b600080546001600160a01b038381166001600160a01b0319831681178455604051919092169283917f8be0079c531659141344cd1fd0a4f28419497f9722a3daafe3b4186f6b6457e09190a35050565b6000828152600b60209081526040808320600a0154815163ad6a874560e01b81526001600160a01b0386811660048301529251929091169263ad6a874592602480840193829003018186803b1580156125e257600080fd5b505afa1580156125f6573d6000803e3d6000fd5b505050506040513d602081101561260c57600080fd5b50519392505050565b828054828255906000526020600020908101928215612650579160200282015b82811115612650578251825591602001919060010190612635565b5061265c929150612752565b5090565b828054828255906000526020600020908101928215612650579160200282015b8281111561265057825182546001600160a01b0319166001600160a01b03909116178255602090920191600190910190612680565b82805482825590600052602060002090601f016020900481019282156126505791602002820160005b8382111561271c57835183826101000a81548160ff021916908360ff16021790555092602001926001016020816000010492830192600103026126de565b80156127495782816101000a81549060ff021916905560010160208160000104928301926001030261271c565b505061265c9291505b5b8082111561265c5760008155600101612753565b80356105a281613153565b80516105a281613153565b600082601f83011261278d578081fd5b813560206127a261279d83613135565b613111565b82815281810190858301838502870184018810156127be578586fd5b855b858110156127e55781356127d381613153565b845292840192908401906001016127c0565b5090979650505050505050565b600082601f830112612802578081fd5b8135602061281261279d83613135565b828152818101908583018385028701840188101561282e578586fd5b855b858110156127e557813584529284019290840190600101612830565b600082601f83011261285c578081fd5b8135602061286c61279d83613135565b8281528181019085830183850287018401881015612888578586fd5b855b858110156127e557813560ff811681146128a2578788fd5b8452928401929084019060010161288a565b600082601f8301126128c4578081fd5b813567ffffffffffffffff8111156128d857fe5b6128eb601f8201601f1916602001613111565b8181528460208386010111156128ff578283fd5b816020850160208301379081016020019190915292915050565b8051600281900b81146105a257600080fd5b80516fffffffffffffffffffffffffffffffff811681146105a257600080fd5b803561ffff811681146105a257600080fd5b805162ffffff811681146105a257600080fd5b600060208284031215612981578081fd5b813561298c81613153565b9392505050565b600080600080600060a086880312156129aa578081fd5b85356129b581613153565b945060208601356129c581613153565b935060408601356129d581613153565b94979396509394606081013594506080013592915050565b600080600080600060a08688031215612a04578081fd5b8535612a0f81613153565b94506020860135612a1f81613153565b9350604086013567ffffffffffffffff80821115612a3b578283fd5b612a4789838a0161277d565b94506060880135915080821115612a5c578283fd5b612a6889838a016127f2565b93506080880135915080821115612a7d578283fd5b50612a8a8882890161284c565b9150509295509295909350565b600080600080600060a08688031215612aae578283fd5b8535612ab981613153565b94506020860135612ac981613153565b9350604086013567ffffffffffffffff80821115612ae5578485fd5b612af189838a016127f2565b94506060880135915080821115612b06578283fd5b612b1289838a016127f2565b93506080880135915080821115612b27578283fd5b50612a8a888289016128b4565b60008060008060808587031215612b49578182fd5b8435612b5481613153565b93506020850135612b6481613153565b925060408501359150606085013567ffffffffffffffff811115612b86578182fd5b612b92878288016128b4565b91505092959194509250565b600080600080600060a08688031215612bb5578283fd5b8535612bc081613153565b94506020860135612bd081613153565b93506040860135925060608601359150608086013567ffffffffffffffff811115612bf9578182fd5b612a8a888289016128b4565b600060208284031215612c16578081fd5b81356001600160e01b03198116811461298c578182fd5b600060208284031215612c3e578081fd5b813567ffffffffffffffff80821115612c55578283fd5b8184019150610100808387031215612c6b578384fd5b612c7481613111565b9050612c7f83612767565b8152602083013582811115612c92578485fd5b612c9e8782860161277d565b60208301525060408301356040820152606083013560608201526080830135608082015260a083013582811115612cd3578485fd5b612cdf878286016127f2565b60a083015250612cf160c0840161294b565b60c082015260e083013582811115612d07578485fd5b612d138782860161284c565b60e08301525095945050505050565b600060208284031215612d33578081fd5b5035919050565b60008060408385031215612d4c578182fd5b50508035926020909101359150565b60008060008060008060c08789031215612d73578384fd5b8635955060208701359450612d8a6040880161294b565b93506060870135612d9a81613153565b9598949750929560808101359460a0909101359350915050565b6000806000806000806000806000806000806101808d8f031215612dd657898afd5b8c516bffffffffffffffffffffffff81168114612df1578a8bfd5b9b50612dff60208e01612772565b9a50612e0d60408e01612772565b9950612e1b60608e01612772565b9850612e2960808e0161295d565b9750612e3760a08e01612919565b9650612e4560c08e01612919565b9550612e5360e08e0161292b565b94506101008d015193506101208d01519250612e726101408e0161292b565b9150612e816101608e0161292b565b90509295989b509295989b509295989b565b6000815180845260208085019450808401835b83811015612ec557815160ff1687529582019590820190600101612ea6565b509495945050505050565b60058110612eda57fe5b9052565b6001600160a01b0391909116815260200190565b6001600160a01b03988916815296881660208801529490961660408601526060850192909252608084015260a083015260c082019290925261ffff90911660e08201526101000190565b606080825284519082018190526000906020906080840190828801845b82811015612f7e5781516001600160a01b031684529284019290840190600101612f59565b50505083810382850152855180825286830191830190845b81811015612fb257835183529284019291840191600101612f96565b50508481036040860152612fc68187612e93565b98975050505050505050565b901515815260200190565b6001600160e01b031991909116815260200190565b602081016124138284612ed0565b610140810161300f828d612ed0565b602082019a909a5260ff9890981660408901526060880196909652608087019490945260a08601929092526001600160a01b0390811660c086015290811660e08501529081166101008401521661012090910152919050565b90815260200190565b600060a08201905086825285602083015284604083015283606083015261309b6080830184612ed0565b9695505050505050565b958652602086019490945260408501929092526060840152608083015261ffff1660a082015260c00190565b9384526020840192909252604083015263ffffffff16606082015260800190565b63ffffffff91909116815260200190565b60ff91909116815260200190565b60405181810167ffffffffffffffff8111828210171561312d57fe5b604052919050565b600067ffffffffffffffff82111561314957fe5b5060209081020190565b6001600160a01b03811681146123d757600080fdfe4f776e61626c653a206e6577206f776e657220697320746865207a65726f20616464726573735472616e73666572206f6620746f6b656e7320746f207265636569766572206661696c65645472616e73666572206f662045544820746f207265636569766572206661696c65645472616e73666572206f6620746f6b656e7320746f20537461746572206661696c6564a2646970667358221220b3128d594ca694ac282ec2328cd5e06fff8a5e414c906868de0e929779ae077864736f6c63430007060033",
			"opcodes": "PUSH1 0x80 PUSH1 0x40 MSTORE PUSH1 0x1 PUSH1 0x9 SSTORE PUSH8 0x429D069189E0000 PUSH1 0xD SSTORE CALLVALUE DUP1 ISZERO PUSH3 0x22 JUMPI PUSH1 0x0 DUP1 REVERT JUMPDEST POP PUSH3 0x37 PUSH3 0x31 PUSH3 0x3D JUMP JUMPDEST PUSH3 0x41 JUMP JUMPDEST PUSH3 0x91 JUMP JUMPDEST CALLER SWAP1 JUMP JUMPDEST PUSH1 0x0 DUP1 SLOAD PUSH1 0x1 PUSH1 0x1 PUSH1 0xA0 SHL SUB DUP4 DUP2 AND PUSH1 0x1 PUSH1 0x1 PUSH1 0xA0 SHL SUB NOT DUP4 AND DUP2 OR DUP5 SSTORE PUSH1 0x40 MLOAD SWAP2 SWAP1 SWAP3 AND SWAP3 DUP4 SWAP2 PUSH32 0x8BE0079C531659141344CD1FD0A4F28419497F9722A3DAAFE3B4186F6B6457E0 SWAP2 SWAP1 LOG3 POP POP JUMP JUMPDEST PUSH2 0x322E DUP1 PUSH3 0xA1 PUSH1 0x0 CODECOPY PUSH1 0x0 RETURN INVALID PUSH1 0x80 PUSH1 0x40 MSTORE PUSH1 0x4 CALLDATASIZE LT PUSH2 0x1CD JUMPI PUSH1 0x0 CALLDATALOAD PUSH1 0xE0 SHR DUP1 PUSH4 0x8395F083 GT PUSH2 0xF7 JUMPI DUP1 PUSH4 0xB2B71A00 GT PUSH2 0x95 JUMPI DUP1 PUSH4 0xD9CBB52D GT PUSH2 0x64 JUMPI DUP1 PUSH4 0xD9CBB52D EQ PUSH2 0x4F1 JUMPI DUP1 PUSH4 0xE1EC3C68 EQ PUSH2 0x506 JUMPI DUP1 PUSH4 0xF23A6E61 EQ PUSH2 0x53A JUMPI DUP1 PUSH4 0xF2FDE38B EQ PUSH2 0x55A JUMPI PUSH2 0x1CD JUMP JUMPDEST DUP1 PUSH4 0xB2B71A00 EQ PUSH2 0x487 JUMPI DUP1 PUSH4 0xBC197C81 EQ PUSH2 0x49C JUMPI DUP1 PUSH4 0xBDBFA3DE EQ PUSH2 0x4BC JUMPI DUP1 PUSH4 0xD442CE09 EQ PUSH2 0x4DC JUMPI PUSH2 0x1CD JUMP JUMPDEST DUP1 PUSH4 0x8DA5CB5B GT PUSH2 0xD1 JUMPI DUP1 PUSH4 0x8DA5CB5B EQ PUSH2 0x435 JUMPI DUP1 PUSH4 0x8F829275 EQ PUSH2 0x44A JUMPI DUP1 PUSH4 0xAADC1AC1 EQ PUSH2 0x45F JUMPI DUP1 PUSH4 0xAF640D0F EQ PUSH2 0x472 JUMPI PUSH2 0x1CD JUMP JUMPDEST DUP1 PUSH4 0x8395F083 EQ PUSH2 0x3D0 JUMPI DUP1 PUSH4 0x89306E61 EQ PUSH2 0x400 JUMPI DUP1 PUSH4 0x8CA83F07 EQ PUSH2 0x413 JUMPI PUSH2 0x1CD JUMP JUMPDEST DUP1 PUSH4 0x4B69CD6C GT PUSH2 0x16F JUMPI DUP1 PUSH4 0x715018A6 GT PUSH2 0x13E JUMPI DUP1 PUSH4 0x715018A6 EQ PUSH2 0x366 JUMPI DUP1 PUSH4 0x7B878D42 EQ PUSH2 0x37B JUMPI DUP1 PUSH4 0x7C3A00FD EQ PUSH2 0x39B JUMPI DUP1 PUSH4 0x7FB9FE3D EQ PUSH2 0x3B0 JUMPI PUSH2 0x1CD JUMP JUMPDEST DUP1 PUSH4 0x4B69CD6C EQ PUSH2 0x2FC JUMPI DUP1 PUSH4 0x537D2A2B EQ PUSH2 0x31C JUMPI DUP1 PUSH4 0x67A00C55 EQ PUSH2 0x33E JUMPI DUP1 PUSH4 0x6FB49D73 EQ PUSH2 0x351 JUMPI PUSH2 0x1CD JUMP JUMPDEST DUP1 PUSH4 0x2D990756 GT PUSH2 0x1AB JUMPI DUP1 PUSH4 0x2D990756 EQ PUSH2 0x257 JUMPI DUP1 PUSH4 0x2E3F4A5D EQ PUSH2 0x28D JUMPI DUP1 PUSH4 0x407299D7 EQ PUSH2 0x2AF JUMPI DUP1 PUSH4 0x44FF78C7 EQ PUSH2 0x2CF JUMPI PUSH2 0x1CD JUMP JUMPDEST DUP1 PUSH4 0x1FFC9A7 EQ PUSH2 0x1D2 JUMPI DUP1 PUSH4 0x150B7A02 EQ PUSH2 0x208 JUMPI DUP1 PUSH4 0x2A607841 EQ PUSH2 0x235 JUMPI JUMPDEST PUSH1 0x0 DUP1 REVERT JUMPDEST CALLVALUE DUP1 ISZERO PUSH2 0x1DE JUMPI PUSH1 0x0 DUP1 REVERT JUMPDEST POP PUSH2 0x1F2 PUSH2 0x1ED CALLDATASIZE PUSH1 0x4 PUSH2 0x2C05 JUMP JUMPDEST PUSH2 0x57A JUMP JUMPDEST PUSH1 0x40 MLOAD PUSH2 0x1FF SWAP2 SWAP1 PUSH2 0x2FD2 JUMP JUMPDEST PUSH1 0x40 MLOAD DUP1 SWAP2 SUB SWAP1 RETURN JUMPDEST CALLVALUE DUP1 ISZERO PUSH2 0x214 JUMPI PUSH1 0x0 DUP1 REVERT JUMPDEST POP PUSH2 0x228 PUSH2 0x223 CALLDATASIZE PUSH1 0x4 PUSH2 0x2B34 JUMP JUMPDEST PUSH2 0x5A7 JUMP JUMPDEST PUSH1 0x40 MLOAD PUSH2 0x1FF SWAP2 SWAP1 PUSH2 0x2FDD JUMP JUMPDEST CALLVALUE DUP1 ISZERO PUSH2 0x241 JUMPI PUSH1 0x0 DUP1 REVERT JUMPDEST POP PUSH2 0x24A PUSH2 0x5B7 JUMP JUMPDEST PUSH1 0x40 MLOAD PUSH2 0x1FF SWAP2 SWAP1 PUSH2 0x2EDE JUMP JUMPDEST CALLVALUE DUP1 ISZERO PUSH2 0x263 JUMPI PUSH1 0x0 DUP1 REVERT JUMPDEST POP PUSH2 0x277 PUSH2 0x272 CALLDATASIZE PUSH1 0x4 PUSH2 0x2D22 JUMP JUMPDEST PUSH2 0x5C6 JUMP JUMPDEST PUSH1 0x40 MLOAD PUSH2 0x1FF SWAP11 SWAP10 SWAP9 SWAP8 SWAP7 SWAP6 SWAP5 SWAP4 SWAP3 SWAP2 SWAP1 PUSH2 0x3000 JUMP JUMPDEST CALLVALUE DUP1 ISZERO PUSH2 0x299 JUMPI PUSH1 0x0 DUP1 REVERT JUMPDEST POP PUSH2 0x2AD PUSH2 0x2A8 CALLDATASIZE PUSH1 0x4 PUSH2 0x2993 JUMP JUMPDEST PUSH2 0x62F JUMP JUMPDEST STOP JUMPDEST CALLVALUE DUP1 ISZERO PUSH2 0x2BB JUMPI PUSH1 0x0 DUP1 REVERT JUMPDEST POP PUSH2 0x2AD PUSH2 0x2CA CALLDATASIZE PUSH1 0x4 PUSH2 0x29ED JUMP JUMPDEST PUSH2 0x8CF JUMP JUMPDEST CALLVALUE DUP1 ISZERO PUSH2 0x2DB JUMPI PUSH1 0x0 DUP1 REVERT JUMPDEST POP PUSH2 0x2EF PUSH2 0x2EA CALLDATASIZE PUSH1 0x4 PUSH2 0x2D22 JUMP JUMPDEST PUSH2 0xAE8 JUMP JUMPDEST PUSH1 0x40 MLOAD PUSH2 0x1FF SWAP2 SWAP1 PUSH2 0x3103 JUMP JUMPDEST CALLVALUE DUP1 ISZERO PUSH2 0x308 JUMPI PUSH1 0x0 DUP1 REVERT JUMPDEST POP PUSH2 0x2AD PUSH2 0x317 CALLDATASIZE PUSH1 0x4 PUSH2 0x2D5B JUMP JUMPDEST PUSH2 0xEAC JUMP JUMPDEST CALLVALUE DUP1 ISZERO PUSH2 0x328 JUMPI PUSH1 0x0 DUP1 REVERT JUMPDEST POP PUSH2 0x331 PUSH2 0x111C JUMP JUMPDEST PUSH1 0x40 MLOAD PUSH2 0x1FF SWAP2 SWAP1 PUSH2 0x3068 JUMP JUMPDEST PUSH2 0x2AD PUSH2 0x34C CALLDATASIZE PUSH1 0x4 PUSH2 0x2D3A JUMP JUMPDEST PUSH2 0x1122 JUMP JUMPDEST CALLVALUE DUP1 ISZERO PUSH2 0x35D JUMPI PUSH1 0x0 DUP1 REVERT JUMPDEST POP PUSH2 0x331 PUSH2 0x120B JUMP JUMPDEST CALLVALUE DUP1 ISZERO PUSH2 0x372 JUMPI PUSH1 0x0 DUP1 REVERT JUMPDEST POP PUSH2 0x2AD PUSH2 0x1211 JUMP JUMPDEST CALLVALUE DUP1 ISZERO PUSH2 0x387 JUMPI PUSH1 0x0 DUP1 REVERT JUMPDEST POP PUSH2 0x2AD PUSH2 0x396 CALLDATASIZE PUSH1 0x4 PUSH2 0x2C2D JUMP JUMPDEST PUSH2 0x1291 JUMP JUMPDEST CALLVALUE DUP1 ISZERO PUSH2 0x3A7 JUMPI PUSH1 0x0 DUP1 REVERT JUMPDEST POP PUSH2 0x331 PUSH2 0x16BC JUMP JUMPDEST CALLVALUE DUP1 ISZERO PUSH2 0x3BC JUMPI PUSH1 0x0 DUP1 REVERT JUMPDEST POP PUSH2 0x2AD PUSH2 0x3CB CALLDATASIZE PUSH1 0x4 PUSH2 0x2D22 JUMP JUMPDEST PUSH2 0x16C2 JUMP JUMPDEST CALLVALUE DUP1 ISZERO PUSH2 0x3DC JUMPI PUSH1 0x0 DUP1 REVERT JUMPDEST POP PUSH2 0x3F0 PUSH2 0x3EB CALLDATASIZE PUSH1 0x4 PUSH2 0x2D22 JUMP JUMPDEST PUSH2 0x1C82 JUMP JUMPDEST PUSH1 0x40 MLOAD PUSH2 0x1FF SWAP5 SWAP4 SWAP3 SWAP2 SWAP1 PUSH2 0x30D1 JUMP JUMPDEST PUSH2 0x2AD PUSH2 0x40E CALLDATASIZE PUSH1 0x4 PUSH2 0x2D3A JUMP JUMPDEST PUSH2 0x1CAF JUMP JUMPDEST CALLVALUE DUP1 ISZERO PUSH2 0x41F JUMPI PUSH1 0x0 DUP1 REVERT JUMPDEST POP PUSH2 0x428 PUSH2 0x1F62 JUMP JUMPDEST PUSH1 0x40 MLOAD PUSH2 0x1FF SWAP2 SWAP1 PUSH2 0x30F2 JUMP JUMPDEST CALLVALUE DUP1 ISZERO PUSH2 0x441 JUMPI PUSH1 0x0 DUP1 REVERT JUMPDEST POP PUSH2 0x24A PUSH2 0x1F6E JUMP JUMPDEST CALLVALUE DUP1 ISZERO PUSH2 0x456 JUMPI PUSH1 0x0 DUP1 REVERT JUMPDEST POP PUSH2 0x331 PUSH2 0x1F7D JUMP JUMPDEST PUSH2 0x2AD PUSH2 0x46D CALLDATASIZE PUSH1 0x4 PUSH2 0x2D22 JUMP JUMPDEST PUSH2 0x1F83 JUMP JUMPDEST CALLVALUE DUP1 ISZERO PUSH2 0x47E JUMPI PUSH1 0x0 DUP1 REVERT JUMPDEST POP PUSH2 0x331 PUSH2 0x2076 JUMP JUMPDEST CALLVALUE DUP1 ISZERO PUSH2 0x493 JUMPI PUSH1 0x0 DUP1 REVERT JUMPDEST POP PUSH2 0x24A PUSH2 0x207C JUMP JUMPDEST CALLVALUE DUP1 ISZERO PUSH2 0x4A8 JUMPI PUSH1 0x0 DUP1 REVERT JUMPDEST POP PUSH2 0x228 PUSH2 0x4B7 CALLDATASIZE PUSH1 0x4 PUSH2 0x2A97 JUMP JUMPDEST PUSH2 0x208B JUMP JUMPDEST CALLVALUE DUP1 ISZERO PUSH2 0x4C8 JUMPI PUSH1 0x0 DUP1 REVERT JUMPDEST POP PUSH2 0x2AD PUSH2 0x4D7 CALLDATASIZE PUSH1 0x4 PUSH2 0x2D22 JUMP JUMPDEST PUSH2 0x209C JUMP JUMPDEST CALLVALUE DUP1 ISZERO PUSH2 0x4E8 JUMPI PUSH1 0x0 DUP1 REVERT JUMPDEST POP PUSH2 0x24A PUSH2 0x228E JUMP JUMPDEST CALLVALUE DUP1 ISZERO PUSH2 0x4FD JUMPI PUSH1 0x0 DUP1 REVERT JUMPDEST POP PUSH2 0x24A PUSH2 0x229D JUMP JUMPDEST CALLVALUE DUP1 ISZERO PUSH2 0x512 JUMPI PUSH1 0x0 DUP1 REVERT JUMPDEST POP PUSH2 0x526 PUSH2 0x521 CALLDATASIZE PUSH1 0x4 PUSH2 0x2D22 JUMP JUMPDEST PUSH2 0x22AC JUMP JUMPDEST PUSH1 0x40 MLOAD PUSH2 0x1FF SWAP9 SWAP8 SWAP7 SWAP6 SWAP5 SWAP4 SWAP3 SWAP2 SWAP1 PUSH2 0x2EF2 JUMP JUMPDEST CALLVALUE DUP1 ISZERO PUSH2 0x546 JUMPI PUSH1 0x0 DUP1 REVERT JUMPDEST POP PUSH2 0x228 PUSH2 0x555 CALLDATASIZE PUSH1 0x4 PUSH2 0x2B9E JUMP JUMPDEST PUSH2 0x2304 JUMP JUMPDEST CALLVALUE DUP1 ISZERO PUSH2 0x566 JUMPI PUSH1 0x0 DUP1 REVERT JUMPDEST POP PUSH2 0x2AD PUSH2 0x575 CALLDATASIZE PUSH1 0x4 PUSH2 0x2970 JUMP JUMPDEST PUSH2 0x2315 JUMP JUMPDEST PUSH1 0x0 PUSH1 0x1 PUSH1 0x1 PUSH1 0xE0 SHL SUB NOT DUP3 AND PUSH4 0x2711897 PUSH1 0xE5 SHL EQ DUP1 PUSH2 0x59F JUMPI POP PUSH2 0x59F DUP3 PUSH2 0x23DA JUMP JUMPDEST SWAP1 POP JUMPDEST SWAP2 SWAP1 POP JUMP JUMPDEST PUSH4 0xA85BD01 PUSH1 0xE1 SHL SWAP5 SWAP4 POP POP POP POP JUMP JUMPDEST PUSH1 0x4 SLOAD PUSH1 0x1 PUSH1 0x1 PUSH1 0xA0 SHL SUB AND DUP2 JUMP JUMPDEST PUSH1 0xB PUSH1 0x20 DUP2 SWAP1 MSTORE PUSH1 0x0 SWAP2 DUP3 MSTORE PUSH1 0x40 SWAP1 SWAP2 KECCAK256 DUP1 SLOAD PUSH1 0x1 DUP3 ADD SLOAD PUSH1 0x2 DUP4 ADD SLOAD PUSH1 0x5 DUP5 ADD SLOAD PUSH1 0x6 DUP6 ADD SLOAD PUSH1 0x7 DUP7 ADD SLOAD PUSH1 0x8 DUP8 ADD SLOAD PUSH1 0x9 DUP9 ADD SLOAD PUSH1 0xA DUP10 ADD SLOAD SWAP9 SWAP1 SWAP10 ADD SLOAD PUSH1 0xFF SWAP8 DUP9 AND SWAP10 SWAP7 SWAP9 SWAP6 SWAP1 SWAP8 AND SWAP7 SWAP4 SWAP6 SWAP3 SWAP5 SWAP2 SWAP4 PUSH1 0x1 PUSH1 0x1 PUSH1 0xA0 SHL SUB SWAP2 DUP3 AND SWAP4 DUP3 AND SWAP3 DUP3 AND SWAP2 AND DUP11 JUMP JUMPDEST PUSH1 0x1 PUSH1 0x1 PUSH1 0xA0 SHL SUB DUP4 AND ISZERO PUSH2 0x7E8 JUMPI DUP3 PUSH1 0x1 PUSH1 0x1 PUSH1 0xA0 SHL SUB AND PUSH4 0x23B872DD DUP7 DUP7 DUP6 PUSH1 0x40 MLOAD DUP5 PUSH4 0xFFFFFFFF AND PUSH1 0xE0 SHL DUP2 MSTORE PUSH1 0x4 ADD DUP1 DUP5 PUSH1 0x1 PUSH1 0x1 PUSH1 0xA0 SHL SUB AND DUP2 MSTORE PUSH1 0x20 ADD DUP4 PUSH1 0x1 PUSH1 0x1 PUSH1 0xA0 SHL SUB AND DUP2 MSTORE PUSH1 0x20 ADD DUP3 DUP2 MSTORE PUSH1 0x20 ADD SWAP4 POP POP POP POP PUSH1 0x20 PUSH1 0x40 MLOAD DUP1 DUP4 SUB DUP2 PUSH1 0x0 DUP8 DUP1 EXTCODESIZE ISZERO DUP1 ISZERO PUSH2 0x6A6 JUMPI PUSH1 0x0 DUP1 REVERT JUMPDEST POP GAS CALL ISZERO DUP1 ISZERO PUSH2 0x6BA JUMPI RETURNDATASIZE PUSH1 0x0 DUP1 RETURNDATACOPY RETURNDATASIZE PUSH1 0x0 REVERT JUMPDEST POP POP POP POP PUSH1 0x40 MLOAD RETURNDATASIZE PUSH1 0x20 DUP2 LT ISZERO PUSH2 0x6D0 JUMPI PUSH1 0x0 DUP1 REVERT JUMPDEST POP MLOAD PUSH2 0x70D JUMPI PUSH1 0x40 MLOAD PUSH3 0x461BCD PUSH1 0xE5 SHL DUP2 MSTORE PUSH1 0x4 ADD DUP1 DUP1 PUSH1 0x20 ADD DUP3 DUP2 SUB DUP3 MSTORE PUSH1 0x25 DUP2 MSTORE PUSH1 0x20 ADD DUP1 PUSH2 0x318F PUSH1 0x25 SWAP2 CODECOPY PUSH1 0x40 ADD SWAP2 POP POP PUSH1 0x40 MLOAD DUP1 SWAP2 SUB SWAP1 REVERT JUMPDEST DUP3 PUSH1 0x1 PUSH1 0x1 PUSH1 0xA0 SHL SUB AND PUSH4 0x23B872DD DUP7 PUSH2 0x725 PUSH2 0x1F6E JUMP JUMPDEST DUP5 PUSH1 0x40 MLOAD DUP5 PUSH4 0xFFFFFFFF AND PUSH1 0xE0 SHL DUP2 MSTORE PUSH1 0x4 ADD DUP1 DUP5 PUSH1 0x1 PUSH1 0x1 PUSH1 0xA0 SHL SUB AND DUP2 MSTORE PUSH1 0x20 ADD DUP4 PUSH1 0x1 PUSH1 0x1 PUSH1 0xA0 SHL SUB AND DUP2 MSTORE PUSH1 0x20 ADD DUP3 DUP2 MSTORE PUSH1 0x20 ADD SWAP4 POP POP POP POP PUSH1 0x20 PUSH1 0x40 MLOAD DUP1 DUP4 SUB DUP2 PUSH1 0x0 DUP8 DUP1 EXTCODESIZE ISZERO DUP1 ISZERO PUSH2 0x77C JUMPI PUSH1 0x0 DUP1 REVERT JUMPDEST POP GAS CALL ISZERO DUP1 ISZERO PUSH2 0x790 JUMPI RETURNDATASIZE PUSH1 0x0 DUP1 RETURNDATACOPY RETURNDATASIZE PUSH1 0x0 REVERT JUMPDEST POP POP POP POP PUSH1 0x40 MLOAD RETURNDATASIZE PUSH1 0x20 DUP2 LT ISZERO PUSH2 0x7A6 JUMPI PUSH1 0x0 DUP1 REVERT JUMPDEST POP MLOAD PUSH2 0x7E3 JUMPI PUSH1 0x40 MLOAD PUSH3 0x461BCD PUSH1 0xE5 SHL DUP2 MSTORE PUSH1 0x4 ADD DUP1 DUP1 PUSH1 0x20 ADD DUP3 DUP2 SUB DUP3 MSTORE PUSH1 0x23 DUP2 MSTORE PUSH1 0x20 ADD DUP1 PUSH2 0x31D6 PUSH1 0x23 SWAP2 CODECOPY PUSH1 0x40 ADD SWAP2 POP POP PUSH1 0x40 MLOAD DUP1 SWAP2 SUB SWAP1 REVERT JUMPDEST PUSH2 0x8C8 JUMP JUMPDEST PUSH1 0x40 MLOAD PUSH1 0x1 PUSH1 0x1 PUSH1 0xA0 SHL SUB DUP6 AND SWAP1 DUP4 ISZERO PUSH2 0x8FC MUL SWAP1 DUP5 SWAP1 PUSH1 0x0 DUP2 DUP2 DUP2 DUP6 DUP9 DUP9 CALL SWAP4 POP POP POP POP PUSH2 0x848 JUMPI PUSH1 0x40 MLOAD PUSH3 0x461BCD PUSH1 0xE5 SHL DUP2 MSTORE PUSH1 0x4 ADD DUP1 DUP1 PUSH1 0x20 ADD DUP3 DUP2 SUB DUP3 MSTORE PUSH1 0x22 DUP2 MSTORE PUSH1 0x20 ADD DUP1 PUSH2 0x31B4 PUSH1 0x22 SWAP2 CODECOPY PUSH1 0x40 ADD SWAP2 POP POP PUSH1 0x40 MLOAD DUP1 SWAP2 SUB SWAP1 REVERT JUMPDEST PUSH2 0x850 PUSH2 0x1F6E JUMP JUMPDEST PUSH1 0x1 PUSH1 0x1 PUSH1 0xA0 SHL SUB AND PUSH2 0x8FC DUP3 SWAP1 DUP2 ISZERO MUL SWAP1 PUSH1 0x40 MLOAD PUSH1 0x0 PUSH1 0x40 MLOAD DUP1 DUP4 SUB DUP2 DUP6 DUP9 DUP9 CALL SWAP4 POP POP POP POP PUSH2 0x8C8 JUMPI PUSH1 0x40 DUP1 MLOAD PUSH3 0x461BCD PUSH1 0xE5 SHL DUP2 MSTORE PUSH1 0x20 PUSH1 0x4 DUP3 ADD DUP2 SWAP1 MSTORE PUSH1 0x24 DUP3 ADD MSTORE PUSH32 0x5472616E73666572206F662045544820746F20537461746572206661696C6564 PUSH1 0x44 DUP3 ADD MSTORE SWAP1 MLOAD SWAP1 DUP2 SWAP1 SUB PUSH1 0x64 ADD SWAP1 REVERT JUMPDEST POP POP POP POP POP JUMP JUMPDEST DUP3 MLOAD DUP3 MLOAD DUP2 EQ DUP1 ISZERO PUSH2 0x8E1 JUMPI POP DUP1 DUP3 MLOAD EQ JUMPDEST PUSH2 0x932 JUMPI PUSH1 0x40 DUP1 MLOAD PUSH3 0x461BCD PUSH1 0xE5 SHL DUP2 MSTORE PUSH1 0x20 PUSH1 0x4 DUP3 ADD DUP2 SWAP1 MSTORE PUSH1 0x24 DUP3 ADD MSTORE PUSH32 0x546F6B656E20696E666F732070726F76696465642061726520696E76616C6964 PUSH1 0x44 DUP3 ADD MSTORE SWAP1 MLOAD SWAP1 DUP2 SWAP1 SUB PUSH1 0x64 ADD SWAP1 REVERT JUMPDEST PUSH1 0x0 JUMPDEST DUP2 DUP2 LT ISZERO PUSH2 0xADF JUMPI DUP3 DUP2 DUP2 MLOAD DUP2 LT PUSH2 0x949 JUMPI INVALID JUMPDEST PUSH1 0x20 MUL PUSH1 0x20 ADD ADD MLOAD PUSH1 0xFF AND PUSH1 0x0 EQ ISZERO PUSH2 0xA07 JUMPI DUP5 DUP2 DUP2 MLOAD DUP2 LT PUSH2 0x968 JUMPI INVALID JUMPDEST PUSH1 0x20 MUL PUSH1 0x20 ADD ADD MLOAD PUSH1 0x1 PUSH1 0x1 PUSH1 0xA0 SHL SUB AND PUSH4 0x42842E0E DUP9 DUP9 DUP8 DUP6 DUP2 MLOAD DUP2 LT PUSH2 0x98C JUMPI INVALID JUMPDEST PUSH1 0x20 MUL PUSH1 0x20 ADD ADD MLOAD PUSH1 0x40 MLOAD DUP5 PUSH4 0xFFFFFFFF AND PUSH1 0xE0 SHL DUP2 MSTORE PUSH1 0x4 ADD DUP1 DUP5 PUSH1 0x1 PUSH1 0x1 PUSH1 0xA0 SHL SUB AND DUP2 MSTORE PUSH1 0x20 ADD DUP4 PUSH1 0x1 PUSH1 0x1 PUSH1 0xA0 SHL SUB AND DUP2 MSTORE PUSH1 0x20 ADD DUP3 DUP2 MSTORE PUSH1 0x20 ADD SWAP4 POP POP POP POP PUSH1 0x0 PUSH1 0x40 MLOAD DUP1 DUP4 SUB DUP2 PUSH1 0x0 DUP8 DUP1 EXTCODESIZE ISZERO DUP1 ISZERO PUSH2 0x9EA JUMPI PUSH1 0x0 DUP1 REVERT JUMPDEST POP GAS CALL ISZERO DUP1 ISZERO PUSH2 0x9FE JUMPI RETURNDATASIZE PUSH1 0x0 DUP1 RETURNDATACOPY RETURNDATASIZE PUSH1 0x0 REVERT JUMPDEST POP POP POP POP PUSH2 0xAD7 JUMP JUMPDEST DUP5 DUP2 DUP2 MLOAD DUP2 LT PUSH2 0xA13 JUMPI INVALID JUMPDEST PUSH1 0x20 MUL PUSH1 0x20 ADD ADD MLOAD PUSH1 0x1 PUSH1 0x1 PUSH1 0xA0 SHL SUB AND PUSH4 0xF242432A DUP9 DUP9 DUP8 DUP6 DUP2 MLOAD DUP2 LT PUSH2 0xA37 JUMPI INVALID JUMPDEST PUSH1 0x20 MUL PUSH1 0x20 ADD ADD MLOAD PUSH1 0x1 PUSH1 0x40 MLOAD DUP6 PUSH4 0xFFFFFFFF AND PUSH1 0xE0 SHL DUP2 MSTORE PUSH1 0x4 ADD DUP1 DUP6 PUSH1 0x1 PUSH1 0x1 PUSH1 0xA0 SHL SUB AND DUP2 MSTORE PUSH1 0x20 ADD DUP5 PUSH1 0x1 PUSH1 0x1 PUSH1 0xA0 SHL SUB AND DUP2 MSTORE PUSH1 0x20 ADD DUP4 DUP2 MSTORE PUSH1 0x20 ADD DUP3 DUP2 MSTORE PUSH1 0x20 ADD DUP1 PUSH1 0x20 ADD DUP3 DUP2 SUB DUP3 MSTORE PUSH1 0x4 DUP2 MSTORE PUSH1 0x20 ADD DUP1 PUSH4 0x3078303 PUSH1 0xE4 SHL DUP2 MSTORE POP PUSH1 0x20 ADD SWAP6 POP POP POP POP POP POP PUSH1 0x0 PUSH1 0x40 MLOAD DUP1 DUP4 SUB DUP2 PUSH1 0x0 DUP8 DUP1 EXTCODESIZE ISZERO DUP1 ISZERO PUSH2 0xABE JUMPI PUSH1 0x0 DUP1 REVERT JUMPDEST POP GAS CALL ISZERO DUP1 ISZERO PUSH2 0xAD2 JUMPI RETURNDATASIZE PUSH1 0x0 DUP1 RETURNDATACOPY RETURNDATASIZE PUSH1 0x0 REVERT JUMPDEST POP POP POP POP JUMPDEST PUSH1 0x1 ADD PUSH2 0x935 JUMP JUMPDEST POP POP POP POP POP POP POP JUMP JUMPDEST PUSH1 0x0 DUP2 DUP2 MSTORE PUSH1 0xB PUSH1 0x20 MSTORE PUSH1 0x40 DUP1 DUP3 KECCAK256 DUP2 MLOAD PUSH2 0x160 DUP2 ADD SWAP1 SWAP3 MSTORE DUP1 SLOAD DUP4 SWAP3 SWAP2 SWAP1 DUP3 SWAP1 PUSH1 0xFF AND PUSH1 0x4 DUP2 GT ISZERO PUSH2 0xB17 JUMPI INVALID JUMPDEST PUSH1 0x4 DUP2 GT ISZERO PUSH2 0xB22 JUMPI INVALID JUMPDEST DUP2 MSTORE PUSH1 0x1 DUP3 ADD SLOAD PUSH1 0x20 DUP3 ADD MSTORE PUSH1 0x2 DUP1 DUP4 ADD SLOAD PUSH1 0xFF AND PUSH1 0x40 DUP1 DUP5 ADD SWAP2 SWAP1 SWAP2 MSTORE DUP1 MLOAD DUP1 DUP3 ADD SWAP2 DUP3 SWAP1 MSTORE PUSH1 0x60 SWAP1 SWAP4 ADD SWAP3 SWAP2 PUSH1 0x3 DUP6 ADD SWAP2 DUP3 DUP5 JUMPDEST DUP2 SLOAD DUP2 MSTORE PUSH1 0x20 ADD SWAP1 PUSH1 0x1 ADD SWAP1 DUP1 DUP4 GT PUSH2 0xB58 JUMPI POP POP POP SWAP2 DUP4 MSTORE POP POP PUSH1 0x5 DUP3 ADD SLOAD PUSH1 0x20 DUP1 DUP4 ADD SWAP2 SWAP1 SWAP2 MSTORE PUSH1 0x6 DUP4 ADD SLOAD PUSH1 0x40 DUP1 DUP5 ADD SWAP2 SWAP1 SWAP2 MSTORE PUSH1 0x7 DUP5 ADD SLOAD PUSH1 0x60 DUP5 ADD MSTORE PUSH1 0x8 DUP5 ADD SLOAD PUSH1 0x1 PUSH1 0x1 PUSH1 0xA0 SHL SUB SWAP1 DUP2 AND PUSH1 0x80 DUP6 ADD MSTORE PUSH1 0x9 DUP6 ADD SLOAD DUP2 AND PUSH1 0xA0 DUP6 ADD MSTORE PUSH1 0xA DUP1 DUP7 ADD SLOAD DUP3 AND PUSH1 0xC0 DUP7 ADD MSTORE PUSH1 0xB SWAP1 SWAP6 ADD SLOAD AND PUSH1 0xE0 SWAP1 SWAP4 ADD SWAP3 SWAP1 SWAP3 MSTORE PUSH1 0x0 DUP8 DUP2 MSTORE SWAP3 DUP2 MSTORE DUP2 DUP4 KECCAK256 DUP3 MLOAD DUP2 SLOAD PUSH2 0x180 SWAP4 DUP2 MUL DUP3 ADD DUP5 ADD SWAP1 SWAP5 MSTORE PUSH2 0x160 DUP2 ADD DUP5 DUP2 MSTORE SWAP6 SWAP7 POP SWAP4 SWAP5 SWAP1 SWAP3 DUP5 SWAP3 DUP5 SWAP2 SWAP1 DUP5 ADD DUP3 DUP3 DUP1 ISZERO PUSH2 0xC40 JUMPI PUSH1 0x20 MUL DUP3 ADD SWAP2 SWAP1 PUSH1 0x0 MSTORE PUSH1 0x20 PUSH1 0x0 KECCAK256 SWAP1 JUMPDEST DUP2 SLOAD PUSH1 0x1 PUSH1 0x1 PUSH1 0xA0 SHL SUB AND DUP2 MSTORE PUSH1 0x1 SWAP1 SWAP2 ADD SWAP1 PUSH1 0x20 ADD DUP1 DUP4 GT PUSH2 0xC22 JUMPI JUMPDEST POP POP POP SWAP2 DUP4 MSTORE POP POP PUSH1 0x1 DUP3 ADD SLOAD PUSH1 0x1 PUSH1 0x1 PUSH1 0xA0 SHL SUB SWAP1 DUP2 AND PUSH1 0x20 DUP1 DUP5 ADD SWAP2 SWAP1 SWAP2 MSTORE PUSH1 0x2 DUP5 ADD SLOAD DUP3 AND PUSH1 0x40 DUP1 DUP6 ADD SWAP2 SWAP1 SWAP2 MSTORE PUSH1 0x3 DUP6 ADD SLOAD SWAP1 SWAP3 AND PUSH1 0x60 DUP5 ADD MSTORE PUSH1 0x4 DUP5 ADD DUP1 SLOAD DUP4 MLOAD DUP2 DUP5 MUL DUP2 ADD DUP5 ADD SWAP1 SWAP5 MSTORE DUP1 DUP5 MSTORE PUSH1 0x80 SWAP1 SWAP5 ADD SWAP4 SWAP1 SWAP2 DUP4 ADD DUP3 DUP3 DUP1 ISZERO PUSH2 0xCCA JUMPI PUSH1 0x20 MUL DUP3 ADD SWAP2 SWAP1 PUSH1 0x0 MSTORE PUSH1 0x20 PUSH1 0x0 KECCAK256 SWAP1 JUMPDEST DUP2 SLOAD DUP2 MSTORE PUSH1 0x20 ADD SWAP1 PUSH1 0x1 ADD SWAP1 DUP1 DUP4 GT PUSH2 0xCB6 JUMPI JUMPDEST POP POP POP POP POP DUP2 MSTORE PUSH1 0x20 ADD PUSH1 0x5 DUP3 ADD SLOAD DUP2 MSTORE PUSH1 0x20 ADD PUSH1 0x6 DUP3 ADD SLOAD DUP2 MSTORE PUSH1 0x20 ADD PUSH1 0x7 DUP3 ADD SLOAD DUP2 MSTORE PUSH1 0x20 ADD PUSH1 0x8 DUP3 ADD SLOAD DUP2 MSTORE PUSH1 0x20 ADD PUSH1 0x9 DUP3 ADD PUSH1 0x0 SWAP1 SLOAD SWAP1 PUSH2 0x100 EXP SWAP1 DIV PUSH2 0xFFFF AND PUSH2 0xFFFF AND PUSH2 0xFFFF AND DUP2 MSTORE PUSH1 0x20 ADD PUSH1 0xA DUP3 ADD DUP1 SLOAD DUP1 PUSH1 0x20 MUL PUSH1 0x20 ADD PUSH1 0x40 MLOAD SWAP1 DUP2 ADD PUSH1 0x40 MSTORE DUP1 SWAP3 SWAP2 SWAP1 DUP2 DUP2 MSTORE PUSH1 0x20 ADD DUP3 DUP1 SLOAD DUP1 ISZERO PUSH2 0xD88 JUMPI PUSH1 0x20 MUL DUP3 ADD SWAP2 SWAP1 PUSH1 0x0 MSTORE PUSH1 0x20 PUSH1 0x0 KECCAK256 SWAP1 PUSH1 0x0 SWAP1 JUMPDEST DUP3 SLOAD PUSH2 0x100 DUP4 SWAP1 EXP SWAP1 DIV PUSH1 0xFF AND DUP2 MSTORE PUSH1 0x20 PUSH1 0x1 SWAP3 DUP4 ADD DUP2 DUP2 DIV SWAP5 DUP6 ADD SWAP5 SWAP1 SWAP4 SUB SWAP1 SWAP3 MUL SWAP2 ADD DUP1 DUP5 GT PUSH2 0xD59 JUMPI SWAP1 POP JUMPDEST POP POP POP POP POP DUP2 MSTORE POP POP SWAP1 POP DUP2 PUSH1 0xA0 ADD MLOAD DUP3 PUSH1 0xC0 ADD MLOAD LT PUSH2 0xDAD JUMPI PUSH1 0xB SWAP3 POP POP POP PUSH2 0x5A2 JUMP JUMPDEST PUSH1 0x0 DUP1 JUMPDEST DUP3 MLOAD MLOAD DUP2 LT ISZERO PUSH2 0xE93 JUMPI PUSH1 0x0 DUP1 PUSH1 0x0 DUP1 PUSH1 0x0 PUSH1 0xE PUSH1 0x0 SWAP1 SLOAD SWAP1 PUSH2 0x100 EXP SWAP1 DIV PUSH1 0x1 PUSH1 0x1 PUSH1 0xA0 SHL SUB AND PUSH1 0x1 PUSH1 0x1 PUSH1 0xA0 SHL SUB AND PUSH4 0x99FBAB88 DUP10 PUSH1 0x80 ADD MLOAD DUP9 DUP2 MLOAD DUP2 LT PUSH2 0xDF7 JUMPI INVALID JUMPDEST PUSH1 0x20 MUL PUSH1 0x20 ADD ADD MLOAD PUSH1 0x40 MLOAD DUP3 PUSH4 0xFFFFFFFF AND PUSH1 0xE0 SHL DUP2 MSTORE PUSH1 0x4 ADD PUSH2 0xE1B SWAP2 SWAP1 PUSH2 0x3068 JUMP JUMPDEST PUSH2 0x180 PUSH1 0x40 MLOAD DUP1 DUP4 SUB DUP2 DUP7 DUP1 EXTCODESIZE ISZERO DUP1 ISZERO PUSH2 0xE34 JUMPI PUSH1 0x0 DUP1 REVERT JUMPDEST POP GAS STATICCALL ISZERO DUP1 ISZERO PUSH2 0xE48 JUMPI RETURNDATASIZE PUSH1 0x0 DUP1 RETURNDATACOPY RETURNDATASIZE PUSH1 0x0 REVERT JUMPDEST POP POP POP POP PUSH1 0x40 MLOAD RETURNDATASIZE PUSH1 0x1F NOT PUSH1 0x1F DUP3 ADD AND DUP3 ADD DUP1 PUSH1 0x40 MSTORE POP DUP2 ADD SWAP1 PUSH2 0xE6C SWAP2 SWAP1 PUSH2 0x2DB4 JUMP JUMPDEST SWAP12 POP SWAP12 POP POP POP SWAP10 POP POP POP POP SWAP7 POP SWAP7 POP POP POP PUSH1 0x1 DUP8 ADD SWAP7 POP POP POP POP POP POP DUP1 PUSH1 0x1 ADD SWAP1 POP PUSH2 0xDB1 JUMP JUMPDEST POP DUP2 MLOAD MLOAD PUSH1 0xFF DUP3 AND DUP2 PUSH2 0xEA2 JUMPI INVALID JUMPDEST DIV SWAP6 SWAP5 POP POP POP POP POP JUMP JUMPDEST PUSH1 0x0 DUP5 PUSH2 0xFFFF AND GT DUP1 ISZERO PUSH2 0xEC0 JUMPI POP PUSH1 0x0 DUP6 GT JUMPDEST PUSH2 0xEC9 JUMPI PUSH1 0x0 DUP1 REVERT JUMPDEST PUSH1 0x0 DUP7 DUP2 MSTORE PUSH1 0xA PUSH1 0x20 MSTORE PUSH1 0x40 SWAP1 KECCAK256 PUSH1 0x1 ADD SLOAD PUSH1 0x1 PUSH1 0x1 PUSH1 0xA0 SHL SUB AND CALLER EQ PUSH2 0xEEF JUMPI PUSH1 0x0 DUP1 REVERT JUMPDEST PUSH1 0x1 PUSH1 0x0 DUP8 DUP2 MSTORE PUSH1 0xB PUSH1 0x20 MSTORE PUSH1 0x40 SWAP1 KECCAK256 SLOAD PUSH1 0xFF AND PUSH1 0x4 DUP2 GT ISZERO PUSH2 0xF0E JUMPI INVALID JUMPDEST LT PUSH2 0xF18 JUMPI PUSH1 0x0 DUP1 REVERT JUMPDEST PUSH1 0x0 DUP7 DUP2 MSTORE PUSH1 0xC PUSH1 0x20 MSTORE PUSH1 0x40 SWAP1 KECCAK256 SLOAD PUSH2 0xF31 DUP7 DUP5 PUSH2 0x23F3 JUMP JUMPDEST GT ISZERO PUSH2 0xF3C JUMPI PUSH1 0x0 DUP1 REVERT JUMPDEST PUSH1 0x0 DUP7 DUP2 MSTORE PUSH1 0xA PUSH1 0x20 SWAP1 DUP2 MSTORE PUSH1 0x40 DUP1 DUP4 KECCAK256 PUSH1 0x5 DUP2 ADD DUP6 SWAP1 SSTORE PUSH1 0x7 ADD DUP9 SWAP1 SSTORE PUSH1 0xC DUP3 MSTORE DUP1 DUP4 KECCAK256 PUSH1 0x1 ADD SLOAD PUSH1 0xB SWAP1 SWAP3 MSTORE DUP3 KECCAK256 PUSH1 0x64 SWAP2 DUP3 ADD DUP9 MUL SWAP2 SWAP1 SWAP2 DIV PUSH1 0x6 SWAP1 SWAP2 ADD DUP2 SWAP1 SSTORE PUSH2 0xFFFF DUP7 AND SWAP1 DUP2 PUSH2 0xF8C JUMPI INVALID JUMPDEST MOD GT PUSH2 0xFB7 JUMPI PUSH1 0x0 DUP7 DUP2 MSTORE PUSH1 0xB PUSH1 0x20 MSTORE PUSH1 0x40 SWAP1 KECCAK256 PUSH1 0x6 ADD SLOAD PUSH2 0xFFFF DUP6 AND SWAP1 DUP2 PUSH2 0xFB1 JUMPI INVALID JUMPDEST DIV PUSH2 0xFDB JUMP JUMPDEST PUSH1 0x0 DUP7 DUP2 MSTORE PUSH1 0xB PUSH1 0x20 MSTORE PUSH1 0x40 SWAP1 KECCAK256 PUSH1 0x6 ADD SLOAD PUSH2 0xFFFF DUP6 AND SWAP1 DUP2 PUSH2 0xFD6 JUMPI INVALID JUMPDEST DIV PUSH1 0x1 ADD JUMPDEST PUSH1 0x0 DUP8 DUP2 MSTORE PUSH1 0xB PUSH1 0x20 SWAP1 DUP2 MSTORE PUSH1 0x40 DUP1 DUP4 KECCAK256 PUSH1 0x5 ADD SWAP4 SWAP1 SWAP4 SSTORE PUSH1 0xA SWAP1 MSTORE KECCAK256 PUSH1 0x8 DUP2 ADD DUP4 SWAP1 SSTORE PUSH1 0x3 SWAP1 DUP2 ADD DUP1 SLOAD PUSH1 0x1 PUSH1 0x1 PUSH1 0xA0 SHL SUB NOT AND PUSH1 0x1 PUSH1 0x1 PUSH1 0xA0 SHL SUB DUP7 AND OR SWAP1 SSTORE PUSH2 0xFFFF DUP6 AND GT PUSH2 0x1048 JUMPI PUSH1 0x0 DUP7 DUP2 MSTORE PUSH1 0xB PUSH1 0x20 MSTORE PUSH1 0x40 SWAP1 KECCAK256 PUSH1 0x2 ADD DUP1 SLOAD PUSH1 0xFF NOT AND PUSH1 0x1 OR SWAP1 SSTORE PUSH2 0x10A0 JUMP JUMPDEST PUSH1 0x5 DUP5 PUSH2 0xFFFF AND GT PUSH2 0x1077 JUMPI PUSH1 0x0 DUP7 DUP2 MSTORE PUSH1 0xB PUSH1 0x20 MSTORE PUSH1 0x40 SWAP1 KECCAK256 PUSH1 0x2 SWAP1 DUP2 ADD DUP1 SLOAD PUSH1 0xFF NOT AND SWAP1 SWAP2 OR SWAP1 SSTORE PUSH2 0x10A0 JUMP JUMPDEST PUSH1 0x6 DUP5 PUSH2 0xFFFF AND LT PUSH2 0x10A0 JUMPI PUSH1 0x0 DUP7 DUP2 MSTORE PUSH1 0xB PUSH1 0x20 MSTORE PUSH1 0x40 SWAP1 KECCAK256 PUSH1 0x2 ADD DUP1 SLOAD PUSH1 0xFF NOT AND PUSH1 0x3 OR SWAP1 SSTORE JUMPDEST PUSH1 0x0 DUP7 DUP2 MSTORE PUSH1 0xB PUSH1 0x20 SWAP1 DUP2 MSTORE PUSH1 0x40 DUP1 DUP4 KECCAK256 PUSH1 0x6 DUP2 ADD SLOAD PUSH1 0x5 SWAP1 SWAP2 ADD SLOAD PUSH1 0xA SWAP1 SWAP4 MSTORE SWAP3 DUP2 SWAP1 KECCAK256 PUSH1 0x8 ADD SLOAD SWAP1 MLOAD DUP10 SWAP4 PUSH1 0x1 PUSH1 0x1 PUSH1 0xA0 SHL SUB DUP9 AND SWAP4 PUSH32 0x8E1902F1B79A83752DD0C0B34C25D3D3B241FBA59DEFC28B8FB8E182360136D1 SWAP4 PUSH2 0x110C SWAP4 DUP13 SWAP4 SWAP3 SWAP2 SWAP1 DUP10 SWAP1 DUP14 SWAP1 PUSH2 0x30A5 JUMP JUMPDEST PUSH1 0x40 MLOAD DUP1 SWAP2 SUB SWAP1 LOG3 POP POP POP POP POP POP JUMP JUMPDEST PUSH1 0xD SLOAD DUP2 JUMP JUMPDEST PUSH2 0x112B DUP3 PUSH2 0x2419 JUMP JUMPDEST PUSH1 0x0 DUP3 DUP2 MSTORE PUSH1 0xA PUSH1 0x20 MSTORE PUSH1 0x40 SWAP1 KECCAK256 PUSH1 0x3 ADD SLOAD PUSH1 0x1 PUSH1 0x1 PUSH1 0xA0 SHL SUB AND PUSH2 0x119D JUMPI PUSH1 0x0 DUP3 DUP2 MSTORE PUSH1 0xC PUSH1 0x20 SWAP1 DUP2 MSTORE PUSH1 0x40 DUP1 DUP4 KECCAK256 PUSH1 0x3 ADD SLOAD PUSH1 0xA SWAP1 SWAP3 MSTORE SWAP1 SWAP2 KECCAK256 PUSH1 0x7 ADD SLOAD PUSH4 0xFFFFFFFF SWAP1 SWAP2 AND SWAP1 DUP2 PUSH2 0x117B JUMPI INVALID JUMPDEST PUSH1 0x0 DUP5 DUP2 MSTORE PUSH1 0xA PUSH1 0x20 MSTORE PUSH1 0x40 SWAP1 KECCAK256 PUSH1 0x7 ADD SLOAD SWAP2 SWAP1 DIV ADD CALLVALUE LT ISZERO PUSH2 0x119D JUMPI PUSH1 0x0 DUP1 REVERT JUMPDEST PUSH1 0x0 DUP3 DUP2 MSTORE PUSH1 0xB PUSH1 0x20 SWAP1 DUP2 MSTORE PUSH1 0x40 DUP1 DUP4 KECCAK256 PUSH1 0x1 SWAP1 DUP2 ADD DUP6 SWAP1 SSTORE PUSH1 0xA DUP1 DUP5 MSTORE DUP3 DUP6 KECCAK256 SWAP2 DUP3 ADD SLOAD PUSH1 0x3 DUP1 DUP5 ADD SLOAD PUSH1 0x7 SWAP1 SWAP5 ADD SLOAD PUSH1 0xC DUP8 MSTORE SWAP5 SWAP1 SWAP7 KECCAK256 SWAP1 SWAP6 ADD SLOAD SWAP4 MSTORE PUSH2 0x1207 SWAP4 CALLER SWAP4 PUSH1 0x1 PUSH1 0x1 PUSH1 0xA0 SHL SUB SWAP2 DUP3 AND SWAP4 SWAP2 SWAP1 SWAP3 AND SWAP2 PUSH4 0xFFFFFFFF AND DUP2 DUP2 PUSH2 0x1201 JUMPI INVALID JUMPDEST DIV PUSH2 0x62F JUMP JUMPDEST POP POP JUMP JUMPDEST PUSH1 0x5 SLOAD DUP2 JUMP JUMPDEST PUSH2 0x1219 PUSH2 0x2536 JUMP JUMPDEST PUSH1 0x1 PUSH1 0x1 PUSH1 0xA0 SHL SUB AND PUSH2 0x122A PUSH2 0x1F6E JUMP JUMPDEST PUSH1 0x1 PUSH1 0x1 PUSH1 0xA0 SHL SUB AND EQ PUSH2 0x1285 JUMPI PUSH1 0x40 DUP1 MLOAD PUSH3 0x461BCD PUSH1 0xE5 SHL DUP2 MSTORE PUSH1 0x20 PUSH1 0x4 DUP3 ADD DUP2 SWAP1 MSTORE PUSH1 0x24 DUP3 ADD MSTORE PUSH32 0x4F776E61626C653A2063616C6C6572206973206E6F7420746865206F776E6572 PUSH1 0x44 DUP3 ADD MSTORE SWAP1 MLOAD SWAP1 DUP2 SWAP1 SUB PUSH1 0x64 ADD SWAP1 REVERT JUMPDEST PUSH2 0x128F PUSH1 0x0 PUSH2 0x253A JUMP JUMPDEST JUMP JUMPDEST PUSH1 0x0 DUP2 PUSH1 0xC0 ADD MLOAD PUSH2 0xFFFF AND GT DUP1 ISZERO PUSH2 0x12AD JUMPI POP PUSH1 0x0 DUP2 PUSH1 0x40 ADD MLOAD GT JUMPDEST DUP1 ISZERO PUSH2 0x12BE JUMPI POP PUSH1 0x0 DUP2 PUSH1 0x20 ADD MLOAD MLOAD GT JUMPDEST PUSH2 0x12C7 JUMPI PUSH1 0x0 DUP1 REVERT JUMPDEST DUP1 PUSH1 0xA0 ADD MLOAD MLOAD DUP2 PUSH1 0x20 ADD MLOAD MLOAD EQ DUP1 ISZERO PUSH2 0x12E9 JUMPI POP DUP1 PUSH1 0xE0 ADD MLOAD MLOAD DUP2 PUSH1 0xA0 ADD MLOAD MLOAD EQ JUMPDEST PUSH2 0x12F2 JUMPI PUSH1 0x0 DUP1 REVERT JUMPDEST PUSH1 0x5 SLOAD PUSH2 0x1307 DUP3 PUSH1 0x40 ADD MLOAD DUP4 PUSH1 0x80 ADD MLOAD PUSH2 0x23F3 JUMP JUMPDEST GT ISZERO PUSH2 0x1312 JUMPI PUSH1 0x0 DUP1 REVERT JUMPDEST PUSH1 0x80 DUP2 ADD MLOAD PUSH1 0x9 SLOAD PUSH1 0x0 SWAP1 DUP2 MSTORE PUSH1 0xA PUSH1 0x20 MSTORE PUSH1 0x40 SWAP1 KECCAK256 PUSH1 0x8 ADD SSTORE PUSH1 0xC0 DUP2 ADD MLOAD PUSH1 0x3 PUSH2 0xFFFF SWAP1 SWAP2 AND GT PUSH2 0x1362 JUMPI PUSH1 0x9 SLOAD PUSH1 0x0 SWAP1 DUP2 MSTORE PUSH1 0xB PUSH1 0x20 MSTORE PUSH1 0x40 SWAP1 KECCAK256 PUSH1 0x2 ADD DUP1 SLOAD PUSH1 0xFF NOT AND PUSH1 0x1 OR SWAP1 SSTORE PUSH2 0x13C8 JUMP JUMPDEST PUSH1 0x5 DUP2 PUSH1 0xC0 ADD MLOAD PUSH2 0xFFFF AND GT PUSH2 0x1398 JUMPI PUSH1 0x9 SLOAD PUSH1 0x0 SWAP1 DUP2 MSTORE PUSH1 0xB PUSH1 0x20 MSTORE PUSH1 0x40 SWAP1 KECCAK256 PUSH1 0x2 SWAP1 DUP2 ADD DUP1 SLOAD PUSH1 0xFF NOT AND SWAP1 SWAP2 OR SWAP1 SSTORE PUSH2 0x13C8 JUMP JUMPDEST PUSH1 0x6 DUP2 PUSH1 0xC0 ADD MLOAD PUSH2 0xFFFF AND LT PUSH2 0x13C8 JUMPI PUSH1 0x9 SLOAD PUSH1 0x0 SWAP1 DUP2 MSTORE PUSH1 0xB PUSH1 0x20 MSTORE PUSH1 0x40 SWAP1 KECCAK256 PUSH1 0x2 ADD DUP1 SLOAD PUSH1 0xFF NOT AND PUSH1 0x3 OR SWAP1 SSTORE JUMPDEST DUP1 PUSH1 0xA0 ADD MLOAD PUSH1 0xA PUSH1 0x0 PUSH1 0x9 SLOAD DUP2 MSTORE PUSH1 0x20 ADD SWAP1 DUP2 MSTORE PUSH1 0x20 ADD PUSH1 0x0 KECCAK256 PUSH1 0x4 ADD SWAP1 DUP1 MLOAD SWAP1 PUSH1 0x20 ADD SWAP1 PUSH2 0x13F8 SWAP3 SWAP2 SWAP1 PUSH2 0x2615 JUMP JUMPDEST POP PUSH1 0x40 DUP2 DUP2 ADD DUP1 MLOAD PUSH1 0x9 DUP1 SLOAD PUSH1 0x0 SWAP1 DUP2 MSTORE PUSH1 0xA PUSH1 0x20 DUP2 DUP2 MSTORE DUP7 DUP4 KECCAK256 PUSH1 0x7 ADD SWAP5 SWAP1 SWAP5 SSTORE DUP3 SLOAD DUP3 MSTORE PUSH1 0xC DUP5 MSTORE DUP6 DUP3 KECCAK256 PUSH1 0x1 ADD SLOAD SWAP5 MLOAD PUSH1 0xB DUP1 DUP7 MSTORE DUP8 DUP5 KECCAK256 PUSH1 0x64 SWAP8 DUP9 ADD SWAP1 SWAP3 MUL SWAP7 SWAP1 SWAP7 DIV PUSH1 0x6 SWAP2 DUP3 ADD SSTORE PUSH1 0xC0 DUP9 ADD DUP1 MLOAD DUP6 SLOAD DUP6 MSTORE SWAP3 DUP7 MSTORE DUP8 DUP5 KECCAK256 DUP6 ADD DUP1 SLOAD PUSH2 0xFFFF NOT AND PUSH2 0xFFFF SWAP5 DUP6 AND OR SWAP1 SSTORE MLOAD SWAP4 SLOAD DUP4 MSTORE SWAP5 SWAP1 SWAP4 MSTORE SWAP4 DUP5 KECCAK256 SWAP1 SWAP3 ADD SLOAD SWAP2 AND SWAP1 DUP2 PUSH2 0x1481 JUMPI INVALID JUMPDEST MOD GT PUSH2 0x14B6 JUMPI DUP1 PUSH1 0xC0 ADD MLOAD PUSH2 0xFFFF AND PUSH1 0xB PUSH1 0x0 PUSH1 0x9 SLOAD DUP2 MSTORE PUSH1 0x20 ADD SWAP1 DUP2 MSTORE PUSH1 0x20 ADD PUSH1 0x0 KECCAK256 PUSH1 0x6 ADD SLOAD DUP2 PUSH2 0x14B0 JUMPI INVALID JUMPDEST DIV PUSH2 0x14E4 JUMP JUMPDEST DUP1 PUSH1 0xC0 ADD MLOAD PUSH2 0xFFFF AND PUSH1 0xB PUSH1 0x0 PUSH1 0x9 SLOAD DUP2 MSTORE PUSH1 0x20 ADD SWAP1 DUP2 MSTORE PUSH1 0x20 ADD PUSH1 0x0 KECCAK256 PUSH1 0x6 ADD SLOAD DUP2 PUSH2 0x14DF JUMPI INVALID JUMPDEST DIV PUSH1 0x1 ADD JUMPDEST PUSH1 0x9 DUP1 SLOAD PUSH1 0x0 SWAP1 DUP2 MSTORE PUSH1 0xB PUSH1 0x20 DUP2 DUP2 MSTORE PUSH1 0x40 DUP1 DUP5 KECCAK256 PUSH1 0x5 ADD SWAP6 SWAP1 SWAP6 SSTORE DUP4 SLOAD DUP4 MSTORE DUP5 DUP4 KECCAK256 DUP1 SLOAD PUSH1 0xFF NOT AND SWAP1 SSTORE PUSH1 0x1 SLOAD DUP5 SLOAD DUP5 MSTORE DUP6 DUP5 KECCAK256 PUSH1 0x8 ADD DUP1 SLOAD PUSH1 0x1 PUSH1 0x1 PUSH1 0xA0 SHL SUB NOT SWAP1 DUP2 AND PUSH1 0x1 PUSH1 0x1 PUSH1 0xA0 SHL SUB SWAP4 DUP5 AND OR SWAP1 SWAP2 SSTORE PUSH1 0x2 SLOAD DUP7 SLOAD DUP7 MSTORE DUP8 DUP7 KECCAK256 DUP8 ADD DUP1 SLOAD DUP4 AND SWAP2 DUP5 AND SWAP2 SWAP1 SWAP2 OR SWAP1 SSTORE PUSH1 0x3 SLOAD DUP7 SLOAD DUP7 MSTORE DUP8 DUP7 KECCAK256 PUSH1 0xA SWAP1 DUP2 ADD DUP1 SLOAD DUP5 AND SWAP3 DUP6 AND SWAP3 SWAP1 SWAP3 OR SWAP1 SWAP2 SSTORE PUSH1 0x4 SLOAD DUP8 SLOAD DUP8 MSTORE DUP9 DUP8 KECCAK256 SWAP1 SWAP6 ADD DUP1 SLOAD SWAP1 SWAP3 AND SWAP5 SWAP1 SWAP3 AND SWAP4 SWAP1 SWAP4 OR SWAP1 SWAP3 SSTORE DUP6 DUP2 ADD MLOAD SWAP4 SLOAD DUP4 MSTORE SWAP1 DUP2 MSTORE SWAP3 SWAP1 KECCAK256 DUP2 MLOAD PUSH2 0x15AB SWAP4 SWAP2 SWAP3 SWAP1 SWAP2 ADD SWAP1 PUSH2 0x2660 JUMP JUMPDEST POP PUSH1 0x9 DUP1 SLOAD PUSH1 0x0 SWAP1 DUP2 MSTORE PUSH1 0xA PUSH1 0x20 DUP2 DUP2 MSTORE PUSH1 0x40 DUP1 DUP5 KECCAK256 PUSH1 0x1 ADD DUP1 SLOAD CALLER PUSH1 0x1 PUSH1 0x1 PUSH1 0xA0 SHL SUB NOT SWAP2 DUP3 AND OR SWAP1 SWAP2 SSTORE DUP7 MLOAD DUP7 SLOAD DUP7 MSTORE DUP3 DUP7 KECCAK256 PUSH1 0x3 ADD DUP1 SLOAD SWAP1 SWAP3 AND PUSH1 0x1 PUSH1 0x1 PUSH1 0xA0 SHL SUB SWAP1 SWAP2 AND OR SWAP1 SSTORE PUSH1 0xE0 DUP7 ADD MLOAD SWAP5 SLOAD DUP5 MSTORE SWAP1 SWAP3 KECCAK256 DUP4 MLOAD PUSH2 0x1614 SWAP5 SWAP2 SWAP1 SWAP3 ADD SWAP3 ADD SWAP1 PUSH2 0x26B5 JUMP JUMPDEST POP PUSH3 0x93A80 PUSH1 0xA PUSH1 0x0 PUSH1 0x9 SLOAD DUP2 MSTORE PUSH1 0x20 ADD SWAP1 DUP2 MSTORE PUSH1 0x20 ADD PUSH1 0x0 KECCAK256 PUSH1 0x5 ADD DUP2 SWAP1 SSTORE POP PUSH2 0x164E CALLER ADDRESS DUP4 PUSH1 0x20 ADD MLOAD DUP5 PUSH1 0xA0 ADD MLOAD DUP6 PUSH1 0xE0 ADD MLOAD PUSH2 0x8CF JUMP JUMPDEST PUSH1 0x9 SLOAD DUP2 PUSH1 0x0 ADD MLOAD PUSH1 0x1 PUSH1 0x1 PUSH1 0xA0 SHL SUB AND CALLER PUSH1 0x1 PUSH1 0x1 PUSH1 0xA0 SHL SUB AND PUSH32 0x6B4FA68493C57D0A3BCFE8FD7DB7297B3F4ED7C3F730FD563791EAAFA27439D DUP5 PUSH1 0x20 ADD MLOAD DUP6 PUSH1 0xA0 ADD MLOAD DUP7 PUSH1 0xE0 ADD MLOAD PUSH1 0x40 MLOAD PUSH2 0x16A8 SWAP4 SWAP3 SWAP2 SWAP1 PUSH2 0x2F3C JUMP JUMPDEST PUSH1 0x40 MLOAD DUP1 SWAP2 SUB SWAP1 LOG4 POP PUSH1 0x9 DUP1 SLOAD PUSH1 0x1 ADD SWAP1 SSTORE JUMP JUMPDEST PUSH1 0x6 SLOAD DUP2 JUMP JUMPDEST PUSH1 0x0 DUP2 DUP2 MSTORE PUSH1 0xA PUSH1 0x20 MSTORE PUSH1 0x40 SWAP1 KECCAK256 PUSH1 0x1 ADD SLOAD PUSH1 0x1 PUSH1 0x1 PUSH1 0xA0 SHL SUB AND CALLER EQ DUP1 PUSH2 0x1703 JUMPI POP PUSH1 0x0 DUP2 DUP2 MSTORE PUSH1 0xA PUSH1 0x20 MSTORE PUSH1 0x40 SWAP1 KECCAK256 PUSH1 0x2 ADD SLOAD PUSH1 0x1 PUSH1 0x1 PUSH1 0xA0 SHL SUB AND CALLER EQ JUMPDEST PUSH2 0x170C JUMPI PUSH1 0x0 DUP1 REVERT JUMPDEST PUSH1 0x0 DUP2 DUP2 MSTORE PUSH1 0xB PUSH1 0x20 MSTORE PUSH1 0x40 SWAP1 KECCAK256 PUSH1 0x4 ADD SLOAD TIMESTAMP LT ISZERO DUP1 PUSH2 0x1743 JUMPI POP PUSH1 0x0 DUP2 DUP2 MSTORE PUSH1 0xB PUSH1 0x20 MSTORE PUSH1 0x40 SWAP1 KECCAK256 PUSH1 0x6 DUP2 ADD SLOAD PUSH1 0x7 SWAP1 SWAP2 ADD SLOAD LT ISZERO JUMPDEST DUP1 PUSH2 0x1759 JUMPI POP PUSH1 0x1 PUSH2 0x1754 DUP3 PUSH2 0xAE8 JUMP JUMPDEST PUSH1 0xFF AND LT JUMPDEST PUSH2 0x1762 JUMPI PUSH1 0x0 DUP1 REVERT JUMPDEST PUSH1 0x2 PUSH1 0x0 DUP3 DUP2 MSTORE PUSH1 0xB PUSH1 0x20 MSTORE PUSH1 0x40 SWAP1 KECCAK256 SLOAD PUSH1 0xFF AND PUSH1 0x4 DUP2 GT ISZERO PUSH2 0x1781 JUMPI INVALID JUMPDEST EQ DUP1 PUSH2 0x17A9 JUMPI POP PUSH1 0x1 PUSH1 0x0 DUP3 DUP2 MSTORE PUSH1 0xB PUSH1 0x20 MSTORE PUSH1 0x40 SWAP1 KECCAK256 SLOAD PUSH1 0xFF AND PUSH1 0x4 DUP2 GT ISZERO PUSH2 0x17A7 JUMPI INVALID JUMPDEST EQ JUMPDEST PUSH2 0x17B2 JUMPI PUSH1 0x0 DUP1 REVERT JUMPDEST PUSH1 0x1 PUSH2 0x17BD DUP3 PUSH2 0xAE8 JUMP JUMPDEST PUSH1 0xFF AND LT ISZERO PUSH2 0x193D JUMPI PUSH1 0x0 DUP2 DUP2 MSTORE PUSH1 0xB PUSH1 0x20 SWAP1 DUP2 MSTORE PUSH1 0x40 DUP1 DUP4 KECCAK256 DUP1 SLOAD PUSH1 0xFF NOT AND PUSH1 0x4 SWAP1 DUP2 OR DUP3 SSTORE TIMESTAMP SWAP2 ADD SSTORE PUSH1 0xA DUP3 MSTORE SWAP2 DUP3 SWAP1 KECCAK256 PUSH1 0x2 DUP2 ADD SLOAD DUP2 SLOAD DUP5 MLOAD DUP2 DUP6 MUL DUP2 ADD DUP6 ADD SWAP1 SWAP6 MSTORE DUP1 DUP6 MSTORE PUSH2 0x1938 SWAP5 ADDRESS SWAP5 PUSH1 0x1 PUSH1 0x1 PUSH1 0xA0 SHL SUB SWAP1 SWAP4 AND SWAP4 SWAP1 SWAP3 SWAP1 SWAP2 SWAP1 DUP4 ADD DUP3 DUP3 DUP1 ISZERO PUSH2 0x1856 JUMPI PUSH1 0x20 MUL DUP3 ADD SWAP2 SWAP1 PUSH1 0x0 MSTORE PUSH1 0x20 PUSH1 0x0 KECCAK256 SWAP1 JUMPDEST DUP2 SLOAD PUSH1 0x1 PUSH1 0x1 PUSH1 0xA0 SHL SUB AND DUP2 MSTORE PUSH1 0x1 SWAP1 SWAP2 ADD SWAP1 PUSH1 0x20 ADD DUP1 DUP4 GT PUSH2 0x1838 JUMPI JUMPDEST POP POP POP PUSH1 0x0 DUP8 DUP2 MSTORE PUSH1 0xA PUSH1 0x20 SWAP1 DUP2 MSTORE PUSH1 0x40 SWAP2 DUP3 SWAP1 KECCAK256 PUSH1 0x4 ADD DUP1 SLOAD DUP4 MLOAD DUP2 DUP5 MUL DUP2 ADD DUP5 ADD SWAP1 SWAP5 MSTORE DUP1 DUP5 MSTORE SWAP3 SWAP5 POP SWAP3 POP DUP4 ADD DUP3 DUP3 DUP1 ISZERO PUSH2 0x18B3 JUMPI PUSH1 0x20 MUL DUP3 ADD SWAP2 SWAP1 PUSH1 0x0 MSTORE PUSH1 0x20 PUSH1 0x0 KECCAK256 SWAP1 JUMPDEST DUP2 SLOAD DUP2 MSTORE PUSH1 0x20 ADD SWAP1 PUSH1 0x1 ADD SWAP1 DUP1 DUP4 GT PUSH2 0x189F JUMPI JUMPDEST POP POP POP PUSH1 0x0 DUP9 DUP2 MSTORE PUSH1 0xA PUSH1 0x20 DUP2 DUP2 MSTORE PUSH1 0x40 SWAP3 DUP4 SWAP1 KECCAK256 SWAP1 SWAP2 ADD DUP1 SLOAD DUP4 MLOAD DUP2 DUP5 MUL DUP2 ADD DUP5 ADD SWAP1 SWAP5 MSTORE DUP1 DUP5 MSTORE SWAP3 SWAP5 POP SWAP3 POP DUP4 ADD DUP3 DUP3 DUP1 ISZERO PUSH2 0x192E JUMPI PUSH1 0x20 MUL DUP3 ADD SWAP2 SWAP1 PUSH1 0x0 MSTORE PUSH1 0x20 PUSH1 0x0 KECCAK256 SWAP1 PUSH1 0x0 SWAP1 JUMPDEST DUP3 SLOAD PUSH2 0x100 DUP4 SWAP1 EXP SWAP1 DIV PUSH1 0xFF AND DUP2 MSTORE PUSH1 0x20 PUSH1 0x1 SWAP3 DUP4 ADD DUP2 DUP2 DIV SWAP5 DUP6 ADD SWAP5 SWAP1 SWAP4 SUB SWAP1 SWAP3 MUL SWAP2 ADD DUP1 DUP5 GT PUSH2 0x18FF JUMPI SWAP1 POP JUMPDEST POP POP POP POP POP PUSH2 0x8CF JUMP JUMPDEST PUSH2 0x1C2F JUMP JUMPDEST PUSH1 0x0 DUP2 DUP2 MSTORE PUSH1 0xB PUSH1 0x20 MSTORE PUSH1 0x40 SWAP1 KECCAK256 PUSH1 0x4 ADD SLOAD TIMESTAMP LT DUP1 ISZERO SWAP1 PUSH2 0x1974 JUMPI POP PUSH1 0x0 DUP2 DUP2 MSTORE PUSH1 0xB PUSH1 0x20 MSTORE PUSH1 0x40 SWAP1 KECCAK256 PUSH1 0x6 DUP2 ADD SLOAD PUSH1 0x7 SWAP1 SWAP2 ADD SLOAD LT JUMPDEST ISZERO PUSH2 0x1AC5 JUMPI PUSH1 0x0 DUP2 DUP2 MSTORE PUSH1 0xB PUSH1 0x20 SWAP1 DUP2 MSTORE PUSH1 0x40 DUP1 DUP4 KECCAK256 DUP1 SLOAD PUSH1 0xFF NOT AND PUSH1 0x4 OR SWAP1 SSTORE PUSH1 0xA DUP3 MSTORE SWAP2 DUP3 SWAP1 KECCAK256 PUSH1 0x2 DUP2 ADD SLOAD DUP2 SLOAD DUP5 MLOAD DUP2 DUP6 MUL DUP2 ADD DUP6 ADD SWAP1 SWAP6 MSTORE DUP1 DUP6 MSTORE PUSH2 0x1938 SWAP5 ADDRESS SWAP5 PUSH1 0x1 PUSH1 0x1 PUSH1 0xA0 SHL SUB SWAP1 SWAP4 AND SWAP4 SWAP1 SWAP3 SWAP1 SWAP2 SWAP1 DUP4 ADD DUP3 DUP3 DUP1 ISZERO PUSH2 0x1856 JUMPI PUSH1 0x20 MUL DUP3 ADD SWAP2 SWAP1 PUSH1 0x0 MSTORE PUSH1 0x20 PUSH1 0x0 KECCAK256 SWAP1 DUP2 SLOAD PUSH1 0x1 PUSH1 0x1 PUSH1 0xA0 SHL SUB AND DUP2 MSTORE PUSH1 0x1 SWAP1 SWAP2 ADD SWAP1 PUSH1 0x20 ADD DUP1 DUP4 GT PUSH2 0x1838 JUMPI POP POP POP PUSH1 0x0 DUP8 DUP2 MSTORE PUSH1 0xA PUSH1 0x20 SWAP1 DUP2 MSTORE PUSH1 0x40 SWAP2 DUP3 SWAP1 KECCAK256 PUSH1 0x4 ADD DUP1 SLOAD DUP4 MLOAD DUP2 DUP5 MUL DUP2 ADD DUP5 ADD SWAP1 SWAP5 MSTORE DUP1 DUP5 MSTORE SWAP3 SWAP5 POP SWAP3 POP DUP4 ADD DUP3 DUP3 DUP1 ISZERO PUSH2 0x18B3 JUMPI PUSH1 0x20 MUL DUP3 ADD SWAP2 SWAP1 PUSH1 0x0 MSTORE PUSH1 0x20 PUSH1 0x0 KECCAK256 SWAP1 DUP2 SLOAD DUP2 MSTORE PUSH1 0x20 ADD SWAP1 PUSH1 0x1 ADD SWAP1 DUP1 DUP4 GT PUSH2 0x189F JUMPI POP POP POP PUSH1 0x0 DUP9 DUP2 MSTORE PUSH1 0xA PUSH1 0x20 DUP2 DUP2 MSTORE PUSH1 0x40 SWAP3 DUP4 SWAP1 KECCAK256 SWAP1 SWAP2 ADD DUP1 SLOAD DUP4 MLOAD DUP2 DUP5 MUL DUP2 ADD DUP5 ADD SWAP1 SWAP5 MSTORE DUP1 DUP5 MSTORE SWAP3 SWAP5 POP SWAP3 POP DUP4 ADD DUP3 DUP3 DUP1 ISZERO PUSH2 0x192E JUMPI PUSH1 0x0 SWAP2 DUP3 MSTORE PUSH1 0x20 SWAP2 DUP3 SWAP1 KECCAK256 DUP1 SLOAD PUSH1 0xFF AND DUP5 MSTORE SWAP1 DUP3 MUL DUP4 ADD SWAP3 SWAP1 SWAP2 PUSH1 0x1 SWAP2 ADD DUP1 DUP5 GT PUSH2 0x18FF JUMPI SWAP1 POP POP POP POP POP POP PUSH2 0x8CF JUMP JUMPDEST PUSH1 0x0 DUP2 DUP2 MSTORE PUSH1 0xB PUSH1 0x20 MSTORE PUSH1 0x40 SWAP1 KECCAK256 PUSH1 0x6 DUP2 ADD SLOAD PUSH1 0x7 SWAP1 SWAP2 ADD SLOAD LT PUSH2 0x1C2F JUMPI PUSH1 0x0 DUP2 DUP2 MSTORE PUSH1 0xB PUSH1 0x20 SWAP1 DUP2 MSTORE PUSH1 0x40 DUP1 DUP4 KECCAK256 DUP1 SLOAD PUSH1 0xFF NOT AND PUSH1 0x4 OR SWAP1 SSTORE PUSH1 0xA DUP3 MSTORE SWAP2 DUP3 SWAP1 KECCAK256 PUSH1 0x1 DUP2 ADD SLOAD DUP2 SLOAD DUP5 MLOAD DUP2 DUP6 MUL DUP2 ADD DUP6 ADD SWAP1 SWAP6 MSTORE DUP1 DUP6 MSTORE PUSH2 0x1C2F SWAP5 ADDRESS SWAP5 PUSH1 0x1 PUSH1 0x1 PUSH1 0xA0 SHL SUB SWAP1 SWAP4 AND SWAP4 SWAP1 SWAP3 SWAP1 SWAP2 SWAP1 DUP4 ADD DUP3 DUP3 DUP1 ISZERO PUSH2 0x1856 JUMPI PUSH1 0x20 MUL DUP3 ADD SWAP2 SWAP1 PUSH1 0x0 MSTORE PUSH1 0x20 PUSH1 0x0 KECCAK256 SWAP1 DUP2 SLOAD PUSH1 0x1 PUSH1 0x1 PUSH1 0xA0 SHL SUB AND DUP2 MSTORE PUSH1 0x1 SWAP1 SWAP2 ADD SWAP1 PUSH1 0x20 ADD DUP1 DUP4 GT PUSH2 0x1838 JUMPI POP POP POP PUSH1 0x0 DUP8 DUP2 MSTORE PUSH1 0xA PUSH1 0x20 SWAP1 DUP2 MSTORE PUSH1 0x40 SWAP2 DUP3 SWAP1 KECCAK256 PUSH1 0x4 ADD DUP1 SLOAD DUP4 MLOAD DUP2 DUP5 MUL DUP2 ADD DUP5 ADD SWAP1 SWAP5 MSTORE DUP1 DUP5 MSTORE SWAP3 SWAP5 POP SWAP3 POP DUP4 ADD DUP3 DUP3 DUP1 ISZERO PUSH2 0x18B3 JUMPI PUSH1 0x20 MUL DUP3 ADD SWAP2 SWAP1 PUSH1 0x0 MSTORE PUSH1 0x20 PUSH1 0x0 KECCAK256 SWAP1 DUP2 SLOAD DUP2 MSTORE PUSH1 0x20 ADD SWAP1 PUSH1 0x1 ADD SWAP1 DUP1 DUP4 GT PUSH2 0x189F JUMPI POP POP POP PUSH1 0x0 DUP9 DUP2 MSTORE PUSH1 0xA PUSH1 0x20 DUP2 DUP2 MSTORE PUSH1 0x40 SWAP3 DUP4 SWAP1 KECCAK256 SWAP1 SWAP2 ADD DUP1 SLOAD DUP4 MLOAD DUP2 DUP5 MUL DUP2 ADD DUP5 ADD SWAP1 SWAP5 MSTORE DUP1 DUP5 MSTORE SWAP3 SWAP5 POP SWAP3 POP DUP4 ADD DUP3 DUP3 DUP1 ISZERO PUSH2 0x192E JUMPI PUSH1 0x0 SWAP2 DUP3 MSTORE PUSH1 0x20 SWAP2 DUP3 SWAP1 KECCAK256 DUP1 SLOAD PUSH1 0xFF AND DUP5 MSTORE SWAP1 DUP3 MUL DUP4 ADD SWAP3 SWAP1 SWAP2 PUSH1 0x1 SWAP2 ADD DUP1 DUP5 GT PUSH2 0x18FF JUMPI SWAP1 POP POP POP POP POP POP PUSH2 0x8CF JUMP JUMPDEST PUSH1 0x0 DUP2 DUP2 MSTORE PUSH1 0xB PUSH1 0x20 MSTORE PUSH1 0x40 SWAP1 DUP2 SWAP1 KECCAK256 SLOAD SWAP1 MLOAD DUP3 SWAP2 CALLER SWAP2 PUSH32 0x174EFCA9557CE00D5A6F26355F73E3873FED7D6F8248757750569E4699146C67 SWAP2 PUSH2 0x1C77 SWAP2 PUSH1 0xFF SWAP1 SWAP2 AND SWAP1 PUSH2 0x2FF2 JUMP JUMPDEST PUSH1 0x40 MLOAD DUP1 SWAP2 SUB SWAP1 LOG3 POP JUMP JUMPDEST PUSH1 0xC PUSH1 0x20 MSTORE PUSH1 0x0 SWAP1 DUP2 MSTORE PUSH1 0x40 SWAP1 KECCAK256 DUP1 SLOAD PUSH1 0x1 DUP3 ADD SLOAD PUSH1 0x2 DUP4 ADD SLOAD PUSH1 0x3 SWAP1 SWAP4 ADD SLOAD SWAP2 SWAP3 SWAP1 SWAP2 PUSH4 0xFFFFFFFF AND DUP5 JUMP JUMPDEST PUSH1 0x0 DUP3 DUP2 MSTORE PUSH1 0xA PUSH1 0x20 MSTORE PUSH1 0x40 SWAP1 KECCAK256 PUSH1 0x1 ADD SLOAD PUSH1 0x1 PUSH1 0x1 PUSH1 0xA0 SHL SUB AND CALLER EQ PUSH2 0x1CD5 JUMPI PUSH1 0x0 DUP1 REVERT JUMPDEST PUSH1 0x1 PUSH1 0x0 DUP4 DUP2 MSTORE PUSH1 0xB PUSH1 0x20 MSTORE PUSH1 0x40 SWAP1 KECCAK256 SLOAD PUSH1 0xFF AND PUSH1 0x4 DUP2 GT ISZERO PUSH2 0x1CF4 JUMPI INVALID JUMPDEST EQ PUSH2 0x1CFE JUMPI PUSH1 0x0 DUP1 REVERT JUMPDEST PUSH1 0x0 DUP3 DUP2 MSTORE PUSH1 0xB PUSH1 0x20 MSTORE PUSH1 0x40 SWAP1 KECCAK256 PUSH1 0x4 ADD SLOAD TIMESTAMP GT ISZERO PUSH2 0x1D1C JUMPI PUSH1 0x0 DUP1 REVERT JUMPDEST PUSH1 0x0 CALLVALUE GT DUP1 ISZERO PUSH2 0x1D44 JUMPI POP PUSH1 0x0 DUP3 DUP2 MSTORE PUSH1 0xA PUSH1 0x20 MSTORE PUSH1 0x40 SWAP1 KECCAK256 PUSH1 0x3 ADD SLOAD PUSH1 0x1 PUSH1 0x1 PUSH1 0xA0 SHL SUB AND ISZERO JUMPDEST DUP1 ISZERO PUSH2 0x1D4F JUMPI POP DUP1 CALLVALUE EQ JUMPDEST DUP1 PUSH2 0x1D88 JUMPI POP PUSH1 0x0 DUP3 DUP2 MSTORE PUSH1 0xA PUSH1 0x20 MSTORE PUSH1 0x40 SWAP1 KECCAK256 PUSH1 0x3 ADD SLOAD PUSH1 0x1 PUSH1 0x1 PUSH1 0xA0 SHL SUB AND ISZERO DUP1 ISZERO SWAP1 PUSH2 0x1D7C JUMPI POP CALLVALUE ISZERO JUMPDEST DUP1 ISZERO PUSH2 0x1D88 JUMPI POP PUSH1 0x0 DUP2 GT JUMPDEST PUSH2 0x1D91 JUMPI PUSH1 0x0 DUP1 REVERT JUMPDEST PUSH1 0x0 DUP1 CALLVALUE GT PUSH2 0x1DA0 JUMPI DUP2 PUSH2 0x1DA2 JUMP JUMPDEST CALLVALUE JUMPDEST PUSH1 0x0 DUP5 DUP2 MSTORE PUSH1 0xC PUSH1 0x20 MSTORE PUSH1 0x40 DUP2 KECCAK256 PUSH1 0x1 ADD SLOAD SWAP2 SWAP3 POP DUP3 SWAP2 PUSH1 0x64 SWAP1 DUP4 MUL DIV SWAP1 PUSH2 0x1DCA DUP7 CALLER PUSH2 0x258A JUMP JUMPDEST PUSH1 0x0 DUP8 DUP2 MSTORE PUSH1 0xC PUSH1 0x20 MSTORE PUSH1 0x40 SWAP1 KECCAK256 PUSH1 0x2 ADD SLOAD SWAP1 SWAP2 POP PUSH1 0x64 SWAP1 DUP4 MUL DIV PUSH1 0x1 DUP3 EQ PUSH2 0x1E59 JUMPI PUSH1 0x0 DUP8 DUP2 MSTORE PUSH1 0xA PUSH1 0x20 MSTORE PUSH1 0x40 SWAP1 KECCAK256 PUSH1 0x3 ADD SLOAD PUSH1 0x1 PUSH1 0x1 PUSH1 0xA0 SHL SUB AND PUSH2 0x1E4C JUMPI CALLER PUSH2 0x8FC DUP4 DUP4 DUP2 PUSH2 0x1E19 JUMPI INVALID JUMPDEST DIV SWAP1 DUP2 ISZERO MUL SWAP1 PUSH1 0x40 MLOAD PUSH1 0x0 PUSH1 0x40 MLOAD DUP1 DUP4 SUB DUP2 DUP6 DUP9 DUP9 CALL SWAP4 POP POP POP POP PUSH2 0x1E3D JUMPI PUSH1 0x0 DUP1 REVERT JUMPDEST DUP2 DUP2 DUP2 PUSH2 0x1E46 JUMPI INVALID JUMPDEST DIV DUP5 SUB SWAP4 POP JUMPDEST DUP2 DUP2 DUP2 PUSH2 0x1E55 JUMPI INVALID JUMPDEST DIV SWAP1 SUB JUMPDEST PUSH1 0x0 DUP8 DUP2 MSTORE PUSH1 0xB PUSH1 0x20 MSTORE PUSH1 0x40 SWAP1 KECCAK256 PUSH1 0x7 DUP2 ADD DUP1 SLOAD DUP8 ADD SWAP1 SSTORE PUSH1 0x5 ADD SLOAD SWAP4 DUP2 SWAP1 SUB SWAP4 DUP6 DUP2 PUSH2 0x1E82 JUMPI INVALID JUMPDEST PUSH1 0x0 DUP10 DUP2 MSTORE PUSH1 0xA PUSH1 0x20 SWAP1 DUP2 MSTORE PUSH1 0x40 DUP1 DUP4 KECCAK256 PUSH1 0x6 SWAP1 DUP2 ADD DUP1 SLOAD SWAP7 SWAP1 SWAP6 DIV SWAP1 SWAP6 ADD SWAP1 SWAP4 SSTORE PUSH1 0xB SWAP1 MSTORE KECCAK256 SWAP1 DUP2 ADD SLOAD PUSH1 0x7 SWAP1 SWAP2 ADD SLOAD LT PUSH2 0x1ED2 JUMPI PUSH1 0x0 DUP8 DUP2 MSTORE PUSH1 0xB PUSH1 0x20 MSTORE PUSH1 0x40 SWAP1 KECCAK256 DUP1 SLOAD PUSH1 0xFF NOT AND PUSH1 0x2 OR SWAP1 SSTORE JUMPDEST PUSH1 0x0 DUP8 DUP2 MSTORE PUSH1 0xA PUSH1 0x20 MSTORE PUSH1 0x40 SWAP1 KECCAK256 PUSH1 0x2 DUP2 ADD SLOAD PUSH1 0x3 SWAP1 SWAP2 ADD SLOAD PUSH2 0x1F05 SWAP2 CALLER SWAP2 PUSH1 0x1 PUSH1 0x1 PUSH1 0xA0 SHL SUB SWAP2 DUP3 AND SWAP2 AND DUP8 DUP6 PUSH2 0x62F JUMP JUMPDEST PUSH1 0x0 DUP8 DUP2 MSTORE PUSH1 0xB PUSH1 0x20 MSTORE PUSH1 0x40 SWAP1 DUP2 SWAP1 KECCAK256 SLOAD SWAP1 MLOAD DUP9 SWAP2 PUSH32 0xB5C84F6603B8D7669DBBE31FD93A237657C42054C0B237B7D4215FA463523B5B SWAP2 PUSH2 0x1F51 SWAP2 CALLVALUE SWAP2 DUP10 SWAP2 DUP10 SWAP2 DUP9 SWAP2 PUSH1 0xFF AND SWAP1 PUSH2 0x3071 JUMP JUMPDEST PUSH1 0x40 MLOAD DUP1 SWAP2 SUB SWAP1 LOG2 POP POP POP POP POP POP POP JUMP JUMPDEST PUSH1 0x8 SLOAD PUSH4 0xFFFFFFFF AND DUP2 JUMP JUMPDEST PUSH1 0x0 SLOAD PUSH1 0x1 PUSH1 0x1 PUSH1 0xA0 SHL SUB AND SWAP1 JUMP JUMPDEST PUSH1 0x7 SLOAD DUP2 JUMP JUMPDEST PUSH2 0x1F8C DUP2 PUSH2 0x2419 JUMP JUMPDEST PUSH1 0x0 PUSH2 0x1F98 DUP3 CALLER PUSH2 0x258A JUMP JUMPDEST PUSH1 0x0 DUP4 DUP2 MSTORE PUSH1 0xA PUSH1 0x20 MSTORE PUSH1 0x40 SWAP1 KECCAK256 PUSH1 0x3 ADD SLOAD SWAP1 SWAP2 POP PUSH1 0x1 PUSH1 0x1 PUSH1 0xA0 SHL SUB AND PUSH2 0x2015 JUMPI PUSH1 0x0 DUP3 DUP2 MSTORE PUSH1 0xC PUSH1 0x20 SWAP1 DUP2 MSTORE PUSH1 0x40 DUP1 DUP4 KECCAK256 PUSH1 0x3 ADD SLOAD PUSH1 0xA SWAP1 SWAP3 MSTORE SWAP1 SWAP2 KECCAK256 PUSH1 0x7 ADD SLOAD DUP3 SWAP2 PUSH4 0xFFFFFFFF AND SWAP1 DUP2 PUSH2 0x1FEB JUMPI INVALID JUMPDEST DIV DUP2 PUSH2 0x1FF3 JUMPI INVALID JUMPDEST PUSH1 0x0 DUP5 DUP2 MSTORE PUSH1 0xA PUSH1 0x20 MSTORE PUSH1 0x40 SWAP1 KECCAK256 PUSH1 0x7 ADD SLOAD SWAP2 SWAP1 DIV ADD CALLVALUE LT ISZERO PUSH2 0x2015 JUMPI PUSH1 0x0 DUP1 REVERT JUMPDEST PUSH1 0x0 DUP3 DUP2 MSTORE PUSH1 0xA PUSH1 0x20 DUP2 DUP2 MSTORE PUSH1 0x40 DUP1 DUP5 KECCAK256 PUSH1 0x1 DUP2 ADD SLOAD PUSH1 0x3 DUP1 DUP4 ADD SLOAD PUSH1 0x7 SWAP1 SWAP4 ADD SLOAD PUSH1 0xC DUP7 MSTORE SWAP4 SWAP1 SWAP7 KECCAK256 SWAP1 SWAP6 ADD SLOAD SWAP4 SWAP1 SWAP3 MSTORE PUSH2 0x1207 SWAP4 CALLER SWAP4 PUSH1 0x1 PUSH1 0x1 PUSH1 0xA0 SHL SUB SWAP2 DUP3 AND SWAP4 SWAP1 SWAP2 AND SWAP2 SWAP1 DUP7 SWAP1 PUSH4 0xFFFFFFFF AND DUP3 DUP2 PUSH2 0x206E JUMPI INVALID JUMPDEST DIV DUP2 PUSH2 0x1201 JUMPI INVALID JUMPDEST PUSH1 0x9 SLOAD DUP2 JUMP JUMPDEST PUSH1 0x1 SLOAD PUSH1 0x1 PUSH1 0x1 PUSH1 0xA0 SHL SUB AND DUP2 JUMP JUMPDEST PUSH4 0xBC197C81 PUSH1 0xE0 SHL SWAP6 SWAP5 POP POP POP POP POP JUMP JUMPDEST PUSH1 0x0 DUP2 DUP2 MSTORE PUSH1 0xA PUSH1 0x20 MSTORE PUSH1 0x40 SWAP1 KECCAK256 PUSH1 0x2 ADD SLOAD PUSH1 0x1 PUSH1 0x1 PUSH1 0xA0 SHL SUB AND ISZERO PUSH2 0x20C1 JUMPI PUSH1 0x0 DUP1 REVERT JUMPDEST PUSH1 0x0 DUP2 DUP2 MSTORE PUSH1 0xA PUSH1 0x20 MSTORE PUSH1 0x40 SWAP1 KECCAK256 PUSH1 0x1 ADD SLOAD PUSH1 0x1 PUSH1 0x1 PUSH1 0xA0 SHL SUB AND CALLER EQ PUSH2 0x20E7 JUMPI PUSH1 0x0 DUP1 REVERT JUMPDEST PUSH1 0x0 DUP2 DUP2 MSTORE PUSH1 0xB PUSH1 0x20 MSTORE PUSH1 0x40 DUP2 KECCAK256 SLOAD PUSH1 0xFF AND PUSH1 0x4 DUP2 GT ISZERO PUSH2 0x2104 JUMPI INVALID JUMPDEST EQ PUSH2 0x210E JUMPI PUSH1 0x0 DUP1 REVERT JUMPDEST PUSH1 0x0 DUP2 DUP2 MSTORE PUSH1 0xB PUSH1 0x20 SWAP1 DUP2 MSTORE PUSH1 0x40 DUP1 DUP4 KECCAK256 TIMESTAMP PUSH1 0x4 DUP3 ADD SSTORE DUP1 SLOAD PUSH1 0xFF NOT AND PUSH1 0x3 OR SWAP1 SSTORE PUSH1 0xA DUP3 MSTORE SWAP2 DUP3 SWAP1 KECCAK256 PUSH1 0x1 DUP2 ADD SLOAD DUP2 SLOAD DUP5 MLOAD DUP2 DUP6 MUL DUP2 ADD DUP6 ADD SWAP1 SWAP6 MSTORE DUP1 DUP6 MSTORE PUSH2 0x2260 SWAP5 ADDRESS SWAP5 PUSH1 0x1 PUSH1 0x1 PUSH1 0xA0 SHL SUB SWAP1 SWAP4 AND SWAP4 SWAP1 SWAP3 SWAP1 SWAP2 SWAP1 DUP4 ADD DUP3 DUP3 DUP1 ISZERO PUSH2 0x1856 JUMPI PUSH1 0x20 MUL DUP3 ADD SWAP2 SWAP1 PUSH1 0x0 MSTORE PUSH1 0x20 PUSH1 0x0 KECCAK256 SWAP1 DUP2 SLOAD PUSH1 0x1 PUSH1 0x1 PUSH1 0xA0 SHL SUB AND DUP2 MSTORE PUSH1 0x1 SWAP1 SWAP2 ADD SWAP1 PUSH1 0x20 ADD DUP1 DUP4 GT PUSH2 0x1838 JUMPI POP POP POP PUSH1 0x0 DUP8 DUP2 MSTORE PUSH1 0xA PUSH1 0x20 SWAP1 DUP2 MSTORE PUSH1 0x40 SWAP2 DUP3 SWAP1 KECCAK256 PUSH1 0x4 ADD DUP1 SLOAD DUP4 MLOAD DUP2 DUP5 MUL DUP2 ADD DUP5 ADD SWAP1 SWAP5 MSTORE DUP1 DUP5 MSTORE SWAP3 SWAP5 POP SWAP3 POP DUP4 ADD DUP3 DUP3 DUP1 ISZERO PUSH2 0x18B3 JUMPI PUSH1 0x20 MUL DUP3 ADD SWAP2 SWAP1 PUSH1 0x0 MSTORE PUSH1 0x20 PUSH1 0x0 KECCAK256 SWAP1 DUP2 SLOAD DUP2 MSTORE PUSH1 0x20 ADD SWAP1 PUSH1 0x1 ADD SWAP1 DUP1 DUP4 GT PUSH2 0x189F JUMPI POP POP POP PUSH1 0x0 DUP9 DUP2 MSTORE PUSH1 0xA PUSH1 0x20 DUP2 DUP2 MSTORE PUSH1 0x40 SWAP3 DUP4 SWAP1 KECCAK256 SWAP1 SWAP2 ADD DUP1 SLOAD DUP4 MLOAD DUP2 DUP5 MUL DUP2 ADD DUP5 ADD SWAP1 SWAP5 MSTORE DUP1 DUP5 MSTORE SWAP3 SWAP5 POP SWAP3 POP DUP4 ADD DUP3 DUP3 DUP1 ISZERO PUSH2 0x192E JUMPI PUSH1 0x0 SWAP2 DUP3 MSTORE PUSH1 0x20 SWAP2 DUP3 SWAP1 KECCAK256 DUP1 SLOAD PUSH1 0xFF AND DUP5 MSTORE SWAP1 DUP3 MUL DUP4 ADD SWAP3 SWAP1 SWAP2 PUSH1 0x1 SWAP2 ADD DUP1 DUP5 GT PUSH2 0x18FF JUMPI SWAP1 POP POP POP POP POP POP PUSH2 0x8CF JUMP JUMPDEST PUSH1 0x40 MLOAD DUP2 SWAP1 PUSH32 0xB71BECC91961A6B43BCC5B3B630F3DCE02C7FD444CF3738C4F188062B1CAF5BC SWAP1 PUSH1 0x0 SWAP1 LOG2 POP JUMP JUMPDEST PUSH1 0x3 SLOAD PUSH1 0x1 PUSH1 0x1 PUSH1 0xA0 SHL SUB AND DUP2 JUMP JUMPDEST PUSH1 0x2 SLOAD PUSH1 0x1 PUSH1 0x1 PUSH1 0xA0 SHL SUB AND DUP2 JUMP JUMPDEST PUSH1 0xA PUSH1 0x20 MSTORE PUSH1 0x0 SWAP1 DUP2 MSTORE PUSH1 0x40 SWAP1 KECCAK256 PUSH1 0x1 DUP2 ADD SLOAD PUSH1 0x2 DUP3 ADD SLOAD PUSH1 0x3 DUP4 ADD SLOAD PUSH1 0x5 DUP5 ADD SLOAD PUSH1 0x6 DUP6 ADD SLOAD PUSH1 0x7 DUP7 ADD SLOAD PUSH1 0x8 DUP8 ADD SLOAD PUSH1 0x9 SWAP1 SWAP8 ADD SLOAD PUSH1 0x1 PUSH1 0x1 PUSH1 0xA0 SHL SUB SWAP7 DUP8 AND SWAP8 SWAP6 DUP8 AND SWAP7 SWAP1 SWAP5 AND SWAP5 SWAP3 SWAP4 SWAP2 SWAP3 SWAP1 SWAP2 PUSH2 0xFFFF AND DUP9 JUMP JUMPDEST PUSH4 0xF23A6E61 PUSH1 0xE0 SHL SWAP6 SWAP5 POP POP POP POP POP JUMP JUMPDEST PUSH2 0x231D PUSH2 0x2536 JUMP JUMPDEST PUSH1 0x1 PUSH1 0x1 PUSH1 0xA0 SHL SUB AND PUSH2 0x232E PUSH2 0x1F6E JUMP JUMPDEST PUSH1 0x1 PUSH1 0x1 PUSH1 0xA0 SHL SUB AND EQ PUSH2 0x2389 JUMPI PUSH1 0x40 DUP1 MLOAD PUSH3 0x461BCD PUSH1 0xE5 SHL DUP2 MSTORE PUSH1 0x20 PUSH1 0x4 DUP3 ADD DUP2 SWAP1 MSTORE PUSH1 0x24 DUP3 ADD MSTORE PUSH32 0x4F776E61626C653A2063616C6C6572206973206E6F7420746865206F776E6572 PUSH1 0x44 DUP3 ADD MSTORE SWAP1 MLOAD SWAP1 DUP2 SWAP1 SUB PUSH1 0x64 ADD SWAP1 REVERT JUMPDEST PUSH1 0x1 PUSH1 0x1 PUSH1 0xA0 SHL SUB DUP2 AND PUSH2 0x23CE JUMPI PUSH1 0x40 MLOAD PUSH3 0x461BCD PUSH1 0xE5 SHL DUP2 MSTORE PUSH1 0x4 ADD DUP1 DUP1 PUSH1 0x20 ADD DUP3 DUP2 SUB DUP3 MSTORE PUSH1 0x26 DUP2 MSTORE PUSH1 0x20 ADD DUP1 PUSH2 0x3169 PUSH1 0x26 SWAP2 CODECOPY PUSH1 0x40 ADD SWAP2 POP POP PUSH1 0x40 MLOAD DUP1 SWAP2 SUB SWAP1 REVERT JUMPDEST PUSH2 0x23D7 DUP2 PUSH2 0x253A JUMP JUMPDEST POP JUMP JUMPDEST PUSH1 0x1 PUSH1 0x1 PUSH1 0xE0 SHL SUB NOT DUP2 AND PUSH4 0x1FFC9A7 PUSH1 0xE0 SHL EQ SWAP2 SWAP1 POP JUMP JUMPDEST PUSH1 0x0 PUSH1 0xA DUP3 DUP5 PUSH2 0x2710 MUL DUP2 PUSH2 0x2404 JUMPI INVALID JUMPDEST DIV PUSH1 0x5 ADD DUP2 PUSH2 0x240F JUMPI INVALID JUMPDEST DIV SWAP1 POP JUMPDEST SWAP3 SWAP2 POP POP JUMP JUMPDEST PUSH1 0x0 DUP2 DUP2 MSTORE PUSH1 0xA PUSH1 0x20 MSTORE PUSH1 0x40 SWAP1 KECCAK256 PUSH1 0x2 ADD SLOAD PUSH1 0x1 PUSH1 0x1 PUSH1 0xA0 SHL SUB AND ISZERO PUSH2 0x243E JUMPI PUSH1 0x0 DUP1 REVERT JUMPDEST PUSH1 0x0 DUP2 DUP2 MSTORE PUSH1 0xB PUSH1 0x20 MSTORE PUSH1 0x40 SWAP1 KECCAK256 PUSH1 0x7 ADD SLOAD ISZERO PUSH2 0x245A JUMPI PUSH1 0x0 DUP1 REVERT JUMPDEST PUSH1 0x0 DUP2 DUP2 MSTORE PUSH1 0xB PUSH1 0x20 MSTORE PUSH1 0x40 DUP2 KECCAK256 SLOAD PUSH1 0xFF AND PUSH1 0x4 DUP2 GT ISZERO PUSH2 0x2477 JUMPI INVALID JUMPDEST EQ PUSH2 0x2481 JUMPI PUSH1 0x0 DUP1 REVERT JUMPDEST PUSH1 0x0 DUP2 DUP2 MSTORE PUSH1 0xA PUSH1 0x20 MSTORE PUSH1 0x40 SWAP1 KECCAK256 PUSH1 0x2 DUP2 ADD DUP1 SLOAD PUSH1 0x1 PUSH1 0x1 PUSH1 0xA0 SHL SUB NOT AND CALLER OR SWAP1 SSTORE PUSH1 0x9 DUP2 ADD SLOAD PUSH1 0x5 SWAP1 SWAP2 ADD SLOAD PUSH2 0xFFFF SWAP1 SWAP2 AND SWAP1 DUP2 PUSH2 0x24BC JUMPI INVALID JUMPDEST PUSH1 0x0 DUP4 DUP2 MSTORE PUSH1 0xA PUSH1 0x20 SWAP1 DUP2 MSTORE PUSH1 0x40 DUP1 DUP4 KECCAK256 PUSH1 0x9 ADD SLOAD PUSH1 0xB SWAP1 SWAP3 MSTORE SWAP2 DUP3 SWAP1 KECCAK256 SWAP4 SWAP1 SWAP3 DIV PUSH2 0xFFFF SWAP1 SWAP3 AND SWAP2 SWAP1 SWAP2 MUL TIMESTAMP SWAP1 DUP2 ADD PUSH1 0x4 DUP5 ADD DUP2 SWAP1 SSTORE DUP4 SLOAD PUSH1 0x1 PUSH1 0xFF NOT SWAP1 SWAP2 AND OR DUP5 SSTORE PUSH1 0x3 SWAP1 SWAP4 ADD SSTORE MLOAD DUP3 SWAP2 CALLER SWAP2 PUSH32 0x1A8ECEA83CBCFF0F4C46B7E42F55227161863220EB7D439FDE442DFDC0DDBC4E SWAP2 PUSH2 0x1C77 SWAP2 PUSH2 0x3068 JUMP JUMPDEST CALLER SWAP1 JUMP JUMPDEST PUSH1 0x0 DUP1 SLOAD PUSH1 0x1 PUSH1 0x1 PUSH1 0xA0 SHL SUB DUP4 DUP2 AND PUSH1 0x1 PUSH1 0x1 PUSH1 0xA0 SHL SUB NOT DUP4 AND DUP2 OR DUP5 SSTORE PUSH1 0x40 MLOAD SWAP2 SWAP1 SWAP3 AND SWAP3 DUP4 SWAP2 PUSH32 0x8BE0079C531659141344CD1FD0A4F28419497F9722A3DAAFE3B4186F6B6457E0 SWAP2 SWAP1 LOG3 POP POP JUMP JUMPDEST PUSH1 0x0 DUP3 DUP2 MSTORE PUSH1 0xB PUSH1 0x20 SWAP1 DUP2 MSTORE PUSH1 0x40 DUP1 DUP4 KECCAK256 PUSH1 0xA ADD SLOAD DUP2 MLOAD PUSH4 0xAD6A8745 PUSH1 0xE0 SHL DUP2 MSTORE PUSH1 0x1 PUSH1 0x1 PUSH1 0xA0 SHL SUB DUP7 DUP2 AND PUSH1 0x4 DUP4 ADD MSTORE SWAP3 MLOAD SWAP3 SWAP1 SWAP2 AND SWAP3 PUSH4 0xAD6A8745 SWAP3 PUSH1 0x24 DUP1 DUP5 ADD SWAP4 DUP3 SWAP1 SUB ADD DUP2 DUP7 DUP1 EXTCODESIZE ISZERO DUP1 ISZERO PUSH2 0x25E2 JUMPI PUSH1 0x0 DUP1 REVERT JUMPDEST POP GAS STATICCALL ISZERO DUP1 ISZERO PUSH2 0x25F6 JUMPI RETURNDATASIZE PUSH1 0x0 DUP1 RETURNDATACOPY RETURNDATASIZE PUSH1 0x0 REVERT JUMPDEST POP POP POP POP PUSH1 0x40 MLOAD RETURNDATASIZE PUSH1 0x20 DUP2 LT ISZERO PUSH2 0x260C JUMPI PUSH1 0x0 DUP1 REVERT JUMPDEST POP MLOAD SWAP4 SWAP3 POP POP POP JUMP JUMPDEST DUP3 DUP1 SLOAD DUP3 DUP3 SSTORE SWAP1 PUSH1 0x0 MSTORE PUSH1 0x20 PUSH1 0x0 KECCAK256 SWAP1 DUP2 ADD SWAP3 DUP3 ISZERO PUSH2 0x2650 JUMPI SWAP2 PUSH1 0x20 MUL DUP3 ADD JUMPDEST DUP3 DUP2 GT ISZERO PUSH2 0x2650 JUMPI DUP3 MLOAD DUP3 SSTORE SWAP2 PUSH1 0x20 ADD SWAP2 SWAP1 PUSH1 0x1 ADD SWAP1 PUSH2 0x2635 JUMP JUMPDEST POP PUSH2 0x265C SWAP3 SWAP2 POP PUSH2 0x2752 JUMP JUMPDEST POP SWAP1 JUMP JUMPDEST DUP3 DUP1 SLOAD DUP3 DUP3 SSTORE SWAP1 PUSH1 0x0 MSTORE PUSH1 0x20 PUSH1 0x0 KECCAK256 SWAP1 DUP2 ADD SWAP3 DUP3 ISZERO PUSH2 0x2650 JUMPI SWAP2 PUSH1 0x20 MUL DUP3 ADD JUMPDEST DUP3 DUP2 GT ISZERO PUSH2 0x2650 JUMPI DUP3 MLOAD DUP3 SLOAD PUSH1 0x1 PUSH1 0x1 PUSH1 0xA0 SHL SUB NOT AND PUSH1 0x1 PUSH1 0x1 PUSH1 0xA0 SHL SUB SWAP1 SWAP2 AND OR DUP3 SSTORE PUSH1 0x20 SWAP1 SWAP3 ADD SWAP2 PUSH1 0x1 SWAP1 SWAP2 ADD SWAP1 PUSH2 0x2680 JUMP JUMPDEST DUP3 DUP1 SLOAD DUP3 DUP3 SSTORE SWAP1 PUSH1 0x0 MSTORE PUSH1 0x20 PUSH1 0x0 KECCAK256 SWAP1 PUSH1 0x1F ADD PUSH1 0x20 SWAP1 DIV DUP2 ADD SWAP3 DUP3 ISZERO PUSH2 0x2650 JUMPI SWAP2 PUSH1 0x20 MUL DUP3 ADD PUSH1 0x0 JUMPDEST DUP4 DUP3 GT ISZERO PUSH2 0x271C JUMPI DUP4 MLOAD DUP4 DUP3 PUSH2 0x100 EXP DUP2 SLOAD DUP2 PUSH1 0xFF MUL NOT AND SWAP1 DUP4 PUSH1 0xFF AND MUL OR SWAP1 SSTORE POP SWAP3 PUSH1 0x20 ADD SWAP3 PUSH1 0x1 ADD PUSH1 0x20 DUP2 PUSH1 0x0 ADD DIV SWAP3 DUP4 ADD SWAP3 PUSH1 0x1 SUB MUL PUSH2 0x26DE JUMP JUMPDEST DUP1 ISZERO PUSH2 0x2749 JUMPI DUP3 DUP2 PUSH2 0x100 EXP DUP2 SLOAD SWAP1 PUSH1 0xFF MUL NOT AND SWAP1 SSTORE PUSH1 0x1 ADD PUSH1 0x20 DUP2 PUSH1 0x0 ADD DIV SWAP3 DUP4 ADD SWAP3 PUSH1 0x1 SUB MUL PUSH2 0x271C JUMP JUMPDEST POP POP PUSH2 0x265C SWAP3 SWAP2 POP JUMPDEST JUMPDEST DUP1 DUP3 GT ISZERO PUSH2 0x265C JUMPI PUSH1 0x0 DUP2 SSTORE PUSH1 0x1 ADD PUSH2 0x2753 JUMP JUMPDEST DUP1 CALLDATALOAD PUSH2 0x5A2 DUP2 PUSH2 0x3153 JUMP JUMPDEST DUP1 MLOAD PUSH2 0x5A2 DUP2 PUSH2 0x3153 JUMP JUMPDEST PUSH1 0x0 DUP3 PUSH1 0x1F DUP4 ADD SLT PUSH2 0x278D JUMPI DUP1 DUP2 REVERT JUMPDEST DUP2 CALLDATALOAD PUSH1 0x20 PUSH2 0x27A2 PUSH2 0x279D DUP4 PUSH2 0x3135 JUMP JUMPDEST PUSH2 0x3111 JUMP JUMPDEST DUP3 DUP2 MSTORE DUP2 DUP2 ADD SWAP1 DUP6 DUP4 ADD DUP4 DUP6 MUL DUP8 ADD DUP5 ADD DUP9 LT ISZERO PUSH2 0x27BE JUMPI DUP6 DUP7 REVERT JUMPDEST DUP6 JUMPDEST DUP6 DUP2 LT ISZERO PUSH2 0x27E5 JUMPI DUP2 CALLDATALOAD PUSH2 0x27D3 DUP2 PUSH2 0x3153 JUMP JUMPDEST DUP5 MSTORE SWAP3 DUP5 ADD SWAP3 SWAP1 DUP5 ADD SWAP1 PUSH1 0x1 ADD PUSH2 0x27C0 JUMP JUMPDEST POP SWAP1 SWAP8 SWAP7 POP POP POP POP POP POP POP JUMP JUMPDEST PUSH1 0x0 DUP3 PUSH1 0x1F DUP4 ADD SLT PUSH2 0x2802 JUMPI DUP1 DUP2 REVERT JUMPDEST DUP2 CALLDATALOAD PUSH1 0x20 PUSH2 0x2812 PUSH2 0x279D DUP4 PUSH2 0x3135 JUMP JUMPDEST DUP3 DUP2 MSTORE DUP2 DUP2 ADD SWAP1 DUP6 DUP4 ADD DUP4 DUP6 MUL DUP8 ADD DUP5 ADD DUP9 LT ISZERO PUSH2 0x282E JUMPI DUP6 DUP7 REVERT JUMPDEST DUP6 JUMPDEST DUP6 DUP2 LT ISZERO PUSH2 0x27E5 JUMPI DUP2 CALLDATALOAD DUP5 MSTORE SWAP3 DUP5 ADD SWAP3 SWAP1 DUP5 ADD SWAP1 PUSH1 0x1 ADD PUSH2 0x2830 JUMP JUMPDEST PUSH1 0x0 DUP3 PUSH1 0x1F DUP4 ADD SLT PUSH2 0x285C JUMPI DUP1 DUP2 REVERT JUMPDEST DUP2 CALLDATALOAD PUSH1 0x20 PUSH2 0x286C PUSH2 0x279D DUP4 PUSH2 0x3135 JUMP JUMPDEST DUP3 DUP2 MSTORE DUP2 DUP2 ADD SWAP1 DUP6 DUP4 ADD DUP4 DUP6 MUL DUP8 ADD DUP5 ADD DUP9 LT ISZERO PUSH2 0x2888 JUMPI DUP6 DUP7 REVERT JUMPDEST DUP6 JUMPDEST DUP6 DUP2 LT ISZERO PUSH2 0x27E5 JUMPI DUP2 CALLDATALOAD PUSH1 0xFF DUP2 AND DUP2 EQ PUSH2 0x28A2 JUMPI DUP8 DUP9 REVERT JUMPDEST DUP5 MSTORE SWAP3 DUP5 ADD SWAP3 SWAP1 DUP5 ADD SWAP1 PUSH1 0x1 ADD PUSH2 0x288A JUMP JUMPDEST PUSH1 0x0 DUP3 PUSH1 0x1F DUP4 ADD SLT PUSH2 0x28C4 JUMPI DUP1 DUP2 REVERT JUMPDEST DUP2 CALLDATALOAD PUSH8 0xFFFFFFFFFFFFFFFF DUP2 GT ISZERO PUSH2 0x28D8 JUMPI INVALID JUMPDEST PUSH2 0x28EB PUSH1 0x1F DUP3 ADD PUSH1 0x1F NOT AND PUSH1 0x20 ADD PUSH2 0x3111 JUMP JUMPDEST DUP2 DUP2 MSTORE DUP5 PUSH1 0x20 DUP4 DUP7 ADD ADD GT ISZERO PUSH2 0x28FF JUMPI DUP3 DUP4 REVERT JUMPDEST DUP2 PUSH1 0x20 DUP6 ADD PUSH1 0x20 DUP4 ADD CALLDATACOPY SWAP1 DUP2 ADD PUSH1 0x20 ADD SWAP2 SWAP1 SWAP2 MSTORE SWAP3 SWAP2 POP POP JUMP JUMPDEST DUP1 MLOAD PUSH1 0x2 DUP2 SWAP1 SIGNEXTEND DUP2 EQ PUSH2 0x5A2 JUMPI PUSH1 0x0 DUP1 REVERT JUMPDEST DUP1 MLOAD PUSH16 0xFFFFFFFFFFFFFFFFFFFFFFFFFFFFFFFF DUP2 AND DUP2 EQ PUSH2 0x5A2 JUMPI PUSH1 0x0 DUP1 REVERT JUMPDEST DUP1 CALLDATALOAD PUSH2 0xFFFF DUP2 AND DUP2 EQ PUSH2 0x5A2 JUMPI PUSH1 0x0 DUP1 REVERT JUMPDEST DUP1 MLOAD PUSH3 0xFFFFFF DUP2 AND DUP2 EQ PUSH2 0x5A2 JUMPI PUSH1 0x0 DUP1 REVERT JUMPDEST PUSH1 0x0 PUSH1 0x20 DUP3 DUP5 SUB SLT ISZERO PUSH2 0x2981 JUMPI DUP1 DUP2 REVERT JUMPDEST DUP2 CALLDATALOAD PUSH2 0x298C DUP2 PUSH2 0x3153 JUMP JUMPDEST SWAP4 SWAP3 POP POP POP JUMP JUMPDEST PUSH1 0x0 DUP1 PUSH1 0x0 DUP1 PUSH1 0x0 PUSH1 0xA0 DUP7 DUP9 SUB SLT ISZERO PUSH2 0x29AA JUMPI DUP1 DUP2 REVERT JUMPDEST DUP6 CALLDATALOAD PUSH2 0x29B5 DUP2 PUSH2 0x3153 JUMP JUMPDEST SWAP5 POP PUSH1 0x20 DUP7 ADD CALLDATALOAD PUSH2 0x29C5 DUP2 PUSH2 0x3153 JUMP JUMPDEST SWAP4 POP PUSH1 0x40 DUP7 ADD CALLDATALOAD PUSH2 0x29D5 DUP2 PUSH2 0x3153 JUMP JUMPDEST SWAP5 SWAP8 SWAP4 SWAP7 POP SWAP4 SWAP5 PUSH1 0x60 DUP2 ADD CALLDATALOAD SWAP5 POP PUSH1 0x80 ADD CALLDATALOAD SWAP3 SWAP2 POP POP JUMP JUMPDEST PUSH1 0x0 DUP1 PUSH1 0x0 DUP1 PUSH1 0x0 PUSH1 0xA0 DUP7 DUP9 SUB SLT ISZERO PUSH2 0x2A04 JUMPI DUP1 DUP2 REVERT JUMPDEST DUP6 CALLDATALOAD PUSH2 0x2A0F DUP2 PUSH2 0x3153 JUMP JUMPDEST SWAP5 POP PUSH1 0x20 DUP7 ADD CALLDATALOAD PUSH2 0x2A1F DUP2 PUSH2 0x3153 JUMP JUMPDEST SWAP4 POP PUSH1 0x40 DUP7 ADD CALLDATALOAD PUSH8 0xFFFFFFFFFFFFFFFF DUP1 DUP3 GT ISZERO PUSH2 0x2A3B JUMPI DUP3 DUP4 REVERT JUMPDEST PUSH2 0x2A47 DUP10 DUP4 DUP11 ADD PUSH2 0x277D JUMP JUMPDEST SWAP5 POP PUSH1 0x60 DUP9 ADD CALLDATALOAD SWAP2 POP DUP1 DUP3 GT ISZERO PUSH2 0x2A5C JUMPI DUP3 DUP4 REVERT JUMPDEST PUSH2 0x2A68 DUP10 DUP4 DUP11 ADD PUSH2 0x27F2 JUMP JUMPDEST SWAP4 POP PUSH1 0x80 DUP9 ADD CALLDATALOAD SWAP2 POP DUP1 DUP3 GT ISZERO PUSH2 0x2A7D JUMPI DUP3 DUP4 REVERT JUMPDEST POP PUSH2 0x2A8A DUP9 DUP3 DUP10 ADD PUSH2 0x284C JUMP JUMPDEST SWAP2 POP POP SWAP3 SWAP6 POP SWAP3 SWAP6 SWAP1 SWAP4 POP JUMP JUMPDEST PUSH1 0x0 DUP1 PUSH1 0x0 DUP1 PUSH1 0x0 PUSH1 0xA0 DUP7 DUP9 SUB SLT ISZERO PUSH2 0x2AAE JUMPI DUP3 DUP4 REVERT JUMPDEST DUP6 CALLDATALOAD PUSH2 0x2AB9 DUP2 PUSH2 0x3153 JUMP JUMPDEST SWAP5 POP PUSH1 0x20 DUP7 ADD CALLDATALOAD PUSH2 0x2AC9 DUP2 PUSH2 0x3153 JUMP JUMPDEST SWAP4 POP PUSH1 0x40 DUP7 ADD CALLDATALOAD PUSH8 0xFFFFFFFFFFFFFFFF DUP1 DUP3 GT ISZERO PUSH2 0x2AE5 JUMPI DUP5 DUP6 REVERT JUMPDEST PUSH2 0x2AF1 DUP10 DUP4 DUP11 ADD PUSH2 0x27F2 JUMP JUMPDEST SWAP5 POP PUSH1 0x60 DUP9 ADD CALLDATALOAD SWAP2 POP DUP1 DUP3 GT ISZERO PUSH2 0x2B06 JUMPI DUP3 DUP4 REVERT JUMPDEST PUSH2 0x2B12 DUP10 DUP4 DUP11 ADD PUSH2 0x27F2 JUMP JUMPDEST SWAP4 POP PUSH1 0x80 DUP9 ADD CALLDATALOAD SWAP2 POP DUP1 DUP3 GT ISZERO PUSH2 0x2B27 JUMPI DUP3 DUP4 REVERT JUMPDEST POP PUSH2 0x2A8A DUP9 DUP3 DUP10 ADD PUSH2 0x28B4 JUMP JUMPDEST PUSH1 0x0 DUP1 PUSH1 0x0 DUP1 PUSH1 0x80 DUP6 DUP8 SUB SLT ISZERO PUSH2 0x2B49 JUMPI DUP2 DUP3 REVERT JUMPDEST DUP5 CALLDATALOAD PUSH2 0x2B54 DUP2 PUSH2 0x3153 JUMP JUMPDEST SWAP4 POP PUSH1 0x20 DUP6 ADD CALLDATALOAD PUSH2 0x2B64 DUP2 PUSH2 0x3153 JUMP JUMPDEST SWAP3 POP PUSH1 0x40 DUP6 ADD CALLDATALOAD SWAP2 POP PUSH1 0x60 DUP6 ADD CALLDATALOAD PUSH8 0xFFFFFFFFFFFFFFFF DUP2 GT ISZERO PUSH2 0x2B86 JUMPI DUP2 DUP3 REVERT JUMPDEST PUSH2 0x2B92 DUP8 DUP3 DUP9 ADD PUSH2 0x28B4 JUMP JUMPDEST SWAP2 POP POP SWAP3 SWAP6 SWAP2 SWAP5 POP SWAP3 POP JUMP JUMPDEST PUSH1 0x0 DUP1 PUSH1 0x0 DUP1 PUSH1 0x0 PUSH1 0xA0 DUP7 DUP9 SUB SLT ISZERO PUSH2 0x2BB5 JUMPI DUP3 DUP4 REVERT JUMPDEST DUP6 CALLDATALOAD PUSH2 0x2BC0 DUP2 PUSH2 0x3153 JUMP JUMPDEST SWAP5 POP PUSH1 0x20 DUP7 ADD CALLDATALOAD PUSH2 0x2BD0 DUP2 PUSH2 0x3153 JUMP JUMPDEST SWAP4 POP PUSH1 0x40 DUP7 ADD CALLDATALOAD SWAP3 POP PUSH1 0x60 DUP7 ADD CALLDATALOAD SWAP2 POP PUSH1 0x80 DUP7 ADD CALLDATALOAD PUSH8 0xFFFFFFFFFFFFFFFF DUP2 GT ISZERO PUSH2 0x2BF9 JUMPI DUP2 DUP3 REVERT JUMPDEST PUSH2 0x2A8A DUP9 DUP3 DUP10 ADD PUSH2 0x28B4 JUMP JUMPDEST PUSH1 0x0 PUSH1 0x20 DUP3 DUP5 SUB SLT ISZERO PUSH2 0x2C16 JUMPI DUP1 DUP2 REVERT JUMPDEST DUP2 CALLDATALOAD PUSH1 0x1 PUSH1 0x1 PUSH1 0xE0 SHL SUB NOT DUP2 AND DUP2 EQ PUSH2 0x298C JUMPI DUP2 DUP3 REVERT JUMPDEST PUSH1 0x0 PUSH1 0x20 DUP3 DUP5 SUB SLT ISZERO PUSH2 0x2C3E JUMPI DUP1 DUP2 REVERT JUMPDEST DUP2 CALLDATALOAD PUSH8 0xFFFFFFFFFFFFFFFF DUP1 DUP3 GT ISZERO PUSH2 0x2C55 JUMPI DUP3 DUP4 REVERT JUMPDEST DUP2 DUP5 ADD SWAP2 POP PUSH2 0x100 DUP1 DUP4 DUP8 SUB SLT ISZERO PUSH2 0x2C6B JUMPI DUP4 DUP5 REVERT JUMPDEST PUSH2 0x2C74 DUP2 PUSH2 0x3111 JUMP JUMPDEST SWAP1 POP PUSH2 0x2C7F DUP4 PUSH2 0x2767 JUMP JUMPDEST DUP2 MSTORE PUSH1 0x20 DUP4 ADD CALLDATALOAD DUP3 DUP2 GT ISZERO PUSH2 0x2C92 JUMPI DUP5 DUP6 REVERT JUMPDEST PUSH2 0x2C9E DUP8 DUP3 DUP7 ADD PUSH2 0x277D JUMP JUMPDEST PUSH1 0x20 DUP4 ADD MSTORE POP PUSH1 0x40 DUP4 ADD CALLDATALOAD PUSH1 0x40 DUP3 ADD MSTORE PUSH1 0x60 DUP4 ADD CALLDATALOAD PUSH1 0x60 DUP3 ADD MSTORE PUSH1 0x80 DUP4 ADD CALLDATALOAD PUSH1 0x80 DUP3 ADD MSTORE PUSH1 0xA0 DUP4 ADD CALLDATALOAD DUP3 DUP2 GT ISZERO PUSH2 0x2CD3 JUMPI DUP5 DUP6 REVERT JUMPDEST PUSH2 0x2CDF DUP8 DUP3 DUP7 ADD PUSH2 0x27F2 JUMP JUMPDEST PUSH1 0xA0 DUP4 ADD MSTORE POP PUSH2 0x2CF1 PUSH1 0xC0 DUP5 ADD PUSH2 0x294B JUMP JUMPDEST PUSH1 0xC0 DUP3 ADD MSTORE PUSH1 0xE0 DUP4 ADD CALLDATALOAD DUP3 DUP2 GT ISZERO PUSH2 0x2D07 JUMPI DUP5 DUP6 REVERT JUMPDEST PUSH2 0x2D13 DUP8 DUP3 DUP7 ADD PUSH2 0x284C JUMP JUMPDEST PUSH1 0xE0 DUP4 ADD MSTORE POP SWAP6 SWAP5 POP POP POP POP POP JUMP JUMPDEST PUSH1 0x0 PUSH1 0x20 DUP3 DUP5 SUB SLT ISZERO PUSH2 0x2D33 JUMPI DUP1 DUP2 REVERT JUMPDEST POP CALLDATALOAD SWAP2 SWAP1 POP JUMP JUMPDEST PUSH1 0x0 DUP1 PUSH1 0x40 DUP4 DUP6 SUB SLT ISZERO PUSH2 0x2D4C JUMPI DUP2 DUP3 REVERT JUMPDEST POP POP DUP1 CALLDATALOAD SWAP3 PUSH1 0x20 SWAP1 SWAP2 ADD CALLDATALOAD SWAP2 POP JUMP JUMPDEST PUSH1 0x0 DUP1 PUSH1 0x0 DUP1 PUSH1 0x0 DUP1 PUSH1 0xC0 DUP8 DUP10 SUB SLT ISZERO PUSH2 0x2D73 JUMPI DUP4 DUP5 REVERT JUMPDEST DUP7 CALLDATALOAD SWAP6 POP PUSH1 0x20 DUP8 ADD CALLDATALOAD SWAP5 POP PUSH2 0x2D8A PUSH1 0x40 DUP9 ADD PUSH2 0x294B JUMP JUMPDEST SWAP4 POP PUSH1 0x60 DUP8 ADD CALLDATALOAD PUSH2 0x2D9A DUP2 PUSH2 0x3153 JUMP JUMPDEST SWAP6 SWAP9 SWAP5 SWAP8 POP SWAP3 SWAP6 PUSH1 0x80 DUP2 ADD CALLDATALOAD SWAP5 PUSH1 0xA0 SWAP1 SWAP2 ADD CALLDATALOAD SWAP4 POP SWAP2 POP POP JUMP JUMPDEST PUSH1 0x0 DUP1 PUSH1 0x0 DUP1 PUSH1 0x0 DUP1 PUSH1 0x0 DUP1 PUSH1 0x0 DUP1 PUSH1 0x0 DUP1 PUSH2 0x180 DUP14 DUP16 SUB SLT ISZERO PUSH2 0x2DD6 JUMPI DUP10 DUP11 REVERT JUMPDEST DUP13 MLOAD PUSH12 0xFFFFFFFFFFFFFFFFFFFFFFFF DUP2 AND DUP2 EQ PUSH2 0x2DF1 JUMPI DUP11 DUP12 REVERT JUMPDEST SWAP12 POP PUSH2 0x2DFF PUSH1 0x20 DUP15 ADD PUSH2 0x2772 JUMP JUMPDEST SWAP11 POP PUSH2 0x2E0D PUSH1 0x40 DUP15 ADD PUSH2 0x2772 JUMP JUMPDEST SWAP10 POP PUSH2 0x2E1B PUSH1 0x60 DUP15 ADD PUSH2 0x2772 JUMP JUMPDEST SWAP9 POP PUSH2 0x2E29 PUSH1 0x80 DUP15 ADD PUSH2 0x295D JUMP JUMPDEST SWAP8 POP PUSH2 0x2E37 PUSH1 0xA0 DUP15 ADD PUSH2 0x2919 JUMP JUMPDEST SWAP7 POP PUSH2 0x2E45 PUSH1 0xC0 DUP15 ADD PUSH2 0x2919 JUMP JUMPDEST SWAP6 POP PUSH2 0x2E53 PUSH1 0xE0 DUP15 ADD PUSH2 0x292B JUMP JUMPDEST SWAP5 POP PUSH2 0x100 DUP14 ADD MLOAD SWAP4 POP PUSH2 0x120 DUP14 ADD MLOAD SWAP3 POP PUSH2 0x2E72 PUSH2 0x140 DUP15 ADD PUSH2 0x292B JUMP JUMPDEST SWAP2 POP PUSH2 0x2E81 PUSH2 0x160 DUP15 ADD PUSH2 0x292B JUMP JUMPDEST SWAP1 POP SWAP3 SWAP6 SWAP9 SWAP12 POP SWAP3 SWAP6 SWAP9 SWAP12 POP SWAP3 SWAP6 SWAP9 SWAP12 JUMP JUMPDEST PUSH1 0x0 DUP2 MLOAD DUP1 DUP5 MSTORE PUSH1 0x20 DUP1 DUP6 ADD SWAP5 POP DUP1 DUP5 ADD DUP4 JUMPDEST DUP4 DUP2 LT ISZERO PUSH2 0x2EC5 JUMPI DUP2 MLOAD PUSH1 0xFF AND DUP8 MSTORE SWAP6 DUP3 ADD SWAP6 SWAP1 DUP3 ADD SWAP1 PUSH1 0x1 ADD PUSH2 0x2EA6 JUMP JUMPDEST POP SWAP5 SWAP6 SWAP5 POP POP POP POP POP JUMP JUMPDEST PUSH1 0x5 DUP2 LT PUSH2 0x2EDA JUMPI INVALID JUMPDEST SWAP1 MSTORE JUMP JUMPDEST PUSH1 0x1 PUSH1 0x1 PUSH1 0xA0 SHL SUB SWAP2 SWAP1 SWAP2 AND DUP2 MSTORE PUSH1 0x20 ADD SWAP1 JUMP JUMPDEST PUSH1 0x1 PUSH1 0x1 PUSH1 0xA0 SHL SUB SWAP9 DUP10 AND DUP2 MSTORE SWAP7 DUP9 AND PUSH1 0x20 DUP9 ADD MSTORE SWAP5 SWAP1 SWAP7 AND PUSH1 0x40 DUP7 ADD MSTORE PUSH1 0x60 DUP6 ADD SWAP3 SWAP1 SWAP3 MSTORE PUSH1 0x80 DUP5 ADD MSTORE PUSH1 0xA0 DUP4 ADD MSTORE PUSH1 0xC0 DUP3 ADD SWAP3 SWAP1 SWAP3 MSTORE PUSH2 0xFFFF SWAP1 SWAP2 AND PUSH1 0xE0 DUP3 ADD MSTORE PUSH2 0x100 ADD SWAP1 JUMP JUMPDEST PUSH1 0x60 DUP1 DUP3 MSTORE DUP5 MLOAD SWAP1 DUP3 ADD DUP2 SWAP1 MSTORE PUSH1 0x0 SWAP1 PUSH1 0x20 SWAP1 PUSH1 0x80 DUP5 ADD SWAP1 DUP3 DUP9 ADD DUP5 JUMPDEST DUP3 DUP2 LT ISZERO PUSH2 0x2F7E JUMPI DUP2 MLOAD PUSH1 0x1 PUSH1 0x1 PUSH1 0xA0 SHL SUB AND DUP5 MSTORE SWAP3 DUP5 ADD SWAP3 SWAP1 DUP5 ADD SWAP1 PUSH1 0x1 ADD PUSH2 0x2F59 JUMP JUMPDEST POP POP POP DUP4 DUP2 SUB DUP3 DUP6 ADD MSTORE DUP6 MLOAD DUP1 DUP3 MSTORE DUP7 DUP4 ADD SWAP2 DUP4 ADD SWAP1 DUP5 JUMPDEST DUP2 DUP2 LT ISZERO PUSH2 0x2FB2 JUMPI DUP4 MLOAD DUP4 MSTORE SWAP3 DUP5 ADD SWAP3 SWAP2 DUP5 ADD SWAP2 PUSH1 0x1 ADD PUSH2 0x2F96 JUMP JUMPDEST POP POP DUP5 DUP2 SUB PUSH1 0x40 DUP7 ADD MSTORE PUSH2 0x2FC6 DUP2 DUP8 PUSH2 0x2E93 JUMP JUMPDEST SWAP9 SWAP8 POP POP POP POP POP POP POP POP JUMP JUMPDEST SWAP1 ISZERO ISZERO DUP2 MSTORE PUSH1 0x20 ADD SWAP1 JUMP JUMPDEST PUSH1 0x1 PUSH1 0x1 PUSH1 0xE0 SHL SUB NOT SWAP2 SWAP1 SWAP2 AND DUP2 MSTORE PUSH1 0x20 ADD SWAP1 JUMP JUMPDEST PUSH1 0x20 DUP2 ADD PUSH2 0x2413 DUP3 DUP5 PUSH2 0x2ED0 JUMP JUMPDEST PUSH2 0x140 DUP2 ADD PUSH2 0x300F DUP3 DUP14 PUSH2 0x2ED0 JUMP JUMPDEST PUSH1 0x20 DUP3 ADD SWAP11 SWAP1 SWAP11 MSTORE PUSH1 0xFF SWAP9 SWAP1 SWAP9 AND PUSH1 0x40 DUP10 ADD MSTORE PUSH1 0x60 DUP9 ADD SWAP7 SWAP1 SWAP7 MSTORE PUSH1 0x80 DUP8 ADD SWAP5 SWAP1 SWAP5 MSTORE PUSH1 0xA0 DUP7 ADD SWAP3 SWAP1 SWAP3 MSTORE PUSH1 0x1 PUSH1 0x1 PUSH1 0xA0 SHL SUB SWAP1 DUP2 AND PUSH1 0xC0 DUP7 ADD MSTORE SWAP1 DUP2 AND PUSH1 0xE0 DUP6 ADD MSTORE SWAP1 DUP2 AND PUSH2 0x100 DUP5 ADD MSTORE AND PUSH2 0x120 SWAP1 SWAP2 ADD MSTORE SWAP2 SWAP1 POP JUMP JUMPDEST SWAP1 DUP2 MSTORE PUSH1 0x20 ADD SWAP1 JUMP JUMPDEST PUSH1 0x0 PUSH1 0xA0 DUP3 ADD SWAP1 POP DUP7 DUP3 MSTORE DUP6 PUSH1 0x20 DUP4 ADD MSTORE DUP5 PUSH1 0x40 DUP4 ADD MSTORE DUP4 PUSH1 0x60 DUP4 ADD MSTORE PUSH2 0x309B PUSH1 0x80 DUP4 ADD DUP5 PUSH2 0x2ED0 JUMP JUMPDEST SWAP7 SWAP6 POP POP POP POP POP POP JUMP JUMPDEST SWAP6 DUP7 MSTORE PUSH1 0x20 DUP7 ADD SWAP5 SWAP1 SWAP5 MSTORE PUSH1 0x40 DUP6 ADD SWAP3 SWAP1 SWAP3 MSTORE PUSH1 0x60 DUP5 ADD MSTORE PUSH1 0x80 DUP4 ADD MSTORE PUSH2 0xFFFF AND PUSH1 0xA0 DUP3 ADD MSTORE PUSH1 0xC0 ADD SWAP1 JUMP JUMPDEST SWAP4 DUP5 MSTORE PUSH1 0x20 DUP5 ADD SWAP3 SWAP1 SWAP3 MSTORE PUSH1 0x40 DUP4 ADD MSTORE PUSH4 0xFFFFFFFF AND PUSH1 0x60 DUP3 ADD MSTORE PUSH1 0x80 ADD SWAP1 JUMP JUMPDEST PUSH4 0xFFFFFFFF SWAP2 SWAP1 SWAP2 AND DUP2 MSTORE PUSH1 0x20 ADD SWAP1 JUMP JUMPDEST PUSH1 0xFF SWAP2 SWAP1 SWAP2 AND DUP2 MSTORE PUSH1 0x20 ADD SWAP1 JUMP JUMPDEST PUSH1 0x40 MLOAD DUP2 DUP2 ADD PUSH8 0xFFFFFFFFFFFFFFFF DUP2 GT DUP3 DUP3 LT OR ISZERO PUSH2 0x312D JUMPI INVALID JUMPDEST PUSH1 0x40 MSTORE SWAP2 SWAP1 POP JUMP JUMPDEST PUSH1 0x0 PUSH8 0xFFFFFFFFFFFFFFFF DUP3 GT ISZERO PUSH2 0x3149 JUMPI INVALID JUMPDEST POP PUSH1 0x20 SWAP1 DUP2 MUL ADD SWAP1 JUMP JUMPDEST PUSH1 0x1 PUSH1 0x1 PUSH1 0xA0 SHL SUB DUP2 AND DUP2 EQ PUSH2 0x23D7 JUMPI PUSH1 0x0 DUP1 REVERT INVALID 0x4F PUSH24 0x6E61626C653A206E6577206F776E65722069732074686520 PUSH27 0x65726F20616464726573735472616E73666572206F6620746F6B65 PUSH15 0x7320746F2072656365697665722066 PUSH2 0x696C PUSH6 0x645472616E73 PUSH7 0x6572206F662045 SLOAD 0x48 KECCAK256 PUSH21 0x6F207265636569766572206661696C65645472616E PUSH20 0x666572206F6620746F6B656E7320746F20537461 PUSH21 0x6572206661696C6564A2646970667358221220B312 DUP14 MSIZE 0x4C 0xA6 SWAP5 0xAC 0x28 0x2E 0xC2 ORIGIN DUP13 0xD5 0xE0 PUSH16 0xFF8A5E414C906868DE0E929779AE0778 PUSH5 0x736F6C6343 STOP SMOD MOD STOP CALLER "
		},
		"gasEstimates": {
			"creation": {
				"codeDepositCost": "2569200",
				"executionCost": "65258",
				"totalCost": "2634458"
			},
			"external": {
				"approveLoan(uint256)": "infinite",
				"approveLoanWithPool(uint256,uint256)": "infinite",
				"cancelLoan(uint256)": "infinite",
				"createLoan((address,address[],uint256,uint256,uint256,uint256[],uint16,uint8[]))": "infinite",
				"discountsHandler()": "1181",
				"editLoan(uint256,uint256,uint16,address,uint256,uint256)": "153323",
				"id()": "1139",
				"interestRate()": "1117",
				"interestRateToStater()": "1095",
				"lackOfPayment(uint256)": "infinite",
				"lenderFee()": "1136",
				"liquidationTreshold()": "1096",
				"loanControlPanels(uint256)": "8934",
				"loanFeesHandler(uint256)": "3737",
				"loanHandler()": "1115",
				"loans(uint256)": "7185",
				"ltv()": "1140",
				"onERC1155BatchReceived(address,address,uint256[],uint256[],bytes)": "infinite",
				"onERC1155Received(address,address,uint256,uint256,bytes)": "infinite",
				"onERC721Received(address,address,uint256,bytes)": "infinite",
				"owner()": "1115",
				"payLoan(uint256,uint256)": "infinite",
				"poolHandler()": "1161",
				"promissoryHandler()": "1114",
				"renounceOwnership()": "23549",
				"supportsInterface(bytes4)": "543",
				"terminateLoan(uint256)": "infinite",
				"transferItems(address,address,address[],uint256[],uint8[])": "infinite",
				"transferOwnership(address)": "infinite",
				"transferTokens(address,address,address,uint256,uint256)": "infinite"
			},
			"internal": {
				"approveLoanCoreMechanism(uint256)": "infinite"
			}
		},
		"methodIdentifiers": {
			"approveLoan(uint256)": "aadc1ac1",
			"approveLoanWithPool(uint256,uint256)": "67a00c55",
			"cancelLoan(uint256)": "bdbfa3de",
			"createLoan((address,address[],uint256,uint256,uint256,uint256[],uint16,uint8[]))": "7b878d42",
			"discountsHandler()": "d442ce09",
			"editLoan(uint256,uint256,uint16,address,uint256,uint256)": "4b69cd6c",
			"id()": "af640d0f",
			"interestRate()": "7c3a00fd",
			"interestRateToStater()": "8f829275",
			"lackOfPayment(uint256)": "44ff78c7",
			"lenderFee()": "8ca83f07",
			"liquidationTreshold()": "537d2a2b",
			"loanControlPanels(uint256)": "2d990756",
			"loanFeesHandler(uint256)": "8395f083",
			"loanHandler()": "b2b71a00",
			"loans(uint256)": "e1ec3c68",
			"ltv()": "6fb49d73",
			"onERC1155BatchReceived(address,address,uint256[],uint256[],bytes)": "bc197c81",
			"onERC1155Received(address,address,uint256,uint256,bytes)": "f23a6e61",
			"onERC721Received(address,address,uint256,bytes)": "150b7a02",
			"owner()": "8da5cb5b",
			"payLoan(uint256,uint256)": "89306e61",
			"poolHandler()": "2a607841",
			"promissoryHandler()": "d9cbb52d",
			"renounceOwnership()": "715018a6",
			"supportsInterface(bytes4)": "01ffc9a7",
			"terminateLoan(uint256)": "7fb9fe3d",
			"transferItems(address,address,address[],uint256[],uint8[])": "407299d7",
			"transferOwnership(address)": "f2fde38b",
			"transferTokens(address,address,address,uint256,uint256)": "2e3f4a5d"
		}
	},
	"abi": [
		{
			"anonymous": false,
			"inputs": [
				{
					"indexed": true,
					"internalType": "address",
					"name": "currency",
					"type": "address"
				},
				{
					"indexed": true,
					"internalType": "uint256",
					"name": "loanId",
					"type": "uint256"
				},
				{
					"indexed": false,
					"internalType": "uint256",
					"name": "loanAmount",
					"type": "uint256"
				},
				{
					"indexed": false,
					"internalType": "uint256",
					"name": "amountDue",
					"type": "uint256"
				},
				{
					"indexed": false,
					"internalType": "uint256",
					"name": "installmentAmount",
					"type": "uint256"
				},
				{
					"indexed": false,
					"internalType": "uint256",
					"name": "assetsValue",
					"type": "uint256"
				},
				{
					"indexed": false,
					"internalType": "uint256",
					"name": "frequencyTime",
					"type": "uint256"
				},
				{
					"indexed": false,
					"internalType": "uint256",
					"name": "frequencyTimeUnit",
					"type": "uint256"
				}
			],
			"name": "EditLoan",
			"type": "event"
		},
		{
			"anonymous": false,
			"inputs": [
				{
					"indexed": true,
					"internalType": "address",
					"name": "requester",
					"type": "address"
				},
				{
					"indexed": true,
					"internalType": "uint256",
					"name": "loanId",
					"type": "uint256"
				},
				{
					"indexed": false,
					"internalType": "enum LendingCore.Status",
					"name": "status",
					"type": "uint8"
				}
			],
			"name": "ItemsWithdrawn",
			"type": "event"
		},
		{
			"anonymous": false,
			"inputs": [
				{
					"indexed": true,
					"internalType": "address",
					"name": "lender",
					"type": "address"
				},
				{
					"indexed": true,
					"internalType": "uint256",
					"name": "loanId",
					"type": "uint256"
				},
				{
					"indexed": false,
					"internalType": "uint256",
					"name": "loanPaymentEnd",
					"type": "uint256"
				}
			],
			"name": "LoanApproved",
			"type": "event"
		},
		{
			"anonymous": false,
			"inputs": [
				{
					"indexed": true,
					"internalType": "uint256",
					"name": "loanId",
					"type": "uint256"
				}
			],
			"name": "LoanCancelled",
			"type": "event"
		},
		{
			"anonymous": false,
			"inputs": [
				{
					"indexed": true,
					"internalType": "uint256",
					"name": "loanId",
					"type": "uint256"
				},
				{
					"indexed": false,
					"internalType": "uint256",
					"name": "installmentAmount",
					"type": "uint256"
				},
				{
					"indexed": false,
					"internalType": "uint256",
					"name": "amountPaidAsInstallmentToLender",
					"type": "uint256"
				},
				{
					"indexed": false,
					"internalType": "uint256",
					"name": "interestPerInstallement",
					"type": "uint256"
				},
				{
					"indexed": false,
					"internalType": "uint256",
					"name": "interestToStaterPerInstallement",
					"type": "uint256"
				},
				{
					"indexed": false,
					"internalType": "enum LendingCore.Status",
					"name": "status",
					"type": "uint8"
				}
			],
			"name": "LoanPayment",
			"type": "event"
		},
		{
			"anonymous": false,
			"inputs": [
				{
					"indexed": true,
					"internalType": "address",
					"name": "owner",
					"type": "address"
				},
				{
					"indexed": true,
					"internalType": "address",
					"name": "currency",
					"type": "address"
				},
				{
					"indexed": true,
					"internalType": "uint256",
					"name": "loanId",
					"type": "uint256"
				},
				{
					"indexed": false,
					"internalType": "address[]",
					"name": "nftAddressArray",
					"type": "address[]"
				},
				{
					"indexed": false,
					"internalType": "uint256[]",
					"name": "nftTokenIdArray",
					"type": "uint256[]"
				},
				{
					"indexed": false,
					"internalType": "uint8[]",
					"name": "nftTokenTypeArray",
					"type": "uint8[]"
				}
			],
			"name": "NewLoan",
			"type": "event"
		},
		{
			"anonymous": false,
			"inputs": [
				{
					"indexed": true,
					"internalType": "address",
					"name": "previousOwner",
					"type": "address"
				},
				{
					"indexed": true,
					"internalType": "address",
					"name": "newOwner",
					"type": "address"
				}
			],
			"name": "OwnershipTransferred",
			"type": "event"
		},
		{
			"inputs": [
				{
					"internalType": "uint256",
					"name": "loanId",
					"type": "uint256"
				}
			],
			"name": "approveLoan",
			"outputs": [],
			"stateMutability": "payable",
			"type": "function"
		},
		{
			"inputs": [
				{
					"internalType": "uint256",
					"name": "loanId",
					"type": "uint256"
				},
				{
					"internalType": "uint256",
					"name": "poolId",
					"type": "uint256"
				}
			],
			"name": "approveLoanWithPool",
			"outputs": [],
			"stateMutability": "payable",
			"type": "function"
		},
		{
			"inputs": [
				{
					"internalType": "uint256",
					"name": "loanId",
					"type": "uint256"
				}
			],
			"name": "cancelLoan",
			"outputs": [],
			"stateMutability": "nonpayable",
			"type": "function"
		},
		{
			"inputs": [
				{
					"components": [
						{
							"internalType": "address",
							"name": "currency",
							"type": "address"
						},
						{
							"internalType": "address[]",
							"name": "nftAddressArray",
							"type": "address[]"
						},
						{
							"internalType": "uint256",
							"name": "loanAmount",
							"type": "uint256"
						},
						{
							"internalType": "uint256",
							"name": "installmentTime",
							"type": "uint256"
						},
						{
							"internalType": "uint256",
							"name": "assetsValue",
							"type": "uint256"
						},
						{
							"internalType": "uint256[]",
							"name": "nftTokenIdArray",
							"type": "uint256[]"
						},
						{
							"internalType": "uint16",
							"name": "nrOfInstallments",
							"type": "uint16"
						},
						{
							"internalType": "uint8[]",
							"name": "nftTokenTypeArray",
							"type": "uint8[]"
						}
					],
					"internalType": "struct Params.CreateLoanParams",
					"name": "loan",
					"type": "tuple"
				}
			],
			"name": "createLoan",
			"outputs": [],
			"stateMutability": "nonpayable",
			"type": "function"
		},
		{
			"inputs": [],
			"name": "discountsHandler",
			"outputs": [
				{
					"internalType": "address",
					"name": "",
					"type": "address"
				}
			],
			"stateMutability": "view",
			"type": "function"
		},
		{
			"inputs": [
				{
					"internalType": "uint256",
					"name": "loanId",
					"type": "uint256"
				},
				{
					"internalType": "uint256",
					"name": "loanAmount",
					"type": "uint256"
				},
				{
					"internalType": "uint16",
					"name": "nrOfInstallments",
					"type": "uint16"
				},
				{
					"internalType": "address",
					"name": "currency",
					"type": "address"
				},
				{
					"internalType": "uint256",
					"name": "assetsValue",
					"type": "uint256"
				},
				{
					"internalType": "uint256",
					"name": "installmentTime",
					"type": "uint256"
				}
			],
			"name": "editLoan",
			"outputs": [],
			"stateMutability": "nonpayable",
			"type": "function"
		},
		{
			"inputs": [],
			"name": "id",
			"outputs": [
				{
					"internalType": "uint256",
					"name": "",
					"type": "uint256"
				}
			],
			"stateMutability": "view",
			"type": "function"
		},
		{
			"inputs": [],
			"name": "interestRate",
			"outputs": [
				{
					"internalType": "uint256",
					"name": "",
					"type": "uint256"
				}
			],
			"stateMutability": "view",
			"type": "function"
		},
		{
			"inputs": [],
			"name": "interestRateToStater",
			"outputs": [
				{
					"internalType": "uint256",
					"name": "",
					"type": "uint256"
				}
			],
			"stateMutability": "view",
			"type": "function"
		},
		{
			"inputs": [
				{
					"internalType": "uint256",
					"name": "loanId",
					"type": "uint256"
				}
			],
			"name": "lackOfPayment",
			"outputs": [
				{
					"internalType": "uint8",
					"name": "",
					"type": "uint8"
				}
			],
			"stateMutability": "view",
			"type": "function"
		},
		{
			"inputs": [],
			"name": "lenderFee",
			"outputs": [
				{
					"internalType": "uint32",
					"name": "",
					"type": "uint32"
				}
			],
			"stateMutability": "view",
			"type": "function"
		},
		{
			"inputs": [],
			"name": "liquidationTreshold",
			"outputs": [
				{
					"internalType": "uint256",
					"name": "",
					"type": "uint256"
				}
			],
			"stateMutability": "view",
			"type": "function"
		},
		{
			"inputs": [
				{
					"internalType": "uint256",
					"name": "",
					"type": "uint256"
				}
			],
			"name": "loanControlPanels",
			"outputs": [
				{
					"internalType": "enum LendingCore.Status",
					"name": "status",
					"type": "uint8"
				},
				{
					"internalType": "uint256",
					"name": "poolId",
					"type": "uint256"
				},
				{
					"internalType": "uint8",
					"name": "defaultingLimit",
					"type": "uint8"
				},
				{
					"internalType": "uint256",
					"name": "installmentAmount",
					"type": "uint256"
				},
				{
					"internalType": "uint256",
					"name": "amountDue",
					"type": "uint256"
				},
				{
					"internalType": "uint256",
					"name": "paidAmount",
					"type": "uint256"
				},
				{
					"internalType": "address",
					"name": "loanHandler",
					"type": "address"
				},
				{
					"internalType": "address",
					"name": "promissoryHandler",
					"type": "address"
				},
				{
					"internalType": "address",
					"name": "discountsHandler",
					"type": "address"
				},
				{
					"internalType": "address",
					"name": "poolHandler",
					"type": "address"
				}
			],
			"stateMutability": "view",
			"type": "function"
		},
		{
			"inputs": [
				{
					"internalType": "uint256",
					"name": "",
					"type": "uint256"
				}
			],
			"name": "loanFeesHandler",
			"outputs": [
				{
					"internalType": "uint256",
					"name": "ltv",
					"type": "uint256"
				},
				{
					"internalType": "uint256",
					"name": "interestRate",
					"type": "uint256"
				},
				{
					"internalType": "uint256",
					"name": "interestRateToStater",
					"type": "uint256"
				},
				{
					"internalType": "uint32",
					"name": "lenderFee",
					"type": "uint32"
				}
			],
			"stateMutability": "view",
			"type": "function"
		},
		{
			"inputs": [],
			"name": "loanHandler",
			"outputs": [
				{
					"internalType": "address",
					"name": "",
					"type": "address"
				}
			],
			"stateMutability": "view",
			"type": "function"
		},
		{
			"inputs": [
				{
					"internalType": "uint256",
					"name": "",
					"type": "uint256"
				}
			],
			"name": "loans",
			"outputs": [
				{
					"internalType": "address payable",
					"name": "borrower",
					"type": "address"
				},
				{
					"internalType": "address payable",
					"name": "lender",
					"type": "address"
				},
				{
					"internalType": "address",
					"name": "currency",
					"type": "address"
				},
				{
					"internalType": "uint256",
					"name": "installmentTime",
					"type": "uint256"
				},
				{
					"internalType": "uint256",
					"name": "nrOfPayments",
					"type": "uint256"
				},
				{
					"internalType": "uint256",
					"name": "loanAmount",
					"type": "uint256"
				},
				{
					"internalType": "uint256",
					"name": "assetsValue",
					"type": "uint256"
				},
				{
					"internalType": "uint16",
					"name": "nrOfInstallments",
					"type": "uint16"
				}
			],
			"stateMutability": "view",
			"type": "function"
		},
		{
			"inputs": [],
			"name": "ltv",
			"outputs": [
				{
					"internalType": "uint256",
					"name": "",
					"type": "uint256"
				}
			],
			"stateMutability": "view",
			"type": "function"
		},
		{
			"inputs": [
				{
					"internalType": "address",
					"name": "",
					"type": "address"
				},
				{
					"internalType": "address",
					"name": "",
					"type": "address"
				},
				{
					"internalType": "uint256[]",
					"name": "",
					"type": "uint256[]"
				},
				{
					"internalType": "uint256[]",
					"name": "",
					"type": "uint256[]"
				},
				{
					"internalType": "bytes",
					"name": "",
					"type": "bytes"
				}
			],
			"name": "onERC1155BatchReceived",
			"outputs": [
				{
					"internalType": "bytes4",
					"name": "",
					"type": "bytes4"
				}
			],
			"stateMutability": "nonpayable",
			"type": "function"
		},
		{
			"inputs": [
				{
					"internalType": "address",
					"name": "",
					"type": "address"
				},
				{
					"internalType": "address",
					"name": "",
					"type": "address"
				},
				{
					"internalType": "uint256",
					"name": "",
					"type": "uint256"
				},
				{
					"internalType": "uint256",
					"name": "",
					"type": "uint256"
				},
				{
					"internalType": "bytes",
					"name": "",
					"type": "bytes"
				}
			],
			"name": "onERC1155Received",
			"outputs": [
				{
					"internalType": "bytes4",
					"name": "",
					"type": "bytes4"
				}
			],
			"stateMutability": "nonpayable",
			"type": "function"
		},
		{
			"inputs": [
				{
					"internalType": "address",
					"name": "",
					"type": "address"
				},
				{
					"internalType": "address",
					"name": "",
					"type": "address"
				},
				{
					"internalType": "uint256",
					"name": "",
					"type": "uint256"
				},
				{
					"internalType": "bytes",
					"name": "",
					"type": "bytes"
				}
			],
			"name": "onERC721Received",
			"outputs": [
				{
					"internalType": "bytes4",
					"name": "",
					"type": "bytes4"
				}
			],
			"stateMutability": "nonpayable",
			"type": "function"
		},
		{
			"inputs": [],
			"name": "owner",
			"outputs": [
				{
					"internalType": "address",
					"name": "",
					"type": "address"
				}
			],
			"stateMutability": "view",
			"type": "function"
		},
		{
			"inputs": [
				{
					"internalType": "uint256",
					"name": "loanId",
					"type": "uint256"
				},
				{
					"internalType": "uint256",
					"name": "amount",
					"type": "uint256"
				}
			],
			"name": "payLoan",
			"outputs": [],
			"stateMutability": "payable",
			"type": "function"
		},
		{
			"inputs": [],
			"name": "poolHandler",
			"outputs": [
				{
					"internalType": "address",
					"name": "",
					"type": "address"
				}
			],
			"stateMutability": "view",
			"type": "function"
		},
		{
			"inputs": [],
			"name": "promissoryHandler",
			"outputs": [
				{
					"internalType": "address",
					"name": "",
					"type": "address"
				}
			],
			"stateMutability": "view",
			"type": "function"
		},
		{
			"inputs": [],
			"name": "renounceOwnership",
			"outputs": [],
			"stateMutability": "nonpayable",
			"type": "function"
		},
		{
			"inputs": [
				{
					"internalType": "bytes4",
					"name": "interfaceId",
					"type": "bytes4"
				}
			],
			"name": "supportsInterface",
			"outputs": [
				{
					"internalType": "bool",
					"name": "",
					"type": "bool"
				}
			],
			"stateMutability": "view",
			"type": "function"
		},
		{
			"inputs": [
				{
					"internalType": "uint256",
					"name": "loanId",
					"type": "uint256"
				}
			],
			"name": "terminateLoan",
			"outputs": [],
			"stateMutability": "nonpayable",
			"type": "function"
		},
		{
			"inputs": [
				{
					"internalType": "address",
					"name": "from",
					"type": "address"
				},
				{
					"internalType": "address",
					"name": "to",
					"type": "address"
				},
				{
					"internalType": "address[]",
					"name": "nftAddressArray",
					"type": "address[]"
				},
				{
					"internalType": "uint256[]",
					"name": "nftTokenIdArray",
					"type": "uint256[]"
				},
				{
					"internalType": "uint8[]",
					"name": "nftTokenTypeArray",
					"type": "uint8[]"
				}
			],
			"name": "transferItems",
			"outputs": [],
			"stateMutability": "nonpayable",
			"type": "function"
		},
		{
			"inputs": [
				{
					"internalType": "address",
					"name": "newOwner",
					"type": "address"
				}
			],
			"name": "transferOwnership",
			"outputs": [],
			"stateMutability": "nonpayable",
			"type": "function"
		},
		{
			"inputs": [
				{
					"internalType": "address",
					"name": "from",
					"type": "address"
				},
				{
					"internalType": "address payable",
					"name": "to",
					"type": "address"
				},
				{
					"internalType": "address",
					"name": "currency",
					"type": "address"
				},
				{
					"internalType": "uint256",
					"name": "qty1",
					"type": "uint256"
				},
				{
					"internalType": "uint256",
					"name": "qty2",
					"type": "uint256"
				}
			],
			"name": "transferTokens",
			"outputs": [],
			"stateMutability": "nonpayable",
			"type": "function"
		}
	]
}