{
  "_format": "hh-sol-artifact-1",
  "contractName": "StaterTransfers",
  "sourceName": "contracts/plugins/StaterTransfers.sol",
  "abi": [
    {
      "anonymous": false,
      "inputs": [
        {
          "indexed": true,
          "internalType": "address",
          "name": "previousOwner",
          "type": "address"
        },
        {
          "indexed": true,
          "internalType": "address",
          "name": "newOwner",
          "type": "address"
        }
      ],
      "name": "OwnershipTransferred",
      "type": "event"
    },
    {
      "inputs": [
        {
          "internalType": "address",
          "name": "from",
          "type": "address"
        },
        {
          "internalType": "address",
          "name": "currency",
          "type": "address"
        }
      ],
      "name": "checkTokensApproval",
      "outputs": [
        {
          "internalType": "uint256",
          "name": "",
          "type": "uint256"
        }
      ],
      "stateMutability": "view",
      "type": "function"
    },
    {
      "inputs": [
        {
          "internalType": "address",
          "name": "",
          "type": "address"
        },
        {
          "internalType": "address",
          "name": "",
          "type": "address"
        },
        {
          "internalType": "uint256[]",
          "name": "",
          "type": "uint256[]"
        },
        {
          "internalType": "uint256[]",
          "name": "",
          "type": "uint256[]"
        },
        {
          "internalType": "bytes",
          "name": "",
          "type": "bytes"
        }
      ],
      "name": "onERC1155BatchReceived",
      "outputs": [
        {
          "internalType": "bytes4",
          "name": "",
          "type": "bytes4"
        }
      ],
      "stateMutability": "nonpayable",
      "type": "function"
    },
    {
      "inputs": [
        {
          "internalType": "address",
          "name": "",
          "type": "address"
        },
        {
          "internalType": "address",
          "name": "",
          "type": "address"
        },
        {
          "internalType": "uint256",
          "name": "",
          "type": "uint256"
        },
        {
          "internalType": "uint256",
          "name": "",
          "type": "uint256"
        },
        {
          "internalType": "bytes",
          "name": "",
          "type": "bytes"
        }
      ],
      "name": "onERC1155Received",
      "outputs": [
        {
          "internalType": "bytes4",
          "name": "",
          "type": "bytes4"
        }
      ],
      "stateMutability": "nonpayable",
      "type": "function"
    },
    {
      "inputs": [
        {
          "internalType": "address",
          "name": "",
          "type": "address"
        },
        {
          "internalType": "address",
          "name": "",
          "type": "address"
        },
        {
          "internalType": "uint256",
          "name": "",
          "type": "uint256"
        },
        {
          "internalType": "bytes",
          "name": "",
          "type": "bytes"
        }
      ],
      "name": "onERC721Received",
      "outputs": [
        {
          "internalType": "bytes4",
          "name": "",
          "type": "bytes4"
        }
      ],
      "stateMutability": "nonpayable",
      "type": "function"
    },
    {
      "inputs": [],
      "name": "owner",
      "outputs": [
        {
          "internalType": "address",
          "name": "",
          "type": "address"
        }
      ],
      "stateMutability": "view",
      "type": "function"
    },
    {
      "inputs": [],
      "name": "renounceOwnership",
      "outputs": [],
      "stateMutability": "nonpayable",
      "type": "function"
    },
    {
      "inputs": [
        {
          "internalType": "bytes4",
          "name": "interfaceId",
          "type": "bytes4"
        }
      ],
      "name": "supportsInterface",
      "outputs": [
        {
          "internalType": "bool",
          "name": "",
          "type": "bool"
        }
      ],
      "stateMutability": "view",
      "type": "function"
    },
    {
      "inputs": [
        {
          "internalType": "address",
          "name": "from",
          "type": "address"
        },
        {
          "internalType": "address",
          "name": "to",
          "type": "address"
        },
        {
          "internalType": "address[]",
          "name": "nftAddressArray",
          "type": "address[]"
        },
        {
          "internalType": "uint256[]",
          "name": "nftTokenIdArray",
          "type": "uint256[]"
        },
        {
          "internalType": "uint8[]",
          "name": "nftTokenTypeArray",
          "type": "uint8[]"
        }
      ],
      "name": "transferItems",
      "outputs": [],
      "stateMutability": "nonpayable",
      "type": "function"
    },
    {
      "inputs": [
        {
          "internalType": "address",
          "name": "newOwner",
          "type": "address"
        }
      ],
      "name": "transferOwnership",
      "outputs": [],
      "stateMutability": "nonpayable",
      "type": "function"
    },
    {
      "inputs": [
        {
          "internalType": "address",
          "name": "from",
          "type": "address"
        },
        {
          "internalType": "address payable",
          "name": "to",
          "type": "address"
        },
        {
          "internalType": "address",
          "name": "currency",
          "type": "address"
        },
        {
          "internalType": "uint256",
          "name": "qty1",
          "type": "uint256"
        },
        {
          "internalType": "uint256",
          "name": "qty2",
          "type": "uint256"
        }
      ],
      "name": "transferTokens",
      "outputs": [],
      "stateMutability": "nonpayable",
      "type": "function"
    }
  ],
  "bytecode": "0x608060405234801561001057600080fd5b5061001a3361001f565b61006f565b600080546001600160a01b038381166001600160a01b0319831681178455604051919092169283917f8be0079c531659141344cd1fd0a4f28419497f9722a3daafe3b4186f6b6457e09190a35050565b610e928061007e6000396000f3fe608060405234801561001057600080fd5b506004361061008e5760003560e01c806301ffc9a714610093578063150b7a02146100bb5780632e3f4a5d146100f2578063407299d714610107578063715018a61461011a5780638da5cb5b14610122578063bc197c8114610142578063bdd3dc8e14610161578063f23a6e6114610182578063f2fde38b146101a1575b600080fd5b6100a66100a136600461086d565b6101b4565b60405190151581526020015b60405180910390f35b6100d96100c9366004610961565b630a85bd0160e11b949350505050565b6040516001600160e01b031990911681526020016100b2565b6101056101003660046109cc565b6101eb565b005b610105610115366004610b20565b6104a1565b6101056106b8565b61012a6106f3565b6040516001600160a01b0390911681526020016100b2565b6100d9610150366004610c2d565b63bc197c8160e01b95945050505050565b61017461016f366004610ccd565b610702565b6040519081526020016100b2565b6100d9610190366004610d06565b63f23a6e6160e01b95945050505050565b6101056101af366004610d6e565b61077d565b60006001600160e01b03198216630271189760e51b14806101e557506301ffc9a760e01b6001600160e01b03198316145b92915050565b6001600160a01b038316156103a3576040516323b872dd60e01b81526001600160a01b038416906323b872dd9061022a90889088908790600401610d8b565b6020604051808303816000875af1158015610249573d6000803e3d6000fd5b505050506040513d601f19601f8201168201806040525081019061026d9190610daf565b6102cc5760405162461bcd60e51b815260206004820152602560248201527f5472616e73666572206f6620746f6b656e7320746f2072656365697665722066604482015264185a5b195960da1b60648201526084015b60405180910390fd5b826001600160a01b03166323b872dd866102e46106f3565b846040518463ffffffff1660e01b815260040161030393929190610d8b565b6020604051808303816000875af1158015610322573d6000803e3d6000fd5b505050506040513d601f19601f820116820180604052508101906103469190610daf565b61039e5760405162461bcd60e51b815260206004820152602360248201527f5472616e73666572206f6620746f6b656e7320746f20537461746572206661696044820152621b195960ea1b60648201526084016102c3565b61049a565b6040516001600160a01b0385169083156108fc029084906000818181858888f1935050505061041f5760405162461bcd60e51b815260206004820152602260248201527f5472616e73666572206f662045544820746f207265636569766572206661696c604482015261195960f21b60648201526084016102c3565b6104276106f3565b6001600160a01b03166108fc829081150290604051600060405180830381858888f1935050505061049a5760405162461bcd60e51b815260206004820181905260248201527f5472616e73666572206f662045544820746f20537461746572206661696c656460448201526064016102c3565b5050505050565b82518251811480156104b35750808251145b6104ff5760405162461bcd60e51b815260206004820181905260248201527f546f6b656e20696e666f732070726f76696465642061726520696e76616c696460448201526064016102c3565b60005b818110156106af5782818151811061051c5761051c610dd1565b602002602001015160ff166000036105c75784818151811061054057610540610dd1565b60200260200101516001600160a01b03166342842e0e888887858151811061056a5761056a610dd1565b60200260200101516040518463ffffffff1660e01b815260040161059093929190610d8b565b600060405180830381600087803b1580156105aa57600080fd5b505af11580156105be573d6000803e3d6000fd5b5050505061069f565b8481815181106105d9576105d9610dd1565b60200260200101516001600160a01b031663f242432a888887858151811061060357610603610dd1565b602002602001015160016040518563ffffffff1660e01b815260040161066c94939291906001600160a01b0394851681529290931660208301526040820152606081019190915260a060808201819052600490820152630307830360e41b60c082015260e00190565b600060405180830381600087803b15801561068657600080fd5b505af115801561069a573d6000803e3d6000fd5b505050505b6106a881610de7565b9050610502565b50505050505050565b336106c16106f3565b6001600160a01b0316146106e75760405162461bcd60e51b81526004016102c390610e0e565b6106f1600061081d565b565b6000546001600160a01b031690565b604051636eb1769f60e11b81526001600160a01b0383811660048301523060248301526000919083169063dd62ed3e90604401602060405180830381865afa158015610752573d6000803e3d6000fd5b505050506040513d601f19601f820116820180604052508101906107769190610e43565b9392505050565b336107866106f3565b6001600160a01b0316146107ac5760405162461bcd60e51b81526004016102c390610e0e565b6001600160a01b0381166108115760405162461bcd60e51b815260206004820152602660248201527f4f776e61626c653a206e6577206f776e657220697320746865207a65726f206160448201526564647265737360d01b60648201526084016102c3565b61081a8161081d565b50565b600080546001600160a01b038381166001600160a01b0319831681178455604051919092169283917f8be0079c531659141344cd1fd0a4f28419497f9722a3daafe3b4186f6b6457e09190a35050565b60006020828403121561087f57600080fd5b81356001600160e01b03198116811461077657600080fd5b6001600160a01b038116811461081a57600080fd5b634e487b7160e01b600052604160045260246000fd5b604051601f8201601f191681016001600160401b03811182821017156108ea576108ea6108ac565b604052919050565b600082601f83011261090357600080fd5b81356001600160401b0381111561091c5761091c6108ac565b61092f601f8201601f19166020016108c2565b81815284602083860101111561094457600080fd5b816020850160208301376000918101602001919091529392505050565b6000806000806080858703121561097757600080fd5b843561098281610897565b9350602085013561099281610897565b92506040850135915060608501356001600160401b038111156109b457600080fd5b6109c0878288016108f2565b91505092959194509250565b600080600080600060a086880312156109e457600080fd5b85356109ef81610897565b945060208601356109ff81610897565b93506040860135610a0f81610897565b94979396509394606081013594506080013592915050565b60006001600160401b03821115610a4057610a406108ac565b5060051b60200190565b600082601f830112610a5b57600080fd5b81356020610a70610a6b83610a27565b6108c2565b82815260059290921b84018101918181019086841115610a8f57600080fd5b8286015b84811015610aaa5780358352918301918301610a93565b509695505050505050565b600082601f830112610ac657600080fd5b81356020610ad6610a6b83610a27565b82815260059290921b84018101918181019086841115610af557600080fd5b8286015b84811015610aaa57803560ff81168114610b135760008081fd5b8352918301918301610af9565b600080600080600060a08688031215610b3857600080fd5b8535610b4381610897565b9450602086810135610b5481610897565b945060408701356001600160401b0380821115610b7057600080fd5b818901915089601f830112610b8457600080fd5b8135610b92610a6b82610a27565b81815260059190911b8301840190848101908c831115610bb157600080fd5b938501935b82851015610bd8578435610bc981610897565b82529385019390850190610bb6565b975050506060890135925080831115610bf057600080fd5b610bfc8a848b01610a4a565b94506080890135925080831115610c1257600080fd5b5050610c2088828901610ab5565b9150509295509295909350565b600080600080600060a08688031215610c4557600080fd5b8535610c5081610897565b94506020860135610c6081610897565b935060408601356001600160401b0380821115610c7c57600080fd5b610c8889838a01610a4a565b94506060880135915080821115610c9e57600080fd5b610caa89838a01610a4a565b93506080880135915080821115610cc057600080fd5b50610c20888289016108f2565b60008060408385031215610ce057600080fd5b8235610ceb81610897565b91506020830135610cfb81610897565b809150509250929050565b600080600080600060a08688031215610d1e57600080fd5b8535610d2981610897565b94506020860135610d3981610897565b9350604086013592506060860135915060808601356001600160401b03811115610d6257600080fd5b610c20888289016108f2565b600060208284031215610d8057600080fd5b813561077681610897565b6001600160a01b039384168152919092166020820152604081019190915260600190565b600060208284031215610dc157600080fd5b8151801515811461077657600080fd5b634e487b7160e01b600052603260045260246000fd5b600060018201610e0757634e487b7160e01b600052601160045260246000fd5b5060010190565b6020808252818101527f4f776e61626c653a2063616c6c6572206973206e6f7420746865206f776e6572604082015260600190565b600060208284031215610e5557600080fd5b505191905056fea2646970667358221220922a93cc6a406296a0710e57d22ebfb3244e95628b64c434490258e9198c8ab364736f6c634300080e0033",
  "linkReferences": {},
  "deployedLinkReferences": {}
}