{
  "_format": "hh-sol-artifact-1",
  "contractName": "ERC1155Meta",
  "sourceName": "contracts/libs/multi-token-standard/contracts/tokens/ERC1155/ERC1155Meta.sol",
  "abi": [
    {
      "anonymous": false,
      "inputs": [
        {
          "indexed": true,
          "internalType": "address",
          "name": "_owner",
          "type": "address"
        },
        {
          "indexed": true,
          "internalType": "address",
          "name": "_operator",
          "type": "address"
        },
        {
          "indexed": false,
          "internalType": "bool",
          "name": "_approved",
          "type": "bool"
        }
      ],
      "name": "ApprovalForAll",
      "type": "event"
    },
    {
      "anonymous": false,
      "inputs": [
        {
          "indexed": true,
          "internalType": "address",
          "name": "signer",
          "type": "address"
        },
        {
          "indexed": false,
          "internalType": "uint256",
          "name": "newNonce",
          "type": "uint256"
        }
      ],
      "name": "NonceChange",
      "type": "event"
    },
    {
      "anonymous": false,
      "inputs": [
        {
          "indexed": true,
          "internalType": "address",
          "name": "_operator",
          "type": "address"
        },
        {
          "indexed": true,
          "internalType": "address",
          "name": "_from",
          "type": "address"
        },
        {
          "indexed": true,
          "internalType": "address",
          "name": "_to",
          "type": "address"
        },
        {
          "indexed": false,
          "internalType": "uint256[]",
          "name": "_ids",
          "type": "uint256[]"
        },
        {
          "indexed": false,
          "internalType": "uint256[]",
          "name": "_amounts",
          "type": "uint256[]"
        }
      ],
      "name": "TransferBatch",
      "type": "event"
    },
    {
      "anonymous": false,
      "inputs": [
        {
          "indexed": true,
          "internalType": "address",
          "name": "_operator",
          "type": "address"
        },
        {
          "indexed": true,
          "internalType": "address",
          "name": "_from",
          "type": "address"
        },
        {
          "indexed": true,
          "internalType": "address",
          "name": "_to",
          "type": "address"
        },
        {
          "indexed": false,
          "internalType": "uint256",
          "name": "_id",
          "type": "uint256"
        },
        {
          "indexed": false,
          "internalType": "uint256",
          "name": "_amount",
          "type": "uint256"
        }
      ],
      "name": "TransferSingle",
      "type": "event"
    },
    {
      "inputs": [
        {
          "internalType": "address",
          "name": "_owner",
          "type": "address"
        },
        {
          "internalType": "uint256",
          "name": "_id",
          "type": "uint256"
        }
      ],
      "name": "balanceOf",
      "outputs": [
        {
          "internalType": "uint256",
          "name": "",
          "type": "uint256"
        }
      ],
      "stateMutability": "view",
      "type": "function"
    },
    {
      "inputs": [
        {
          "internalType": "address[]",
          "name": "_owners",
          "type": "address[]"
        },
        {
          "internalType": "uint256[]",
          "name": "_ids",
          "type": "uint256[]"
        }
      ],
      "name": "balanceOfBatch",
      "outputs": [
        {
          "internalType": "uint256[]",
          "name": "",
          "type": "uint256[]"
        }
      ],
      "stateMutability": "view",
      "type": "function"
    },
    {
      "inputs": [
        {
          "internalType": "address",
          "name": "_signer",
          "type": "address"
        }
      ],
      "name": "getNonce",
      "outputs": [
        {
          "internalType": "uint256",
          "name": "nonce",
          "type": "uint256"
        }
      ],
      "stateMutability": "view",
      "type": "function"
    },
    {
      "inputs": [
        {
          "internalType": "address",
          "name": "_owner",
          "type": "address"
        },
        {
          "internalType": "address",
          "name": "_operator",
          "type": "address"
        }
      ],
      "name": "isApprovedForAll",
      "outputs": [
        {
          "internalType": "bool",
          "name": "isOperator",
          "type": "bool"
        }
      ],
      "stateMutability": "view",
      "type": "function"
    },
    {
      "inputs": [
        {
          "internalType": "address",
          "name": "_signerAddress",
          "type": "address"
        },
        {
          "internalType": "bytes32",
          "name": "_hash",
          "type": "bytes32"
        },
        {
          "internalType": "bytes",
          "name": "_data",
          "type": "bytes"
        },
        {
          "internalType": "bytes",
          "name": "_sig",
          "type": "bytes"
        }
      ],
      "name": "isValidSignature",
      "outputs": [
        {
          "internalType": "bool",
          "name": "isValid",
          "type": "bool"
        }
      ],
      "stateMutability": "view",
      "type": "function"
    },
    {
      "inputs": [
        {
          "internalType": "address",
          "name": "_from",
          "type": "address"
        },
        {
          "internalType": "address",
          "name": "_to",
          "type": "address"
        },
        {
          "internalType": "uint256[]",
          "name": "_ids",
          "type": "uint256[]"
        },
        {
          "internalType": "uint256[]",
          "name": "_amounts",
          "type": "uint256[]"
        },
        {
          "internalType": "bool",
          "name": "_isGasFee",
          "type": "bool"
        },
        {
          "internalType": "bytes",
          "name": "_data",
          "type": "bytes"
        }
      ],
      "name": "metaSafeBatchTransferFrom",
      "outputs": [],
      "stateMutability": "nonpayable",
      "type": "function"
    },
    {
      "inputs": [
        {
          "internalType": "address",
          "name": "_from",
          "type": "address"
        },
        {
          "internalType": "address",
          "name": "_to",
          "type": "address"
        },
        {
          "internalType": "uint256",
          "name": "_id",
          "type": "uint256"
        },
        {
          "internalType": "uint256",
          "name": "_amount",
          "type": "uint256"
        },
        {
          "internalType": "bool",
          "name": "_isGasFee",
          "type": "bool"
        },
        {
          "internalType": "bytes",
          "name": "_data",
          "type": "bytes"
        }
      ],
      "name": "metaSafeTransferFrom",
      "outputs": [],
      "stateMutability": "nonpayable",
      "type": "function"
    },
    {
      "inputs": [
        {
          "internalType": "address",
          "name": "_owner",
          "type": "address"
        },
        {
          "internalType": "address",
          "name": "_operator",
          "type": "address"
        },
        {
          "internalType": "bool",
          "name": "_approved",
          "type": "bool"
        },
        {
          "internalType": "bool",
          "name": "_isGasFee",
          "type": "bool"
        },
        {
          "internalType": "bytes",
          "name": "_data",
          "type": "bytes"
        }
      ],
      "name": "metaSetApprovalForAll",
      "outputs": [],
      "stateMutability": "nonpayable",
      "type": "function"
    },
    {
      "inputs": [
        {
          "internalType": "address",
          "name": "_from",
          "type": "address"
        },
        {
          "internalType": "address",
          "name": "_to",
          "type": "address"
        },
        {
          "internalType": "uint256[]",
          "name": "_ids",
          "type": "uint256[]"
        },
        {
          "internalType": "uint256[]",
          "name": "_amounts",
          "type": "uint256[]"
        },
        {
          "internalType": "bytes",
          "name": "_data",
          "type": "bytes"
        }
      ],
      "name": "safeBatchTransferFrom",
      "outputs": [],
      "stateMutability": "nonpayable",
      "type": "function"
    },
    {
      "inputs": [
        {
          "internalType": "address",
          "name": "_from",
          "type": "address"
        },
        {
          "internalType": "address",
          "name": "_to",
          "type": "address"
        },
        {
          "internalType": "uint256",
          "name": "_id",
          "type": "uint256"
        },
        {
          "internalType": "uint256",
          "name": "_amount",
          "type": "uint256"
        },
        {
          "internalType": "bytes",
          "name": "_data",
          "type": "bytes"
        }
      ],
      "name": "safeTransferFrom",
      "outputs": [],
      "stateMutability": "nonpayable",
      "type": "function"
    },
    {
      "inputs": [
        {
          "internalType": "address",
          "name": "_operator",
          "type": "address"
        },
        {
          "internalType": "bool",
          "name": "_approved",
          "type": "bool"
        }
      ],
      "name": "setApprovalForAll",
      "outputs": [],
      "stateMutability": "nonpayable",
      "type": "function"
    },
    {
      "inputs": [
        {
          "internalType": "bytes4",
          "name": "_interfaceID",
          "type": "bytes4"
        }
      ],
      "name": "supportsInterface",
      "outputs": [
        {
          "internalType": "bool",
          "name": "",
          "type": "bool"
        }
      ],
      "stateMutability": "pure",
      "type": "function"
    }
  ],
  "bytecode": "0x608060405234801561001057600080fd5b506140b3806100206000396000f3fe608060405234801561001057600080fd5b50600436106100b35760003560e01c8063a3d4926e11610071578063a3d4926e146101b0578063ce0b514b146101cc578063e985e9c5146101e8578063f242432a14610218578063f5d4c82014610234578063fa4e12d714610250576100b3565b8062fdd58e146100b857806301ffc9a7146100e85780632d0335ab146101185780632eb2c2d6146101485780634e1273f414610164578063a22cb46514610194575b600080fd5b6100d260048036038101906100cd9190613141565b610280565b6040516100df9190613a9d565b60405180910390f35b61010260048036038101906100fd9190613212565b6102da565b60405161010f91906138ad565b60405180910390f35b610132600480360381019061012d9190612c59565b61035c565b60405161013f9190613a9d565b60405180910390f35b610162600480360381019061015d9190612df4565b6103a5565b005b61017e6004803603810190610179919061317d565b6104e1565b60405161018b919061388b565b60405180910390f35b6101ae60048036038101906101a99190613072565b61063b565b005b6101ca60048036038101906101c59190612d23565b61073a565b005b6101e660048036038101906101e19190612f42565b6108d2565b005b61020260048036038101906101fd9190612ce7565b610a1e565b60405161020f91906138ad565b60405180910390f35b610232600480360381019061022d9190612fe3565b610ab2565b005b61024e60048036038101906102499190612eb3565b610bee565b005b61026a600480360381019061026591906130ae565b610d8e565b60405161027791906138ad565b60405180910390f35b60008060008473ffffffffffffffffffffffffffffffffffffffff1673ffffffffffffffffffffffffffffffffffffffff168152602001908152602001600020600083815260200190815260200160002054905092915050565b60007fd9b67a26000000000000000000000000000000000000000000000000000000007bffffffffffffffffffffffffffffffffffffffffffffffffffffffff1916827bffffffffffffffffffffffffffffffffffffffffffffffffffffffff1916141561034b5760019050610357565b6103548261161d565b90505b919050565b6000600260008373ffffffffffffffffffffffffffffffffffffffff1673ffffffffffffffffffffffffffffffffffffffff168152602001908152602001600020549050919050565b8473ffffffffffffffffffffffffffffffffffffffff163373ffffffffffffffffffffffffffffffffffffffff1614806103e557506103e48533610a1e565b5b61043a576040517f08c379a000000000000000000000000000000000000000000000000000000000815260040180806020018281038252602f815260200180613f57602f913960400191505060405180910390fd5b600073ffffffffffffffffffffffffffffffffffffffff168473ffffffffffffffffffffffffffffffffffffffff1614156104c0576040517f08c379a0000000000000000000000000000000000000000000000000000000008152600401808060200182810382526030815260200180613ec86030913960400191505060405180910390fd5b6104cc8585858561166e565b6104da858585855a866119d0565b5050505050565b6060815183511461053d576040517f08c379a000000000000000000000000000000000000000000000000000000000815260040180806020018281038252602c815260200180613ef8602c913960400191505060405180910390fd5b6000835167ffffffffffffffff8111801561055757600080fd5b506040519080825280602002602001820160405280156105865781602001602082028036833780820191505090505b50905060005b8451811015610630576000808683815181106105a457fe5b602002602001015173ffffffffffffffffffffffffffffffffffffffff1673ffffffffffffffffffffffffffffffffffffffff16815260200190815260200160002060008583815181106105f457fe5b602002602001015181526020019081526020016000205482828151811061061757fe5b602002602001018181525050808060010191505061058c565b508091505092915050565b80600160003373ffffffffffffffffffffffffffffffffffffffff1673ffffffffffffffffffffffffffffffffffffffff16815260200190815260200160002060008473ffffffffffffffffffffffffffffffffffffffff1673ffffffffffffffffffffffffffffffffffffffff16815260200190815260200160002060006101000a81548160ff0219169083151502179055508173ffffffffffffffffffffffffffffffffffffffff163373ffffffffffffffffffffffffffffffffffffffff167f17307eab39ab6107e8899845ad3d59bd9653f200f220920489ca2b5937696c318360405180821515815260200191505060405180910390a35050565b600073ffffffffffffffffffffffffffffffffffffffff168573ffffffffffffffffffffffffffffffffffffffff1614156107aa576040517f08c379a00000000000000000000000000000000000000000000000000000000081526004016107a190613a3d565b60405180910390fd5b60606107b46128d6565b600061086789857fa3d4926e8cf8fe8e020cd29f514c256bc2eec62aa2337e415f1a33a4828af5a060001b8c8c8c6040516020016107f29190613777565b604051602081830303815290604052805190602001208c6040516020016108199190613777565b604051602081830303815290604052805190602001208c61083b57600061083e565b60015b604051602001610853969594939291906138c8565b604051602081830303815290604052611c62565b90506108758989898961166e565b84156108b8578080602001905181019061088f91906132e8565b80945081935050506108a9898989898660200151886119d0565b6108b38983611e86565b6108c7565b6108c6898989895a866119d0565b5b505050505050505050565b600073ffffffffffffffffffffffffffffffffffffffff168573ffffffffffffffffffffffffffffffffffffffff161415610942576040517f08c379a0000000000000000000000000000000000000000000000000000000008152600401610939906139dd565b60405180910390fd5b606061094c6128d6565b60006109b389857fce0b514b3931bdbe4d5d44e4f035afe7113767b7db71949271f6a62d9c60f55860001b8c8c8c8c8c61098757600061098a565b60015b60405160200161099f9695949392919061397c565b604051602081830303815290604052611c62565b90506109c18989898961215e565b8415610a0457808060200190518101906109db91906132e8565b80945081935050506109f589898989866020015188612352565b6109ff8983611e86565b610a13565b610a12898989895a86612352565b5b505050505050505050565b6000600160008473ffffffffffffffffffffffffffffffffffffffff1673ffffffffffffffffffffffffffffffffffffffff16815260200190815260200160002060008373ffffffffffffffffffffffffffffffffffffffff1673ffffffffffffffffffffffffffffffffffffffff16815260200190815260200160002060009054906101000a900460ff16905092915050565b8473ffffffffffffffffffffffffffffffffffffffff163373ffffffffffffffffffffffffffffffffffffffff161480610af25750610af18533610a1e565b5b610b47576040517f08c379a000000000000000000000000000000000000000000000000000000000815260040180806020018281038252602a815260200180613dc2602a913960400191505060405180910390fd5b600073ffffffffffffffffffffffffffffffffffffffff168473ffffffffffffffffffffffffffffffffffffffff161415610bcd576040517f08c379a000000000000000000000000000000000000000000000000000000000815260040180806020018281038252602b815260200180613d60602b913960400191505060405180910390fd5b610bd98585858561215e565b610be7858585855a86612352565b5050505050565b6000610c6186837ff5d4c820494c8595de274c7ff619bead38aac4fbc3d143b5bf956aa4b84fa52460001b898989610c27576000610c2a565b60015b89610c36576000610c39565b60015b604051602001610c4d959493929190613929565b604051602081830303815290604052611c62565b905083600160008873ffffffffffffffffffffffffffffffffffffffff1673ffffffffffffffffffffffffffffffffffffffff16815260200190815260200160002060008773ffffffffffffffffffffffffffffffffffffffff1673ffffffffffffffffffffffffffffffffffffffff16815260200190815260200160002060006101000a81548160ff0219169083151502179055508473ffffffffffffffffffffffffffffffffffffffff168673ffffffffffffffffffffffffffffffffffffffff167f17307eab39ab6107e8899845ad3d59bd9653f200f220920489ca2b5937696c3186604051610d5491906138ad565b60405180910390a38215610d8657600081806020019051810190610d7891906132a7565b9050610d848782611e86565b505b505050505050565b600080825111610de9576040517f08c379a0000000000000000000000000000000000000000000000000000000008152600401808060200182810382526043815260200180613f866043913960600191505060405180910390fd5b600073ffffffffffffffffffffffffffffffffffffffff168573ffffffffffffffffffffffffffffffffffffffff161415610e6f576040517f08c379a0000000000000000000000000000000000000000000000000000000008152600401808060200182810382526033815260200180613f246033913960400191505060405180910390fd5b6000610e7a83612562565b60f81c9050600580811115610e8b57fe5b60ff168160ff1610610ee8576040517f08c379a000000000000000000000000000000000000000000000000000000000815260040180806020018281038252603a815260200180613e21603a913960400191505060405180910390fd5b60008160ff166005811115610ef957fe5b905060008060008060006005811115610f0e57fe5b856005811115610f1a57fe5b1415610f71576040517f08c379a0000000000000000000000000000000000000000000000000000000008152600401808060200182810382526036815260200180613e5b6036913960400191505060405180910390fd5b60016005811115610f7e57fe5b856005811115610f8a57fe5b14156110d5576061885114610fea576040517f08c379a0000000000000000000000000000000000000000000000000000000008152600401808060200182810382526037815260200180613e916037913960400191505060405180910390fd5b610ffe6000896125e890919063ffffffff16565b92506110146020896125e890919063ffffffff16565b91508760408151811061102357fe5b602001015160f81c60f81b60f81c935060018a85858560405160008152602001604052604051808581526020018460ff1681526020018381526020018281526020019450505050506020604051602081039080840390855afa15801561108d573d6000803e3d6000fd5b5050506020604051035190508073ffffffffffffffffffffffffffffffffffffffff168b73ffffffffffffffffffffffffffffffffffffffff16149650505050505050611615565b600260058111156110e257fe5b8560058111156110ee57fe5b141561128757606188511461114e576040517f08c379a0000000000000000000000000000000000000000000000000000000008152600401808060200182810382526037815260200180613e916037913960400191505060405180910390fd5b6111626000896125e890919063ffffffff16565b92506111786020896125e890919063ffffffff16565b91508760408151811061118757fe5b602001015160f81c60f81b60f81c935060018a60405160200180807f19457468657265756d205369676e6564204d6573736167653a0a333200000000815250601c018281526020019150506040516020818303038152906040528051906020012085858560405160008152602001604052604051808581526020018460ff1681526020018381526020018281526020019450505050506020604051602081039080840390855afa15801561123f573d6000803e3d6000fd5b5050506020604051035190508073ffffffffffffffffffffffffffffffffffffffff168b73ffffffffffffffffffffffffffffffffffffffff16149650505050505050611615565b6003600581111561129457fe5b8560058111156112a057fe5b1415611458578a73ffffffffffffffffffffffffffffffffffffffff166320c13b0b8a8a6040518363ffffffff1660e01b8152600401808060200180602001838103835285818151815260200191508051906020019080838360005b838110156113175780820151818401526020810190506112fc565b50505050905090810190601f1680156113445780820380516001836020036101000a031916815260200191505b50838103825284818151815260200191508051906020019080838360005b8381101561137d578082015181840152602081019050611362565b50505050905090810190601f1680156113aa5780820380516001836020036101000a031916815260200191505b5094505050505060206040518083038186803b1580156113c957600080fd5b505afa1580156113dd573d6000803e3d6000fd5b505050506040513d60208110156113f357600080fd5b81019080805190602001909291905050507bffffffffffffffffffffffffffffffffffffffffffffffffffffffff19166320c13b0b60e01b7bffffffffffffffffffffffffffffffffffffffffffffffffffffffff1916149650505050505050611615565b6004600581111561146557fe5b85600581111561147157fe5b14156115c4578a73ffffffffffffffffffffffffffffffffffffffff16631626ba7e8b8a6040518363ffffffff1660e01b81526004018083815260200180602001828103825283818151815260200191508051906020019080838360005b838110156114ea5780820151818401526020810190506114cf565b50505050905090810190601f1680156115175780820380516001836020036101000a031916815260200191505b50935050505060206040518083038186803b15801561153557600080fd5b505afa158015611549573d6000803e3d6000fd5b505050506040513d602081101561155f57600080fd5b81019080805190602001909291905050507bffffffffffffffffffffffffffffffffffffffffffffffffffffffff1916631626ba7e60e01b7bffffffffffffffffffffffffffffffffffffffffffffffffffffffff1916149650505050505050611615565b6040517f08c379a000000000000000000000000000000000000000000000000000000000815260040180806020018281038252603a815260200180613e21603a913960400191505060405180910390fd5b949350505050565b60006301ffc9a760e01b7bffffffffffffffffffffffffffffffffffffffffffffffffffffffff1916827bffffffffffffffffffffffffffffffffffffffffffffffffffffffff1916149050919050565b80518251146116c8576040517f08c379a0000000000000000000000000000000000000000000000000000000008152600401808060200182810382526035815260200180613dec6035913960400191505060405180910390fd5b60008251905060005b818110156118c2576117618382815181106116e857fe5b60200260200101516000808973ffffffffffffffffffffffffffffffffffffffff1673ffffffffffffffffffffffffffffffffffffffff168152602001908152602001600020600087858151811061173c57fe5b602002602001015181526020019081526020016000205461265990919063ffffffff16565b6000808873ffffffffffffffffffffffffffffffffffffffff1673ffffffffffffffffffffffffffffffffffffffff16815260200190815260200160002060008684815181106117ad57fe5b602002602001015181526020019081526020016000208190555061184f8382815181106117d657fe5b60200260200101516000808873ffffffffffffffffffffffffffffffffffffffff1673ffffffffffffffffffffffffffffffffffffffff168152602001908152602001600020600087858151811061182a57fe5b60200260200101518152602001908152602001600020546126e290919063ffffffff16565b6000808773ffffffffffffffffffffffffffffffffffffffff1673ffffffffffffffffffffffffffffffffffffffff168152602001908152602001600020600086848151811061189b57fe5b602002602001015181526020019081526020016000208190555080806001019150506116d1565b508373ffffffffffffffffffffffffffffffffffffffff168573ffffffffffffffffffffffffffffffffffffffff163373ffffffffffffffffffffffffffffffffffffffff167f4a39dc06d4c0dbc64b70af90fd698a233a518aa5d07e595d983b8c0526c8f7fb8686604051808060200180602001838103835285818151815260200191508051906020019060200280838360005b83811015611972578082015181840152602081019050611957565b50505050905001838103825284818151815260200191508051906020019060200280838360005b838110156119b4578082015181840152602081019050611999565b5050505090500194505050505060405180910390a45050505050565b6119ef8573ffffffffffffffffffffffffffffffffffffffff1661276a565b15611c5a5760008573ffffffffffffffffffffffffffffffffffffffff1663bc197c8184338a8989886040518763ffffffff1660e01b8152600401808673ffffffffffffffffffffffffffffffffffffffff1681526020018573ffffffffffffffffffffffffffffffffffffffff168152602001806020018060200180602001848103845287818151815260200191508051906020019060200280838360005b83811015611aaa578082015181840152602081019050611a8f565b50505050905001848103835286818151815260200191508051906020019060200280838360005b83811015611aec578082015181840152602081019050611ad1565b50505050905001848103825285818151815260200191508051906020019080838360005b83811015611b2b578082015181840152602081019050611b10565b50505050905090810190601f168015611b585780820380516001836020036101000a031916815260200191505b5098505050505050505050602060405180830381600088803b158015611b7d57600080fd5b5087f1158015611b91573d6000803e3d6000fd5b50505050506040513d6020811015611ba857600080fd5b8101908080519060200190929190505050905063bc197c8160e01b7bffffffffffffffffffffffffffffffffffffffffffffffffffffffff1916817bffffffffffffffffffffffffffffffffffffffffffffffffffffffff191614611c58576040517f08c379a000000000000000000000000000000000000000000000000000000000815260040180806020018281038252603f815260200180613fc9603f913960400191505060405180910390fd5b505b505050505050565b60608083806020019051810190611c79919061323b565b80935081925050506000600260008773ffffffffffffffffffffffffffffffffffffffff1673ffffffffffffffffffffffffffffffffffffffff1681526020019081526020016000205490506000611cdb6041846125e890919063ffffffff16565b60001c9050818110158015611cf257506064820181105b611d31576040517f08c379a0000000000000000000000000000000000000000000000000000000008152600401611d2890613a5d565b60405180910390fd5b6000611d6d86838780519060200120604051602001611d529392919061378e565b604051602081830303815290604052805190602001206127af565b90506000868387604051602001611d86939291906137c7565b604051602081830303815290604052905060018301600260008b73ffffffffffffffffffffffffffffffffffffffff1673ffffffffffffffffffffffffffffffffffffffff168152602001908152602001600020819055508873ffffffffffffffffffffffffffffffffffffffff167fb861b7bdbe611a846ab271b8d2810391bc8b5a968f390c322438ecab66bccf5960018501604051611e279190613a9d565b60405180910390a2611e3b89838388610d8e565b611e7a576040517f08c379a0000000000000000000000000000000000000000000000000000000008152600401611e71906139fd565b60405180910390fd5b50505050509392505050565b6000611e958260600151612562565b60f81c9050600280811115611ea657fe5b60ff168160ff1610611eed576040517f08c379a0000000000000000000000000000000000000000000000000000000008152600401611ee490613a7d565b60405180910390fd5b60008160ff166002811115611efe57fe5b905060008060008086600001519050600073ffffffffffffffffffffffffffffffffffffffff16876040015173ffffffffffffffffffffffffffffffffffffffff1614611f4f578660400151611f51565b335b925060006002811115611f6057fe5b856002811115611f6c57fe5b141561206b578660600151806020019051810190611f8a9190612cab565b80935081955050503073ffffffffffffffffffffffffffffffffffffffff168473ffffffffffffffffffffffffffffffffffffffff161415611ff457611fd28884848461215e565b611fef8884845a8560405180602001604052806000815250612352565b612066565b8373ffffffffffffffffffffffffffffffffffffffff1663f242432a898585856040518563ffffffff1660e01b81526004016120339493929190613833565b600060405180830381600087803b15801561204d57600080fd5b505af1158015612061573d6000803e3d6000fd5b505050505b612154565b86606001518060200190518101906120839190612c82565b93508373ffffffffffffffffffffffffffffffffffffffff166323b872dd8985846040518463ffffffff1660e01b81526004016120c2939291906137fc565b602060405180830381600087803b1580156120dc57600080fd5b505af11580156120f0573d6000803e3d6000fd5b505050506040513d601f19601f8201168201806040525081019061211491906131e9565b612153576040517f08c379a000000000000000000000000000000000000000000000000000000000815260040161214a90613a1d565b60405180910390fd5b5b5050505050505050565b6121c0816000808773ffffffffffffffffffffffffffffffffffffffff1673ffffffffffffffffffffffffffffffffffffffff16815260200190815260200160002060008581526020019081526020016000205461265990919063ffffffff16565b6000808673ffffffffffffffffffffffffffffffffffffffff1673ffffffffffffffffffffffffffffffffffffffff168152602001908152602001600020600084815260200190815260200160002081905550612275816000808673ffffffffffffffffffffffffffffffffffffffff1673ffffffffffffffffffffffffffffffffffffffff1681526020019081526020016000206000858152602001908152602001600020546126e290919063ffffffff16565b6000808573ffffffffffffffffffffffffffffffffffffffff1673ffffffffffffffffffffffffffffffffffffffff1681526020019081526020016000206000848152602001908152602001600020819055508273ffffffffffffffffffffffffffffffffffffffff168473ffffffffffffffffffffffffffffffffffffffff163373ffffffffffffffffffffffffffffffffffffffff167fc3d58168c5ae7397731d063d5bbf3d657854427343f4c083240f7aacaa2d0f628585604051808381526020018281526020019250505060405180910390a450505050565b6123718573ffffffffffffffffffffffffffffffffffffffff1661276a565b1561255a5760008573ffffffffffffffffffffffffffffffffffffffff1663f23a6e6184338a8989886040518763ffffffff1660e01b8152600401808673ffffffffffffffffffffffffffffffffffffffff1681526020018573ffffffffffffffffffffffffffffffffffffffff16815260200184815260200183815260200180602001828103825283818151815260200191508051906020019080838360005b8381101561242d578082015181840152602081019050612412565b50505050905090810190601f16801561245a5780820380516001836020036101000a031916815260200191505b509650505050505050602060405180830381600088803b15801561247d57600080fd5b5087f1158015612491573d6000803e3d6000fd5b50505050506040513d60208110156124a857600080fd5b8101908080519060200190929190505050905063f23a6e6160e01b7bffffffffffffffffffffffffffffffffffffffffffffffffffffffff1916817bffffffffffffffffffffffffffffffffffffffffffffffffffffffff191614612558576040517f08c379a000000000000000000000000000000000000000000000000000000000815260040180806020018281038252603a815260200180614008603a913960400191505060405180910390fd5b505b505050505050565b6000808251116125bd576040517f08c379a0000000000000000000000000000000000000000000000000000000008152600401808060200182810382526037815260200180613d8b6037913960400191505060405180910390fd5b816001835103815181106125cd57fe5b602001015160f81c60f81b9050600182510380835250919050565b60006020820183511015612647576040517f08c379a000000000000000000000000000000000000000000000000000000000815260040180806020018281038252603c815260200180614042603c913960400191505060405180910390fd5b60208201915081830151905092915050565b6000828211156126d1576040517f08c379a00000000000000000000000000000000000000000000000000000000081526004018080602001828103825260178152602001807f536166654d617468237375623a20554e444552464c4f5700000000000000000081525060200191505060405180910390fd5b600082840390508091505092915050565b600080828401905083811015612760576040517f08c379a00000000000000000000000000000000000000000000000000000000081526004018080602001828103825260168152602001807f536166654d617468236164643a204f564552464c4f570000000000000000000081525060200191505060405180910390fd5b8091505092915050565b600080823f90506000801b81141580156127a757507fc5d2460186f7233c927e7db2dcc703c0e500b653ca82273b7bfad8045d85a47060001b8114155b915050919050565b60006040518060400160405280600281526020017f19010000000000000000000000000000000000000000000000000000000000008152507f035aff83d86937d35b32e04f0ddc6ff469290eef2f1b692d8a815c89404d474960001b30604051602001808381526020018273ffffffffffffffffffffffffffffffffffffffff1681526020019250505060405160208183030381529060405280519060200120836040516020018084805190602001908083835b602083106128865780518252602082019150602081019050602083039250612863565b6001836020036101000a0380198251168184511680821785525050505050509050018381526020018281526020019350505050604051602081830303815290604052805190602001209050919050565b60405180608001604052806000815260200160008152602001600073ffffffffffffffffffffffffffffffffffffffff168152602001606081525090565b600061292761292284613ae9565b613ab8565b9050808382526020820190508285602086028201111561294657600080fd5b60005b85811015612976578161295c8882612a68565b845260208401935060208301925050600181019050612949565b5050509392505050565b600061299361298e84613b15565b613ab8565b905080838252602082019050828560208602820111156129b257600080fd5b60005b858110156129e257816129c88882612c2f565b8452602084019350602083019250506001810190506129b5565b5050509392505050565b60006129ff6129fa84613b41565b613ab8565b905082815260208101848484011115612a1757600080fd5b612a22848285613c7d565b509392505050565b6000612a3d612a3884613b41565b613ab8565b905082815260208101848484011115612a5557600080fd5b612a60848285613c8c565b509392505050565b600081359050612a7781613cd5565b92915050565b600081519050612a8c81613cd5565b92915050565b600081519050612aa181613cec565b92915050565b600082601f830112612ab857600080fd5b8135612ac8848260208601612914565b91505092915050565b600082601f830112612ae257600080fd5b8135612af2848260208601612980565b91505092915050565b600081359050612b0a81613d03565b92915050565b600081519050612b1f81613d03565b92915050565b600081359050612b3481613d1a565b92915050565b600081359050612b4981613d31565b92915050565b600082601f830112612b6057600080fd5b8135612b708482602086016129ec565b91505092915050565b600082601f830112612b8a57600080fd5b8151612b9a848260208601612a2a565b91505092915050565b600060808284031215612bb557600080fd5b612bbf6080613ab8565b90506000612bcf84828501612c44565b6000830152506020612be384828501612c44565b6020830152506040612bf784828501612a7d565b604083015250606082015167ffffffffffffffff811115612c1757600080fd5b612c2384828501612b79565b60608301525092915050565b600081359050612c3e81613d48565b92915050565b600081519050612c5381613d48565b92915050565b600060208284031215612c6b57600080fd5b6000612c7984828501612a68565b91505092915050565b600060208284031215612c9457600080fd5b6000612ca284828501612a92565b91505092915050565b60008060408385031215612cbe57600080fd5b6000612ccc85828601612a92565b9250506020612cdd85828601612c44565b9150509250929050565b60008060408385031215612cfa57600080fd5b6000612d0885828601612a68565b9250506020612d1985828601612a68565b9150509250929050565b60008060008060008060c08789031215612d3c57600080fd5b6000612d4a89828a01612a68565b9650506020612d5b89828a01612a68565b955050604087013567ffffffffffffffff811115612d7857600080fd5b612d8489828a01612ad1565b945050606087013567ffffffffffffffff811115612da157600080fd5b612dad89828a01612ad1565b9350506080612dbe89828a01612afb565b92505060a087013567ffffffffffffffff811115612ddb57600080fd5b612de789828a01612b4f565b9150509295509295509295565b600080600080600060a08688031215612e0c57600080fd5b6000612e1a88828901612a68565b9550506020612e2b88828901612a68565b945050604086013567ffffffffffffffff811115612e4857600080fd5b612e5488828901612ad1565b935050606086013567ffffffffffffffff811115612e7157600080fd5b612e7d88828901612ad1565b925050608086013567ffffffffffffffff811115612e9a57600080fd5b612ea688828901612b4f565b9150509295509295909350565b600080600080600060a08688031215612ecb57600080fd5b6000612ed988828901612a68565b9550506020612eea88828901612a68565b9450506040612efb88828901612afb565b9350506060612f0c88828901612afb565b925050608086013567ffffffffffffffff811115612f2957600080fd5b612f3588828901612b4f565b9150509295509295909350565b60008060008060008060c08789031215612f5b57600080fd5b6000612f6989828a01612a68565b9650506020612f7a89828a01612a68565b9550506040612f8b89828a01612c2f565b9450506060612f9c89828a01612c2f565b9350506080612fad89828a01612afb565b92505060a087013567ffffffffffffffff811115612fca57600080fd5b612fd689828a01612b4f565b9150509295509295509295565b600080600080600060a08688031215612ffb57600080fd5b600061300988828901612a68565b955050602061301a88828901612a68565b945050604061302b88828901612c2f565b935050606061303c88828901612c2f565b925050608086013567ffffffffffffffff81111561305957600080fd5b61306588828901612b4f565b9150509295509295909350565b6000806040838503121561308557600080fd5b600061309385828601612a68565b92505060206130a485828601612afb565b9150509250929050565b600080600080608085870312156130c457600080fd5b60006130d287828801612a68565b94505060206130e387828801612b25565b935050604085013567ffffffffffffffff81111561310057600080fd5b61310c87828801612b4f565b925050606085013567ffffffffffffffff81111561312957600080fd5b61313587828801612b4f565b91505092959194509250565b6000806040838503121561315457600080fd5b600061316285828601612a68565b925050602061317385828601612c2f565b9150509250929050565b6000806040838503121561319057600080fd5b600083013567ffffffffffffffff8111156131aa57600080fd5b6131b685828601612aa7565b925050602083013567ffffffffffffffff8111156131d357600080fd5b6131df85828601612ad1565b9150509250929050565b6000602082840312156131fb57600080fd5b600061320984828501612b10565b91505092915050565b60006020828403121561322457600080fd5b600061323284828501612b3a565b91505092915050565b6000806040838503121561324e57600080fd5b600083015167ffffffffffffffff81111561326857600080fd5b61327485828601612b79565b925050602083015167ffffffffffffffff81111561329157600080fd5b61329d85828601612b79565b9150509250929050565b6000602082840312156132b957600080fd5b600082015167ffffffffffffffff8111156132d357600080fd5b6132df84828501612ba3565b91505092915050565b600080604083850312156132fb57600080fd5b600083015167ffffffffffffffff81111561331557600080fd5b61332185828601612ba3565b925050602083015167ffffffffffffffff81111561333e57600080fd5b61334a85828601612b79565b9150509250929050565b60006133608383613733565b60208301905092915050565b60006133788383613751565b60208301905092915050565b61338d81613bed565b82525050565b600061339e82613b81565b6133a88185613ba4565b93506133b383613b71565b8060005b838110156133e45781516133cb8882613354565b97506133d683613b97565b9250506001810190506133b7565b5085935050505092915050565b60006133fc82613b81565b6134068185613bb5565b935061341183613b71565b8060005b83811015613442578151613429888261336c565b975061343483613b97565b925050600181019050613415565b5085935050505092915050565b61345881613c11565b82525050565b61346781613c1d565b82525050565b61347e61347982613c1d565b613cbf565b82525050565b600061348f82613b8c565b6134998185613bd1565b93506134a9818560208601613c8c565b80840191505092915050565b60006134c2603383613bdc565b91507f455243313135354d657461236d657461536166655472616e7366657246726f6d60008301527f3a20494e56414c49445f524543495049454e54000000000000000000000000006020830152604082019050919050565b6000613528603383613bdc565b91507f455243313135354d657461235f7369676e617475726556616c69646174696f6e60008301527f3a20494e56414c49445f5349474e4154555245000000000000000000000000006020830152604082019050919050565b600061358e603283613bdc565b91507f455243313135354d657461235f7472616e736665724761734665653a2045524360008301527f32305f5452414e534645525f4641494c454400000000000000000000000000006020830152604082019050919050565b60006135f4603883613bdc565b91507f455243313135354d657461236d6574615361666542617463685472616e73666560008301527f7246726f6d3a20494e56414c49445f524543495049454e5400000000000000006020830152604082019050919050565b600061365a600083613bc0565b9150600082019050919050565b6000613674602f83613bdc565b91507f455243313135354d657461235f7369676e617475726556616c69646174696f6e60008301527f3a20494e56414c49445f4e4f4e434500000000000000000000000000000000006020830152604082019050919050565b60006136da602e83613bdc565b91507f455243313135354d657461235f7472616e736665724761734665653a20554e5360008301527f5550504f525445445f544f4b454e0000000000000000000000000000000000006020830152604082019050919050565b61373c81613c73565b82525050565b61374b81613c73565b82525050565b61375a81613c73565b82525050565b61377161376c82613c73565b613cc9565b82525050565b600061378382846133f1565b915081905092915050565b600061379a8286613484565b91506137a68285613760565b6020820191506137b6828461346d565b602082019150819050949350505050565b60006137d38286613484565b91506137df8285613760565b6020820191506137ef8284613484565b9150819050949350505050565b60006060820190506138116000830186613384565b61381e6020830185613384565b61382b6040830184613742565b949350505050565b600060a0820190506138486000830187613384565b6138556020830186613384565b6138626040830185613742565b61386f6060830184613742565b81810360808301526138808161364d565b905095945050505050565b600060208201905081810360008301526138a58184613393565b905092915050565b60006020820190506138c2600083018461344f565b92915050565b600060c0820190506138dd600083018961345e565b6138ea6020830188613384565b6138f76040830187613384565b613904606083018661345e565b613911608083018561345e565b61391e60a0830184613742565b979650505050505050565b600060a08201905061393e600083018861345e565b61394b6020830187613384565b6139586040830186613384565b6139656060830185613742565b6139726080830184613742565b9695505050505050565b600060c082019050613991600083018961345e565b61399e6020830188613384565b6139ab6040830187613384565b6139b86060830186613742565b6139c56080830185613742565b6139d260a0830184613742565b979650505050505050565b600060208201905081810360008301526139f6816134b5565b9050919050565b60006020820190508181036000830152613a168161351b565b9050919050565b60006020820190508181036000830152613a3681613581565b9050919050565b60006020820190508181036000830152613a56816135e7565b9050919050565b60006020820190508181036000830152613a7681613667565b9050919050565b60006020820190508181036000830152613a96816136cd565b9050919050565b6000602082019050613ab26000830184613742565b92915050565b6000604051905081810181811067ffffffffffffffff82111715613adf57613ade613cd3565b5b8060405250919050565b600067ffffffffffffffff821115613b0457613b03613cd3565b5b602082029050602081019050919050565b600067ffffffffffffffff821115613b3057613b2f613cd3565b5b602082029050602081019050919050565b600067ffffffffffffffff821115613b5c57613b5b613cd3565b5b601f19601f8301169050602081019050919050565b6000819050602082019050919050565b600081519050919050565b600081519050919050565b6000602082019050919050565b600082825260208201905092915050565b600081905092915050565b600082825260208201905092915050565b600081905092915050565b600082825260208201905092915050565b6000613bf882613c53565b9050919050565b6000613c0a82613c53565b9050919050565b60008115159050919050565b6000819050919050565b60007fffffffff0000000000000000000000000000000000000000000000000000000082169050919050565b600073ffffffffffffffffffffffffffffffffffffffff82169050919050565b6000819050919050565b82818337600083830152505050565b60005b83811015613caa578082015181840152602081019050613c8f565b83811115613cb9576000848401525b50505050565b6000819050919050565b6000819050919050565bfe5b613cde81613bed565b8114613ce957600080fd5b50565b613cf581613bff565b8114613d0057600080fd5b50565b613d0c81613c11565b8114613d1757600080fd5b50565b613d2381613c1d565b8114613d2e57600080fd5b50565b613d3a81613c27565b8114613d4557600080fd5b50565b613d5181613c73565b8114613d5c57600080fd5b5056fe4552433131353523736166655472616e7366657246726f6d3a20494e56414c49445f524543495049454e544c6962427974657323706f704c617374427974653a20475245415445525f5448414e5f5a45524f5f4c454e4754485f52455155495245444552433131353523736166655472616e7366657246726f6d3a20494e56414c49445f4f50455241544f5245524331313535235f7361666542617463685472616e7366657246726f6d3a20494e56414c49445f4152524159535f4c454e4754485369676e617475726556616c696461746f7223697356616c69645369676e61747572653a20554e535550504f525445445f5349474e41545552455369676e617475726556616c696461746f7223697356616c69645369676e61747572653a20494c4c4547414c5f5349474e41545552455369676e617475726556616c696461746f7223697356616c69645369676e61747572653a204c454e4754485f39375f524551554952454445524331313535237361666542617463685472616e7366657246726f6d3a20494e56414c49445f524543495049454e54455243313135352362616c616e63654f6642617463683a20494e56414c49445f41525241595f4c454e4754485369676e617475726556616c696461746f7223697356616c69645369676e61747572653a20494e56414c49445f5349474e455245524331313535237361666542617463685472616e7366657246726f6d3a20494e56414c49445f4f50455241544f525369676e617475726556616c696461746f7223697356616c69645369676e61747572653a204c454e4754485f475245415445525f5448414e5f305f524551554952454445524331313535235f63616c6c6f6e45524331313535426174636852656365697665643a20494e56414c49445f4f4e5f524543454956455f4d45535341474545524331313535235f63616c6c6f6e4552433131353552656365697665643a20494e56414c49445f4f4e5f524543454956455f4d4553534147454c696242797465732372656164427974657333323a20475245415445525f4f525f455155414c5f544f5f33325f4c454e4754485f5245515549524544a26469706673582212207611b841704f60105a8867f75e1b206524595c0cc17380fa2694a518e495245d64736f6c63430007060033",
  "linkReferences": {},
  "deployedLinkReferences": {}
}