{
  "_format": "hh-sol-artifact-1",
  "contractName": "FungibleTokens",
  "sourceName": "contracts/auxiliary/FungibleTokens.sol",
  "abi": [
    {
      "inputs": [
        {
          "internalType": "uint256",
          "name": "initialSupply",
          "type": "uint256"
        },
        {
          "internalType": "string",
          "name": "tokenName",
          "type": "string"
        },
        {
          "internalType": "string",
          "name": "tokenSymbol",
          "type": "string"
        }
      ],
      "stateMutability": "nonpayable",
      "type": "constructor"
    },
    {
      "anonymous": false,
      "inputs": [
        {
          "indexed": true,
          "internalType": "address",
          "name": "_owner",
          "type": "address"
        },
        {
          "indexed": true,
          "internalType": "address",
          "name": "_spender",
          "type": "address"
        },
        {
          "indexed": false,
          "internalType": "uint256",
          "name": "_value",
          "type": "uint256"
        }
      ],
      "name": "Approval",
      "type": "event"
    },
    {
      "anonymous": false,
      "inputs": [
        {
          "indexed": true,
          "internalType": "address",
          "name": "from",
          "type": "address"
        },
        {
          "indexed": false,
          "internalType": "uint256",
          "name": "value",
          "type": "uint256"
        }
      ],
      "name": "Burn",
      "type": "event"
    },
    {
      "anonymous": false,
      "inputs": [
        {
          "indexed": true,
          "internalType": "address",
          "name": "from",
          "type": "address"
        },
        {
          "indexed": true,
          "internalType": "address",
          "name": "to",
          "type": "address"
        },
        {
          "indexed": false,
          "internalType": "uint256",
          "name": "value",
          "type": "uint256"
        }
      ],
      "name": "Transfer",
      "type": "event"
    },
    {
      "inputs": [
        {
          "internalType": "address",
          "name": "",
          "type": "address"
        },
        {
          "internalType": "address",
          "name": "",
          "type": "address"
        }
      ],
      "name": "allowance",
      "outputs": [
        {
          "internalType": "uint256",
          "name": "",
          "type": "uint256"
        }
      ],
      "stateMutability": "view",
      "type": "function"
    },
    {
      "inputs": [
        {
          "internalType": "address",
          "name": "_spender",
          "type": "address"
        },
        {
          "internalType": "uint256",
          "name": "_value",
          "type": "uint256"
        }
      ],
      "name": "approve",
      "outputs": [
        {
          "internalType": "bool",
          "name": "success",
          "type": "bool"
        }
      ],
      "stateMutability": "nonpayable",
      "type": "function"
    },
    {
      "inputs": [
        {
          "internalType": "address",
          "name": "",
          "type": "address"
        }
      ],
      "name": "balanceOf",
      "outputs": [
        {
          "internalType": "uint256",
          "name": "",
          "type": "uint256"
        }
      ],
      "stateMutability": "view",
      "type": "function"
    },
    {
      "inputs": [
        {
          "internalType": "uint256",
          "name": "_value",
          "type": "uint256"
        }
      ],
      "name": "burn",
      "outputs": [
        {
          "internalType": "bool",
          "name": "success",
          "type": "bool"
        }
      ],
      "stateMutability": "nonpayable",
      "type": "function"
    },
    {
      "inputs": [
        {
          "internalType": "address",
          "name": "_from",
          "type": "address"
        },
        {
          "internalType": "uint256",
          "name": "_value",
          "type": "uint256"
        }
      ],
      "name": "burnFrom",
      "outputs": [
        {
          "internalType": "bool",
          "name": "success",
          "type": "bool"
        }
      ],
      "stateMutability": "nonpayable",
      "type": "function"
    },
    {
      "inputs": [],
      "name": "decimals",
      "outputs": [
        {
          "internalType": "uint8",
          "name": "",
          "type": "uint8"
        }
      ],
      "stateMutability": "view",
      "type": "function"
    },
    {
      "inputs": [],
      "name": "name",
      "outputs": [
        {
          "internalType": "string",
          "name": "",
          "type": "string"
        }
      ],
      "stateMutability": "view",
      "type": "function"
    },
    {
      "inputs": [],
      "name": "owner",
      "outputs": [
        {
          "internalType": "address",
          "name": "",
          "type": "address"
        }
      ],
      "stateMutability": "view",
      "type": "function"
    },
    {
      "inputs": [],
      "name": "symbol",
      "outputs": [
        {
          "internalType": "string",
          "name": "",
          "type": "string"
        }
      ],
      "stateMutability": "view",
      "type": "function"
    },
    {
      "inputs": [],
      "name": "totalSupply",
      "outputs": [
        {
          "internalType": "uint256",
          "name": "",
          "type": "uint256"
        }
      ],
      "stateMutability": "view",
      "type": "function"
    },
    {
      "inputs": [
        {
          "internalType": "address",
          "name": "_to",
          "type": "address"
        },
        {
          "internalType": "uint256",
          "name": "_value",
          "type": "uint256"
        }
      ],
      "name": "transfer",
      "outputs": [
        {
          "internalType": "bool",
          "name": "success",
          "type": "bool"
        }
      ],
      "stateMutability": "nonpayable",
      "type": "function"
    },
    {
      "inputs": [
        {
          "internalType": "address",
          "name": "_from",
          "type": "address"
        },
        {
          "internalType": "address",
          "name": "_to",
          "type": "address"
        },
        {
          "internalType": "uint256",
          "name": "_value",
          "type": "uint256"
        }
      ],
      "name": "transferFrom",
      "outputs": [
        {
          "internalType": "bool",
          "name": "success",
          "type": "bool"
        }
      ],
      "stateMutability": "nonpayable",
      "type": "function"
    },
    {
      "inputs": [
        {
          "internalType": "address",
          "name": "newOwner",
          "type": "address"
        }
      ],
      "name": "transferOwnership",
      "outputs": [],
      "stateMutability": "nonpayable",
      "type": "function"
    }
  ],
  "bytecode": "0x60806040526002805460ff191660121790553480156200001e57600080fd5b5060405162000d5838038062000d58833981016040819052620000419162000230565b600254620000549060ff16600a620003b9565b620000609084620003ce565b600381905533600090815260056020908152604082209290925583516200008a92850190620000bd565b508051620000a0906001906020840190620000bd565b5050600480546001600160a01b03191633179055506200042c9050565b828054620000cb90620003f0565b90600052602060002090601f016020900481019282620000ef57600085556200013a565b82601f106200010a57805160ff19168380011785556200013a565b828001600101855582156200013a579182015b828111156200013a5782518255916020019190600101906200011d565b50620001489291506200014c565b5090565b5b808211156200014857600081556001016200014d565b634e487b7160e01b600052604160045260246000fd5b600082601f8301126200018b57600080fd5b81516001600160401b0380821115620001a857620001a862000163565b604051601f8301601f19908116603f01168101908282118183101715620001d357620001d362000163565b81604052838152602092508683858801011115620001f057600080fd5b600091505b83821015620002145785820183015181830184015290820190620001f5565b83821115620002265760008385830101525b9695505050505050565b6000806000606084860312156200024657600080fd5b835160208501519093506001600160401b03808211156200026657600080fd5b620002748783880162000179565b935060408601519150808211156200028b57600080fd5b506200029a8682870162000179565b9150509250925092565b634e487b7160e01b600052601160045260246000fd5b600181815b80851115620002fb578160001904821115620002df57620002df620002a4565b80851615620002ed57918102915b93841c9390800290620002bf565b509250929050565b6000826200031457506001620003b3565b816200032357506000620003b3565b81600181146200033c5760028114620003475762000367565b6001915050620003b3565b60ff8411156200035b576200035b620002a4565b50506001821b620003b3565b5060208310610133831016604e8410600b84101617156200038c575081810a620003b3565b620003988383620002ba565b8060001904821115620003af57620003af620002a4565b0290505b92915050565b6000620003c7838362000303565b9392505050565b6000816000190483118215151615620003eb57620003eb620002a4565b500290565b600181811c908216806200040557607f821691505b6020821081036200042657634e487b7160e01b600052602260045260246000fd5b50919050565b61091c806200043c6000396000f3fe608060405234801561001057600080fd5b50600436106100af5760003560e01c806306fdde03146100b4578063095ea7b3146100d257806318160ddd146100f557806323b872dd1461010c578063313ce5671461011f57806342966c681461013e57806370a082311461015157806379cc6790146101715780638da5cb5b1461018457806395d89b41146101af578063a9059cbb146101b7578063dd62ed3e146101ca578063f2fde38b146101f5575b600080fd5b6100bc61020a565b6040516100c991906106ec565b60405180910390f35b6100e56100e036600461075d565b610298565b60405190151581526020016100c9565b6100fe60035481565b6040519081526020016100c9565b6100e561011a366004610787565b610304565b60025461012c9060ff1681565b60405160ff90911681526020016100c9565b6100e561014c3660046107c3565b610382565b6100fe61015f3660046107dc565b60056020526000908152604090205481565b6100e561017f36600461075d565b610406565b600454610197906001600160a01b031681565b6040516001600160a01b0390911681526020016100c9565b6100bc61050e565b6100e56101c536600461075d565b61051b565b6100fe6101d83660046107fe565b600660209081526000928352604080842090915290825290205481565b6102086102033660046107dc565b610531565b005b6000805461021790610831565b80601f016020809104026020016040519081016040528092919081815260200182805461024390610831565b80156102905780601f1061026557610100808354040283529160200191610290565b820191906000526020600020905b81548152906001019060200180831161027357829003601f168201915b505050505081565b3360008181526006602090815260408083206001600160a01b038716808552925280832085905551919290917f8c5be1e5ebec7d5bd14f71427d1e84f3dd0314c0f7b2291e5b200ac8c7c3b925906102f39086815260200190565b60405180910390a350600192915050565b6001600160a01b038316600090815260066020908152604080832033845290915281205482111561033457600080fd5b6001600160a01b038416600090815260066020908152604080832033845290915281208054849290610367908490610881565b90915550610378905084848461056a565b5060019392505050565b3360009081526005602052604081205482111561039e57600080fd5b33600090815260056020526040812080548492906103bd908490610881565b9250508190555081600360008282546103d69190610881565b909155505060405182815233906000805160206108c78339815191529060200160405180910390a2506001919050565b6001600160a01b03821660009081526005602052604081205482111561042b57600080fd5b6001600160a01b038316600090815260066020908152604080832033845290915290205482111561045b57600080fd5b6001600160a01b03831660009081526005602052604081208054849290610483908490610881565b90915550506001600160a01b0383166000908152600660209081526040808320338452909152812080548492906104bb908490610881565b9250508190555081600360008282546104d49190610881565b90915550506040518281526001600160a01b038416906000805160206108c78339815191529060200160405180910390a250600192915050565b6001805461021790610831565b600061052833848461056a565b50600192915050565b6004546001600160a01b0316331461054857600080fd5b600480546001600160a01b0319166001600160a01b0392909216919091179055565b6001600160a01b03821661057d57600080fd5b6001600160a01b0383166000908152600560205260409020548111156105a257600080fd5b6001600160a01b0382166000908152600560205260409020546105c58282610898565b116105cf57600080fd5b6001600160a01b0380831660009081526005602052604080822054928616825281205490916105fd91610898565b6001600160a01b03851660009081526005602052604081208054929350849290919061062a908490610881565b90915550506001600160a01b03831660009081526005602052604081208054849290610657908490610898565b92505081905550826001600160a01b0316846001600160a01b03167fddf252ad1be2c89b69c2b068fc378daa952ba7f163c4a11628f55a4df523b3ef846040516106a391815260200190565b60405180910390a36001600160a01b0380841660009081526005602052604080822054928716825290205482916106d991610898565b146106e6576106e66108b0565b50505050565b600060208083528351808285015260005b81811015610719578581018301518582016040015282016106fd565b8181111561072b576000604083870101525b50601f01601f1916929092016040019392505050565b80356001600160a01b038116811461075857600080fd5b919050565b6000806040838503121561077057600080fd5b61077983610741565b946020939093013593505050565b60008060006060848603121561079c57600080fd5b6107a584610741565b92506107b360208501610741565b9150604084013590509250925092565b6000602082840312156107d557600080fd5b5035919050565b6000602082840312156107ee57600080fd5b6107f782610741565b9392505050565b6000806040838503121561081157600080fd5b61081a83610741565b915061082860208401610741565b90509250929050565b600181811c9082168061084557607f821691505b60208210810361086557634e487b7160e01b600052602260045260246000fd5b50919050565b634e487b7160e01b600052601160045260246000fd5b6000828210156108935761089361086b565b500390565b600082198211156108ab576108ab61086b565b500190565b634e487b7160e01b600052600160045260246000fdfecc16f5dbb4873280815c1ee09dbd06736cffcc184412cf7a71a0fdb75d397ca5a2646970667358221220e61a7c0b07a5de62310aced4a63c0bb6a528e5c15859196b063ee1b68001539464736f6c634300080e0033",
  "linkReferences": {},
  "deployedLinkReferences": {}
}