{
	"data": {
		"bytecode": {
			"linkReferences": {},
			"object": "608060405234801561001057600080fd5b5061001a3361001f565b61006f565b600080546001600160a01b038381166001600160a01b0319831681178455604051919092169283917f8be0079c531659141344cd1fd0a4f28419497f9722a3daafe3b4186f6b6457e09190a35050565b610c738061007e6000396000f3fe608060405234801561001057600080fd5b50600436106100935760003560e01c8063ad6a874511610066578063ad6a8745146100f6578063bae6a69014610109578063d1a55e3714610173578063f2fde38b1461017c578063ff1a48f71461018f57600080fd5b806319cb235014610098578063715018a6146100be5780638aa51ec8146100c85780638da5cb5b146100db575b600080fd5b6100ab6100a6366004610a83565b6101a2565b6040519081526020015b60405180910390f35b6100c66101d8565b005b6100c66100d63660046109d1565b610217565b6000546040516001600160a01b0390911681526020016100b5565b6100ab61010436600461095e565b610386565b61014761011736600461099f565b60026020526000908152604090205460ff808216916001600160a01b0361010082041691600160a81b9091041683565b6040805160ff94851681526001600160a01b0390931660208401529216918101919091526060016100b5565b6100ab60015481565b6100c661018a36600461095e565b610731565b6100c661019d366004610aa5565b6107cc565b60008281526002602052604081206001018054839081106101c5576101c5610bfc565b9060005260206000200154905092915050565b6000546001600160a01b0316331461020b5760405162461bcd60e51b815260040161020290610b9e565b60405180910390fd5b6102156000610898565b565b6000546001600160a01b031633146102415760405162461bcd60e51b815260040161020290610b9e565b6000868152600260205260408082208054610100600160b01b0319166101006001600160a01b038a160260ff60a81b191617600160a81b60ff898116919091029190911782558416808452918320805460ff191690921790915587825260010154905b83811080156102b257508181105b15610313578484828181106102c9576102c9610bfc565b90506020020135600260008a815260200190815260200160002060010182815481106102f7576102f7610bfc565b60009182526020909120015561030c81610bd3565b90506102a4565b508083111561037d57805b8381101561037b57600088815260026020526040902060010185858381811061034957610349610bfc565b8354600181018555600094855260209485902091909402929092013591909201555061037481610bd3565b905061031e565b505b50505050505050565b60006001815b60015481101561072a5760008181526002602052604090205460ff16600114156104e65760005b6000828152600260205260409020600101548110156104e457600082815260026020526040902054600160a81b900460ff168310156104d45760008281526002602052604081208054600190910180546101009092046001600160a01b03169162fdd58e9189918690811061042a5761042a610bfc565b6000918252602090912001546040516001600160e01b031960e085901b1681526001600160a01b039092166004830152602482015260440160206040518083038186803b15801561047a57600080fd5b505afa15801561048e573d6000803e3d6000fd5b505050506040513d601f19601f820116820180604052508101906104b291906109b8565b11156104d457600082815260026020526040902054600160a81b900460ff1692505b6104dd81610bd3565b90506103b3565b505b60008181526002602081905260409091205460ff1614156105d257600081815260026020526040902054600160a81b900460ff168210156105d257600081815260026020526040808220549051634b341aed60e01b81526001600160a01b03878116600483015261010090920490911690634b341aed9060240160206040518083038186803b15801561057857600080fd5b505afa15801561058c573d6000803e3d6000fd5b505050506040513d601f19601f820116820180604052508101906105b091906109b8565b11156105d257600081815260026020526040902054600160a81b900460ff1691505b60008181526002602052604090205460ff1661071a5760005b60008281526002602052604090206001015481101561071857600082815260026020526040902054600160a81b900460ff168310156107085760008281526002602052604090208054600190910180546001600160a01b038089169361010090041691636352211e918590811061066457610664610bfc565b90600052602060002001546040518263ffffffff1660e01b815260040161068d91815260200190565b60206040518083038186803b1580156106a557600080fd5b505afa1580156106b9573d6000803e3d6000fd5b505050506040513d601f19601f820116820180604052508101906106dd9190610982565b6001600160a01b0316141561070857600082815260026020526040902054600160a81b900460ff1692505b61071181610bd3565b90506105eb565b505b61072381610bd3565b905061038c565b5092915050565b6000546001600160a01b0316331461075b5760405162461bcd60e51b815260040161020290610b9e565b6001600160a01b0381166107c05760405162461bcd60e51b815260206004820152602660248201527f4f776e61626c653a206e6577206f776e657220697320746865207a65726f206160448201526564647265737360d01b6064820152608401610202565b6107c981610898565b50565b6000546001600160a01b031633146107f65760405162461bcd60e51b815260040161020290610b9e565b600180546000908152600260209081526040808320805460ff191660ff8a811691909117909155845484528184208054610100600160a81b0319166101006001600160a01b038b160217905584548452818420805460ff60a81b1916600160a81b9289169290920291909117905583548352909120835161087e9391909101918401906108e8565b5060016000815461088e90610bd3565b9091555050505050565b600080546001600160a01b038381166001600160a01b0319831681178455604051919092169283917f8be0079c531659141344cd1fd0a4f28419497f9722a3daafe3b4186f6b6457e09190a35050565b828054828255906000526020600020908101928215610923579160200282015b82811115610923578251825591602001919060010190610908565b5061092f929150610933565b5090565b5b8082111561092f5760008155600101610934565b803560ff8116811461095957600080fd5b919050565b60006020828403121561097057600080fd5b813561097b81610c28565b9392505050565b60006020828403121561099457600080fd5b815161097b81610c28565b6000602082840312156109b157600080fd5b5035919050565b6000602082840312156109ca57600080fd5b5051919050565b60008060008060008060a087890312156109ea57600080fd5b8635955060208701356109fc81610c28565b9450610a0a60408801610948565b9350606087013567ffffffffffffffff80821115610a2757600080fd5b818901915089601f830112610a3b57600080fd5b813581811115610a4a57600080fd5b8a60208260051b8501011115610a5f57600080fd5b602083019550809450505050610a7760808801610948565b90509295509295509295565b60008060408385031215610a9657600080fd5b50508035926020909101359150565b60008060008060808587031215610abb57600080fd5b610ac485610948565b9350602080860135610ad581610c28565b9350610ae360408701610948565b9250606086013567ffffffffffffffff80821115610b0057600080fd5b818801915088601f830112610b1457600080fd5b813581811115610b2657610b26610c12565b8060051b604051601f19603f83011681018181108582111715610b4b57610b4b610c12565b604052828152858101935084860182860187018d1015610b6a57600080fd5b600095505b83861015610b8d578035855260019590950194938601938601610b6f565b50989b979a50959850505050505050565b6020808252818101527f4f776e61626c653a2063616c6c6572206973206e6f7420746865206f776e6572604082015260600190565b6000600019821415610bf557634e487b7160e01b600052601160045260246000fd5b5060010190565b634e487b7160e01b600052603260045260246000fd5b634e487b7160e01b600052604160045260246000fd5b6001600160a01b03811681146107c957600080fdfea264697066735822122067ee5fa0614b0a32f79fe8c71c75e5ccb4144b676c72af5fe68eca545570a12464736f6c63430008070033",
			"opcodes": "PUSH1 0x80 PUSH1 0x40 MSTORE CALLVALUE DUP1 ISZERO PUSH2 0x10 JUMPI PUSH1 0x0 DUP1 REVERT JUMPDEST POP PUSH2 0x1A CALLER PUSH2 0x1F JUMP JUMPDEST PUSH2 0x6F JUMP JUMPDEST PUSH1 0x0 DUP1 SLOAD PUSH1 0x1 PUSH1 0x1 PUSH1 0xA0 SHL SUB DUP4 DUP2 AND PUSH1 0x1 PUSH1 0x1 PUSH1 0xA0 SHL SUB NOT DUP4 AND DUP2 OR DUP5 SSTORE PUSH1 0x40 MLOAD SWAP2 SWAP1 SWAP3 AND SWAP3 DUP4 SWAP2 PUSH32 0x8BE0079C531659141344CD1FD0A4F28419497F9722A3DAAFE3B4186F6B6457E0 SWAP2 SWAP1 LOG3 POP POP JUMP JUMPDEST PUSH2 0xC73 DUP1 PUSH2 0x7E PUSH1 0x0 CODECOPY PUSH1 0x0 RETURN INVALID PUSH1 0x80 PUSH1 0x40 MSTORE CALLVALUE DUP1 ISZERO PUSH2 0x10 JUMPI PUSH1 0x0 DUP1 REVERT JUMPDEST POP PUSH1 0x4 CALLDATASIZE LT PUSH2 0x93 JUMPI PUSH1 0x0 CALLDATALOAD PUSH1 0xE0 SHR DUP1 PUSH4 0xAD6A8745 GT PUSH2 0x66 JUMPI DUP1 PUSH4 0xAD6A8745 EQ PUSH2 0xF6 JUMPI DUP1 PUSH4 0xBAE6A690 EQ PUSH2 0x109 JUMPI DUP1 PUSH4 0xD1A55E37 EQ PUSH2 0x173 JUMPI DUP1 PUSH4 0xF2FDE38B EQ PUSH2 0x17C JUMPI DUP1 PUSH4 0xFF1A48F7 EQ PUSH2 0x18F JUMPI PUSH1 0x0 DUP1 REVERT JUMPDEST DUP1 PUSH4 0x19CB2350 EQ PUSH2 0x98 JUMPI DUP1 PUSH4 0x715018A6 EQ PUSH2 0xBE JUMPI DUP1 PUSH4 0x8AA51EC8 EQ PUSH2 0xC8 JUMPI DUP1 PUSH4 0x8DA5CB5B EQ PUSH2 0xDB JUMPI JUMPDEST PUSH1 0x0 DUP1 REVERT JUMPDEST PUSH2 0xAB PUSH2 0xA6 CALLDATASIZE PUSH1 0x4 PUSH2 0xA83 JUMP JUMPDEST PUSH2 0x1A2 JUMP JUMPDEST PUSH1 0x40 MLOAD SWAP1 DUP2 MSTORE PUSH1 0x20 ADD JUMPDEST PUSH1 0x40 MLOAD DUP1 SWAP2 SUB SWAP1 RETURN JUMPDEST PUSH2 0xC6 PUSH2 0x1D8 JUMP JUMPDEST STOP JUMPDEST PUSH2 0xC6 PUSH2 0xD6 CALLDATASIZE PUSH1 0x4 PUSH2 0x9D1 JUMP JUMPDEST PUSH2 0x217 JUMP JUMPDEST PUSH1 0x0 SLOAD PUSH1 0x40 MLOAD PUSH1 0x1 PUSH1 0x1 PUSH1 0xA0 SHL SUB SWAP1 SWAP2 AND DUP2 MSTORE PUSH1 0x20 ADD PUSH2 0xB5 JUMP JUMPDEST PUSH2 0xAB PUSH2 0x104 CALLDATASIZE PUSH1 0x4 PUSH2 0x95E JUMP JUMPDEST PUSH2 0x386 JUMP JUMPDEST PUSH2 0x147 PUSH2 0x117 CALLDATASIZE PUSH1 0x4 PUSH2 0x99F JUMP JUMPDEST PUSH1 0x2 PUSH1 0x20 MSTORE PUSH1 0x0 SWAP1 DUP2 MSTORE PUSH1 0x40 SWAP1 KECCAK256 SLOAD PUSH1 0xFF DUP1 DUP3 AND SWAP2 PUSH1 0x1 PUSH1 0x1 PUSH1 0xA0 SHL SUB PUSH2 0x100 DUP3 DIV AND SWAP2 PUSH1 0x1 PUSH1 0xA8 SHL SWAP1 SWAP2 DIV AND DUP4 JUMP JUMPDEST PUSH1 0x40 DUP1 MLOAD PUSH1 0xFF SWAP5 DUP6 AND DUP2 MSTORE PUSH1 0x1 PUSH1 0x1 PUSH1 0xA0 SHL SUB SWAP1 SWAP4 AND PUSH1 0x20 DUP5 ADD MSTORE SWAP3 AND SWAP2 DUP2 ADD SWAP2 SWAP1 SWAP2 MSTORE PUSH1 0x60 ADD PUSH2 0xB5 JUMP JUMPDEST PUSH2 0xAB PUSH1 0x1 SLOAD DUP2 JUMP JUMPDEST PUSH2 0xC6 PUSH2 0x18A CALLDATASIZE PUSH1 0x4 PUSH2 0x95E JUMP JUMPDEST PUSH2 0x731 JUMP JUMPDEST PUSH2 0xC6 PUSH2 0x19D CALLDATASIZE PUSH1 0x4 PUSH2 0xAA5 JUMP JUMPDEST PUSH2 0x7CC JUMP JUMPDEST PUSH1 0x0 DUP3 DUP2 MSTORE PUSH1 0x2 PUSH1 0x20 MSTORE PUSH1 0x40 DUP2 KECCAK256 PUSH1 0x1 ADD DUP1 SLOAD DUP4 SWAP1 DUP2 LT PUSH2 0x1C5 JUMPI PUSH2 0x1C5 PUSH2 0xBFC JUMP JUMPDEST SWAP1 PUSH1 0x0 MSTORE PUSH1 0x20 PUSH1 0x0 KECCAK256 ADD SLOAD SWAP1 POP SWAP3 SWAP2 POP POP JUMP JUMPDEST PUSH1 0x0 SLOAD PUSH1 0x1 PUSH1 0x1 PUSH1 0xA0 SHL SUB AND CALLER EQ PUSH2 0x20B JUMPI PUSH1 0x40 MLOAD PUSH3 0x461BCD PUSH1 0xE5 SHL DUP2 MSTORE PUSH1 0x4 ADD PUSH2 0x202 SWAP1 PUSH2 0xB9E JUMP JUMPDEST PUSH1 0x40 MLOAD DUP1 SWAP2 SUB SWAP1 REVERT JUMPDEST PUSH2 0x215 PUSH1 0x0 PUSH2 0x898 JUMP JUMPDEST JUMP JUMPDEST PUSH1 0x0 SLOAD PUSH1 0x1 PUSH1 0x1 PUSH1 0xA0 SHL SUB AND CALLER EQ PUSH2 0x241 JUMPI PUSH1 0x40 MLOAD PUSH3 0x461BCD PUSH1 0xE5 SHL DUP2 MSTORE PUSH1 0x4 ADD PUSH2 0x202 SWAP1 PUSH2 0xB9E JUMP JUMPDEST PUSH1 0x0 DUP7 DUP2 MSTORE PUSH1 0x2 PUSH1 0x20 MSTORE PUSH1 0x40 DUP1 DUP3 KECCAK256 DUP1 SLOAD PUSH2 0x100 PUSH1 0x1 PUSH1 0xB0 SHL SUB NOT AND PUSH2 0x100 PUSH1 0x1 PUSH1 0x1 PUSH1 0xA0 SHL SUB DUP11 AND MUL PUSH1 0xFF PUSH1 0xA8 SHL NOT AND OR PUSH1 0x1 PUSH1 0xA8 SHL PUSH1 0xFF DUP10 DUP2 AND SWAP2 SWAP1 SWAP2 MUL SWAP2 SWAP1 SWAP2 OR DUP3 SSTORE DUP5 AND DUP1 DUP5 MSTORE SWAP2 DUP4 KECCAK256 DUP1 SLOAD PUSH1 0xFF NOT AND SWAP1 SWAP3 OR SWAP1 SWAP2 SSTORE DUP8 DUP3 MSTORE PUSH1 0x1 ADD SLOAD SWAP1 JUMPDEST DUP4 DUP2 LT DUP1 ISZERO PUSH2 0x2B2 JUMPI POP DUP2 DUP2 LT JUMPDEST ISZERO PUSH2 0x313 JUMPI DUP5 DUP5 DUP3 DUP2 DUP2 LT PUSH2 0x2C9 JUMPI PUSH2 0x2C9 PUSH2 0xBFC JUMP JUMPDEST SWAP1 POP PUSH1 0x20 MUL ADD CALLDATALOAD PUSH1 0x2 PUSH1 0x0 DUP11 DUP2 MSTORE PUSH1 0x20 ADD SWAP1 DUP2 MSTORE PUSH1 0x20 ADD PUSH1 0x0 KECCAK256 PUSH1 0x1 ADD DUP3 DUP2 SLOAD DUP2 LT PUSH2 0x2F7 JUMPI PUSH2 0x2F7 PUSH2 0xBFC JUMP JUMPDEST PUSH1 0x0 SWAP2 DUP3 MSTORE PUSH1 0x20 SWAP1 SWAP2 KECCAK256 ADD SSTORE PUSH2 0x30C DUP2 PUSH2 0xBD3 JUMP JUMPDEST SWAP1 POP PUSH2 0x2A4 JUMP JUMPDEST POP DUP1 DUP4 GT ISZERO PUSH2 0x37D JUMPI DUP1 JUMPDEST DUP4 DUP2 LT ISZERO PUSH2 0x37B JUMPI PUSH1 0x0 DUP9 DUP2 MSTORE PUSH1 0x2 PUSH1 0x20 MSTORE PUSH1 0x40 SWAP1 KECCAK256 PUSH1 0x1 ADD DUP6 DUP6 DUP4 DUP2 DUP2 LT PUSH2 0x349 JUMPI PUSH2 0x349 PUSH2 0xBFC JUMP JUMPDEST DUP4 SLOAD PUSH1 0x1 DUP2 ADD DUP6 SSTORE PUSH1 0x0 SWAP5 DUP6 MSTORE PUSH1 0x20 SWAP5 DUP6 SWAP1 KECCAK256 SWAP2 SWAP1 SWAP5 MUL SWAP3 SWAP1 SWAP3 ADD CALLDATALOAD SWAP2 SWAP1 SWAP3 ADD SSTORE POP PUSH2 0x374 DUP2 PUSH2 0xBD3 JUMP JUMPDEST SWAP1 POP PUSH2 0x31E JUMP JUMPDEST POP JUMPDEST POP POP POP POP POP POP POP JUMP JUMPDEST PUSH1 0x0 PUSH1 0x1 DUP2 JUMPDEST PUSH1 0x1 SLOAD DUP2 LT ISZERO PUSH2 0x72A JUMPI PUSH1 0x0 DUP2 DUP2 MSTORE PUSH1 0x2 PUSH1 0x20 MSTORE PUSH1 0x40 SWAP1 KECCAK256 SLOAD PUSH1 0xFF AND PUSH1 0x1 EQ ISZERO PUSH2 0x4E6 JUMPI PUSH1 0x0 JUMPDEST PUSH1 0x0 DUP3 DUP2 MSTORE PUSH1 0x2 PUSH1 0x20 MSTORE PUSH1 0x40 SWAP1 KECCAK256 PUSH1 0x1 ADD SLOAD DUP2 LT ISZERO PUSH2 0x4E4 JUMPI PUSH1 0x0 DUP3 DUP2 MSTORE PUSH1 0x2 PUSH1 0x20 MSTORE PUSH1 0x40 SWAP1 KECCAK256 SLOAD PUSH1 0x1 PUSH1 0xA8 SHL SWAP1 DIV PUSH1 0xFF AND DUP4 LT ISZERO PUSH2 0x4D4 JUMPI PUSH1 0x0 DUP3 DUP2 MSTORE PUSH1 0x2 PUSH1 0x20 MSTORE PUSH1 0x40 DUP2 KECCAK256 DUP1 SLOAD PUSH1 0x1 SWAP1 SWAP2 ADD DUP1 SLOAD PUSH2 0x100 SWAP1 SWAP3 DIV PUSH1 0x1 PUSH1 0x1 PUSH1 0xA0 SHL SUB AND SWAP2 PUSH3 0xFDD58E SWAP2 DUP10 SWAP2 DUP7 SWAP1 DUP2 LT PUSH2 0x42A JUMPI PUSH2 0x42A PUSH2 0xBFC JUMP JUMPDEST PUSH1 0x0 SWAP2 DUP3 MSTORE PUSH1 0x20 SWAP1 SWAP2 KECCAK256 ADD SLOAD PUSH1 0x40 MLOAD PUSH1 0x1 PUSH1 0x1 PUSH1 0xE0 SHL SUB NOT PUSH1 0xE0 DUP6 SWAP1 SHL AND DUP2 MSTORE PUSH1 0x1 PUSH1 0x1 PUSH1 0xA0 SHL SUB SWAP1 SWAP3 AND PUSH1 0x4 DUP4 ADD MSTORE PUSH1 0x24 DUP3 ADD MSTORE PUSH1 0x44 ADD PUSH1 0x20 PUSH1 0x40 MLOAD DUP1 DUP4 SUB DUP2 DUP7 DUP1 EXTCODESIZE ISZERO DUP1 ISZERO PUSH2 0x47A JUMPI PUSH1 0x0 DUP1 REVERT JUMPDEST POP GAS STATICCALL ISZERO DUP1 ISZERO PUSH2 0x48E JUMPI RETURNDATASIZE PUSH1 0x0 DUP1 RETURNDATACOPY RETURNDATASIZE PUSH1 0x0 REVERT JUMPDEST POP POP POP POP PUSH1 0x40 MLOAD RETURNDATASIZE PUSH1 0x1F NOT PUSH1 0x1F DUP3 ADD AND DUP3 ADD DUP1 PUSH1 0x40 MSTORE POP DUP2 ADD SWAP1 PUSH2 0x4B2 SWAP2 SWAP1 PUSH2 0x9B8 JUMP JUMPDEST GT ISZERO PUSH2 0x4D4 JUMPI PUSH1 0x0 DUP3 DUP2 MSTORE PUSH1 0x2 PUSH1 0x20 MSTORE PUSH1 0x40 SWAP1 KECCAK256 SLOAD PUSH1 0x1 PUSH1 0xA8 SHL SWAP1 DIV PUSH1 0xFF AND SWAP3 POP JUMPDEST PUSH2 0x4DD DUP2 PUSH2 0xBD3 JUMP JUMPDEST SWAP1 POP PUSH2 0x3B3 JUMP JUMPDEST POP JUMPDEST PUSH1 0x0 DUP2 DUP2 MSTORE PUSH1 0x2 PUSH1 0x20 DUP2 SWAP1 MSTORE PUSH1 0x40 SWAP1 SWAP2 KECCAK256 SLOAD PUSH1 0xFF AND EQ ISZERO PUSH2 0x5D2 JUMPI PUSH1 0x0 DUP2 DUP2 MSTORE PUSH1 0x2 PUSH1 0x20 MSTORE PUSH1 0x40 SWAP1 KECCAK256 SLOAD PUSH1 0x1 PUSH1 0xA8 SHL SWAP1 DIV PUSH1 0xFF AND DUP3 LT ISZERO PUSH2 0x5D2 JUMPI PUSH1 0x0 DUP2 DUP2 MSTORE PUSH1 0x2 PUSH1 0x20 MSTORE PUSH1 0x40 DUP1 DUP3 KECCAK256 SLOAD SWAP1 MLOAD PUSH4 0x4B341AED PUSH1 0xE0 SHL DUP2 MSTORE PUSH1 0x1 PUSH1 0x1 PUSH1 0xA0 SHL SUB DUP8 DUP2 AND PUSH1 0x4 DUP4 ADD MSTORE PUSH2 0x100 SWAP1 SWAP3 DIV SWAP1 SWAP2 AND SWAP1 PUSH4 0x4B341AED SWAP1 PUSH1 0x24 ADD PUSH1 0x20 PUSH1 0x40 MLOAD DUP1 DUP4 SUB DUP2 DUP7 DUP1 EXTCODESIZE ISZERO DUP1 ISZERO PUSH2 0x578 JUMPI PUSH1 0x0 DUP1 REVERT JUMPDEST POP GAS STATICCALL ISZERO DUP1 ISZERO PUSH2 0x58C JUMPI RETURNDATASIZE PUSH1 0x0 DUP1 RETURNDATACOPY RETURNDATASIZE PUSH1 0x0 REVERT JUMPDEST POP POP POP POP PUSH1 0x40 MLOAD RETURNDATASIZE PUSH1 0x1F NOT PUSH1 0x1F DUP3 ADD AND DUP3 ADD DUP1 PUSH1 0x40 MSTORE POP DUP2 ADD SWAP1 PUSH2 0x5B0 SWAP2 SWAP1 PUSH2 0x9B8 JUMP JUMPDEST GT ISZERO PUSH2 0x5D2 JUMPI PUSH1 0x0 DUP2 DUP2 MSTORE PUSH1 0x2 PUSH1 0x20 MSTORE PUSH1 0x40 SWAP1 KECCAK256 SLOAD PUSH1 0x1 PUSH1 0xA8 SHL SWAP1 DIV PUSH1 0xFF AND SWAP2 POP JUMPDEST PUSH1 0x0 DUP2 DUP2 MSTORE PUSH1 0x2 PUSH1 0x20 MSTORE PUSH1 0x40 SWAP1 KECCAK256 SLOAD PUSH1 0xFF AND PUSH2 0x71A JUMPI PUSH1 0x0 JUMPDEST PUSH1 0x0 DUP3 DUP2 MSTORE PUSH1 0x2 PUSH1 0x20 MSTORE PUSH1 0x40 SWAP1 KECCAK256 PUSH1 0x1 ADD SLOAD DUP2 LT ISZERO PUSH2 0x718 JUMPI PUSH1 0x0 DUP3 DUP2 MSTORE PUSH1 0x2 PUSH1 0x20 MSTORE PUSH1 0x40 SWAP1 KECCAK256 SLOAD PUSH1 0x1 PUSH1 0xA8 SHL SWAP1 DIV PUSH1 0xFF AND DUP4 LT ISZERO PUSH2 0x708 JUMPI PUSH1 0x0 DUP3 DUP2 MSTORE PUSH1 0x2 PUSH1 0x20 MSTORE PUSH1 0x40 SWAP1 KECCAK256 DUP1 SLOAD PUSH1 0x1 SWAP1 SWAP2 ADD DUP1 SLOAD PUSH1 0x1 PUSH1 0x1 PUSH1 0xA0 SHL SUB DUP1 DUP10 AND SWAP4 PUSH2 0x100 SWAP1 DIV AND SWAP2 PUSH4 0x6352211E SWAP2 DUP6 SWAP1 DUP2 LT PUSH2 0x664 JUMPI PUSH2 0x664 PUSH2 0xBFC JUMP JUMPDEST SWAP1 PUSH1 0x0 MSTORE PUSH1 0x20 PUSH1 0x0 KECCAK256 ADD SLOAD PUSH1 0x40 MLOAD DUP3 PUSH4 0xFFFFFFFF AND PUSH1 0xE0 SHL DUP2 MSTORE PUSH1 0x4 ADD PUSH2 0x68D SWAP2 DUP2 MSTORE PUSH1 0x20 ADD SWAP1 JUMP JUMPDEST PUSH1 0x20 PUSH1 0x40 MLOAD DUP1 DUP4 SUB DUP2 DUP7 DUP1 EXTCODESIZE ISZERO DUP1 ISZERO PUSH2 0x6A5 JUMPI PUSH1 0x0 DUP1 REVERT JUMPDEST POP GAS STATICCALL ISZERO DUP1 ISZERO PUSH2 0x6B9 JUMPI RETURNDATASIZE PUSH1 0x0 DUP1 RETURNDATACOPY RETURNDATASIZE PUSH1 0x0 REVERT JUMPDEST POP POP POP POP PUSH1 0x40 MLOAD RETURNDATASIZE PUSH1 0x1F NOT PUSH1 0x1F DUP3 ADD AND DUP3 ADD DUP1 PUSH1 0x40 MSTORE POP DUP2 ADD SWAP1 PUSH2 0x6DD SWAP2 SWAP1 PUSH2 0x982 JUMP JUMPDEST PUSH1 0x1 PUSH1 0x1 PUSH1 0xA0 SHL SUB AND EQ ISZERO PUSH2 0x708 JUMPI PUSH1 0x0 DUP3 DUP2 MSTORE PUSH1 0x2 PUSH1 0x20 MSTORE PUSH1 0x40 SWAP1 KECCAK256 SLOAD PUSH1 0x1 PUSH1 0xA8 SHL SWAP1 DIV PUSH1 0xFF AND SWAP3 POP JUMPDEST PUSH2 0x711 DUP2 PUSH2 0xBD3 JUMP JUMPDEST SWAP1 POP PUSH2 0x5EB JUMP JUMPDEST POP JUMPDEST PUSH2 0x723 DUP2 PUSH2 0xBD3 JUMP JUMPDEST SWAP1 POP PUSH2 0x38C JUMP JUMPDEST POP SWAP3 SWAP2 POP POP JUMP JUMPDEST PUSH1 0x0 SLOAD PUSH1 0x1 PUSH1 0x1 PUSH1 0xA0 SHL SUB AND CALLER EQ PUSH2 0x75B JUMPI PUSH1 0x40 MLOAD PUSH3 0x461BCD PUSH1 0xE5 SHL DUP2 MSTORE PUSH1 0x4 ADD PUSH2 0x202 SWAP1 PUSH2 0xB9E JUMP JUMPDEST PUSH1 0x1 PUSH1 0x1 PUSH1 0xA0 SHL SUB DUP2 AND PUSH2 0x7C0 JUMPI PUSH1 0x40 MLOAD PUSH3 0x461BCD PUSH1 0xE5 SHL DUP2 MSTORE PUSH1 0x20 PUSH1 0x4 DUP3 ADD MSTORE PUSH1 0x26 PUSH1 0x24 DUP3 ADD MSTORE PUSH32 0x4F776E61626C653A206E6577206F776E657220697320746865207A65726F2061 PUSH1 0x44 DUP3 ADD MSTORE PUSH6 0x646472657373 PUSH1 0xD0 SHL PUSH1 0x64 DUP3 ADD MSTORE PUSH1 0x84 ADD PUSH2 0x202 JUMP JUMPDEST PUSH2 0x7C9 DUP2 PUSH2 0x898 JUMP JUMPDEST POP JUMP JUMPDEST PUSH1 0x0 SLOAD PUSH1 0x1 PUSH1 0x1 PUSH1 0xA0 SHL SUB AND CALLER EQ PUSH2 0x7F6 JUMPI PUSH1 0x40 MLOAD PUSH3 0x461BCD PUSH1 0xE5 SHL DUP2 MSTORE PUSH1 0x4 ADD PUSH2 0x202 SWAP1 PUSH2 0xB9E JUMP JUMPDEST PUSH1 0x1 DUP1 SLOAD PUSH1 0x0 SWAP1 DUP2 MSTORE PUSH1 0x2 PUSH1 0x20 SWAP1 DUP2 MSTORE PUSH1 0x40 DUP1 DUP4 KECCAK256 DUP1 SLOAD PUSH1 0xFF NOT AND PUSH1 0xFF DUP11 DUP2 AND SWAP2 SWAP1 SWAP2 OR SWAP1 SWAP2 SSTORE DUP5 SLOAD DUP5 MSTORE DUP2 DUP5 KECCAK256 DUP1 SLOAD PUSH2 0x100 PUSH1 0x1 PUSH1 0xA8 SHL SUB NOT AND PUSH2 0x100 PUSH1 0x1 PUSH1 0x1 PUSH1 0xA0 SHL SUB DUP12 AND MUL OR SWAP1 SSTORE DUP5 SLOAD DUP5 MSTORE DUP2 DUP5 KECCAK256 DUP1 SLOAD PUSH1 0xFF PUSH1 0xA8 SHL NOT AND PUSH1 0x1 PUSH1 0xA8 SHL SWAP3 DUP10 AND SWAP3 SWAP1 SWAP3 MUL SWAP2 SWAP1 SWAP2 OR SWAP1 SSTORE DUP4 SLOAD DUP4 MSTORE SWAP1 SWAP2 KECCAK256 DUP4 MLOAD PUSH2 0x87E SWAP4 SWAP2 SWAP1 SWAP2 ADD SWAP2 DUP5 ADD SWAP1 PUSH2 0x8E8 JUMP JUMPDEST POP PUSH1 0x1 PUSH1 0x0 DUP2 SLOAD PUSH2 0x88E SWAP1 PUSH2 0xBD3 JUMP JUMPDEST SWAP1 SWAP2 SSTORE POP POP POP POP POP JUMP JUMPDEST PUSH1 0x0 DUP1 SLOAD PUSH1 0x1 PUSH1 0x1 PUSH1 0xA0 SHL SUB DUP4 DUP2 AND PUSH1 0x1 PUSH1 0x1 PUSH1 0xA0 SHL SUB NOT DUP4 AND DUP2 OR DUP5 SSTORE PUSH1 0x40 MLOAD SWAP2 SWAP1 SWAP3 AND SWAP3 DUP4 SWAP2 PUSH32 0x8BE0079C531659141344CD1FD0A4F28419497F9722A3DAAFE3B4186F6B6457E0 SWAP2 SWAP1 LOG3 POP POP JUMP JUMPDEST DUP3 DUP1 SLOAD DUP3 DUP3 SSTORE SWAP1 PUSH1 0x0 MSTORE PUSH1 0x20 PUSH1 0x0 KECCAK256 SWAP1 DUP2 ADD SWAP3 DUP3 ISZERO PUSH2 0x923 JUMPI SWAP2 PUSH1 0x20 MUL DUP3 ADD JUMPDEST DUP3 DUP2 GT ISZERO PUSH2 0x923 JUMPI DUP3 MLOAD DUP3 SSTORE SWAP2 PUSH1 0x20 ADD SWAP2 SWAP1 PUSH1 0x1 ADD SWAP1 PUSH2 0x908 JUMP JUMPDEST POP PUSH2 0x92F SWAP3 SWAP2 POP PUSH2 0x933 JUMP JUMPDEST POP SWAP1 JUMP JUMPDEST JUMPDEST DUP1 DUP3 GT ISZERO PUSH2 0x92F JUMPI PUSH1 0x0 DUP2 SSTORE PUSH1 0x1 ADD PUSH2 0x934 JUMP JUMPDEST DUP1 CALLDATALOAD PUSH1 0xFF DUP2 AND DUP2 EQ PUSH2 0x959 JUMPI PUSH1 0x0 DUP1 REVERT JUMPDEST SWAP2 SWAP1 POP JUMP JUMPDEST PUSH1 0x0 PUSH1 0x20 DUP3 DUP5 SUB SLT ISZERO PUSH2 0x970 JUMPI PUSH1 0x0 DUP1 REVERT JUMPDEST DUP2 CALLDATALOAD PUSH2 0x97B DUP2 PUSH2 0xC28 JUMP JUMPDEST SWAP4 SWAP3 POP POP POP JUMP JUMPDEST PUSH1 0x0 PUSH1 0x20 DUP3 DUP5 SUB SLT ISZERO PUSH2 0x994 JUMPI PUSH1 0x0 DUP1 REVERT JUMPDEST DUP2 MLOAD PUSH2 0x97B DUP2 PUSH2 0xC28 JUMP JUMPDEST PUSH1 0x0 PUSH1 0x20 DUP3 DUP5 SUB SLT ISZERO PUSH2 0x9B1 JUMPI PUSH1 0x0 DUP1 REVERT JUMPDEST POP CALLDATALOAD SWAP2 SWAP1 POP JUMP JUMPDEST PUSH1 0x0 PUSH1 0x20 DUP3 DUP5 SUB SLT ISZERO PUSH2 0x9CA JUMPI PUSH1 0x0 DUP1 REVERT JUMPDEST POP MLOAD SWAP2 SWAP1 POP JUMP JUMPDEST PUSH1 0x0 DUP1 PUSH1 0x0 DUP1 PUSH1 0x0 DUP1 PUSH1 0xA0 DUP8 DUP10 SUB SLT ISZERO PUSH2 0x9EA JUMPI PUSH1 0x0 DUP1 REVERT JUMPDEST DUP7 CALLDATALOAD SWAP6 POP PUSH1 0x20 DUP8 ADD CALLDATALOAD PUSH2 0x9FC DUP2 PUSH2 0xC28 JUMP JUMPDEST SWAP5 POP PUSH2 0xA0A PUSH1 0x40 DUP9 ADD PUSH2 0x948 JUMP JUMPDEST SWAP4 POP PUSH1 0x60 DUP8 ADD CALLDATALOAD PUSH8 0xFFFFFFFFFFFFFFFF DUP1 DUP3 GT ISZERO PUSH2 0xA27 JUMPI PUSH1 0x0 DUP1 REVERT JUMPDEST DUP2 DUP10 ADD SWAP2 POP DUP10 PUSH1 0x1F DUP4 ADD SLT PUSH2 0xA3B JUMPI PUSH1 0x0 DUP1 REVERT JUMPDEST DUP2 CALLDATALOAD DUP2 DUP2 GT ISZERO PUSH2 0xA4A JUMPI PUSH1 0x0 DUP1 REVERT JUMPDEST DUP11 PUSH1 0x20 DUP3 PUSH1 0x5 SHL DUP6 ADD ADD GT ISZERO PUSH2 0xA5F JUMPI PUSH1 0x0 DUP1 REVERT JUMPDEST PUSH1 0x20 DUP4 ADD SWAP6 POP DUP1 SWAP5 POP POP POP POP PUSH2 0xA77 PUSH1 0x80 DUP9 ADD PUSH2 0x948 JUMP JUMPDEST SWAP1 POP SWAP3 SWAP6 POP SWAP3 SWAP6 POP SWAP3 SWAP6 JUMP JUMPDEST PUSH1 0x0 DUP1 PUSH1 0x40 DUP4 DUP6 SUB SLT ISZERO PUSH2 0xA96 JUMPI PUSH1 0x0 DUP1 REVERT JUMPDEST POP POP DUP1 CALLDATALOAD SWAP3 PUSH1 0x20 SWAP1 SWAP2 ADD CALLDATALOAD SWAP2 POP JUMP JUMPDEST PUSH1 0x0 DUP1 PUSH1 0x0 DUP1 PUSH1 0x80 DUP6 DUP8 SUB SLT ISZERO PUSH2 0xABB JUMPI PUSH1 0x0 DUP1 REVERT JUMPDEST PUSH2 0xAC4 DUP6 PUSH2 0x948 JUMP JUMPDEST SWAP4 POP PUSH1 0x20 DUP1 DUP7 ADD CALLDATALOAD PUSH2 0xAD5 DUP2 PUSH2 0xC28 JUMP JUMPDEST SWAP4 POP PUSH2 0xAE3 PUSH1 0x40 DUP8 ADD PUSH2 0x948 JUMP JUMPDEST SWAP3 POP PUSH1 0x60 DUP7 ADD CALLDATALOAD PUSH8 0xFFFFFFFFFFFFFFFF DUP1 DUP3 GT ISZERO PUSH2 0xB00 JUMPI PUSH1 0x0 DUP1 REVERT JUMPDEST DUP2 DUP9 ADD SWAP2 POP DUP9 PUSH1 0x1F DUP4 ADD SLT PUSH2 0xB14 JUMPI PUSH1 0x0 DUP1 REVERT JUMPDEST DUP2 CALLDATALOAD DUP2 DUP2 GT ISZERO PUSH2 0xB26 JUMPI PUSH2 0xB26 PUSH2 0xC12 JUMP JUMPDEST DUP1 PUSH1 0x5 SHL PUSH1 0x40 MLOAD PUSH1 0x1F NOT PUSH1 0x3F DUP4 ADD AND DUP2 ADD DUP2 DUP2 LT DUP6 DUP3 GT OR ISZERO PUSH2 0xB4B JUMPI PUSH2 0xB4B PUSH2 0xC12 JUMP JUMPDEST PUSH1 0x40 MSTORE DUP3 DUP2 MSTORE DUP6 DUP2 ADD SWAP4 POP DUP5 DUP7 ADD DUP3 DUP7 ADD DUP8 ADD DUP14 LT ISZERO PUSH2 0xB6A JUMPI PUSH1 0x0 DUP1 REVERT JUMPDEST PUSH1 0x0 SWAP6 POP JUMPDEST DUP4 DUP7 LT ISZERO PUSH2 0xB8D JUMPI DUP1 CALLDATALOAD DUP6 MSTORE PUSH1 0x1 SWAP6 SWAP1 SWAP6 ADD SWAP5 SWAP4 DUP7 ADD SWAP4 DUP7 ADD PUSH2 0xB6F JUMP JUMPDEST POP SWAP9 SWAP12 SWAP8 SWAP11 POP SWAP6 SWAP9 POP POP POP POP POP POP POP JUMP JUMPDEST PUSH1 0x20 DUP1 DUP3 MSTORE DUP2 DUP2 ADD MSTORE PUSH32 0x4F776E61626C653A2063616C6C6572206973206E6F7420746865206F776E6572 PUSH1 0x40 DUP3 ADD MSTORE PUSH1 0x60 ADD SWAP1 JUMP JUMPDEST PUSH1 0x0 PUSH1 0x0 NOT DUP3 EQ ISZERO PUSH2 0xBF5 JUMPI PUSH4 0x4E487B71 PUSH1 0xE0 SHL PUSH1 0x0 MSTORE PUSH1 0x11 PUSH1 0x4 MSTORE PUSH1 0x24 PUSH1 0x0 REVERT JUMPDEST POP PUSH1 0x1 ADD SWAP1 JUMP JUMPDEST PUSH4 0x4E487B71 PUSH1 0xE0 SHL PUSH1 0x0 MSTORE PUSH1 0x32 PUSH1 0x4 MSTORE PUSH1 0x24 PUSH1 0x0 REVERT JUMPDEST PUSH4 0x4E487B71 PUSH1 0xE0 SHL PUSH1 0x0 MSTORE PUSH1 0x41 PUSH1 0x4 MSTORE PUSH1 0x24 PUSH1 0x0 REVERT JUMPDEST PUSH1 0x1 PUSH1 0x1 PUSH1 0xA0 SHL SUB DUP2 AND DUP2 EQ PUSH2 0x7C9 JUMPI PUSH1 0x0 DUP1 REVERT INVALID LOG2 PUSH5 0x6970667358 0x22 SLT KECCAK256 PUSH8 0xEE5FA0614B0A32F7 SWAP16 0xE8 0xC7 SHR PUSH22 0xE5CCB4144B676C72AF5FE68ECA545570A12464736F6C PUSH4 0x43000807 STOP CALLER "
		},
		"gasEstimates": {
			"creation": {
				"codeDepositCost": "637400",
				"executionCost": "26511",
				"totalCost": "663911"
			},
			"external": {
				"addDiscount(uint8,address,uint8,uint256[])": "infinite",
				"calculateDiscount(address)": "infinite",
				"discountId()": "2328",
				"discounts(uint256)": "2611",
				"editDiscount(uint256,address,uint8,uint256[],uint8)": "infinite",
				"getDiscountTokenId(uint256,uint256)": "4664",
				"owner()": "2368",
				"renounceOwnership()": "28137",
				"transferOwnership(address)": "infinite"
			}
		},
		"methodIdentifiers": {
			"addDiscount(uint8,address,uint8,uint256[])": "ff1a48f7",
			"calculateDiscount(address)": "ad6a8745",
			"discountId()": "d1a55e37",
			"discounts(uint256)": "bae6a690",
			"editDiscount(uint256,address,uint8,uint256[],uint8)": "8aa51ec8",
			"getDiscountTokenId(uint256,uint256)": "19cb2350",
			"owner()": "8da5cb5b",
			"renounceOwnership()": "715018a6",
			"transferOwnership(address)": "f2fde38b"
		}
	},
	"abi": [
		{
			"anonymous": false,
			"inputs": [
				{
					"indexed": true,
					"internalType": "address",
					"name": "previousOwner",
					"type": "address"
				},
				{
					"indexed": true,
					"internalType": "address",
					"name": "newOwner",
					"type": "address"
				}
			],
			"name": "OwnershipTransferred",
			"type": "event"
		},
		{
			"inputs": [
				{
					"internalType": "uint8",
					"name": "_tokenType",
					"type": "uint8"
				},
				{
					"internalType": "address",
					"name": "_tokenContract",
					"type": "address"
				},
				{
					"internalType": "uint8",
					"name": "_discount",
					"type": "uint8"
				},
				{
					"internalType": "uint256[]",
					"name": "_tokenIds",
					"type": "uint256[]"
				}
			],
			"name": "addDiscount",
			"outputs": [],
			"stateMutability": "nonpayable",
			"type": "function"
		},
		{
			"inputs": [
				{
					"internalType": "address",
					"name": "requester",
					"type": "address"
				}
			],
			"name": "calculateDiscount",
			"outputs": [
				{
					"internalType": "uint256",
					"name": "",
					"type": "uint256"
				}
			],
			"stateMutability": "view",
			"type": "function"
		},
		{
			"inputs": [],
			"name": "discountId",
			"outputs": [
				{
					"internalType": "uint256",
					"name": "",
					"type": "uint256"
				}
			],
			"stateMutability": "view",
			"type": "function"
		},
		{
			"inputs": [
				{
					"internalType": "uint256",
					"name": "",
					"type": "uint256"
				}
			],
			"name": "discounts",
			"outputs": [
				{
					"internalType": "uint8",
					"name": "tokenType",
					"type": "uint8"
				},
				{
					"internalType": "address",
					"name": "tokenContract",
					"type": "address"
				},
				{
					"internalType": "uint8",
					"name": "discount",
					"type": "uint8"
				}
			],
			"stateMutability": "view",
			"type": "function"
		},
		{
			"inputs": [
				{
					"internalType": "uint256",
					"name": "_discountId",
					"type": "uint256"
				},
				{
					"internalType": "address",
					"name": "_tokenContract",
					"type": "address"
				},
				{
					"internalType": "uint8",
					"name": "_discount",
					"type": "uint8"
				},
				{
					"internalType": "uint256[]",
					"name": "_tokenIds",
					"type": "uint256[]"
				},
				{
					"internalType": "uint8",
					"name": "_tokenType",
					"type": "uint8"
				}
			],
			"name": "editDiscount",
			"outputs": [],
			"stateMutability": "nonpayable",
			"type": "function"
		},
		{
			"inputs": [
				{
					"internalType": "uint256",
					"name": "_discountId",
					"type": "uint256"
				},
				{
					"internalType": "uint256",
					"name": "tokenIdIndex",
					"type": "uint256"
				}
			],
			"name": "getDiscountTokenId",
			"outputs": [
				{
					"internalType": "uint256",
					"name": "",
					"type": "uint256"
				}
			],
			"stateMutability": "view",
			"type": "function"
		},
		{
			"inputs": [],
			"name": "owner",
			"outputs": [
				{
					"internalType": "address",
					"name": "",
					"type": "address"
				}
			],
			"stateMutability": "view",
			"type": "function"
		},
		{
			"inputs": [],
			"name": "renounceOwnership",
			"outputs": [],
			"stateMutability": "nonpayable",
			"type": "function"
		},
		{
			"inputs": [
				{
					"internalType": "address",
					"name": "newOwner",
					"type": "address"
				}
			],
			"name": "transferOwnership",
			"outputs": [],
			"stateMutability": "nonpayable",
			"type": "function"
		}
	]
}