{
  "_format": "hh-sol-artifact-1",
  "contractName": "GameItems1155",
  "sourceName": "contracts/auxiliary/GameItems1155.sol",
  "abi": [
    {
      "inputs": [],
      "stateMutability": "nonpayable",
      "type": "constructor"
    },
    {
      "anonymous": false,
      "inputs": [
        {
          "indexed": true,
          "internalType": "address",
          "name": "account",
          "type": "address"
        },
        {
          "indexed": true,
          "internalType": "address",
          "name": "operator",
          "type": "address"
        },
        {
          "indexed": false,
          "internalType": "bool",
          "name": "approved",
          "type": "bool"
        }
      ],
      "name": "ApprovalForAll",
      "type": "event"
    },
    {
      "anonymous": false,
      "inputs": [
        {
          "indexed": true,
          "internalType": "uint256",
          "name": "itemId",
          "type": "uint256"
        },
        {
          "indexed": true,
          "internalType": "uint256",
          "name": "tokenId",
          "type": "uint256"
        },
        {
          "indexed": true,
          "internalType": "address",
          "name": "owner",
          "type": "address"
        },
        {
          "indexed": false,
          "internalType": "string",
          "name": "name",
          "type": "string"
        },
        {
          "indexed": false,
          "internalType": "string",
          "name": "description",
          "type": "string"
        },
        {
          "indexed": false,
          "internalType": "string",
          "name": "image_url",
          "type": "string"
        }
      ],
      "name": "ItemCreation",
      "type": "event"
    },
    {
      "anonymous": false,
      "inputs": [
        {
          "indexed": true,
          "internalType": "address",
          "name": "previousOwner",
          "type": "address"
        },
        {
          "indexed": true,
          "internalType": "address",
          "name": "newOwner",
          "type": "address"
        }
      ],
      "name": "OwnershipTransferred",
      "type": "event"
    },
    {
      "anonymous": false,
      "inputs": [
        {
          "indexed": true,
          "internalType": "address",
          "name": "operator",
          "type": "address"
        },
        {
          "indexed": true,
          "internalType": "address",
          "name": "from",
          "type": "address"
        },
        {
          "indexed": true,
          "internalType": "address",
          "name": "to",
          "type": "address"
        },
        {
          "indexed": false,
          "internalType": "uint256[]",
          "name": "ids",
          "type": "uint256[]"
        },
        {
          "indexed": false,
          "internalType": "uint256[]",
          "name": "values",
          "type": "uint256[]"
        }
      ],
      "name": "TransferBatch",
      "type": "event"
    },
    {
      "anonymous": false,
      "inputs": [
        {
          "indexed": true,
          "internalType": "address",
          "name": "operator",
          "type": "address"
        },
        {
          "indexed": true,
          "internalType": "address",
          "name": "from",
          "type": "address"
        },
        {
          "indexed": true,
          "internalType": "address",
          "name": "to",
          "type": "address"
        },
        {
          "indexed": false,
          "internalType": "uint256",
          "name": "id",
          "type": "uint256"
        },
        {
          "indexed": false,
          "internalType": "uint256",
          "name": "value",
          "type": "uint256"
        }
      ],
      "name": "TransferSingle",
      "type": "event"
    },
    {
      "anonymous": false,
      "inputs": [
        {
          "indexed": false,
          "internalType": "string",
          "name": "value",
          "type": "string"
        },
        {
          "indexed": true,
          "internalType": "uint256",
          "name": "id",
          "type": "uint256"
        }
      ],
      "name": "URI",
      "type": "event"
    },
    {
      "inputs": [
        {
          "internalType": "address",
          "name": "account",
          "type": "address"
        },
        {
          "internalType": "uint256",
          "name": "id",
          "type": "uint256"
        }
      ],
      "name": "balanceOf",
      "outputs": [
        {
          "internalType": "uint256",
          "name": "",
          "type": "uint256"
        }
      ],
      "stateMutability": "view",
      "type": "function"
    },
    {
      "inputs": [
        {
          "internalType": "address[]",
          "name": "accounts",
          "type": "address[]"
        },
        {
          "internalType": "uint256[]",
          "name": "ids",
          "type": "uint256[]"
        }
      ],
      "name": "balanceOfBatch",
      "outputs": [
        {
          "internalType": "uint256[]",
          "name": "",
          "type": "uint256[]"
        }
      ],
      "stateMutability": "view",
      "type": "function"
    },
    {
      "inputs": [
        {
          "internalType": "address",
          "name": "receiver",
          "type": "address"
        },
        {
          "internalType": "uint256",
          "name": "quantity",
          "type": "uint256"
        },
        {
          "internalType": "bytes",
          "name": "info",
          "type": "bytes"
        },
        {
          "internalType": "string",
          "name": "name",
          "type": "string"
        },
        {
          "internalType": "string",
          "name": "description",
          "type": "string"
        },
        {
          "internalType": "string",
          "name": "image_url",
          "type": "string"
        }
      ],
      "name": "createTokens",
      "outputs": [],
      "stateMutability": "nonpayable",
      "type": "function"
    },
    {
      "inputs": [
        {
          "internalType": "address",
          "name": "account",
          "type": "address"
        },
        {
          "internalType": "address",
          "name": "operator",
          "type": "address"
        }
      ],
      "name": "isApprovedForAll",
      "outputs": [
        {
          "internalType": "bool",
          "name": "",
          "type": "bool"
        }
      ],
      "stateMutability": "view",
      "type": "function"
    },
    {
      "inputs": [
        {
          "internalType": "uint256",
          "name": "",
          "type": "uint256"
        }
      ],
      "name": "items",
      "outputs": [
        {
          "internalType": "address",
          "name": "owner",
          "type": "address"
        },
        {
          "internalType": "string",
          "name": "name",
          "type": "string"
        },
        {
          "internalType": "string",
          "name": "description",
          "type": "string"
        },
        {
          "internalType": "string",
          "name": "image_url",
          "type": "string"
        },
        {
          "internalType": "uint256",
          "name": "qty",
          "type": "uint256"
        },
        {
          "internalType": "uint256",
          "name": "tokenId",
          "type": "uint256"
        },
        {
          "internalType": "bytes",
          "name": "info",
          "type": "bytes"
        }
      ],
      "stateMutability": "view",
      "type": "function"
    },
    {
      "inputs": [],
      "name": "owner",
      "outputs": [
        {
          "internalType": "address",
          "name": "",
          "type": "address"
        }
      ],
      "stateMutability": "view",
      "type": "function"
    },
    {
      "inputs": [],
      "name": "renounceOwnership",
      "outputs": [],
      "stateMutability": "nonpayable",
      "type": "function"
    },
    {
      "inputs": [
        {
          "internalType": "address",
          "name": "from",
          "type": "address"
        },
        {
          "internalType": "address",
          "name": "to",
          "type": "address"
        },
        {
          "internalType": "uint256[]",
          "name": "ids",
          "type": "uint256[]"
        },
        {
          "internalType": "uint256[]",
          "name": "amounts",
          "type": "uint256[]"
        },
        {
          "internalType": "bytes",
          "name": "data",
          "type": "bytes"
        }
      ],
      "name": "safeBatchTransferFrom",
      "outputs": [],
      "stateMutability": "nonpayable",
      "type": "function"
    },
    {
      "inputs": [
        {
          "internalType": "address",
          "name": "from",
          "type": "address"
        },
        {
          "internalType": "address",
          "name": "to",
          "type": "address"
        },
        {
          "internalType": "uint256",
          "name": "id",
          "type": "uint256"
        },
        {
          "internalType": "uint256",
          "name": "amount",
          "type": "uint256"
        },
        {
          "internalType": "bytes",
          "name": "data",
          "type": "bytes"
        }
      ],
      "name": "safeTransferFrom",
      "outputs": [],
      "stateMutability": "nonpayable",
      "type": "function"
    },
    {
      "inputs": [
        {
          "internalType": "address",
          "name": "operator",
          "type": "address"
        },
        {
          "internalType": "bool",
          "name": "approved",
          "type": "bool"
        }
      ],
      "name": "setApprovalForAll",
      "outputs": [],
      "stateMutability": "nonpayable",
      "type": "function"
    },
    {
      "inputs": [
        {
          "internalType": "bytes4",
          "name": "interfaceId",
          "type": "bytes4"
        }
      ],
      "name": "supportsInterface",
      "outputs": [
        {
          "internalType": "bool",
          "name": "",
          "type": "bool"
        }
      ],
      "stateMutability": "view",
      "type": "function"
    },
    {
      "inputs": [],
      "name": "totalSupply",
      "outputs": [
        {
          "internalType": "uint256",
          "name": "",
          "type": "uint256"
        }
      ],
      "stateMutability": "view",
      "type": "function"
    },
    {
      "inputs": [
        {
          "internalType": "address",
          "name": "newOwner",
          "type": "address"
        }
      ],
      "name": "transferOwnership",
      "outputs": [],
      "stateMutability": "nonpayable",
      "type": "function"
    },
    {
      "inputs": [
        {
          "internalType": "uint256",
          "name": "",
          "type": "uint256"
        }
      ],
      "name": "uri",
      "outputs": [
        {
          "internalType": "string",
          "name": "",
          "type": "string"
        }
      ],
      "stateMutability": "view",
      "type": "function"
    }
  ],
  "bytecode": "0x60806040523480156200001157600080fd5b5060408051808201909152600c81526b54657374204552433131353560a01b6020820152620000403362000052565b6200004b81620000a2565b506200019d565b600080546001600160a01b038381166001600160a01b0319831681178455604051919092169283917f8be0079c531659141344cd1fd0a4f28419497f9722a3daafe3b4186f6b6457e09190a35050565b8051620000b7906003906020840190620000bb565b5050565b828054620000c99062000161565b90600052602060002090601f016020900481019282620000ed576000855562000138565b82601f106200010857805160ff191683800117855562000138565b8280016001018555821562000138579182015b82811115620001385782518255916020019190600101906200011b565b50620001469291506200014a565b5090565b5b808211156200014657600081556001016200014b565b600181811c908216806200017657607f821691505b6020821081036200019757634e487b7160e01b600052602260045260246000fd5b50919050565b611e8c80620001ad6000396000f3fe608060405234801561001057600080fd5b50600436106100b95760003560e01c8062fdd58e146100be57806301ffc9a7146100e45780630e89341c1461010757806318160ddd146101275780632eb2c2d61461012f5780634e1273f414610144578063715018a6146101645780638da5cb5b1461016c5780639283f3771461018c578063a22cb4651461019f578063bfb231d2146101b2578063e985e9c5146101d8578063f242432a14610214578063f2fde38b14610227575b600080fd5b6100d16100cc36600461141f565b61023a565b6040519081526020015b60405180910390f35b6100f76100f236600461145f565b6102d3565b60405190151581526020016100db565b61011a610115366004611483565b610325565b6040516100db91906114e9565b6004546100d1565b61014261013d366004611645565b6103b9565b005b6101576101523660046116ee565b610450565b6040516100db91906117f3565b610142610579565b6101746105b4565b6040516001600160a01b0390911681526020016100db565b61014261019a36600461184e565b6105c3565b6101426101ad366004611928565b61080e565b6101c56101c0366004611483565b61081d565b6040516100db9796959493929190611964565b6100f76101e63660046119dc565b6001600160a01b03918216600090815260026020908152604080832093909416825291909152205460ff1690565b610142610222366004611a0f565b610a95565b610142610235366004611a73565b610b1c565b60006001600160a01b0383166102ab5760405162461bcd60e51b815260206004820152602b60248201527f455243313135353a2062616c616e636520717565727920666f7220746865207a60448201526a65726f206164647265737360a81b60648201526084015b60405180910390fd5b5060009081526001602090815260408083206001600160a01b03949094168352929052205490565b60006001600160e01b03198216636cdb3d1360e11b148061030457506001600160e01b031982166303a24d0760e21b145b8061031f57506301ffc9a760e01b6001600160e01b03198316145b92915050565b60606003805461033490611a8e565b80601f016020809104026020016040519081016040528092919081815260200182805461036090611a8e565b80156103ad5780601f10610382576101008083540402835291602001916103ad565b820191906000526020600020905b81548152906001019060200180831161039057829003601f168201915b50505050509050919050565b6001600160a01b0385163314806103d557506103d585336101e6565b61043c5760405162461bcd60e51b815260206004820152603260248201527f455243313135353a207472616e736665722063616c6c6572206973206e6f74206044820152711bdddb995c881b9bdc88185c1c1c9bdd995960721b60648201526084016102a2565b6104498585858585610bbc565b5050505050565b606081518351146104b55760405162461bcd60e51b815260206004820152602960248201527f455243313135353a206163636f756e747320616e6420696473206c656e677468604482015268040dad2e6dac2e8c6d60bb1b60648201526084016102a2565b600083516001600160401b038111156104d0576104d06114fc565b6040519080825280602002602001820160405280156104f9578160200160208202803683370190505b50905060005b84518110156105715761054485828151811061051d5761051d611ac8565b602002602001015185838151811061053757610537611ac8565b602002602001015161023a565b82828151811061055657610556611ac8565b602090810291909101015261056a81611af4565b90506104ff565b509392505050565b336105826105b4565b6001600160a01b0316146105a85760405162461bcd60e51b81526004016102a290611b0d565b6105b26000610d9c565b565b6000546001600160a01b031690565b336105cc6105b4565b6001600160a01b0316146105f25760405162461bcd60e51b81526004016102a290611b0d565b6004546040516001600160a01b038b16919081907fb1dbad4fc1b884493b2082d88f9cd245432cf3caf4b0eafab4c2909d74adeaba9061063d908b908b908b908b908b908b90611b6b565b60405180910390a4600454610655908a908a8a610dec565b60046040518060e001604052808b6001600160a01b0316815260200188888080601f016020809104026020016040519081016040528093929190818152602001838380828437600092019190915250505090825250604080516020601f890181900481028201810190925287815291810191908890889081908401838280828437600092019190915250505090825250604080516020601f870181900481028201810190925285815291810191908690869081908401838280828437600092019190915250505090825250602081018b905260045460409091019061073b906001611bb4565b815260209081018a9052825460018082018555600094855293829020835160079092020180546001600160a01b0319166001600160a01b03909216919091178155828201518051939491936107989392850192919091019061136a565b50604082015180516107b491600284019160209091019061136a565b50606082015180516107d091600384019160209091019061136a565b506080820151600482015560a0820151600582015560c0820151805161080091600684019160209091019061136a565b505050505050505050505050565b610819338383610ef0565b5050565b6004818154811061082d57600080fd5b6000918252602090912060079091020180546001820180546001600160a01b0390921693509061085c90611a8e565b80601f016020809104026020016040519081016040528092919081815260200182805461088890611a8e565b80156108d55780601f106108aa576101008083540402835291602001916108d5565b820191906000526020600020905b8154815290600101906020018083116108b857829003601f168201915b5050505050908060020180546108ea90611a8e565b80601f016020809104026020016040519081016040528092919081815260200182805461091690611a8e565b80156109635780601f1061093857610100808354040283529160200191610963565b820191906000526020600020905b81548152906001019060200180831161094657829003601f168201915b50505050509080600301805461097890611a8e565b80601f01602080910402602001604051908101604052809291908181526020018280546109a490611a8e565b80156109f15780601f106109c6576101008083540402835291602001916109f1565b820191906000526020600020905b8154815290600101906020018083116109d457829003601f168201915b505050505090806004015490806005015490806006018054610a1290611a8e565b80601f0160208091040260200160405190810160405280929190818152602001828054610a3e90611a8e565b8015610a8b5780601f10610a6057610100808354040283529160200191610a8b565b820191906000526020600020905b815481529060010190602001808311610a6e57829003601f168201915b5050505050905087565b6001600160a01b038516331480610ab15750610ab185336101e6565b610b0f5760405162461bcd60e51b815260206004820152602960248201527f455243313135353a2063616c6c6572206973206e6f74206f776e6572206e6f7260448201526808185c1c1c9bdd995960ba1b60648201526084016102a2565b6104498585858585610fd0565b33610b256105b4565b6001600160a01b031614610b4b5760405162461bcd60e51b81526004016102a290611b0d565b6001600160a01b038116610bb05760405162461bcd60e51b815260206004820152602660248201527f4f776e61626c653a206e6577206f776e657220697320746865207a65726f206160448201526564647265737360d01b60648201526084016102a2565b610bb981610d9c565b50565b8151835114610c1e5760405162461bcd60e51b815260206004820152602860248201527f455243313135353a2069647320616e6420616d6f756e7473206c656e677468206044820152670dad2e6dac2e8c6d60c31b60648201526084016102a2565b6001600160a01b038416610c445760405162461bcd60e51b81526004016102a290611bcc565b3360005b8451811015610d2e576000858281518110610c6557610c65611ac8565b602002602001015190506000858381518110610c8357610c83611ac8565b60209081029190910181015160008481526001835260408082206001600160a01b038e168352909352919091205490915081811015610cd45760405162461bcd60e51b81526004016102a290611c11565b60008381526001602090815260408083206001600160a01b038e8116855292528083208585039055908b16825281208054849290610d13908490611bb4565b9250508190555050505080610d2790611af4565b9050610c48565b50846001600160a01b0316866001600160a01b0316826001600160a01b03167f4a39dc06d4c0dbc64b70af90fd698a233a518aa5d07e595d983b8c0526c8f7fb8787604051610d7e929190611c5b565b60405180910390a4610d948187878787876110ec565b505050505050565b600080546001600160a01b038381166001600160a01b0319831681178455604051919092169283917f8be0079c531659141344cd1fd0a4f28419497f9722a3daafe3b4186f6b6457e09190a35050565b6001600160a01b038416610e4c5760405162461bcd60e51b815260206004820152602160248201527f455243313135353a206d696e7420746f20746865207a65726f206164647265736044820152607360f81b60648201526084016102a2565b336000610e588561124e565b90506000610e658561124e565b905060008681526001602090815260408083206001600160a01b038b16845290915281208054879290610e99908490611bb4565b909155505060408051878152602081018790526001600160a01b03808a169260009291871691600080516020611e37833981519152910160405180910390a4610ee783600089898989611299565b50505050505050565b816001600160a01b0316836001600160a01b031603610f635760405162461bcd60e51b815260206004820152602960248201527f455243313135353a2073657474696e6720617070726f76616c20737461747573604482015268103337b91039b2b63360b91b60648201526084016102a2565b6001600160a01b03838116600081815260026020908152604080832094871680845294825291829020805460ff191686151590811790915591519182527f17307eab39ab6107e8899845ad3d59bd9653f200f220920489ca2b5937696c31910160405180910390a3505050565b6001600160a01b038416610ff65760405162461bcd60e51b81526004016102a290611bcc565b3360006110028561124e565b9050600061100f8561124e565b905060008681526001602090815260408083206001600160a01b038c168452909152902054858110156110545760405162461bcd60e51b81526004016102a290611c11565b60008781526001602090815260408083206001600160a01b038d8116855292528083208985039055908a16825281208054889290611093908490611bb4565b909155505060408051888152602081018890526001600160a01b03808b16928c82169291881691600080516020611e37833981519152910160405180910390a46110e1848a8a8a8a8a611299565b505050505050505050565b6110fe846001600160a01b031661135b565b15610d945760405163bc197c8160e01b81526001600160a01b0385169063bc197c81906111379089908990889088908890600401611c89565b6020604051808303816000875af1925050508015611172575060408051601f3d908101601f1916820190925261116f91810190611ce7565b60015b61121e5761117e611d04565b806308c379a0036111b75750611192611d20565b8061119d57506111b9565b8060405162461bcd60e51b81526004016102a291906114e9565b505b60405162461bcd60e51b815260206004820152603460248201527f455243313135353a207472616e7366657220746f206e6f6e20455243313135356044820152732932b1b2b4bb32b91034b6b83632b6b2b73a32b960611b60648201526084016102a2565b6001600160e01b0319811663bc197c8160e01b14610ee75760405162461bcd60e51b81526004016102a290611da9565b6040805160018082528183019092526060916000919060208083019080368337019050509050828160008151811061128857611288611ac8565b602090810291909101015292915050565b6112ab846001600160a01b031661135b565b15610d945760405163f23a6e6160e01b81526001600160a01b0385169063f23a6e61906112e49089908990889088908890600401611df1565b6020604051808303816000875af192505050801561131f575060408051601f3d908101601f1916820190925261131c91810190611ce7565b60015b61132b5761117e611d04565b6001600160e01b0319811663f23a6e6160e01b14610ee75760405162461bcd60e51b81526004016102a290611da9565b6001600160a01b03163b151590565b82805461137690611a8e565b90600052602060002090601f01602090048101928261139857600085556113de565b82601f106113b157805160ff19168380011785556113de565b828001600101855582156113de579182015b828111156113de5782518255916020019190600101906113c3565b506113ea9291506113ee565b5090565b5b808211156113ea57600081556001016113ef565b80356001600160a01b038116811461141a57600080fd5b919050565b6000806040838503121561143257600080fd5b61143b83611403565b946020939093013593505050565b6001600160e01b031981168114610bb957600080fd5b60006020828403121561147157600080fd5b813561147c81611449565b9392505050565b60006020828403121561149557600080fd5b5035919050565b6000815180845260005b818110156114c2576020818501810151868301820152016114a6565b818111156114d4576000602083870101525b50601f01601f19169290920160200192915050565b60208152600061147c602083018461149c565b634e487b7160e01b600052604160045260246000fd5b601f8201601f191681016001600160401b0381118282101715611537576115376114fc565b6040525050565b60006001600160401b03821115611557576115576114fc565b5060051b60200190565b600082601f83011261157257600080fd5b8135602061157f8261153e565b60405161158c8282611512565b83815260059390931b85018201928281019150868411156115ac57600080fd5b8286015b848110156115c757803583529183019183016115b0565b509695505050505050565b600082601f8301126115e357600080fd5b81356001600160401b038111156115fc576115fc6114fc565b604051611613601f8301601f191660200182611512565b81815284602083860101111561162857600080fd5b816020850160208301376000918101602001919091529392505050565b600080600080600060a0868803121561165d57600080fd5b61166686611403565b945061167460208701611403565b935060408601356001600160401b038082111561169057600080fd5b61169c89838a01611561565b945060608801359150808211156116b257600080fd5b6116be89838a01611561565b935060808801359150808211156116d457600080fd5b506116e1888289016115d2565b9150509295509295909350565b6000806040838503121561170157600080fd5b82356001600160401b038082111561171857600080fd5b818501915085601f83011261172c57600080fd5b813560206117398261153e565b6040516117468282611512565b83815260059390931b850182019282810191508984111561176657600080fd5b948201945b8386101561178b5761177c86611403565b8252948201949082019061176b565b965050860135925050808211156117a157600080fd5b506117ae85828601611561565b9150509250929050565b600081518084526020808501945080840160005b838110156117e8578151875295820195908201906001016117cc565b509495945050505050565b60208152600061147c60208301846117b8565b60008083601f84011261181857600080fd5b5081356001600160401b0381111561182f57600080fd5b60208301915083602082850101111561184757600080fd5b9250929050565b600080600080600080600080600060c08a8c03121561186c57600080fd5b6118758a611403565b985060208a0135975060408a01356001600160401b038082111561189857600080fd5b6118a48d838e016115d2565b985060608c01359150808211156118ba57600080fd5b6118c68d838e01611806565b909850965060808c01359150808211156118df57600080fd5b6118eb8d838e01611806565b909650945060a08c013591508082111561190457600080fd5b506119118c828d01611806565b915080935050809150509295985092959850929598565b6000806040838503121561193b57600080fd5b61194483611403565b91506020830135801515811461195957600080fd5b809150509250929050565b6001600160a01b038816815260e0602082018190526000906119889083018961149c565b828103604084015261199a818961149c565b905082810360608401526119ae818861149c565b90508560808401528460a084015282810360c08401526119ce818561149c565b9a9950505050505050505050565b600080604083850312156119ef57600080fd5b6119f883611403565b9150611a0660208401611403565b90509250929050565b600080600080600060a08688031215611a2757600080fd5b611a3086611403565b9450611a3e60208701611403565b9350604086013592506060860135915060808601356001600160401b03811115611a6757600080fd5b6116e1888289016115d2565b600060208284031215611a8557600080fd5b61147c82611403565b600181811c90821680611aa257607f821691505b602082108103611ac257634e487b7160e01b600052602260045260246000fd5b50919050565b634e487b7160e01b600052603260045260246000fd5b634e487b7160e01b600052601160045260246000fd5b600060018201611b0657611b06611ade565b5060010190565b6020808252818101527f4f776e61626c653a2063616c6c6572206973206e6f7420746865206f776e6572604082015260600190565b81835281816020850137506000828201602090810191909152601f909101601f19169091010190565b606081526000611b7f60608301888a611b42565b8281036020840152611b92818789611b42565b90508281036040840152611ba7818587611b42565b9998505050505050505050565b60008219821115611bc757611bc7611ade565b500190565b60208082526025908201527f455243313135353a207472616e7366657220746f20746865207a65726f206164604082015264647265737360d81b606082015260800190565b6020808252602a908201527f455243313135353a20696e73756666696369656e742062616c616e636520666f60408201526939103a3930b739b332b960b11b606082015260800190565b604081526000611c6e60408301856117b8565b8281036020840152611c8081856117b8565b95945050505050565b6001600160a01b0386811682528516602082015260a060408201819052600090611cb5908301866117b8565b8281036060840152611cc781866117b8565b90508281036080840152611cdb818561149c565b98975050505050505050565b600060208284031215611cf957600080fd5b815161147c81611449565b600060033d1115611d1d5760046000803e5060005160e01c5b90565b600060443d1015611d2e5790565b6040516003193d81016004833e81513d6001600160401b038083116024840183101715611d5d57505050505090565b8285019150815181811115611d755750505050505090565b843d8701016020828501011115611d8f5750505050505090565b611d9e60208286010187611512565b509095945050505050565b60208082526028908201527f455243313135353a204552433131353552656365697665722072656a656374656040820152676420746f6b656e7360c01b606082015260800190565b6001600160a01b03868116825285166020820152604081018490526060810183905260a060808201819052600090611e2b9083018461149c565b97965050505050505056fec3d58168c5ae7397731d063d5bbf3d657854427343f4c083240f7aacaa2d0f62a26469706673582212203ac3a0c6fe3a2903d38050729b9ea132731d2d79215416e3dbb67cc239f46e9764736f6c634300080e0033",
  "linkReferences": {},
  "deployedLinkReferences": {}
}