{
  "_format": "hh-sol-artifact-1",
  "contractName": "ERC1155MetaMintBurnPackedBalanceMock",
  "sourceName": "contracts/libs/multi-token-standard/contracts/mocks/ERC1155MetaMintBurnPackedBalanceMock.sol",
  "abi": [
    {
      "anonymous": false,
      "inputs": [
        {
          "indexed": true,
          "internalType": "address",
          "name": "_owner",
          "type": "address"
        },
        {
          "indexed": true,
          "internalType": "address",
          "name": "_operator",
          "type": "address"
        },
        {
          "indexed": false,
          "internalType": "bool",
          "name": "_approved",
          "type": "bool"
        }
      ],
      "name": "ApprovalForAll",
      "type": "event"
    },
    {
      "anonymous": false,
      "inputs": [
        {
          "indexed": true,
          "internalType": "address",
          "name": "signer",
          "type": "address"
        },
        {
          "indexed": false,
          "internalType": "uint256",
          "name": "newNonce",
          "type": "uint256"
        }
      ],
      "name": "NonceChange",
      "type": "event"
    },
    {
      "anonymous": false,
      "inputs": [
        {
          "indexed": true,
          "internalType": "address",
          "name": "_operator",
          "type": "address"
        },
        {
          "indexed": true,
          "internalType": "address",
          "name": "_from",
          "type": "address"
        },
        {
          "indexed": true,
          "internalType": "address",
          "name": "_to",
          "type": "address"
        },
        {
          "indexed": false,
          "internalType": "uint256[]",
          "name": "_ids",
          "type": "uint256[]"
        },
        {
          "indexed": false,
          "internalType": "uint256[]",
          "name": "_amounts",
          "type": "uint256[]"
        }
      ],
      "name": "TransferBatch",
      "type": "event"
    },
    {
      "anonymous": false,
      "inputs": [
        {
          "indexed": true,
          "internalType": "address",
          "name": "_operator",
          "type": "address"
        },
        {
          "indexed": true,
          "internalType": "address",
          "name": "_from",
          "type": "address"
        },
        {
          "indexed": true,
          "internalType": "address",
          "name": "_to",
          "type": "address"
        },
        {
          "indexed": false,
          "internalType": "uint256",
          "name": "_id",
          "type": "uint256"
        },
        {
          "indexed": false,
          "internalType": "uint256",
          "name": "_amount",
          "type": "uint256"
        }
      ],
      "name": "TransferSingle",
      "type": "event"
    },
    {
      "anonymous": false,
      "inputs": [
        {
          "indexed": false,
          "internalType": "string",
          "name": "_uri",
          "type": "string"
        },
        {
          "indexed": true,
          "internalType": "uint256",
          "name": "_id",
          "type": "uint256"
        }
      ],
      "name": "URI",
      "type": "event"
    },
    {
      "stateMutability": "nonpayable",
      "type": "fallback"
    },
    {
      "inputs": [
        {
          "internalType": "address",
          "name": "_owner",
          "type": "address"
        },
        {
          "internalType": "uint256",
          "name": "_id",
          "type": "uint256"
        }
      ],
      "name": "balanceOf",
      "outputs": [
        {
          "internalType": "uint256",
          "name": "",
          "type": "uint256"
        }
      ],
      "stateMutability": "view",
      "type": "function"
    },
    {
      "inputs": [
        {
          "internalType": "address[]",
          "name": "_owners",
          "type": "address[]"
        },
        {
          "internalType": "uint256[]",
          "name": "_ids",
          "type": "uint256[]"
        }
      ],
      "name": "balanceOfBatch",
      "outputs": [
        {
          "internalType": "uint256[]",
          "name": "",
          "type": "uint256[]"
        }
      ],
      "stateMutability": "view",
      "type": "function"
    },
    {
      "inputs": [
        {
          "internalType": "address",
          "name": "_from",
          "type": "address"
        },
        {
          "internalType": "uint256[]",
          "name": "_ids",
          "type": "uint256[]"
        },
        {
          "internalType": "uint256[]",
          "name": "_values",
          "type": "uint256[]"
        }
      ],
      "name": "batchBurnMock",
      "outputs": [],
      "stateMutability": "nonpayable",
      "type": "function"
    },
    {
      "inputs": [
        {
          "internalType": "address",
          "name": "_to",
          "type": "address"
        },
        {
          "internalType": "uint256[]",
          "name": "_ids",
          "type": "uint256[]"
        },
        {
          "internalType": "uint256[]",
          "name": "_values",
          "type": "uint256[]"
        },
        {
          "internalType": "bytes",
          "name": "_data",
          "type": "bytes"
        }
      ],
      "name": "batchMintMock",
      "outputs": [],
      "stateMutability": "nonpayable",
      "type": "function"
    },
    {
      "inputs": [
        {
          "internalType": "address",
          "name": "_from",
          "type": "address"
        },
        {
          "internalType": "uint256",
          "name": "_id",
          "type": "uint256"
        },
        {
          "internalType": "uint256",
          "name": "_value",
          "type": "uint256"
        }
      ],
      "name": "burnMock",
      "outputs": [],
      "stateMutability": "nonpayable",
      "type": "function"
    },
    {
      "inputs": [
        {
          "internalType": "uint256",
          "name": "_id",
          "type": "uint256"
        }
      ],
      "name": "getIDBinIndex",
      "outputs": [
        {
          "internalType": "uint256",
          "name": "bin",
          "type": "uint256"
        },
        {
          "internalType": "uint256",
          "name": "index",
          "type": "uint256"
        }
      ],
      "stateMutability": "pure",
      "type": "function"
    },
    {
      "inputs": [
        {
          "internalType": "address",
          "name": "_signer",
          "type": "address"
        }
      ],
      "name": "getNonce",
      "outputs": [
        {
          "internalType": "uint256",
          "name": "nonce",
          "type": "uint256"
        }
      ],
      "stateMutability": "view",
      "type": "function"
    },
    {
      "inputs": [
        {
          "internalType": "uint256",
          "name": "_binValues",
          "type": "uint256"
        },
        {
          "internalType": "uint256",
          "name": "_index",
          "type": "uint256"
        }
      ],
      "name": "getValueInBin",
      "outputs": [
        {
          "internalType": "uint256",
          "name": "",
          "type": "uint256"
        }
      ],
      "stateMutability": "pure",
      "type": "function"
    },
    {
      "inputs": [
        {
          "internalType": "address",
          "name": "_owner",
          "type": "address"
        },
        {
          "internalType": "address",
          "name": "_operator",
          "type": "address"
        }
      ],
      "name": "isApprovedForAll",
      "outputs": [
        {
          "internalType": "bool",
          "name": "isOperator",
          "type": "bool"
        }
      ],
      "stateMutability": "view",
      "type": "function"
    },
    {
      "inputs": [
        {
          "internalType": "address",
          "name": "_signerAddress",
          "type": "address"
        },
        {
          "internalType": "bytes32",
          "name": "_hash",
          "type": "bytes32"
        },
        {
          "internalType": "bytes",
          "name": "_data",
          "type": "bytes"
        },
        {
          "internalType": "bytes",
          "name": "_sig",
          "type": "bytes"
        }
      ],
      "name": "isValidSignature",
      "outputs": [
        {
          "internalType": "bool",
          "name": "isValid",
          "type": "bool"
        }
      ],
      "stateMutability": "view",
      "type": "function"
    },
    {
      "inputs": [
        {
          "internalType": "address",
          "name": "_from",
          "type": "address"
        },
        {
          "internalType": "address",
          "name": "_to",
          "type": "address"
        },
        {
          "internalType": "uint256[]",
          "name": "_ids",
          "type": "uint256[]"
        },
        {
          "internalType": "uint256[]",
          "name": "_amounts",
          "type": "uint256[]"
        },
        {
          "internalType": "bool",
          "name": "_isGasFee",
          "type": "bool"
        },
        {
          "internalType": "bytes",
          "name": "_data",
          "type": "bytes"
        }
      ],
      "name": "metaSafeBatchTransferFrom",
      "outputs": [],
      "stateMutability": "nonpayable",
      "type": "function"
    },
    {
      "inputs": [
        {
          "internalType": "address",
          "name": "_from",
          "type": "address"
        },
        {
          "internalType": "address",
          "name": "_to",
          "type": "address"
        },
        {
          "internalType": "uint256",
          "name": "_id",
          "type": "uint256"
        },
        {
          "internalType": "uint256",
          "name": "_amount",
          "type": "uint256"
        },
        {
          "internalType": "bool",
          "name": "_isGasFee",
          "type": "bool"
        },
        {
          "internalType": "bytes",
          "name": "_data",
          "type": "bytes"
        }
      ],
      "name": "metaSafeTransferFrom",
      "outputs": [],
      "stateMutability": "nonpayable",
      "type": "function"
    },
    {
      "inputs": [
        {
          "internalType": "address",
          "name": "_owner",
          "type": "address"
        },
        {
          "internalType": "address",
          "name": "_operator",
          "type": "address"
        },
        {
          "internalType": "bool",
          "name": "_approved",
          "type": "bool"
        },
        {
          "internalType": "bool",
          "name": "_isGasFee",
          "type": "bool"
        },
        {
          "internalType": "bytes",
          "name": "_data",
          "type": "bytes"
        }
      ],
      "name": "metaSetApprovalForAll",
      "outputs": [],
      "stateMutability": "nonpayable",
      "type": "function"
    },
    {
      "inputs": [
        {
          "internalType": "address",
          "name": "_to",
          "type": "address"
        },
        {
          "internalType": "uint256",
          "name": "_id",
          "type": "uint256"
        },
        {
          "internalType": "uint256",
          "name": "_value",
          "type": "uint256"
        },
        {
          "internalType": "bytes",
          "name": "_data",
          "type": "bytes"
        }
      ],
      "name": "mintMock",
      "outputs": [],
      "stateMutability": "nonpayable",
      "type": "function"
    },
    {
      "inputs": [
        {
          "internalType": "address",
          "name": "_from",
          "type": "address"
        },
        {
          "internalType": "address",
          "name": "_to",
          "type": "address"
        },
        {
          "internalType": "uint256[]",
          "name": "_ids",
          "type": "uint256[]"
        },
        {
          "internalType": "uint256[]",
          "name": "_amounts",
          "type": "uint256[]"
        },
        {
          "internalType": "bytes",
          "name": "_data",
          "type": "bytes"
        }
      ],
      "name": "safeBatchTransferFrom",
      "outputs": [],
      "stateMutability": "nonpayable",
      "type": "function"
    },
    {
      "inputs": [
        {
          "internalType": "address",
          "name": "_from",
          "type": "address"
        },
        {
          "internalType": "address",
          "name": "_to",
          "type": "address"
        },
        {
          "internalType": "uint256",
          "name": "_id",
          "type": "uint256"
        },
        {
          "internalType": "uint256",
          "name": "_amount",
          "type": "uint256"
        },
        {
          "internalType": "bytes",
          "name": "_data",
          "type": "bytes"
        }
      ],
      "name": "safeTransferFrom",
      "outputs": [],
      "stateMutability": "nonpayable",
      "type": "function"
    },
    {
      "inputs": [
        {
          "internalType": "address",
          "name": "_operator",
          "type": "address"
        },
        {
          "internalType": "bool",
          "name": "_approved",
          "type": "bool"
        }
      ],
      "name": "setApprovalForAll",
      "outputs": [],
      "stateMutability": "nonpayable",
      "type": "function"
    },
    {
      "inputs": [
        {
          "internalType": "bytes4",
          "name": "_interfaceID",
          "type": "bytes4"
        }
      ],
      "name": "supportsInterface",
      "outputs": [
        {
          "internalType": "bool",
          "name": "",
          "type": "bool"
        }
      ],
      "stateMutability": "pure",
      "type": "function"
    },
    {
      "inputs": [
        {
          "internalType": "uint256",
          "name": "_id",
          "type": "uint256"
        }
      ],
      "name": "uri",
      "outputs": [
        {
          "internalType": "string",
          "name": "",
          "type": "string"
        }
      ],
      "stateMutability": "view",
      "type": "function"
    }
  ],
  "bytecode": "0x608060405234801561001057600080fd5b50615665806100206000396000f3fe608060405234801561001057600080fd5b50600436106101245760003560e01c8063a3f091f5116100ad578063e985e9c511610071578063e985e9c514610361578063eaec5f8114610391578063f242432a146103c1578063f5d4c820146103dd578063fa4e12d7146103f957610125565b8063a3f091f5146102c0578063bd7a6c41146102dc578063ce0b514b146102f8578063d7a0ad9014610314578063db90e83c1461033057610125565b80632eb2c2d6116100f45780632eb2c2d614610220578063437ecbe91461023c5780634e1273f414610258578063a22cb46514610288578063a3d4926e146102a457610125565b8062fdd58e1461016057806301ffc9a7146101905780630e89341c146101c05780632d0335ab146101f057610125565b5b6040517f08c379a000000000000000000000000000000000000000000000000000000000815260040161015790614e27565b60405180910390fd5b61017a600480360381019061017591906142b5565b610429565b6040516101879190614e47565b60405180910390f35b6101aa60048036038101906101a59190614450565b6104a2565b6040516101b79190614c15565b60405180910390f35b6101da60048036038101906101d59190614592565b6104b4565b6040516101e79190614d45565b60405180910390f35b61020a60048036038101906102059190613ca3565b6105b4565b6040516102179190614e47565b60405180910390f35b61023a60048036038101906102359190613e3e565b6105fd565b005b610256600480360381019061025191906142f1565b610739565b005b610272600480360381019061026d91906143bb565b610749565b60405161027f9190614bf3565b60405180910390f35b6102a2600480360381019061029d91906141e6565b6109ed565b005b6102be60048036038101906102b99190613d6d565b610aec565b005b6102da60048036038101906102d59190614340565b610c84565b005b6102f660048036038101906102f191906140bc565b610c96565b005b610312600480360381019061030d9190613f8c565b610ca6565b005b61032e6004803603810190610329919061413b565b610df2565b005b61034a60048036038101906103459190614592565b610e04565b604051610358929190614e62565b60405180910390f35b61037b60048036038101906103769190613d31565b610e3c565b6040516103889190614c15565b60405180910390f35b6103ab60048036038101906103a691906145bb565b610ed0565b6040516103b89190614e47565b60405180910390f35b6103db60048036038101906103d6919061402d565b610ef6565b005b6103f760048036038101906103f29190613efd565b611032565b005b610413600480360381019061040e9190614222565b6111d2565b6040516104209190614c15565b60405180910390f35b600080600061043784610e04565b80925081935050506104986000808773ffffffffffffffffffffffffffffffffffffffff1673ffffffffffffffffffffffffffffffffffffffff16815260200190815260200160002060008481526020019081526020016000205482610ed0565b9250505092915050565b60006104ad82611a61565b9050919050565b606060036104c183611ae3565b604051602001808380546001816001161561010002031660029004801561051f5780601f106104fd57610100808354040283529182019161051f565b820191906000526020600020905b81548152906001019060200180831161050b575b505082805190602001908083835b60208310610550578051825260208201915060208101905060208303925061052d565b6001836020036101000a038019825116818451168082178552505050505050905001807f2e6a736f6e000000000000000000000000000000000000000000000000000000815250600501925050506040516020818303038152906040529050919050565b6000600260008373ffffffffffffffffffffffffffffffffffffffff1673ffffffffffffffffffffffffffffffffffffffff168152602001908152602001600020549050919050565b8473ffffffffffffffffffffffffffffffffffffffff163373ffffffffffffffffffffffffffffffffffffffff16148061063d575061063c8533610e3c565b5b610692576040517f08c379a000000000000000000000000000000000000000000000000000000000815260040180806020018281038252603c81526020018061539b603c913960400191505060405180910390fd5b600073ffffffffffffffffffffffffffffffffffffffff168473ffffffffffffffffffffffffffffffffffffffff161415610718576040517f08c379a000000000000000000000000000000000000000000000000000000000815260040180806020018281038252603d815260200180615188603d913960400191505060405180910390fd5b61072485858585611c2d565b610732858585855a8661221b565b5050505050565b6107448383836124ad565b505050565b6060600083519050825181146107aa576040517f08c379a000000000000000000000000000000000000000000000000000000000815260040180806020018281038252603981526020018061514f6039913960400191505060405180910390fd5b6000806107ca856000815181106107bd57fe5b6020026020010151610e04565b915091506000806000886000815181106107e057fe5b602002602001015173ffffffffffffffffffffffffffffffffffffffff1673ffffffffffffffffffffffffffffffffffffffff1681526020019081526020016000206000848152602001908152602001600020549050600083905060008567ffffffffffffffff8111801561085457600080fd5b506040519080825280602002602001820160405280156108835781602001602082028036833780820191505090505b5090506108908385610ed0565b8160008151811061089d57fe5b6020026020010181815250506000600190505b868110156109dd576108d48982815181106108c757fe5b6020026020010151610e04565b8096508197505050828614158061094057508981815181106108f257fe5b602002602001015173ffffffffffffffffffffffffffffffffffffffff168a600183038151811061091f57fe5b602002602001015173ffffffffffffffffffffffffffffffffffffffff1614155b156109ae576000808b838151811061095457fe5b602002602001015173ffffffffffffffffffffffffffffffffffffffff1673ffffffffffffffffffffffffffffffffffffffff16815260200190815260200160002060008781526020019081526020016000205493508592505b6109b88486610ed0565b8282815181106109c457fe5b60200260200101818152505080806001019150506108b0565b5080965050505050505092915050565b80600160003373ffffffffffffffffffffffffffffffffffffffff1673ffffffffffffffffffffffffffffffffffffffff16815260200190815260200160002060008473ffffffffffffffffffffffffffffffffffffffff1673ffffffffffffffffffffffffffffffffffffffff16815260200190815260200160002060006101000a81548160ff0219169083151502179055508173ffffffffffffffffffffffffffffffffffffffff163373ffffffffffffffffffffffffffffffffffffffff167f17307eab39ab6107e8899845ad3d59bd9653f200f220920489ca2b5937696c318360405180821515815260200191505060405180910390a35050565b600073ffffffffffffffffffffffffffffffffffffffff168573ffffffffffffffffffffffffffffffffffffffff161415610b5c576040517f08c379a0000000000000000000000000000000000000000000000000000000008152600401610b5390614de7565b60405180910390fd5b6060610b66613920565b6000610c1989857fa3d4926e8cf8fe8e020cd29f514c256bc2eec62aa2337e415f1a33a4828af5a060001b8c8c8c604051602001610ba49190614adf565b604051602081830303815290604052805190602001208c604051602001610bcb9190614adf565b604051602081830303815290604052805190602001208c610bed576000610bf0565b60015b604051602001610c0596959493929190614c30565b604051602081830303815290604052612544565b9050610c2789898989611c2d565b8415610c6a5780806020019051810190610c419190614526565b8094508193505050610c5b8989898986602001518861221b565b610c658983612768565b610c79565b610c78898989895a8661221b565b5b505050505050505050565b610c9084848484612a40565b50505050565b610ca1838383612ae7565b505050565b600073ffffffffffffffffffffffffffffffffffffffff168573ffffffffffffffffffffffffffffffffffffffff161415610d16576040517f08c379a0000000000000000000000000000000000000000000000000000000008152600401610d0d90614dc7565b60405180910390fd5b6060610d20613920565b6000610d8789857fce0b514b3931bdbe4d5d44e4f035afe7113767b7db71949271f6a62d9c60f55860001b8c8c8c8c8c610d5b576000610d5e565b60015b604051602001610d7396959493929190614ce4565b604051602081830303815290604052612544565b9050610d9589898989612c9f565b8415610dd85780806020019051810190610daf9190614526565b8094508193505050610dc989898989866020015188612d43565b610dd38983612768565b610de7565b610de6898989895a86612d43565b5b505050505050505050565b610dfe84848484612f53565b50505050565b600080602061010081610e1357fe5b048381610e1c57fe5b049150602061010081610e2b57fe5b048381610e3457fe5b069050915091565b6000600160008473ffffffffffffffffffffffffffffffffffffffff1673ffffffffffffffffffffffffffffffffffffffff16815260200190815260200160002060008373ffffffffffffffffffffffffffffffffffffffff1673ffffffffffffffffffffffffffffffffffffffff16815260200190815260200160002060009054906101000a900460ff16905092915050565b600080600160206001901b0390506000836020029050818186901c169250505092915050565b8473ffffffffffffffffffffffffffffffffffffffff163373ffffffffffffffffffffffffffffffffffffffff161480610f365750610f358533610e3c565b5b610f8b576040517f08c379a00000000000000000000000000000000000000000000000000000000081526004018080602001828103825260378152602001806152696037913960400191505060405180910390fd5b600073ffffffffffffffffffffffffffffffffffffffff168473ffffffffffffffffffffffffffffffffffffffff161415611011576040517f08c379a00000000000000000000000000000000000000000000000000000000081526004018080602001828103825260388152602001806155076038913960400191505060405180910390fd5b61101d85858585612c9f565b61102b858585855a86612d43565b5050505050565b60006110a586837ff5d4c820494c8595de274c7ff619bead38aac4fbc3d143b5bf956aa4b84fa52460001b89898961106b57600061106e565b60015b8961107a57600061107d565b60015b604051602001611091959493929190614c91565b604051602081830303815290604052612544565b905083600160008873ffffffffffffffffffffffffffffffffffffffff1673ffffffffffffffffffffffffffffffffffffffff16815260200190815260200160002060008773ffffffffffffffffffffffffffffffffffffffff1673ffffffffffffffffffffffffffffffffffffffff16815260200190815260200160002060006101000a81548160ff0219169083151502179055508473ffffffffffffffffffffffffffffffffffffffff168673ffffffffffffffffffffffffffffffffffffffff167f17307eab39ab6107e8899845ad3d59bd9653f200f220920489ca2b5937696c31866040516111989190614c15565b60405180910390a382156111ca576000818060200190518101906111bc91906144e5565b90506111c88782612768565b505b505050505050565b60008082511161122d576040517f08c379a00000000000000000000000000000000000000000000000000000000081526004018080602001828103825260438152602001806154c46043913960600191505060405180910390fd5b600073ffffffffffffffffffffffffffffffffffffffff168573ffffffffffffffffffffffffffffffffffffffff1614156112b3576040517f08c379a000000000000000000000000000000000000000000000000000000000815260040180806020018281038252603381526020018061544a6033913960400191505060405180910390fd5b60006112be836132e4565b60f81c90506005808111156112cf57fe5b60ff168160ff161061132c576040517f08c379a000000000000000000000000000000000000000000000000000000000815260040180806020018281038252603a81526020018061522f603a913960400191505060405180910390fd5b60008160ff16600581111561133d57fe5b90506000806000806000600581111561135257fe5b85600581111561135e57fe5b14156113b5576040517f08c379a00000000000000000000000000000000000000000000000000000000081526004018080602001828103825260368152602001806152a06036913960400191505060405180910390fd5b600160058111156113c257fe5b8560058111156113ce57fe5b141561151957606188511461142e576040517f08c379a00000000000000000000000000000000000000000000000000000000081526004018080602001828103825260378152602001806153646037913960400191505060405180910390fd5b61144260008961336a90919063ffffffff16565b925061145860208961336a90919063ffffffff16565b91508760408151811061146757fe5b602001015160f81c60f81b60f81c935060018a85858560405160008152602001604052604051808581526020018460ff1681526020018381526020018281526020019450505050506020604051602081039080840390855afa1580156114d1573d6000803e3d6000fd5b5050506020604051035190508073ffffffffffffffffffffffffffffffffffffffff168b73ffffffffffffffffffffffffffffffffffffffff16149650505050505050611a59565b6002600581111561152657fe5b85600581111561153257fe5b14156116cb576061885114611592576040517f08c379a00000000000000000000000000000000000000000000000000000000081526004018080602001828103825260378152602001806153646037913960400191505060405180910390fd5b6115a660008961336a90919063ffffffff16565b92506115bc60208961336a90919063ffffffff16565b9150876040815181106115cb57fe5b602001015160f81c60f81b60f81c935060018a60405160200180807f19457468657265756d205369676e6564204d6573736167653a0a333200000000815250601c018281526020019150506040516020818303038152906040528051906020012085858560405160008152602001604052604051808581526020018460ff1681526020018381526020018281526020019450505050506020604051602081039080840390855afa158015611683573d6000803e3d6000fd5b5050506020604051035190508073ffffffffffffffffffffffffffffffffffffffff168b73ffffffffffffffffffffffffffffffffffffffff16149650505050505050611a59565b600360058111156116d857fe5b8560058111156116e457fe5b141561189c578a73ffffffffffffffffffffffffffffffffffffffff166320c13b0b8a8a6040518363ffffffff1660e01b8152600401808060200180602001838103835285818151815260200191508051906020019080838360005b8381101561175b578082015181840152602081019050611740565b50505050905090810190601f1680156117885780820380516001836020036101000a031916815260200191505b50838103825284818151815260200191508051906020019080838360005b838110156117c15780820151818401526020810190506117a6565b50505050905090810190601f1680156117ee5780820380516001836020036101000a031916815260200191505b5094505050505060206040518083038186803b15801561180d57600080fd5b505afa158015611821573d6000803e3d6000fd5b505050506040513d602081101561183757600080fd5b81019080805190602001909291905050507bffffffffffffffffffffffffffffffffffffffffffffffffffffffff19166320c13b0b60e01b7bffffffffffffffffffffffffffffffffffffffffffffffffffffffff1916149650505050505050611a59565b600460058111156118a957fe5b8560058111156118b557fe5b1415611a08578a73ffffffffffffffffffffffffffffffffffffffff16631626ba7e8b8a6040518363ffffffff1660e01b81526004018083815260200180602001828103825283818151815260200191508051906020019080838360005b8381101561192e578082015181840152602081019050611913565b50505050905090810190601f16801561195b5780820380516001836020036101000a031916815260200191505b50935050505060206040518083038186803b15801561197957600080fd5b505afa15801561198d573d6000803e3d6000fd5b505050506040513d60208110156119a357600080fd5b81019080805190602001909291905050507bffffffffffffffffffffffffffffffffffffffffffffffffffffffff1916631626ba7e60e01b7bffffffffffffffffffffffffffffffffffffffffffffffffffffffff1916149650505050505050611a59565b6040517f08c379a000000000000000000000000000000000000000000000000000000000815260040180806020018281038252603a81526020018061522f603a913960400191505060405180910390fd5b949350505050565b60007f0e89341c000000000000000000000000000000000000000000000000000000007bffffffffffffffffffffffffffffffffffffffffffffffffffffffff1916827bffffffffffffffffffffffffffffffffffffffffffffffffffffffff19161415611ad25760019050611ade565b611adb826133db565b90505b919050565b60606000821415611b2b576040518060400160405280600181526020017f30000000000000000000000000000000000000000000000000000000000000008152509050611c28565b6000829050600083905060005b60008314611b5a578080600101915050600a8381611b5257fe5b049250611b38565b60008167ffffffffffffffff81118015611b7357600080fd5b506040519080825280601f01601f191660200182016040528015611ba65781602001600182028036833780820191505090505b50905060006001830390505b60008414611c1f57600a8481611bc457fe5b0660300160f81b82828060019003935081518110611bde57fe5b60200101907effffffffffffffffffffffffffffffffffffffffffffffffffffffffffffff1916908160001a905350600a8481611c1757fe5b049350611bb2565b81955050505050505b919050565b60008251905081518114611c8c576040517f08c379a00000000000000000000000000000000000000000000000000000000081526004018080602001828103825260428152602001806152d66042913960600191505060405180910390fd5b8373ffffffffffffffffffffffffffffffffffffffff168573ffffffffffffffffffffffffffffffffffffffff1614158015611cc85750600081115b1561206c57600080611ced85600081518110611ce057fe5b6020026020010151610e04565b915091506000611d636000808a73ffffffffffffffffffffffffffffffffffffffff1673ffffffffffffffffffffffffffffffffffffffff1681526020019081526020016000206000858152602001908152602001600020548387600081518110611d5457fe5b6020026020010151600161345d565b90506000611dd76000808a73ffffffffffffffffffffffffffffffffffffffff1673ffffffffffffffffffffffffffffffffffffffff1681526020019081526020016000206000868152602001908152602001600020548488600081518110611dc857fe5b6020026020010151600061345d565b905060008490506000600190505b86811015611fb957611e09898281518110611dfc57fe5b6020026020010151610e04565b8096508197505050818614611f6857836000808d73ffffffffffffffffffffffffffffffffffffffff1673ffffffffffffffffffffffffffffffffffffffff168152602001908152602001600020600084815260200190815260200160002081905550826000808c73ffffffffffffffffffffffffffffffffffffffff1673ffffffffffffffffffffffffffffffffffffffff1681526020019081526020016000206000848152602001908152602001600020819055506000808c73ffffffffffffffffffffffffffffffffffffffff1673ffffffffffffffffffffffffffffffffffffffff16815260200190815260200160002060008781526020019081526020016000205493506000808b73ffffffffffffffffffffffffffffffffffffffff1673ffffffffffffffffffffffffffffffffffffffff16815260200190815260200160002060008781526020019081526020016000205492508591505b611f8884868a8481518110611f7957fe5b6020026020010151600161345d565b9350611faa83868a8481518110611f9b57fe5b6020026020010151600061345d565b92508080600101915050611de5565b50826000808c73ffffffffffffffffffffffffffffffffffffffff1673ffffffffffffffffffffffffffffffffffffffff168152602001908152602001600020600087815260200190815260200160002081905550816000808b73ffffffffffffffffffffffffffffffffffffffff1673ffffffffffffffffffffffffffffffffffffffff168152602001908152602001600020600087815260200190815260200160002081905550505050505061210e565b60005b8181101561210c5782818151811061208357fe5b60200260200101516120a88786848151811061209b57fe5b6020026020010151610429565b10156120ff576040517f08c379a00000000000000000000000000000000000000000000000000000000081526004018080602001828103825260368152602001806154146036913960400191505060405180910390fd5b808060010191505061206f565b505b8373ffffffffffffffffffffffffffffffffffffffff168573ffffffffffffffffffffffffffffffffffffffff163373ffffffffffffffffffffffffffffffffffffffff167f4a39dc06d4c0dbc64b70af90fd698a233a518aa5d07e595d983b8c0526c8f7fb8686604051808060200180602001838103835285818151815260200191508051906020019060200280838360005b838110156121bd5780820151818401526020810190506121a2565b50505050905001838103825284818151815260200191508051906020019060200280838360005b838110156121ff5780820151818401526020810190506121e4565b5050505090500194505050505060405180910390a45050505050565b61223a8573ffffffffffffffffffffffffffffffffffffffff16613699565b156124a55760008573ffffffffffffffffffffffffffffffffffffffff1663bc197c8184338a8989886040518763ffffffff1660e01b8152600401808673ffffffffffffffffffffffffffffffffffffffff1681526020018573ffffffffffffffffffffffffffffffffffffffff168152602001806020018060200180602001848103845287818151815260200191508051906020019060200280838360005b838110156122f55780820151818401526020810190506122da565b50505050905001848103835286818151815260200191508051906020019060200280838360005b8381101561233757808201518184015260208101905061231c565b50505050905001848103825285818151815260200191508051906020019080838360005b8381101561237657808201518184015260208101905061235b565b50505050905090810190601f1680156123a35780820380516001836020036101000a031916815260200191505b5098505050505050505050602060405180830381600088803b1580156123c857600080fd5b5087f11580156123dc573d6000803e3d6000fd5b50505050506040513d60208110156123f357600080fd5b8101908080519060200190929190505050905063bc197c8160e01b7bffffffffffffffffffffffffffffffffffffffffffffffffffffffff1916817bffffffffffffffffffffffffffffffffffffffffffffffffffffffff1916146124a3576040517f08c379a000000000000000000000000000000000000000000000000000000000815260040180806020018281038252604c815260200180615318604c913960600191505060405180910390fd5b505b505050505050565b6124ba83838360016136de565b600073ffffffffffffffffffffffffffffffffffffffff168373ffffffffffffffffffffffffffffffffffffffff163373ffffffffffffffffffffffffffffffffffffffff167fc3d58168c5ae7397731d063d5bbf3d657854427343f4c083240f7aacaa2d0f628585604051808381526020018281526020019250505060405180910390a4505050565b6060808380602001905181019061255b9190614479565b80935081925050506000600260008773ffffffffffffffffffffffffffffffffffffffff1673ffffffffffffffffffffffffffffffffffffffff16815260200190815260200160002054905060006125bd60418461336a90919063ffffffff16565b60001c90508181101580156125d457506064820181105b612613576040517f08c379a000000000000000000000000000000000000000000000000000000000815260040161260a90614d87565b60405180910390fd5b600061264f8683878051906020012060405160200161263493929190614af6565b604051602081830303815290604052805190602001206137a8565b9050600086838760405160200161266893929190614b2f565b604051602081830303815290604052905060018301600260008b73ffffffffffffffffffffffffffffffffffffffff1673ffffffffffffffffffffffffffffffffffffffff168152602001908152602001600020819055508873ffffffffffffffffffffffffffffffffffffffff167fb861b7bdbe611a846ab271b8d2810391bc8b5a968f390c322438ecab66bccf59600185016040516127099190614e47565b60405180910390a261271d898383886111d2565b61275c576040517f08c379a000000000000000000000000000000000000000000000000000000000815260040161275390614da7565b60405180910390fd5b50505050509392505050565b600061277782606001516132e4565b60f81c905060028081111561278857fe5b60ff168160ff16106127cf576040517f08c379a00000000000000000000000000000000000000000000000000000000081526004016127c690614e07565b60405180910390fd5b60008160ff1660028111156127e057fe5b905060008060008086600001519050600073ffffffffffffffffffffffffffffffffffffffff16876040015173ffffffffffffffffffffffffffffffffffffffff1614612831578660400151612833565b335b92506000600281111561284257fe5b85600281111561284e57fe5b141561294d57866060015180602001905181019061286c9190613cf5565b80935081955050503073ffffffffffffffffffffffffffffffffffffffff168473ffffffffffffffffffffffffffffffffffffffff1614156128d6576128b488848484612c9f565b6128d18884845a8560405180602001604052806000815250612d43565b612948565b8373ffffffffffffffffffffffffffffffffffffffff1663f242432a898585856040518563ffffffff1660e01b81526004016129159493929190614b9b565b600060405180830381600087803b15801561292f57600080fd5b505af1158015612943573d6000803e3d6000fd5b505050505b612a36565b86606001518060200190518101906129659190613ccc565b93508373ffffffffffffffffffffffffffffffffffffffff166323b872dd8985846040518463ffffffff1660e01b81526004016129a493929190614b64565b602060405180830381600087803b1580156129be57600080fd5b505af11580156129d2573d6000803e3d6000fd5b505050506040513d601f19601f820116820180604052508101906129f69190614427565b612a35576040517f08c379a0000000000000000000000000000000000000000000000000000000008152600401612a2c90614d67565b60405180910390fd5b5b5050505050505050565b612a4d84848460006136de565b8373ffffffffffffffffffffffffffffffffffffffff16600073ffffffffffffffffffffffffffffffffffffffff163373ffffffffffffffffffffffffffffffffffffffff167fc3d58168c5ae7397731d063d5bbf3d657854427343f4c083240f7aacaa2d0f628686604051808381526020018281526020019250505060405180910390a4612ae160008585855a86612d43565b50505050565b60008251905081518114612b46576040517f08c379a000000000000000000000000000000000000000000000000000000000815260040180806020018281038252603d8152602001806153d7603d913960400191505060405180910390fd5b60005b81811015612b9157612b8485858381518110612b6157fe5b6020026020010151858481518110612b7557fe5b602002602001015160016136de565b8080600101915050612b49565b50600073ffffffffffffffffffffffffffffffffffffffff168473ffffffffffffffffffffffffffffffffffffffff163373ffffffffffffffffffffffffffffffffffffffff167f4a39dc06d4c0dbc64b70af90fd698a233a518aa5d07e595d983b8c0526c8f7fb8686604051808060200180602001838103835285818151815260200191508051906020019060200280838360005b83811015612c42578082015181840152602081019050612c27565b50505050905001838103825284818151815260200191508051906020019060200280838360005b83811015612c84578082015181840152602081019050612c69565b5050505090500194505050505060405180910390a450505050565b612cac84838360016136de565b612cb983838360006136de565b8273ffffffffffffffffffffffffffffffffffffffff168473ffffffffffffffffffffffffffffffffffffffff163373ffffffffffffffffffffffffffffffffffffffff167fc3d58168c5ae7397731d063d5bbf3d657854427343f4c083240f7aacaa2d0f628585604051808381526020018281526020019250505060405180910390a450505050565b612d628573ffffffffffffffffffffffffffffffffffffffff16613699565b15612f4b5760008573ffffffffffffffffffffffffffffffffffffffff1663f23a6e6184338a8989886040518763ffffffff1660e01b8152600401808673ffffffffffffffffffffffffffffffffffffffff1681526020018573ffffffffffffffffffffffffffffffffffffffff16815260200184815260200183815260200180602001828103825283818151815260200191508051906020019080838360005b83811015612e1e578082015181840152602081019050612e03565b50505050905090810190601f168015612e4b5780820380516001836020036101000a031916815260200191505b509650505050505050602060405180830381600088803b158015612e6e57600080fd5b5087f1158015612e82573d6000803e3d6000fd5b50505050506040513d6020811015612e9957600080fd5b8101908080519060200190929190505050905063f23a6e6160e01b7bffffffffffffffffffffffffffffffffffffffffffffffffffffffff1916817bffffffffffffffffffffffffffffffffffffffffffffffffffffffff191614612f49576040517f08c379a000000000000000000000000000000000000000000000000000000000815260040180806020018281038252604781526020018061547d6047913960600191505060405180910390fd5b505b505050505050565b8151835114612fad576040517f08c379a000000000000000000000000000000000000000000000000000000000815260040180806020018281038252603e8152602001806155c0603e913960400191505060405180910390fd5b6000835111156131c857600080612fd785600081518110612fca57fe5b6020026020010151610e04565b91509150600061304d6000808973ffffffffffffffffffffffffffffffffffffffff1673ffffffffffffffffffffffffffffffffffffffff168152602001908152602001600020600085815260200190815260200160002054838760008151811061303e57fe5b6020026020010151600061345d565b905060008651905060008490506000600190505b8281101561316d5761308589828151811061307857fe5b6020026020010151610e04565b809650819750505081861461313e57836000808c73ffffffffffffffffffffffffffffffffffffffff1673ffffffffffffffffffffffffffffffffffffffff1681526020019081526020016000206000848152602001908152602001600020819055506000808b73ffffffffffffffffffffffffffffffffffffffff1673ffffffffffffffffffffffffffffffffffffffff16815260200190815260200160002060008781526020019081526020016000205493508591505b61315e84868a848151811061314f57fe5b6020026020010151600061345d565b93508080600101915050613061565b50826000808b73ffffffffffffffffffffffffffffffffffffffff1673ffffffffffffffffffffffffffffffffffffffff16815260200190815260200160002060008781526020019081526020016000208190555050505050505b8373ffffffffffffffffffffffffffffffffffffffff16600073ffffffffffffffffffffffffffffffffffffffff163373ffffffffffffffffffffffffffffffffffffffff167f4a39dc06d4c0dbc64b70af90fd698a233a518aa5d07e595d983b8c0526c8f7fb8686604051808060200180602001838103835285818151815260200191508051906020019060200280838360005b8381101561327857808201518184015260208101905061325d565b50505050905001838103825284818151815260200191508051906020019060200280838360005b838110156132ba57808201518184015260208101905061329f565b5050505090500194505050505060405180910390a46132de60008585855a8661221b565b50505050565b60008082511161333f576040517f08c379a00000000000000000000000000000000000000000000000000000000081526004018080602001828103825260378152602001806151c56037913960400191505060405180910390fd5b8160018351038151811061334f57fe5b602001015160f81c60f81b9050600182510380835250919050565b600060208201835110156133c9576040517f08c379a000000000000000000000000000000000000000000000000000000000815260040180806020018281038252603c81526020018061553f603c913960400191505060405180910390fd5b60208201915081830151905092915050565b60007fd9b67a26000000000000000000000000000000000000000000000000000000007bffffffffffffffffffffffffffffffffffffffffffffffffffffffff1916827bffffffffffffffffffffffffffffffffffffffffffffffffffffffff1916141561344c5760019050613458565b613455826138cf565b90505b919050565b6000808460200290506000600160206001901b0390506000600181111561348057fe5b84600181111561348c57fe5b141561355b578185901b87019250868310156134f3576040517f08c379a00000000000000000000000000000000000000000000000000000000081526004018080602001828103825260328152602001806155fe6032913960400191505060405180910390fd5b602060020a8582848a901c160110613556576040517f08c379a00000000000000000000000000000000000000000000000000000000081526004018080602001828103825260328152602001806155fe6032913960400191505060405180910390fd5b61368f565b60018081111561356757fe5b84600181111561357357fe5b141561363d578185901b87039250868311156135da576040517f08c379a00000000000000000000000000000000000000000000000000000000081526004018080602001828103825260338152602001806151fc6033913960400191505060405180910390fd5b84818389901c161015613638576040517f08c379a00000000000000000000000000000000000000000000000000000000081526004018080602001828103825260338152602001806151fc6033913960400191505060405180910390fd5b61368e565b6040517f08c379a000000000000000000000000000000000000000000000000000000000815260040180806020018281038252604581526020018061557b6045913960600191505060405180910390fd5b5b5050949350505050565b600080823f90506000801b81141580156136d657507fc5d2460186f7233c927e7db2dcc703c0e500b653ca82273b7bfad8045d85a47060001b8114155b915050919050565b6000806136ea85610e04565b809250819350505061374d6000808873ffffffffffffffffffffffffffffffffffffffff1673ffffffffffffffffffffffffffffffffffffffff16815260200190815260200160002060008481526020019081526020016000205482868661345d565b6000808873ffffffffffffffffffffffffffffffffffffffff1673ffffffffffffffffffffffffffffffffffffffff168152602001908152602001600020600084815260200190815260200160002081905550505050505050565b60006040518060400160405280600281526020017f19010000000000000000000000000000000000000000000000000000000000008152507f035aff83d86937d35b32e04f0ddc6ff469290eef2f1b692d8a815c89404d474960001b30604051602001808381526020018273ffffffffffffffffffffffffffffffffffffffff1681526020019250505060405160208183030381529060405280519060200120836040516020018084805190602001908083835b6020831061387f578051825260208201915060208101905060208303925061385c565b6001836020036101000a0380198251168184511680821785525050505050509050018381526020018281526020019350505050604051602081830303815290604052805190602001209050919050565b60006301ffc9a760e01b7bffffffffffffffffffffffffffffffffffffffffffffffffffffffff1916827bffffffffffffffffffffffffffffffffffffffffffffffffffffffff1916149050919050565b60405180608001604052806000815260200160008152602001600073ffffffffffffffffffffffffffffffffffffffff168152602001606081525090565b600061397161396c84614ebc565b614e8b565b9050808382526020820190508285602086028201111561399057600080fd5b60005b858110156139c057816139a68882613ab2565b845260208401935060208301925050600181019050613993565b5050509392505050565b60006139dd6139d884614ee8565b614e8b565b905080838252602082019050828560208602820111156139fc57600080fd5b60005b85811015613a2c5781613a128882613c79565b8452602084019350602083019250506001810190506139ff565b5050509392505050565b6000613a49613a4484614f14565b614e8b565b905082815260208101848484011115613a6157600080fd5b613a6c84828561505b565b509392505050565b6000613a87613a8284614f14565b614e8b565b905082815260208101848484011115613a9f57600080fd5b613aaa84828561506a565b509392505050565b600081359050613ac1816150c4565b92915050565b600081519050613ad6816150c4565b92915050565b600081519050613aeb816150db565b92915050565b600082601f830112613b0257600080fd5b8135613b1284826020860161395e565b91505092915050565b600082601f830112613b2c57600080fd5b8135613b3c8482602086016139ca565b91505092915050565b600081359050613b54816150f2565b92915050565b600081519050613b69816150f2565b92915050565b600081359050613b7e81615109565b92915050565b600081359050613b9381615120565b92915050565b600082601f830112613baa57600080fd5b8135613bba848260208601613a36565b91505092915050565b600082601f830112613bd457600080fd5b8151613be4848260208601613a74565b91505092915050565b600060808284031215613bff57600080fd5b613c096080614e8b565b90506000613c1984828501613c8e565b6000830152506020613c2d84828501613c8e565b6020830152506040613c4184828501613ac7565b604083015250606082015167ffffffffffffffff811115613c6157600080fd5b613c6d84828501613bc3565b60608301525092915050565b600081359050613c8881615137565b92915050565b600081519050613c9d81615137565b92915050565b600060208284031215613cb557600080fd5b6000613cc384828501613ab2565b91505092915050565b600060208284031215613cde57600080fd5b6000613cec84828501613adc565b91505092915050565b60008060408385031215613d0857600080fd5b6000613d1685828601613adc565b9250506020613d2785828601613c8e565b9150509250929050565b60008060408385031215613d4457600080fd5b6000613d5285828601613ab2565b9250506020613d6385828601613ab2565b9150509250929050565b60008060008060008060c08789031215613d8657600080fd5b6000613d9489828a01613ab2565b9650506020613da589828a01613ab2565b955050604087013567ffffffffffffffff811115613dc257600080fd5b613dce89828a01613b1b565b945050606087013567ffffffffffffffff811115613deb57600080fd5b613df789828a01613b1b565b9350506080613e0889828a01613b45565b92505060a087013567ffffffffffffffff811115613e2557600080fd5b613e3189828a01613b99565b9150509295509295509295565b600080600080600060a08688031215613e5657600080fd5b6000613e6488828901613ab2565b9550506020613e7588828901613ab2565b945050604086013567ffffffffffffffff811115613e9257600080fd5b613e9e88828901613b1b565b935050606086013567ffffffffffffffff811115613ebb57600080fd5b613ec788828901613b1b565b925050608086013567ffffffffffffffff811115613ee457600080fd5b613ef088828901613b99565b9150509295509295909350565b600080600080600060a08688031215613f1557600080fd5b6000613f2388828901613ab2565b9550506020613f3488828901613ab2565b9450506040613f4588828901613b45565b9350506060613f5688828901613b45565b925050608086013567ffffffffffffffff811115613f7357600080fd5b613f7f88828901613b99565b9150509295509295909350565b60008060008060008060c08789031215613fa557600080fd5b6000613fb389828a01613ab2565b9650506020613fc489828a01613ab2565b9550506040613fd589828a01613c79565b9450506060613fe689828a01613c79565b9350506080613ff789828a01613b45565b92505060a087013567ffffffffffffffff81111561401457600080fd5b61402089828a01613b99565b9150509295509295509295565b600080600080600060a0868803121561404557600080fd5b600061405388828901613ab2565b955050602061406488828901613ab2565b945050604061407588828901613c79565b935050606061408688828901613c79565b925050608086013567ffffffffffffffff8111156140a357600080fd5b6140af88828901613b99565b9150509295509295909350565b6000806000606084860312156140d157600080fd5b60006140df86828701613ab2565b935050602084013567ffffffffffffffff8111156140fc57600080fd5b61410886828701613b1b565b925050604084013567ffffffffffffffff81111561412557600080fd5b61413186828701613b1b565b9150509250925092565b6000806000806080858703121561415157600080fd5b600061415f87828801613ab2565b945050602085013567ffffffffffffffff81111561417c57600080fd5b61418887828801613b1b565b935050604085013567ffffffffffffffff8111156141a557600080fd5b6141b187828801613b1b565b925050606085013567ffffffffffffffff8111156141ce57600080fd5b6141da87828801613b99565b91505092959194509250565b600080604083850312156141f957600080fd5b600061420785828601613ab2565b925050602061421885828601613b45565b9150509250929050565b6000806000806080858703121561423857600080fd5b600061424687828801613ab2565b945050602061425787828801613b6f565b935050604085013567ffffffffffffffff81111561427457600080fd5b61428087828801613b99565b925050606085013567ffffffffffffffff81111561429d57600080fd5b6142a987828801613b99565b91505092959194509250565b600080604083850312156142c857600080fd5b60006142d685828601613ab2565b92505060206142e785828601613c79565b9150509250929050565b60008060006060848603121561430657600080fd5b600061431486828701613ab2565b935050602061432586828701613c79565b925050604061433686828701613c79565b9150509250925092565b6000806000806080858703121561435657600080fd5b600061436487828801613ab2565b945050602061437587828801613c79565b935050604061438687828801613c79565b925050606085013567ffffffffffffffff8111156143a357600080fd5b6143af87828801613b99565b91505092959194509250565b600080604083850312156143ce57600080fd5b600083013567ffffffffffffffff8111156143e857600080fd5b6143f485828601613af1565b925050602083013567ffffffffffffffff81111561441157600080fd5b61441d85828601613b1b565b9150509250929050565b60006020828403121561443957600080fd5b600061444784828501613b5a565b91505092915050565b60006020828403121561446257600080fd5b600061447084828501613b84565b91505092915050565b6000806040838503121561448c57600080fd5b600083015167ffffffffffffffff8111156144a657600080fd5b6144b285828601613bc3565b925050602083015167ffffffffffffffff8111156144cf57600080fd5b6144db85828601613bc3565b9150509250929050565b6000602082840312156144f757600080fd5b600082015167ffffffffffffffff81111561451157600080fd5b61451d84828501613bed565b91505092915050565b6000806040838503121561453957600080fd5b600083015167ffffffffffffffff81111561455357600080fd5b61455f85828601613bed565b925050602083015167ffffffffffffffff81111561457c57600080fd5b61458885828601613bc3565b9150509250929050565b6000602082840312156145a457600080fd5b60006145b284828501613c79565b91505092915050565b600080604083850312156145ce57600080fd5b60006145dc85828601613c79565b92505060206145ed85828601613c79565b9150509250929050565b60006146038383614a9b565b60208301905092915050565b600061461b8383614ab9565b60208301905092915050565b61463081614fcb565b82525050565b600061464182614f54565b61464b8185614f82565b935061465683614f44565b8060005b8381101561468757815161466e88826145f7565b975061467983614f75565b92505060018101905061465a565b5085935050505092915050565b600061469f82614f54565b6146a98185614f93565b93506146b483614f44565b8060005b838110156146e55781516146cc888261460f565b97506146d783614f75565b9250506001810190506146b8565b5085935050505092915050565b6146fb81614fef565b82525050565b61470a81614ffb565b82525050565b61472161471c82614ffb565b61509d565b82525050565b600061473282614f5f565b61473c8185614faf565b935061474c81856020860161506a565b80840191505092915050565b600061476382614f6a565b61476d8185614fba565b935061477d81856020860161506a565b614786816150b3565b840191505092915050565b600061479e603f83614fba565b91507f455243313135354d6574615061636b656442616c616e6365235f7472616e736660008301527f65724761734665653a2045524332305f5452414e534645525f4641494c4544006020830152604082019050919050565b6000614804603c83614fba565b91507f455243313135354d6574615061636b656442616c616e6365235f7369676e617460008301527f75726556616c69646174696f6e3a20494e56414c49445f4e4f4e4345000000006020830152604082019050919050565b600061486a604083614fba565b91507f455243313135354d6574615061636b656442616c616e6365235f7369676e617460008301527f75726556616c69646174696f6e3a20494e56414c49445f5349474e41545552456020830152604082019050919050565b60006148d0604083614fba565b91507f455243313135354d6574615061636b656442616c616e6365236d65746153616660008301527f655472616e7366657246726f6d3a20494e56414c49445f524543495049454e546020830152604082019050919050565b6000614936604583614fba565b91507f455243313135354d6574615061636b656442616c616e6365236d65746153616660008301527f6542617463685472616e7366657246726f6d3a20494e56414c49445f5245434960208301527f5049454e540000000000000000000000000000000000000000000000000000006040830152606082019050919050565b60006149c2600083614f9e565b9150600082019050919050565b60006149dc603b83614fba565b91507f455243313135354d6574615061636b656442616c616e6365235f7472616e736660008301527f65724761734665653a20554e535550504f525445445f544f4b454e00000000006020830152604082019050919050565b6000614a42603483614fba565b91507f455243313135354d6574614d696e744275726e5061636b656442616c616e636560008301527f4d6f636b3a20494e56414c49445f4d4554484f440000000000000000000000006020830152604082019050919050565b614aa481615051565b82525050565b614ab381615051565b82525050565b614ac281615051565b82525050565b614ad9614ad482615051565b6150a7565b82525050565b6000614aeb8284614694565b915081905092915050565b6000614b028286614727565b9150614b0e8285614ac8565b602082019150614b1e8284614710565b602082019150819050949350505050565b6000614b3b8286614727565b9150614b478285614ac8565b602082019150614b578284614727565b9150819050949350505050565b6000606082019050614b796000830186614627565b614b866020830185614627565b614b936040830184614aaa565b949350505050565b600060a082019050614bb06000830187614627565b614bbd6020830186614627565b614bca6040830185614aaa565b614bd76060830184614aaa565b8181036080830152614be8816149b5565b905095945050505050565b60006020820190508181036000830152614c0d8184614636565b905092915050565b6000602082019050614c2a60008301846146f2565b92915050565b600060c082019050614c456000830189614701565b614c526020830188614627565b614c5f6040830187614627565b614c6c6060830186614701565b614c796080830185614701565b614c8660a0830184614aaa565b979650505050505050565b600060a082019050614ca66000830188614701565b614cb36020830187614627565b614cc06040830186614627565b614ccd6060830185614aaa565b614cda6080830184614aaa565b9695505050505050565b600060c082019050614cf96000830189614701565b614d066020830188614627565b614d136040830187614627565b614d206060830186614aaa565b614d2d6080830185614aaa565b614d3a60a0830184614aaa565b979650505050505050565b60006020820190508181036000830152614d5f8184614758565b905092915050565b60006020820190508181036000830152614d8081614791565b9050919050565b60006020820190508181036000830152614da0816147f7565b9050919050565b60006020820190508181036000830152614dc08161485d565b9050919050565b60006020820190508181036000830152614de0816148c3565b9050919050565b60006020820190508181036000830152614e0081614929565b9050919050565b60006020820190508181036000830152614e20816149cf565b9050919050565b60006020820190508181036000830152614e4081614a35565b9050919050565b6000602082019050614e5c6000830184614aaa565b92915050565b6000604082019050614e776000830185614aaa565b614e846020830184614aaa565b9392505050565b6000604051905081810181811067ffffffffffffffff82111715614eb257614eb16150b1565b5b8060405250919050565b600067ffffffffffffffff821115614ed757614ed66150b1565b5b602082029050602081019050919050565b600067ffffffffffffffff821115614f0357614f026150b1565b5b602082029050602081019050919050565b600067ffffffffffffffff821115614f2f57614f2e6150b1565b5b601f19601f8301169050602081019050919050565b6000819050602082019050919050565b600081519050919050565b600081519050919050565b600081519050919050565b6000602082019050919050565b600082825260208201905092915050565b600081905092915050565b600082825260208201905092915050565b600081905092915050565b600082825260208201905092915050565b6000614fd682615031565b9050919050565b6000614fe882615031565b9050919050565b60008115159050919050565b6000819050919050565b60007fffffffff0000000000000000000000000000000000000000000000000000000082169050919050565b600073ffffffffffffffffffffffffffffffffffffffff82169050919050565b6000819050919050565b82818337600083830152505050565b60005b8381101561508857808201518184015260208101905061506d565b83811115615097576000848401525b50505050565b6000819050919050565b6000819050919050565bfe5b6000601f19601f8301169050919050565b6150cd81614fcb565b81146150d857600080fd5b50565b6150e481614fdd565b81146150ef57600080fd5b50565b6150fb81614fef565b811461510657600080fd5b50565b61511281614ffb565b811461511d57600080fd5b50565b61512981615005565b811461513457600080fd5b50565b61514081615051565b811461514b57600080fd5b5056fe455243313135355061636b656442616c616e63652362616c616e63654f6642617463683a20494e56414c49445f41525241595f4c454e475448455243313135355061636b656442616c616e6365237361666542617463685472616e7366657246726f6d3a20494e56414c49445f524543495049454e544c6962427974657323706f704c617374427974653a20475245415445525f5448414e5f5a45524f5f4c454e4754485f5245515549524544455243313135355061636b656442616c616e6365235f7669657755706461746542696e56616c75653a20554e444552464c4f575369676e617475726556616c696461746f7223697356616c69645369676e61747572653a20554e535550504f525445445f5349474e4154555245455243313135355061636b656442616c616e636523736166655472616e7366657246726f6d3a20494e56414c49445f4f50455241544f525369676e617475726556616c696461746f7223697356616c69645369676e61747572653a20494c4c4547414c5f5349474e4154555245455243313135355061636b656442616c616e6365235f7361666542617463685472616e7366657246726f6d3a20494e56414c49445f4152524159535f4c454e475448455243313135355061636b656442616c616e6365235f63616c6c6f6e45524331313535426174636852656365697665643a20494e56414c49445f4f4e5f524543454956455f4d4553534147455369676e617475726556616c696461746f7223697356616c69645369676e61747572653a204c454e4754485f39375f5245515549524544455243313135355061636b656442616c616e6365237361666542617463685472616e7366657246726f6d3a20494e56414c49445f4f50455241544f52455243313135354d696e744275726e5061636b656442616c616e63652362617463684275726e3a20494e56414c49445f4152524159535f4c454e475448455243313135355061636b656442616c616e6365235f7361666542617463685472616e7366657246726f6d3a20554e444552464c4f575369676e617475726556616c696461746f7223697356616c69645369676e61747572653a20494e56414c49445f5349474e4552455243313135355061636b656442616c616e6365235f63616c6c6f6e4552433131353552656365697665643a20494e56414c49445f4f4e5f524543454956455f4d4553534147455369676e617475726556616c696461746f7223697356616c69645369676e61747572653a204c454e4754485f475245415445525f5448414e5f305f5245515549524544455243313135355061636b656442616c616e636523736166655472616e7366657246726f6d3a20494e56414c49445f524543495049454e544c696242797465732372656164427974657333323a20475245415445525f4f525f455155414c5f544f5f33325f4c454e4754485f5245515549524544455243313135355061636b656442616c616e6365235f7669657755706461746542696e56616c75653a20494e56414c49445f42494e5f57524954455f4f5045524154494f4e455243313135354d696e744275726e5061636b656442616c616e6365235f62617463684d696e743a20494e56414c49445f4152524159535f4c454e475448455243313135355061636b656442616c616e6365235f7669657755706461746542696e56616c75653a204f564552464c4f57a264697066735822122033fcef027100919bc303cf297cb2c4fefe7f2af92b9c7af0267fbca99c7f5cc964736f6c63430007060033",
  "linkReferences": {},
  "deployedLinkReferences": {}
}