{
  "_format": "hh-sol-artifact-1",
  "contractName": "ERC1155ReceiverMock",
  "sourceName": "contracts/libs/multi-token-standard/contracts/mocks/ERC1155ReceiverMock.sol",
  "abi": [
    {
      "anonymous": false,
      "inputs": [
        {
          "indexed": false,
          "internalType": "address",
          "name": "_from",
          "type": "address"
        },
        {
          "indexed": false,
          "internalType": "address",
          "name": "_to",
          "type": "address"
        },
        {
          "indexed": false,
          "internalType": "uint256[]",
          "name": "_fromBalances",
          "type": "uint256[]"
        },
        {
          "indexed": false,
          "internalType": "uint256[]",
          "name": "_toBalances",
          "type": "uint256[]"
        }
      ],
      "name": "TransferBatchReceiver",
      "type": "event"
    },
    {
      "anonymous": false,
      "inputs": [
        {
          "indexed": false,
          "internalType": "address",
          "name": "_from",
          "type": "address"
        },
        {
          "indexed": false,
          "internalType": "address",
          "name": "_to",
          "type": "address"
        },
        {
          "indexed": false,
          "internalType": "uint256",
          "name": "_fromBalance",
          "type": "uint256"
        },
        {
          "indexed": false,
          "internalType": "uint256",
          "name": "_toBalance",
          "type": "uint256"
        }
      ],
      "name": "TransferSingleReceiver",
      "type": "event"
    },
    {
      "inputs": [],
      "name": "lastData",
      "outputs": [
        {
          "internalType": "bytes",
          "name": "",
          "type": "bytes"
        }
      ],
      "stateMutability": "view",
      "type": "function"
    },
    {
      "inputs": [],
      "name": "lastId",
      "outputs": [
        {
          "internalType": "uint256",
          "name": "",
          "type": "uint256"
        }
      ],
      "stateMutability": "view",
      "type": "function"
    },
    {
      "inputs": [],
      "name": "lastOperator",
      "outputs": [
        {
          "internalType": "address",
          "name": "",
          "type": "address"
        }
      ],
      "stateMutability": "view",
      "type": "function"
    },
    {
      "inputs": [],
      "name": "lastValue",
      "outputs": [
        {
          "internalType": "uint256",
          "name": "",
          "type": "uint256"
        }
      ],
      "stateMutability": "view",
      "type": "function"
    },
    {
      "inputs": [
        {
          "internalType": "address",
          "name": "",
          "type": "address"
        },
        {
          "internalType": "address",
          "name": "_from",
          "type": "address"
        },
        {
          "internalType": "uint256[]",
          "name": "_ids",
          "type": "uint256[]"
        },
        {
          "internalType": "uint256[]",
          "name": "",
          "type": "uint256[]"
        },
        {
          "internalType": "bytes",
          "name": "_data",
          "type": "bytes"
        }
      ],
      "name": "onERC1155BatchReceived",
      "outputs": [
        {
          "internalType": "bytes4",
          "name": "",
          "type": "bytes4"
        }
      ],
      "stateMutability": "nonpayable",
      "type": "function"
    },
    {
      "inputs": [
        {
          "internalType": "address",
          "name": "",
          "type": "address"
        },
        {
          "internalType": "address",
          "name": "_from",
          "type": "address"
        },
        {
          "internalType": "uint256",
          "name": "_id",
          "type": "uint256"
        },
        {
          "internalType": "uint256",
          "name": "",
          "type": "uint256"
        },
        {
          "internalType": "bytes",
          "name": "_data",
          "type": "bytes"
        }
      ],
      "name": "onERC1155Received",
      "outputs": [
        {
          "internalType": "bytes4",
          "name": "",
          "type": "bytes4"
        }
      ],
      "stateMutability": "nonpayable",
      "type": "function"
    },
    {
      "inputs": [
        {
          "internalType": "bool",
          "name": "_value",
          "type": "bool"
        }
      ],
      "name": "setShouldReject",
      "outputs": [],
      "stateMutability": "nonpayable",
      "type": "function"
    },
    {
      "inputs": [],
      "name": "shouldReject",
      "outputs": [
        {
          "internalType": "bool",
          "name": "",
          "type": "bool"
        }
      ],
      "stateMutability": "view",
      "type": "function"
    },
    {
      "inputs": [
        {
          "internalType": "bytes4",
          "name": "interfaceID",
          "type": "bytes4"
        }
      ],
      "name": "supportsInterface",
      "outputs": [
        {
          "internalType": "bool",
          "name": "",
          "type": "bool"
        }
      ],
      "stateMutability": "view",
      "type": "function"
    }
  ],
  "bytecode": "0x608060405234801561001057600080fd5b50611100806100206000396000f3fe608060405234801561001057600080fd5b50600436106100925760003560e01c80636eb3cd49116100665780636eb3cd49146101bb578063a175b638146101ef578063bc197c811461021f578063c1292cc314610475578063f23a6e611461049357610092565b80626e75ec1461009757806301ffc9a71461011a5780631dbb93811461017d578063431838341461019d575b600080fd5b61009f6105d5565b6040518080602001828103825283818151815260200191508051906020019080838360005b838110156100df5780820151818401526020810190506100c4565b50505050905090810190601f16801561010c5780820380516001836020036101000a031916815260200191505b509250505060405180910390f35b6101656004803603602081101561013057600080fd5b8101908080357bffffffffffffffffffffffffffffffffffffffffffffffffffffffff19169060200190929190505050610673565b60405180821515815260200191505060405180910390f35b6101856106d5565b60405180821515815260200191505060405180910390f35b6101a56106e6565b6040518082815260200191505060405180910390f35b6101c36106ec565b604051808273ffffffffffffffffffffffffffffffffffffffff16815260200191505060405180910390f35b61021d6004803603602081101561020557600080fd5b81019080803515159060200190929190505050610712565b005b610440600480360360a081101561023557600080fd5b81019080803573ffffffffffffffffffffffffffffffffffffffff169060200190929190803573ffffffffffffffffffffffffffffffffffffffff1690602001909291908035906020019064010000000081111561029257600080fd5b8201836020820111156102a457600080fd5b803590602001918460208302840111640100000000831117156102c657600080fd5b919080806020026020016040519081016040528093929190818152602001838360200280828437600081840152601f19601f8201169050808301925050505050505091929192908035906020019064010000000081111561032657600080fd5b82018360208201111561033857600080fd5b8035906020019184602083028401116401000000008311171561035a57600080fd5b919080806020026020016040519081016040528093929190818152602001838360200280828437600081840152601f19601f820116905080830192505050505050509192919290803590602001906401000000008111156103ba57600080fd5b8201836020820111156103cc57600080fd5b803590602001918460018302840111640100000000831117156103ee57600080fd5b91908080601f016020809104026020016040519081016040528093929190818152602001838380828437600081840152601f19601f82011690508083019250505050505050919291929050505061072e565b60405180827bffffffffffffffffffffffffffffffffffffffffffffffffffffffff1916815260200191505060405180910390f35b61047d610dc8565b6040518082815260200191505060405180910390f35b6105a0600480360360a08110156104a957600080fd5b81019080803573ffffffffffffffffffffffffffffffffffffffff169060200190929190803573ffffffffffffffffffffffffffffffffffffffff16906020019092919080359060200190929190803590602001909291908035906020019064010000000081111561051a57600080fd5b82018360208201111561052c57600080fd5b8035906020019184600183028401116401000000008311171561054e57600080fd5b91908080601f016020809104026020016040519081016040528093929190818152602001838380828437600081840152601f19601f820116905080830192505050505050509192919290505050610dce565b60405180827bffffffffffffffffffffffffffffffffffffffffffffffffffffffff1916815260200191505060405180910390f35b60018054600181600116156101000203166002900480601f01602080910402602001604051908101604052809291908181526020018280546001816001161561010002031660029004801561066b5780601f106106405761010080835404028352916020019161066b565b820191906000526020600020905b81548152906001019060200180831161064e57829003601f168201915b505050505081565b60006301ffc9a760e01b827bffffffffffffffffffffffffffffffffffffffffffffffffffffffff191614806106ce5750634e2312e060e01b827bffffffffffffffffffffffffffffffffffffffffffffffffffffffff1916145b9050919050565b60008054906101000a900460ff1681565b60045481565b600260009054906101000a900473ffffffffffffffffffffffffffffffffffffffff1681565b806000806101000a81548160ff02191690831515021790555050565b600080845167ffffffffffffffff8111801561074957600080fd5b506040519080825280602002602001820160405280156107785781602001602082028036833780820191505090505b5090506000855167ffffffffffffffff8111801561079557600080fd5b506040519080825280602002602001820160405280156107c45781602001602082028036833780820191505090505b50905060005b865181101561086e57878382815181106107e057fe5b602002602001019073ffffffffffffffffffffffffffffffffffffffff16908173ffffffffffffffffffffffffffffffffffffffff16815250503082828151811061082757fe5b602002602001019073ffffffffffffffffffffffffffffffffffffffff16908173ffffffffffffffffffffffffffffffffffffffff168152505080806001019150506107ca565b5060003373ffffffffffffffffffffffffffffffffffffffff16634e1273f484896040518363ffffffff1660e01b8152600401808060200180602001838103835285818151815260200191508051906020019060200280838360005b838110156108e55780820151818401526020810190506108ca565b50505050905001838103825284818151815260200191508051906020019060200280838360005b8381101561092757808201518184015260208101905061090c565b5050505090500194505050505060006040518083038186803b15801561094c57600080fd5b505afa158015610960573d6000803e3d6000fd5b505050506040513d6000823e3d601f19601f82011682018060405250602081101561098a57600080fd5b81019080805160405193929190846401000000008211156109aa57600080fd5b838201915060208201858111156109c057600080fd5b82518660208202830111640100000000821117156109dd57600080fd5b8083526020830192505050908051906020019060200280838360005b83811015610a145780820151818401526020810190506109f9565b50505050905001604052505050905060003373ffffffffffffffffffffffffffffffffffffffff16634e1273f4848a6040518363ffffffff1660e01b8152600401808060200180602001838103835285818151815260200191508051906020019060200280838360005b83811015610a99578082015181840152602081019050610a7e565b50505050905001838103825284818151815260200191508051906020019060200280838360005b83811015610adb578082015181840152602081019050610ac0565b5050505090500194505050505060006040518083038186803b158015610b0057600080fd5b505afa158015610b14573d6000803e3d6000fd5b505050506040513d6000823e3d601f19601f820116820180604052506020811015610b3e57600080fd5b8101908080516040519392919084640100000000821115610b5e57600080fd5b83820191506020820185811115610b7457600080fd5b8251866020820283011164010000000082111715610b9157600080fd5b8083526020830192505050908051906020019060200280838360005b83811015610bc8578082015181840152602081019050610bad565b5050505090500160405250505090507f342e0fabcfd1ee833d876ecb1c45c3c2128e88b7cb5ba33cb71476504c75ac9689308484604051808573ffffffffffffffffffffffffffffffffffffffff1681526020018473ffffffffffffffffffffffffffffffffffffffff1681526020018060200180602001838103835285818151815260200191508051906020019060200280838360005b83811015610c7b578082015181840152602081019050610c60565b50505050905001838103825284818151815260200191508051906020019060200280838360005b83811015610cbd578082015181840152602081019050610ca2565b50505050905001965050505050505060405180910390a16000865114610d835760405160200180807f48656c6c6f2066726f6d20746865206f74686572207369646500000000000000815250601901905060405160208183030381529060405280519060200120868051906020012014610d82576040517f08c379a00000000000000000000000000000000000000000000000000000000081526004018080602001828103825260368152602001806110956036913960400191505060405180910390fd5b5b6001151560008054906101000a900460ff1615151415610db05763deadbeef60e01b945050505050610dbf565b63bc197c8160e01b9450505050505b95945050505050565b60035481565b6000803373ffffffffffffffffffffffffffffffffffffffff1662fdd58e87876040518363ffffffff1660e01b8152600401808373ffffffffffffffffffffffffffffffffffffffff1681526020018281526020019250505060206040518083038186803b158015610e3f57600080fd5b505afa158015610e53573d6000803e3d6000fd5b505050506040513d6020811015610e6957600080fd5b8101908080519060200190929190505050905060003373ffffffffffffffffffffffffffffffffffffffff1662fdd58e30886040518363ffffffff1660e01b8152600401808373ffffffffffffffffffffffffffffffffffffffff1681526020018281526020019250505060206040518083038186803b158015610eec57600080fd5b505afa158015610f00573d6000803e3d6000fd5b505050506040513d6020811015610f1657600080fd5b810190808051906020019092919050505090507f35754fc132e57c492c060947310a879a2a3bc6d8360c268803988f6366a5ffa287308484604051808573ffffffffffffffffffffffffffffffffffffffff1681526020018473ffffffffffffffffffffffffffffffffffffffff16815260200183815260200182815260200194505050505060405180910390a160008451146110535760405160200180807f48656c6c6f2066726f6d20746865206f74686572207369646500000000000000815250601901905060405160208183030381529060405280519060200120848051906020012014611052576040517f08c379a00000000000000000000000000000000000000000000000000000000081526004018080602001828103825260368152602001806110956036913960400191505060405180910390fd5b5b6001151560008054906101000a900460ff161515141561107e5763deadbeef60e01b9250505061108b565b63f23a6e6160e01b925050505b9594505050505056fe4552433131353552656365697665724d6f636b236f6e4552433131353552656365697665643a20554e45585045435445445f44415441a26469706673582212202e63be86c50aa0e287e8b05975f92c794865c8da612a093edf5ce9d4664c552664736f6c63430007060033",
  "linkReferences": {},
  "deployedLinkReferences": {}
}